{
  "address": "0xbA48c68884A83E570D6aAcB8D24b1980A5d53899",
  "abi": [
    {
      "inputs": [
        {
          "internalType": "contract Configuration",
          "name": "_config",
          "type": "address"
        },
        {
          "internalType": "contract PresaleManager",
          "name": "_manager",
          "type": "address"
        }
      ],
      "stateMutability": "nonpayable",
      "type": "constructor"
    },
    {
      "anonymous": false,
      "inputs": [
        {
          "indexed": true,
          "internalType": "address",
          "name": "previousOwner",
          "type": "address"
        },
        {
          "indexed": true,
          "internalType": "address",
          "name": "newOwner",
          "type": "address"
        }
      ],
      "name": "OwnershipTransferred",
      "type": "event"
    },
    {
      "inputs": [
        {
          "internalType": "address",
          "name": "pool",
          "type": "address"
        },
        {
          "internalType": "uint256",
          "name": "deadline",
          "type": "uint256"
        }
      ],
      "name": "afterSwap",
      "outputs": [],
      "stateMutability": "nonpayable",
      "type": "function"
    },
    {
      "inputs": [
        {
          "internalType": "address",
          "name": "pool",
          "type": "address"
        },
        {
          "internalType": "address",
          "name": "recipient",
          "type": "address"
        }
      ],
      "name": "beforeSwap",
      "outputs": [],
      "stateMutability": "nonpayable",
      "type": "function"
    },
    {
      "inputs": [],
      "name": "getFeeVault",
      "outputs": [
        {
          "internalType": "address",
          "name": "",
          "type": "address"
        }
      ],
      "stateMutability": "view",
      "type": "function"
    },
    {
      "inputs": [
        {
          "internalType": "address",
          "name": "token0",
          "type": "address"
        },
        {
          "internalType": "address",
          "name": "token1",
          "type": "address"
        }
      ],
      "name": "getTradeFee",
      "outputs": [
        {
          "internalType": "uint24",
          "name": "",
          "type": "uint24"
        }
      ],
      "stateMutability": "view",
      "type": "function"
    },
    {
      "inputs": [
        {
          "internalType": "address",
          "name": "maker",
          "type": "address"
        }
      ],
      "name": "isWhitelistedMaker",
      "outputs": [
        {
          "internalType": "bool",
          "name": "",
          "type": "bool"
        }
      ],
      "stateMutability": "view",
      "type": "function"
    },
    {
      "inputs": [],
      "name": "owner",
      "outputs": [
        {
          "internalType": "address",
          "name": "",
          "type": "address"
        }
      ],
      "stateMutability": "view",
      "type": "function"
    },
    {
      "inputs": [
        {
          "internalType": "address",
          "name": "_quoter",
          "type": "address"
        }
      ],
      "name": "putQuoter",
      "outputs": [],
      "stateMutability": "nonpayable",
      "type": "function"
    },
    {
      "inputs": [],
      "name": "renounceOwnership",
      "outputs": [],
      "stateMutability": "nonpayable",
      "type": "function"
    },
    {
      "inputs": [
        {
          "internalType": "address",
          "name": "newOwner",
          "type": "address"
        }
      ],
      "name": "transferOwnership",
      "outputs": [],
      "stateMutability": "nonpayable",
      "type": "function"
    }
  ],
  "transactionHash": "0x5681ed57375e82d99ac73ed65c7e0a1d1d073f57f36b3ef48b12b5d9fdff0e54",
  "args": [
    "0x29577ac2308450D8D9034c2babf09DADe69a9aCa",
    "0x972047A3E5BE282c4C3103E7198b1f271955c09B"
  ],
  "numDeployments": 1,
  "solcInputHash": "436d4e27ef3119715d036e0214e3e94b",
  "bytecode": "0x6080346100c057601f610b3c38819003918201601f19168301916001600160401b038311848410176100c55780849260409485528339810103126100c05780516001600160a01b0391828216918290036100c05760200151908282168092036100c0576000549060018060a01b0319913383821617600055604051943391167f8be0079c531659141344cd1fd0a4f28419497f9722a3daafe3b4186f6b6457e0600080a38160015416176001556002541617600255610a6090816100dc8239f35b600080fd5b634e487b7160e01b600052604160045260246000fdfe6040608081526004908136101561001557600080fd5b6000803560e01c806339062909146106b7578063715018a61461065d5780638da5cb5b1461063157806391f5bb07146105ec578063e4b9f08f14610561578063ec0f7cf0146104d8578063f286b19e1461020f578063f2fde38b1461014c5763f56681bf1461008357600080fd5b34610131578160031936011261013157602061009d6106df565b60446100a76106fa565b600154865163f56681bf60e01b81526001600160a01b0394851698810198909852908316602488015286928391165afa9283156101405781936100f4575b60208462ffffff855191168152f35b9092506020813d8211610138575b8161010f60209383610768565b8101031261013457519162ffffff83168303610131575062ffffff60206100e5565b80fd5b8280fd5b3d9150610102565b509051903d90823e3d90fd5b509134610134576020366003190112610134576101676106df565b90610170610710565b6001600160a01b039182169283156101bd57505082546001600160a01b0319811683178455167f8be0079c531659141344cd1fd0a4f28419497f9722a3daafe3b4186f6b6457e08380a380f35b906020608492519162461bcd60e51b8352820152602660248201527f4f776e61626c653a206e6577206f776e657220697320746865207a65726f206160448201526564647265737360d01b6064820152fd5b5091903461013457806003193601126101345761022a6106df565b6102326106fa565b6003546001600160a01b0393919084169084160361024e578480f35b826001541683825180958195635b14f18360e01b835216928388830152602095869160249889915afa9081156103f75788916104bb575b5061046e5760025416908251632b09880360e11b8152818782015284818781865afa9081156103f7578891610451575b50610401578251635003a2db60e11b815286810182905284818781865afa9081156103f75788916103da575b5061038c5783908584518094819363ba2eb54160e01b83528a8301525afa908115610382578691610355575b50610316578480f35b5162461bcd60e51b815292830152601b908201527f50726573616c65506f6f6c4d616e616765723a204578706972656400000000006044820152606490fd5b6103759150833d851161037b575b61036d8183610768565b8101906107bf565b3861030d565b503d610363565b82513d88823e3d90fd5b825162461bcd60e51b81528087018590526023818701527f50726573616c65506f6f6c4d616e616765723a20506f6f6c2069732070656e64604482015262696e6760e81b6064820152608490fd5b6103f19150853d871161037b5761036d8183610768565b386102e1565b84513d8a823e3d90fd5b825162461bcd60e51b81528087018590526025818701527f50726573616c65506f6f6c4d616e616765723a20426f6e64696e6720637572766044820152641948195b9960da1b6064820152608490fd5b6104689150853d871161037b5761036d8183610768565b386102b5565b825162461bcd60e51b81528087018590526022818701527f50726573616c65506f6f6c4d616e616765723a20506f6f6c2069732070617573604482015261195960f21b6064820152608490fd5b6104d29150853d871161037b5761036d8183610768565b38610285565b509190346101345782600319360112610134576001548151630ec0f7cf60e41b8152926001600160a01b0392916020918591829086165afa9283156105575760209493610528575b505191168152f35b610549919350843d8111610550575b6105418183610768565b8101906107a0565b9138610520565b503d610537565b81513d86823e3d90fd5b5091903461013457602036600319011261013457602061057f6106df565b6001548351632066bf6d60e21b81526001600160a01b039283169581019590955284916024918391165afa9182156105e257602093926105c3575b50519015158152f35b6105db919250833d811161037b5761036d8183610768565b90386105ba565b81513d85823e3d90fd5b5034610131576020366003190112610131576106066106df565b61060e610710565b60018060a01b03166bffffffffffffffffffffffff60a01b600354161760035580f35b509034610659578160031936011261065957905490516001600160a01b039091168152602090f35b5080fd5b5034610131578060031936011261013157610676610710565b80546001600160a01b03198116825581906001600160a01b03167f8be0079c531659141344cd1fd0a4f28419497f9722a3daafe3b4186f6b6457e08280a380f35b50903461065957366003190112610131576106dc6106d36106df565b602435906107d7565b80f35b600435906001600160a01b03821682036106f557565b600080fd5b602435906001600160a01b03821682036106f557565b6000546001600160a01b0316330361072457565b606460405162461bcd60e51b815260206004820152602060248201527f4f776e61626c653a2063616c6c6572206973206e6f7420746865206f776e65726044820152fd5b90601f8019910116810190811067ffffffffffffffff82111761078a57604052565b634e487b7160e01b600052604160045260246000fd5b908160209103126106f557516001600160a01b03811681036106f55790565b908160209103126106f5575180151581036106f55790565b60025460408051632b09880360e11b81526001600160a01b0393841660048083018290529294602494919290916020919083169082818881855afa9081156109f857600091610a0d575b5015610a0357848284600154168951928380926301cc382760e71b82525afa9081156109f8579084916000916109db575b50169384156109d05787516377ce88eb60e01b808252878201839052919084818a81875afa9081156109a657878a8a898e8a956000976109b1575b505195869485936302f1b49760e21b8552840152165afa9081156109a657600091610989575b506108c5575b50505050505050505050565b8784928a51948593849283528a8301525afa91821561097e57600092610961575b50501694853b156106f55760446000928387519889948593631f72642160e31b855288850152888401525af1801561095657610928575b8080808080806108b9565b67ffffffffffffffff8411610943575050523880808061091d565b604190634e487b7160e01b600052526000fd5b83513d6000823e3d90fd5b6109779250803d10610550576105418183610768565b38806108e6565b87513d6000823e3d90fd5b6109a09150853d871161037b5761036d8183610768565b386108b3565b8a513d6000823e3d90fd5b6109c9919750863d8811610550576105418183610768565b953861088d565b505050505050505050565b6109f29150843d8611610550576105418183610768565b38610852565b88513d6000823e3d90fd5b5050505050505050565b610a249150833d851161037b5761036d8183610768565b3861082156fea2646970667358221220dd1c73d9be326255fd8f17290cc23f88f304656e026d6dc94a913e21df2be51d64736f6c63430008130033",
  "devdoc": {
    "kind": "dev",
    "methods": {
      "owner()": {
        "details": "Returns the address of the current owner."
      },
      "renounceOwnership()": {
        "details": "Leaves the contract without owner. It will not be possible to call `onlyOwner` functions. Can only be called by the current owner. NOTE: Renouncing ownership will leave the contract without an owner, thereby disabling any functionality that is only available to the owner."
      },
      "transferOwnership(address)": {
        "details": "Transfers ownership of the contract to a new account (`newOwner`). Can only be called by the current owner."
      }
    },
    "version": 1
  },
  "userdoc": {
    "kind": "user",
    "methods": {},
    "version": 1
  },
  "storageLayout": {
    "storage": [
      {
        "astId": 20974,
        "contract": "contracts/PresalePoolManager.sol:PresalePoolManager",
        "label": "_owner",
        "offset": 0,
        "slot": "0",
        "type": "t_address"
      },
      {
        "astId": 26892,
        "contract": "contracts/PresalePoolManager.sol:PresalePoolManager",
        "label": "config",
        "offset": 0,
        "slot": "1",
        "type": "t_contract(Configuration)26873"
      },
      {
        "astId": 26895,
        "contract": "contracts/PresalePoolManager.sol:PresalePoolManager",
        "label": "manager",
        "offset": 0,
        "slot": "2",
        "type": "t_contract(PresaleManager)28070"
      },
      {
        "astId": 26897,
        "contract": "contracts/PresalePoolManager.sol:PresalePoolManager",
        "label": "quoter",
        "offset": 0,
        "slot": "3",
        "type": "t_address"
      }
    ],
    "types": {
      "t_address": {
        "encoding": "inplace",
        "label": "address",
        "numberOfBytes": "20"
      },
      "t_contract(Configuration)26873": {
        "encoding": "inplace",
        "label": "contract Configuration",
        "numberOfBytes": "20"
      },
      "t_contract(PresaleManager)28070": {
        "encoding": "inplace",
        "label": "contract PresaleManager",
        "numberOfBytes": "20"
      }
    }
  }
}