{
  "address": "0x972047A3E5BE282c4C3103E7198b1f271955c09B",
  "abi": [
    {
      "inputs": [
        {
          "internalType": "contract Configuration",
          "name": "_config",
          "type": "address"
        }
      ],
      "stateMutability": "nonpayable",
      "type": "constructor"
    },
    {
      "anonymous": false,
      "inputs": [
        {
          "indexed": true,
          "internalType": "address",
          "name": "previousOwner",
          "type": "address"
        },
        {
          "indexed": true,
          "internalType": "address",
          "name": "newOwner",
          "type": "address"
        }
      ],
      "name": "OwnershipTransferred",
      "type": "event"
    },
    {
      "anonymous": false,
      "inputs": [
        {
          "indexed": false,
          "internalType": "string",
          "name": "name",
          "type": "string"
        },
        {
          "indexed": false,
          "internalType": "string",
          "name": "symbol",
          "type": "string"
        },
        {
          "indexed": false,
          "internalType": "address",
          "name": "token",
          "type": "address"
        },
        {
          "indexed": false,
          "internalType": "address",
          "name": "paymentToken",
          "type": "address"
        },
        {
          "indexed": false,
          "internalType": "address",
          "name": "pairAddress",
          "type": "address"
        },
        {
          "indexed": false,
          "internalType": "uint256",
          "name": "presaleAmount",
          "type": "uint256"
        },
        {
          "indexed": false,
          "internalType": "uint256",
          "name": "totalSupply",
          "type": "uint256"
        },
        {
          "indexed": false,
          "internalType": "uint256",
          "name": "saleAmount",
          "type": "uint256"
        },
        {
          "indexed": false,
          "internalType": "string",
          "name": "data",
          "type": "string"
        }
      ],
      "name": "PresaleCreated",
      "type": "event"
    },
    {
      "inputs": [
        {
          "internalType": "address",
          "name": "target",
          "type": "address"
        }
      ],
      "name": "getPresale",
      "outputs": [
        {
          "internalType": "contract IPresale",
          "name": "",
          "type": "address"
        }
      ],
      "stateMutability": "view",
      "type": "function"
    },
    {
      "inputs": [
        {
          "internalType": "address",
          "name": "target",
          "type": "address"
        }
      ],
      "name": "getProgress",
      "outputs": [
        {
          "internalType": "uint256",
          "name": "",
          "type": "uint256"
        }
      ],
      "stateMutability": "view",
      "type": "function"
    },
    {
      "inputs": [
        {
          "internalType": "address",
          "name": "target",
          "type": "address"
        }
      ],
      "name": "getRaisedAmount",
      "outputs": [
        {
          "internalType": "uint256",
          "name": "",
          "type": "uint256"
        }
      ],
      "stateMutability": "view",
      "type": "function"
    },
    {
      "inputs": [
        {
          "internalType": "address",
          "name": "target",
          "type": "address"
        }
      ],
      "name": "isBondingCurveEnd",
      "outputs": [
        {
          "internalType": "bool",
          "name": "",
          "type": "bool"
        }
      ],
      "stateMutability": "view",
      "type": "function"
    },
    {
      "inputs": [
        {
          "internalType": "address",
          "name": "target",
          "type": "address"
        }
      ],
      "name": "isExpired",
      "outputs": [
        {
          "internalType": "bool",
          "name": "",
          "type": "bool"
        }
      ],
      "stateMutability": "view",
      "type": "function"
    },
    {
      "inputs": [
        {
          "internalType": "address",
          "name": "target",
          "type": "address"
        }
      ],
      "name": "isPending",
      "outputs": [
        {
          "internalType": "bool",
          "name": "",
          "type": "bool"
        }
      ],
      "stateMutability": "view",
      "type": "function"
    },
    {
      "inputs": [],
      "name": "owner",
      "outputs": [
        {
          "internalType": "address",
          "name": "",
          "type": "address"
        }
      ],
      "stateMutability": "view",
      "type": "function"
    },
    {
      "inputs": [
        {
          "internalType": "address",
          "name": "",
          "type": "address"
        }
      ],
      "name": "presales",
      "outputs": [
        {
          "internalType": "address",
          "name": "",
          "type": "address"
        }
      ],
      "stateMutability": "view",
      "type": "function"
    },
    {
      "inputs": [
        {
          "internalType": "address",
          "name": "",
          "type": "address"
        }
      ],
      "name": "presalesByPool",
      "outputs": [
        {
          "internalType": "address",
          "name": "",
          "type": "address"
        }
      ],
      "stateMutability": "view",
      "type": "function"
    },
    {
      "inputs": [
        {
          "internalType": "contract IPresale",
          "name": "presale",
          "type": "address"
        }
      ],
      "name": "register",
      "outputs": [],
      "stateMutability": "nonpayable",
      "type": "function"
    },
    {
      "inputs": [],
      "name": "renounceOwnership",
      "outputs": [],
      "stateMutability": "nonpayable",
      "type": "function"
    },
    {
      "inputs": [
        {
          "internalType": "address",
          "name": "newOwner",
          "type": "address"
        }
      ],
      "name": "transferOwnership",
      "outputs": [],
      "stateMutability": "nonpayable",
      "type": "function"
    }
  ],
  "transactionHash": "0x0c88b892b101ccc6394c06f564eb5ab61367a4f51f714a4f323387550c9779eb",
  "args": [
    "0x29577ac2308450D8D9034c2babf09DADe69a9aCa"
  ],
  "numDeployments": 1,
  "solcInputHash": "436d4e27ef3119715d036e0214e3e94b",
  "bytecode": "0x6080346100a757601f610bcc38819003918201601f19168301916001600160401b038311848410176100ac578084926020946040528339810103126100a757516001600160a01b0390818116908190036100a75760005460018060a01b0319903382821617600055604051933391167f8be0079c531659141344cd1fd0a4f28419497f9722a3daafe3b4186f6b6457e0600080a36003541617600355610b0990816100c38239f35b600080fd5b634e487b7160e01b600052604160045260246000fdfe608060408181526004908136101561001657600080fd5b600092833560e01c9081634420e486146105385750806350ecc0aa146104dc578063561310061461047e578063715018a61461042457806377ce88eb146103e95780638da5cb5b146103c1578063a00745b61461032c578063aef765011461029d578063ba2eb541146101f2578063d4ed77b5146101b5578063efcd708f146101745763f2fde38b146100a857600080fd5b34610170576020366003190112610170576001600160a01b0382358181169391929084900361016c576100d961084b565b831561011a57505082546001600160a01b0319811683178455167f8be0079c531659141344cd1fd0a4f28419497f9722a3daafe3b4186f6b6457e08380a380f35b906020608492519162461bcd60e51b8352820152602660248201527f4f776e61626c653a206e6577206f776e657220697320746865207a65726f206160448201526564647265737360d01b6064820152fd5b8480fd5b8280fd5b509034610170576020366003190112610170576001600160a01b039035818116908190036101b15783839160209552600185522054169051908152f35b8380fd5b509034610170576020366003190112610170576001600160a01b039035818116908190036101b15783839160209552600285522054169051908152f35b508290346102995760209283600319360112610170576001600160a01b038135818116810361016c57906102268692610a94565b16835192838092630bc4ed8360e21b82525afa92831561028e578093610251575b5050519015158152f35b909192508382813d8311610287575b61026a81836108a3565b81010312610284575061027c906108db565b908380610247565b80fd5b503d610260565b8251903d90823e3d90fd5b5080fd5b508290346102995760209283600319360112610170576001600160a01b038135818116810361016c57906102d18692610a94565b168351928380926349ce222b60e11b82525afa92831561028e5780936102fa575b505051908152f35b909192508382813d8311610325575b61031381836108a3565b810103126102845750519083806102f2565b503d610309565b50903461017057602036600319011261017057826001600160a01b03823581811681036101705761035c90610a94565b16835192838092631b80ac7560e11b82525afa9081156103b55790610120918460209592610392575b5050015190519042108152f35b6103ae92503d8091833e6103a681836108a3565b810190610979565b3880610385565b505051903d90823e3d90fd5b838234610299578160031936011261029957905490516001600160a01b039091168152602090f35b5090346101705760203660031901126101705735916001600160a01b03908184168403610284575061041c602093610a94565b915191168152f35b833461028457806003193601126102845761043d61084b565b80546001600160a01b03198116825581906001600160a01b03167f8be0079c531659141344cd1fd0a4f28419497f9722a3daafe3b4186f6b6457e08280a380f35b508290346102995760209283600319360112610170576001600160a01b038135818116810361016c57906104b28692610a94565b1683519283809263352b263f60e21b82525afa92831561028e578093610251575050519015158152f35b508290346102995760209283600319360112610170576001600160a01b038135818116810361016c57906105108692610a94565b1683519283809263473af24160e11b82525afa92831561028e5780936102fa57505051908152f35b91929050346101b1576020908160031936011261016c576001600160a01b0392813584811691908290036108405783816024818860035416632066bf6d60e21b825233888301525afa9081156107c6578791610812575b50156107d0578451636addb66360e01b8152928684848183865af19182156107c6578795889689968a95610749575b50811691828a526001845281898b2054166106fb57908991828a518098631b80ac7560e11b825281845afa9687156106f15792610698999895926106cf9895927f5907e68cbd0987ce3c33605889d26eb3a84e33833c3ccb79192c00ca73f707319c989583976106d5575b5083835260018552888320906bffffffffffffffffffffffff60a01b918183825416179055898089019484865116815260028852209182541617905580606087015116915116916106a460808701519460c060a0890151980151988a51809e819e610120808452830190610a6f565b92818403910152610a6f565b978a01526060890152608088015260a087015260c086015260e0850152838203610100850152610a6f565b0390a180f35b6106ea9197503d8085833e6103a681836108a3565b9538610629565b8a513d85823e3d90fd5b885162461bcd60e51b8152808701859052602260248201527f50726573616c654d616e616765723a20414c52454144595f5245474953544552604482015261115160f21b6064820152608490fd5b975050945091503d8088873e61075f81876108a3565b8501916080868403126107c257610775866108ed565b948287015167ffffffffffffffff908181116107be5785610797918a01610924565b94898901519182116107be576107b260609184938b01610924565b980151949796906105be565b8a80fd5b8780fd5b86513d89823e3d90fd5b5060649184519162461bcd60e51b8352820152601960248201527f50726573616c654d616e616765723a20464f5242494444454e000000000000006044820152fd5b90508381813d8311610844575b61082981836108a3565b810103126108405761083a906108db565b3861058f565b8680fd5b503d61081f565b6000546001600160a01b0316330361085f57565b606460405162461bcd60e51b815260206004820152602060248201527f4f776e61626c653a2063616c6c6572206973206e6f7420746865206f776e65726044820152fd5b90601f8019910116810190811067ffffffffffffffff8211176108c557604052565b634e487b7160e01b600052604160045260246000fd5b519081151582036108e857565b600080fd5b51906001600160a01b03821682036108e857565b60005b8381106109145750506000910152565b8181015183820152602001610904565b81601f820112156108e857805167ffffffffffffffff81116108c55760405192610958601f8301601f1916602001856108a3565b818452602082840101116108e8576109769160208085019101610901565b90565b6020818303126108e857805167ffffffffffffffff918282116108e85701906101609283838203126108e857604051938401848110838211176108c5576040526109c2836108ed565b84526109d0602084016108ed565b60208501526109e1604084016108ed565b60408501526109f2606084016108ed565b60608501526080830151608085015260a083015160a085015260c08301519182116108e857610a22918301610924565b60c083015260e081015162ffffff811681036108e85760e0830152610100610a4b8183016108db565b908301526101208082015190830152610a686101408092016108db565b9082015290565b90602091610a8881518092818552858086019101610901565b601f01601f1916010190565b6001600160a01b03908116600090815260016020526040902054811615610ac45760016020526040600020541690565b6002602052604060002054169056fea2646970667358221220a7cb8ea36a9143e4df3f3200aa9dee5e36ecb39e99c45e54917ac9ac2d92494c64736f6c63430008130033",
  "devdoc": {
    "kind": "dev",
    "methods": {
      "owner()": {
        "details": "Returns the address of the current owner."
      },
      "renounceOwnership()": {
        "details": "Leaves the contract without owner. It will not be possible to call `onlyOwner` functions. Can only be called by the current owner. NOTE: Renouncing ownership will leave the contract without an owner, thereby disabling any functionality that is only available to the owner."
      },
      "transferOwnership(address)": {
        "details": "Transfers ownership of the contract to a new account (`newOwner`). Can only be called by the current owner."
      }
    },
    "version": 1
  },
  "userdoc": {
    "kind": "user",
    "methods": {},
    "version": 1
  },
  "storageLayout": {
    "storage": [
      {
        "astId": 20974,
        "contract": "contracts/presale-manager/PresaleManager.sol:PresaleManager",
        "label": "_owner",
        "offset": 0,
        "slot": "0",
        "type": "t_address"
      },
      {
        "astId": 27831,
        "contract": "contracts/presale-manager/PresaleManager.sol:PresaleManager",
        "label": "presales",
        "offset": 0,
        "slot": "1",
        "type": "t_mapping(t_address,t_address)"
      },
      {
        "astId": 27835,
        "contract": "contracts/presale-manager/PresaleManager.sol:PresaleManager",
        "label": "presalesByPool",
        "offset": 0,
        "slot": "2",
        "type": "t_mapping(t_address,t_address)"
      },
      {
        "astId": 27838,
        "contract": "contracts/presale-manager/PresaleManager.sol:PresaleManager",
        "label": "config",
        "offset": 0,
        "slot": "3",
        "type": "t_contract(Configuration)26873"
      }
    ],
    "types": {
      "t_address": {
        "encoding": "inplace",
        "label": "address",
        "numberOfBytes": "20"
      },
      "t_contract(Configuration)26873": {
        "encoding": "inplace",
        "label": "contract Configuration",
        "numberOfBytes": "20"
      },
      "t_mapping(t_address,t_address)": {
        "encoding": "mapping",
        "key": "t_address",
        "label": "mapping(address => address)",
        "numberOfBytes": "32",
        "value": "t_address"
      }
    }
  }
}