{
  "address": "0x4AF1D5dD5A90327212B3762ca0dE16d097310e71",
  "abi": [
    {
      "inputs": [
        {
          "internalType": "contract Configuration",
          "name": "_config",
          "type": "address"
        },
        {
          "internalType": "contract PresaleManager",
          "name": "_presaleManager",
          "type": "address"
        },
        {
          "internalType": "contract TokenFactory",
          "name": "_tokenFactory",
          "type": "address"
        },
        {
          "internalType": "contract IUniswapV3Factory",
          "name": "_poolFactory",
          "type": "address"
        },
        {
          "internalType": "contract INonfungiblePositionManager",
          "name": "_positionManager",
          "type": "address"
        },
        {
          "internalType": "contract ISwapRouter",
          "name": "_swapRouter",
          "type": "address"
        },
        {
          "internalType": "contract Quoter",
          "name": "_quoter",
          "type": "address"
        },
        {
          "internalType": "address",
          "name": "_weth",
          "type": "address"
        }
      ],
      "stateMutability": "nonpayable",
      "type": "constructor"
    },
    {
      "inputs": [],
      "name": "config",
      "outputs": [
        {
          "internalType": "contract Configuration",
          "name": "",
          "type": "address"
        }
      ],
      "stateMutability": "view",
      "type": "function"
    },
    {
      "inputs": [],
      "name": "eth",
      "outputs": [
        {
          "internalType": "address",
          "name": "",
          "type": "address"
        }
      ],
      "stateMutability": "view",
      "type": "function"
    },
    {
      "inputs": [],
      "name": "implementation",
      "outputs": [
        {
          "internalType": "contract UniswapV3Presale",
          "name": "",
          "type": "address"
        }
      ],
      "stateMutability": "view",
      "type": "function"
    },
    {
      "inputs": [
        {
          "internalType": "address",
          "name": "operator",
          "type": "address"
        },
        {
          "internalType": "address",
          "name": "from",
          "type": "address"
        },
        {
          "internalType": "uint256",
          "name": "tokenId",
          "type": "uint256"
        },
        {
          "internalType": "bytes",
          "name": "data",
          "type": "bytes"
        }
      ],
      "name": "onERC721Received",
      "outputs": [
        {
          "internalType": "bytes4",
          "name": "",
          "type": "bytes4"
        }
      ],
      "stateMutability": "nonpayable",
      "type": "function"
    },
    {
      "inputs": [],
      "name": "poolFactory",
      "outputs": [
        {
          "internalType": "contract IUniswapV3Factory",
          "name": "",
          "type": "address"
        }
      ],
      "stateMutability": "view",
      "type": "function"
    },
    {
      "inputs": [],
      "name": "poolFee",
      "outputs": [
        {
          "internalType": "uint24",
          "name": "",
          "type": "uint24"
        }
      ],
      "stateMutability": "view",
      "type": "function"
    },
    {
      "inputs": [],
      "name": "positionManager",
      "outputs": [
        {
          "internalType": "contract INonfungiblePositionManager",
          "name": "",
          "type": "address"
        }
      ],
      "stateMutability": "view",
      "type": "function"
    },
    {
      "inputs": [],
      "name": "presaleManager",
      "outputs": [
        {
          "internalType": "contract PresaleManager",
          "name": "",
          "type": "address"
        }
      ],
      "stateMutability": "view",
      "type": "function"
    },
    {
      "inputs": [],
      "name": "quoter",
      "outputs": [
        {
          "internalType": "contract Quoter",
          "name": "",
          "type": "address"
        }
      ],
      "stateMutability": "view",
      "type": "function"
    },
    {
      "inputs": [
        {
          "internalType": "address",
          "name": "minter",
          "type": "address"
        },
        {
          "internalType": "address",
          "name": "paymentToken",
          "type": "address"
        },
        {
          "internalType": "address",
          "name": "saleToken",
          "type": "address"
        },
        {
          "internalType": "uint160",
          "name": "sqrtPriceX96",
          "type": "uint160"
        },
        {
          "internalType": "int24",
          "name": "tickLower",
          "type": "int24"
        },
        {
          "internalType": "int24",
          "name": "tickUpper",
          "type": "int24"
        },
        {
          "internalType": "uint256",
          "name": "amountToSale",
          "type": "uint256"
        },
        {
          "internalType": "uint256",
          "name": "amountToRaise",
          "type": "uint256"
        },
        {
          "internalType": "uint256",
          "name": "amountForBuyInstantly",
          "type": "uint256"
        },
        {
          "internalType": "uint24",
          "name": "toTreasuryRate",
          "type": "uint24"
        },
        {
          "internalType": "uint256",
          "name": "startTimestamp",
          "type": "uint256"
        },
        {
          "internalType": "uint256",
          "name": "deadline",
          "type": "uint256"
        },
        {
          "internalType": "string",
          "name": "data",
          "type": "string"
        }
      ],
      "name": "start",
      "outputs": [
        {
          "internalType": "contract IPresale",
          "name": "",
          "type": "address"
        }
      ],
      "stateMutability": "payable",
      "type": "function"
    },
    {
      "inputs": [
        {
          "internalType": "address",
          "name": "minter",
          "type": "address"
        },
        {
          "internalType": "address",
          "name": "paymentToken",
          "type": "address"
        },
        {
          "internalType": "string",
          "name": "name",
          "type": "string"
        },
        {
          "internalType": "string",
          "name": "symbol",
          "type": "string"
        },
        {
          "internalType": "uint256",
          "name": "totalSupply",
          "type": "uint256"
        },
        {
          "internalType": "uint160",
          "name": "sqrtPriceX96",
          "type": "uint160"
        },
        {
          "internalType": "int24",
          "name": "tickLower",
          "type": "int24"
        },
        {
          "internalType": "int24",
          "name": "tickUpper",
          "type": "int24"
        },
        {
          "internalType": "uint256",
          "name": "amountToSale",
          "type": "uint256"
        },
        {
          "internalType": "uint256",
          "name": "amountToRaise",
          "type": "uint256"
        },
        {
          "internalType": "uint256",
          "name": "amountForBuyInstantly",
          "type": "uint256"
        },
        {
          "internalType": "uint24",
          "name": "toTreasuryRate",
          "type": "uint24"
        },
        {
          "internalType": "uint256",
          "name": "startTimestamp",
          "type": "uint256"
        },
        {
          "internalType": "uint256",
          "name": "deadline",
          "type": "uint256"
        },
        {
          "internalType": "string",
          "name": "data",
          "type": "string"
        }
      ],
      "name": "startWithNewToken",
      "outputs": [
        {
          "internalType": "contract IPresale",
          "name": "",
          "type": "address"
        }
      ],
      "stateMutability": "payable",
      "type": "function"
    },
    {
      "inputs": [
        {
          "components": [
            {
              "internalType": "address",
              "name": "paymentToken",
              "type": "address"
            },
            {
              "internalType": "string",
              "name": "name",
              "type": "string"
            },
            {
              "internalType": "string",
              "name": "symbol",
              "type": "string"
            },
            {
              "internalType": "uint256",
              "name": "totalSupply",
              "type": "uint256"
            },
            {
              "internalType": "uint160",
              "name": "sqrtPriceX96",
              "type": "uint160"
            },
            {
              "internalType": "int24",
              "name": "tickLower",
              "type": "int24"
            },
            {
              "internalType": "int24",
              "name": "tickUpper",
              "type": "int24"
            },
            {
              "internalType": "uint256",
              "name": "amountToSale",
              "type": "uint256"
            },
            {
              "internalType": "uint256",
              "name": "amountToRaise",
              "type": "uint256"
            },
            {
              "internalType": "uint256",
              "name": "amountForBuyInstantly",
              "type": "uint256"
            },
            {
              "internalType": "uint24",
              "name": "toTreasuryRate",
              "type": "uint24"
            },
            {
              "internalType": "uint256",
              "name": "startTimestamp",
              "type": "uint256"
            },
            {
              "internalType": "uint256",
              "name": "deadline",
              "type": "uint256"
            },
            {
              "internalType": "string",
              "name": "data",
              "type": "string"
            }
          ],
          "internalType": "struct UniswapV3PresaleMaker.NewTokenPresaleParams",
          "name": "params",
          "type": "tuple"
        },
        {
          "internalType": "address",
          "name": "minter",
          "type": "address"
        }
      ],
      "name": "startWithNewTokenWithParams",
      "outputs": [
        {
          "internalType": "contract IPresale",
          "name": "",
          "type": "address"
        }
      ],
      "stateMutability": "payable",
      "type": "function"
    },
    {
      "inputs": [
        {
          "components": [
            {
              "internalType": "address",
              "name": "paymentToken",
              "type": "address"
            },
            {
              "internalType": "address",
              "name": "saleToken",
              "type": "address"
            },
            {
              "internalType": "uint160",
              "name": "sqrtPriceX96",
              "type": "uint160"
            },
            {
              "internalType": "int24",
              "name": "tickLower",
              "type": "int24"
            },
            {
              "internalType": "int24",
              "name": "tickUpper",
              "type": "int24"
            },
            {
              "internalType": "uint256",
              "name": "amountToSale",
              "type": "uint256"
            },
            {
              "internalType": "uint256",
              "name": "amountToRaise",
              "type": "uint256"
            },
            {
              "internalType": "uint256",
              "name": "amountForBuyInstantly",
              "type": "uint256"
            },
            {
              "internalType": "uint24",
              "name": "toTreasuryRate",
              "type": "uint24"
            },
            {
              "internalType": "uint256",
              "name": "startTimestamp",
              "type": "uint256"
            },
            {
              "internalType": "uint256",
              "name": "deadline",
              "type": "uint256"
            },
            {
              "internalType": "string",
              "name": "data",
              "type": "string"
            }
          ],
          "internalType": "struct UniswapV3PresaleMaker.TokenPresaleParams",
          "name": "params",
          "type": "tuple"
        },
        {
          "internalType": "address",
          "name": "minter",
          "type": "address"
        }
      ],
      "name": "startWithParams",
      "outputs": [
        {
          "internalType": "contract IPresale",
          "name": "",
          "type": "address"
        }
      ],
      "stateMutability": "payable",
      "type": "function"
    },
    {
      "inputs": [],
      "name": "swapRouter",
      "outputs": [
        {
          "internalType": "contract ISwapRouter",
          "name": "",
          "type": "address"
        }
      ],
      "stateMutability": "view",
      "type": "function"
    },
    {
      "inputs": [],
      "name": "tokenFactory",
      "outputs": [
        {
          "internalType": "contract TokenFactory",
          "name": "",
          "type": "address"
        }
      ],
      "stateMutability": "view",
      "type": "function"
    },
    {
      "inputs": [],
      "name": "weth",
      "outputs": [
        {
          "internalType": "address",
          "name": "",
          "type": "address"
        }
      ],
      "stateMutability": "view",
      "type": "function"
    }
  ],
  "transactionHash": "0x95dc95b5de0102e007151bc364a7093a746e588925ff87e7baaa5103199abb42",
  "args": [
    "0x29577ac2308450D8D9034c2babf09DADe69a9aCa",
    "0x972047A3E5BE282c4C3103E7198b1f271955c09B",
    "0x9d238a8C369aA62E53F7aA0Fb9feCd91Ae47FD46",
    "0xADe715cfbf608BbCe8729EcD87fe4d5A60e05acD",
    "0x910760bfbE2D2DB1b3F3AEa95d7dC2ea7934CE52",
    "0x49058322118189BD88CD12d319050b90FB39Db46",
    "0x579Bd753Bb9665d2bB8C116cf8342A3fa58A9Fa2",
    "0xfFf9976782d46CC05630D1f6eBAb18b2324d6B14"
  ],
  "numDeployments": 1,
  "solcInputHash": "436d4e27ef3119715d036e0214e3e94b",
  "bytecode": "0x6101c034620002cf576001600160401b036200637038819003601f8101601f1916840183811185821017620002b95784928291604052833961010093849181010312620002cf5780516001600160a01b03918282168203620002cf576020810151938385168503620002cf576040820151908482168203620002cf5760608301518581168103620002cf576080840151908682168203620002cf5760a0850151938785168503620002cf5760c0860151958887168703620002cf5760e001519788168803620002cf57610180966064885260805260a05260e052875261012095865260405190612d42908183019083821090821117620002b95782916200362e833903906000f08015620002ad5760c0526101409081526101a0938452610160918252604051946133599687620002d5883960805187818161064901528181610c1501528181610ca301528181610d0501528181610d5001528181610dc701528181610e3b01528181610e960152818161121a015281816115ba01528181611d8301528181611dfa01528181611e6f01528181611eca0152818161224d01526125a8015260a05187818160fc0152610baa015260c0518781816106d50152818161128b01526122be015260e05187818161071b01528181610fb20152611fe501525186818161068f015281816110fe015281816112eb01528181611491015281816121310152818161231e01526124c30152518581816107a701528181611510015261250001525184818161018a015281816110ce0152818161210101528181612e5a0152612ed00152518381816101450152818161112e015261216101525182818161096a01528181610f7e0152818161137501528181611fb1015281816123a80152612d8201525181818161076101528181610c8101528181610eff01528181611f320152612d390152f35b6040513d6000823e3d90fd5b634e487b7160e01b600052604160045260246000fd5b600080fdfe6101206040818152600491823610156200001857600080fd5b600092833560e01c918263089fe6aa146200094d57508163150b7a0214620008da5781632524a67514620007d65781632c012f8914620007905781633fc8cef3146200074a5781634219dc4014620007045781635c60da1b14620006be578163791b98bc146200067857816379502c551462000632578163897eec6314620004465781638c7c9e0c1462000429578163acccb6621462000297578163c05dbf7e14620001b957508063c31c9c071462000174578063c6bbd5a7146200012f5763e77772fe14620000e757600080fd5b346200012b57816003193601126200012b57517f00000000000000000000000000000000000000000000000000000000000000006001600160a01b03168152602090f35b5080fd5b50346200012b57816003193601126200012b57517f00000000000000000000000000000000000000000000000000000000000000006001600160a01b03168152602090f35b50346200012b57816003193601126200012b57517f00000000000000000000000000000000000000000000000000000000000000006001600160a01b03168152602090f35b82846101a03660031901126200028857620001d36200098e565b620001dd620009aa565b6001600160a01b039260443584811681036200012b576064359285841684036200029357608435948560020b86036200028f5760a435988960020b8a036200028b57610124359462ffffff86168603620002885761018435906001600160401b0382116200028857509162000262620002809896949260209c98969436910162000a5b565b9661016435966101443596610104359560e4359560c4359562001d3e565b915191168152f35b80fd5b8480fd5b8380fd5b8280fd5b8260031985368201831362000288578335936001600160401b0390818611620002935761018080948736030112620002935784519384018481108382111762000416578552620002e9868201620009c1565b8452620002f960248701620009c1565b95602085019687526200030f60448201620009c1565b868601908152620003236064830162000aa8565b9760608701988952620003396084840162000aa8565b906080880191825260a088019960a48501358b5260c089019360c4860135855260e08a019560e4810135875262000374610104820162000ab7565b976101008c019889526101208c01996101248301358b526101408d019b6101448401358d52610164840135918211620002885750928c60209f9a9794620002809d9a97946101609d9a9794620003ce923692010162000a5b565b9b8c910152620003dd620009aa565b9262ffffff60018060a01b039e8f8080925116935116935116935195519b5196519751985116985199519a60020b9460020b9362001d3e565b634e487b7160e01b845260418252602484fd5b5050346200012b57816003193601126200012b5751908152602090f35b9050826003199183833601126200012b578035916001600160401b038084116200012b576101c0809585360301126200012b578551948501858110828211176200061f57865262000499848401620009c1565b855260248401358181116200029357620004b99084369187010162000a5b565b926020860193845260448501358281116200028f5790620004e287939282369189010162000a5b565b958884019687526060840195606482013587526200050360848301620009c1565b90608086019182526200051960a4840162000aa8565b60a087019081526200052e60c4850162000aa8565b9260c0880193845260e088019960e48601358b5261010089019561010481013587526101208a019761012482013589526200056d610144830162000ab7565b996101408c019a8b526101806101608d019c8d6101648601359052019c8d61018485013590526101a4840135918211620002885750908f9d9c9b9a9998979695949392913692010190620005c19162000a5b565b6101a0819d0152620005d2620009aa565b9c600160a01b600190039e8f80915116955191519251935116935195519b5196519751985162ffffff1699519a519b60020b9560020b94620006149e62000b45565b915191168152602090f35b634e487b7160e01b835260418452602483fd5b5050346200012b57816003193601126200012b57517f00000000000000000000000000000000000000000000000000000000000000006001600160a01b03168152602090f35b5050346200012b57816003193601126200012b57517f00000000000000000000000000000000000000000000000000000000000000006001600160a01b03168152602090f35b5050346200012b57816003193601126200012b57517f00000000000000000000000000000000000000000000000000000000000000006001600160a01b03168152602090f35b5050346200012b57816003193601126200012b57517f00000000000000000000000000000000000000000000000000000000000000006001600160a01b03168152602090f35b5050346200012b57816003193601126200012b57517f00000000000000000000000000000000000000000000000000000000000000006001600160a01b03168152602090f35b5050346200012b57816003193601126200012b57517f00000000000000000000000000000000000000000000000000000000000000006001600160a01b03168152602090f35b82846101e03660031901126200028857620007f06200098e565b620007fa620009aa565b90604435926001600160401b03938481116200012b576200081f903690880162000a5b565b606435858111620002935762000839903690890162000a5b565b6001600160a01b039560a435959192919087871687036200028b5760c435998a60020b8b03620008d65760e435918260020b8303620008d257610164359662ffffff8816880362000288576101c43591821162000288575091620008ae60209c98969492620002809a98969436910162000a5b565b976101a4359761018435976101443596610124359661010435966084359362000b45565b8680fd5b8580fd5b905034620002935760803660031901126200029357620008f96200098e565b5062000904620009aa565b50606435906001600160401b03908183116200028b57366023840112156200028b578201359081116200028f57369101602401116200012b5751630a85bd0160e11b8152602090f35b8490346200012b57816003193601126200012b5760209062ffffff7f0000000000000000000000000000000000000000000000000000000000000000168152f35b600435906001600160a01b0382168203620009a557565b600080fd5b602435906001600160a01b0382168203620009a557565b35906001600160a01b0382168203620009a557565b6001600160401b038111620009ea57604052565b634e487b7160e01b600052604160045260246000fd5b61016081019081106001600160401b03821117620009ea57604052565b90601f801991011681019081106001600160401b03821117620009ea57604052565b6001600160401b038111620009ea57601f01601f191660200190565b81601f82011215620009a55780359062000a758262000a3f565b9262000a85604051948562000a1d565b82845260208383010111620009a557816000926020809301838601378301015290565b35908160020b8203620009a557565b359062ffffff82168203620009a557565b90816020910312620009a557516001600160a01b0381168103620009a55790565b919082519283825260005b84811062000b16575050826000602080949584010152601f8019910116010190565b60208183018101518483018201520162000af4565b90816020910312620009a557518015158103620009a55790565b9a999c60209293919f9e95999d9c62000b9e9d6101005260a052608052604051809c8192623ca6d160e81b835262000b8b60009660606004860152606485019062000ae9565b8381036003190160248501529062000ae9565b604482018690520381847f00000000000000000000000000000000000000000000000000000000000000006001600160a01b03165af1998a1562001d3157819a62001d0b575b506001600160a01b038a163b15620002885780808b602460405180948193631473890d60e01b835260018060a01b037f000000000000000000000000000000000000000000000000000000000000000016600484015260018060a01b03165af1801562001c625762001cf9575b5090808681031162001ce55780898b888086950362001c74575b50505050506001600160a01b038c1662001c6d577f00000000000000000000000000000000000000000000000000000000000000005b7f00000000000000000000000000000000000000000000000000000000000000006001600160a01b03163b156200012b5760405163321d0c1960e01b81526001600160a01b0391821660048201528a821660248201529082908290604490829084907f0000000000000000000000000000000000000000000000000000000000000000165af1801562001c625762001c4a575b505060405163d455863b60e01b8152600060c0526020816004817f00000000000000000000000000000000000000000000000000000000000000006001600160a01b03165afa8015620016545760c0519062001c02575b62ffffff91501662ffffff87161162001ba757604051632ca1b21b60e01b81526001600160a01b038c81166004830152602090829060249082907f0000000000000000000000000000000000000000000000000000000000000000165afa908115620016545760c0519162001b83575b501562001b2157881562001ab65760a0519586158097811562001aaa575b501562001a3f57604051633b9589a960e01b81523360048201526020816024817f00000000000000000000000000000000000000000000000000000000000000006001600160a01b03165afa908115620016545760c0519162001a09575b50156200199a575b604051635a64ad9560e01b81528c906020816004817f00000000000000000000000000000000000000000000000000000000000000006001600160a01b03165afa8015620016545760c05160e05262001961575b506001600160a01b038d16620018c5575060e05161010051908101809111620018ad57341062001857577f0000000000000000000000000000000000000000000000000000000000000000915b85151580620017da575b15620017645760209a8d6001600160a01b038c811690821610156200175a57988b985b6040519d8e63a167129560e01b815260018060a01b038d16600482015260018060a01b038c16602482015262ffffff7f000000000000000000000000000000000000000000000000000000000000000016604482015260648160c05160018060a01b037f0000000000000000000000000000000000000000000000000000000000000000165af19d8e15620016545760c0519e62001734575b506001600160a01b038e163b156200167d576040519063f637731d60e01b825260018060a01b031660048201528d8160248160c051809460018060a01b03165af18015620016545762001722575b5015620017185742935b604051809d6200104e8262000a00565b3382528d600160a01b60019003166020830152600160a01b60019003169060400152600160a01b600190031660608d015260808c01528560a08c015260c08b015262ffffff1660e08a015260c0516101008a0152610120890152610140880160019052604051809863b0685e0f60e01b6020830152600160a01b600190037f0000000000000000000000000000000000000000000000000000000000000000166024830152600160a01b600190037f0000000000000000000000000000000000000000000000000000000000000000166044830152600160a01b600190037f00000000000000000000000000000000000000000000000000000000000000001660648301526084820160a09052600160a01b6001900381511660c4830152600160a01b6001900360208201511660e4830152600160a01b60019003604082015116610104830152600160a01b60019003606082015116610124830152608081015161014483015260a081015161016483015260c0810151610184830161016090526102248301620011df9162000ae9565b60e082015162ffffff166101a484015261010082015115156101c48401526101208201516101e48401526101409091015115156102048301527f00000000000000000000000000000000000000000000000000000000000000006001600160a01b031660a483015203601f19810189526200125b908962000a1d565b60405197886104168101106104168a016001600160401b0310176200170057620012cc899161041662002f0e84397f00000000000000000000000000000000000000000000000000000000000000006001600160a01b03166104168401908152604060208201819052019062000ae9565b0360c0519889f0978815620016f4575062001315836001600160a01b037f00000000000000000000000000000000000000000000000000000000000000008116908a1662002bc8565b60c05192836001600160a01b03878116908a1603620016ed575080935b6001600160a01b03868116908a1603620016e45750935b60405195620013588762000a00565b60018060a01b0316865260018060a01b0316602086015262ffffff7f000000000000000000000000000000000000000000000000000000000000000016604086015260020b606085015260020b608084015260a083015260c082015260c05160e082015260c05161010082015260018060a01b03841661012082015260805161014082015261014060405191634418b22b60e11b835260018060a01b03815116600484015260018060a01b03602082015116602484015262ffffff6040820151166044840152606081015160020b6064840152608081015160020b608484015260a081015160a484015260c081015160c484015260e081015160e484015261010081015161010484015260018060a01b036101208201511661012484015201516101448201526080816101648160c05160018060a01b037f0000000000000000000000000000000000000000000000000000000000000000165af1801562001654576200169b575b506001600160a01b0382163b156200167d5760405163f2fde38b60e01b81526001600160a01b03848116600483015260c0519082906024908290849088165af18015620016545762001683575b507f00000000000000000000000000000000000000000000000000000000000000006001600160a01b0316803b156200167d57604051632210724360e11b81526001600160a01b038516600482015260c05190918290602490829084905af18015620016545762001661575b506200159092939460805192610100519262002cfc565b60e051620015a5575b6001600160a01b031690565b6040516323c1116160e11b81526020816004817f00000000000000000000000000000000000000000000000000000000000000006001600160a01b03165afa908115620016545760c051916200161e575b5060c0518080809360e0519060018060a01b03165af1506200161762002af0565b5062001599565b62001645915060203d6020116200164c575b6200163c818362000a1d565b81019062000ac8565b38620015f6565b503d62001630565b6040513d60c051823e3d90fd5b6200166c90620009d6565b60c0519485620008d6579462001579565b60c05180fd5b6200168e90620009d6565b60c05180156200150d5780fd5b6080813d608011620016db575b81620016b76080938362000a1d565b810103126200167d57602001516001600160801b038116036200167d5738620014c0565b3d9150620016a8565b90509362001349565b9362001332565b604051903d90823e3d90fd5b634e487b7160e01b60c051526041600452602460c051fd5b60a051936200103e565b6200172d90620009d6565b3862001034565b62001752919e5060203d6020116200164c576200163c818362000a1d565b9c3862000fe6565b988b999862000f4d565b60405162461bcd60e51b815260206004820152604260248201527f556e6973776170563350726573616c654d616b65723a20696e76616c6964207360448201527f616c6520616d6f756e74206f7220696e73756666696369656e742062616c616e606482015261636560f01b608482015260a490fd5b506040516370a0823160e01b81523060048201526020816024816001600160a01b038f165afa80156200165457879160c051916200181c575b50101562000f2a565b9150506020813d6020116200184e575b816200183b6020938362000a1d565b810103126200167d578690513862001813565b3d91506200182c565b60405162461bcd60e51b815260206004820152602860248201527f556e6973776170563350726573616c654d616b65723a20696e73756666696369604482015267656e74206665657360c01b6064820152608490fd5b634e487b7160e01b60c051526011600452602460c051fd5b9160e051341062001904578c6101005180620018e4575b505062000f20565b620018fc9130908c906001600160a01b031662002992565b8c38620018dc565b60405162461bcd60e51b815260206004820152602f60248201527f556e6973776170563350726573616c654d616b65723a20696e7375666669636960448201526e656e74206d696e74696e672066656560881b6064820152608490fd5b6020813d60201162001991575b816200197d6020938362000a1d565b810103126200167d575160e0523862000ed3565b3d91506200196e565b6001600160a01b038816331462000e7f5760405162461bcd60e51b815260206004820152603060248201527f556e6973776170563350726573616c654d616b65723a206d696e746572206d7560448201526f39ba1031329036b9b39739b2b73232b960811b6064820152608490fd5b62001a30915060203d60201162001a37575b62001a27818362000a1d565b81019062000b2b565b3862000e77565b503d62001a1b565b60405162461bcd60e51b815260206004820152603c60248201527f556e6973776170563350726573616c654d616b65723a2073746172742074696d60448201527f657374616d702063616e6e6f7420626520696e207468652070617374000000006064820152608490fd5b90504211153862000e19565b60405162461bcd60e51b815260206004820152603c60248201527f556e6973776170563350726573616c654d616b65723a2070726573616c65206160448201527f6d6f756e74206d7573742062652067726561746572207468616e2030000000006064820152608490fd5b60405162461bcd60e51b815260206004820152603460248201527f556e6973776170563350726573616c654d616b65723a207061796d656e7420746044820152731bdad95b881b9bdd081dda1a5d195b1a5cdd195960621b6064820152608490fd5b62001ba0915060203d60201162001a375762001a27818362000a1d565b3862000dfb565b60405162461bcd60e51b815260206004820152602d60248201527f556e6973776170563350726573616c654d616b65723a2074726561737572792060448201526c0e4c2e8ca40e8dede40d0d2ced609b1b6064820152608490fd5b506020813d60201162001c41575b8162001c1f6020938362000a1d565b810103126200167d575162ffffff811681036200167d5762ffffff9062000d8b565b3d915062001c10565b62001c568291620009d6565b62000288578062000d34565b6040513d84823e3d90fd5b8b62000ca1565b60405163a9059cbb60e01b81526001600160a01b039384166004820152930360248401529192602092849260449284929091165af1801562001c625762001cc1575b8190898b8862000c6b565b62001cdd9060203d60201162001a375762001a27818362000a1d565b503862001cb6565b634e487b7160e01b82526011600452602482fd5b62001d0490620009d6565b3862000c51565b62001d29919a5060203d6020116200164c576200163c818362000a1d565b983862000be4565b50604051903d90823e3d90fd5b98979c9b92969a9199909c60a0526101005260c05262001d6984308960018060a01b038c1662002992565b600060805260405163d455863b60e01b81526020816004817f00000000000000000000000000000000000000000000000000000000000000006001600160a01b03165afa80156200262957608051906200294a575b62ffffff91501662ffffff87161162001ba757604051632ca1b21b60e01b81526001600160a01b038c81166004830152602090829060249082907f0000000000000000000000000000000000000000000000000000000000000000165afa90811562002629576080519162002926575b501562001b2157881562001ab65761010051958615809781156200291a575b501562001a3f57604051633b9589a960e01b81523360048201526020816024817f00000000000000000000000000000000000000000000000000000000000000006001600160a01b03165afa908115620026295760805191620028f6575b501562002887575b604051635a64ad9560e01b81528c906020816004817f00000000000000000000000000000000000000000000000000000000000000006001600160a01b03165afa8015620026295760805160e0526200284e575b506001600160a01b038d1662002810575060e05160a051908101809111620027f857341062001857577f0000000000000000000000000000000000000000000000000000000000000000915b851515806200277b575b15620017645760209a8d6001600160a01b038c811690821610156200277157988b985b6040519d8e63a167129560e01b815260018060a01b038d16600482015260018060a01b038c16602482015262ffffff7f000000000000000000000000000000000000000000000000000000000000000016604482015260648160805160018060a01b037f0000000000000000000000000000000000000000000000000000000000000000165af19d8e1562002629576080519e6200274b575b506001600160a01b038e163b1562002652576040519063f637731d60e01b825260018060a01b031660048201528d81602481608051809460018060a01b03165af18015620026295762002739575b50156200272e5742935b604051809d620020818262000a00565b3382528d600160a01b60019003166020830152600160a01b60019003169060400152600160a01b600190031660608d015260808c01528560a08c015260c08b015262ffffff1660e08a01526080516101008a0152610120890152608051610140890152604051809863b0685e0f60e01b6020830152600160a01b600190037f0000000000000000000000000000000000000000000000000000000000000000166024830152600160a01b600190037f0000000000000000000000000000000000000000000000000000000000000000166044830152600160a01b600190037f00000000000000000000000000000000000000000000000000000000000000001660648301526084820160a09052600160a01b6001900381511660c4830152600160a01b6001900360208201511660e4830152600160a01b60019003604082015116610104830152600160a01b60019003606082015116610124830152608081015161014483015260a081015161016483015260c0810151610184830161016090526102248301620022129162000ae9565b60e082015162ffffff166101a484015261010082015115156101c48401526101208201516101e48401526101409091015115156102048301527f00000000000000000000000000000000000000000000000000000000000000006001600160a01b031660a483015203601f19810189526200228e908962000a1d565b60405197886104168101106104168a016001600160401b0310176200271657620022ff899161041662002f0e84397f00000000000000000000000000000000000000000000000000000000000000006001600160a01b03166104168401908152604060208201819052019062000ae9565b036080519889f0978815620016f4575062002348836001600160a01b037f00000000000000000000000000000000000000000000000000000000000000008116908a1662002bc8565b60805192836001600160a01b03878116908a16036200270f575080935b6001600160a01b03868116908a1603620027065750935b604051956200238b8762000a00565b60018060a01b0316865260018060a01b0316602086015262ffffff7f000000000000000000000000000000000000000000000000000000000000000016604086015260020b606085015260020b608084015260a083015260c082015260805160e082015260805161010082015260018060a01b03841661012082015260c05161014082015261014060405191634418b22b60e11b835260018060a01b03815116600484015260018060a01b03602082015116602484015262ffffff6040820151166044840152606081015160020b6064840152608081015160020b608484015260a081015160a484015260c081015160c484015260e081015160e484015261010081015161010484015260018060a01b0361012082015116610124840152015161014482015260808161016481835160018060a01b037f0000000000000000000000000000000000000000000000000000000000000000165af180156200262957620026bd575b506080518062002658575b507f00000000000000000000000000000000000000000000000000000000000000006001600160a01b0316803b156200265257604051632210724360e11b81526001600160a01b038516600482015260805190918290602490829084905af18015620026295762002636575b506200257f92939460c0519260a0519262002cfc565b60e05162002593576001600160a01b031690565b6040516323c1116160e11b81526020816004817f00000000000000000000000000000000000000000000000000000000000000006001600160a01b03165afa90811562002629576080519162002605575b506080518080809360e0519060018060a01b03165af1506200161762002af0565b62002622915060203d6020116200164c576200163c818362000a1d565b38620025e4565b6040513d608051823e3d90fd5b6200264190620009d6565b6080519485620008d6579462002569565b60805180fd5b6001600160a01b0383163b1562000288575060405163f2fde38b60e01b81526001600160a01b0384811660048301526080519082906024908290849088165af18015620026295715620024fd57620026b090620009d6565b6080518015620024fd5780fd5b6080813d608011620026fd575b81620026d96080938362000a1d565b810103126200265257602001516001600160801b03811603620026525738620024f2565b3d9150620026ca565b9050936200237c565b9362002365565b634e487b7160e01b6080515260416004526024608051fd5b610100519362002071565b6200274490620009d6565b3862002067565b62002769919e5060203d6020116200164c576200163c818362000a1d565b9c3862002019565b988b999862001f80565b506040516370a0823160e01b81523060048201526020816024816001600160a01b038f165afa80156200262957879160805191620027bd575b50101562001f5d565b9150506020813d602011620027ef575b81620027dc6020938362000a1d565b81010312620026525786905138620027b4565b3d9150620027cd565b634e487b7160e01b6080515260116004526024608051fd5b9160e051341062001904578c60a051806200282e575b505062001f53565b620028469130908c906001600160a01b031662002992565b8c3862002826565b6020813d6020116200287e575b816200286a6020938362000a1d565b8101031262002652575160e0523862001f07565b3d91506200285b565b6001600160a01b038816331462001eb35760405162461bcd60e51b815260206004820152603060248201527f556e6973776170563350726573616c654d616b65723a206d696e746572206d7560448201526f39ba1031329036b9b39739b2b73232b960811b6064820152608490fd5b62002913915060203d60201162001a375762001a27818362000a1d565b3862001eab565b90504211153862001e4d565b62002943915060203d60201162001a375762001a27818362000a1d565b3862001e2e565b506020813d60201162002989575b81620029676020938362000a1d565b8101031262002652575162ffffff81168103620026525762ffffff9062001dbe565b3d915062002958565b6040516323b872dd60e01b60208201526001600160a01b03928316602482015292909116604483015260648083019390935291815260a08101918183106001600160401b03841117620009ea57620029ed92604052620029ef565b565b60408051908101916001600160a01b03166001600160401b03831182841017620009ea5762002a63926040526000806020958685527f5361666545524332303a206c6f772d6c6576656c2063616c6c206661696c656487860152868151910182855af162002a5c62002af0565b9162002b25565b80519082821592831562002ad5575b5050501562002a7e5750565b6084906040519062461bcd60e51b82526004820152602a60248201527f5361666545524332303a204552433230206f7065726174696f6e20646964206e6044820152691bdd081cdd58d8d9595960b21b6064820152fd5b62002ae7935082018101910162000b2b565b38828162002a72565b3d1562002b20573d9062002b048262000a3f565b9162002b14604051938462000a1d565b82523d6000602084013e565b606090565b9192901562002b8a575081511562002b3b575090565b3b1562002b455790565b60405162461bcd60e51b815260206004820152601d60248201527f416464726573733a2063616c6c20746f206e6f6e2d636f6e74726163740000006044820152606490fd5b82519091501562002b9e5750805190602001fd5b60405162461bcd60e51b81526020600482015290819062002bc490602483019062000ae9565b0390fd5b60405163095ea7b360e01b602082018181526001600160a01b03851660248401526044808401969096529482529493909262002c0660648562000a1d565b83516000926001600160a01b039291858416918591829182855af19062002c2c62002af0565b8262002cc5575b508162002cb9575b501562002c4c575b50505050509050565b6040519660208801521660248601528060448601526044855260808501908582106001600160401b0383111762002ca5575062002c99939462002c939160405282620029ef565b620029ef565b80388080808062002c43565b634e487b7160e01b81526041600452602490fd5b90503b15153862002c3b565b8051919250811591821562002cdf575b5050903862002c33565b62002cf4925060208091830101910162000b2b565b388062002cd5565b93929193821562002f06576001600160a01b038581169590929086156000811562002eff575085975b86821562002ec8575b50501562002ec157507f0000000000000000000000000000000000000000000000000000000000000000955b604051916bffffffffffffffffffffffff19908160209960601b168985015262ffffff60e81b7f000000000000000000000000000000000000000000000000000000000000000060e81b16603485015260601b166037830152602b8252606082016001600160401b039383821085831117620009ea57610100840194851182861017620009ea57889660e062002e3c95889760405280855287608082019416845260a081019a8b5260c08101928352019060008252604051998a988997889663c04b8d5960e01b88528c60048901525160a0602489015260c488019062000ae9565b94511660448601525160648501525160848401525160a483015203927f0000000000000000000000000000000000000000000000000000000000000000165af1801562002eb55762002e8c575050565b813d831162002ead575b62002ea2818362000a1d565b81010312620009a557565b503d62002e96565b6040513d6000823e3d90fd5b9562002d5a565b62002ef791877f0000000000000000000000000000000000000000000000000000000000000000169062002bc8565b388662002d2e565b9762002d25565b505050505056fe604060808152610416908138038061001681610218565b93843982019181818403126102135780516001600160a01b038116808203610213576020838101516001600160401b0394919391858211610213570186601f820112156102135780519061007161006c83610253565b610218565b918083528583019886828401011161021357888661008f930161026e565b813b156101b9577f360894a13ba1a3210667c828492db98dca3e2076cc3735a920a3ca505d382bbc80546001600160a01b031916841790556000927fbc7cd75a20ee27fd9adebab32041f755214dbc6bffa90cc0225b39da2e5c2d3b8480a28051158015906101b2575b61010b575b855160d190816103458239f35b855194606086019081118682101761019e578697849283926101889952602788527f416464726573733a206c6f772d6c6576656c2064656c65676174652063616c6c87890152660819985a5b195960ca1b8a8901525190845af4913d15610194573d9061017a61006c83610253565b91825281943d92013e610291565b508038808080806100fe565b5060609250610291565b634e487b7160e01b84526041600452602484fd5b50826100f9565b855162461bcd60e51b815260048101859052602d60248201527f455243313936373a206e657720696d706c656d656e746174696f6e206973206e60448201526c1bdd08184818dbdb9d1c9858dd609a1b6064820152608490fd5b600080fd5b6040519190601f01601f191682016001600160401b0381118382101761023d57604052565b634e487b7160e01b600052604160045260246000fd5b6001600160401b03811161023d57601f01601f191660200190565b60005b8381106102815750506000910152565b8181015183820152602001610271565b919290156102f357508151156102a5575090565b3b156102ae5790565b60405162461bcd60e51b815260206004820152601d60248201527f416464726573733a2063616c6c20746f206e6f6e2d636f6e74726163740000006044820152606490fd5b8251909150156103065750805190602001fd5b6044604051809262461bcd60e51b825260206004830152610336815180928160248601526020868601910161026e565b601f01601f19168101030190fdfe608060405236156054577f360894a13ba1a3210667c828492db98dca3e2076cc3735a920a3ca505d382bbc54600090819081906001600160a01b0316368280378136915af43d82803e156050573d90f35b3d90fd5b7f360894a13ba1a3210667c828492db98dca3e2076cc3735a920a3ca505d382bbc54600090819081906001600160a01b0316368280378136915af43d82803e156050573d90f3fea2646970667358221220625440684efb858c249dcec310da1a2b740e26994a6c8af7e1b69ae111f61f2d64736f6c63430008130033a2646970667358221220f60c15c134be3be2d9f1e8a8b2074cb7e22e77e344981f508446e249294f2f9564736f6c634300081300336080806040523461001657612d26908161001c8239f35b600080fdfe6080604052600436101561001257600080fd5b6000803560e01c8063010a38f5146115605780630bc6d25c14611498578063150b7a02146114255780632f13b60c146114005780632fc6e8b7146113da578063370158ea146111965780636addb663146110405780638814e0e714610f7b5780638e75e48214610f60578063939c445614610f3d578063b0685e0f14610a17578063d4ac98fc146109ee5763fb932108146100ac57600080fd5b3461051b57604036600319011261051b576100c561157b565b9060018060a01b03600b54166040516301cc382760e71b8152602081600481855afa9081156107fa5783916109b4575b506001600160a01b0384811691161480156109a0575b801561092c575b156108e757620f4240610123611cc2565b108015906108d9575b156108945760405163104a00a760e31b81526001600160a01b038416600482015290602090829060249082905afa90811561051e578291610856575b5015610805576004610178612b4d565b600354604051633850c7bd60e01b81529260e09184919082906001600160a01b03165afa9182156107fa5783926107c3575b506101b3612b4d565b936101bc611cef565b946001600160801b0360e060018060a01b03600c54169201511690604051908160a08101106001600160401b0360a084011117610786579160a482886001600160801b039560a06040960186528b83526020830194855285830182815260608401838152608085019160243583528851998a988997630624e65f60e11b8952516004890152511660248701525160448601525160648501525160848401525af180156107b85761079a575b50600c5460405195906001600160a01b0316608087016001600160401b0381118882101761078657869760409182528381526084602082019130835289848201956001600160801b0387526001600160801b0360608401818152818851998a98899763fc6f786560e01b895251600489015260018060a01b03905116602488015251166044860152511660648401525af1801561056a57610758575b50600c546001600160a01b0316803b156105cc57602486926040519889938492630852cd8d60e31b845260048401525af1801561068b57610744575b60408281015160609093015190516370a0823160e01b80825230600483015295965086956001600160a01b0394851694909216929190602081602481885afa9081156105ad57879161070f575b5060405190828252306004830152602082602481885afa9182156107045788926106cc575b5090816103c3826103ca94888a611ace565b8587611a3c565b600a5460ff16156105d4576002546001600160a01b0316803b156105d0578680916004604051809481936331b68deb60e11b83525af19081156105ad5787916105b8575b5050604051818152306004820152602081602481885afa9081156105ad578791610575575b5061043f90838661181b565b604051908152306004820152602081602481865afa90811561056a57869161052d575b5061046e90828461181b565b6001600160a01b0381163b156105295784928360849260405196879586946381528da960e01b86526004860152602485015260018060a01b03166044840152602435606484015260018060a01b03165af1801561051e57610507575b50505b630100000063ff0000001960085416176008557fb8b570f14eb44ed11fb6b2ac2ff61ceb5b29da5ae60d33184ae20b08f3a47c898180a180f35b6105109061161f565b61051b5780386104ca565b80fd5b6040513d84823e3d90fd5b8480fd5b9550506020853d602011610562575b8161054960209383611669565b8101031261055d5761046e86955190610462565b600080fd5b3d915061053c565b6040513d88823e3d90fd5b9650506020863d6020116105a5575b8161059160209383611669565b8101031261055d5761043f87965190610433565b3d9150610584565b6040513d89823e3d90fd5b6105c19061161f565b6105cc57853861040e565b8580fd5b8680fd5b60015460405182815230600482015291965092945092916001600160a01b03169050602083602481855afa91821561056a578692610696575b610617935061181b565b6001546040519283523060048401526001600160a01b0316602083602481855afa91821561068b578492610655575b610650935061181b565b6104cd565b91506020833d602011610683575b8161067060209383611669565b8101031261055d57610650925191610646565b3d9150610663565b6040513d86823e3d90fd5b91506020833d6020116106c4575b816106b160209383611669565b8101031261055d5761061792519161060d565b3d91506106a4565b915096506020813d6020116106fc575b816106e960209383611669565b8101031261055d575187966103ca6103b1565b3d91506106dc565b6040513d8a823e3d90fd5b9650506020863d60201161073c575b8161072b60209383611669565b8101031261055d578695513861038c565b3d915061071e565b9290936107509061161f565b91839061033f565b6107799060403d60401161077f575b6107718183611669565b810190612b37565b50610303565b503d610767565b634e487b7160e01b87526041600452602487fd5b6107b29060403d60401161077f576107718183611669565b50610267565b6040513d87823e3d90fd5b6107e691925060e03d60e0116107f3575b6107de8183611669565b810190611d7f565b50505050505090386101aa565b503d6107d4565b6040513d85823e3d90fd5b60405162461bcd60e51b8152602060048201526024808201527f50726573616c653a206469737472696275746f72206e6f742077686974656c696044820152631cdd195960e21b6064820152608490fd5b90506020813d60201161088c575b8161087160209383611669565b8101031261088857610882906117fa565b38610168565b5080fd5b3d9150610864565b60405162461bcd60e51b815260206004820152601e60248201527f50726573616c653a20626f6e64696e67206375727665206e6f7420656e6400006044820152606490fd5b506108e2611770565b61012c565b60405162461bcd60e51b815260206004820152601760248201527f50726573616c653a206e6f7420617574686f72697a65640000000000000000006044820152606490fd5b50604051638da5cb5b60e01b8152602081600481855afa9081156107fa578391610962575b506001600160a01b03163314610112565b90506020813d602011610998575b8161097d60209383611669565b810103126109945761098e90611807565b38610951565b8280fd5b3d9150610970565b506001546001600160a01b0316331461010b565b90506020813d6020116109e6575b816109cf60209383611669565b81010312610994576109e090611807565b386100f5565b3d91506109c2565b503461051b578060031936011261051b576020620f4240610a0d611cc2565b1015604051908152f35b503461051b5760031960a036820112610888576004356001600160a01b038116810361099457602435906001600160a01b0382168203610f3957604435926001600160a01b0384168403610529576001600160401b0360643511610529576101609060643536030112610f3957604051610a90816115ed565b610a9e606435600401611591565b8152610aae602460643501611591565b6020820152610ac1604460643501611591565b6040820152610ad36064803501611591565b60608201526064356084810135608083015260a481013560a083015260c401356001600160401b0381116105cc5736602382606435010112156105cc5785610b2260048360643501013561168a565b91610b306040519384611669565b60643581016004810135808552369101602401116108885760209060049060643581018083013590602401868501376064350101358301015260c082015260e4606435013562ffffff811681036105cc5760e0820152610b95610104606435016116a5565b6101008201526101246064350135610120820152610bb8610144606435016116a5565b6101408201526084356001600160a01b03811681036105cc5785549160ff8360081c161592838094610f2c575b8015610f15575b15610eb95760ff198116600117885583610ea8575b508051600180546001600160a01b03199081166001600160a01b0393841617909155602083015160028054831691841691909117905560408301516003805483169184169190911790556060830151600480549092169216919091179055608081015160055560a081015160065560c08101518051906001600160401b038211610e9457610c90600754611713565b601f8111610e2d575b50602090601f8311600114610db8576101409392918a9183610dad575b50508160011b916000199060031b1c1916176007555b62ffffff60e0820151166008549063ff000000610100840151151560181b169163ffffffff191617176008556101208101516009550151151560ff8019600a5416911617600a5560018060a01b03166001600160601b0360a01b600b541617600b55610d74575b600d80546001600160a01b03199081166001600160a01b0393841617909155600c8054821693831693909317909255600e8054909216921691909117905580f35b61ff001984541684557f7f26b83ff96e1f2b6a682f133852f6798a09c465da95921460cefb3847402498602060405160018152a1610d33565b015190503880610cb6565b60078a52600080516020612cd18339815191529190601f1984168b5b818110610e15575091600193918561014097969410610dfc575b505050811b01600755610ccc565b015160001960f88460031b161c19169055388080610dee565b92936020600181928786015181550195019301610dd4565b60078a52601f830160051c600080516020612cd18339815191520160208410610e7f575b601f820160051c600080516020612cd1833981519152018110610e745750610c99565b8a8155600101610e51565b50600080516020612cd1833981519152610e51565b634e487b7160e01b89526041600452602489fd5b61ffff191661010117875538610c01565b60405162461bcd60e51b815260206004820152602e60248201527f496e697469616c697a61626c653a20636f6e747261637420697320616c72656160448201526d191e481a5b9a5d1a585b1a5e995960921b6064820152608490fd5b50303b158015610bec5750600160ff821614610bec565b50600160ff821610610be5565b8380fd5b503461051b578060031936011261051b576020610f58611cc2565b604051908152f35b503461051b578060031936011261051b576020610f58611de4565b503461051b578060031936011261051b57610180610f97612b4d565b604051906001600160601b03815116825260018060a01b03806020830151166020840152806040830151166040840152606082015116606083015262ffffff608082015116608083015260a081015160020b60a083015260c081015160020b60c08301526001600160801b038060e08301511660e08401526101008083015190840152610120808301519084015261014081818401511690840152610160809201511690820152f35b503461051b578060031936011261051b576002546040516306fdde0360e01b8152916001600160a01b03909116908083600481855afa92831561118957819361116d575b506040516395d89b4160e01b81528181600481865afa90811561051e57829161114b575b506040516318160ddd60e01b8152602081600481875afa92831561113f578093611107575b50506110fd906110ef60405195869586526080602087015260808601906115c8565b9084820360408601526115c8565b9060608301520390f35b909192506020823d8211611137575b8161112360209383611669565b8101031261051b575051906110fd386110cd565b3d9150611116565b604051903d90823e3d90fd5b61116791503d8084833e61115f8183611669565b8101906116b2565b386110a8565b6111829193503d8085833e61115f8183611669565b9138611084565b50604051903d90823e3d90fd5b503461051b578060031936011261051b57806101406040516111b7816115ed565b8281528260208201528260408201528260608201528260808201528260a0820152606060c08201528260e08201528261010082015282610120820152015260405190611202826115ed565b6001546001600160a01b0390811683526002548116602084015260035481166040808501919091526004549091166060840152600554608084015260065460a084015251600754909182908061125784611713565b80845293600181169081156113b8575060011461136b575b5061127c92500382611669565b60c082015260ff60085462ffffff811660e084015260181c16151561010082015260095461012082015260ff600a5416151561014082015260405180916020825260018060a01b03815116602083015260018060a01b03602082015116604083015260018060a01b03604082015116606083015260018060a01b036060820151166080830152608081015160a083015260a081015160c083015260c0810151610140611336610160928360e08701526101808601906115c8565b9262ffffff60e08201511661010086015261010081015115156101208601526101208101518286015201511515908301520390f35b9192905060078252600080516020612cd18339815191525b81831061139c57505090602061127c928201013861126f565b6020919350806001915483858801015201910190918392611383565b90506020925061127c94915060ff191682840152151560051b8201013861126f565b503461051b578060031936011261051b57602060ff60085460181c166040519015158152f35b503461051b578060031936011261051b57602061141b611770565b6040519015158152f35b503461051b57608036600319011261051b5761143f61157b565b506024356001600160a01b0381160361051b576064356001600160401b038082116109945736602383011215610994578160040135908111610994573691016024011161051b57604051630a85bd0160e11b8152602090f35b503461051b576020908160031936011261051b576114b461157b565b9082620f42406114c2611cc2565b101592836114d6575b506040518315158152f35b60025460048054604051639711eb1560e01b81526001600160a01b03938416928101929092528216602482015293945083916044918391165afa91821561113f578092611528575b50503882816114cb565b9091508282813d8311611559575b6115408183611669565b8101031261051b5750611552906117fa565b388061151e565b503d611536565b503461051b578060031936011261051b576020610f58611cef565b600435906001600160a01b038216820361055d57565b35906001600160a01b038216820361055d57565b60005b8381106115b85750506000910152565b81810151838201526020016115a8565b906020916115e1815180928185528580860191016115a5565b601f01601f1916010190565b61016081019081106001600160401b0382111761160957604052565b634e487b7160e01b600052604160045260246000fd5b6001600160401b03811161160957604052565b61018081019081106001600160401b0382111761160957604052565b608081019081106001600160401b0382111761160957604052565b90601f801991011681019081106001600160401b0382111761160957604052565b6001600160401b03811161160957601f01601f191660200190565b3590811515820361055d57565b60208183031261055d578051906001600160401b03821161055d570181601f8201121561055d5780516116e48161168a565b926116f26040519485611669565b8184526020828401011161055d5761171091602080850191016115a5565b90565b90600182811c92168015611743575b602083101461172d57565b634e487b7160e01b600052602260045260246000fd5b91607f1691611722565b9190820180921161175a57565b634e487b7160e01b600052601160045260246000fd5b600954600b54604051631448e00960e21b8152929190602090849060049082906001600160a01b03165afa9283156117ee576000936117bb575b50916117b6919261174d565b421190565b6020813d82116117e6575b816117d360209383611669565b81010312610f39575192506117b66117aa565b3d91506117c6565b6040513d6000823e3d90fd5b5190811515820361055d57565b51906001600160a01b038216820361055d57565b916040918251906020948583019363a9059cbb60e01b855260018060a01b0380931660248501526044840152604483526118548361164e565b16835190848201928284106001600160401b03851117611609576118d39386528683527f5361666545524332303a206c6f772d6c6576656c2063616c6c206661696c656487840152600080958192519082855af13d15611968573d916118b98361168a565b926118c688519485611669565b83523d868985013e61196c565b90815190848215928315611946575b5050509050156118f0575050565b60849250519062461bcd60e51b82526004820152602a60248201527f5361666545524332303a204552433230206f7065726174696f6e20646964206e6044820152691bdd081cdd58d8d9595960b21b6064820152fd5b84809293945001031261051b57508261195f91016117fa565b803884816118e2565b6060915b919290156119ce5750815115611980575090565b3b156119895790565b60405162461bcd60e51b815260206004820152601d60248201527f416464726573733a2063616c6c20746f206e6f6e2d636f6e74726163740000006044820152606490fd5b8251909150156119e15750805190602001fd5b60405162461bcd60e51b815260206004820152908190611a059060248301906115c8565b0390fd5b8181029291811591840414171561175a57565b8115611a26570490565b634e487b7160e01b600052601260045260246000fd5b90929162ffffff60085416908115611ab75781611a6991611a62620f4240948592611a09565b0494611a09565b049180611a97575b505080611a7c575050565b600154611a95926001600160a01b03918216911661181b565b565b600154611ab0926001600160a01b03918216911661181b565b3880611a71565b5050505050565b519062ffffff8216820361055d57565b600b5460025460048054604080516303b2ec6b60e61b81526001600160a01b03948516938101939093529083166024830152939796602096949592949293909291908516908781604481855afa8015611c7457600090611c8b575b62ffffff915016988915611c7f57878a84611beb575b505050505080611b53575b50505050509050565b611b63600497620f424092611a09565b04938083600b54168551988980926323c1116160e11b82525afa938415611be15750600093611ba5575b50611b9a9495501661181b565b803880808080611b4a565b86819492943d8311611bda575b611bbc8183611669565b8101031261051b5750611bd2611b9a9495611807565b918594611b8d565b503d611bb2565b513d6000823e3d90fd5b611bfb620f424091600496611a09565b04928851948580926323c1116160e11b82525afa908115611c74578690600092611c35575b611c2b94501661181b565b388080878a611b3f565b92939190508882813d8311611c6d575b611c4f8183611669565b8101031261051b57509085611c67611c2b9493611807565b91611c20565b503d611c45565b87513d6000823e3d90fd5b50505050505050509050565b8882813d8311611cbb575b611ca08183611669565b8101031261051b5750611cb662ffffff91611abe565b611b29565b503d611c96565b611cca612b4d565b50611cd3611de4565b620f4240908082029182040361175a5760055461171091611a1c565b600c54604051632f745c5960e01b81523060048201526000602482015290602090829060449082906001600160a01b03165afa9081156117ee57600091611d34575090565b906020823d8211611d5a575b81611d4d60209383611669565b8101031261051b57505190565b3d9150611d40565b51908160020b820361055d57565b519061ffff8216820361055d57565b908160e091031261055d57611d9381611807565b91611da060208301611d62565b91611dad60408201611d70565b91611dba60608301611d70565b91611dc760808201611d70565b9160a082015160ff8116810361055d5760c06117109193016117fa565b611dec612b4d565b611df4611cef565b600354604051633850c7bd60e01b81529192919060e090829060049082906001600160a01b03165afa9081156117ee576000916124cc575b50600c5460405163133f757160e31b8082526004820186905290946101809390926001600160a01b0316908487602481855afa9081156117ee57600080988193612493575b50611e7e611e84916125a8565b986125a8565b60009890918983836001600160a01b0380831690821611612488575b50506001600160a01b0382811690841681116124465750505090611ec49291612919565b925b60405192835260048301528382602481845afa9081156117ee5760009283928496859086938799889089928a948b976123fe575b50506040519b8c6001600160401b03610140828181011092011117611609578c60806001600160801b03998a9862ffffff60049f9660209f8c98610140880160405260018060a01b0316875260018060a01b0316602087015216604085015260020b606084015260020b9101521660a08c015260c08b015260e08a015216610100880152166101208601526040519283809263c45a015560e01b82525afa9081156117ee576000916123c4575b5060018060a01b0383511660018060a01b0360208501511662ffffff6040860151166040518060608101106001600160401b03606083011117611609576040816060849301825285815284602082015201528183101561055d57604051916020830193845260408301526060820152606081526120238161164e565b5190209060405191602083019160ff60f81b83526001600160601b03199060601b16602184015260358301527fafdcfa68011d3a0dc97e7fa6dd04c309753a80999bb518850c2d8cc001ab95476055830152605582526120828261164e565b9051902060608301516080840151604051633850c7bd60e01b8152600292830b95939092600092900b906001600160a01b031660e084600481845afa9384156107fa57839461239c575b5060405163f30dba9360e01b8152600481018890529161010083602481855afa97881561068b578493859961236c575b5060405163f30dba9360e01b8152600481018390529561010087602481875afa96871561056a57869761232c575b5060020b908112156121f057505050926101206121b76121a361219761218b61217761216a6121cc9c996121646121c09a6121c69d612abb565b9a612abb565b985b60c088015190612abb565b6001600160801b0360a08801511690612970565b6101008601519061174d565b9560e085015190612abb565b6001600160801b0360a08501511690612970565b9101519061174d565b9261174d565b9361174d565b6040909101516002546001600160a01b039081169116146121eb575090565b905090565b94979412156123005760405163f305839960e01b815290602082600481845afa9182156117ee576000926122cb575b509060206004969594939260405197888092634614131960e01b82525afa9586156117ee57600096612291575b506121a361219761218b61217761228b6121cc9c6122806121c09a6122856121c69e9d9b6122806101209c6121b79c612abb565b612abb565b9c612abb565b9861216c565b90949293956020823d6020116122c3575b816122af60209383611669565b8101031261051b575051949291933861224c565b3d91506122a2565b90916020823d6020116122f8575b816122e660209383611669565b8101031261051b57505190602061221f565b3d91506122d9565b50926101206121b76121a361219761218b61217761228b6121cc9c996121646121c69c6121c09b612abb565b9096506123549195506101003d61010011612365575b61234c8183611669565b810190612ac8565b50505050969250905094953861212a565b503d612342565b90985061238b9193506101003d610100116123655761234c8183611669565b5050505094925090509297386120fc565b6123b691945060e03d60e0116107f3576107de8183611669565b5050505050905092386120cc565b906020823d6020116123f6575b816123de60209383611669565b8101031261051b57506123f090611807565b38611fa7565b3d91506123d1565b989c509850505050505050506124299250803d1061243f575b6124218183611669565b810190612505565b939c989a50969850929591949192913880611efa565b503d612417565b979a509196909291906001600160a01b038316111561247c57509061247083612476949383612919565b95612a89565b95611ec6565b95612476939250612a89565b945092503880611ea0565b611e849950611e7e93506124b49150873d891161243f576124218183611669565b505050509e9650979450925050509399939150611e71565b6124e5915060e03d60e0116107f3576107de8183611669565b50505050505038611e2c565b51906001600160801b038216820361055d57565b91908261018091031261055d5781516001600160601b038116810361055d579161253160208201611807565b9161253e60408301611807565b9161254b60608201611807565b9161255860808301611abe565b9161256560a08201611d62565b9161257260c08301611d62565b9161257f60e082016124f1565b9161010082015191610120810151916117106101606125a161014085016124f1565b93016124f1565b60020b60008112156129135780600003905b620d89e882116129015760018216156128ef576001600160881b036ffffcb933bd6fad37aa2d162d1a5940015b1691600281166128d3575b600481166128b7575b6008811661289b575b6010811661287f575b60208116612863575b60408116612847575b60809081811661282c575b6101008116612811575b61020081166127f6575b61040081166127db575b61080081166127c0575b61100081166127a5575b612000811661278a575b614000811661276f575b6180008116612754575b620100008116612739575b62020000811661271f575b620400008116612705575b62080000166126ea575b506000126126db575b63ffffffff81166126d3576000905b60201c60ff91909116016001600160a01b031690565b6001906126bd565b8015611a2657600019046126ae565b6b048a170391f7dc42444e8fa26000929302901c91906126a5565b6d2216e584f5fa1ea926041bedfe98909302811c9261269b565b926e5d6af8dedb81196699c329225ee60402811c92612690565b926f09aa508b5b7a84e1c677de54f3e99bc902811c92612685565b926f31be135f97d08fd981231505542fcfa602811c9261267a565b926f70d869a156d2a1b890bb3df62baf32f702811c92612670565b926fa9f746462d870fdf8a65dc1f90e061e502811c92612666565b926fd097f3bdfd2022b8845ad8f792aa582502811c9261265c565b926fe7159475a2c29b7443b29c7fa6e889d902811c92612652565b926ff3392b0822b70005940c7a398e4b70f302811c92612648565b926ff987a7253ac413176f2b074cf7815e5402811c9261263e565b926ffcbe86c7900a88aedcffc83b479aa3a402811c92612634565b926ffe5dee046a99a2a811c461f1969c305302811c9261262a565b916fff2ea16466c96a3843ec78b326b528610260801c9161261f565b916fff973b41fa98c081472e6896dfb254c00260801c91612616565b916fffcb9843d60f6159c9db58835c9266440260801c9161260d565b916fffe5caca7e10e4e61c3624eaa0941cd00260801c91612604565b916ffff2e50f5f656932ef12357cf3c7fdcc0260801c916125fb565b916ffff97272373d413259a46990580e213a0260801c916125f2565b6001600160881b03600160801b6125e7565b6040516315e4079d60e11b8152600490fd5b806125ba565b6117109290916001600160a01b039182821683851611612968575b61296091838116919085900384169060601b6fffffffffffffffffffffffffffffffff60601b16612a06565b911690611a1c565b909290612934565b60001982820990828102928380841093039183830393600093146129b057600160801b928484111561051b57500990828211900360801b910360801c1790565b505090505060801c90565b60001982820990828102928380841093039183830393600093146129fb57600160601b928484111561051b57500990828211900360a01b910360601c1790565b505090505060601c90565b916000198284099282810292838086109503948086039514612a7b578483111561055d5782910981806000031680920460028082600302188083028203028083028203028083028203028083028203028083028203028092029003029360018380600003040190848311900302920304170290565b50508092501561055d570490565b61171092916001600160801b03916001600160a01b039182811683831611612ab5575b031691166129bb565b90612aac565b9190820391821161175a57565b91908261010091031261055d57612ade826124f1565b91602081015180600f0b810361055d579160408201519160608101519160808201518060060b810361055d5791612b1760a08201611807565b9160c082015163ffffffff8116810361055d5760e06117109193016117fa565b919082604091031261055d576020825192015190565b61016090604051612b5d81611632565b60009281848093528260208201528260408201528260608201528260808201528260a08201528260c08201528260e08201528261010082015282610120820152826101408201520152612bae611cef565b9161018060018060a01b03600c54169360246040518096819363133f757160e31b835260048301525afa801561118957612c169293828091818283849185938697879a8897899b612c82575b50906001600160601b0362ffffff959493926040519e8f611632565b168d526001600160a01b0390811660208e015290811660408d01521660608b0152166080890152600290810b60a08901520b60c08701526001600160801b0392831660e08701526101008601949094526101208501939093529182166101408401521661016082015290565b985050505050505050506001600160601b03935062ffffff9250612cb791506101803d6101801161243f576124218183611669565b929c929b50929992989097939694959493929091612bfa56fea66cc928b5edb82af9bd49922954155ab7b0942694bea4ce44661d9a8736c688a2646970667358221220a0a9ea3133011e33ded967ee7cdea325edbfb36f8174faf5560b84d5dd8ac5e564736f6c63430008130033",
  "devdoc": {
    "kind": "dev",
    "methods": {
      "onERC721Received(address,address,uint256,bytes)": {
        "details": "Whenever an {IERC721} `tokenId` token is transferred to this contract via {IERC721-safeTransferFrom} by `operator` from `from`, this function is called. It must return its Solidity selector to confirm the token transfer. If any other value is returned or the interface is not implemented by the recipient, the transfer will be reverted. The selector can be obtained in Solidity with `IERC721Receiver.onERC721Received.selector`."
      }
    },
    "version": 1
  },
  "userdoc": {
    "kind": "user",
    "methods": {},
    "version": 1
  },
  "storageLayout": {
    "storage": [],
    "types": null
  }
}