{
  "address": "0xB585b51051c258e363c1977fd0fa2Fa03DAfE490",
  "abi": [
    {
      "inputs": [
        {
          "internalType": "address",
          "name": "_feeVault",
          "type": "address"
        }
      ],
      "stateMutability": "nonpayable",
      "type": "constructor"
    },
    {
      "anonymous": false,
      "inputs": [
        {
          "indexed": true,
          "internalType": "address",
          "name": "previousOwner",
          "type": "address"
        },
        {
          "indexed": true,
          "internalType": "address",
          "name": "newOwner",
          "type": "address"
        }
      ],
      "name": "OwnershipTransferred",
      "type": "event"
    },
    {
      "inputs": [
        {
          "internalType": "address",
          "name": "distributor",
          "type": "address"
        }
      ],
      "name": "allowDistributor",
      "outputs": [],
      "stateMutability": "nonpayable",
      "type": "function"
    },
    {
      "inputs": [
        {
          "internalType": "address",
          "name": "token",
          "type": "address"
        }
      ],
      "name": "allowTokenForPayment",
      "outputs": [],
      "stateMutability": "nonpayable",
      "type": "function"
    },
    {
      "inputs": [],
      "name": "defaultDistributionFeeRate",
      "outputs": [
        {
          "internalType": "uint24",
          "name": "",
          "type": "uint24"
        }
      ],
      "stateMutability": "view",
      "type": "function"
    },
    {
      "inputs": [],
      "name": "defaultTradeFee",
      "outputs": [
        {
          "internalType": "uint24",
          "name": "",
          "type": "uint24"
        }
      ],
      "stateMutability": "view",
      "type": "function"
    },
    {
      "inputs": [
        {
          "internalType": "address",
          "name": "distributor",
          "type": "address"
        }
      ],
      "name": "disallowDistributor",
      "outputs": [],
      "stateMutability": "nonpayable",
      "type": "function"
    },
    {
      "inputs": [
        {
          "internalType": "address",
          "name": "token",
          "type": "address"
        }
      ],
      "name": "disallowTokenForPayment",
      "outputs": [],
      "stateMutability": "nonpayable",
      "type": "function"
    },
    {
      "inputs": [
        {
          "internalType": "address",
          "name": "",
          "type": "address"
        }
      ],
      "name": "distributionFeeRate",
      "outputs": [
        {
          "internalType": "uint24",
          "name": "",
          "type": "uint24"
        }
      ],
      "stateMutability": "view",
      "type": "function"
    },
    {
      "inputs": [
        {
          "internalType": "address",
          "name": "",
          "type": "address"
        }
      ],
      "name": "distributorWhitelist",
      "outputs": [
        {
          "internalType": "bool",
          "name": "",
          "type": "bool"
        }
      ],
      "stateMutability": "view",
      "type": "function"
    },
    {
      "inputs": [],
      "name": "feeVault",
      "outputs": [
        {
          "internalType": "address",
          "name": "",
          "type": "address"
        }
      ],
      "stateMutability": "view",
      "type": "function"
    },
    {
      "inputs": [
        {
          "internalType": "address",
          "name": "token0",
          "type": "address"
        },
        {
          "internalType": "address",
          "name": "token1",
          "type": "address"
        }
      ],
      "name": "getDistributionFeeRate",
      "outputs": [
        {
          "internalType": "uint24",
          "name": "",
          "type": "uint24"
        }
      ],
      "stateMutability": "view",
      "type": "function"
    },
    {
      "inputs": [],
      "name": "getFeeVault",
      "outputs": [
        {
          "internalType": "address",
          "name": "",
          "type": "address"
        }
      ],
      "stateMutability": "view",
      "type": "function"
    },
    {
      "inputs": [],
      "name": "getMaxTreasuryRate",
      "outputs": [
        {
          "internalType": "uint24",
          "name": "",
          "type": "uint24"
        }
      ],
      "stateMutability": "view",
      "type": "function"
    },
    {
      "inputs": [
        {
          "internalType": "address",
          "name": "token0",
          "type": "address"
        },
        {
          "internalType": "address",
          "name": "token1",
          "type": "address"
        }
      ],
      "name": "getTradeFee",
      "outputs": [
        {
          "internalType": "uint24",
          "name": "",
          "type": "uint24"
        }
      ],
      "stateMutability": "view",
      "type": "function"
    },
    {
      "inputs": [],
      "name": "isAllPoolPaused",
      "outputs": [
        {
          "internalType": "bool",
          "name": "",
          "type": "bool"
        }
      ],
      "stateMutability": "view",
      "type": "function"
    },
    {
      "inputs": [
        {
          "internalType": "address",
          "name": "distributor",
          "type": "address"
        }
      ],
      "name": "isDistributorWhitelisted",
      "outputs": [
        {
          "internalType": "bool",
          "name": "",
          "type": "bool"
        }
      ],
      "stateMutability": "view",
      "type": "function"
    },
    {
      "inputs": [
        {
          "internalType": "address",
          "name": "pool",
          "type": "address"
        }
      ],
      "name": "isPaused",
      "outputs": [
        {
          "internalType": "bool",
          "name": "",
          "type": "bool"
        }
      ],
      "stateMutability": "view",
      "type": "function"
    },
    {
      "inputs": [],
      "name": "isPausedAll",
      "outputs": [
        {
          "internalType": "bool",
          "name": "",
          "type": "bool"
        }
      ],
      "stateMutability": "view",
      "type": "function"
    },
    {
      "inputs": [
        {
          "internalType": "address",
          "name": "",
          "type": "address"
        }
      ],
      "name": "isPoolPaused",
      "outputs": [
        {
          "internalType": "bool",
          "name": "",
          "type": "bool"
        }
      ],
      "stateMutability": "view",
      "type": "function"
    },
    {
      "inputs": [
        {
          "internalType": "address",
          "name": "target",
          "type": "address"
        }
      ],
      "name": "isTransferBlacklisted",
      "outputs": [
        {
          "internalType": "bool",
          "name": "",
          "type": "bool"
        }
      ],
      "stateMutability": "view",
      "type": "function"
    },
    {
      "inputs": [],
      "name": "maxTreasuryRate",
      "outputs": [
        {
          "internalType": "uint24",
          "name": "",
          "type": "uint24"
        }
      ],
      "stateMutability": "view",
      "type": "function"
    },
    {
      "inputs": [],
      "name": "mintingFee",
      "outputs": [
        {
          "internalType": "uint256",
          "name": "",
          "type": "uint256"
        }
      ],
      "stateMutability": "view",
      "type": "function"
    },
    {
      "inputs": [],
      "name": "owner",
      "outputs": [
        {
          "internalType": "address",
          "name": "",
          "type": "address"
        }
      ],
      "stateMutability": "view",
      "type": "function"
    },
    {
      "inputs": [
        {
          "internalType": "address",
          "name": "pool",
          "type": "address"
        }
      ],
      "name": "pause",
      "outputs": [],
      "stateMutability": "nonpayable",
      "type": "function"
    },
    {
      "inputs": [],
      "name": "pauseAll",
      "outputs": [],
      "stateMutability": "nonpayable",
      "type": "function"
    },
    {
      "inputs": [
        {
          "internalType": "address",
          "name": "",
          "type": "address"
        }
      ],
      "name": "paymentTokenWhitlist",
      "outputs": [
        {
          "internalType": "bool",
          "name": "",
          "type": "bool"
        }
      ],
      "stateMutability": "view",
      "type": "function"
    },
    {
      "inputs": [
        {
          "internalType": "address",
          "name": "",
          "type": "address"
        }
      ],
      "name": "presaleMakers",
      "outputs": [
        {
          "internalType": "bool",
          "name": "",
          "type": "bool"
        }
      ],
      "stateMutability": "view",
      "type": "function"
    },
    {
      "inputs": [
        {
          "internalType": "uint24",
          "name": "feeRate",
          "type": "uint24"
        }
      ],
      "name": "putDefaultDistributionFeeRate",
      "outputs": [],
      "stateMutability": "nonpayable",
      "type": "function"
    },
    {
      "inputs": [
        {
          "internalType": "uint24",
          "name": "_tradeFee",
          "type": "uint24"
        }
      ],
      "name": "putDefaultTradeFee",
      "outputs": [],
      "stateMutability": "nonpayable",
      "type": "function"
    },
    {
      "inputs": [
        {
          "internalType": "address",
          "name": "token",
          "type": "address"
        },
        {
          "internalType": "uint24",
          "name": "feeRate",
          "type": "uint24"
        }
      ],
      "name": "putDistributionFeeRateForToken",
      "outputs": [],
      "stateMutability": "nonpayable",
      "type": "function"
    },
    {
      "inputs": [
        {
          "internalType": "address",
          "name": "vault",
          "type": "address"
        }
      ],
      "name": "putFeeVault",
      "outputs": [],
      "stateMutability": "nonpayable",
      "type": "function"
    },
    {
      "inputs": [
        {
          "internalType": "uint24",
          "name": "rate",
          "type": "uint24"
        }
      ],
      "name": "putMaxTreasuryRate",
      "outputs": [],
      "stateMutability": "nonpayable",
      "type": "function"
    },
    {
      "inputs": [
        {
          "internalType": "uint256",
          "name": "fee",
          "type": "uint256"
        }
      ],
      "name": "putMintingFee",
      "outputs": [],
      "stateMutability": "nonpayable",
      "type": "function"
    },
    {
      "inputs": [
        {
          "internalType": "address",
          "name": "presaleMaker",
          "type": "address"
        }
      ],
      "name": "putPresaleMaker",
      "outputs": [],
      "stateMutability": "nonpayable",
      "type": "function"
    },
    {
      "inputs": [
        {
          "internalType": "address",
          "name": "token",
          "type": "address"
        },
        {
          "internalType": "uint24",
          "name": "_tradeFee",
          "type": "uint24"
        }
      ],
      "name": "putTradeFeeForToken",
      "outputs": [],
      "stateMutability": "nonpayable",
      "type": "function"
    },
    {
      "inputs": [
        {
          "internalType": "address",
          "name": "target",
          "type": "address"
        }
      ],
      "name": "putTransferBlacklist",
      "outputs": [],
      "stateMutability": "nonpayable",
      "type": "function"
    },
    {
      "inputs": [
        {
          "internalType": "address",
          "name": "presaleMaker",
          "type": "address"
        }
      ],
      "name": "removePresaleMaker",
      "outputs": [],
      "stateMutability": "nonpayable",
      "type": "function"
    },
    {
      "inputs": [
        {
          "internalType": "address",
          "name": "target",
          "type": "address"
        }
      ],
      "name": "removeTransferBlacklist",
      "outputs": [],
      "stateMutability": "nonpayable",
      "type": "function"
    },
    {
      "inputs": [],
      "name": "renounceOwnership",
      "outputs": [],
      "stateMutability": "nonpayable",
      "type": "function"
    },
    {
      "inputs": [
        {
          "internalType": "address",
          "name": "",
          "type": "address"
        }
      ],
      "name": "tradeFee",
      "outputs": [
        {
          "internalType": "uint24",
          "name": "",
          "type": "uint24"
        }
      ],
      "stateMutability": "view",
      "type": "function"
    },
    {
      "inputs": [
        {
          "internalType": "address",
          "name": "",
          "type": "address"
        }
      ],
      "name": "transferBlacklist",
      "outputs": [
        {
          "internalType": "bool",
          "name": "",
          "type": "bool"
        }
      ],
      "stateMutability": "view",
      "type": "function"
    },
    {
      "inputs": [
        {
          "internalType": "address",
          "name": "newOwner",
          "type": "address"
        }
      ],
      "name": "transferOwnership",
      "outputs": [],
      "stateMutability": "nonpayable",
      "type": "function"
    },
    {
      "inputs": [
        {
          "internalType": "address",
          "name": "pool",
          "type": "address"
        }
      ],
      "name": "unpause",
      "outputs": [],
      "stateMutability": "nonpayable",
      "type": "function"
    },
    {
      "inputs": [],
      "name": "unpauseAll",
      "outputs": [],
      "stateMutability": "nonpayable",
      "type": "function"
    }
  ],
  "transactionHash": "0xbdd8141cd7bad2ebf9767471d08f5085e80250f5dc4e42f1bec639b2d8ae11b8",
  "args": [
    "0xb9dF4BD9d3103cF1FB184BF5e6b54Cf55de81747"
  ],
  "numDeployments": 2,
  "solcInputHash": "fe4236ec33831dd4fcec0a9b276b32bd",
  "bytecode": "0x60806040526006805461027160ac1b62ffffff60a81b1990911617905560006008556009805462ffffff1990811661271017909155600b8054909116620c350017905534801561004e57600080fd5b50604051610f38380380610f3883398101604081905261006d916100f1565b610076336100a1565b600680546001600160a01b0390921661010002610100600160a81b0319909216919091179055610121565b600080546001600160a01b038381166001600160a01b0319831681178455604051919092169283917f8be0079c531659141344cd1fd0a4f28419497f9722a3daafe3b4186f6b6457e09190a35050565b60006020828403121561010357600080fd5b81516001600160a01b038116811461011a57600080fd5b9392505050565b610e08806101306000396000f3fe608060405234801561001057600080fd5b50600436106102695760003560e01c8063819afdb411610151578063d6dc4b7b116100c3578063ecbb1ac011610087578063ecbb1ac0146105ea578063ecf86304146105fd578063f2fde38b14610610578063f56681bf14610623578063faba50cc14610636578063fea611f91461064557600080fd5b8063d6dc4b7b14610578578063dfa590161461058b578063e1764f521461059e578063e31f4e40146105b1578063ec0f7cf0146105d457600080fd5b8063908f543c11610115578063908f543c146104eb578063a0e6adf1146104fe578063a3d4597f14610509578063b5f903d51461051c578063bbd919801461053f578063d455863b1461056b57600080fd5b8063819afdb41461045e57806382500538146104815780638a2ddd03146104ad5780638da5cb5b146104b55780638dfdb454146104c657600080fd5b806357b001f9116101ea578063602e3e33116101ae578063602e3e33146103c55780636614b24e146103ea578063699183611461040d5780636c9bc73214610420578063715018a61461044357806376a67a511461044b57600080fd5b806357b001f91461036d578063595c6a671461038057806359d9963a146103885780635a64ad951461039b5780635b14f183146103b257600080fd5b80632cb7e700116102315780632cb7e700146102f55780632fa3c4bf1461030857806335df82dc1461031b5780633b8f9be71461032e578063478222c21461033d57600080fd5b806303af11931461026e578063054e426b1461029d5780630fdbb1c1146102ba57806318fc742e146102cf5780632c45d67c146102e2575b600080fd5b60065461028490600160a81b900462ffffff1681565b60405162ffffff90911681526020015b60405180910390f35b6006546102aa9060ff1681565b6040519015158152602001610294565b6102cd6102c8366004610d0c565b610658565b005b6102cd6102dd366004610d41565b610684565b6102cd6102f0366004610d74565b6106c6565b6102cd610303366004610d0c565b6106d3565b6102cd610316366004610d8d565b6106fc565b6102cd610329366004610d0c565b61079a565b6009546102849062ffffff1681565b6006546103559061010090046001600160a01b031681565b6040516001600160a01b039091168152602001610294565b6102cd61037b366004610d0c565b610838565b6102cd610861565b6102cd610396366004610d41565b610878565b6103a460085481565b604051908152602001610294565b6102aa6103c0366004610d0c565b6108b1565b6102846103d3366004610d0c565b60076020526000908152604090205462ffffff1681565b6102aa6103f8366004610d0c565b60056020526000908152604090205460ff1681565b6102cd61041b366004610d0c565b6108e0565b6102aa61042e366004610d0c565b60046020526000908152604090205460ff1681565b6102cd61090f565b6102cd610459366004610d0c565b610923565b6102aa61046c366004610d0c565b60036020526000908152604090205460ff1681565b6102aa61048f366004610d0c565b6001600160a01b031660009081526002602052604090205460ff1690565b6102cd61094f565b6000546001600160a01b0316610355565b6102846104d4366004610d0c565b600a6020526000908152604090205462ffffff1681565b6102cd6104f9366004610d8d565b610963565b60065460ff166102aa565b6102cd610517366004610d0c565b61098f565b6102aa61052a366004610d0c565b60026020526000908152604090205460ff1681565b6102aa61054d366004610d0c565b6001600160a01b031660009081526005602052604090205460ff1690565b600b5462ffffff16610284565b6102cd610586366004610d8d565b6109bb565b6102cd610599366004610d0c565b6109e6565b6102cd6105ac366004610d0c565b610a0f565b6102aa6105bf366004610d0c565b60016020526000908152604090205460ff1681565b60065461010090046001600160a01b0316610355565b6102846105f8366004610da8565b610a3b565b6102cd61060b366004610d0c565b610ab9565b6102cd61061e366004610d0c565b610ae2565b610284610631366004610da8565b610b5b565b600b546102849062ffffff1681565b6102cd610653366004610d0c565b610bb0565b610660610bd9565b6001600160a01b03166000908152600560205260409020805460ff19166001179055565b61068c610bd9565b61069581610c33565b6001600160a01b03919091166000908152600a60205260409020805462ffffff191662ffffff909216919091179055565b6106ce610bd9565b600855565b6106db610bd9565b6001600160a01b03166000908152600260205260409020805460ff19169055565b610704610bd9565b620f42408162ffffff1611156107805760405162461bcd60e51b815260206004820152603660248201527f436f6e66696775726174696f6e3a206d617820747265617375727920726174656044820152751036bab9ba103132903632b9b9903a3430b71018b29b60511b60648201526084015b60405180910390fd5b600b805462ffffff191662ffffff92909216919091179055565b6107a2610bd9565b6001600160a01b0381166108105760405162461bcd60e51b815260206004820152602f60248201527f436f6e66696775726174696f6e3a20666565207661756c742063616e6e6f742060448201526e6265207a65726f206164647265737360881b6064820152608401610777565b600680546001600160a01b0390921661010002610100600160a81b0319909216919091179055565b610840610bd9565b6001600160a01b03166000908152600460205260409020805460ff19169055565b610869610bd9565b6006805460ff19166001179055565b610880610bd9565b6001600160a01b03919091166000908152600760205260409020805462ffffff191662ffffff909216919091179055565b6001600160a01b03811660009081526004602052604081205460ff16806108da575060065460ff165b92915050565b6108e8610bd9565b6001600160a01b03166000908152600160208190526040909120805460ff19169091179055565b610917610bd9565b6109216000610ca0565b565b61092b610bd9565b6001600160a01b03166000908152600460205260409020805460ff19166001179055565b610957610bd9565b6006805460ff19169055565b61096b610bd9565b6006805462ffffff909216600160a81b0262ffffff60a81b19909216919091179055565b610997610bd9565b6001600160a01b03166000908152600360205260409020805460ff19166001179055565b6109c3610bd9565b6109cc81610c33565b6009805462ffffff191662ffffff92909216919091179055565b6109ee610bd9565b6001600160a01b03166000908152600360205260409020805460ff19169055565b610a17610bd9565b6001600160a01b03166000908152600260205260409020805460ff19166001179055565b6001600160a01b03808316600090815260076020526040808220549284168252812054909162ffffff908116911681158015610a7a575062ffffff8116155b15610a97575050600654600160a81b900462ffffff1690506108da565b8062ffffff168262ffffff1611610aae5780610ab0565b815b95945050505050565b610ac1610bd9565b6001600160a01b03166000908152600560205260409020805460ff19169055565b610aea610bd9565b6001600160a01b038116610b4f5760405162461bcd60e51b815260206004820152602660248201527f4f776e61626c653a206e6577206f776e657220697320746865207a65726f206160448201526564647265737360d01b6064820152608401610777565b610b5881610ca0565b50565b6001600160a01b038083166000908152600a6020526040808220549284168252812054909162ffffff908116911681158015610b9a575062ffffff8116155b15610a9757505060095462ffffff1690506108da565b610bb8610bd9565b6001600160a01b03166000908152600160205260409020805460ff19169055565b6000546001600160a01b031633146109215760405162461bcd60e51b815260206004820181905260248201527f4f776e61626c653a2063616c6c6572206973206e6f7420746865206f776e65726044820152606401610777565b614e208162ffffff161115610b585760405162461bcd60e51b815260206004820152602d60248201527f436f6e66696775726174696f6e3a20747261646520666565206d75737420626560448201526c206c657373207468616e20312560981b6064820152608401610777565b600080546001600160a01b038381166001600160a01b0319831681178455604051919092169283917f8be0079c531659141344cd1fd0a4f28419497f9722a3daafe3b4186f6b6457e09190a35050565b80356001600160a01b0381168114610d0757600080fd5b919050565b600060208284031215610d1e57600080fd5b610d2782610cf0565b9392505050565b803562ffffff81168114610d0757600080fd5b60008060408385031215610d5457600080fd5b610d5d83610cf0565b9150610d6b60208401610d2e565b90509250929050565b600060208284031215610d8657600080fd5b5035919050565b600060208284031215610d9f57600080fd5b610d2782610d2e565b60008060408385031215610dbb57600080fd5b610dc483610cf0565b9150610d6b60208401610cf056fea2646970667358221220c473ba0a602756705d4483e587b8c9b2c54f270308a9f06339bd1a982ce3ffb164736f6c63430008130033",
  "devdoc": {
    "kind": "dev",
    "methods": {
      "owner()": {
        "details": "Returns the address of the current owner."
      },
      "renounceOwnership()": {
        "details": "Leaves the contract without owner. It will not be possible to call `onlyOwner` functions. Can only be called by the current owner. NOTE: Renouncing ownership will leave the contract without an owner, thereby disabling any functionality that is only available to the owner."
      },
      "transferOwnership(address)": {
        "details": "Transfers ownership of the contract to a new account (`newOwner`). Can only be called by the current owner."
      }
    },
    "version": 1
  },
  "userdoc": {
    "kind": "user",
    "methods": {},
    "version": 1
  },
  "storageLayout": {
    "storage": [
      {
        "astId": 13773,
        "contract": "contracts/Configuration.sol:Configuration",
        "label": "_owner",
        "offset": 0,
        "slot": "0",
        "type": "t_address"
      },
      {
        "astId": 15849,
        "contract": "contracts/Configuration.sol:Configuration",
        "label": "paymentTokenWhitlist",
        "offset": 0,
        "slot": "1",
        "type": "t_mapping(t_address,t_bool)"
      },
      {
        "astId": 15853,
        "contract": "contracts/Configuration.sol:Configuration",
        "label": "distributorWhitelist",
        "offset": 0,
        "slot": "2",
        "type": "t_mapping(t_address,t_bool)"
      },
      {
        "astId": 15857,
        "contract": "contracts/Configuration.sol:Configuration",
        "label": "presaleMakers",
        "offset": 0,
        "slot": "3",
        "type": "t_mapping(t_address,t_bool)"
      },
      {
        "astId": 15861,
        "contract": "contracts/Configuration.sol:Configuration",
        "label": "isPoolPaused",
        "offset": 0,
        "slot": "4",
        "type": "t_mapping(t_address,t_bool)"
      },
      {
        "astId": 15865,
        "contract": "contracts/Configuration.sol:Configuration",
        "label": "transferBlacklist",
        "offset": 0,
        "slot": "5",
        "type": "t_mapping(t_address,t_bool)"
      },
      {
        "astId": 15867,
        "contract": "contracts/Configuration.sol:Configuration",
        "label": "isAllPoolPaused",
        "offset": 0,
        "slot": "6",
        "type": "t_bool"
      },
      {
        "astId": 15869,
        "contract": "contracts/Configuration.sol:Configuration",
        "label": "feeVault",
        "offset": 1,
        "slot": "6",
        "type": "t_address"
      },
      {
        "astId": 15874,
        "contract": "contracts/Configuration.sol:Configuration",
        "label": "defaultDistributionFeeRate",
        "offset": 21,
        "slot": "6",
        "type": "t_uint24"
      },
      {
        "astId": 15878,
        "contract": "contracts/Configuration.sol:Configuration",
        "label": "distributionFeeRate",
        "offset": 0,
        "slot": "7",
        "type": "t_mapping(t_address,t_uint24)"
      },
      {
        "astId": 15881,
        "contract": "contracts/Configuration.sol:Configuration",
        "label": "mintingFee",
        "offset": 0,
        "slot": "8",
        "type": "t_uint256"
      },
      {
        "astId": 15886,
        "contract": "contracts/Configuration.sol:Configuration",
        "label": "defaultTradeFee",
        "offset": 0,
        "slot": "9",
        "type": "t_uint24"
      },
      {
        "astId": 15890,
        "contract": "contracts/Configuration.sol:Configuration",
        "label": "tradeFee",
        "offset": 0,
        "slot": "10",
        "type": "t_mapping(t_address,t_uint24)"
      },
      {
        "astId": 15893,
        "contract": "contracts/Configuration.sol:Configuration",
        "label": "maxTreasuryRate",
        "offset": 0,
        "slot": "11",
        "type": "t_uint24"
      }
    ],
    "types": {
      "t_address": {
        "encoding": "inplace",
        "label": "address",
        "numberOfBytes": "20"
      },
      "t_bool": {
        "encoding": "inplace",
        "label": "bool",
        "numberOfBytes": "1"
      },
      "t_mapping(t_address,t_bool)": {
        "encoding": "mapping",
        "key": "t_address",
        "label": "mapping(address => bool)",
        "numberOfBytes": "32",
        "value": "t_bool"
      },
      "t_mapping(t_address,t_uint24)": {
        "encoding": "mapping",
        "key": "t_address",
        "label": "mapping(address => uint24)",
        "numberOfBytes": "32",
        "value": "t_uint24"
      },
      "t_uint24": {
        "encoding": "inplace",
        "label": "uint24",
        "numberOfBytes": "3"
      },
      "t_uint256": {
        "encoding": "inplace",
        "label": "uint256",
        "numberOfBytes": "32"
      }
    }
  }
}