{
  "address": "0x0A35915c7b0cb0f7f33916eEfcC039f0A9bDa0C3",
  "abi": [
    {
      "inputs": [
        {
          "internalType": "address",
          "name": "_feeVault",
          "type": "address"
        }
      ],
      "stateMutability": "nonpayable",
      "type": "constructor"
    },
    {
      "anonymous": false,
      "inputs": [
        {
          "indexed": true,
          "internalType": "address",
          "name": "previousOwner",
          "type": "address"
        },
        {
          "indexed": true,
          "internalType": "address",
          "name": "newOwner",
          "type": "address"
        }
      ],
      "name": "OwnershipTransferred",
      "type": "event"
    },
    {
      "inputs": [
        {
          "internalType": "address",
          "name": "distributor",
          "type": "address"
        }
      ],
      "name": "allowDistributor",
      "outputs": [],
      "stateMutability": "nonpayable",
      "type": "function"
    },
    {
      "inputs": [
        {
          "internalType": "address",
          "name": "token",
          "type": "address"
        }
      ],
      "name": "allowTokenForPayment",
      "outputs": [],
      "stateMutability": "nonpayable",
      "type": "function"
    },
    {
      "inputs": [],
      "name": "defaultDistributionFeeRate",
      "outputs": [
        {
          "internalType": "uint24",
          "name": "",
          "type": "uint24"
        }
      ],
      "stateMutability": "view",
      "type": "function"
    },
    {
      "inputs": [],
      "name": "defaultTradeFee",
      "outputs": [
        {
          "internalType": "uint24",
          "name": "",
          "type": "uint24"
        }
      ],
      "stateMutability": "view",
      "type": "function"
    },
    {
      "inputs": [
        {
          "internalType": "address",
          "name": "distributor",
          "type": "address"
        }
      ],
      "name": "disallowDistributor",
      "outputs": [],
      "stateMutability": "nonpayable",
      "type": "function"
    },
    {
      "inputs": [
        {
          "internalType": "address",
          "name": "token",
          "type": "address"
        }
      ],
      "name": "disallowTokenForPayment",
      "outputs": [],
      "stateMutability": "nonpayable",
      "type": "function"
    },
    {
      "inputs": [
        {
          "internalType": "address",
          "name": "",
          "type": "address"
        }
      ],
      "name": "distributionFeeRate",
      "outputs": [
        {
          "internalType": "uint24",
          "name": "",
          "type": "uint24"
        }
      ],
      "stateMutability": "view",
      "type": "function"
    },
    {
      "inputs": [
        {
          "internalType": "address",
          "name": "",
          "type": "address"
        }
      ],
      "name": "distributorWhitelist",
      "outputs": [
        {
          "internalType": "bool",
          "name": "",
          "type": "bool"
        }
      ],
      "stateMutability": "view",
      "type": "function"
    },
    {
      "inputs": [],
      "name": "feeVault",
      "outputs": [
        {
          "internalType": "address",
          "name": "",
          "type": "address"
        }
      ],
      "stateMutability": "view",
      "type": "function"
    },
    {
      "inputs": [
        {
          "internalType": "address",
          "name": "token0",
          "type": "address"
        },
        {
          "internalType": "address",
          "name": "token1",
          "type": "address"
        }
      ],
      "name": "getDistributionFeeRate",
      "outputs": [
        {
          "internalType": "uint24",
          "name": "",
          "type": "uint24"
        }
      ],
      "stateMutability": "view",
      "type": "function"
    },
    {
      "inputs": [],
      "name": "getFeeVault",
      "outputs": [
        {
          "internalType": "address",
          "name": "",
          "type": "address"
        }
      ],
      "stateMutability": "view",
      "type": "function"
    },
    {
      "inputs": [],
      "name": "getMaxTreasuryRate",
      "outputs": [
        {
          "internalType": "uint24",
          "name": "",
          "type": "uint24"
        }
      ],
      "stateMutability": "view",
      "type": "function"
    },
    {
      "inputs": [
        {
          "internalType": "address",
          "name": "token0",
          "type": "address"
        },
        {
          "internalType": "address",
          "name": "token1",
          "type": "address"
        }
      ],
      "name": "getTradeFee",
      "outputs": [
        {
          "internalType": "uint24",
          "name": "",
          "type": "uint24"
        }
      ],
      "stateMutability": "view",
      "type": "function"
    },
    {
      "inputs": [],
      "name": "isAllPoolPaused",
      "outputs": [
        {
          "internalType": "bool",
          "name": "",
          "type": "bool"
        }
      ],
      "stateMutability": "view",
      "type": "function"
    },
    {
      "inputs": [
        {
          "internalType": "address",
          "name": "distributor",
          "type": "address"
        }
      ],
      "name": "isDistributorWhitelisted",
      "outputs": [
        {
          "internalType": "bool",
          "name": "",
          "type": "bool"
        }
      ],
      "stateMutability": "view",
      "type": "function"
    },
    {
      "inputs": [
        {
          "internalType": "address",
          "name": "pool",
          "type": "address"
        }
      ],
      "name": "isPaused",
      "outputs": [
        {
          "internalType": "bool",
          "name": "",
          "type": "bool"
        }
      ],
      "stateMutability": "view",
      "type": "function"
    },
    {
      "inputs": [],
      "name": "isPausedAll",
      "outputs": [
        {
          "internalType": "bool",
          "name": "",
          "type": "bool"
        }
      ],
      "stateMutability": "view",
      "type": "function"
    },
    {
      "inputs": [
        {
          "internalType": "address",
          "name": "",
          "type": "address"
        }
      ],
      "name": "isPoolPaused",
      "outputs": [
        {
          "internalType": "bool",
          "name": "",
          "type": "bool"
        }
      ],
      "stateMutability": "view",
      "type": "function"
    },
    {
      "inputs": [
        {
          "internalType": "address",
          "name": "target",
          "type": "address"
        }
      ],
      "name": "isTransferBlacklisted",
      "outputs": [
        {
          "internalType": "bool",
          "name": "",
          "type": "bool"
        }
      ],
      "stateMutability": "view",
      "type": "function"
    },
    {
      "inputs": [],
      "name": "maxTreasuryRate",
      "outputs": [
        {
          "internalType": "uint24",
          "name": "",
          "type": "uint24"
        }
      ],
      "stateMutability": "view",
      "type": "function"
    },
    {
      "inputs": [],
      "name": "mintingFee",
      "outputs": [
        {
          "internalType": "uint256",
          "name": "",
          "type": "uint256"
        }
      ],
      "stateMutability": "view",
      "type": "function"
    },
    {
      "inputs": [],
      "name": "owner",
      "outputs": [
        {
          "internalType": "address",
          "name": "",
          "type": "address"
        }
      ],
      "stateMutability": "view",
      "type": "function"
    },
    {
      "inputs": [
        {
          "internalType": "address",
          "name": "pool",
          "type": "address"
        }
      ],
      "name": "pause",
      "outputs": [],
      "stateMutability": "nonpayable",
      "type": "function"
    },
    {
      "inputs": [],
      "name": "pauseAll",
      "outputs": [],
      "stateMutability": "nonpayable",
      "type": "function"
    },
    {
      "inputs": [
        {
          "internalType": "address",
          "name": "",
          "type": "address"
        }
      ],
      "name": "paymentTokenWhitlist",
      "outputs": [
        {
          "internalType": "bool",
          "name": "",
          "type": "bool"
        }
      ],
      "stateMutability": "view",
      "type": "function"
    },
    {
      "inputs": [
        {
          "internalType": "address",
          "name": "",
          "type": "address"
        }
      ],
      "name": "presaleMakers",
      "outputs": [
        {
          "internalType": "bool",
          "name": "",
          "type": "bool"
        }
      ],
      "stateMutability": "view",
      "type": "function"
    },
    {
      "inputs": [
        {
          "internalType": "uint24",
          "name": "feeRate",
          "type": "uint24"
        }
      ],
      "name": "putDefaultDistributionFeeRate",
      "outputs": [],
      "stateMutability": "nonpayable",
      "type": "function"
    },
    {
      "inputs": [
        {
          "internalType": "uint24",
          "name": "_tradeFee",
          "type": "uint24"
        }
      ],
      "name": "putDefaultTradeFee",
      "outputs": [],
      "stateMutability": "nonpayable",
      "type": "function"
    },
    {
      "inputs": [
        {
          "internalType": "address",
          "name": "token",
          "type": "address"
        },
        {
          "internalType": "uint24",
          "name": "feeRate",
          "type": "uint24"
        }
      ],
      "name": "putDistributionFeeRateForToken",
      "outputs": [],
      "stateMutability": "nonpayable",
      "type": "function"
    },
    {
      "inputs": [
        {
          "internalType": "address",
          "name": "vault",
          "type": "address"
        }
      ],
      "name": "putFeeVault",
      "outputs": [],
      "stateMutability": "nonpayable",
      "type": "function"
    },
    {
      "inputs": [
        {
          "internalType": "uint24",
          "name": "rate",
          "type": "uint24"
        }
      ],
      "name": "putMaxTreasuryRate",
      "outputs": [],
      "stateMutability": "nonpayable",
      "type": "function"
    },
    {
      "inputs": [
        {
          "internalType": "uint256",
          "name": "fee",
          "type": "uint256"
        }
      ],
      "name": "putMintingFee",
      "outputs": [],
      "stateMutability": "nonpayable",
      "type": "function"
    },
    {
      "inputs": [
        {
          "internalType": "address",
          "name": "presaleMaker",
          "type": "address"
        }
      ],
      "name": "putPresaleMaker",
      "outputs": [],
      "stateMutability": "nonpayable",
      "type": "function"
    },
    {
      "inputs": [
        {
          "internalType": "address",
          "name": "token",
          "type": "address"
        },
        {
          "internalType": "uint24",
          "name": "_tradeFee",
          "type": "uint24"
        }
      ],
      "name": "putTradeFeeForToken",
      "outputs": [],
      "stateMutability": "nonpayable",
      "type": "function"
    },
    {
      "inputs": [
        {
          "internalType": "address",
          "name": "target",
          "type": "address"
        }
      ],
      "name": "putTransferBlacklist",
      "outputs": [],
      "stateMutability": "nonpayable",
      "type": "function"
    },
    {
      "inputs": [
        {
          "internalType": "address",
          "name": "presaleMaker",
          "type": "address"
        }
      ],
      "name": "removePresaleMaker",
      "outputs": [],
      "stateMutability": "nonpayable",
      "type": "function"
    },
    {
      "inputs": [
        {
          "internalType": "address",
          "name": "target",
          "type": "address"
        }
      ],
      "name": "removeTransferBlacklist",
      "outputs": [],
      "stateMutability": "nonpayable",
      "type": "function"
    },
    {
      "inputs": [],
      "name": "renounceOwnership",
      "outputs": [],
      "stateMutability": "nonpayable",
      "type": "function"
    },
    {
      "inputs": [
        {
          "internalType": "address",
          "name": "",
          "type": "address"
        }
      ],
      "name": "tradeFee",
      "outputs": [
        {
          "internalType": "uint24",
          "name": "",
          "type": "uint24"
        }
      ],
      "stateMutability": "view",
      "type": "function"
    },
    {
      "inputs": [
        {
          "internalType": "address",
          "name": "",
          "type": "address"
        }
      ],
      "name": "transferBlacklist",
      "outputs": [
        {
          "internalType": "bool",
          "name": "",
          "type": "bool"
        }
      ],
      "stateMutability": "view",
      "type": "function"
    },
    {
      "inputs": [
        {
          "internalType": "address",
          "name": "newOwner",
          "type": "address"
        }
      ],
      "name": "transferOwnership",
      "outputs": [],
      "stateMutability": "nonpayable",
      "type": "function"
    },
    {
      "inputs": [
        {
          "internalType": "address",
          "name": "pool",
          "type": "address"
        }
      ],
      "name": "unpause",
      "outputs": [],
      "stateMutability": "nonpayable",
      "type": "function"
    },
    {
      "inputs": [],
      "name": "unpauseAll",
      "outputs": [],
      "stateMutability": "nonpayable",
      "type": "function"
    }
  ],
  "transactionHash": "0xba0880e2b4ce43e74e7037a04574ce96c216e2cfea021e47395d8105976d38af",
  "args": [
    "0xb9dF4BD9d3103cF1FB184BF5e6b54Cf55de81747"
  ],
  "numDeployments": 3,
  "solcInputHash": "85e0b14e4b1e7aa9ce3dbddda6a42b55",
  "bytecode": "0x6080346100e657601f610f5538819003918201601f19168301916001600160401b038311848410176100eb578084926020946040528339810103126100e657516001600160a01b039081811681036100e6576000543360018060a01b0319821617600055604051923391167f8be0079c531659141344cd1fd0a4f28419497f9722a3daafe3b4186f6b6457e0600080a36006546000600855620c350062ffffff19612710816009541617600955600b541617600b5561027160ac1b91610100600160a81b039060081b1690610100600160c01b0319161717600655610e5390816101028239f35b600080fd5b634e487b7160e01b600052604160045260246000fdfe608060408181526004918236101561001657600080fd5b600092833560e01c91826303af119314610c2957508163054e426b146105e95781630fdbb1c114610be657816318fc742e14610b895781632c45d67c14610b675781632cb7e70014610b275781632fa3c4bf14610a8057816335df82dc146109c85781633b8f9be7146109a4578163478222c2146103d557816357b001f914610966578163595c6a671461093d57816359d9963a146108e95781635a64ad95146108ca5781635b14f18314610879578163602e3e331461083b5781636614b24e1461052a57816369918361146107f55781636c9bc732146107b8578163715018a61461075e57816376a67a511461071d578163819afdb4146106df57816382500538146105685781638a2ddd03146106b95781638da5cb5b146106915781638dfdb45414610653578163908f543c1461060d578163a0e6adf1146105e9578163a3d4597f146105a6578163b5f903d514610568578163bbd919801461052a578163d455863b14610506578163d6dc4b7b146104c3578163dfa5901614610483578163e1764f5214610440578163e31f4e4014610402578163ec0f7cf0146103d5578163ecbb1ac0146103a3578163ecf8630414610363578163f2fde38b1461029c57508063f56681bf14610263578063faba50cc146102405763fea611f9146101fe57600080fd5b3461023c57602036600319011261023c57610217610c4d565b61021f610ca2565b6001600160a01b0316825260016020528120805460ff1916905580f35b5080fd5b503461023c578160031936011261023c5760209062ffffff600b54169051908152f35b503461023c578060031936011261023c5760209062ffffff610294610286610c4d565b61028e610c68565b90610d5a565b915191168152f35b90503461035f57602036600319011261035f576102b7610c4d565b906102c0610ca2565b6001600160a01b0391821692831561030d57505082546001600160a01b0319811683178455167f8be0079c531659141344cd1fd0a4f28419497f9722a3daafe3b4186f6b6457e08380a380f35b906020608492519162461bcd60e51b8352820152602660248201527f4f776e61626c653a206e6577206f776e657220697320746865207a65726f206160448201526564647265737360d01b6064820152fd5b8280fd5b50503461023c57602036600319011261023c5761037e610c4d565b610386610ca2565b6001600160a01b0316825260056020528120805460ff1916905580f35b50503461023c578060031936011261023c5760209062ffffff6102946103c7610c4d565b6103cf610c68565b90610cfa565b50503461023c578160031936011261023c57600654905160089190911c6001600160a01b03168152602090f35b50503461023c57602036600319011261023c5760209160ff9082906001600160a01b0361042d610c4d565b1681526001855220541690519015158152f35b50503461023c57602036600319011261023c5761045b610c4d565b610463610ca2565b6001600160a01b0316825260026020528120805460ff1916600117905580f35b50503461023c57602036600319011261023c5761049e610c4d565b6104a6610ca2565b6001600160a01b0316825260036020528120805460ff1916905580f35b83346105035760203660031901126105035762ffffff6104e1610c90565b6104e9610ca2565b6104f281610db2565b1662ffffff19600954161760095580f35b80fd5b50503461023c578160031936011261023c5760209062ffffff600b54169051908152f35b50503461023c57602036600319011261023c5760209160ff9082906001600160a01b03610555610c4d565b1681526005855220541690519015158152f35b50503461023c57602036600319011261023c5760209160ff9082906001600160a01b03610593610c4d565b1681526002855220541690519015158152f35b50503461023c57602036600319011261023c576105c1610c4d565b6105c9610ca2565b6001600160a01b0316825260036020528120805460ff1916600117905580f35b50503461023c578160031936011261023c5760209060ff6006541690519015158152f35b833461050357602036600319011261050357610627610c90565b61062f610ca2565b6006805462ffffff60a81b191660a89290921b62ffffff60a81b1691909117905580f35b50503461023c57602036600319011261023c5760209162ffffff9082906001600160a01b03610680610c4d565b168152600a85522054169051908152f35b50503461023c578160031936011261023c57905490516001600160a01b039091168152602090f35b83346105035780600319360112610503576106d2610ca2565b60ff196006541660065580f35b50503461023c57602036600319011261023c5760209160ff9082906001600160a01b0361070a610c4d565b1681526003855220541690519015158152f35b90503461035f57602036600319011261035f57610738610c4d565b610740610ca2565b6001600160a01b031683526020528120805460ff1916600117905580f35b8334610503578060031936011261050357610777610ca2565b80546001600160a01b03198116825581906001600160a01b03167f8be0079c531659141344cd1fd0a4f28419497f9722a3daafe3b4186f6b6457e08280a380f35b90503461035f57602036600319011261035f5760209260ff918391906001600160a01b036107e4610c4d565b168252855220541690519015158152f35b50503461023c57602036600319011261023c57610810610c4d565b610818610ca2565b6001600160a01b0316825260016020819052908220805460ff1916909117905580f35b50503461023c57602036600319011261023c5760209162ffffff9082906001600160a01b03610868610c4d565b168152600785522054169051908152f35b90503461035f57602036600319011261035f5760209260ff918391906001600160a01b036108a5610c4d565b16825285522054169081156108bd575b519015158152f35b60065460ff1691506108b5565b50503461023c578160031936011261023c576020906008549051908152f35b50503461023c578060031936011261023c5762ffffff610907610c4d565b91610910610c7e565b92610919610ca2565b6001600160a01b0316845260076020528320805462ffffff19169190921617905580f35b8334610503578060031936011261050357610956610ca2565b600160ff19600654161760065580f35b90503461035f57602036600319011261035f57610981610c4d565b610989610ca2565b6001600160a01b031683526020528120805460ff1916905580f35b50503461023c578160031936011261023c5760209062ffffff600954169051908152f35b90503461035f57602036600319011261035f576109e3610c4d565b916109ec610ca2565b6001600160a01b03831615610a2557505060068054610100600160a81b03191660089290921b610100600160a81b031691909117905580f35b906020608492519162461bcd60e51b8352820152602f60248201527f436f6e66696775726174696f6e3a20666565207661756c742063616e6e6f742060448201526e6265207a65726f206164647265737360881b6064820152fd5b90503461035f57602036600319011261035f5762ffffff610a9f610c90565b610aa7610ca2565b1691620f42408311610ac557505062ffffff19600b541617600b5580f35b906020608492519162461bcd60e51b8352820152603660248201527f436f6e66696775726174696f6e3a206d617820747265617375727920726174656044820152751036bab9ba103132903632b9b9903a3430b71018b29b60511b6064820152fd5b50503461023c57602036600319011261023c57610b42610c4d565b610b4a610ca2565b6001600160a01b0316825260026020528120805460ff1916905580f35b83903461023c57602036600319011261023c57610b82610ca2565b3560085580f35b50503461023c578060031936011261023c5762ffffff610ba7610c4d565b91610bb0610c7e565b92610bb9610ca2565b610bc284610db2565b6001600160a01b03168452600a6020528320805462ffffff19169190921617905580f35b50503461023c57602036600319011261023c57610c01610c4d565b610c09610ca2565b6001600160a01b0316825260056020528120805460ff1916600117905580f35b84903461023c578160031936011261023c5760209062ffffff60065460a81c168152f35b600435906001600160a01b0382168203610c6357565b600080fd5b602435906001600160a01b0382168203610c6357565b6024359062ffffff82168203610c6357565b6004359062ffffff82168203610c6357565b6000546001600160a01b03163303610cb657565b606460405162461bcd60e51b815260206004820152602060248201527f4f776e61626c653a2063616c6c6572206973206e6f7420746865206f776e65726044820152fd5b60018060a01b03809116600052600760205262ffffff9081604060002054169216600052806040600020541690821580610d52575b610d45575080821115610d40575090565b905090565b91505060065460a81c1690565b508115610d2f565b60018060a01b03809116600052600a60205262ffffff9081604060002054169216600052806040600020541690821580610daa575b610da0575080821115610d40575090565b9150506009541690565b508115610d8f565b62ffffff614e20911611610dc257565b60405162461bcd60e51b815260206004820152602d60248201527f436f6e66696775726174696f6e3a20747261646520666565206d75737420626560448201526c206c657373207468616e20312560981b6064820152608490fdfea2646970667358221220d25874dd53dd4bb61de4cdb8510261580bab3079937c51ff4493422f1ca80e5864736f6c63430008130033",
  "devdoc": {
    "kind": "dev",
    "methods": {
      "owner()": {
        "details": "Returns the address of the current owner."
      },
      "renounceOwnership()": {
        "details": "Leaves the contract without owner. It will not be possible to call `onlyOwner` functions. Can only be called by the current owner. NOTE: Renouncing ownership will leave the contract without an owner, thereby disabling any functionality that is only available to the owner."
      },
      "transferOwnership(address)": {
        "details": "Transfers ownership of the contract to a new account (`newOwner`). Can only be called by the current owner."
      }
    },
    "version": 1
  },
  "userdoc": {
    "kind": "user",
    "methods": {},
    "version": 1
  },
  "storageLayout": {
    "storage": [
      {
        "astId": 20703,
        "contract": "contracts/Configuration.sol:Configuration",
        "label": "_owner",
        "offset": 0,
        "slot": "0",
        "type": "t_address"
      },
      {
        "astId": 25438,
        "contract": "contracts/Configuration.sol:Configuration",
        "label": "paymentTokenWhitlist",
        "offset": 0,
        "slot": "1",
        "type": "t_mapping(t_address,t_bool)"
      },
      {
        "astId": 25442,
        "contract": "contracts/Configuration.sol:Configuration",
        "label": "distributorWhitelist",
        "offset": 0,
        "slot": "2",
        "type": "t_mapping(t_address,t_bool)"
      },
      {
        "astId": 25446,
        "contract": "contracts/Configuration.sol:Configuration",
        "label": "presaleMakers",
        "offset": 0,
        "slot": "3",
        "type": "t_mapping(t_address,t_bool)"
      },
      {
        "astId": 25450,
        "contract": "contracts/Configuration.sol:Configuration",
        "label": "isPoolPaused",
        "offset": 0,
        "slot": "4",
        "type": "t_mapping(t_address,t_bool)"
      },
      {
        "astId": 25454,
        "contract": "contracts/Configuration.sol:Configuration",
        "label": "transferBlacklist",
        "offset": 0,
        "slot": "5",
        "type": "t_mapping(t_address,t_bool)"
      },
      {
        "astId": 25456,
        "contract": "contracts/Configuration.sol:Configuration",
        "label": "isAllPoolPaused",
        "offset": 0,
        "slot": "6",
        "type": "t_bool"
      },
      {
        "astId": 25458,
        "contract": "contracts/Configuration.sol:Configuration",
        "label": "feeVault",
        "offset": 1,
        "slot": "6",
        "type": "t_address"
      },
      {
        "astId": 25463,
        "contract": "contracts/Configuration.sol:Configuration",
        "label": "defaultDistributionFeeRate",
        "offset": 21,
        "slot": "6",
        "type": "t_uint24"
      },
      {
        "astId": 25467,
        "contract": "contracts/Configuration.sol:Configuration",
        "label": "distributionFeeRate",
        "offset": 0,
        "slot": "7",
        "type": "t_mapping(t_address,t_uint24)"
      },
      {
        "astId": 25470,
        "contract": "contracts/Configuration.sol:Configuration",
        "label": "mintingFee",
        "offset": 0,
        "slot": "8",
        "type": "t_uint256"
      },
      {
        "astId": 25475,
        "contract": "contracts/Configuration.sol:Configuration",
        "label": "defaultTradeFee",
        "offset": 0,
        "slot": "9",
        "type": "t_uint24"
      },
      {
        "astId": 25479,
        "contract": "contracts/Configuration.sol:Configuration",
        "label": "tradeFee",
        "offset": 0,
        "slot": "10",
        "type": "t_mapping(t_address,t_uint24)"
      },
      {
        "astId": 25482,
        "contract": "contracts/Configuration.sol:Configuration",
        "label": "maxTreasuryRate",
        "offset": 0,
        "slot": "11",
        "type": "t_uint24"
      }
    ],
    "types": {
      "t_address": {
        "encoding": "inplace",
        "label": "address",
        "numberOfBytes": "20"
      },
      "t_bool": {
        "encoding": "inplace",
        "label": "bool",
        "numberOfBytes": "1"
      },
      "t_mapping(t_address,t_bool)": {
        "encoding": "mapping",
        "key": "t_address",
        "label": "mapping(address => bool)",
        "numberOfBytes": "32",
        "value": "t_bool"
      },
      "t_mapping(t_address,t_uint24)": {
        "encoding": "mapping",
        "key": "t_address",
        "label": "mapping(address => uint24)",
        "numberOfBytes": "32",
        "value": "t_uint24"
      },
      "t_uint24": {
        "encoding": "inplace",
        "label": "uint24",
        "numberOfBytes": "3"
      },
      "t_uint256": {
        "encoding": "inplace",
        "label": "uint256",
        "numberOfBytes": "32"
      }
    }
  }
}