{
  "address": "0x4C61a47CCA40752831cA53c32aC0bd8f47665E37",
  "abi": [
    {
      "inputs": [
        {
          "internalType": "address",
          "name": "_feeVault",
          "type": "address"
        }
      ],
      "stateMutability": "nonpayable",
      "type": "constructor"
    },
    {
      "anonymous": false,
      "inputs": [
        {
          "indexed": false,
          "internalType": "uint24",
          "name": "fee",
          "type": "uint24"
        }
      ],
      "name": "DefaultDistributionFeeRateUpdated",
      "type": "event"
    },
    {
      "anonymous": false,
      "inputs": [
        {
          "indexed": false,
          "internalType": "address",
          "name": "distributor",
          "type": "address"
        }
      ],
      "name": "DefaultDistributorUpdated",
      "type": "event"
    },
    {
      "anonymous": false,
      "inputs": [
        {
          "indexed": false,
          "internalType": "uint24",
          "name": "fee",
          "type": "uint24"
        }
      ],
      "name": "DefaultTradeFeeUpdated",
      "type": "event"
    },
    {
      "anonymous": false,
      "inputs": [
        {
          "indexed": false,
          "internalType": "address",
          "name": "token",
          "type": "address"
        },
        {
          "indexed": false,
          "internalType": "uint24",
          "name": "fee",
          "type": "uint24"
        }
      ],
      "name": "DistributionFeeRateForTokenUpdated",
      "type": "event"
    },
    {
      "anonymous": false,
      "inputs": [
        {
          "indexed": false,
          "internalType": "address",
          "name": "vault",
          "type": "address"
        }
      ],
      "name": "FeeVaultUpdated",
      "type": "event"
    },
    {
      "anonymous": false,
      "inputs": [
        {
          "indexed": false,
          "internalType": "uint256",
          "name": "duration",
          "type": "uint256"
        }
      ],
      "name": "MaxPresaleDurationUpdated",
      "type": "event"
    },
    {
      "anonymous": false,
      "inputs": [
        {
          "indexed": false,
          "internalType": "uint24",
          "name": "rate",
          "type": "uint24"
        }
      ],
      "name": "MaxTreasuryRateUpdated",
      "type": "event"
    },
    {
      "anonymous": false,
      "inputs": [
        {
          "indexed": false,
          "internalType": "uint256",
          "name": "fee",
          "type": "uint256"
        }
      ],
      "name": "MintingFeeUpdated",
      "type": "event"
    },
    {
      "anonymous": false,
      "inputs": [
        {
          "indexed": true,
          "internalType": "address",
          "name": "previousOwner",
          "type": "address"
        },
        {
          "indexed": true,
          "internalType": "address",
          "name": "newOwner",
          "type": "address"
        }
      ],
      "name": "OwnershipTransferred",
      "type": "event"
    },
    {
      "anonymous": false,
      "inputs": [
        {
          "indexed": false,
          "internalType": "address",
          "name": "token",
          "type": "address"
        },
        {
          "indexed": false,
          "internalType": "uint24",
          "name": "fee",
          "type": "uint24"
        }
      ],
      "name": "TradeFeeForTokenUpdated",
      "type": "event"
    },
    {
      "inputs": [
        {
          "internalType": "address",
          "name": "distributor",
          "type": "address"
        }
      ],
      "name": "allowDistributor",
      "outputs": [],
      "stateMutability": "nonpayable",
      "type": "function"
    },
    {
      "inputs": [
        {
          "internalType": "address",
          "name": "token",
          "type": "address"
        }
      ],
      "name": "allowTokenForPayment",
      "outputs": [],
      "stateMutability": "nonpayable",
      "type": "function"
    },
    {
      "inputs": [],
      "name": "defaultDistributionFeeRate",
      "outputs": [
        {
          "internalType": "uint24",
          "name": "",
          "type": "uint24"
        }
      ],
      "stateMutability": "view",
      "type": "function"
    },
    {
      "inputs": [],
      "name": "defaultDistributor",
      "outputs": [
        {
          "internalType": "address",
          "name": "",
          "type": "address"
        }
      ],
      "stateMutability": "view",
      "type": "function"
    },
    {
      "inputs": [],
      "name": "defaultTradeFee",
      "outputs": [
        {
          "internalType": "uint24",
          "name": "",
          "type": "uint24"
        }
      ],
      "stateMutability": "view",
      "type": "function"
    },
    {
      "inputs": [
        {
          "internalType": "address",
          "name": "distributor",
          "type": "address"
        }
      ],
      "name": "disallowDistributor",
      "outputs": [],
      "stateMutability": "nonpayable",
      "type": "function"
    },
    {
      "inputs": [
        {
          "internalType": "address",
          "name": "token",
          "type": "address"
        }
      ],
      "name": "disallowTokenForPayment",
      "outputs": [],
      "stateMutability": "nonpayable",
      "type": "function"
    },
    {
      "inputs": [
        {
          "internalType": "address",
          "name": "",
          "type": "address"
        }
      ],
      "name": "distributionFeeRate",
      "outputs": [
        {
          "internalType": "uint24",
          "name": "",
          "type": "uint24"
        }
      ],
      "stateMutability": "view",
      "type": "function"
    },
    {
      "inputs": [
        {
          "internalType": "address",
          "name": "",
          "type": "address"
        }
      ],
      "name": "distributorWhitelist",
      "outputs": [
        {
          "internalType": "bool",
          "name": "",
          "type": "bool"
        }
      ],
      "stateMutability": "view",
      "type": "function"
    },
    {
      "inputs": [
        {
          "internalType": "uint256",
          "name": "",
          "type": "uint256"
        }
      ],
      "name": "distributors",
      "outputs": [
        {
          "internalType": "contract IDistributor",
          "name": "",
          "type": "address"
        }
      ],
      "stateMutability": "view",
      "type": "function"
    },
    {
      "inputs": [],
      "name": "feeVault",
      "outputs": [
        {
          "internalType": "address",
          "name": "",
          "type": "address"
        }
      ],
      "stateMutability": "view",
      "type": "function"
    },
    {
      "inputs": [
        {
          "internalType": "address",
          "name": "token0",
          "type": "address"
        },
        {
          "internalType": "address",
          "name": "token1",
          "type": "address"
        }
      ],
      "name": "getDistributionFeeRate",
      "outputs": [
        {
          "internalType": "uint24",
          "name": "",
          "type": "uint24"
        }
      ],
      "stateMutability": "view",
      "type": "function"
    },
    {
      "inputs": [],
      "name": "getFeeVault",
      "outputs": [
        {
          "internalType": "address",
          "name": "",
          "type": "address"
        }
      ],
      "stateMutability": "view",
      "type": "function"
    },
    {
      "inputs": [],
      "name": "getMaxTreasuryRate",
      "outputs": [
        {
          "internalType": "uint24",
          "name": "",
          "type": "uint24"
        }
      ],
      "stateMutability": "view",
      "type": "function"
    },
    {
      "inputs": [
        {
          "internalType": "address",
          "name": "token0",
          "type": "address"
        },
        {
          "internalType": "address",
          "name": "token1",
          "type": "address"
        }
      ],
      "name": "getTradeFee",
      "outputs": [
        {
          "internalType": "uint24",
          "name": "",
          "type": "uint24"
        }
      ],
      "stateMutability": "view",
      "type": "function"
    },
    {
      "inputs": [],
      "name": "isAllPoolPaused",
      "outputs": [
        {
          "internalType": "bool",
          "name": "",
          "type": "bool"
        }
      ],
      "stateMutability": "view",
      "type": "function"
    },
    {
      "inputs": [
        {
          "internalType": "address",
          "name": "distributor",
          "type": "address"
        }
      ],
      "name": "isDistributorWhitelisted",
      "outputs": [
        {
          "internalType": "bool",
          "name": "",
          "type": "bool"
        }
      ],
      "stateMutability": "view",
      "type": "function"
    },
    {
      "inputs": [
        {
          "internalType": "address",
          "name": "pool",
          "type": "address"
        }
      ],
      "name": "isPaused",
      "outputs": [
        {
          "internalType": "bool",
          "name": "",
          "type": "bool"
        }
      ],
      "stateMutability": "view",
      "type": "function"
    },
    {
      "inputs": [],
      "name": "isPausedAll",
      "outputs": [
        {
          "internalType": "bool",
          "name": "",
          "type": "bool"
        }
      ],
      "stateMutability": "view",
      "type": "function"
    },
    {
      "inputs": [
        {
          "internalType": "address",
          "name": "",
          "type": "address"
        }
      ],
      "name": "isPoolPaused",
      "outputs": [
        {
          "internalType": "bool",
          "name": "",
          "type": "bool"
        }
      ],
      "stateMutability": "view",
      "type": "function"
    },
    {
      "inputs": [
        {
          "internalType": "address",
          "name": "target",
          "type": "address"
        }
      ],
      "name": "isTransferBlacklisted",
      "outputs": [
        {
          "internalType": "bool",
          "name": "",
          "type": "bool"
        }
      ],
      "stateMutability": "view",
      "type": "function"
    },
    {
      "inputs": [],
      "name": "maxPresaleDuration",
      "outputs": [
        {
          "internalType": "uint256",
          "name": "",
          "type": "uint256"
        }
      ],
      "stateMutability": "view",
      "type": "function"
    },
    {
      "inputs": [],
      "name": "maxTreasuryRate",
      "outputs": [
        {
          "internalType": "uint24",
          "name": "",
          "type": "uint24"
        }
      ],
      "stateMutability": "view",
      "type": "function"
    },
    {
      "inputs": [],
      "name": "mintingFee",
      "outputs": [
        {
          "internalType": "uint256",
          "name": "",
          "type": "uint256"
        }
      ],
      "stateMutability": "view",
      "type": "function"
    },
    {
      "inputs": [],
      "name": "owner",
      "outputs": [
        {
          "internalType": "address",
          "name": "",
          "type": "address"
        }
      ],
      "stateMutability": "view",
      "type": "function"
    },
    {
      "inputs": [
        {
          "internalType": "address",
          "name": "pool",
          "type": "address"
        }
      ],
      "name": "pause",
      "outputs": [],
      "stateMutability": "nonpayable",
      "type": "function"
    },
    {
      "inputs": [],
      "name": "pauseAll",
      "outputs": [],
      "stateMutability": "nonpayable",
      "type": "function"
    },
    {
      "inputs": [
        {
          "internalType": "address",
          "name": "",
          "type": "address"
        }
      ],
      "name": "paymentTokenWhitelist",
      "outputs": [
        {
          "internalType": "bool",
          "name": "",
          "type": "bool"
        }
      ],
      "stateMutability": "view",
      "type": "function"
    },
    {
      "inputs": [
        {
          "internalType": "address",
          "name": "",
          "type": "address"
        }
      ],
      "name": "presaleMakers",
      "outputs": [
        {
          "internalType": "bool",
          "name": "",
          "type": "bool"
        }
      ],
      "stateMutability": "view",
      "type": "function"
    },
    {
      "inputs": [
        {
          "internalType": "address",
          "name": "token1",
          "type": "address"
        },
        {
          "internalType": "address",
          "name": "token2",
          "type": "address"
        }
      ],
      "name": "putComputedTransferBlacklist",
      "outputs": [],
      "stateMutability": "nonpayable",
      "type": "function"
    },
    {
      "inputs": [
        {
          "internalType": "uint24",
          "name": "feeRate",
          "type": "uint24"
        }
      ],
      "name": "putDefaultDistributionFeeRate",
      "outputs": [],
      "stateMutability": "nonpayable",
      "type": "function"
    },
    {
      "inputs": [
        {
          "internalType": "address",
          "name": "distributor",
          "type": "address"
        }
      ],
      "name": "putDefaultDistributor",
      "outputs": [],
      "stateMutability": "nonpayable",
      "type": "function"
    },
    {
      "inputs": [
        {
          "internalType": "uint24",
          "name": "_tradeFee",
          "type": "uint24"
        }
      ],
      "name": "putDefaultTradeFee",
      "outputs": [],
      "stateMutability": "nonpayable",
      "type": "function"
    },
    {
      "inputs": [
        {
          "internalType": "address",
          "name": "token",
          "type": "address"
        },
        {
          "internalType": "uint24",
          "name": "feeRate",
          "type": "uint24"
        }
      ],
      "name": "putDistributionFeeRateForToken",
      "outputs": [],
      "stateMutability": "nonpayable",
      "type": "function"
    },
    {
      "inputs": [
        {
          "internalType": "address",
          "name": "vault",
          "type": "address"
        }
      ],
      "name": "putFeeVault",
      "outputs": [],
      "stateMutability": "nonpayable",
      "type": "function"
    },
    {
      "inputs": [
        {
          "internalType": "uint256",
          "name": "duration",
          "type": "uint256"
        }
      ],
      "name": "putMaxPresaleDuration",
      "outputs": [],
      "stateMutability": "nonpayable",
      "type": "function"
    },
    {
      "inputs": [
        {
          "internalType": "uint24",
          "name": "rate",
          "type": "uint24"
        }
      ],
      "name": "putMaxTreasuryRate",
      "outputs": [],
      "stateMutability": "nonpayable",
      "type": "function"
    },
    {
      "inputs": [
        {
          "internalType": "uint256",
          "name": "fee",
          "type": "uint256"
        }
      ],
      "name": "putMintingFee",
      "outputs": [],
      "stateMutability": "nonpayable",
      "type": "function"
    },
    {
      "inputs": [
        {
          "internalType": "address",
          "name": "presaleMaker",
          "type": "address"
        }
      ],
      "name": "putPresaleMaker",
      "outputs": [],
      "stateMutability": "nonpayable",
      "type": "function"
    },
    {
      "inputs": [
        {
          "internalType": "address",
          "name": "token",
          "type": "address"
        },
        {
          "internalType": "uint24",
          "name": "_tradeFee",
          "type": "uint24"
        }
      ],
      "name": "putTradeFeeForToken",
      "outputs": [],
      "stateMutability": "nonpayable",
      "type": "function"
    },
    {
      "inputs": [
        {
          "internalType": "address",
          "name": "target",
          "type": "address"
        }
      ],
      "name": "putTransferBlacklist",
      "outputs": [],
      "stateMutability": "nonpayable",
      "type": "function"
    },
    {
      "inputs": [
        {
          "internalType": "address",
          "name": "presaleMaker",
          "type": "address"
        }
      ],
      "name": "removePresaleMaker",
      "outputs": [],
      "stateMutability": "nonpayable",
      "type": "function"
    },
    {
      "inputs": [
        {
          "internalType": "address",
          "name": "target",
          "type": "address"
        }
      ],
      "name": "removeTransferBlacklist",
      "outputs": [],
      "stateMutability": "nonpayable",
      "type": "function"
    },
    {
      "inputs": [],
      "name": "renounceOwnership",
      "outputs": [],
      "stateMutability": "nonpayable",
      "type": "function"
    },
    {
      "inputs": [
        {
          "internalType": "address",
          "name": "",
          "type": "address"
        }
      ],
      "name": "tradeFee",
      "outputs": [
        {
          "internalType": "uint24",
          "name": "",
          "type": "uint24"
        }
      ],
      "stateMutability": "view",
      "type": "function"
    },
    {
      "inputs": [
        {
          "internalType": "address",
          "name": "",
          "type": "address"
        }
      ],
      "name": "transferBlacklist",
      "outputs": [
        {
          "internalType": "bool",
          "name": "",
          "type": "bool"
        }
      ],
      "stateMutability": "view",
      "type": "function"
    },
    {
      "inputs": [
        {
          "internalType": "address",
          "name": "newOwner",
          "type": "address"
        }
      ],
      "name": "transferOwnership",
      "outputs": [],
      "stateMutability": "nonpayable",
      "type": "function"
    },
    {
      "inputs": [
        {
          "internalType": "address",
          "name": "pool",
          "type": "address"
        }
      ],
      "name": "unpause",
      "outputs": [],
      "stateMutability": "nonpayable",
      "type": "function"
    },
    {
      "inputs": [],
      "name": "unpauseAll",
      "outputs": [],
      "stateMutability": "nonpayable",
      "type": "function"
    }
  ],
  "transactionHash": "0x89e60cee004881b8f29e3d523060178390e098ac64b73955a64a9e4adff7a4ff",
  "args": [
    "0x86d36bd2EEfB7974B9D0720Af3418FC7Ca5C8897"
  ],
  "numDeployments": 5,
  "solcInputHash": "0d11bebfbb625c4e68d06a3bb6a21129",
  "bytecode": "0x6080346100f557601f6116e038819003918201601f19168301916001600160401b038311848410176100fa578084926020946040528339810103126100f557516001600160a01b039081811681036100f5576000543360018060a01b0319821617600055604051923391167f8be0079c531659141344cd1fd0a4f28419497f9722a3daafe3b4186f6b6457e0600080a36301e133806008908155600980546000600b55600c805462ffffff1990811661271017909155600e8054909116620c3500179055610100600160c01b0319169290911b610100600160a81b03169190911761027160ac1b1790556115cf90816101118239f35b600080fd5b634e487b7160e01b600052604160045260246000fdfe608060408181526004918236101561001657600080fd5b600092833560e01c91826303af1193146112b657508163054e426b146107725781630fdbb1c11461127357816318fc742e146111d65781632c45d67c146111195781632ca1b21b146110db5781632cb7e70014610fde5781632fa3c4bf14610f0d578163321d0c1914610d8657816335df82dc14610ca35781633b8f9be714610c7f578163478222c2146104f057816350b492ba14610c3e5781635123802414610c1f57816357b001f914610bdf578163595c6a6714610bb657816359d9963a14610b075781635a64ad9514610ae85781635b14f18314610a96578163602e3e3314610a585781636614b24e146106b55781636991836114610a125781636ba6a65d146109c45781636c9bc73214610986578163715018a61461092c57816376a67a51146108e9578163819afdb4146108ac57816382500538146106f35781638a2ddd03146108835781638da5cb5b1461085b5781638dfdb4541461081d578163908f543c14610796578163a0e6adf114610772578163a3d4597f14610731578163b5f903d5146106f3578163bbd91980146106b5578163d455863b14610691578163d6dc4b7b14610625578163dfa59016146105e7578163e1764f5214610546578163e61c13801461051d578163ec0f7cf0146104f0578163ecbb1ac0146104be578163ecf863041461047e578163f2fde38b146103bb578163f314fe0a146102de57508063f56681bf146102a5578063faba50cc146102825763fea611f91461024057600080fd5b3461027e57602036600319011261027e576102596112da565b61026161137c565b6001600160a01b0316825260016020528120805460ff1916905580f35b5080fd5b503461027e578160031936011261027e5760209062ffffff600e54169051908152f35b503461027e578060031936011261027e5760209062ffffff6102d66102c86112da565b6102d06112f5565b906114d6565b915191168152f35b919050346103b75760203660031901126103b7576102fa6112da565b61030261137c565b6001600160a01b031680845260026020528184205490929060ff16156103625750600780546001600160a01b03191683179055519081527f233893de19deb83a744e3e0fc496e37bfd4cd5441fccab0b9f1e7c35b06a58d390602090a180f35b6020608492519162461bcd60e51b8352820152602a60248201527f436f6e66696775726174696f6e3a206469737472696275746f72206e6f7420776044820152691a1a5d195b1a5cdd195960b21b6064820152fd5b8280fd5b9050346103b75760203660031901126103b7576103d66112da565b906103df61137c565b6001600160a01b0391821692831561042c57505082546001600160a01b0319811683178455167f8be0079c531659141344cd1fd0a4f28419497f9722a3daafe3b4186f6b6457e08380a380f35b906020608492519162461bcd60e51b8352820152602660248201527f4f776e61626c653a206e6577206f776e657220697320746865207a65726f206160448201526564647265737360d01b6064820152fd5b50503461027e57602036600319011261027e576104996112da565b6104a161137c565b6001600160a01b0316825260066020528120805460ff1916905580f35b50503461027e578060031936011261027e5760209062ffffff6102d66104e26112da565b6104ea6112f5565b90611476565b50503461027e578160031936011261027e57600954905160089190911c6001600160a01b03168152602090f35b50503461027e578160031936011261027e5760075490516001600160a01b039091168152602090f35b83833461027e57602036600319011261027e576105616112da565b61056961137c565b6001600160a01b03168083526002602052908220805460ff1916600117905560035492680100000000000000008410156105d457506105b28360016105d194950160035561132f565b90919082549060031b9160018060a01b03809116831b921b1916179055565b80f35b634e487b7160e01b835260419052602482fd5b9050346103b75760203660031901126103b7576106026112da565b61060a61137c565b6001600160a01b031683526020528120805460ff1916905580f35b50503461027e57602036600319011261027e5760207f2b95282411b6ac4bc1841e547b62f65465d1d39bcb6f73ac0180bdd4d208d8b49162ffffff61066861131d565b61067061137c565b6106798161152e565b16908162ffffff19600c541617600c5551908152a180f35b50503461027e578160031936011261027e5760209062ffffff600e54169051908152f35b50503461027e57602036600319011261027e5760209160ff9082906001600160a01b036106e06112da565b1681526006855220541690519015158152f35b50503461027e57602036600319011261027e5760209160ff9082906001600160a01b0361071e6112da565b1681526002855220541690519015158152f35b9050346103b75760203660031901126103b75761074c6112da565b61075461137c565b6001600160a01b031683526020528120805460ff1916600117905580f35b50503461027e578160031936011261027e5760209060ff6009541690519015158152f35b50503461027e57602036600319011261027e5760207f85cded78206fef354e0933881037a37aaebc06618dd51078436aef103a764a49916107d561131d565b906107de61137c565b62ffffff8216916107f4620493e08411156113f9565b6009805462ffffff60a81b191660a89290921b62ffffff60a81b1691909117905551908152a180f35b50503461027e57602036600319011261027e5760209162ffffff9082906001600160a01b0361084a6112da565b168152600d85522054169051908152f35b50503461027e578160031936011261027e57905490516001600160a01b039091168152602090f35b83346108a957806003193601126108a95761089c61137c565b60ff196009541660095580f35b80fd5b9050346103b75760203660031901126103b75760209260ff918391906001600160a01b036108d86112da565b168252855220541690519015158152f35b50503461027e57602036600319011261027e576109046112da565b61090c61137c565b6001600160a01b0316825260056020528120805460ff1916600117905580f35b83346108a957806003193601126108a95761094561137c565b80546001600160a01b03198116825581906001600160a01b03167f8be0079c531659141344cd1fd0a4f28419497f9722a3daafe3b4186f6b6457e08280a380f35b50503461027e57602036600319011261027e5760209160ff9082906001600160a01b036109b16112da565b1681526005855220541690519015158152f35b9050346103b75760203660031901126103b7577f40ce1806b7877aabdb86bb0325ab70125fbbb1789f87486b4e9aa34051daa6d7916020913590610a0661137c565b8160085551908152a180f35b50503461027e57602036600319011261027e57610a2d6112da565b610a3561137c565b6001600160a01b0316825260016020819052908220805460ff1916909117905580f35b50503461027e57602036600319011261027e5760209162ffffff9082906001600160a01b03610a856112da565b168152600a85522054169051908152f35b50503461027e57602036600319011261027e5760209160ff9082906001600160a01b03610ac16112da565b16815260058552205416908115610adb575b519015158152f35b60095460ff169150610ad3565b50503461027e578160031936011261027e57602090600b549051908152f35b50503461027e578060031936011261027e577f538ba1be8aceb8c04d2bfbdad9793e1ba7c2aee9cc4478fbe2e90b7b7575911d90610b436112da565b610bb0610b4e61130b565b92610b5761137c565b62ffffff8416610b6c620493e08211156113f9565b6001600160a01b0393909316808752600a6020908152828820805462ffffff1916909517909455905190815262ffffff939093169183019190915281906040820190565b0390a180f35b83346108a957806003193601126108a957610bcf61137c565b600160ff19600954161760095580f35b50503461027e57602036600319011261027e57610bfa6112da565b610c0261137c565b6001600160a01b0316825260056020528120805460ff1916905580f35b50503461027e578160031936011261027e576020906008549051908152f35b9050346103b75760203660031901126103b75735916003548310156108a95750610c6960209261132f565b60018060a01b0391549060031b1c169051908152f35b50503461027e578160031936011261027e5760209062ffffff600c54169051908152f35b919050346103b75760203660031901126103b757610cbf6112da565b610cc761137c565b6001600160a01b038116928315610d2b575060098054610100600160a81b03191660089290921b610100600160a81b0316919091179055519081527fa30c0bdcbba01e7448180ae5a7a206f585543fc1be92e825bce878586dd0770f90602090a180f35b608490602084519162461bcd60e51b8352820152602f60248201527f436f6e66696775726174696f6e3a20666565207661756c742063616e6e6f742060448201526e6265207a65726f206164647265737360881b6064820152fd5b919050346103b757806003193601126103b757610da16112da565b91610daa6112f5565b9233855260209180835260ff848720541615610eca576001600160a01b039182169486908316815b60038054821015610ec6578590610de88361132f565b9054911b1c1687516307f43c1960e31b8152898682015287816044818860249689888401525af1918215610ebc57908792918692610e46575b505016835260068652868320805460ff19166001179055610e41906113d4565b610dd2565b9250929394505086903d8811610eb4575b601f8201601f191683019067ffffffffffffffff821184831017610ea35750828b9594939289928b5281010312610e9f5751908582168203610e9f57908590610e4138610e21565b8380fd5b634e487b7160e01b8c52604187528bfd5b3d9150610e57565b89513d87823e3d90fd5b8380f35b835162461bcd60e51b8152908101839052601860248201527f436f6e66696775726174696f6e3a20464f5242494444454e00000000000000006044820152606490fd5b919050346103b75760203660031901126103b75762ffffff610f2d61131d565b610f3561137c565b1691620f42408311610f7d5750816020917f03ff7d47fbc45b86f7b5826949b9f458079df75370d6e8b3514b73117843a2cd9362ffffff19600e541617600e5551908152a180f35b6020608492519162461bcd60e51b8352820152603660248201527f436f6e66696775726174696f6e3a206d617820747265617375727920726174656044820152751036bab9ba103132903632b9b9903a3430b71018b29b60511b6064820152fd5b9050346103b75760203660031901126103b757610ff96112da565b9061100261137c565b6001600160a01b039182168085526002602052928420805460ff19169055835b60038054808310156110d25785856110398561132f565b905490851b1c1614611055575050611050906113d4565b611022565b939450926000199291908381019081116110bf57906105b28661107a6110879461132f565b905490881b1c169161132f565b82549081156110ac5750019161109c8361132f565b9091825491841b1b191690555580f35b634e487b7160e01b865260319052602485fd5b634e487b7160e01b875260118352602487fd5b50505050505080f35b50503461027e57602036600319011261027e5760209160ff9082906001600160a01b036111066112da565b1681526001855220541690519015158152f35b919050346103b75760203660031901126103b75781359161113861137c565b683635c9adc5dea00000831161117a5750816020917f9a7c33ea6df1d6d7f2348eda287c9493ced6ba1e043a8e681f50075dc9cdd4ca93600b5551908152a180f35b6020608492519162461bcd60e51b8352820152603160248201527f436f6e66696775726174696f6e3a206d696e74696e6720666565206d7573742060448201527006265206c657373207468616e203130303607c1b6064820152fd5b50503461027e578060031936011261027e577f912324dfb2a51f0cb5c6948c9698589daf1a9f9b7f515d4c44691a8db6ef1336906112126112da565b610bb061121d61130b565b9261122661137c565b61122f8461152e565b6001600160a01b0392909216808652600d6020908152838720805462ffffff191662ffffff9690961695861790559251908152918201929092529081906040820190565b50503461027e57602036600319011261027e5761128e6112da565b61129661137c565b6001600160a01b0316825260066020528120805460ff1916600117905580f35b84903461027e578160031936011261027e5760209062ffffff60095460a81c168152f35b600435906001600160a01b03821682036112f057565b600080fd5b602435906001600160a01b03821682036112f057565b6024359062ffffff821682036112f057565b6004359062ffffff821682036112f057565b6003548110156113665760036000527fc2575a0e9e593c00f959f8c92f12db2869c3395a3b0502d05e2516446f71f85b0190600090565b634e487b7160e01b600052603260045260246000fd5b6000546001600160a01b0316330361139057565b606460405162461bcd60e51b815260206004820152602060248201527f4f776e61626c653a2063616c6c6572206973206e6f7420746865206f776e65726044820152fd5b60001981146113e35760010190565b634e487b7160e01b600052601160045260246000fd5b1561140057565b60405162461bcd60e51b815260206004820152604260248201527f436f6e66696775726174696f6e3a2064656661756c742064697374726962757460448201527f696f6e206665652072617465206d757374206265206c657373207468616e2033606482015261302560f01b608482015260a490fd5b60018060a01b03809116600052600a60205262ffffff90816040600020541692166000528060406000205416908215806114ce575b6114c15750808211156114bc575090565b905090565b91505060095460a81c1690565b5081156114ab565b60018060a01b03809116600052600d60205262ffffff9081604060002054169216600052806040600020541690821580611526575b61151c5750808211156114bc575090565b915050600c541690565b50811561150b565b62ffffff614e2091161161153e57565b60405162461bcd60e51b815260206004820152602d60248201527f436f6e66696775726174696f6e3a20747261646520666565206d75737420626560448201526c206c657373207468616e20312560981b6064820152608490fdfea264697066735822122030f11f2100d27f2b97641f7cb7f990d13cb39ccb0a47791647e569e27c10fcaa64736f6c63430008130033",
  "devdoc": {
    "kind": "dev",
    "methods": {
      "owner()": {
        "details": "Returns the address of the current owner."
      },
      "renounceOwnership()": {
        "details": "Leaves the contract without owner. It will not be possible to call `onlyOwner` functions. Can only be called by the current owner. NOTE: Renouncing ownership will leave the contract without an owner, thereby disabling any functionality that is only available to the owner."
      },
      "transferOwnership(address)": {
        "details": "Transfers ownership of the contract to a new account (`newOwner`). Can only be called by the current owner."
      }
    },
    "version": 1
  },
  "userdoc": {
    "kind": "user",
    "methods": {},
    "version": 1
  },
  "storageLayout": {
    "storage": [
      {
        "astId": 20984,
        "contract": "contracts/Configuration.sol:Configuration",
        "label": "_owner",
        "offset": 0,
        "slot": "0",
        "type": "t_address"
      },
      {
        "astId": 26096,
        "contract": "contracts/Configuration.sol:Configuration",
        "label": "paymentTokenWhitelist",
        "offset": 0,
        "slot": "1",
        "type": "t_mapping(t_address,t_bool)"
      },
      {
        "astId": 26100,
        "contract": "contracts/Configuration.sol:Configuration",
        "label": "distributorWhitelist",
        "offset": 0,
        "slot": "2",
        "type": "t_mapping(t_address,t_bool)"
      },
      {
        "astId": 26104,
        "contract": "contracts/Configuration.sol:Configuration",
        "label": "distributors",
        "offset": 0,
        "slot": "3",
        "type": "t_array(t_contract(IDistributor)27201)dyn_storage"
      },
      {
        "astId": 26108,
        "contract": "contracts/Configuration.sol:Configuration",
        "label": "presaleMakers",
        "offset": 0,
        "slot": "4",
        "type": "t_mapping(t_address,t_bool)"
      },
      {
        "astId": 26112,
        "contract": "contracts/Configuration.sol:Configuration",
        "label": "isPoolPaused",
        "offset": 0,
        "slot": "5",
        "type": "t_mapping(t_address,t_bool)"
      },
      {
        "astId": 26116,
        "contract": "contracts/Configuration.sol:Configuration",
        "label": "transferBlacklist",
        "offset": 0,
        "slot": "6",
        "type": "t_mapping(t_address,t_bool)"
      },
      {
        "astId": 26118,
        "contract": "contracts/Configuration.sol:Configuration",
        "label": "defaultDistributor",
        "offset": 0,
        "slot": "7",
        "type": "t_address"
      },
      {
        "astId": 26121,
        "contract": "contracts/Configuration.sol:Configuration",
        "label": "maxPresaleDuration",
        "offset": 0,
        "slot": "8",
        "type": "t_uint256"
      },
      {
        "astId": 26123,
        "contract": "contracts/Configuration.sol:Configuration",
        "label": "isAllPoolPaused",
        "offset": 0,
        "slot": "9",
        "type": "t_bool"
      },
      {
        "astId": 26125,
        "contract": "contracts/Configuration.sol:Configuration",
        "label": "feeVault",
        "offset": 1,
        "slot": "9",
        "type": "t_address"
      },
      {
        "astId": 26130,
        "contract": "contracts/Configuration.sol:Configuration",
        "label": "defaultDistributionFeeRate",
        "offset": 21,
        "slot": "9",
        "type": "t_uint24"
      },
      {
        "astId": 26134,
        "contract": "contracts/Configuration.sol:Configuration",
        "label": "distributionFeeRate",
        "offset": 0,
        "slot": "10",
        "type": "t_mapping(t_address,t_uint24)"
      },
      {
        "astId": 26137,
        "contract": "contracts/Configuration.sol:Configuration",
        "label": "mintingFee",
        "offset": 0,
        "slot": "11",
        "type": "t_uint256"
      },
      {
        "astId": 26142,
        "contract": "contracts/Configuration.sol:Configuration",
        "label": "defaultTradeFee",
        "offset": 0,
        "slot": "12",
        "type": "t_uint24"
      },
      {
        "astId": 26146,
        "contract": "contracts/Configuration.sol:Configuration",
        "label": "tradeFee",
        "offset": 0,
        "slot": "13",
        "type": "t_mapping(t_address,t_uint24)"
      },
      {
        "astId": 26149,
        "contract": "contracts/Configuration.sol:Configuration",
        "label": "maxTreasuryRate",
        "offset": 0,
        "slot": "14",
        "type": "t_uint24"
      }
    ],
    "types": {
      "t_address": {
        "encoding": "inplace",
        "label": "address",
        "numberOfBytes": "20"
      },
      "t_array(t_contract(IDistributor)27201)dyn_storage": {
        "base": "t_contract(IDistributor)27201",
        "encoding": "dynamic_array",
        "label": "contract IDistributor[]",
        "numberOfBytes": "32"
      },
      "t_bool": {
        "encoding": "inplace",
        "label": "bool",
        "numberOfBytes": "1"
      },
      "t_contract(IDistributor)27201": {
        "encoding": "inplace",
        "label": "contract IDistributor",
        "numberOfBytes": "20"
      },
      "t_mapping(t_address,t_bool)": {
        "encoding": "mapping",
        "key": "t_address",
        "label": "mapping(address => bool)",
        "numberOfBytes": "32",
        "value": "t_bool"
      },
      "t_mapping(t_address,t_uint24)": {
        "encoding": "mapping",
        "key": "t_address",
        "label": "mapping(address => uint24)",
        "numberOfBytes": "32",
        "value": "t_uint24"
      },
      "t_uint24": {
        "encoding": "inplace",
        "label": "uint24",
        "numberOfBytes": "3"
      },
      "t_uint256": {
        "encoding": "inplace",
        "label": "uint256",
        "numberOfBytes": "32"
      }
    }
  }
}