{
  "address": "0xc96BF5e6b2A2Db3dCd9F799103e4E393C04ba146",
  "abi": [
    {
      "inputs": [
        {
          "internalType": "address",
          "name": "_factory",
          "type": "address"
        },
        {
          "internalType": "address",
          "name": "_WETH9",
          "type": "address"
        },
        {
          "internalType": "address",
          "name": "_tokenDescriptor_",
          "type": "address"
        }
      ],
      "stateMutability": "nonpayable",
      "type": "constructor"
    },
    {
      "inputs": [],
      "name": "T",
      "type": "error"
    },
    {
      "anonymous": false,
      "inputs": [
        {
          "indexed": true,
          "internalType": "address",
          "name": "owner",
          "type": "address"
        },
        {
          "indexed": true,
          "internalType": "address",
          "name": "approved",
          "type": "address"
        },
        {
          "indexed": true,
          "internalType": "uint256",
          "name": "tokenId",
          "type": "uint256"
        }
      ],
      "name": "Approval",
      "type": "event"
    },
    {
      "anonymous": false,
      "inputs": [
        {
          "indexed": true,
          "internalType": "address",
          "name": "owner",
          "type": "address"
        },
        {
          "indexed": true,
          "internalType": "address",
          "name": "operator",
          "type": "address"
        },
        {
          "indexed": false,
          "internalType": "bool",
          "name": "approved",
          "type": "bool"
        }
      ],
      "name": "ApprovalForAll",
      "type": "event"
    },
    {
      "anonymous": false,
      "inputs": [
        {
          "indexed": true,
          "internalType": "uint256",
          "name": "tokenId",
          "type": "uint256"
        },
        {
          "indexed": false,
          "internalType": "address",
          "name": "recipient",
          "type": "address"
        },
        {
          "indexed": false,
          "internalType": "uint256",
          "name": "amount0",
          "type": "uint256"
        },
        {
          "indexed": false,
          "internalType": "uint256",
          "name": "amount1",
          "type": "uint256"
        }
      ],
      "name": "Collect",
      "type": "event"
    },
    {
      "anonymous": false,
      "inputs": [
        {
          "indexed": true,
          "internalType": "uint256",
          "name": "tokenId",
          "type": "uint256"
        },
        {
          "indexed": false,
          "internalType": "uint128",
          "name": "liquidity",
          "type": "uint128"
        },
        {
          "indexed": false,
          "internalType": "uint256",
          "name": "amount0",
          "type": "uint256"
        },
        {
          "indexed": false,
          "internalType": "uint256",
          "name": "amount1",
          "type": "uint256"
        }
      ],
      "name": "DecreaseLiquidity",
      "type": "event"
    },
    {
      "anonymous": false,
      "inputs": [
        {
          "indexed": true,
          "internalType": "uint256",
          "name": "tokenId",
          "type": "uint256"
        },
        {
          "indexed": false,
          "internalType": "uint128",
          "name": "liquidity",
          "type": "uint128"
        },
        {
          "indexed": false,
          "internalType": "uint256",
          "name": "amount0",
          "type": "uint256"
        },
        {
          "indexed": false,
          "internalType": "uint256",
          "name": "amount1",
          "type": "uint256"
        }
      ],
      "name": "IncreaseLiquidity",
      "type": "event"
    },
    {
      "anonymous": false,
      "inputs": [
        {
          "indexed": true,
          "internalType": "address",
          "name": "from",
          "type": "address"
        },
        {
          "indexed": true,
          "internalType": "address",
          "name": "to",
          "type": "address"
        },
        {
          "indexed": true,
          "internalType": "uint256",
          "name": "tokenId",
          "type": "uint256"
        }
      ],
      "name": "Transfer",
      "type": "event"
    },
    {
      "inputs": [],
      "name": "DOMAIN_SEPARATOR",
      "outputs": [
        {
          "internalType": "bytes32",
          "name": "",
          "type": "bytes32"
        }
      ],
      "stateMutability": "view",
      "type": "function"
    },
    {
      "inputs": [],
      "name": "PERMIT_TYPEHASH",
      "outputs": [
        {
          "internalType": "bytes32",
          "name": "",
          "type": "bytes32"
        }
      ],
      "stateMutability": "view",
      "type": "function"
    },
    {
      "inputs": [],
      "name": "WETH9",
      "outputs": [
        {
          "internalType": "address",
          "name": "",
          "type": "address"
        }
      ],
      "stateMutability": "view",
      "type": "function"
    },
    {
      "inputs": [
        {
          "internalType": "address",
          "name": "to",
          "type": "address"
        },
        {
          "internalType": "uint256",
          "name": "tokenId",
          "type": "uint256"
        }
      ],
      "name": "approve",
      "outputs": [],
      "stateMutability": "nonpayable",
      "type": "function"
    },
    {
      "inputs": [
        {
          "internalType": "address",
          "name": "owner",
          "type": "address"
        }
      ],
      "name": "balanceOf",
      "outputs": [
        {
          "internalType": "uint256",
          "name": "",
          "type": "uint256"
        }
      ],
      "stateMutability": "view",
      "type": "function"
    },
    {
      "inputs": [],
      "name": "baseURI",
      "outputs": [
        {
          "internalType": "string",
          "name": "",
          "type": "string"
        }
      ],
      "stateMutability": "pure",
      "type": "function"
    },
    {
      "inputs": [
        {
          "internalType": "uint256",
          "name": "tokenId",
          "type": "uint256"
        }
      ],
      "name": "burn",
      "outputs": [],
      "stateMutability": "payable",
      "type": "function"
    },
    {
      "inputs": [
        {
          "components": [
            {
              "internalType": "uint256",
              "name": "tokenId",
              "type": "uint256"
            },
            {
              "internalType": "address",
              "name": "recipient",
              "type": "address"
            },
            {
              "internalType": "uint128",
              "name": "amount0Max",
              "type": "uint128"
            },
            {
              "internalType": "uint128",
              "name": "amount1Max",
              "type": "uint128"
            }
          ],
          "internalType": "struct INonfungiblePositionManager.CollectParams",
          "name": "params",
          "type": "tuple"
        }
      ],
      "name": "collect",
      "outputs": [
        {
          "internalType": "uint256",
          "name": "amount0",
          "type": "uint256"
        },
        {
          "internalType": "uint256",
          "name": "amount1",
          "type": "uint256"
        }
      ],
      "stateMutability": "payable",
      "type": "function"
    },
    {
      "inputs": [
        {
          "internalType": "address",
          "name": "token0",
          "type": "address"
        },
        {
          "internalType": "address",
          "name": "token1",
          "type": "address"
        },
        {
          "internalType": "uint24",
          "name": "fee",
          "type": "uint24"
        },
        {
          "internalType": "uint160",
          "name": "sqrtPriceX96",
          "type": "uint160"
        }
      ],
      "name": "createAndInitializePoolIfNecessary",
      "outputs": [
        {
          "internalType": "address",
          "name": "pool",
          "type": "address"
        }
      ],
      "stateMutability": "payable",
      "type": "function"
    },
    {
      "inputs": [
        {
          "components": [
            {
              "internalType": "uint256",
              "name": "tokenId",
              "type": "uint256"
            },
            {
              "internalType": "uint128",
              "name": "liquidity",
              "type": "uint128"
            },
            {
              "internalType": "uint256",
              "name": "amount0Min",
              "type": "uint256"
            },
            {
              "internalType": "uint256",
              "name": "amount1Min",
              "type": "uint256"
            },
            {
              "internalType": "uint256",
              "name": "deadline",
              "type": "uint256"
            }
          ],
          "internalType": "struct INonfungiblePositionManager.DecreaseLiquidityParams",
          "name": "params",
          "type": "tuple"
        }
      ],
      "name": "decreaseLiquidity",
      "outputs": [
        {
          "internalType": "uint256",
          "name": "amount0",
          "type": "uint256"
        },
        {
          "internalType": "uint256",
          "name": "amount1",
          "type": "uint256"
        }
      ],
      "stateMutability": "payable",
      "type": "function"
    },
    {
      "inputs": [],
      "name": "factory",
      "outputs": [
        {
          "internalType": "address",
          "name": "",
          "type": "address"
        }
      ],
      "stateMutability": "view",
      "type": "function"
    },
    {
      "inputs": [
        {
          "internalType": "uint256",
          "name": "tokenId",
          "type": "uint256"
        }
      ],
      "name": "getApproved",
      "outputs": [
        {
          "internalType": "address",
          "name": "",
          "type": "address"
        }
      ],
      "stateMutability": "view",
      "type": "function"
    },
    {
      "inputs": [
        {
          "components": [
            {
              "internalType": "uint256",
              "name": "tokenId",
              "type": "uint256"
            },
            {
              "internalType": "uint256",
              "name": "amount0Desired",
              "type": "uint256"
            },
            {
              "internalType": "uint256",
              "name": "amount1Desired",
              "type": "uint256"
            },
            {
              "internalType": "uint256",
              "name": "amount0Min",
              "type": "uint256"
            },
            {
              "internalType": "uint256",
              "name": "amount1Min",
              "type": "uint256"
            },
            {
              "internalType": "uint256",
              "name": "deadline",
              "type": "uint256"
            }
          ],
          "internalType": "struct INonfungiblePositionManager.IncreaseLiquidityParams",
          "name": "params",
          "type": "tuple"
        }
      ],
      "name": "increaseLiquidity",
      "outputs": [
        {
          "internalType": "uint128",
          "name": "liquidity",
          "type": "uint128"
        },
        {
          "internalType": "uint256",
          "name": "amount0",
          "type": "uint256"
        },
        {
          "internalType": "uint256",
          "name": "amount1",
          "type": "uint256"
        }
      ],
      "stateMutability": "payable",
      "type": "function"
    },
    {
      "inputs": [
        {
          "internalType": "address",
          "name": "owner",
          "type": "address"
        },
        {
          "internalType": "address",
          "name": "operator",
          "type": "address"
        }
      ],
      "name": "isApprovedForAll",
      "outputs": [
        {
          "internalType": "bool",
          "name": "",
          "type": "bool"
        }
      ],
      "stateMutability": "view",
      "type": "function"
    },
    {
      "inputs": [
        {
          "components": [
            {
              "internalType": "address",
              "name": "token0",
              "type": "address"
            },
            {
              "internalType": "address",
              "name": "token1",
              "type": "address"
            },
            {
              "internalType": "uint24",
              "name": "fee",
              "type": "uint24"
            },
            {
              "internalType": "int24",
              "name": "tickLower",
              "type": "int24"
            },
            {
              "internalType": "int24",
              "name": "tickUpper",
              "type": "int24"
            },
            {
              "internalType": "uint256",
              "name": "amount0Desired",
              "type": "uint256"
            },
            {
              "internalType": "uint256",
              "name": "amount1Desired",
              "type": "uint256"
            },
            {
              "internalType": "uint256",
              "name": "amount0Min",
              "type": "uint256"
            },
            {
              "internalType": "uint256",
              "name": "amount1Min",
              "type": "uint256"
            },
            {
              "internalType": "address",
              "name": "recipient",
              "type": "address"
            },
            {
              "internalType": "uint256",
              "name": "deadline",
              "type": "uint256"
            }
          ],
          "internalType": "struct INonfungiblePositionManager.MintParams",
          "name": "params",
          "type": "tuple"
        }
      ],
      "name": "mint",
      "outputs": [
        {
          "internalType": "uint256",
          "name": "tokenId",
          "type": "uint256"
        },
        {
          "internalType": "uint128",
          "name": "liquidity",
          "type": "uint128"
        },
        {
          "internalType": "uint256",
          "name": "amount0",
          "type": "uint256"
        },
        {
          "internalType": "uint256",
          "name": "amount1",
          "type": "uint256"
        }
      ],
      "stateMutability": "payable",
      "type": "function"
    },
    {
      "inputs": [
        {
          "internalType": "bytes[]",
          "name": "data",
          "type": "bytes[]"
        }
      ],
      "name": "multicall",
      "outputs": [
        {
          "internalType": "bytes[]",
          "name": "results",
          "type": "bytes[]"
        }
      ],
      "stateMutability": "payable",
      "type": "function"
    },
    {
      "inputs": [],
      "name": "name",
      "outputs": [
        {
          "internalType": "string",
          "name": "",
          "type": "string"
        }
      ],
      "stateMutability": "view",
      "type": "function"
    },
    {
      "inputs": [
        {
          "internalType": "uint256",
          "name": "tokenId",
          "type": "uint256"
        }
      ],
      "name": "ownerOf",
      "outputs": [
        {
          "internalType": "address",
          "name": "",
          "type": "address"
        }
      ],
      "stateMutability": "view",
      "type": "function"
    },
    {
      "inputs": [
        {
          "internalType": "address",
          "name": "spender",
          "type": "address"
        },
        {
          "internalType": "uint256",
          "name": "tokenId",
          "type": "uint256"
        },
        {
          "internalType": "uint256",
          "name": "deadline",
          "type": "uint256"
        },
        {
          "internalType": "uint8",
          "name": "v",
          "type": "uint8"
        },
        {
          "internalType": "bytes32",
          "name": "r",
          "type": "bytes32"
        },
        {
          "internalType": "bytes32",
          "name": "s",
          "type": "bytes32"
        }
      ],
      "name": "permit",
      "outputs": [],
      "stateMutability": "payable",
      "type": "function"
    },
    {
      "inputs": [
        {
          "internalType": "uint256",
          "name": "tokenId",
          "type": "uint256"
        }
      ],
      "name": "positions",
      "outputs": [
        {
          "internalType": "uint96",
          "name": "nonce",
          "type": "uint96"
        },
        {
          "internalType": "address",
          "name": "operator",
          "type": "address"
        },
        {
          "internalType": "address",
          "name": "token0",
          "type": "address"
        },
        {
          "internalType": "address",
          "name": "token1",
          "type": "address"
        },
        {
          "internalType": "uint24",
          "name": "fee",
          "type": "uint24"
        },
        {
          "internalType": "int24",
          "name": "tickLower",
          "type": "int24"
        },
        {
          "internalType": "int24",
          "name": "tickUpper",
          "type": "int24"
        },
        {
          "internalType": "uint128",
          "name": "liquidity",
          "type": "uint128"
        },
        {
          "internalType": "uint256",
          "name": "feeGrowthInside0LastX128",
          "type": "uint256"
        },
        {
          "internalType": "uint256",
          "name": "feeGrowthInside1LastX128",
          "type": "uint256"
        },
        {
          "internalType": "uint128",
          "name": "tokensOwed0",
          "type": "uint128"
        },
        {
          "internalType": "uint128",
          "name": "tokensOwed1",
          "type": "uint128"
        }
      ],
      "stateMutability": "view",
      "type": "function"
    },
    {
      "inputs": [],
      "name": "refundETH",
      "outputs": [],
      "stateMutability": "payable",
      "type": "function"
    },
    {
      "inputs": [
        {
          "internalType": "address",
          "name": "from",
          "type": "address"
        },
        {
          "internalType": "address",
          "name": "to",
          "type": "address"
        },
        {
          "internalType": "uint256",
          "name": "tokenId",
          "type": "uint256"
        }
      ],
      "name": "safeTransferFrom",
      "outputs": [],
      "stateMutability": "nonpayable",
      "type": "function"
    },
    {
      "inputs": [
        {
          "internalType": "address",
          "name": "from",
          "type": "address"
        },
        {
          "internalType": "address",
          "name": "to",
          "type": "address"
        },
        {
          "internalType": "uint256",
          "name": "tokenId",
          "type": "uint256"
        },
        {
          "internalType": "bytes",
          "name": "data",
          "type": "bytes"
        }
      ],
      "name": "safeTransferFrom",
      "outputs": [],
      "stateMutability": "nonpayable",
      "type": "function"
    },
    {
      "inputs": [
        {
          "internalType": "address",
          "name": "token",
          "type": "address"
        },
        {
          "internalType": "uint256",
          "name": "value",
          "type": "uint256"
        },
        {
          "internalType": "uint256",
          "name": "deadline",
          "type": "uint256"
        },
        {
          "internalType": "uint8",
          "name": "v",
          "type": "uint8"
        },
        {
          "internalType": "bytes32",
          "name": "r",
          "type": "bytes32"
        },
        {
          "internalType": "bytes32",
          "name": "s",
          "type": "bytes32"
        }
      ],
      "name": "selfPermit",
      "outputs": [],
      "stateMutability": "payable",
      "type": "function"
    },
    {
      "inputs": [
        {
          "internalType": "address",
          "name": "token",
          "type": "address"
        },
        {
          "internalType": "uint256",
          "name": "nonce",
          "type": "uint256"
        },
        {
          "internalType": "uint256",
          "name": "expiry",
          "type": "uint256"
        },
        {
          "internalType": "uint8",
          "name": "v",
          "type": "uint8"
        },
        {
          "internalType": "bytes32",
          "name": "r",
          "type": "bytes32"
        },
        {
          "internalType": "bytes32",
          "name": "s",
          "type": "bytes32"
        }
      ],
      "name": "selfPermitAllowed",
      "outputs": [],
      "stateMutability": "payable",
      "type": "function"
    },
    {
      "inputs": [
        {
          "internalType": "address",
          "name": "token",
          "type": "address"
        },
        {
          "internalType": "uint256",
          "name": "nonce",
          "type": "uint256"
        },
        {
          "internalType": "uint256",
          "name": "expiry",
          "type": "uint256"
        },
        {
          "internalType": "uint8",
          "name": "v",
          "type": "uint8"
        },
        {
          "internalType": "bytes32",
          "name": "r",
          "type": "bytes32"
        },
        {
          "internalType": "bytes32",
          "name": "s",
          "type": "bytes32"
        }
      ],
      "name": "selfPermitAllowedIfNecessary",
      "outputs": [],
      "stateMutability": "payable",
      "type": "function"
    },
    {
      "inputs": [
        {
          "internalType": "address",
          "name": "token",
          "type": "address"
        },
        {
          "internalType": "uint256",
          "name": "value",
          "type": "uint256"
        },
        {
          "internalType": "uint256",
          "name": "deadline",
          "type": "uint256"
        },
        {
          "internalType": "uint8",
          "name": "v",
          "type": "uint8"
        },
        {
          "internalType": "bytes32",
          "name": "r",
          "type": "bytes32"
        },
        {
          "internalType": "bytes32",
          "name": "s",
          "type": "bytes32"
        }
      ],
      "name": "selfPermitIfNecessary",
      "outputs": [],
      "stateMutability": "payable",
      "type": "function"
    },
    {
      "inputs": [
        {
          "internalType": "address",
          "name": "operator",
          "type": "address"
        },
        {
          "internalType": "bool",
          "name": "approved",
          "type": "bool"
        }
      ],
      "name": "setApprovalForAll",
      "outputs": [],
      "stateMutability": "nonpayable",
      "type": "function"
    },
    {
      "inputs": [
        {
          "internalType": "bytes4",
          "name": "interfaceId",
          "type": "bytes4"
        }
      ],
      "name": "supportsInterface",
      "outputs": [
        {
          "internalType": "bool",
          "name": "",
          "type": "bool"
        }
      ],
      "stateMutability": "view",
      "type": "function"
    },
    {
      "inputs": [
        {
          "internalType": "address",
          "name": "token",
          "type": "address"
        },
        {
          "internalType": "uint256",
          "name": "amountMinimum",
          "type": "uint256"
        },
        {
          "internalType": "address",
          "name": "recipient",
          "type": "address"
        }
      ],
      "name": "sweepToken",
      "outputs": [],
      "stateMutability": "payable",
      "type": "function"
    },
    {
      "inputs": [],
      "name": "symbol",
      "outputs": [
        {
          "internalType": "string",
          "name": "",
          "type": "string"
        }
      ],
      "stateMutability": "view",
      "type": "function"
    },
    {
      "inputs": [
        {
          "internalType": "uint256",
          "name": "index",
          "type": "uint256"
        }
      ],
      "name": "tokenByIndex",
      "outputs": [
        {
          "internalType": "uint256",
          "name": "",
          "type": "uint256"
        }
      ],
      "stateMutability": "view",
      "type": "function"
    },
    {
      "inputs": [
        {
          "internalType": "address",
          "name": "owner",
          "type": "address"
        },
        {
          "internalType": "uint256",
          "name": "index",
          "type": "uint256"
        }
      ],
      "name": "tokenOfOwnerByIndex",
      "outputs": [
        {
          "internalType": "uint256",
          "name": "",
          "type": "uint256"
        }
      ],
      "stateMutability": "view",
      "type": "function"
    },
    {
      "inputs": [
        {
          "internalType": "uint256",
          "name": "tokenId",
          "type": "uint256"
        }
      ],
      "name": "tokenURI",
      "outputs": [
        {
          "internalType": "string",
          "name": "",
          "type": "string"
        }
      ],
      "stateMutability": "view",
      "type": "function"
    },
    {
      "inputs": [],
      "name": "totalSupply",
      "outputs": [
        {
          "internalType": "uint256",
          "name": "",
          "type": "uint256"
        }
      ],
      "stateMutability": "view",
      "type": "function"
    },
    {
      "inputs": [
        {
          "internalType": "address",
          "name": "from",
          "type": "address"
        },
        {
          "internalType": "address",
          "name": "to",
          "type": "address"
        },
        {
          "internalType": "uint256",
          "name": "tokenId",
          "type": "uint256"
        }
      ],
      "name": "transferFrom",
      "outputs": [],
      "stateMutability": "nonpayable",
      "type": "function"
    },
    {
      "inputs": [
        {
          "internalType": "uint256",
          "name": "amount0Owed",
          "type": "uint256"
        },
        {
          "internalType": "uint256",
          "name": "amount1Owed",
          "type": "uint256"
        },
        {
          "internalType": "bytes",
          "name": "data",
          "type": "bytes"
        }
      ],
      "name": "uniswapV3MintCallback",
      "outputs": [],
      "stateMutability": "nonpayable",
      "type": "function"
    },
    {
      "inputs": [
        {
          "internalType": "uint256",
          "name": "amountMinimum",
          "type": "uint256"
        },
        {
          "internalType": "address",
          "name": "recipient",
          "type": "address"
        }
      ],
      "name": "unwrapWETH9",
      "outputs": [],
      "stateMutability": "payable",
      "type": "function"
    },
    {
      "stateMutability": "payable",
      "type": "receive"
    }
  ],
  "transactionHash": "0x061f30bf60862d767b3efc5079e1a0b1508fbc0871570c7ddf526e7bd9e5a583",
  "args": [
    "0x5374D29cD8bc5C51322cB5ba03E81f3E4594129a",
    "0x678c34581db0a7808d0aC669d7025f1408C9a3C6",
    "0x2Ab2cf2623208E303CaD5fd505c8a9eF59CbE6b6"
  ],
  "numDeployments": 4,
  "solcInputHash": "19b43c4e6177ca2384081d066ccae068",
  "bytecode": "0x610120346200042457601f1990601f6001600160401b03620050ec38819003838101861685019190838311868410176200040e578086926060946040528339810103126200042457620000528362000449565b916020916200007160406200006985880162000449565b960162000449565b956200007c62000429565b90601b8252848201927f556e697377617020563320506f736974696f6e73204e46542d563100000000008452620000b262000429565b94600a865269554e492d56332d504f5360b01b87870152620000d362000429565b9560019384885288880198603160f81b8a528651918583116200040e5760009283548881811c9116801562000403575b84821014620003ef57868111620003a7575b5080838782116001146200034457859162000338575b50600019600383901b1c191690881b1783555b8351958611620003245786548781811c9116801562000319575b83821014620003055790818688979695949311620002aa575b508194861160011462000246575050926200023a575b5050600019600383901b1c191690821b1790555b51902060805251902060a05260c05260e052760100000000000000000000000000000000000000000001600d55610100908152604051614c8d91826200045f8339608051826130d4015260a051826130fa015260c05182818161067c01528181610a2e01528181612127015281816122e00152613460015260e051828181611209015281816112f101528181613af40152613c05015251816121aa0152f35b01519050388062000187565b8783528183208897909594939116915b82821062000290575050841162000276575b505050811b0190556200019b565b015160001960f88460031b161c1916905538808062000268565b848401518655889790950194938401939081019062000256565b909192939495508784528284208680890160051c820192858a10620002fb575b9189988b929897969594930160051c01915b828110620002ec57505062000171565b8581558998508a9101620002dc565b92508192620002ca565b634e487b7160e01b84526022600452602484fd5b90607f169062000158565b634e487b7160e01b83526041600452602483fd5b9050890151386200012b565b838a931690868052858720918c8789915b8383106200038f57505050831162000375575b5050811b0183556200013e565b8b015160001960f88460031b161c19169055388062000368565b84015185558d96909401939283019201878e62000355565b8480528385208780840160051c820192868510620003e5575b0160051c019089905b828110620003d957505062000115565b868155018990620003c9565b92508192620003c0565b634e487b7160e01b85526022600452602485fd5b90607f169062000103565b634e487b7160e01b600052604160045260246000fd5b600080fd5b60408051919082016001600160401b038111838210176200040e57604052565b51906001600160a01b0382168203620004245756fe60806040526004361015610023575b361561001957600080fd5b610021613af2565b005b60003560e01c806301ffc9a71461028357806306fdde031461027e578063081812fc14610279578063095ea7b3146102745780630c49ccbe1461026f57806312210e8a1461026a57806313ead5621461026557806318160ddd14610260578063219f5d171461025b57806323b872dd146102565780632f745c591461025157806330adf81f1461024c5780633644e5151461024757806342842e0e1461024257806342966c681461023d5780634659a4941461023857806349404b7c146102335780634aa4a4fc1461022e5780634f6ccce7146102295780636352211e146102245780636c0360eb1461021f57806370a082311461021a5780637ac2ff7b14610215578063883164561461021057806395d89b411461020b57806399fbab8814610206578063a22cb46514610201578063a4a78f0c146101fc578063ac9650d8146101f7578063b88d4fde146101f2578063c2e3140a146101ed578063c45a0155146101e8578063c87b56dd146101e3578063d3487997146101de578063df2ab5bb146101d9578063e985e9c5146101d4578063f3995c67146101cf5763fc6f78650361000e57612473565b61245b565b6123f3565b61235b565b612214565b612156565b612111565b612098565b612008565b611dd7565b611cfa565b611c0a565b611ac2565b611968565b61167c565b61146c565b611445565b6113e9565b6113cb565b611320565b6112db565b6111d4565b6111bc565b61109c565b611074565b611051565b611016565b610f5f565b610f36565b610c84565b610c66565b610993565b610969565b6105b1565b6104d9565b610498565b61038e565b61029f565b6001600160e01b031981160361029a57565b600080fd5b3461029a57602036600319011261029a5760206004356102be81610288565b63ffffffff60e01b1663780e9d6360e01b81149081156102e4575b506040519015158152f35b6380ac58cd60e01b811491508115610316575b8115610305575b50386102d9565b6301ffc9a760e01b149050386102fe565b635b5e139f60e01b811491506102f7565b600091031261029a57565b60005b8381106103455750506000910152565b8181015183820152602001610335565b9060209161036e81518092818552858086019101610332565b601f01601f1916010190565b90602061038b928181520190610355565b90565b3461029a5760008060031936011261049557604051908080549060019180831c9280821692831561048b575b602092838610851461047757858852602088019490811561045657506001146103fe575b6103fa876103ee81890382611f92565b6040519182918261037a565b0390f35b6000805294509192917f290decd9548b62a8d60345a988386fc84ba6bc95484008f6362f93160ef3e5635b83861061044557505050910190506103ee826103fa38806103de565b805485870152948201948101610429565b60ff191685525050505090151560051b0190506103ee826103fa38806103de565b634e487b7160e01b82526022600452602482fd5b93607f16936103ba565b80fd5b3461029a57602036600319011261029a5760206104b660043561301c565b6040516001600160a01b039091168152f35b6001600160a01b0381160361029a57565b3461029a57604036600319011261029a576004356104f6816104c8565b60243561050281614283565b916001600160a01b038084169082168114610562576100219361052f913314908115610534575b506142e9565b6132cd565b6001600160a01b0316600090815260056020908152604080832033845290915290205460ff16905038610529565b60405162461bcd60e51b815260206004820152602160248201527f4552433732313a20617070726f76616c20746f2063757272656e74206f776e656044820152603960f91b6064820152608490fd5b60a036600319011261029a576004356105d26105cd8233614448565b612f32565b6105e06084354211156129ad565b6106ff6001600160801b036105ff816105f7612f6d565b161515612d5e565b61061383600052600c602052604060002090565b9260018401908154918260801c9561064361063b61062f612f6d565b6001600160801b031690565b881015612d5e565b6106ac6106a06106a061067a6106756001600160501b0389166001600160501b0316600052600b602052604060002090565b612971565b7f0000000000000000000000000000000000000000000000000000000000000000613f43565b6001600160a01b031690565b966106b5612f6d565b6040805163a34123a760e01b8152605088901c600290810b600483015260689890981c90970b60248801526001600160801b03909116604487015294968590889081906064820190565b038160008c5af1978815610917576000978899610928575b509060a061076f9493926044358a10158061091c575b61073690612fa7565b61074f85548060681c60020b9060501c60020b30614014565b908851808098819463514ea4bf60e01b8352600483019190602083019252565b03915afa8015610917576103fa9761085695610826948c8c8660009485976108b9575b5061081c6108469360036107c987958a6107c261062f610826986107bd60028f9e019d8e5490612dc3565b612deb565b9116612dd0565b946108076107eb60048301976107e689546001600160801b031690565b612dd0565b87546001600160801b0319166001600160801b03909116178755565b01976107c261062f8c6107bd8d8d5490612dc3565b825460801c612dd0565b81546001600160801b031660809190911b6001600160801b031916179055565b5555610850612f6d565b90612fea565b7f26f6a048ee9138f2c0ce266f322cb99228e8d619ae2bff30c67f8dcf9d2377b484610880612f6d565b84516001600160801b03919091168152602081019190915260408101879052606090a25191825260208201929092529081906040820190565b61082691975061062f95506108469360036107c96107c297958a6108f661081c9660a03d8111610910575b6108ee8183611f92565b810190612a87565b50509b91509b8c9b9e985050505095975050509350610792565b503d6108e4565b612ac6565b506064358b101561072d565b61076f94939291995060a0985061095490873d8911610962575b61094c8183611f92565b810190612f91565b989098999192939450610717565b503d610942565b600036600319011261029a574761097c57005b61002147336141ba565b62ffffff81160361029a57565b608036600319011261029a57600480356109ac816104c8565b6024356109b8816104c8565b604435926109c584610986565b606435936109d2856104c8565b6001600160a01b039060006109ec85841687851610612d5e565b60408051630b4c774160e11b81526001600160a01b03808916878301908152908816602082015262ffffff8516818401529097919691908890606001039288867f0000000000000000000000000000000000000000000000000000000000000000169460209a8b9181885afa9182156109175791610c49575b508086169081610b74575050865163a167129560e01b81526001600160a01b0391821687820190815291909216602082015262ffffff909316604084015291869183918290600090829060600103925af194851561091757600095610b45575b5050831693843b1561029a57825163f637731d60e01b81526001600160a01b039091169181019182529360009185919082908490829060200103925af1928315610917576103fa93610b2c575b505b516001600160a01b0390911681529081906020820190565b80610b39610b3f92611ef3565b80610327565b38610b12565b610b65929550803d10610b6d575b610b5d8183611f92565b810190613d21565b923880610ac5565b503d610b53565b9850989493505050508351633850c7bd60e01b815260e08185818a5afa90811561091757600091610c15575b501615610bb4575b50506103fa9250610b14565b843b1561029a57825163f637731d60e01b81526001600160a01b039091169181019182529360009185919082908490829060200103925af1928315610917576103fa93610c02575b80610ba8565b80610b39610c0f92611ef3565b38610bfc565b610c36915060e03d8111610c42575b610c2e8183611f92565b810190613344565b50505050505038610ba0565b503d610c24565b610c609150893d8b11610b6d57610b5d8183611f92565b38610a65565b3461029a57600036600319011261029a576020600854604051908152f35b60c036600319011261029a57610c9e60a4354211156129ad565b600435610cb581600052600c602052604060002090565b610dd86001820191610d958354610d6e610cee6106756001600160501b0384166001600160501b0316600052600b602052604060002090565b805160208201516040909201516001600160a01b039182169492610d4e921690610d429062ffffff1691610d32610d23611fb3565b6001600160a01b039098168852565b6001600160a01b03166020870152565b62ffffff166040850152565b306060840152605081901c60020b608084015260681c60020b60a0830152565b60243560c082015260443560e08201526064356101008201526084356101208201526133ec565b91969295909360a0825493610db78560681c60020b8660501c60020b30614014565b9060405180809a819463514ea4bf60e01b8352600483019190602083019252565b0391600180861b03165afa908115610917576103fa96610e7a946000918294610ee3575b50610e696003610e2261062f6002870194610e18865488612dc3565b9060801c90612deb565b94610e3f6107eb60048301976107e689546001600160801b031690565b019361082661081c61062f610e5588548a612dc3565b610e6361062f8c5460801c90565b90612deb565b5555610826866107e6835460801c90565b604080516001600160801b0386168152602081018790529081018390527f3067048beee31b25b2f1681f88dac838c8bba36af25bfb2b7cf7473a5847e35f90606090a2604051938493846040919493926001600160801b03606083019616825260208201520152565b909350610efe915060a03d8111610910576108ee8183611f92565b50509150909238610dfc565b606090600319011261029a57600435610f22816104c8565b90602435610f2f816104c8565b9060443590565b3461029a57610021610f4736610f0a565b91610f5a610f558433614448565b61435b565b614751565b3461029a57604036600319011261029a57600435610f7c816104c8565b60243590610f898161420c565b821015610fbd576001600160a01b031660009081526006602090815260408083209383529281529082902054915191825290f35b60405162461bcd60e51b815260206004820152602b60248201527f455243373231456e756d657261626c653a206f776e657220696e646578206f7560448201526a74206f6620626f756e647360a81b6064820152608490fd5b3461029a57600036600319011261029a5760206040517f49ecf333e5b8c95c40fdafc95c1ad136e8914a8fb55e9dc8bb01eaa83a2df9ad8152f35b3461029a57600036600319011261029a57602061106c6130a7565b604051908152f35b3461029a5761002161108536610f0a565b906040519261109384611f41565b600084526143bd565b602036600319011261029a576004356110b86105cd8233614448565b80600052600c6020526040600020600181015460801c159081611163575b81611153575b5015611120578061111b6110fd61002193600052600c602052604060002090565b60046000918281558260018201558260028201558260038201550155565b61463b565b60405162461bcd60e51b815260206004820152600b60248201526a139bdd0818db19585c995960aa1b6044820152606490fd5b60049150015460801c15386110dc565b60048101546001600160801b03161591506110d6565b60ff81160361029a57565b60c090600319011261029a5760043561119c816104c8565b9060243590604435906064356111b181611179565b906084359060a43590565b6100216111c836611184565b94939093929192613dac565b604036600319011261029a576024356111ec816104c8565b6040516370a0823160e01b81523060048201526001600160a01b037f00000000000000000000000000000000000000000000000000000000000000001691602082602481865afa918215610917576000926112ab575b50611251600435831015613b64565b8161125857005b823b1561029a57604051632e1a7d4d60e01b815260048101839052926000908490602490829084905af19283156109175761002193611298575b506141ba565b80610b396112a592611ef3565b38611292565b6112cd91925060203d81116112d4575b6112c58183611f92565b810190613b55565b9038611242565b503d6112bb565b3461029a57600036600319011261029a576040517f00000000000000000000000000000000000000000000000000000000000000006001600160a01b03168152602090f35b3461029a57602036600319011261029a576004356008548110156113715760086000527ff3f7a9fe364faab93b216da50a3214154f22a0a2b415b23a84c8169e8b636ee30154604051908152602090f35b60405162461bcd60e51b815260206004820152602c60248201527f455243373231456e756d657261626c653a20676c6f62616c20696e646578206f60448201526b7574206f6620626f756e647360a01b6064820152608490fd5b3461029a57602036600319011261029a5760206104b6600435614283565b3461029a57600036600319011261029a57604080519081602080825260605190818184015260005b8281106114305750506000828201840152601f01601f19168101030190f35b60808101518682018601528593508101611411565b3461029a57602036600319011261029a57602061106c600435611467816104c8565b61420c565b61147536611184565b6114848493969442111561314d565b61148c6130a7565b6114958661328d565b9061153561154160405193846114f86020998a8301938d8d869094939260809260a08301967f49ecf333e5b8c95c40fdafc95c1ad136e8914a8fb55e9dc8bb01eaa83a2df9ad845260018060a01b03166020840152604083015260608201520152565b039461150c601f1996878101835282611f92565b5190206040519283918983019586909160429261190160f01b8352600283015260228201520190565b03848101835282611f92565b5190209261154e87614283565b6001600160a01b0380821699916115698983168c141561318a565b3b1561162957508593926115d099926115a76115b39360405196879389850191604193918352602083015260ff60f81b9060f81b1660408201520190565b03908101845283611f92565b6040518080998194630b135d3f60e11b9788845260048401613276565b03915afa8015610917576100219561052f936000926115fc575b50506001600160e01b03191614613226565b61161b9250803d10611622575b6116138183611f92565b810190613261565b38806115ea565b503d611609565b6040805196875260ff92909216602087015290850191909152606084019290925250600080805290929160809060015afa15610917576100219361052f91600051166116768115156131e6565b14613226565b61016036600319011261029a57611698610144354211156129ad565b6116a06129ef565b6116a86129fb565b906117046116b4612a14565b926116fa6116c0612a2b565b6116d76116cb612a37565b93610d32610d23611fb3565b6116ea6040968787019062ffffff169052565b30606086015260020b6080850152565b60020b60a0830152565b60a43560c082015260c43560e08201526117d461010060e435818401526117356101209361010435858201526133ec565b61174497929397949194612a07565b600d54909790611791906001600160b01b031661178061176382612a59565b60018060b01b03166001600160501b0360b01b600d541617600d55565b6001600160b01b031698899061450c565b60a06117ad61179e612a2b565b6117a6612a37565b9030614014565b92600180831b03169285518099819263514ea4bf60e01b8352600483019190602083019252565b0381855afa9081156109175760006118c994869482946103fa9b8e85918293611937575b506118906118436118a093949561180d6129ef565b9061183e8d61181a6129fb565b90611832611826612a14565b92610d32610d23611fd3565b84019062ffffff169052565b612c4b565b61188661184e612a2b565b61187c611859612a37565b93611862611fb3565b9e8f8d81528d602082015201906001600160501b03169052565b60020b60608d0152565b60020b60808b0152565b6001600160801b031660a0890152565b60c087015260e08601528401528201526118c487600052600c602052604060002090565b612ad2565b80516001600160801b0387168152602081018390526040810184905285907f3067048beee31b25b2f1681f88dac838c8bba36af25bfb2b7cf7473a5847e35f90606090a25194859485909493926001600160801b036060936080840197845216602083015260408201520152565b61184393506118a0925061195b6118909160a03d8111610910576108ee8183611f92565b50509591509350506117f8565b3461029a57600080600319360112610495576040519080600190815480831c92808216928315611a1f575b602092838610851461047757858852602088019490811561045657506001146119c6576103fa876103ee81890382611f92565b600160005294509192917fb10e2d527612073b26eecdfd717e6a320cf44b4afac2b0732d9fcbe2b7fa0cf65b838610611a0e57505050910190506103ee826103fa38806103de565b8054858701529482019481016119f2565b93607f1693611993565b6001600160601b0390911681526001600160a01b0391821660208201529181166040830152909116606082015262ffffff9091166080820152600291820b60a082015291900b60c082015261018081019695949093909290916001600160801b031660e08501526101008401526101208301526001600160801b031661014082015261016001611ac0916001600160801b03169052565b565b3461029a57602036600319011261029a57611af1611aec600435600052600c602052604060002090565b6128a0565b611b48610675611b2f60408401611b226001600160501b03611b1a83516001600160501b031690565b161515612932565b516001600160501b031690565b6001600160501b0316600052600b602052604060002090565b6103fa611b5c83516001600160601b031690565b60208401519092906001600160a01b031681519094906001600160a01b03166020830151909290611b9e906040906001600160a01b031692015162ffffff1690565b606083015160020b608084015160020b60a08501516001600160801b03169160c08601519360e087015195611bf3610120611be46101008b01516001600160801b031690565b9901516001600160801b031690565b986040519c8d9c8d611a29565b8015150361029a57565b3461029a57604036600319011261029a57600435611c27816104c8565b602435611c3381611c00565b6001600160a01b03821691338314611cb55781611c72611c839233600052600560205260406000209060018060a01b0316600052602052604060002090565b9060ff801983541691151516179055565b604051901515815233907f17307eab39ab6107e8899845ad3d59bd9653f200f220920489ca2b5937696c3190602090a3005b60405162461bcd60e51b815260206004820152601960248201527f4552433732313a20617070726f766520746f2063616c6c6572000000000000006044820152606490fd5b611d0336611184565b604051636eb1769f60e11b81523360048201523060248201529094919391906020816044816001600160a01b038b165afa90811561091757600091611d57575b5060001911611d4e57005b61002195613dac565b611d6f915060203d81116112d4576112c58183611f92565b38611d43565b602080820190808352835180925260408301928160408460051b8301019501936000915b848310611da95750505050505090565b9091929394958480611dc7600193603f198682030187528a51610355565b9801930193019194939290611d99565b602036600319011261029a57600480356001600160401b039182821161029a573660238301121561029a578181013592831161029a57602490818301928236918660051b01011161029a57611e2b846139eb565b9360005b818110611e4457604051806103fa8882611d75565b600080611e52838589613a5a565b60409391611e64855180938193613aa0565b0390305af490611e72613aae565b91829015611ea157505090611e9c91611e8b8289613ade565b52611e968188613ade565b50613a35565b611e2f565b86838792604482511061029a5782611ed99385611ec49401518301019101612d65565b925162461bcd60e51b8152928392830161037a565b0390fd5b634e487b7160e01b600052604160045260246000fd5b6001600160401b038111611f0657604052565b611edd565b606081019081106001600160401b03821117611f0657604052565b604081019081106001600160401b03821117611f0657604052565b602081019081106001600160401b03821117611f0657604052565b60a081019081106001600160401b03821117611f0657604052565b608081019081106001600160401b03821117611f0657604052565b90601f801991011681019081106001600160401b03821117611f0657604052565b6040519061014082018281106001600160401b03821117611f0657604052565b60405190611ac082611f0b565b60405190611ac082611f26565b6001600160401b038111611f0657601f01601f191660200190565b3461029a57608036600319011261029a57600435612025816104c8565b602435612031816104c8565b606435916001600160401b03831161029a573660238401121561029a5782600401359161205d83611fed565b9261206b6040519485611f92565b808452366024828701011161029a57602081600092602461002198018388013785010152604435916143bd565b6120a136611184565b604051636eb1769f60e11b81523360048201523060248201529094919391906020816044816001600160a01b038b165afa80156109175782916000916120f3575b50106120ea57005b61002195613d36565b61210b915060203d81116112d4576112c58183611f92565b386120e2565b3461029a57600036600319011261029a576040517f00000000000000000000000000000000000000000000000000000000000000006001600160a01b03168152602090f35b3461029a57602036600319011261029a576004356000818152600260205260409020546001600160a01b03161561029a5760405163e9dc637560e01b815230600482015260248101919091526000816044817f00000000000000000000000000000000000000000000000000000000000000006001600160a01b03165afa8015610917576103fa916000916121f3575b506040519182918261037a565b61220e913d8091833e6122068183611f92565b810190612d65565b386121e6565b3461029a57606036600319011261029a576004356024356044356001600160401b0380821161029a573660238301121561029a57816004013590811161029a57810136602482011161029a57819003926080841261029a5760606040519461227b86611f26565b1261029a5761230460846040519361229285611f0b565b60248101356122a0816104c8565b855260448101356122b0816104c8565b602086015260648101356122c381610986565b60408601528487520135926122d7846104c8565b602086019384527f0000000000000000000000000000000000000000000000000000000000000000613e1d565b5080612334575b508161231357005b9151602001519151610021926001600160a01b0390811691165b3391613bfb565b83515161235591906001600160a01b031683516001600160a01b031661232d565b3861230b565b606036600319011261029a57600435612373816104c8565b60443561237f816104c8565b6040516370a0823160e01b8152306004820152906020826024816001600160a01b0387165afa918215610917576000926123d3575b506123c3602435831015613ba5565b816123ca57005b61002192614108565b6123ec91925060203d81116112d4576112c58183611f92565b90386123b4565b3461029a57604036600319011261029a57602060ff61244f600435612417816104c8565b60243590612424826104c8565b60018060a01b03166000526005845260406000209060018060a01b0316600052602052604060002090565b54166040519015158152f35b61002161246736611184565b94939093929192613d36565b608036600319011261029a5760043561248f6105cd8233614448565b6001600160801b0390816124a1612f79565b1615801590612888575b6124b490612d5e565b6001600160a01b0390816124c66129fb565b1661287b57305b6124e182600052600c602052604060002090565b60018101938454936125186106a061067a6106756001600160501b0389166001600160501b0316600052600b602052604060002090565b60048401948554978989169860801c95899680998060801c61271c575b5050506125d996979850612547612f79565b868b16908b16111561270e5785925b61255e612f85565b8a8c16908c1611156126ff578980925b54604080516309e3d67b60e31b81526001600160a01b0387166004820152605083901c600290810b602483015260689390931c90920b60448301526001600160801b038088166064840152909216608482015298909687928a929091839160009190839060a4820190565b0393165af1978815610917578a96600098899a6126c0575b50916126746103fa9a9b6126a693612659612639856126338b7f40d0efd1a53d60ecbf40971b9daf7dc90178c3aadc7aab1765632738fa8b8f019c9b9a612fea565b94612fea565b82546001600160801b031660809190911b6001600160801b031916178255565b906001600160801b03166001600160801b0319825416179055565b86516001600160a01b0390931683526001600160801b0393841660208401529290921660408201529081906060820190565b0390a2519116815292909116602083015281906040820190565b85949395929a5085919950873d89116126f8575b6126de8183611f92565b81016126e991613003565b9990999a9250909293946125f1565b503d6126d4565b612707612f85565b809261256e565b612716612f79565b92612556565b6040805163a34123a760e01b8152605083901c600290810b600483015260689390931c90920b602483015260006044830152999a509298919750918487169181806064810103816000865af180156109175761285e575b506127b460a08954926127938460681c60020b8560501c60020b30614014565b90604051808095819463514ea4bf60e01b8352600483019190602083019252565b03915afa928315610917576000918294612837575b50600289019b8c546127db9084612dc3565b9360801c93846127ea91612deb565b6001600160801b03166127fc91612dd0565b9860030192835461280d9086612dc3565b9061281791612deb565b6001600160801b031661282991612dd0565b9a5555879695388080612535565b909350612852915060a03d8111610910576108ee8183611f92565b505091509092386127c9565b6128759060403d81116109625761094c8183611f92565b50612773565b6128836129fb565b6124cd565b506124b461289761062f612f85565b151590506124ab565b90611ac060046128ae611fb3565b84546001600160601b038116825260601c60208201529360018101546001600160501b038116604087015261290190605081901c60020b6060880152606881901c60020b608088015260801c60a0870152565b600281015460c0860152600381015460e086015201546001600160801b03811661010085015260801c610120840152565b1561293957565b60405162461bcd60e51b815260206004820152601060248201526f125b9d985b1a59081d1bdad95b88125160821b6044820152606490fd5b9060405161297e81611f0b565b82546001600160a01b039081168252600190930154928316602082015260a09290921c62ffffff166040830152565b156129b457565b60405162461bcd60e51b8152602060048201526013602482015272151c985b9cd858dd1a5bdb881d1bdbc81bdb19606a1b6044820152606490fd5b60043561038b816104c8565b60243561038b816104c8565b6101243561038b816104c8565b60443561038b81610986565b8060020b0361029a57565b60643561038b81612a20565b60843561038b81612a20565b634e487b7160e01b600052601160045260246000fd5b6001600160b01b03908116908114612a715760010190565b612a43565b6001600160801b0381160361029a57565b908160a091031261029a578051612a9d81612a76565b9160208201519160408101519160806060830151612aba81612a76565b92015161038b81612a76565b6040513d6000823e3d90fd5b906108266101206004611ac094612b0f612af386516001600160601b031690565b82546001600160601b0319166001600160601b03909116178255565b6020850151612b41906001600160a01b031682546001600160601b031660609190911b6001600160601b031916178255565b612bf360018201612b7e612b5f60408901516001600160501b031690565b825469ffffffffffffffffffff19166001600160501b03909116178255565b612baf612b8f606089015160020b90565b825460509190911b62ffffff60501b1662ffffff60501b19909116178255565b612be0612bc0608089015160020b90565b825460689190911b62ffffff60681b1662ffffff60681b19909116178255565b60a08701516001600160801b0316610826565b60c0850151600282015560e085015160038201550192612c3d612c216101008301516001600160801b031690565b85546001600160801b0319166001600160801b03909116178555565b01516001600160801b031690565b6001600160a01b039081166000818152600a60205260409020546001600160501b0390811694939192918515612c82575b50505050565b9091929450600d548060b01c928314612a71576001600160b01b0316600183810160b01b6001600160b01b03191691909117600d556000958652600a602052604095869020805469ffffffffffffffffffff19166001600160501b038516179055919491612d3790612cf387611b2f565b835181549087166001600160a01b03166001600160a01b03199091161781550193602083015116849060018060a01b03166001600160601b0360a01b825416179055565b0151815462ffffff60a01b191660a09190911b62ffffff60a01b1617905538808080612c7c565b1561029a57565b60208183031261029a578051906001600160401b03821161029a570181601f8201121561029a578051612d9781611fed565b92612da56040519485611f92565b8184526020828401011161029a5761038b9160208085019101610332565b91908203918211612a7157565b9190916001600160801b0380809416911601918211612a7157565b6000198282099082810292838084109303928084039314612e2757600160801b918383111561029a570990828211900360801b910360801c1790565b50505060801c90565b6000198282099082810292838084109303928084039314612e6c57600160601b918383111561029a570990828211900360a01b910360601c1790565b50505060601c90565b600160601b91600019838309928260601b92838086109503948086039514612ef457908291612ea5868411612d5e565b0981806000031680920460028082600302188083028203028083028203028083028203028083028203028083028203028092029003029360018380600003040190848311900302920304170290565b50509150612f03821515612d5e565b0490565b90916000198383099280830292838086109503948086039514612ef457908291612ea5868411612d5e565b15612f3957565b60405162461bcd60e51b815260206004820152600c60248201526b139bdd08185c1c1c9bdd995960a21b6044820152606490fd5b60243561038b81612a76565b60443561038b81612a76565b60643561038b81612a76565b919082604091031261029a576020825192015190565b15612fae57565b60405162461bcd60e51b8152602060048201526014602482015273507269636520736c69707061676520636865636b60601b6044820152606490fd5b6001600160801b039182169082160391908211612a7157565b919082604091031261029a5760208251612aba81612a76565b6000818152600260205260409020546001600160a01b03161561304d57600052600c60205260406000205460601c90565b60405162461bcd60e51b815260206004820152602c60248201527f4552433732313a20617070726f76656420717565727920666f72206e6f6e657860448201526b34b9ba32b73a103a37b5b2b760a11b6064820152608490fd5b60405160208101907f8b73c3c69bb8fe3d512ecc4cf759cc79239f7b179b0ffacaa9a75d522b39400f82527f000000000000000000000000000000000000000000000000000000000000000060408201527f000000000000000000000000000000000000000000000000000000000000000060608201524660808201523060a082015260a0815260c081018181106001600160401b03821117611f065760405251902090565b1561315457565b60405162461bcd60e51b815260206004820152600e60248201526d14195c9b5a5d08195e1c1a5c995960921b6044820152606490fd5b1561319157565b60405162461bcd60e51b815260206004820152602760248201527f4552433732315065726d69743a20617070726f76616c20746f2063757272656e6044820152663a1037bbb732b960c91b6064820152608490fd5b156131ed57565b60405162461bcd60e51b8152602060048201526011602482015270496e76616c6964207369676e617475726560781b6044820152606490fd5b1561322d57565b60405162461bcd60e51b815260206004820152600c60248201526b155b985d5d1a1bdc9a5e995960a21b6044820152606490fd5b9081602091031261029a575161038b81610288565b60409061038b939281528160208201520190610355565b600052600c60205260406000206001600160601b039081815416918214612a715780546001600160601b0319166001600160601b03600184011617905590565b6000828152600c6020526040902080546001600160601b0316606083901b6001600160601b0319161790556001600160a01b038061330a84614283565b169116907f8c5be1e5ebec7d5bd14f71427d1e84f3dd0314c0f7b2291e5b200ac8c7c3b925600080a4565b519061ffff8216820361029a57565b908160e091031261029a57805161335a816104c8565b91602082015161336981612a20565b9161337660408201613335565b9161338360608301613335565b9161339060808201613335565b9160c060a08301516133a181611179565b92015161038b81611c00565b919360a09361038b96956001600160801b0393600180881b0316855260020b602085015260020b60408401521660608201528160808201520190610355565b80519091906001600160a01b031660208301516001600160a01b03169161345760409361344c6134218688015162ffffff1690565b9161343c61342d611fd3565b6001600160a01b039097168752565b6001600160a01b03166020860152565b62ffffff1683850152565b6134846106a0837f0000000000000000000000000000000000000000000000000000000000000000613f43565b8351633850c7bd60e01b81526001600160a01b038216959192919060e0816004818a5afa948515610917576000978792899761361b575b5060808401966134fc6134d76134d28a5160020b90565b613664565b9160a08701926134eb6134d2855160020b90565b60c08901519160e08a015193613e3a565b998a986135b161358761359561353161352961352160608d015160018060a01b031690565b955160020b90565b965160020b90565b9761353a611fe0565b8181523360209182019081528b5183516001600160a01b03908116828501529284015183166040808301919091529093015162ffffff1660608401525116608082015291829060a0820190565b03601f198101835282611f92565b8751633c8a7d8d60e01b81529b8c9788968795600487016133ad565b03925af19384156109175760009586956135f4575b5050611ac0908486610100830151111591826135e4575b5050612fa7565b61012001511115905038806135dd565b611ac09650613610929550803d106109625761094c8183611f92565b9490949390386135c6565b61363491975060e03d8111610c4257610c2e8183611f92565b50505050505095386134bb565b801561364e576000190490565b634e487b7160e01b600052601260045260246000fd5b60020b60008112156139ce5780600003905b620d89e882116139bc5760018216156139aa576001600160881b036ffffcb933bd6fad37aa2d162d1a5940015b16916002811661398e575b60048116613972575b60088116613956575b6010811661393a575b6020811661391e575b60408116613902575b6080908181166138e7575b61010081166138cc575b61020081166138b1575b6104008116613896575b610800811661387b575b6110008116613860575b6120008116613845575b614000811661382a575b618000811661380f575b6201000081166137f4575b6202000081166137da575b6204000081166137c0575b62080000166137a5575b50600012613797575b63ffffffff811661378f576000905b60201c60ff91909116016001600160a01b031690565b600190613779565b6137a090613641565b61376a565b6b048a170391f7dc42444e8fa26000929302901c9190613761565b6d2216e584f5fa1ea926041bedfe98909302811c92613757565b926e5d6af8dedb81196699c329225ee60402811c9261374c565b926f09aa508b5b7a84e1c677de54f3e99bc902811c92613741565b926f31be135f97d08fd981231505542fcfa602811c92613736565b926f70d869a156d2a1b890bb3df62baf32f702811c9261372c565b926fa9f746462d870fdf8a65dc1f90e061e502811c92613722565b926fd097f3bdfd2022b8845ad8f792aa582502811c92613718565b926fe7159475a2c29b7443b29c7fa6e889d902811c9261370e565b926ff3392b0822b70005940c7a398e4b70f302811c92613704565b926ff987a7253ac413176f2b074cf7815e5402811c926136fa565b926ffcbe86c7900a88aedcffc83b479aa3a402811c926136f0565b926ffe5dee046a99a2a811c461f1969c305302811c926136e6565b916fff2ea16466c96a3843ec78b326b528610260801c916136db565b916fff973b41fa98c081472e6896dfb254c00260801c916136d2565b916fffcb9843d60f6159c9db58835c9266440260801c916136c9565b916fffe5caca7e10e4e61c3624eaa0941cd00260801c916136c0565b916ffff2e50f5f656932ef12357cf3c7fdcc0260801c916136b7565b916ffff97272373d413259a46990580e213a0260801c916136ae565b6001600160881b03600160801b6136a3565b6040516315e4079d60e11b8152600490fd5b80613676565b6001600160401b038111611f065760051b60200190565b906139f5826139d4565b613a026040519182611f92565b8281528092613a13601f19916139d4565b019060005b828110613a2457505050565b806060602080938501015201613a18565b6000198114612a715760010190565b634e487b7160e01b600052603260045260246000fd5b9190811015613a9b5760051b81013590601e198136030182121561029a5701908135916001600160401b03831161029a57602001823603811361029a579190565b613a44565b908092918237016000815290565b3d15613ad9573d90613abf82611fed565b91613acd6040519384611f92565b82523d6000602084013e565b606090565b8051821015613a9b5760209160051b010190565b7f00000000000000000000000000000000000000000000000000000000000000006001600160a01b03163303613b2457565b60405162461bcd60e51b81526020600482015260096024820152684e6f7420574554483960b81b6044820152606490fd5b9081602091031261029a575190565b15613b6b57565b60405162461bcd60e51b8152602060048201526012602482015271496e73756666696369656e7420574554483960701b6044820152606490fd5b15613bac57565b60405162461bcd60e51b815260206004820152601260248201527124b739bab33334b1b4b2b73a103a37b5b2b760711b6044820152606490fd5b9081602091031261029a575161038b81611c00565b6001600160a01b037f00000000000000000000000000000000000000000000000000000000000000008116949290828116861480613d17575b15613cf557505050823b1561029a57604051630d0e30db60e41b81529260008460048185855af192831561091757613ca794602094613ce2575b5060405163a9059cbb60e01b81526001600160a01b03909116600482015260248101929092529092839190829060009082906044820190565b03925af1801561091757613cb85750565b613cd89060203d8111613cdb575b613cd08183611f92565b810190613be6565b50565b503d613cc6565b80610b39613cef92611ef3565b38613c6e565b9194509192919081163003613d0e5750611ac092614108565b611ac093614051565b5083471015613c34565b9081602091031261029a575161038b816104c8565b92946001600160a01b0390931693919291843b1561029a5760009460e493869260ff604051998a98899763d505accf60e01b89523360048a01523060248a01526044890152606488015216608486015260a485015260c48401525af1801561091757613d9f5750565b80610b39611ac092611ef3565b92946001600160a01b0390931693919291843b1561029a5760009461010493869260ff604051998a9889976323f2ebc360e21b89523360048a01523060248a015260448901526064880152600160848801521660a486015260c485015260e48401525af1801561091757613d9f5750565b6001600160a01b0391613e2f91613f43565b169081330361029a57565b9093906001600160a01b0383811681871611613eb9575b818116908681168211613e6b575050505061038b92613ec1565b8492949593951611600014613ead578291613e8a91613e909594613ec1565b93613f16565b6001600160801b038181169083161015613ea8575090565b905090565b91505061038b92613f16565b949294613e51565b61038b92613ef79290916001600160a01b039081831682821611613efc575b613eee828416838316612e30565b92031691612f07565b613f02565b91613ee0565b906001600160801b03821691820361029a57565b61038b92613ef79290916001600160a01b039182811683831611613f3d575b031690612e75565b90613f35565b815160208301516001600160a01b03908116939291168381101561029a5760409283015183516001600160a01b0392831660208201908152959092169382019390935262ffffff909216606083015261038b926106a092613fa78160808101613587565b51902060405190602082019260ff60f81b84526001600160601b03199060601b16602183015260358201527fc253ff91edc1da07ea9b895658bc7aeeebb58a9add3f9ff4aa659c08ae8d281660558201526055815261400581611f77565b5190206001600160a01b031690565b916040519160208301936001600160601b03199060601b16845260e81b603483015260e81b6037820152601a815261404b81611f26565b51902090565b9091600080949381946040519160208301946323b872dd60e01b865260018060a01b03809216602485015216604483015260648201526064815261409481611f5c565b51925af16140a0613aae565b816140d9575b50156140ae57565b60405162461bcd60e51b815260206004820152600360248201526229aa2360e91b6044820152606490fd5b80518015925082156140ee575b5050386140a6565b6141019250602080918301019101613be6565b38806140e6565b60405163a9059cbb60e01b602082019081526001600160a01b039093166024820152604481019390935260009283929083906141478160648101613587565b51925af1614153613aae565b8161418b575b501561416157565b60405162461bcd60e51b815260206004820152600260248201526114d560f21b6044820152606490fd5b80518015925082156141a0575b505038614159565b6141b39250602080918301019101613be6565b3880614198565b60008080938193826040516141ce81611f41565b525af16141d9613aae565b50156141e157565b60405162461bcd60e51b815260206004820152600360248201526253544560e81b6044820152606490fd5b6001600160a01b0316801561422c57600052600360205260406000205490565b60405162461bcd60e51b815260206004820152602960248201527f4552433732313a2061646472657373207a65726f206973206e6f7420612076616044820152683634b21037bbb732b960b91b6064820152608490fd5b6000908152600260205260409020546001600160a01b031680156142a45790565b60405162461bcd60e51b815260206004820152601860248201527f4552433732313a20696e76616c696420746f6b656e20494400000000000000006044820152606490fd5b156142f057565b60405162461bcd60e51b815260206004820152603d60248201527f4552433732313a20617070726f76652063616c6c6572206973206e6f7420746f60448201527f6b656e206f776e6572206f7220617070726f76656420666f7220616c6c0000006064820152608490fd5b1561436257565b60405162461bcd60e51b815260206004820152602d60248201527f4552433732313a2063616c6c6572206973206e6f7420746f6b656e206f776e6560448201526c1c881bdc88185c1c1c9bdd9959609a1b6064820152608490fd5b906143e19392916143d1610f558433614448565b6143dc838383614751565b6148cb565b156143e857565b60405162461bcd60e51b815260206004820152603260248201527f4552433732313a207472616e7366657220746f206e6f6e20455243373231526560448201527131b2b4bb32b91034b6b83632b6b2b73a32b960711b6064820152608490fd5b6001600160a01b038061445a84614283565b169281831692848414948515614490575b5050831561447a575b50505090565b6144869192935061301c565b1614388080614474565b60009081526005602090815260408083206001600160a01b03949094168352929052205460ff169350388061446b565b156144c757565b60405162461bcd60e51b815260206004820152601c60248201527f4552433732313a20746f6b656e20616c7265616479206d696e746564000000006044820152606490fd5b6001600160a01b0381169081156145f7576000838152600260205260409020546145cf9190614547906001600160a01b031615155b156144c0565b61455084614a62565b61455a8482614a2a565b60008481526002602052604090205461457d906001600160a01b03161515614541565b6001600160a01b0381166000908152600360205260409020600181540190556145b0846000526002602052604060002090565b80546001600160a01b0319166001600160a01b03909216919091179055565b60007fddf252ad1be2c89b69c2b068fc378daa952ba7f163c4a11628f55a4df523b3ef8180a4565b606460405162461bcd60e51b815260206004820152602060248201527f4552433732313a206d696e7420746f20746865207a65726f20616464726573736044820152fd5b61464481614283565b6001600160a01b0390828183166146e95761465f9150614a62565b61466882614b79565b61467182614283565b600091838352600460205260408320916001600160601b0360a01b92838154169055169081835260036020526040832060001981540190556146bd846000526002602052604060002090565b9081541690557fddf252ad1be2c89b69c2b068fc378daa952ba7f163c4a11628f55a4df523b3ef8280a4565b6146f291614abf565b61465f565b156146fe57565b60405162461bcd60e51b815260206004820152602560248201527f4552433732313a207472616e736665722066726f6d20696e636f72726563742060448201526437bbb732b960d91b6064820152608490fd5b6147759061475e84614283565b6001600160a01b03828116939091821684146146f7565b8316928315614849576147e7826147908784614822966149c5565b6147a6856147a06106a08a614283565b146146f7565b6147cd6147bd886000526004602052604060002090565b80546001600160a01b0319169055565b6001600160a01b0316600090815260036020526040902090565b80546000190190556001600160a01b0381166000908152600360205260409020600181540190556145b0856000526002602052604060002090565b7fddf252ad1be2c89b69c2b068fc378daa952ba7f163c4a11628f55a4df523b3ef600080a4565b60405162461bcd60e51b8152602060048201526024808201527f4552433732313a207472616e7366657220746f20746865207a65726f206164646044820152637265737360e01b6064820152608490fd5b6001600160a01b03918216815291166020820152604081019190915260806060820181905261038b92910190610355565b92909190823b156149bc576148fe926020926000604051809681958294630a85bd0160e11b9a8b8552336004860161489a565b03926001600160a01b03165af16000918161499c575b5061498e57614921613aae565b805190816149895760405162461bcd60e51b815260206004820152603260248201527f4552433732313a207472616e7366657220746f206e6f6e20455243373231526560448201527131b2b4bb32b91034b6b83632b6b2b73a32b960711b6064820152608490fd5b602001fd5b6001600160e01b0319161490565b6149b591925060203d8111611622576116138183611f92565b9038614914565b50505050600190565b9091906001600160a01b038082169182614a0857506149e383614a62565b8316806149f6575050611ac09150614b79565b036149ff575050565b611ac091614a2a565b838286168403614a1a575b50506149e3565b614a2391614abf565b3883614a13565b604090614a368161420c565b9260009160018060a01b0316825260066020528282208483526020528083832055815260076020522055565b6008548160005260096020528060406000205568010000000000000000811015611f06576001810180600855811015613a9b5760086000527ff3f7a9fe364faab93b216da50a3214154f22a0a2b415b23a84c8169e8b636ee30155565b90614ac98261420c565b600019810191908211612a7157614b0992614b2491600094818692835260076020526040832054868103614b31575b506000526007602052604060002090565b556001600160a01b0316600090815260066020526040902090565b9082526020526040812055565b6001600160a01b0385168085526006602081815260408088208b8952825280882054600094855292825280842085895282528088208390559183526007905290205538614af8565b6008805460001992838201828111612a71576000928284526009602052806040852054921015613a9b578484527ff3f7a9fe364faab93b216da50a3214154f22a0a2b415b23a84c8169e8b636ee2928382015491831015613a9b578492614c15614c269388865280837ff3f7a9fe364faab93b216da50a3214154f22a0a2b415b23a84c8169e8b636ee301556000526009602052604060002090565b556000526009602052604060002090565b558254938415614c435784019380851015613a9b57838352015555565b634e487b7160e01b83526031600452602483fdfea2646970667358221220f0cdbe23346852599f329fee1a03c6496b9acf0b05fd38ca4e667e30ccf5898b64736f6c63430008130033",
  "devdoc": {
    "events": {
      "Approval(address,address,uint256)": {
        "details": "Emitted when `owner` enables `approved` to manage the `tokenId` token."
      },
      "ApprovalForAll(address,address,bool)": {
        "details": "Emitted when `owner` enables or disables (`approved`) `operator` to manage all of its assets."
      },
      "Collect(uint256,address,uint256,uint256)": {
        "details": "The amounts reported may not be exactly equivalent to the amounts transferred, due to rounding behavior",
        "params": {
          "amount0": "The amount of token0 owed to the position that was collected",
          "amount1": "The amount of token1 owed to the position that was collected",
          "recipient": "The address of the account that received the collected tokens",
          "tokenId": "The ID of the token for which underlying tokens were collected"
        }
      },
      "DecreaseLiquidity(uint256,uint128,uint256,uint256)": {
        "params": {
          "amount0": "The amount of token0 that was accounted for the decrease in liquidity",
          "amount1": "The amount of token1 that was accounted for the decrease in liquidity",
          "liquidity": "The amount by which liquidity for the NFT position was decreased",
          "tokenId": "The ID of the token for which liquidity was decreased"
        }
      },
      "IncreaseLiquidity(uint256,uint128,uint256,uint256)": {
        "details": "Also emitted when a token is minted",
        "params": {
          "amount0": "The amount of token0 that was paid for the increase in liquidity",
          "amount1": "The amount of token1 that was paid for the increase in liquidity",
          "liquidity": "The amount by which liquidity for the NFT position was increased",
          "tokenId": "The ID of the token for which liquidity was increased"
        }
      },
      "Transfer(address,address,uint256)": {
        "details": "Emitted when `tokenId` token is transferred from `from` to `to`."
      }
    },
    "kind": "dev",
    "methods": {
      "DOMAIN_SEPARATOR()": {
        "returns": {
          "_0": "The domain seperator used in encoding of permit signature"
        }
      },
      "approve(address,uint256)": {
        "details": "See {IERC721-approve}."
      },
      "balanceOf(address)": {
        "details": "See {IERC721-balanceOf}."
      },
      "burn(uint256)": {
        "params": {
          "tokenId": "The ID of the token that is being burned"
        }
      },
      "collect((uint256,address,uint128,uint128))": {
        "params": {
          "params": "tokenId The ID of the NFT for which tokens are being collected, recipient The account that should receive the tokens, amount0Max The maximum amount of token0 to collect, amount1Max The maximum amount of token1 to collect"
        },
        "returns": {
          "amount0": "The amount of fees collected in token0",
          "amount1": "The amount of fees collected in token1"
        }
      },
      "createAndInitializePoolIfNecessary(address,address,uint24,uint160)": {
        "details": "This method can be bundled with others via IMulticall for the first action (e.g. mint) performed against a pool",
        "params": {
          "fee": "The fee amount of the v3 pool for the specified token pair",
          "sqrtPriceX96": "The initial square root price of the pool as a Q64.96 value",
          "token0": "The contract address of token0 of the pool",
          "token1": "The contract address of token1 of the pool"
        },
        "returns": {
          "pool": "Returns the pool address based on the pair of tokens and fee, will return the newly created pool address if necessary"
        }
      },
      "decreaseLiquidity((uint256,uint128,uint256,uint256,uint256))": {
        "params": {
          "params": "tokenId The ID of the token for which liquidity is being decreased, amount The amount by which liquidity will be decreased, amount0Min The minimum amount of token0 that should be accounted for the burned liquidity, amount1Min The minimum amount of token1 that should be accounted for the burned liquidity, deadline The time by which the transaction must be included to effect the change"
        },
        "returns": {
          "amount0": "The amount of token0 accounted to the position's tokens owed",
          "amount1": "The amount of token1 accounted to the position's tokens owed"
        }
      },
      "getApproved(uint256)": {
        "details": "Returns the account approved for `tokenId` token. Requirements: - `tokenId` must exist."
      },
      "increaseLiquidity((uint256,uint256,uint256,uint256,uint256,uint256))": {
        "params": {
          "params": "tokenId The ID of the token for which liquidity is being increased, amount0Desired The desired amount of token0 to be spent, amount1Desired The desired amount of token1 to be spent, amount0Min The minimum amount of token0 to spend, which serves as a slippage check, amount1Min The minimum amount of token1 to spend, which serves as a slippage check, deadline The time by which the transaction must be included to effect the change"
        },
        "returns": {
          "amount0": "The amount of token0 to acheive resulting liquidity",
          "amount1": "The amount of token1 to acheive resulting liquidity",
          "liquidity": "The new liquidity amount as a result of the increase"
        }
      },
      "isApprovedForAll(address,address)": {
        "details": "See {IERC721-isApprovedForAll}."
      },
      "mint((address,address,uint24,int24,int24,uint256,uint256,uint256,uint256,address,uint256))": {
        "details": "Call this when the pool does exist and is initialized. Note that if the pool is created but not initialized a method does not exist, i.e. the pool is assumed to be initialized.",
        "params": {
          "params": "The params necessary to mint a position, encoded as `MintParams` in calldata"
        },
        "returns": {
          "amount0": "The amount of token0",
          "amount1": "The amount of token1",
          "liquidity": "The amount of liquidity for this position",
          "tokenId": "The ID of the token that represents the minted position"
        }
      },
      "multicall(bytes[])": {
        "details": "The `msg.value` should not be trusted for any method callable from multicall.",
        "params": {
          "data": "The encoded function data for each of the calls to make to this contract"
        },
        "returns": {
          "results": "The results from each of the calls passed in via data"
        }
      },
      "name()": {
        "details": "See {IERC721Metadata-name}."
      },
      "ownerOf(uint256)": {
        "details": "See {IERC721-ownerOf}."
      },
      "permit(address,uint256,uint256,uint8,bytes32,bytes32)": {
        "params": {
          "deadline": "The deadline timestamp by which the call must be mined for the approve to work",
          "r": "Must produce valid secp256k1 signature from the holder along with `v` and `s`",
          "s": "Must produce valid secp256k1 signature from the holder along with `r` and `v`",
          "spender": "The account that is being approved",
          "tokenId": "The ID of the token that is being approved for spending",
          "v": "Must produce valid secp256k1 signature from the holder along with `r` and `s`"
        }
      },
      "positions(uint256)": {
        "details": "Throws if the token ID is not valid.",
        "params": {
          "tokenId": "The ID of the token that represents the position"
        },
        "returns": {
          "fee": "The fee associated with the pool",
          "feeGrowthInside0LastX128": "The fee growth of token0 as of the last action on the individual position",
          "feeGrowthInside1LastX128": "The fee growth of token1 as of the last action on the individual position",
          "liquidity": "The liquidity of the position",
          "nonce": "The nonce for permits",
          "operator": "The address that is approved for spending",
          "tickLower": "The lower end of the tick range for the position",
          "tickUpper": "The higher end of the tick range for the position",
          "token0": "The address of the token0 for a specific pool",
          "token1": "The address of the token1 for a specific pool",
          "tokensOwed0": "The uncollected amount of token0 owed to the position as of the last computation",
          "tokensOwed1": "The uncollected amount of token1 owed to the position as of the last computation"
        }
      },
      "refundETH()": {
        "details": "Useful for bundling with mint or increase liquidity that uses ether, or exact output swaps that use ether for the input amount"
      },
      "safeTransferFrom(address,address,uint256)": {
        "details": "See {IERC721-safeTransferFrom}."
      },
      "safeTransferFrom(address,address,uint256,bytes)": {
        "details": "See {IERC721-safeTransferFrom}."
      },
      "selfPermit(address,uint256,uint256,uint8,bytes32,bytes32)": {
        "details": "The `owner` is always msg.sender and the `spender` is always address(this).",
        "params": {
          "deadline": "A timestamp, the current blocktime must be less than or equal to this timestamp",
          "r": "Must produce valid secp256k1 signature from the holder along with `v` and `s`",
          "s": "Must produce valid secp256k1 signature from the holder along with `r` and `v`",
          "token": "The address of the token spent",
          "v": "Must produce valid secp256k1 signature from the holder along with `r` and `s`",
          "value": "The amount that can be spent of token"
        }
      },
      "selfPermitAllowed(address,uint256,uint256,uint8,bytes32,bytes32)": {
        "details": "The `owner` is always msg.sender and the `spender` is always address(this)",
        "params": {
          "expiry": "The timestamp at which the permit is no longer valid",
          "nonce": "The current nonce of the owner",
          "r": "Must produce valid secp256k1 signature from the holder along with `v` and `s`",
          "s": "Must produce valid secp256k1 signature from the holder along with `r` and `v`",
          "token": "The address of the token spent",
          "v": "Must produce valid secp256k1 signature from the holder along with `r` and `s`"
        }
      },
      "selfPermitAllowedIfNecessary(address,uint256,uint256,uint8,bytes32,bytes32)": {
        "details": "The `owner` is always msg.sender and the `spender` is always address(this) Can be used instead of #selfPermitAllowed to prevent calls from failing due to a frontrun of a call to #selfPermitAllowed.",
        "params": {
          "expiry": "The timestamp at which the permit is no longer valid",
          "nonce": "The current nonce of the owner",
          "r": "Must produce valid secp256k1 signature from the holder along with `v` and `s`",
          "s": "Must produce valid secp256k1 signature from the holder along with `r` and `v`",
          "token": "The address of the token spent",
          "v": "Must produce valid secp256k1 signature from the holder along with `r` and `s`"
        }
      },
      "selfPermitIfNecessary(address,uint256,uint256,uint8,bytes32,bytes32)": {
        "details": "The `owner` is always msg.sender and the `spender` is always address(this). Can be used instead of #selfPermit to prevent calls from failing due to a frontrun of a call to #selfPermit",
        "params": {
          "deadline": "A timestamp, the current blocktime must be less than or equal to this timestamp",
          "r": "Must produce valid secp256k1 signature from the holder along with `v` and `s`",
          "s": "Must produce valid secp256k1 signature from the holder along with `r` and `v`",
          "token": "The address of the token spent",
          "v": "Must produce valid secp256k1 signature from the holder along with `r` and `s`",
          "value": "The amount that can be spent of token"
        }
      },
      "setApprovalForAll(address,bool)": {
        "details": "See {IERC721-setApprovalForAll}."
      },
      "supportsInterface(bytes4)": {
        "details": "See {IERC165-supportsInterface}."
      },
      "sweepToken(address,uint256,address)": {
        "details": "The amountMinimum parameter prevents malicious contracts from stealing the token from users",
        "params": {
          "amountMinimum": "The minimum amount of token required for a transfer",
          "recipient": "The destination address of the token",
          "token": "The contract address of the token which will be transferred to `recipient`"
        }
      },
      "symbol()": {
        "details": "See {IERC721Metadata-symbol}."
      },
      "tokenByIndex(uint256)": {
        "details": "See {IERC721Enumerable-tokenByIndex}."
      },
      "tokenOfOwnerByIndex(address,uint256)": {
        "details": "See {IERC721Enumerable-tokenOfOwnerByIndex}."
      },
      "totalSupply()": {
        "details": "See {IERC721Enumerable-totalSupply}."
      },
      "transferFrom(address,address,uint256)": {
        "details": "See {IERC721-transferFrom}."
      },
      "uniswapV3MintCallback(uint256,uint256,bytes)": {
        "details": "In the implementation you must pay the pool tokens owed for the minted liquidity. The caller of this method must be checked to be a UniswapV3Pool deployed by the canonical UniswapV3Factory.",
        "params": {
          "amount0Owed": "The amount of token0 due to the pool for the minted liquidity",
          "amount1Owed": "The amount of token1 due to the pool for the minted liquidity",
          "data": "Any data passed through by the caller via the IUniswapV3PoolActions#mint call"
        }
      },
      "unwrapWETH9(uint256,address)": {
        "details": "The amountMinimum parameter prevents malicious contracts from stealing WETH9 from users.",
        "params": {
          "amountMinimum": "The minimum amount of WETH9 to unwrap",
          "recipient": "The address receiving ETH"
        }
      }
    },
    "stateVariables": {
      "_nextId": {
        "details": "The ID of the next token that will be minted. Skips 0"
      },
      "_nextPoolId": {
        "details": "The ID of the next pool that is used for the first time. Skips 0"
      },
      "_poolIdToPoolKey": {
        "details": "Pool keys by pool ID, to save on SSTOREs for position data"
      },
      "_poolIds": {
        "details": "IDs of pools assigned by this contract"
      },
      "_positions": {
        "details": "The token ID position data"
      },
      "_tokenDescriptor": {
        "details": "The address of the token descriptor contract, which handles generating token URIs for position tokens"
      }
    },
    "title": "NFT positions",
    "version": 1
  },
  "userdoc": {
    "events": {
      "Collect(uint256,address,uint256,uint256)": {
        "notice": "Emitted when tokens are collected for a position NFT"
      },
      "DecreaseLiquidity(uint256,uint128,uint256,uint256)": {
        "notice": "Emitted when liquidity is decreased for a position NFT"
      },
      "IncreaseLiquidity(uint256,uint128,uint256,uint256)": {
        "notice": "Emitted when liquidity is increased for a position NFT"
      }
    },
    "kind": "user",
    "methods": {
      "DOMAIN_SEPARATOR()": {
        "notice": "The domain separator used in the permit signature"
      },
      "PERMIT_TYPEHASH()": {
        "notice": "The permit typehash used in the permit signature"
      },
      "burn(uint256)": {
        "notice": "Burns a token ID, which deletes it from the NFT contract. The token must have 0 liquidity and all tokens must be collected first."
      },
      "collect((uint256,address,uint128,uint128))": {
        "notice": "Collects up to a maximum amount of fees owed to a specific position to the recipient"
      },
      "createAndInitializePoolIfNecessary(address,address,uint24,uint160)": {
        "notice": "Creates a new pool if it does not exist, then initializes if not initialized"
      },
      "decreaseLiquidity((uint256,uint128,uint256,uint256,uint256))": {
        "notice": "Decreases the amount of liquidity in a position and accounts it to the position"
      },
      "increaseLiquidity((uint256,uint256,uint256,uint256,uint256,uint256))": {
        "notice": "Increases the amount of liquidity in a position, with tokens paid by the `msg.sender`"
      },
      "mint((address,address,uint24,int24,int24,uint256,uint256,uint256,uint256,address,uint256))": {
        "notice": "Creates a new position wrapped in a NFT"
      },
      "multicall(bytes[])": {
        "notice": "Call multiple functions in the current contract and return the data from all of them if they all succeed"
      },
      "permit(address,uint256,uint256,uint8,bytes32,bytes32)": {
        "notice": "Approve of a specific token ID for spending by spender via signature"
      },
      "positions(uint256)": {
        "notice": "Returns the position information associated with a given token ID."
      },
      "refundETH()": {
        "notice": "Refunds any ETH balance held by this contract to the `msg.sender`"
      },
      "selfPermit(address,uint256,uint256,uint8,bytes32,bytes32)": {
        "notice": "Permits this contract to spend a given token from `msg.sender`"
      },
      "selfPermitAllowed(address,uint256,uint256,uint8,bytes32,bytes32)": {
        "notice": "Permits this contract to spend the sender's tokens for permit signatures that have the `allowed` parameter"
      },
      "selfPermitAllowedIfNecessary(address,uint256,uint256,uint8,bytes32,bytes32)": {
        "notice": "Permits this contract to spend the sender's tokens for permit signatures that have the `allowed` parameter"
      },
      "selfPermitIfNecessary(address,uint256,uint256,uint8,bytes32,bytes32)": {
        "notice": "Permits this contract to spend a given token from `msg.sender`"
      },
      "sweepToken(address,uint256,address)": {
        "notice": "Transfers the full amount of a token held by this contract to recipient"
      },
      "uniswapV3MintCallback(uint256,uint256,bytes)": {
        "notice": "Called to `msg.sender` after minting liquidity to a position from IUniswapV3Pool#mint."
      },
      "unwrapWETH9(uint256,address)": {
        "notice": "Unwraps the contract's WETH9 balance and sends it to recipient as ETH."
      }
    },
    "notice": "Wraps Uniswap V3 positions in the ERC721 non-fungible token interface",
    "version": 1
  },
  "storageLayout": {
    "storage": [
      {
        "astId": 17388,
        "contract": "@kayen/uniswap-v3-periphery/contracts/NonfungiblePositionManager.sol:NonfungiblePositionManager",
        "label": "_name",
        "offset": 0,
        "slot": "0",
        "type": "t_string_storage"
      },
      {
        "astId": 17390,
        "contract": "@kayen/uniswap-v3-periphery/contracts/NonfungiblePositionManager.sol:NonfungiblePositionManager",
        "label": "_symbol",
        "offset": 0,
        "slot": "1",
        "type": "t_string_storage"
      },
      {
        "astId": 17394,
        "contract": "@kayen/uniswap-v3-periphery/contracts/NonfungiblePositionManager.sol:NonfungiblePositionManager",
        "label": "_owners",
        "offset": 0,
        "slot": "2",
        "type": "t_mapping(t_uint256,t_address)"
      },
      {
        "astId": 17398,
        "contract": "@kayen/uniswap-v3-periphery/contracts/NonfungiblePositionManager.sol:NonfungiblePositionManager",
        "label": "_balances",
        "offset": 0,
        "slot": "3",
        "type": "t_mapping(t_address,t_uint256)"
      },
      {
        "astId": 17402,
        "contract": "@kayen/uniswap-v3-periphery/contracts/NonfungiblePositionManager.sol:NonfungiblePositionManager",
        "label": "_tokenApprovals",
        "offset": 0,
        "slot": "4",
        "type": "t_mapping(t_uint256,t_address)"
      },
      {
        "astId": 17408,
        "contract": "@kayen/uniswap-v3-periphery/contracts/NonfungiblePositionManager.sol:NonfungiblePositionManager",
        "label": "_operatorApprovals",
        "offset": 0,
        "slot": "5",
        "type": "t_mapping(t_address,t_mapping(t_address,t_bool))"
      },
      {
        "astId": 18438,
        "contract": "@kayen/uniswap-v3-periphery/contracts/NonfungiblePositionManager.sol:NonfungiblePositionManager",
        "label": "_ownedTokens",
        "offset": 0,
        "slot": "6",
        "type": "t_mapping(t_address,t_mapping(t_uint256,t_uint256))"
      },
      {
        "astId": 18442,
        "contract": "@kayen/uniswap-v3-periphery/contracts/NonfungiblePositionManager.sol:NonfungiblePositionManager",
        "label": "_ownedTokensIndex",
        "offset": 0,
        "slot": "7",
        "type": "t_mapping(t_uint256,t_uint256)"
      },
      {
        "astId": 18445,
        "contract": "@kayen/uniswap-v3-periphery/contracts/NonfungiblePositionManager.sol:NonfungiblePositionManager",
        "label": "_allTokens",
        "offset": 0,
        "slot": "8",
        "type": "t_array(t_uint256)dyn_storage"
      },
      {
        "astId": 18449,
        "contract": "@kayen/uniswap-v3-periphery/contracts/NonfungiblePositionManager.sol:NonfungiblePositionManager",
        "label": "_allTokensIndex",
        "offset": 0,
        "slot": "9",
        "type": "t_mapping(t_uint256,t_uint256)"
      },
      {
        "astId": 5081,
        "contract": "@kayen/uniswap-v3-periphery/contracts/NonfungiblePositionManager.sol:NonfungiblePositionManager",
        "label": "_poolIds",
        "offset": 0,
        "slot": "10",
        "type": "t_mapping(t_address,t_uint80)"
      },
      {
        "astId": 5087,
        "contract": "@kayen/uniswap-v3-periphery/contracts/NonfungiblePositionManager.sol:NonfungiblePositionManager",
        "label": "_poolIdToPoolKey",
        "offset": 0,
        "slot": "11",
        "type": "t_mapping(t_uint80,t_struct(PoolKey)13173_storage)"
      },
      {
        "astId": 5093,
        "contract": "@kayen/uniswap-v3-periphery/contracts/NonfungiblePositionManager.sol:NonfungiblePositionManager",
        "label": "_positions",
        "offset": 0,
        "slot": "12",
        "type": "t_mapping(t_uint256,t_struct(Position)5076_storage)"
      },
      {
        "astId": 5097,
        "contract": "@kayen/uniswap-v3-periphery/contracts/NonfungiblePositionManager.sol:NonfungiblePositionManager",
        "label": "_nextId",
        "offset": 0,
        "slot": "13",
        "type": "t_uint176"
      },
      {
        "astId": 5101,
        "contract": "@kayen/uniswap-v3-periphery/contracts/NonfungiblePositionManager.sol:NonfungiblePositionManager",
        "label": "_nextPoolId",
        "offset": 22,
        "slot": "13",
        "type": "t_uint80"
      }
    ],
    "types": {
      "t_address": {
        "encoding": "inplace",
        "label": "address",
        "numberOfBytes": "20"
      },
      "t_array(t_uint256)dyn_storage": {
        "base": "t_uint256",
        "encoding": "dynamic_array",
        "label": "uint256[]",
        "numberOfBytes": "32"
      },
      "t_bool": {
        "encoding": "inplace",
        "label": "bool",
        "numberOfBytes": "1"
      },
      "t_int24": {
        "encoding": "inplace",
        "label": "int24",
        "numberOfBytes": "3"
      },
      "t_mapping(t_address,t_bool)": {
        "encoding": "mapping",
        "key": "t_address",
        "label": "mapping(address => bool)",
        "numberOfBytes": "32",
        "value": "t_bool"
      },
      "t_mapping(t_address,t_mapping(t_address,t_bool))": {
        "encoding": "mapping",
        "key": "t_address",
        "label": "mapping(address => mapping(address => bool))",
        "numberOfBytes": "32",
        "value": "t_mapping(t_address,t_bool)"
      },
      "t_mapping(t_address,t_mapping(t_uint256,t_uint256))": {
        "encoding": "mapping",
        "key": "t_address",
        "label": "mapping(address => mapping(uint256 => uint256))",
        "numberOfBytes": "32",
        "value": "t_mapping(t_uint256,t_uint256)"
      },
      "t_mapping(t_address,t_uint256)": {
        "encoding": "mapping",
        "key": "t_address",
        "label": "mapping(address => uint256)",
        "numberOfBytes": "32",
        "value": "t_uint256"
      },
      "t_mapping(t_address,t_uint80)": {
        "encoding": "mapping",
        "key": "t_address",
        "label": "mapping(address => uint80)",
        "numberOfBytes": "32",
        "value": "t_uint80"
      },
      "t_mapping(t_uint256,t_address)": {
        "encoding": "mapping",
        "key": "t_uint256",
        "label": "mapping(uint256 => address)",
        "numberOfBytes": "32",
        "value": "t_address"
      },
      "t_mapping(t_uint256,t_struct(Position)5076_storage)": {
        "encoding": "mapping",
        "key": "t_uint256",
        "label": "mapping(uint256 => struct NonfungiblePositionManager.Position)",
        "numberOfBytes": "32",
        "value": "t_struct(Position)5076_storage"
      },
      "t_mapping(t_uint256,t_uint256)": {
        "encoding": "mapping",
        "key": "t_uint256",
        "label": "mapping(uint256 => uint256)",
        "numberOfBytes": "32",
        "value": "t_uint256"
      },
      "t_mapping(t_uint80,t_struct(PoolKey)13173_storage)": {
        "encoding": "mapping",
        "key": "t_uint80",
        "label": "mapping(uint80 => struct PoolAddress.PoolKey)",
        "numberOfBytes": "32",
        "value": "t_struct(PoolKey)13173_storage"
      },
      "t_string_storage": {
        "encoding": "bytes",
        "label": "string",
        "numberOfBytes": "32"
      },
      "t_struct(PoolKey)13173_storage": {
        "encoding": "inplace",
        "label": "struct PoolAddress.PoolKey",
        "members": [
          {
            "astId": 13168,
            "contract": "@kayen/uniswap-v3-periphery/contracts/NonfungiblePositionManager.sol:NonfungiblePositionManager",
            "label": "token0",
            "offset": 0,
            "slot": "0",
            "type": "t_address"
          },
          {
            "astId": 13170,
            "contract": "@kayen/uniswap-v3-periphery/contracts/NonfungiblePositionManager.sol:NonfungiblePositionManager",
            "label": "token1",
            "offset": 0,
            "slot": "1",
            "type": "t_address"
          },
          {
            "astId": 13172,
            "contract": "@kayen/uniswap-v3-periphery/contracts/NonfungiblePositionManager.sol:NonfungiblePositionManager",
            "label": "fee",
            "offset": 20,
            "slot": "1",
            "type": "t_uint24"
          }
        ],
        "numberOfBytes": "64"
      },
      "t_struct(Position)5076_storage": {
        "encoding": "inplace",
        "label": "struct NonfungiblePositionManager.Position",
        "members": [
          {
            "astId": 5057,
            "contract": "@kayen/uniswap-v3-periphery/contracts/NonfungiblePositionManager.sol:NonfungiblePositionManager",
            "label": "nonce",
            "offset": 0,
            "slot": "0",
            "type": "t_uint96"
          },
          {
            "astId": 5059,
            "contract": "@kayen/uniswap-v3-periphery/contracts/NonfungiblePositionManager.sol:NonfungiblePositionManager",
            "label": "operator",
            "offset": 12,
            "slot": "0",
            "type": "t_address"
          },
          {
            "astId": 5061,
            "contract": "@kayen/uniswap-v3-periphery/contracts/NonfungiblePositionManager.sol:NonfungiblePositionManager",
            "label": "poolId",
            "offset": 0,
            "slot": "1",
            "type": "t_uint80"
          },
          {
            "astId": 5063,
            "contract": "@kayen/uniswap-v3-periphery/contracts/NonfungiblePositionManager.sol:NonfungiblePositionManager",
            "label": "tickLower",
            "offset": 10,
            "slot": "1",
            "type": "t_int24"
          },
          {
            "astId": 5065,
            "contract": "@kayen/uniswap-v3-periphery/contracts/NonfungiblePositionManager.sol:NonfungiblePositionManager",
            "label": "tickUpper",
            "offset": 13,
            "slot": "1",
            "type": "t_int24"
          },
          {
            "astId": 5067,
            "contract": "@kayen/uniswap-v3-periphery/contracts/NonfungiblePositionManager.sol:NonfungiblePositionManager",
            "label": "liquidity",
            "offset": 16,
            "slot": "1",
            "type": "t_uint128"
          },
          {
            "astId": 5069,
            "contract": "@kayen/uniswap-v3-periphery/contracts/NonfungiblePositionManager.sol:NonfungiblePositionManager",
            "label": "feeGrowthInside0LastX128",
            "offset": 0,
            "slot": "2",
            "type": "t_uint256"
          },
          {
            "astId": 5071,
            "contract": "@kayen/uniswap-v3-periphery/contracts/NonfungiblePositionManager.sol:NonfungiblePositionManager",
            "label": "feeGrowthInside1LastX128",
            "offset": 0,
            "slot": "3",
            "type": "t_uint256"
          },
          {
            "astId": 5073,
            "contract": "@kayen/uniswap-v3-periphery/contracts/NonfungiblePositionManager.sol:NonfungiblePositionManager",
            "label": "tokensOwed0",
            "offset": 0,
            "slot": "4",
            "type": "t_uint128"
          },
          {
            "astId": 5075,
            "contract": "@kayen/uniswap-v3-periphery/contracts/NonfungiblePositionManager.sol:NonfungiblePositionManager",
            "label": "tokensOwed1",
            "offset": 16,
            "slot": "4",
            "type": "t_uint128"
          }
        ],
        "numberOfBytes": "160"
      },
      "t_uint128": {
        "encoding": "inplace",
        "label": "uint128",
        "numberOfBytes": "16"
      },
      "t_uint176": {
        "encoding": "inplace",
        "label": "uint176",
        "numberOfBytes": "22"
      },
      "t_uint24": {
        "encoding": "inplace",
        "label": "uint24",
        "numberOfBytes": "3"
      },
      "t_uint256": {
        "encoding": "inplace",
        "label": "uint256",
        "numberOfBytes": "32"
      },
      "t_uint80": {
        "encoding": "inplace",
        "label": "uint80",
        "numberOfBytes": "10"
      },
      "t_uint96": {
        "encoding": "inplace",
        "label": "uint96",
        "numberOfBytes": "12"
      }
    }
  }
}