{
  "address": "0x4aE826A048A9f5B7F8fb6ADdfcE02D832f3e0736",
  "abi": [
    {
      "inputs": [
        {
          "internalType": "contract Configuration",
          "name": "_config",
          "type": "address"
        },
        {
          "internalType": "contract PresaleManager",
          "name": "_manager",
          "type": "address"
        }
      ],
      "stateMutability": "nonpayable",
      "type": "constructor"
    },
    {
      "anonymous": false,
      "inputs": [
        {
          "indexed": true,
          "internalType": "address",
          "name": "previousOwner",
          "type": "address"
        },
        {
          "indexed": true,
          "internalType": "address",
          "name": "newOwner",
          "type": "address"
        }
      ],
      "name": "OwnershipTransferred",
      "type": "event"
    },
    {
      "inputs": [
        {
          "internalType": "address",
          "name": "pool",
          "type": "address"
        },
        {
          "internalType": "address",
          "name": "recipient",
          "type": "address"
        }
      ],
      "name": "beforeSwap",
      "outputs": [],
      "stateMutability": "nonpayable",
      "type": "function"
    },
    {
      "inputs": [],
      "name": "getFeeVault",
      "outputs": [
        {
          "internalType": "address",
          "name": "",
          "type": "address"
        }
      ],
      "stateMutability": "view",
      "type": "function"
    },
    {
      "inputs": [
        {
          "internalType": "address",
          "name": "token0",
          "type": "address"
        },
        {
          "internalType": "address",
          "name": "token1",
          "type": "address"
        }
      ],
      "name": "getTradeFee",
      "outputs": [
        {
          "internalType": "uint24",
          "name": "",
          "type": "uint24"
        }
      ],
      "stateMutability": "view",
      "type": "function"
    },
    {
      "inputs": [],
      "name": "owner",
      "outputs": [
        {
          "internalType": "address",
          "name": "",
          "type": "address"
        }
      ],
      "stateMutability": "view",
      "type": "function"
    },
    {
      "inputs": [
        {
          "internalType": "address",
          "name": "_quoter",
          "type": "address"
        }
      ],
      "name": "putQuoter",
      "outputs": [],
      "stateMutability": "nonpayable",
      "type": "function"
    },
    {
      "inputs": [],
      "name": "renounceOwnership",
      "outputs": [],
      "stateMutability": "nonpayable",
      "type": "function"
    },
    {
      "inputs": [
        {
          "internalType": "address",
          "name": "newOwner",
          "type": "address"
        }
      ],
      "name": "transferOwnership",
      "outputs": [],
      "stateMutability": "nonpayable",
      "type": "function"
    }
  ],
  "transactionHash": "0xecf0ccce1cf94c0fa1ed02047244a1722dbc96aace3f41eceff3aebcf7b19a46",
  "args": [
    "0xB585b51051c258e363c1977fd0fa2Fa03DAfE490",
    "0x6d8E079f9b66905c3A29f03f3eAFAFB2aD8e56De"
  ],
  "numDeployments": 4,
  "solcInputHash": "ddb0f1f0281bf6655b570cc5bb3a13f1",
  "bytecode": "0x608060405234801561001057600080fd5b506040516107e23803806107e283398101604081905261002f916100d1565b61003833610069565b600180546001600160a01b039384166001600160a01b0319918216179091556002805492909316911617905561010b565b600080546001600160a01b038381166001600160a01b0319831681178455604051919092169283917f8be0079c531659141344cd1fd0a4f28419497f9722a3daafe3b4186f6b6457e09190a35050565b6001600160a01b03811681146100ce57600080fd5b50565b600080604083850312156100e457600080fd5b82516100ef816100b9565b6020840151909250610100816100b9565b809150509250929050565b6106c88061011a6000396000f3fe608060405234801561001057600080fd5b506004361061007d5760003560e01c8063ec0f7cf01161005b578063ec0f7cf0146100c9578063f286b19e146100d1578063f2fde38b146100e4578063f56681bf146100f757600080fd5b8063715018a6146100825780638da5cb5b1461008c57806391f5bb07146100b6575b600080fd5b61008a61011e565b005b6000546001600160a01b03165b6040516001600160a01b0390911681526020015b60405180910390f35b61008a6100c43660046105d8565b610132565b61009961015c565b61008a6100df3660046105f5565b6101cf565b61008a6100f23660046105d8565b610379565b61010a6101053660046105f5565b6103f2565b60405162ffffff90911681526020016100ad565b610126610470565b61013060006104ca565b565b61013a610470565b600380546001600160a01b0319166001600160a01b0392909216919091179055565b60015460408051630ec0f7cf60e41b815290516000926001600160a01b03169163ec0f7cf09160048083019260209291908290030181865afa1580156101a6573d6000803e3d6000fd5b505050506040513d601f19601f820116820180604052508101906101ca919061062e565b905090565b6003546001600160a01b03828116911614610375576101ed8261051a565b1561024a5760405162461bcd60e51b815260206004820152602260248201527f50726573616c65506f6f6c4d616e616765723a20506f6f6c2069732070617573604482015261195960f21b60648201526084015b60405180910390fd5b600254604051632b09880360e11b81526001600160a01b03848116600483015290911690635613100690602401602060405180830381865afa158015610294573d6000803e3d6000fd5b505050506040513d601f19601f820116820180604052508101906102b8919061064b565b156103135760405162461bcd60e51b815260206004820152602560248201527f50726573616c65506f6f6c4d616e616765723a20426f6e64696e6720637572766044820152641948195b9960da1b6064820152608401610241565b61031c82610590565b156103755760405162461bcd60e51b815260206004820152602360248201527f50726573616c65506f6f6c4d616e616765723a20506f6f6c2069732070656e64604482015262696e6760e81b6064820152608401610241565b5050565b610381610470565b6001600160a01b0381166103e65760405162461bcd60e51b815260206004820152602660248201527f4f776e61626c653a206e6577206f776e657220697320746865207a65726f206160448201526564647265737360d01b6064820152608401610241565b6103ef816104ca565b50565b60015460405163f56681bf60e01b81526001600160a01b0384811660048301528381166024830152600092169063f56681bf90604401602060405180830381865afa158015610445573d6000803e3d6000fd5b505050506040513d601f19601f82011682018060405250810190610469919061066d565b9392505050565b6000546001600160a01b031633146101305760405162461bcd60e51b815260206004820181905260248201527f4f776e61626c653a2063616c6c6572206973206e6f7420746865206f776e65726044820152606401610241565b600080546001600160a01b038381166001600160a01b0319831681178455604051919092169283917f8be0079c531659141344cd1fd0a4f28419497f9722a3daafe3b4186f6b6457e09190a35050565b600154604051635b14f18360e01b81526001600160a01b0383811660048301526000921690635b14f183906024015b602060405180830381865afa158015610566573d6000803e3d6000fd5b505050506040513d601f19601f8201168201806040525081019061058a919061064b565b92915050565b600254604051635003a2db60e11b81526001600160a01b038381166004830152600092169063a00745b690602401610549565b6001600160a01b03811681146103ef57600080fd5b6000602082840312156105ea57600080fd5b8135610469816105c3565b6000806040838503121561060857600080fd5b8235610613816105c3565b91506020830135610623816105c3565b809150509250929050565b60006020828403121561064057600080fd5b8151610469816105c3565b60006020828403121561065d57600080fd5b8151801515811461046957600080fd5b60006020828403121561067f57600080fd5b815162ffffff8116811461046957600080fdfea2646970667358221220d5df37bf8be5f4095306975f0b7319c1a98ec7eb576a5d2ed6eac5a0a5ccd79464736f6c63430008130033",
  "devdoc": {
    "kind": "dev",
    "methods": {
      "owner()": {
        "details": "Returns the address of the current owner."
      },
      "renounceOwnership()": {
        "details": "Leaves the contract without owner. It will not be possible to call `onlyOwner` functions. Can only be called by the current owner. NOTE: Renouncing ownership will leave the contract without an owner, thereby disabling any functionality that is only available to the owner."
      },
      "transferOwnership(address)": {
        "details": "Transfers ownership of the contract to a new account (`newOwner`). Can only be called by the current owner."
      }
    },
    "version": 1
  },
  "userdoc": {
    "kind": "user",
    "methods": {},
    "version": 1
  },
  "storageLayout": {
    "storage": [
      {
        "astId": 13650,
        "contract": "contracts/PresalePoolManager.sol:PresalePoolManager",
        "label": "_owner",
        "offset": 0,
        "slot": "0",
        "type": "t_address"
      },
      {
        "astId": 16248,
        "contract": "contracts/PresalePoolManager.sol:PresalePoolManager",
        "label": "config",
        "offset": 0,
        "slot": "1",
        "type": "t_contract(Configuration)16231"
      },
      {
        "astId": 16251,
        "contract": "contracts/PresalePoolManager.sol:PresalePoolManager",
        "label": "manager",
        "offset": 0,
        "slot": "2",
        "type": "t_contract(PresaleManager)17404"
      },
      {
        "astId": 16253,
        "contract": "contracts/PresalePoolManager.sol:PresalePoolManager",
        "label": "quoter",
        "offset": 0,
        "slot": "3",
        "type": "t_address"
      }
    ],
    "types": {
      "t_address": {
        "encoding": "inplace",
        "label": "address",
        "numberOfBytes": "20"
      },
      "t_contract(Configuration)16231": {
        "encoding": "inplace",
        "label": "contract Configuration",
        "numberOfBytes": "20"
      },
      "t_contract(PresaleManager)17404": {
        "encoding": "inplace",
        "label": "contract PresaleManager",
        "numberOfBytes": "20"
      }
    }
  }
}