{
  "address": "0x6d8E079f9b66905c3A29f03f3eAFAFB2aD8e56De",
  "abi": [
    {
      "inputs": [
        {
          "internalType": "contract Configuration",
          "name": "_config",
          "type": "address"
        }
      ],
      "stateMutability": "nonpayable",
      "type": "constructor"
    },
    {
      "anonymous": false,
      "inputs": [
        {
          "indexed": true,
          "internalType": "address",
          "name": "previousOwner",
          "type": "address"
        },
        {
          "indexed": true,
          "internalType": "address",
          "name": "newOwner",
          "type": "address"
        }
      ],
      "name": "OwnershipTransferred",
      "type": "event"
    },
    {
      "anonymous": false,
      "inputs": [
        {
          "indexed": false,
          "internalType": "string",
          "name": "name",
          "type": "string"
        },
        {
          "indexed": false,
          "internalType": "string",
          "name": "symbol",
          "type": "string"
        },
        {
          "indexed": false,
          "internalType": "address",
          "name": "token",
          "type": "address"
        },
        {
          "indexed": false,
          "internalType": "address",
          "name": "paymentToken",
          "type": "address"
        },
        {
          "indexed": false,
          "internalType": "address",
          "name": "pairAddress",
          "type": "address"
        },
        {
          "indexed": false,
          "internalType": "uint256",
          "name": "presaleAmount",
          "type": "uint256"
        },
        {
          "indexed": false,
          "internalType": "uint256",
          "name": "totalSupply",
          "type": "uint256"
        },
        {
          "indexed": false,
          "internalType": "uint256",
          "name": "saleAmount",
          "type": "uint256"
        },
        {
          "indexed": false,
          "internalType": "string",
          "name": "data",
          "type": "string"
        }
      ],
      "name": "PresaleCreated",
      "type": "event"
    },
    {
      "inputs": [
        {
          "internalType": "address",
          "name": "target",
          "type": "address"
        }
      ],
      "name": "getPresale",
      "outputs": [
        {
          "internalType": "contract IPresale",
          "name": "",
          "type": "address"
        }
      ],
      "stateMutability": "view",
      "type": "function"
    },
    {
      "inputs": [
        {
          "internalType": "address",
          "name": "target",
          "type": "address"
        }
      ],
      "name": "getProgress",
      "outputs": [
        {
          "internalType": "uint256",
          "name": "",
          "type": "uint256"
        }
      ],
      "stateMutability": "view",
      "type": "function"
    },
    {
      "inputs": [
        {
          "internalType": "address",
          "name": "target",
          "type": "address"
        }
      ],
      "name": "isBondingCurveEnd",
      "outputs": [
        {
          "internalType": "bool",
          "name": "",
          "type": "bool"
        }
      ],
      "stateMutability": "view",
      "type": "function"
    },
    {
      "inputs": [
        {
          "internalType": "address",
          "name": "target",
          "type": "address"
        }
      ],
      "name": "isPending",
      "outputs": [
        {
          "internalType": "bool",
          "name": "",
          "type": "bool"
        }
      ],
      "stateMutability": "view",
      "type": "function"
    },
    {
      "inputs": [
        {
          "internalType": "address",
          "name": "",
          "type": "address"
        }
      ],
      "name": "isRegistered",
      "outputs": [
        {
          "internalType": "bool",
          "name": "",
          "type": "bool"
        }
      ],
      "stateMutability": "view",
      "type": "function"
    },
    {
      "inputs": [],
      "name": "owner",
      "outputs": [
        {
          "internalType": "address",
          "name": "",
          "type": "address"
        }
      ],
      "stateMutability": "view",
      "type": "function"
    },
    {
      "inputs": [
        {
          "internalType": "address",
          "name": "",
          "type": "address"
        }
      ],
      "name": "presales",
      "outputs": [
        {
          "internalType": "address",
          "name": "",
          "type": "address"
        }
      ],
      "stateMutability": "view",
      "type": "function"
    },
    {
      "inputs": [
        {
          "internalType": "address",
          "name": "",
          "type": "address"
        }
      ],
      "name": "presalesByPool",
      "outputs": [
        {
          "internalType": "address",
          "name": "",
          "type": "address"
        }
      ],
      "stateMutability": "view",
      "type": "function"
    },
    {
      "inputs": [
        {
          "internalType": "contract IPresale",
          "name": "presale",
          "type": "address"
        }
      ],
      "name": "register",
      "outputs": [],
      "stateMutability": "nonpayable",
      "type": "function"
    },
    {
      "inputs": [],
      "name": "renounceOwnership",
      "outputs": [],
      "stateMutability": "nonpayable",
      "type": "function"
    },
    {
      "inputs": [
        {
          "internalType": "address",
          "name": "newOwner",
          "type": "address"
        }
      ],
      "name": "transferOwnership",
      "outputs": [],
      "stateMutability": "nonpayable",
      "type": "function"
    }
  ],
  "transactionHash": "0x083567c4d1c2ebc8aa270682681c59ea2bffe0dc1e0c01303ae6c11ab5c401f3",
  "args": [
    "0xB585b51051c258e363c1977fd0fa2Fa03DAfE490"
  ],
  "numDeployments": 2,
  "solcInputHash": "fe4236ec33831dd4fcec0a9b276b32bd",
  "bytecode": "0x608060405234801561001057600080fd5b50604051610ca0380380610ca083398101604081905261002f916100ad565b6100383361005d565b600480546001600160a01b0319166001600160a01b03929092169190911790556100dd565b600080546001600160a01b038381166001600160a01b0319831681178455604051919092169283917f8be0079c531659141344cd1fd0a4f28419497f9722a3daafe3b4186f6b6457e09190a35050565b6000602082840312156100bf57600080fd5b81516001600160a01b03811681146100d657600080fd5b9392505050565b610bb4806100ec6000396000f3fe608060405234801561001057600080fd5b50600436106100a95760003560e01c8063a00745b611610071578063a00745b61461012f578063aef7650114610142578063c3c5a54714610163578063d4ed77b514610186578063efcd708f146101af578063f2fde38b146101d857600080fd5b80634420e486146100ae57806356131006146100c3578063715018a6146100eb57806377ce88eb146100f35780638da5cb5b1461011e575b600080fd5b6100c16100bc3660046107cd565b6101eb565b005b6100d66100d13660046107cd565b6104c2565b60405190151581526020015b60405180910390f35b6100c1610534565b6101066101013660046107cd565b610548565b6040516001600160a01b0390911681526020016100e2565b6000546001600160a01b0316610106565b6100d661013d3660046107cd565b6105a7565b6101556101503660046107cd565b610629565b6040519081526020016100e2565b6100d66101713660046107cd565b60016020526000908152604090205460ff1681565b6101066101943660046107cd565b6003602052600090815260409020546001600160a01b031681565b6101066101bd3660046107cd565b6002602052600090815260409020546001600160a01b031681565b6100c16101e63660046107cd565b610695565b60048054604051632066bf6d60e21b815233928101929092526001600160a01b03169063819afdb490602401602060405180830381865afa158015610234573d6000803e3d6000fd5b505050506040513d601f19601f820116820180604052508101906102589190610806565b6102a95760405162461bcd60e51b815260206004820152601960248201527f50726573616c654d616e616765723a20464f5242494444454e0000000000000060448201526064015b60405180910390fd5b600080600080846001600160a01b0316636addb6636040518163ffffffff1660e01b81526004016000604051808303816000875af11580156102ef573d6000803e3d6000fd5b505050506040513d6000823e601f3d908101601f191682016040526103179190810190610918565b6001600160a01b0384166000908152600160205260409020549397509195509350915060ff16156103955760405162461bcd60e51b815260206004820152602260248201527f50726573616c654d616e616765723a20414c52454144595f5245474953544552604482015261115160f21b60648201526084016102a0565b6000856001600160a01b031663370158ea6040518163ffffffff1660e01b8152600401600060405180830381865afa1580156103d5573d6000803e3d6000fd5b505050506040513d6000823e601f3d908101601f191682016040526103fd91908101906109aa565b6001600160a01b0380871660009081526002602090815260408083208054858d166001600160a01b031991821681179092556001808552838620805460ff19169091179055828701805190961685526003909352928190208054909216909217905560608301519151608084015160a085015160c086015193519596507f5907e68cbd0987ce3c33605889d26eb3a84e33833c3ccb79192c00ca73f70731956104b2958b958b958e95929490938c9290610ae4565b60405180910390a1505050505050565b60006104cd82610548565b6001600160a01b031663d4ac98fc6040518163ffffffff1660e01b8152600401602060405180830381865afa15801561050a573d6000803e3d6000fd5b505050506040513d601f19601f8201168201806040525081019061052e9190610806565b92915050565b61053c61070e565b6105466000610768565b565b6001600160a01b0381811660009081526002602052604081205490911661058857506001600160a01b039081166000908152600360205260409020541690565b506001600160a01b039081166000908152600260205260409020541690565b6000806105b383610548565b905042816001600160a01b031663370158ea6040518163ffffffff1660e01b8152600401600060405180830381865afa1580156105f4573d6000803e3d6000fd5b505050506040513d6000823e601f3d908101601f1916820160405261061c91908101906109aa565b6101200151119392505050565b600061063482610548565b6001600160a01b031663939c44566040518163ffffffff1660e01b8152600401602060405180830381865afa158015610671573d6000803e3d6000fd5b505050506040513d601f19601f8201168201806040525081019061052e9190610b65565b61069d61070e565b6001600160a01b0381166107025760405162461bcd60e51b815260206004820152602660248201527f4f776e61626c653a206e6577206f776e657220697320746865207a65726f206160448201526564647265737360d01b60648201526084016102a0565b61070b81610768565b50565b6000546001600160a01b031633146105465760405162461bcd60e51b815260206004820181905260248201527f4f776e61626c653a2063616c6c6572206973206e6f7420746865206f776e657260448201526064016102a0565b600080546001600160a01b038381166001600160a01b0319831681178455604051919092169283917f8be0079c531659141344cd1fd0a4f28419497f9722a3daafe3b4186f6b6457e09190a35050565b6001600160a01b038116811461070b57600080fd5b6000602082840312156107df57600080fd5b81356107ea816107b8565b9392505050565b8051801515811461080157600080fd5b919050565b60006020828403121561081857600080fd5b6107ea826107f1565b8051610801816107b8565b634e487b7160e01b600052604160045260246000fd5b604051610160810167ffffffffffffffff811182821017156108665761086661082c565b60405290565b60005b8381101561088757818101518382015260200161086f565b50506000910152565b600082601f8301126108a157600080fd5b815167ffffffffffffffff808211156108bc576108bc61082c565b604051601f8301601f19908116603f011681019082821181831017156108e4576108e461082c565b816040528381528660208588010111156108fd57600080fd5b61090e84602083016020890161086c565b9695505050505050565b6000806000806080858703121561092e57600080fd5b8451610939816107b8565b602086015190945067ffffffffffffffff8082111561095757600080fd5b61096388838901610890565b9450604087015191508082111561097957600080fd5b5061098687828801610890565b606096909601519497939650505050565b805162ffffff8116811461080157600080fd5b6000602082840312156109bc57600080fd5b815167ffffffffffffffff808211156109d457600080fd5b9083019061016082860312156109e957600080fd5b6109f1610842565b6109fa83610821565b8152610a0860208401610821565b6020820152610a1960408401610821565b6040820152610a2a60608401610821565b60608201526080830151608082015260a083015160a082015260c083015182811115610a5557600080fd5b610a6187828601610890565b60c083015250610a7360e08401610997565b60e08201526101009150610a888284016107f1565b82820152610120915081830151828201526101409150610aa98284016107f1565b91810191909152949350505050565b60008151808452610ad081602086016020860161086c565b601f01601f19169290920160200192915050565b6000610120808352610af88184018d610ab8565b90508281036020840152610b0c818c610ab8565b6001600160a01b038b811660408601528a811660608601528916608085015260a0840188905260c0840187905260e084018690528381036101008501529050610b558185610ab8565b9c9b505050505050505050505050565b600060208284031215610b7757600080fd5b505191905056fea26469706673582212205b5164c43fd70ec78aff24b7efdd7dfe0f2bf5acfbecbf7af949222b429a187864736f6c63430008130033",
  "devdoc": {
    "kind": "dev",
    "methods": {
      "owner()": {
        "details": "Returns the address of the current owner."
      },
      "renounceOwnership()": {
        "details": "Leaves the contract without owner. It will not be possible to call `onlyOwner` functions. Can only be called by the current owner. NOTE: Renouncing ownership will leave the contract without an owner, thereby disabling any functionality that is only available to the owner."
      },
      "transferOwnership(address)": {
        "details": "Transfers ownership of the contract to a new account (`newOwner`). Can only be called by the current owner."
      }
    },
    "version": 1
  },
  "userdoc": {
    "kind": "user",
    "methods": {},
    "version": 1
  },
  "storageLayout": {
    "storage": [
      {
        "astId": 13773,
        "contract": "contracts/presale-manager/PresaleManager.sol:PresaleManager",
        "label": "_owner",
        "offset": 0,
        "slot": "0",
        "type": "t_address"
      },
      {
        "astId": 17310,
        "contract": "contracts/presale-manager/PresaleManager.sol:PresaleManager",
        "label": "isRegistered",
        "offset": 0,
        "slot": "1",
        "type": "t_mapping(t_address,t_bool)"
      },
      {
        "astId": 17314,
        "contract": "contracts/presale-manager/PresaleManager.sol:PresaleManager",
        "label": "presales",
        "offset": 0,
        "slot": "2",
        "type": "t_mapping(t_address,t_address)"
      },
      {
        "astId": 17318,
        "contract": "contracts/presale-manager/PresaleManager.sol:PresaleManager",
        "label": "presalesByPool",
        "offset": 0,
        "slot": "3",
        "type": "t_mapping(t_address,t_address)"
      },
      {
        "astId": 17321,
        "contract": "contracts/presale-manager/PresaleManager.sol:PresaleManager",
        "label": "config",
        "offset": 0,
        "slot": "4",
        "type": "t_contract(Configuration)16354"
      }
    ],
    "types": {
      "t_address": {
        "encoding": "inplace",
        "label": "address",
        "numberOfBytes": "20"
      },
      "t_bool": {
        "encoding": "inplace",
        "label": "bool",
        "numberOfBytes": "1"
      },
      "t_contract(Configuration)16354": {
        "encoding": "inplace",
        "label": "contract Configuration",
        "numberOfBytes": "20"
      },
      "t_mapping(t_address,t_address)": {
        "encoding": "mapping",
        "key": "t_address",
        "label": "mapping(address => address)",
        "numberOfBytes": "32",
        "value": "t_address"
      },
      "t_mapping(t_address,t_bool)": {
        "encoding": "mapping",
        "key": "t_address",
        "label": "mapping(address => bool)",
        "numberOfBytes": "32",
        "value": "t_bool"
      }
    }
  }
}