{
  "address": "0xDeeedea502aB2E3B08293b822a281ac46b2E1d8C",
  "abi": [
    {
      "inputs": [
        {
          "internalType": "contract Configuration",
          "name": "_config",
          "type": "address"
        },
        {
          "internalType": "contract PresaleManager",
          "name": "_manager",
          "type": "address"
        }
      ],
      "stateMutability": "nonpayable",
      "type": "constructor"
    },
    {
      "anonymous": false,
      "inputs": [
        {
          "indexed": true,
          "internalType": "address",
          "name": "previousOwner",
          "type": "address"
        },
        {
          "indexed": true,
          "internalType": "address",
          "name": "newOwner",
          "type": "address"
        }
      ],
      "name": "OwnershipTransferred",
      "type": "event"
    },
    {
      "inputs": [
        {
          "internalType": "address",
          "name": "pool",
          "type": "address"
        },
        {
          "internalType": "address",
          "name": "recipient",
          "type": "address"
        }
      ],
      "name": "beforeSwap",
      "outputs": [],
      "stateMutability": "nonpayable",
      "type": "function"
    },
    {
      "inputs": [],
      "name": "getFeeVault",
      "outputs": [
        {
          "internalType": "address",
          "name": "",
          "type": "address"
        }
      ],
      "stateMutability": "view",
      "type": "function"
    },
    {
      "inputs": [
        {
          "internalType": "address",
          "name": "token0",
          "type": "address"
        },
        {
          "internalType": "address",
          "name": "token1",
          "type": "address"
        }
      ],
      "name": "getTradeFee",
      "outputs": [
        {
          "internalType": "uint24",
          "name": "",
          "type": "uint24"
        }
      ],
      "stateMutability": "view",
      "type": "function"
    },
    {
      "inputs": [],
      "name": "owner",
      "outputs": [
        {
          "internalType": "address",
          "name": "",
          "type": "address"
        }
      ],
      "stateMutability": "view",
      "type": "function"
    },
    {
      "inputs": [
        {
          "internalType": "address",
          "name": "_quoter",
          "type": "address"
        }
      ],
      "name": "putQuoter",
      "outputs": [],
      "stateMutability": "nonpayable",
      "type": "function"
    },
    {
      "inputs": [],
      "name": "renounceOwnership",
      "outputs": [],
      "stateMutability": "nonpayable",
      "type": "function"
    },
    {
      "inputs": [
        {
          "internalType": "address",
          "name": "newOwner",
          "type": "address"
        }
      ],
      "name": "transferOwnership",
      "outputs": [],
      "stateMutability": "nonpayable",
      "type": "function"
    }
  ],
  "transactionHash": "0x311d254f8b89458f7a332db23837faac57d1010b0d293c1e944d6d10a19b75f5",
  "args": [
    "0x0A35915c7b0cb0f7f33916eEfcC039f0A9bDa0C3",
    "0x8D3b7493C7d033BB44F50268f855B77AD0028DA9"
  ],
  "numDeployments": 6,
  "solcInputHash": "81a7f8e4659dc6e0805a7ecc396f18f6",
  "bytecode": "0x6080346100c057601f61078d38819003918201601f19168301916001600160401b038311848410176100c55780849260409485528339810103126100c05780516001600160a01b0391828216918290036100c05760200151908282168092036100c0576000549060018060a01b0319913383821617600055604051943391167f8be0079c531659141344cd1fd0a4f28419497f9722a3daafe3b4186f6b6457e0600080a381600154161760015560025416176002556106b190816100dc8239f35b600080fd5b634e487b7160e01b600052604160045260246000fdfe6040608081526004908136101561001557600080fd5b6000803560e01c8063715018a6146105485780638da5cb5b1461051c57806391f5bb07146104d7578063ec0f7cf014610437578063f286b19e146101f9578063f2fde38b146101365763f56681bf1461006d57600080fd5b3461011b578160031936011261011b5760206100876105a2565b60446100916105bd565b600154865163f56681bf60e01b81526001600160a01b0394851698810198909852908316602488015286928391165afa92831561012a5781936100de575b60208462ffffff855191168152f35b9092506020813d8211610122575b816100f96020938361062b565b8101031261011e57519162ffffff8316830361011b575062ffffff60206100cf565b80fd5b8280fd5b3d91506100ec565b509051903d90823e3d90fd5b50913461011e57602036600319011261011e576101516105a2565b9061015a6105d3565b6001600160a01b039182169283156101a757505082546001600160a01b0319811683178455167f8be0079c531659141344cd1fd0a4f28419497f9722a3daafe3b4186f6b6457e08380a380f35b906020608492519162461bcd60e51b8352820152602660248201527f4f776e61626c653a206e6577206f776e657220697320746865207a65726f206160448201526564647265737360d01b6064820152fd5b5091903461011e578060031936011261011e576102146105a2565b61021c6105bd565b6003546001600160a01b03939190841690841603610238578480f35b826001541683825180958195635b14f18360e01b835216928388830152602095869160249889915afa9081156103c357889161041a575b506103cd5760025416908251632b09880360e11b8152818782015284818781865afa9081156103c35788916103a6575b5061035657839085845180948193635003a2db60e11b83528a8301525afa90811561034c57869161031f575b506102d4578480f35b5162461bcd60e51b8152928301526023908201527f50726573616c65506f6f6c4d616e616765723a20506f6f6c2069732070656e64604482015262696e6760e81b6064820152608490fd5b61033f9150833d8511610345575b610337818361062b565b810190610663565b386102cb565b503d61032d565b82513d88823e3d90fd5b825162461bcd60e51b81528087018590526025818701527f50726573616c65506f6f6c4d616e616765723a20426f6e64696e6720637572766044820152641948195b9960da1b6064820152608490fd5b6103bd9150853d871161034557610337818361062b565b3861029f565b84513d8a823e3d90fd5b825162461bcd60e51b81528087018590526022818701527f50726573616c65506f6f6c4d616e616765723a20506f6f6c2069732070617573604482015261195960f21b6064820152608490fd5b6104319150853d871161034557610337818361062b565b3861026f565b5091903461011e578260031936011261011e576001548151630ec0f7cf60e41b8152926001600160a01b0392916020918591829086165afa9283156104cd578493610489575b50602093505191168152f35b9092506020813d82116104c5575b816104a46020938361062b565b810103126104c1575181811681036104c15760209350913861047d565b8380fd5b3d9150610497565b81513d86823e3d90fd5b503461011b57602036600319011261011b576104f16105a2565b6104f96105d3565b60018060a01b03166bffffffffffffffffffffffff60a01b600354161760035580f35b509034610544578160031936011261054457905490516001600160a01b039091168152602090f35b5080fd5b503461011b578060031936011261011b576105616105d3565b80546001600160a01b03198116825581906001600160a01b03167f8be0079c531659141344cd1fd0a4f28419497f9722a3daafe3b4186f6b6457e08280a380f35b600435906001600160a01b03821682036105b857565b600080fd5b602435906001600160a01b03821682036105b857565b6000546001600160a01b031633036105e757565b606460405162461bcd60e51b815260206004820152602060248201527f4f776e61626c653a2063616c6c6572206973206e6f7420746865206f776e65726044820152fd5b90601f8019910116810190811067ffffffffffffffff82111761064d57604052565b634e487b7160e01b600052604160045260246000fd5b908160209103126105b8575180151581036105b8579056fea26469706673582212208cdd5cd3a4ab5946caa0206efb305be87f32bf83764bbb2cecd46c71cc94f86f64736f6c63430008130033",
  "devdoc": {
    "kind": "dev",
    "methods": {
      "owner()": {
        "details": "Returns the address of the current owner."
      },
      "renounceOwnership()": {
        "details": "Leaves the contract without owner. It will not be possible to call `onlyOwner` functions. Can only be called by the current owner. NOTE: Renouncing ownership will leave the contract without an owner, thereby disabling any functionality that is only available to the owner."
      },
      "transferOwnership(address)": {
        "details": "Transfers ownership of the contract to a new account (`newOwner`). Can only be called by the current owner."
      }
    },
    "version": 1
  },
  "userdoc": {
    "kind": "user",
    "methods": {},
    "version": 1
  },
  "storageLayout": {
    "storage": [
      {
        "astId": 7383,
        "contract": "contracts/PresalePoolManager.sol:PresalePoolManager",
        "label": "_owner",
        "offset": 0,
        "slot": "0",
        "type": "t_address"
      },
      {
        "astId": 9981,
        "contract": "contracts/PresalePoolManager.sol:PresalePoolManager",
        "label": "config",
        "offset": 0,
        "slot": "1",
        "type": "t_contract(Configuration)9964"
      },
      {
        "astId": 9984,
        "contract": "contracts/PresalePoolManager.sol:PresalePoolManager",
        "label": "manager",
        "offset": 0,
        "slot": "2",
        "type": "t_contract(PresaleManager)10389"
      },
      {
        "astId": 9986,
        "contract": "contracts/PresalePoolManager.sol:PresalePoolManager",
        "label": "quoter",
        "offset": 0,
        "slot": "3",
        "type": "t_address"
      }
    ],
    "types": {
      "t_address": {
        "encoding": "inplace",
        "label": "address",
        "numberOfBytes": "20"
      },
      "t_contract(Configuration)9964": {
        "encoding": "inplace",
        "label": "contract Configuration",
        "numberOfBytes": "20"
      },
      "t_contract(PresaleManager)10389": {
        "encoding": "inplace",
        "label": "contract PresaleManager",
        "numberOfBytes": "20"
      }
    }
  }
}