{
  "address": "0x75Ac48CF0FE5682F4be110b4145daf4b070AbB1F",
  "abi": [
    {
      "inputs": [
        {
          "internalType": "contract Configuration",
          "name": "_config",
          "type": "address"
        }
      ],
      "stateMutability": "nonpayable",
      "type": "constructor"
    },
    {
      "anonymous": false,
      "inputs": [
        {
          "indexed": true,
          "internalType": "address",
          "name": "previousOwner",
          "type": "address"
        },
        {
          "indexed": true,
          "internalType": "address",
          "name": "newOwner",
          "type": "address"
        }
      ],
      "name": "OwnershipTransferred",
      "type": "event"
    },
    {
      "anonymous": false,
      "inputs": [
        {
          "indexed": false,
          "internalType": "string",
          "name": "name",
          "type": "string"
        },
        {
          "indexed": false,
          "internalType": "string",
          "name": "symbol",
          "type": "string"
        },
        {
          "indexed": false,
          "internalType": "address",
          "name": "token",
          "type": "address"
        },
        {
          "indexed": false,
          "internalType": "address",
          "name": "paymentToken",
          "type": "address"
        },
        {
          "indexed": false,
          "internalType": "address",
          "name": "pairAddress",
          "type": "address"
        },
        {
          "indexed": false,
          "internalType": "uint256",
          "name": "presaleAmount",
          "type": "uint256"
        },
        {
          "indexed": false,
          "internalType": "uint256",
          "name": "totalSupply",
          "type": "uint256"
        },
        {
          "indexed": false,
          "internalType": "uint256",
          "name": "saleAmount",
          "type": "uint256"
        },
        {
          "indexed": false,
          "internalType": "string",
          "name": "data",
          "type": "string"
        }
      ],
      "name": "PresaleCreated",
      "type": "event"
    },
    {
      "inputs": [
        {
          "internalType": "address",
          "name": "target",
          "type": "address"
        }
      ],
      "name": "getPresale",
      "outputs": [
        {
          "internalType": "contract IPresale",
          "name": "",
          "type": "address"
        }
      ],
      "stateMutability": "view",
      "type": "function"
    },
    {
      "inputs": [
        {
          "internalType": "address",
          "name": "target",
          "type": "address"
        }
      ],
      "name": "getProgress",
      "outputs": [
        {
          "internalType": "uint256",
          "name": "",
          "type": "uint256"
        }
      ],
      "stateMutability": "view",
      "type": "function"
    },
    {
      "inputs": [
        {
          "internalType": "address",
          "name": "target",
          "type": "address"
        }
      ],
      "name": "isBondingCurveEnd",
      "outputs": [
        {
          "internalType": "bool",
          "name": "",
          "type": "bool"
        }
      ],
      "stateMutability": "view",
      "type": "function"
    },
    {
      "inputs": [
        {
          "internalType": "address",
          "name": "target",
          "type": "address"
        }
      ],
      "name": "isPending",
      "outputs": [
        {
          "internalType": "bool",
          "name": "",
          "type": "bool"
        }
      ],
      "stateMutability": "view",
      "type": "function"
    },
    {
      "inputs": [
        {
          "internalType": "address",
          "name": "",
          "type": "address"
        }
      ],
      "name": "isRegistered",
      "outputs": [
        {
          "internalType": "bool",
          "name": "",
          "type": "bool"
        }
      ],
      "stateMutability": "view",
      "type": "function"
    },
    {
      "inputs": [],
      "name": "owner",
      "outputs": [
        {
          "internalType": "address",
          "name": "",
          "type": "address"
        }
      ],
      "stateMutability": "view",
      "type": "function"
    },
    {
      "inputs": [
        {
          "internalType": "address",
          "name": "",
          "type": "address"
        }
      ],
      "name": "presales",
      "outputs": [
        {
          "internalType": "address",
          "name": "",
          "type": "address"
        }
      ],
      "stateMutability": "view",
      "type": "function"
    },
    {
      "inputs": [
        {
          "internalType": "address",
          "name": "",
          "type": "address"
        }
      ],
      "name": "presalesByPool",
      "outputs": [
        {
          "internalType": "address",
          "name": "",
          "type": "address"
        }
      ],
      "stateMutability": "view",
      "type": "function"
    },
    {
      "inputs": [
        {
          "internalType": "contract IPresale",
          "name": "presale",
          "type": "address"
        }
      ],
      "name": "register",
      "outputs": [],
      "stateMutability": "nonpayable",
      "type": "function"
    },
    {
      "inputs": [],
      "name": "renounceOwnership",
      "outputs": [],
      "stateMutability": "nonpayable",
      "type": "function"
    },
    {
      "inputs": [
        {
          "internalType": "address",
          "name": "newOwner",
          "type": "address"
        }
      ],
      "name": "transferOwnership",
      "outputs": [],
      "stateMutability": "nonpayable",
      "type": "function"
    }
  ],
  "transactionHash": "0x30a603214b2c4a66f380fd89313885c2cfd3a0cd3ad6276d90fad9cb2a2dc58e",
  "args": [
    "0x0A35915c7b0cb0f7f33916eEfcC039f0A9bDa0C3"
  ],
  "numDeployments": 3,
  "solcInputHash": "85e0b14e4b1e7aa9ce3dbddda6a42b55",
  "bytecode": "0x6080346100a757601f610b5838819003918201601f19168301916001600160401b038311848410176100ac578084926020946040528339810103126100a757516001600160a01b0390818116908190036100a75760005460018060a01b0319903382821617600055604051933391167f8be0079c531659141344cd1fd0a4f28419497f9722a3daafe3b4186f6b6457e0600080a36004541617600455610a9590816100c38239f35b600080fd5b634e487b7160e01b600052604160045260246000fdfe608060408181526004908136101561001657600080fd5b600092833560e01c9081634420e486146104b2575080635613100614610419578063715018a6146103bf57806377ce88eb146103845780638da5cb5b1461035c578063a00745b6146102c7578063aef7650114610226578063c3c5a547146101e7578063d4ed77b5146101aa578063efcd708f146101695763f2fde38b1461009d57600080fd5b34610165576020366003190112610165576001600160a01b03823581811693919290849003610161576100ce6107d7565b831561010f57505082546001600160a01b0319811683178455167f8be0079c531659141344cd1fd0a4f28419497f9722a3daafe3b4186f6b6457e08380a380f35b906020608492519162461bcd60e51b8352820152602660248201527f4f776e61626c653a206e6577206f776e657220697320746865207a65726f206160448201526564647265737360d01b6064820152fd5b8480fd5b8280fd5b509034610165576020366003190112610165576001600160a01b039035818116908190036101a65783839160209552600285522054169051908152f35b8380fd5b509034610165576020366003190112610165576001600160a01b039035818116908190036101a65783839160209552600385522054169051908152f35b50903461016557602036600319011261016557356001600160a01b0381169081900361016557818360ff92602095526001855220541690519015158152f35b508290346102c35760209283600319360112610165576001600160a01b0381358181168103610161579061025a8692610a20565b168351928380926349ce222b60e11b82525afa9283156102b8578093610283575b505051908152f35b909192508382813d83116102b1575b61029c818361082f565b810103126102ae57505190838061027b565b80fd5b503d610292565b8251903d90823e3d90fd5b5080fd5b50903461016557602036600319011261016557826001600160a01b0382358181168103610165576102f790610a20565b16835192838092631b80ac7560e11b82525afa908115610350579061012091846020959261032d575b5050015190519042108152f35b61034992503d8091833e610341818361082f565b810190610905565b3880610320565b505051903d90823e3d90fd5b8382346102c357816003193601126102c357905490516001600160a01b039091168152602090f35b5090346101655760203660031901126101655735916001600160a01b039081841684036102ae57506103b7602093610a20565b915191168152f35b83346102ae57806003193601126102ae576103d86107d7565b80546001600160a01b03198116825581906001600160a01b03167f8be0079c531659141344cd1fd0a4f28419497f9722a3daafe3b4186f6b6457e08280a380f35b508290346102c35760209283600319360112610165576001600160a01b0381358181168103610161579061044d8692610a20565b1683519283809263352b263f60e21b82525afa9283156102b8578093610478575b5050519015158152f35b909192508382813d83116104ab575b610491818361082f565b810103126102ae57506104a390610867565b90838061046e565b503d610487565b91929050346101a65760209081600319360112610161576001600160a01b0392813584811691908290036107cc57838160248188875416632066bf6d60e21b825233888301525afa90811561075257879161079e575b501561075c578451636addb66360e01b8152928684848183865af1918215610752578795889689968a956106d5575b50811691828a526001845260ff898b20541661068757908991828a518098631b80ac7560e11b825281845afa96871561067d57926106249998959261065b9895927f5907e68cbd0987ce3c33605889d26eb3a84e33833c3ccb79192c00ca73f707319c98958397610661575b5083835260028552888320906bffffffffffffffffffffffff60a01b91818382541617905560018652898420600160ff198254161790558980890194848651168152600388522091825416179055806060870151169151169161063060808701519460c060a0890151980151988a51809e819e6101208084528301906109fb565b928184039101526109fb565b978a01526060890152608088015260a087015260c086015260e08501528382036101008501526109fb565b0390a180f35b6106769197503d8085833e610341818361082f565b95386105a3565b8a513d85823e3d90fd5b885162461bcd60e51b8152808701859052602260248201527f50726573616c654d616e616765723a20414c52454144595f5245474953544552604482015261115160f21b6064820152608490fd5b975050945091503d8088873e6106eb818761082f565b85019160808684031261074e5761070186610879565b948287015167ffffffffffffffff9081811161074a5785610723918a016108b0565b948989015191821161074a5761073e60609184938b016108b0565b98015194979690610537565b8a80fd5b8780fd5b86513d89823e3d90fd5b5060649184519162461bcd60e51b8352820152601960248201527f50726573616c654d616e616765723a20464f5242494444454e000000000000006044820152fd5b90508381813d83116107d0575b6107b5818361082f565b810103126107cc576107c690610867565b38610508565b8680fd5b503d6107ab565b6000546001600160a01b031633036107eb57565b606460405162461bcd60e51b815260206004820152602060248201527f4f776e61626c653a2063616c6c6572206973206e6f7420746865206f776e65726044820152fd5b90601f8019910116810190811067ffffffffffffffff82111761085157604052565b634e487b7160e01b600052604160045260246000fd5b5190811515820361087457565b600080fd5b51906001600160a01b038216820361087457565b60005b8381106108a05750506000910152565b8181015183820152602001610890565b81601f8201121561087457805167ffffffffffffffff811161085157604051926108e4601f8301601f19166020018561082f565b8184526020828401011161087457610902916020808501910161088d565b90565b60208183031261087457805167ffffffffffffffff9182821161087457019061016092838382031261087457604051938401848110838211176108515760405261094e83610879565b845261095c60208401610879565b602085015261096d60408401610879565b604085015261097e60608401610879565b60608501526080830151608085015260a083015160a085015260c0830151918211610874576109ae9183016108b0565b60c083015260e081015162ffffff811681036108745760e08301526101006109d7818301610867565b9083015261012080820151908301526109f4610140809201610867565b9082015290565b90602091610a148151809281855285808601910161088d565b601f01601f1916010190565b6001600160a01b03908116600090815260026020526040902054811615610a505760026020526040600020541690565b6003602052604060002054169056fea2646970667358221220c832df25e099fdeb3533ff7240b79ef50898d12469889e2dd0b7d8c2d49119dd64736f6c63430008130033",
  "devdoc": {
    "kind": "dev",
    "methods": {
      "owner()": {
        "details": "Returns the address of the current owner."
      },
      "renounceOwnership()": {
        "details": "Leaves the contract without owner. It will not be possible to call `onlyOwner` functions. Can only be called by the current owner. NOTE: Renouncing ownership will leave the contract without an owner, thereby disabling any functionality that is only available to the owner."
      },
      "transferOwnership(address)": {
        "details": "Transfers ownership of the contract to a new account (`newOwner`). Can only be called by the current owner."
      }
    },
    "version": 1
  },
  "userdoc": {
    "kind": "user",
    "methods": {},
    "version": 1
  },
  "storageLayout": {
    "storage": [
      {
        "astId": 20703,
        "contract": "contracts/presale-manager/PresaleManager.sol:PresaleManager",
        "label": "_owner",
        "offset": 0,
        "slot": "0",
        "type": "t_address"
      },
      {
        "astId": 26897,
        "contract": "contracts/presale-manager/PresaleManager.sol:PresaleManager",
        "label": "isRegistered",
        "offset": 0,
        "slot": "1",
        "type": "t_mapping(t_address,t_bool)"
      },
      {
        "astId": 26901,
        "contract": "contracts/presale-manager/PresaleManager.sol:PresaleManager",
        "label": "presales",
        "offset": 0,
        "slot": "2",
        "type": "t_mapping(t_address,t_address)"
      },
      {
        "astId": 26905,
        "contract": "contracts/presale-manager/PresaleManager.sol:PresaleManager",
        "label": "presalesByPool",
        "offset": 0,
        "slot": "3",
        "type": "t_mapping(t_address,t_address)"
      },
      {
        "astId": 26908,
        "contract": "contracts/presale-manager/PresaleManager.sol:PresaleManager",
        "label": "config",
        "offset": 0,
        "slot": "4",
        "type": "t_contract(Configuration)25943"
      }
    ],
    "types": {
      "t_address": {
        "encoding": "inplace",
        "label": "address",
        "numberOfBytes": "20"
      },
      "t_bool": {
        "encoding": "inplace",
        "label": "bool",
        "numberOfBytes": "1"
      },
      "t_contract(Configuration)25943": {
        "encoding": "inplace",
        "label": "contract Configuration",
        "numberOfBytes": "20"
      },
      "t_mapping(t_address,t_address)": {
        "encoding": "mapping",
        "key": "t_address",
        "label": "mapping(address => address)",
        "numberOfBytes": "32",
        "value": "t_address"
      },
      "t_mapping(t_address,t_bool)": {
        "encoding": "mapping",
        "key": "t_address",
        "label": "mapping(address => bool)",
        "numberOfBytes": "32",
        "value": "t_bool"
      }
    }
  }
}