{
  "address": "0x5FEbF49D3d4A1f119e81D07696B6B100bcAc40EC",
  "abi": [
    {
      "inputs": [
        {
          "internalType": "contract Configuration",
          "name": "_config",
          "type": "address"
        },
        {
          "internalType": "contract PresaleManager",
          "name": "_manager",
          "type": "address"
        }
      ],
      "stateMutability": "nonpayable",
      "type": "constructor"
    },
    {
      "anonymous": false,
      "inputs": [
        {
          "indexed": true,
          "internalType": "address",
          "name": "previousOwner",
          "type": "address"
        },
        {
          "indexed": true,
          "internalType": "address",
          "name": "newOwner",
          "type": "address"
        }
      ],
      "name": "OwnershipTransferred",
      "type": "event"
    },
    {
      "inputs": [
        {
          "internalType": "address",
          "name": "pool",
          "type": "address"
        },
        {
          "internalType": "uint256",
          "name": "deadline",
          "type": "uint256"
        }
      ],
      "name": "afterSwap",
      "outputs": [],
      "stateMutability": "nonpayable",
      "type": "function"
    },
    {
      "inputs": [
        {
          "internalType": "address",
          "name": "pool",
          "type": "address"
        },
        {
          "internalType": "address",
          "name": "recipient",
          "type": "address"
        }
      ],
      "name": "beforeSwap",
      "outputs": [],
      "stateMutability": "nonpayable",
      "type": "function"
    },
    {
      "inputs": [],
      "name": "getFeeVault",
      "outputs": [
        {
          "internalType": "address",
          "name": "",
          "type": "address"
        }
      ],
      "stateMutability": "view",
      "type": "function"
    },
    {
      "inputs": [
        {
          "internalType": "address",
          "name": "token0",
          "type": "address"
        },
        {
          "internalType": "address",
          "name": "token1",
          "type": "address"
        }
      ],
      "name": "getTradeFee",
      "outputs": [
        {
          "internalType": "uint24",
          "name": "",
          "type": "uint24"
        }
      ],
      "stateMutability": "view",
      "type": "function"
    },
    {
      "inputs": [
        {
          "internalType": "address",
          "name": "maker",
          "type": "address"
        }
      ],
      "name": "isWhitelistedMaker",
      "outputs": [
        {
          "internalType": "bool",
          "name": "",
          "type": "bool"
        }
      ],
      "stateMutability": "view",
      "type": "function"
    },
    {
      "inputs": [],
      "name": "owner",
      "outputs": [
        {
          "internalType": "address",
          "name": "",
          "type": "address"
        }
      ],
      "stateMutability": "view",
      "type": "function"
    },
    {
      "inputs": [
        {
          "internalType": "address",
          "name": "_quoter",
          "type": "address"
        }
      ],
      "name": "putQuoter",
      "outputs": [],
      "stateMutability": "nonpayable",
      "type": "function"
    },
    {
      "inputs": [],
      "name": "renounceOwnership",
      "outputs": [],
      "stateMutability": "nonpayable",
      "type": "function"
    },
    {
      "inputs": [
        {
          "internalType": "address",
          "name": "newOwner",
          "type": "address"
        }
      ],
      "name": "transferOwnership",
      "outputs": [],
      "stateMutability": "nonpayable",
      "type": "function"
    }
  ],
  "transactionHash": "0x5a35063e4a3f931acb9d9a5a1b18fe58058d1c3d0a956c79bce5989c9aeecf84",
  "args": [
    "0x45Be544Ae3d91f242cBb7A0F577c488b20AbDc60",
    "0xA0f088121fA09f8392A696500C90C315b07602C2"
  ],
  "numDeployments": 7,
  "solcInputHash": "5b2a5e435cceb017121b2655ff78610b",
  "bytecode": "0x6080346100c057601f610ab138819003918201601f19168301916001600160401b038311848410176100c55780849260409485528339810103126100c05780516001600160a01b0391828216918290036100c05760200151908282168092036100c0576000549060018060a01b0319913383821617600055604051943391167f8be0079c531659141344cd1fd0a4f28419497f9722a3daafe3b4186f6b6457e0600080a381600154161760015560025416176002556109d590816100dc8239f35b600080fd5b634e487b7160e01b600052604160045260246000fdfe6040608081526004908136101561001557600080fd5b6000803560e01c8063390629091461062c578063715018a6146105d25780638da5cb5b146105a657806391f5bb0714610561578063e4b9f08f146104d6578063ec0f7cf01461044d578063f286b19e1461020f578063f2fde38b1461014c5763f56681bf1461008357600080fd5b34610131578160031936011261013157602061009d610654565b60446100a761066f565b600154865163f56681bf60e01b81526001600160a01b0394851698810198909852908316602488015286928391165afa9283156101405781936100f4575b60208462ffffff855191168152f35b9092506020813d8211610138575b8161010f602093836106dd565b8101031261013457519162ffffff83168303610131575062ffffff60206100e5565b80fd5b8280fd5b3d9150610102565b509051903d90823e3d90fd5b50913461013457602036600319011261013457610167610654565b90610170610685565b6001600160a01b039182169283156101bd57505082546001600160a01b0319811683178455167f8be0079c531659141344cd1fd0a4f28419497f9722a3daafe3b4186f6b6457e08380a380f35b906020608492519162461bcd60e51b8352820152602660248201527f4f776e61626c653a206e6577206f776e657220697320746865207a65726f206160448201526564647265737360d01b6064820152fd5b5091903461013457806003193601126101345761022a610654565b61023261066f565b6003546001600160a01b0393919084169084160361024e578480f35b826001541683825180958195635b14f18360e01b835216928388830152602095869160249889915afa9081156103d9578891610430575b506103e35760025416908251632b09880360e11b8152818782015284818781865afa9081156103d95788916103bc575b5061036c57839085845180948193635003a2db60e11b83528a8301525afa908115610362578691610335575b506102ea578480f35b5162461bcd60e51b8152928301526023908201527f50726573616c65506f6f6c4d616e616765723a20506f6f6c2069732070656e64604482015262696e6760e81b6064820152608490fd5b6103559150833d851161035b575b61034d81836106dd565b810190610734565b386102e1565b503d610343565b82513d88823e3d90fd5b825162461bcd60e51b81528087018590526025818701527f50726573616c65506f6f6c4d616e616765723a20426f6e64696e6720637572766044820152641948195b9960da1b6064820152608490fd5b6103d39150853d871161035b5761034d81836106dd565b386102b5565b84513d8a823e3d90fd5b825162461bcd60e51b81528087018590526022818701527f50726573616c65506f6f6c4d616e616765723a20506f6f6c2069732070617573604482015261195960f21b6064820152608490fd5b6104479150853d871161035b5761034d81836106dd565b38610285565b509190346101345782600319360112610134576001548151630ec0f7cf60e41b8152926001600160a01b0392916020918591829086165afa9283156104cc576020949361049d575b505191168152f35b6104be919350843d81116104c5575b6104b681836106dd565b810190610715565b9138610495565b503d6104ac565b81513d86823e3d90fd5b509190346101345760203660031901126101345760206104f4610654565b6001548351632066bf6d60e21b81526001600160a01b039283169581019590955284916024918391165afa9182156105575760209392610538575b50519015158152f35b610550919250833d811161035b5761034d81836106dd565b903861052f565b81513d85823e3d90fd5b50346101315760203660031901126101315761057b610654565b610583610685565b60018060a01b03166bffffffffffffffffffffffff60a01b600354161760035580f35b5090346105ce57816003193601126105ce57905490516001600160a01b039091168152602090f35b5080fd5b50346101315780600319360112610131576105eb610685565b80546001600160a01b03198116825581906001600160a01b03167f8be0079c531659141344cd1fd0a4f28419497f9722a3daafe3b4186f6b6457e08280a380f35b5090346105ce5736600319011261013157610651610648610654565b6024359061074c565b80f35b600435906001600160a01b038216820361066a57565b600080fd5b602435906001600160a01b038216820361066a57565b6000546001600160a01b0316330361069957565b606460405162461bcd60e51b815260206004820152602060248201527f4f776e61626c653a2063616c6c6572206973206e6f7420746865206f776e65726044820152fd5b90601f8019910116810190811067ffffffffffffffff8211176106ff57604052565b634e487b7160e01b600052604160045260246000fd5b9081602091031261066a57516001600160a01b038116810361066a5790565b9081602091031261066a5751801515810361066a5790565b60025460408051632b09880360e11b81526001600160a01b0393841660048083018290529294602494919290916020919083169082818881855afa90811561096d57600091610982575b501561097857848284600154168951928380926301cc382760e71b82525afa90811561096d57908491600091610950575b50169384156109455787516377ce88eb60e01b808252878201839052919084818a81875afa90811561091b57878a8a898e8a95600097610926575b505195869485936302f1b49760e21b8552840152165afa90811561091b576000916108fe575b5061083a575b50505050505050505050565b8784928a51948593849283528a8301525afa9182156108f3576000926108d6575b50501694853b1561066a5760446000928387519889948593631f72642160e31b855288850152888401525af180156108cb5761089d575b80808080808061082e565b67ffffffffffffffff84116108b85750505238808080610892565b604190634e487b7160e01b600052526000fd5b83513d6000823e3d90fd5b6108ec9250803d106104c5576104b681836106dd565b388061085b565b87513d6000823e3d90fd5b6109159150853d871161035b5761034d81836106dd565b38610828565b8a513d6000823e3d90fd5b61093e919750863d88116104c5576104b681836106dd565b9538610802565b505050505050505050565b6109679150843d86116104c5576104b681836106dd565b386107c7565b88513d6000823e3d90fd5b5050505050505050565b6109999150833d851161035b5761034d81836106dd565b3861079656fea26469706673582212203d8a976462d17fb5138e9c35875fb084a34703d9d847a1b60e39d92f36c9114864736f6c63430008130033",
  "devdoc": {
    "kind": "dev",
    "methods": {
      "owner()": {
        "details": "Returns the address of the current owner."
      },
      "renounceOwnership()": {
        "details": "Leaves the contract without owner. It will not be possible to call `onlyOwner` functions. Can only be called by the current owner. NOTE: Renouncing ownership will leave the contract without an owner, thereby disabling any functionality that is only available to the owner."
      },
      "transferOwnership(address)": {
        "details": "Transfers ownership of the contract to a new account (`newOwner`). Can only be called by the current owner."
      }
    },
    "version": 1
  },
  "userdoc": {
    "kind": "user",
    "methods": {},
    "version": 1
  },
  "storageLayout": {
    "storage": [
      {
        "astId": 20930,
        "contract": "contracts/PresalePoolManager.sol:PresalePoolManager",
        "label": "_owner",
        "offset": 0,
        "slot": "0",
        "type": "t_address"
      },
      {
        "astId": 26724,
        "contract": "contracts/PresalePoolManager.sol:PresalePoolManager",
        "label": "config",
        "offset": 0,
        "slot": "1",
        "type": "t_contract(Configuration)26705"
      },
      {
        "astId": 26727,
        "contract": "contracts/PresalePoolManager.sol:PresalePoolManager",
        "label": "manager",
        "offset": 0,
        "slot": "2",
        "type": "t_contract(PresaleManager)28043"
      },
      {
        "astId": 26729,
        "contract": "contracts/PresalePoolManager.sol:PresalePoolManager",
        "label": "quoter",
        "offset": 0,
        "slot": "3",
        "type": "t_address"
      }
    ],
    "types": {
      "t_address": {
        "encoding": "inplace",
        "label": "address",
        "numberOfBytes": "20"
      },
      "t_contract(Configuration)26705": {
        "encoding": "inplace",
        "label": "contract Configuration",
        "numberOfBytes": "20"
      },
      "t_contract(PresaleManager)28043": {
        "encoding": "inplace",
        "label": "contract PresaleManager",
        "numberOfBytes": "20"
      }
    }
  }
}