{
  "address": "0x632707347E49937C2b8507857A00deC9Bdf1365c",
  "abi": [
    {
      "inputs": [
        {
          "internalType": "address",
          "name": "_factory",
          "type": "address"
        },
        {
          "internalType": "address",
          "name": "_WETH9",
          "type": "address"
        }
      ],
      "stateMutability": "nonpayable",
      "type": "constructor"
    },
    {
      "inputs": [],
      "name": "WETH9",
      "outputs": [
        {
          "internalType": "address",
          "name": "",
          "type": "address"
        }
      ],
      "stateMutability": "view",
      "type": "function"
    },
    {
      "inputs": [],
      "name": "factory",
      "outputs": [
        {
          "internalType": "address",
          "name": "",
          "type": "address"
        }
      ],
      "stateMutability": "view",
      "type": "function"
    },
    {
      "inputs": [
        {
          "internalType": "bytes",
          "name": "path",
          "type": "bytes"
        },
        {
          "internalType": "uint256",
          "name": "amountIn",
          "type": "uint256"
        }
      ],
      "name": "quoteExactInput",
      "outputs": [
        {
          "internalType": "uint256",
          "name": "amountOut",
          "type": "uint256"
        }
      ],
      "stateMutability": "nonpayable",
      "type": "function"
    },
    {
      "inputs": [
        {
          "internalType": "address",
          "name": "tokenIn",
          "type": "address"
        },
        {
          "internalType": "address",
          "name": "tokenOut",
          "type": "address"
        },
        {
          "internalType": "uint24",
          "name": "fee",
          "type": "uint24"
        },
        {
          "internalType": "uint256",
          "name": "amountIn",
          "type": "uint256"
        },
        {
          "internalType": "uint160",
          "name": "sqrtPriceLimitX96",
          "type": "uint160"
        }
      ],
      "name": "quoteExactInputSingle",
      "outputs": [
        {
          "internalType": "uint256",
          "name": "amountOut",
          "type": "uint256"
        }
      ],
      "stateMutability": "nonpayable",
      "type": "function"
    },
    {
      "inputs": [
        {
          "internalType": "bytes",
          "name": "path",
          "type": "bytes"
        },
        {
          "internalType": "uint256",
          "name": "amountOut",
          "type": "uint256"
        }
      ],
      "name": "quoteExactOutput",
      "outputs": [
        {
          "internalType": "uint256",
          "name": "amountIn",
          "type": "uint256"
        }
      ],
      "stateMutability": "nonpayable",
      "type": "function"
    },
    {
      "inputs": [
        {
          "internalType": "address",
          "name": "tokenIn",
          "type": "address"
        },
        {
          "internalType": "address",
          "name": "tokenOut",
          "type": "address"
        },
        {
          "internalType": "uint24",
          "name": "fee",
          "type": "uint24"
        },
        {
          "internalType": "uint256",
          "name": "amountOut",
          "type": "uint256"
        },
        {
          "internalType": "uint160",
          "name": "sqrtPriceLimitX96",
          "type": "uint160"
        }
      ],
      "name": "quoteExactOutputSingle",
      "outputs": [
        {
          "internalType": "uint256",
          "name": "amountIn",
          "type": "uint256"
        }
      ],
      "stateMutability": "nonpayable",
      "type": "function"
    },
    {
      "inputs": [
        {
          "internalType": "int256",
          "name": "amount0Delta",
          "type": "int256"
        },
        {
          "internalType": "int256",
          "name": "amount1Delta",
          "type": "int256"
        },
        {
          "internalType": "bytes",
          "name": "path",
          "type": "bytes"
        }
      ],
      "name": "uniswapV3SwapCallback",
      "outputs": [],
      "stateMutability": "view",
      "type": "function"
    }
  ],
  "transactionHash": "0x5711a293afc2e8382366dc23b0a9c3f16b09e1c5afdd7eaa9268d6bc46b22665",
  "args": [
    "0x5374D29cD8bc5C51322cB5ba03E81f3E4594129a",
    "0x678c34581db0a7808d0aC669d7025f1408C9a3C6"
  ],
  "numDeployments": 3,
  "solcInputHash": "8737658672b52083bbd2bd376e15aa42",
  "bytecode": "0x60c03461008857601f610e1938819003918201601f19168301916001600160401b0383118484101761008d57808492604094855283398101031261008857610052602061004b836100a3565b92016100a3565b9060805260a052604051610d6190816100b8823960805181818161028301528181610355015261055f015260a0518161023e0152f35b600080fd5b634e487b7160e01b600052604160045260246000fd5b51906001600160a01b03821682036100885756fe6080604052600436101561001257600080fd5b60003560e01c80632f80bb1d146100ab57806330d07f21146100825780634aa4a4fc1461007d578063c45a015514610078578063cdca175314610073578063f7729d431461006e5763fa461e331461006957600080fd5b6102e7565b6102cb565b6102b2565b61026d565b610228565b346100a657602061009e610095366101df565b939290926108d5565b604051908152f35b600080fd5b346100a657602061009e6100be3661019c565b906109c2565b634e487b7160e01b600052604160045260246000fd5b6060810190811067ffffffffffffffff8211176100f657604052565b6100c4565b6080810190811067ffffffffffffffff8211176100f657604052565b90601f8019910116810190811067ffffffffffffffff8211176100f657604052565b67ffffffffffffffff81116100f657601f01601f191660200190565b81601f820112156100a65780359061016c82610139565b9261017a6040519485610117565b828452602083830101116100a657816000926020809301838601378301015290565b60406003198201126100a6576004359067ffffffffffffffff82116100a6576101c791600401610155565b9060243590565b6001600160a01b038116036100a657565b60a09060031901126100a6576004356101f7816101ce565b90602435610204816101ce565b9060443562ffffff811681036100a6579060643590608435610225816101ce565b90565b346100a65760003660031901126100a6576040517f00000000000000000000000000000000000000000000000000000000000000006001600160a01b03168152602090f35b346100a65760003660031901126100a6576040517f00000000000000000000000000000000000000000000000000000000000000006001600160a01b03168152602090f35b346100a657602061009e6102c53661019c565b906107ff565b346100a657602061009e6102de366101df565b93929092610651565b346100a65760603660031901126100a65760243560443560043567ffffffffffffffff82116100a657602092610353610327610379943690600401610155565b91600092610348848613918280156103ec575b610343906103f5565b610a29565b818396929993610c00565b7f00000000000000000000000000000000000000000000000000000000000000006109f0565b50156103ca5761038890610412565b92936001600160a01b039081169116105b156103a8578382604051908152fd5b54806103b9575b5050604051908152fd5b6103c391146103f5565b38806103af565b926103d790949194610412565b92936001600160a01b03908116911610610399565b5085841361033a565b156100a657565b634e487b7160e01b600052601160045260246000fd5b600160ff1b81146104235760000390565b6103fc565b606091821b6bffffffffffffffffffffffff19908116825260e89390931b6001600160e81b031916601482015292901b166017820152602b0190565b91908260409103126100a6576020825192015190565b60005b83811061048d5750506000910152565b818101518382015260200161047d565b906020916104b68151809281855285808601910161047a565b601f01601f1916010190565b6001600160a01b039182168152911515602083015260408201929092529116606082015260a0608082018190526102259291019061049d565b3d15610526573d9061050c82610139565b9161051a6040519384610117565b82523d6000602084013e565b606090565b60009360409291856001600160a01b0380851681841610906105c590610596906105909061058361055d8c8b8a610c00565b7f0000000000000000000000000000000000000000000000000000000000000000610c5c565b166001600160a01b031690565b956106db565b93828414610633576105b76401000276a4975b89519a8b9360208501610428565b03601f198101895288610117565b6105e5865197889687958694630251596160e31b865230600487016104c2565b03925af19081610606575b5061022557506102256106016104fb565b610769565b6106269060403d811161062c575b61061e8183610117565b810190610464565b506105f0565b503d610614565b6105b773fffd8963efd1fc6a506488495d951d5263988d25976105a9565b9392604092936000856105c5829860018060a01b03946106896106838761058361055d828d1683881610988d88610c00565b976106db565b9581161585146106d157508284146106b4576105b76401000276a45b9789519a8b9360208501610428565b6105b773fffd8963efd1fc6a506488495d951d5263988d256106a5565b6105b790976105a9565b600160ff1b8110156100a65790565b6020818303126100a65780519067ffffffffffffffff82116100a6570181601f820112156100a657805161071d81610139565b9261072b6040519485610117565b818452602082840101116100a657610225916020808501910161047a565b90602061022592818152019061049d565b908160209103126100a6575190565b80815160208103610789575050806020806102259351830101910161075a565b60448391106107c7576107c39160248060046107ab94015183010191016106ea565b60405162461bcd60e51b815291829160048301610749565b0390fd5b60405162461bcd60e51b815260206004820152601060248201526f2ab732bc3832b1ba32b21032b93937b960811b6044820152606490fd5b6108186042825110159261081283610a29565b9161052b565b911561082c5761082790610ae2565b6107ff565b5090565b600084815593604092856001600160a01b038083168582161090610873906105969061086e906108689061058361055d8d8a8d610c00565b966106db565b610412565b610893865197889687958694630251596160e31b865230600487016104c2565b03925af190816108b8575b5061022557506102256108af6104fb565b60008055610769565b6108cf9060403d811161062c5761061e8183610117565b5061089e565b949391906000958460009485600160a01b60019003948686821687871610918087898716159c60409a6105838f610947976109219661086e966106839661055d946109ba575b50610c00565b948b156106d1575082156106b4576105b76401000276a49789519a8b9360208501610428565b610967865197889687958694630251596160e31b865230600487016104c2565b03925af1908161099d575b50610999576102259293506109856104fb565b91610991575b50610769565b80553861098b565b5050565b6109b49060403d811161062c5761061e8183610117565b50610972565b8d558e61091b565b6109dc604282511015926109d583610a29565b9190610830565b911561082c576109eb90610ae2565b6109c2565b6001600160a01b0391610a0291610c5c565b16908133036100a657565b90601f820180921161042357565b601701908160171161042357565b906014825110610a9257602082015160601c916017815110610a5657610a53601782015191610acf565b91565b60405162461bcd60e51b8152602060048201526014602482015273746f55696e7432345f6f75744f66426f756e647360601b6044820152606490fd5b60405162461bcd60e51b8152602060048201526015602482015274746f416464726573735f6f75744f66426f756e647360581b6044820152606490fd5b602b815110610a92576037015160601c90565b8051601619918282019082821161042357610b0782610b0081610a0d565b1015610b83565b610b1c8151610b1584610a1b565b1115610bc0565b60178303610b395750505050604051600081526020810160405290565b601760405194601f8416801560051b9182828901019687010193010101905b808410610b705750508252601f01601f191660405290565b9092835181526020809101930190610b58565b15610b8a57565b60405162461bcd60e51b815260206004820152600e60248201526d736c6963655f6f766572666c6f7760901b6044820152606490fd5b15610bc757565b60405162461bcd60e51b8152602060048201526011602482015270736c6963655f6f75744f66426f756e647360781b6044820152606490fd5b9162ffffff91600060408051610c15816100da565b8281526020810183905201526001600160a01b039080821685831611610c56575b8160405195610c44876100da565b16855216602084015216604082015290565b93610c36565b815160208301516001600160a01b0390811693929116838110156100a6576102259362ffffff6040610d1f9501511660405191602083019384526040830152606082015260608152610cad816100fb565b51902060405190602082019260ff60f81b84526bffffffffffffffffffffffff199060601b16602183015260358201527fc253ff91edc1da07ea9b895658bc7aeeebb58a9add3f9ff4aa659c08ae8d2816605582015260558152610d10816100fb565b5190206001600160a01b031690565b6001600160a01b03169056fea26469706673582212201acaa37b12bf5df6d6ae3e4347a5dd16931d47f6046d7d8e3ca81e2c9a5cc79f64736f6c63430008130033",
  "devdoc": {
    "details": "These functions are not gas efficient and should _not_ be called on chain. Instead, optimistically execute the swap and check the amounts in the callback.",
    "kind": "dev",
    "methods": {
      "quoteExactInput(bytes,uint256)": {
        "params": {
          "amountIn": "The amount of the first token to swap",
          "path": "The path of the swap, i.e. each token pair and the pool fee"
        },
        "returns": {
          "amountOut": "The amount of the last token that would be received"
        }
      },
      "quoteExactInputSingle(address,address,uint24,uint256,uint160)": {
        "params": {
          "amountIn": "The desired input amount",
          "fee": "The fee of the token pool to consider for the pair",
          "sqrtPriceLimitX96": "The price limit of the pool that cannot be exceeded by the swap",
          "tokenIn": "The token being swapped in",
          "tokenOut": "The token being swapped out"
        },
        "returns": {
          "amountOut": "The amount of `tokenOut` that would be received"
        }
      },
      "quoteExactOutput(bytes,uint256)": {
        "params": {
          "amountOut": "The amount of the last token to receive",
          "path": "The path of the swap, i.e. each token pair and the pool fee. Path must be provided in reverse order"
        },
        "returns": {
          "amountIn": "The amount of first token required to be paid"
        }
      },
      "quoteExactOutputSingle(address,address,uint24,uint256,uint160)": {
        "params": {
          "amountOut": "The desired output amount",
          "fee": "The fee of the token pool to consider for the pair",
          "sqrtPriceLimitX96": "The price limit of the pool that cannot be exceeded by the swap",
          "tokenIn": "The token being swapped in",
          "tokenOut": "The token being swapped out"
        },
        "returns": {
          "amountIn": "The amount required as the input for the swap in order to receive `amountOut`"
        }
      },
      "uniswapV3SwapCallback(int256,int256,bytes)": {
        "details": "In the implementation you must pay the pool tokens owed for the swap. The caller of this method must be checked to be a UniswapV3Pool deployed by the canonical UniswapV3Factory. amount0Delta and amount1Delta can both be 0 if no tokens were swapped.",
        "params": {
          "amount0Delta": "The amount of token0 that was sent (negative) or must be received (positive) by the pool by the end of the swap. If positive, the callback must send that amount of token0 to the pool.",
          "amount1Delta": "The amount of token1 that was sent (negative) or must be received (positive) by the pool by the end of the swap. If positive, the callback must send that amount of token1 to the pool.",
          "data": "Any data passed through by the caller via the IUniswapV3PoolActions#swap call"
        }
      }
    },
    "stateVariables": {
      "amountOutCached": {
        "details": "Transient storage variable used to check a safety condition in exact output swaps."
      }
    },
    "title": "Provides quotes for swaps",
    "version": 1
  },
  "userdoc": {
    "kind": "user",
    "methods": {
      "quoteExactInput(bytes,uint256)": {
        "notice": "Returns the amount out received for a given exact input swap without executing the swap"
      },
      "quoteExactInputSingle(address,address,uint24,uint256,uint160)": {
        "notice": "Returns the amount out received for a given exact input but for a swap of a single pool"
      },
      "quoteExactOutput(bytes,uint256)": {
        "notice": "Returns the amount in required for a given exact output swap without executing the swap"
      },
      "quoteExactOutputSingle(address,address,uint24,uint256,uint160)": {
        "notice": "Returns the amount in required to receive the given exact output amount but for a swap of a single pool"
      },
      "uniswapV3SwapCallback(int256,int256,bytes)": {
        "notice": "Called to `msg.sender` after executing a swap via IUniswapV3Pool#swap."
      }
    },
    "notice": "Allows getting the expected amount out or amount in for a given swap without executing the swap",
    "version": 1
  },
  "storageLayout": {
    "storage": [
      {
        "astId": 9063,
        "contract": "@kayen/uniswap-v3-periphery/contracts/lens/Quoter.sol:Quoter",
        "label": "amountOutCached",
        "offset": 0,
        "slot": "0",
        "type": "t_uint256"
      }
    ],
    "types": {
      "t_uint256": {
        "encoding": "inplace",
        "label": "uint256",
        "numberOfBytes": "32"
      }
    }
  }
}