{
  "address": "0xbF601a96b3fC3e41d67Fc9B615F26E5AEd8D5BB4",
  "abi": [
    {
      "inputs": [],
      "stateMutability": "nonpayable",
      "type": "constructor"
    },
    {
      "inputs": [
        {
          "internalType": "string",
          "name": "name",
          "type": "string"
        },
        {
          "internalType": "string",
          "name": "symbol",
          "type": "string"
        },
        {
          "internalType": "uint256",
          "name": "totalSupply",
          "type": "uint256"
        }
      ],
      "name": "create",
      "outputs": [
        {
          "internalType": "address",
          "name": "",
          "type": "address"
        }
      ],
      "stateMutability": "nonpayable",
      "type": "function"
    },
    {
      "inputs": [],
      "name": "implementation",
      "outputs": [
        {
          "internalType": "contract CommonToken",
          "name": "",
          "type": "address"
        }
      ],
      "stateMutability": "view",
      "type": "function"
    }
  ],
  "transactionHash": "0x6d954b10fac3d92760e6ba51fd9c52b883f777b8d74b3b40500c485237a7a7f0",
  "args": [],
  "numDeployments": 2,
  "solcInputHash": "fe4236ec33831dd4fcec0a9b276b32bd",
  "bytecode": "0x608060405234801561001057600080fd5b5060405161001d9061005f565b604051809103906000f080158015610039573d6000803e3d6000fd5b50600080546001600160a01b0319166001600160a01b039290921691909117905561006c565b611229806109ee83390190565b6109738061007b6000396000f3fe608060405234801561001057600080fd5b50600436106100365760003560e01c80633ca6d1001461003b5780635c60da1b1461006a575b600080fd5b61004e610049366004610305565b61007d565b6040516001600160a01b03909116815260200160405180910390f35b60005461004e906001600160a01b031681565b6000805460405182916001600160a01b031690819063b119490e906100aa908990899089906024016103b8565b604051602081830303815290604052915060e01b6020820180516001600160e01b0383818316178352505050506040516100e390610255565b6100ee9291906103ee565b604051809103906000f08015801561010a573d6000803e3d6000fd5b5060405163f2fde38b60e01b815233600482015290915081906001600160a01b0382169063f2fde38b90602401600060405180830381600087803b15801561015157600080fd5b505af1158015610165573d6000803e3d6000fd5b50506040516370a0823160e01b81523060048201526001600160a01b038416925063a9059cbb9150339083906370a0823190602401602060405180830381865afa1580156101b7573d6000803e3d6000fd5b505050506040513d601f19601f820116820180604052508101906101db919061041a565b6040516001600160e01b031960e085901b1681526001600160a01b03909216600483015260248201526044016020604051808303816000875af1158015610226573d6000803e3d6000fd5b505050506040513d601f19601f8201168201806040525081019061024a9190610433565b509095945050505050565b6104e18061045d83390190565b634e487b7160e01b600052604160045260246000fd5b600082601f83011261028957600080fd5b813567ffffffffffffffff808211156102a4576102a4610262565b604051601f8301601f19908116603f011681019082821181831017156102cc576102cc610262565b816040528381528660208588010111156102e557600080fd5b836020870160208301376000602085830101528094505050505092915050565b60008060006060848603121561031a57600080fd5b833567ffffffffffffffff8082111561033257600080fd5b61033e87838801610278565b9450602086013591508082111561035457600080fd5b5061036186828701610278565b925050604084013590509250925092565b6000815180845260005b818110156103985760208185018101518683018201520161037c565b506000602082860101526020601f19601f83011685010191505092915050565b6060815260006103cb6060830186610372565b82810360208401526103dd8186610372565b915050826040830152949350505050565b6001600160a01b038316815260406020820181905260009061041290830184610372565b949350505050565b60006020828403121561042c57600080fd5b5051919050565b60006020828403121561044557600080fd5b8151801515811461045557600080fd5b939250505056fe60806040526040516104e13803806104e1833981016040819052610022916102de565b61002e82826000610035565b50506103fb565b61003e83610061565b60008251118061004b5750805b1561005c5761005a83836100a1565b505b505050565b61006a816100cd565b6040516001600160a01b038216907fbc7cd75a20ee27fd9adebab32041f755214dbc6bffa90cc0225b39da2e5c2d3b90600090a250565b60606100c683836040518060600160405280602781526020016104ba60279139610180565b9392505050565b6001600160a01b0381163b61013f5760405162461bcd60e51b815260206004820152602d60248201527f455243313936373a206e657720696d706c656d656e746174696f6e206973206e60448201526c1bdd08184818dbdb9d1c9858dd609a1b60648201526084015b60405180910390fd5b7f360894a13ba1a3210667c828492db98dca3e2076cc3735a920a3ca505d382bbc80546001600160a01b0319166001600160a01b0392909216919091179055565b6060600080856001600160a01b03168560405161019d91906103ac565b600060405180830381855af49150503d80600081146101d8576040519150601f19603f3d011682016040523d82523d6000602084013e6101dd565b606091505b5090925090506101ef868383876101f9565b9695505050505050565b60608315610268578251600003610261576001600160a01b0385163b6102615760405162461bcd60e51b815260206004820152601d60248201527f416464726573733a2063616c6c20746f206e6f6e2d636f6e74726163740000006044820152606401610136565b5081610272565b610272838361027a565b949350505050565b81511561028a5781518083602001fd5b8060405162461bcd60e51b815260040161013691906103c8565b634e487b7160e01b600052604160045260246000fd5b60005b838110156102d55781810151838201526020016102bd565b50506000910152565b600080604083850312156102f157600080fd5b82516001600160a01b038116811461030857600080fd5b60208401519092506001600160401b038082111561032557600080fd5b818501915085601f83011261033957600080fd5b81518181111561034b5761034b6102a4565b604051601f8201601f19908116603f01168101908382118183101715610373576103736102a4565b8160405282815288602084870101111561038c57600080fd5b61039d8360208301602088016102ba565b80955050505050509250929050565b600082516103be8184602087016102ba565b9190910192915050565b60208152600082518060208401526103e78160408501602087016102ba565b601f01601f19169190910160400192915050565b60b1806104096000396000f3fe608060405236601057600e6013565b005b600e5b601f601b6021565b6058565b565b600060537f360894a13ba1a3210667c828492db98dca3e2076cc3735a920a3ca505d382bbc546001600160a01b031690565b905090565b3660008037600080366000845af43d6000803e8080156076573d6000f35b3d6000fdfea26469706673582212203c131666826ae7ba7b39f284f539bba268b7dee390371ce2f7e02e16af3f502464736f6c63430008130033416464726573733a206c6f772d6c6576656c2064656c65676174652063616c6c206661696c6564a2646970667358221220e35213efab5037d8b77777b1e304d1725fe420d084ec65d75c8f41f3b84fb82164736f6c63430008130033608060405234801561001057600080fd5b50611209806100206000396000f3fe608060405234801561001057600080fd5b506004361061010b5760003560e01c806370a08231116100a2578063a457c2d711610071578063a457c2d714610209578063a9059cbb1461021c578063b119490e1461022f578063dd62ed3e14610242578063f2fde38b1461025557600080fd5b806370a08231146101b5578063715018a6146101de5780638da5cb5b146101e657806395d89b411461020157600080fd5b806323b872dd116100de57806323b872dd14610178578063313ce5671461018b578063395093511461019a578063636d1bd6146101ad57600080fd5b806306fdde0314610110578063095ea7b31461012e5780631473890d1461015157806318160ddd14610166575b600080fd5b610118610268565b6040516101259190610da0565b60405180910390f35b61014161013c366004610e03565b6102fa565b6040519015158152602001610125565b61016461015f366004610e2f565b610314565b005b6035545b604051908152602001610125565b610141610186366004610e53565b61034b565b60405160128152602001610125565b6101416101a8366004610e03565b610460565b610164610482565b61016a6101c3366004610e2f565b6001600160a01b031660009081526033602052604090205490565b6101646104a9565b6065546040516001600160a01b039091168152602001610125565b6101186104bd565b610141610217366004610e03565b6104cc565b61014161022a366004610e03565b610552565b61016461023d366004610f37565b61064b565b61016a610250366004610fa4565b610773565b610164610263366004610e2f565b61079e565b60606036805461027790610fdd565b80601f01602080910402602001604051908101604052809291908181526020018280546102a390610fdd565b80156102f05780601f106102c5576101008083540402835291602001916102f0565b820191906000526020600020905b8154815290600101906020018083116102d357829003601f168201915b5050505050905090565b600033610308818585610817565b60019150505b92915050565b61031c61093b565b6000805160206111b483398151915280546001600160a01b0319166001600160a01b0392909216919091179055565b60008061036d6000805160206111b4833981519152546001600160a01b031690565b90506001600160a01b03811615806103ec5750604051630177b23360e71b81526001600160a01b03858116600483015282169063bbd9198090602401602060405180830381865afa1580156103c6573d6000803e3d6000fd5b505050506040513d601f19601f820116820180604052508101906103ea9190611017565b155b61043d5760405162461bcd60e51b815260206004820152601f60248201527f436f6d6d6f6e546f6b656e3a20746f20697320696e20626c61636b6c6973740060448201526064015b60405180910390fd5b33610449868286610995565b610454868686610a09565b50600195945050505050565b6000336103088185856104738383610773565b61047d9190611039565b610817565b61048a61093b565b6000805160206111b483398151915280546001600160a01b0319169055565b6104b161093b565b6104bb6000610bb4565b565b60606037805461027790610fdd565b600033816104da8286610773565b90508381101561053a5760405162461bcd60e51b815260206004820152602560248201527f45524332303a2064656372656173656420616c6c6f77616e63652062656c6f77604482015264207a65726f60d81b6064820152608401610434565b6105478286868403610817565b506001949350505050565b6000806105746000805160206111b4833981519152546001600160a01b031690565b90506001600160a01b03811615806105f35750604051630177b23360e71b81526001600160a01b03858116600483015282169063bbd9198090602401602060405180830381865afa1580156105cd573d6000803e3d6000fd5b505050506040513d601f19601f820116820180604052508101906105f19190611017565b155b61063f5760405162461bcd60e51b815260206004820152601f60248201527f436f6d6d6f6e546f6b656e3a20746f20697320696e20626c61636b6c697374006044820152606401610434565b33610547818686610a09565b600054610100900460ff161580801561066b5750600054600160ff909116105b806106855750303b158015610685575060005460ff166001145b6106e85760405162461bcd60e51b815260206004820152602e60248201527f496e697469616c697a61626c653a20636f6e747261637420697320616c72656160448201526d191e481a5b9a5d1a585b1a5e995960921b6064820152608401610434565b6000805460ff19166001179055801561070b576000805461ff0019166101001790555b6107158484610c06565b61071d610c3b565b6107273383610c6a565b801561076d576000805461ff0019169055604051600181527f7f26b83ff96e1f2b6a682f133852f6798a09c465da95921460cefb38474024989060200160405180910390a15b50505050565b6001600160a01b03918216600090815260346020908152604080832093909416825291909152205490565b6107a661093b565b6001600160a01b03811661080b5760405162461bcd60e51b815260206004820152602660248201527f4f776e61626c653a206e6577206f776e657220697320746865207a65726f206160448201526564647265737360d01b6064820152608401610434565b61081481610bb4565b50565b6001600160a01b0383166108795760405162461bcd60e51b8152602060048201526024808201527f45524332303a20617070726f76652066726f6d20746865207a65726f206164646044820152637265737360e01b6064820152608401610434565b6001600160a01b0382166108da5760405162461bcd60e51b815260206004820152602260248201527f45524332303a20617070726f766520746f20746865207a65726f206164647265604482015261737360f01b6064820152608401610434565b6001600160a01b0383811660008181526034602090815260408083209487168084529482529182902085905590518481527f8c5be1e5ebec7d5bd14f71427d1e84f3dd0314c0f7b2291e5b200ac8c7c3b925910160405180910390a3505050565b6065546001600160a01b031633146104bb5760405162461bcd60e51b815260206004820181905260248201527f4f776e61626c653a2063616c6c6572206973206e6f7420746865206f776e65726044820152606401610434565b60006109a18484610773565b9050600019811461076d57818110156109fc5760405162461bcd60e51b815260206004820152601d60248201527f45524332303a20696e73756666696369656e7420616c6c6f77616e63650000006044820152606401610434565b61076d8484848403610817565b6001600160a01b038316610a6d5760405162461bcd60e51b815260206004820152602560248201527f45524332303a207472616e736665722066726f6d20746865207a65726f206164604482015264647265737360d81b6064820152608401610434565b6001600160a01b038216610acf5760405162461bcd60e51b815260206004820152602360248201527f45524332303a207472616e7366657220746f20746865207a65726f206164647260448201526265737360e81b6064820152608401610434565b6001600160a01b03831660009081526033602052604090205481811015610b475760405162461bcd60e51b815260206004820152602660248201527f45524332303a207472616e7366657220616d6f756e7420657863656564732062604482015265616c616e636560d01b6064820152608401610434565b6001600160a01b0380851660008181526033602052604080822086860390559286168082529083902080548601905591517fddf252ad1be2c89b69c2b068fc378daa952ba7f163c4a11628f55a4df523b3ef90610ba79086815260200190565b60405180910390a361076d565b606580546001600160a01b038381166001600160a01b0319831681179093556040519116919082907f8be0079c531659141344cd1fd0a4f28419497f9722a3daafe3b4186f6b6457e090600090a35050565b600054610100900460ff16610c2d5760405162461bcd60e51b81526004016104349061105a565b610c378282610d30565b5050565b600054610100900460ff16610c625760405162461bcd60e51b81526004016104349061105a565b6104bb610d70565b6001600160a01b038216610cc05760405162461bcd60e51b815260206004820152601f60248201527f45524332303a206d696e7420746f20746865207a65726f2061646472657373006044820152606401610434565b8060356000828254610cd29190611039565b90915550506001600160a01b0382166000818152603360209081526040808320805486019055518481527fddf252ad1be2c89b69c2b068fc378daa952ba7f163c4a11628f55a4df523b3ef910160405180910390a35050565b505050565b600054610100900460ff16610d575760405162461bcd60e51b81526004016104349061105a565b6036610d6383826110f3565b506037610d2b82826110f3565b600054610100900460ff16610d975760405162461bcd60e51b81526004016104349061105a565b6104bb33610bb4565b600060208083528351808285015260005b81811015610dcd57858101830151858201604001528201610db1565b506000604082860101526040601f19601f8301168501019250505092915050565b6001600160a01b038116811461081457600080fd5b60008060408385031215610e1657600080fd5b8235610e2181610dee565b946020939093013593505050565b600060208284031215610e4157600080fd5b8135610e4c81610dee565b9392505050565b600080600060608486031215610e6857600080fd5b8335610e7381610dee565b92506020840135610e8381610dee565b929592945050506040919091013590565b634e487b7160e01b600052604160045260246000fd5b600082601f830112610ebb57600080fd5b813567ffffffffffffffff80821115610ed657610ed6610e94565b604051601f8301601f19908116603f01168101908282118183101715610efe57610efe610e94565b81604052838152866020858801011115610f1757600080fd5b836020870160208301376000602085830101528094505050505092915050565b600080600060608486031215610f4c57600080fd5b833567ffffffffffffffff80821115610f6457600080fd5b610f7087838801610eaa565b94506020860135915080821115610f8657600080fd5b50610f9386828701610eaa565b925050604084013590509250925092565b60008060408385031215610fb757600080fd5b8235610fc281610dee565b91506020830135610fd281610dee565b809150509250929050565b600181811c90821680610ff157607f821691505b60208210810361101157634e487b7160e01b600052602260045260246000fd5b50919050565b60006020828403121561102957600080fd5b81518015158114610e4c57600080fd5b8082018082111561030e57634e487b7160e01b600052601160045260246000fd5b6020808252602b908201527f496e697469616c697a61626c653a20636f6e7472616374206973206e6f74206960408201526a6e697469616c697a696e6760a81b606082015260800190565b601f821115610d2b57600081815260208120601f850160051c810160208610156110cc5750805b601f850160051c820191505b818110156110eb578281556001016110d8565b505050505050565b815167ffffffffffffffff81111561110d5761110d610e94565b6111218161111b8454610fdd565b846110a5565b602080601f831160018114611156576000841561113e5750858301515b600019600386901b1c1916600185901b1785556110eb565b600085815260208120601f198616915b8281101561118557888601518255948401946001909101908401611166565b50858210156111a35787850151600019600388901b60f8161c191681555b5050505050600190811b0190555056fe183a6125c38840424c4a85fa12bab2ab606c4b6d0e7cc73c0c06ba5300eab500a2646970667358221220e0344af25ae6dbabe9dc1694be5ff4a0ab9536987bd32aa7a10c6f8f336d33d564736f6c63430008130033",
  "devdoc": {
    "kind": "dev",
    "methods": {},
    "version": 1
  },
  "userdoc": {
    "kind": "user",
    "methods": {},
    "version": 1
  },
  "storageLayout": {
    "storage": [
      {
        "astId": 233,
        "contract": "@kayen/token/contracts/TokenFactory.sol:TokenFactory",
        "label": "implementation",
        "offset": 0,
        "slot": "0",
        "type": "t_contract(CommonToken)216"
      }
    ],
    "types": {
      "t_contract(CommonToken)216": {
        "encoding": "inplace",
        "label": "contract CommonToken",
        "numberOfBytes": "20"
      }
    }
  }
}