{
  "address": "0xD7ef1494b25b91d722ecC9c1FCBC2e8c1089AA33",
  "abi": [
    {
      "inputs": [
        {
          "internalType": "contract IPoolConfiguration",
          "name": "_config",
          "type": "address"
        }
      ],
      "stateMutability": "nonpayable",
      "type": "constructor"
    },
    {
      "anonymous": false,
      "inputs": [
        {
          "indexed": true,
          "internalType": "uint24",
          "name": "fee",
          "type": "uint24"
        },
        {
          "indexed": true,
          "internalType": "int24",
          "name": "tickSpacing",
          "type": "int24"
        }
      ],
      "name": "FeeAmountEnabled",
      "type": "event"
    },
    {
      "anonymous": false,
      "inputs": [
        {
          "indexed": true,
          "internalType": "address",
          "name": "oldOwner",
          "type": "address"
        },
        {
          "indexed": true,
          "internalType": "address",
          "name": "newOwner",
          "type": "address"
        }
      ],
      "name": "OwnerChanged",
      "type": "event"
    },
    {
      "anonymous": false,
      "inputs": [
        {
          "indexed": true,
          "internalType": "address",
          "name": "token0",
          "type": "address"
        },
        {
          "indexed": true,
          "internalType": "address",
          "name": "token1",
          "type": "address"
        },
        {
          "indexed": true,
          "internalType": "uint24",
          "name": "fee",
          "type": "uint24"
        },
        {
          "indexed": false,
          "internalType": "int24",
          "name": "tickSpacing",
          "type": "int24"
        },
        {
          "indexed": false,
          "internalType": "address",
          "name": "pool",
          "type": "address"
        }
      ],
      "name": "PoolCreated",
      "type": "event"
    },
    {
      "inputs": [],
      "name": "config",
      "outputs": [
        {
          "internalType": "contract IPoolConfiguration",
          "name": "",
          "type": "address"
        }
      ],
      "stateMutability": "view",
      "type": "function"
    },
    {
      "inputs": [
        {
          "internalType": "address",
          "name": "tokenA",
          "type": "address"
        },
        {
          "internalType": "address",
          "name": "tokenB",
          "type": "address"
        },
        {
          "internalType": "uint24",
          "name": "fee",
          "type": "uint24"
        }
      ],
      "name": "createPool",
      "outputs": [
        {
          "internalType": "address",
          "name": "pool",
          "type": "address"
        }
      ],
      "stateMutability": "nonpayable",
      "type": "function"
    },
    {
      "inputs": [
        {
          "internalType": "uint24",
          "name": "fee",
          "type": "uint24"
        },
        {
          "internalType": "int24",
          "name": "tickSpacing",
          "type": "int24"
        }
      ],
      "name": "enableFeeAmount",
      "outputs": [],
      "stateMutability": "nonpayable",
      "type": "function"
    },
    {
      "inputs": [
        {
          "internalType": "uint24",
          "name": "",
          "type": "uint24"
        }
      ],
      "name": "feeAmountTickSpacing",
      "outputs": [
        {
          "internalType": "int24",
          "name": "",
          "type": "int24"
        }
      ],
      "stateMutability": "view",
      "type": "function"
    },
    {
      "inputs": [
        {
          "internalType": "address",
          "name": "",
          "type": "address"
        },
        {
          "internalType": "address",
          "name": "",
          "type": "address"
        },
        {
          "internalType": "uint24",
          "name": "",
          "type": "uint24"
        }
      ],
      "name": "getPool",
      "outputs": [
        {
          "internalType": "address",
          "name": "",
          "type": "address"
        }
      ],
      "stateMutability": "view",
      "type": "function"
    },
    {
      "inputs": [],
      "name": "owner",
      "outputs": [
        {
          "internalType": "address",
          "name": "",
          "type": "address"
        }
      ],
      "stateMutability": "view",
      "type": "function"
    },
    {
      "inputs": [],
      "name": "parameters",
      "outputs": [
        {
          "internalType": "address",
          "name": "factory",
          "type": "address"
        },
        {
          "internalType": "address",
          "name": "token0",
          "type": "address"
        },
        {
          "internalType": "address",
          "name": "token1",
          "type": "address"
        },
        {
          "internalType": "uint24",
          "name": "fee",
          "type": "uint24"
        },
        {
          "internalType": "int24",
          "name": "tickSpacing",
          "type": "int24"
        },
        {
          "internalType": "contract IPoolConfiguration",
          "name": "config",
          "type": "address"
        }
      ],
      "stateMutability": "view",
      "type": "function"
    },
    {
      "inputs": [
        {
          "internalType": "address",
          "name": "_owner",
          "type": "address"
        }
      ],
      "name": "setOwner",
      "outputs": [],
      "stateMutability": "nonpayable",
      "type": "function"
    }
  ],
  "transactionHash": "0x9772c78827a05061f36ef20494772ee6a33b5b4b5345e9b0770773b584f477dc",
  "args": [
    "0x6608Cb0d5519F016a4760B58D9521ee89b5C8Ca6"
  ],
  "numDeployments": 1,
  "solcInputHash": "d5c12071c5c1739266d3928108cfccd4",
  "bytecode": "0x60a060405234801561001057600080fd5b506040516161e93803806161e983398101604081905261002f9161018c565b30608052600780546001600160a01b03199081166001600160a01b0384161790915560048054339216821790556040516000907fb532073b38c83145e3e5135377a08bf9aab55bc0fd7c1179cd4fb995d2a5159c908290a36101f4600081815260056020527f526b19181003b5c873519ed63635fe97b1329efa2ea6c0dd27b500090f692847805462ffffff1916600a9081179091556040519092916000805160206161c983398151915291a3610bb8600081815260056020527f920c3c101aeacc47298ad380e56bf5b36d68daf59bb11b6a0e451daf6a70b042805462ffffff1916603c9081179091556040519092916000805160206161c983398151915291a3612710600081815260056020527f4b632c5a4ef6f776d7578f74fb35c8372275e5c1cfdfcda32b7cd51134d0fd7e805462ffffff191660c89081179091556040519092916000805160206161c983398151915291a3506101bc565b60006020828403121561019e57600080fd5b81516001600160a01b03811681146101b557600080fd5b9392505050565b608051615ff26101d760003960006104ea0152615ff26000f3fe608060405234801561001057600080fd5b50600436106100885760003560e01c8063890357301161005b57806389035730146101425780638a7c195f146101cb5780638da5cb5b146101de578063a1671295146101f157600080fd5b806313af40351461008d5780631698ee82146100a257806322afcccb146100f957806379502c551461012f575b600080fd5b6100a061009b36600461068a565b610204565b005b6100dc6100b03660046106bf565b60066020908152600093845260408085208252928452828420905282529020546001600160a01b031681565b6040516001600160a01b0390911681526020015b60405180910390f35b61011c610107366004610702565b60056020526000908152604090205460020b81565b60405160029190910b81526020016100f0565b6007546100dc906001600160a01b031681565b60005460015460028054600354610183946001600160a01b03908116948116938382169362ffffff600160a01b82041693600160b81b90910490910b911686565b604080516001600160a01b03978816815295871660208701529386169385019390935262ffffff909116606084015260020b60808301529190911660a082015260c0016100f0565b6100a06101d936600461071d565b610277565b6004546100dc906001600160a01b031681565b6100dc6101ff3660046106bf565b61033b565b6004546001600160a01b0316331461021b57600080fd5b6004546040516001600160a01b038084169216907fb532073b38c83145e3e5135377a08bf9aab55bc0fd7c1179cd4fb995d2a5159c90600090a3600480546001600160a01b0319166001600160a01b0392909216919091179055565b6004546001600160a01b0316331461028e57600080fd5b620f42408262ffffff16106102a257600080fd5b60008160020b1380156102b957506140008160020b125b6102c257600080fd5b62ffffff821660009081526005602052604090205460020b156102e457600080fd5b62ffffff828116600081815260056020526040808220805462ffffff1916948616949094179093559151600284900b927fc66a3fdf07232cdd185febcc6579d408c241b47ae2f9907d84be655141eeaecc91a35050565b60006103456104df565b826001600160a01b0316846001600160a01b03160361036357600080fd5b600080846001600160a01b0316866001600160a01b031610610386578486610389565b85855b90925090506001600160a01b0382166103a157600080fd5b62ffffff841660009081526005602052604081205460020b908190036103c657600080fd5b6001600160a01b0383811660009081526006602090815260408083208685168452825280832062ffffff8a168452909152902054161561040557600080fd5b60075461042490309085908590899086906001600160a01b0316610516565b6001600160a01b03848116600081815260066020818152604080842089871680865290835281852062ffffff8e168087529084528286208054988a166001600160a01b0319998a1681179091558287529484528286208787528452828620818752845294829020805490971684179096558051600289900b81529182019290925294985090937f783cca1c0412dd0d695e784568c96da2e9c22ff989357a2e8b1d9b2b4e6b7118910160405180910390a45050509392505050565b306001600160a01b037f0000000000000000000000000000000000000000000000000000000000000000161461051457600080fd5b565b6040805160c0810182526001600160a01b03888116808352888216602080850182905289841685870181905262ffffff8a8116606080890182905260028c810b6080808c0191909152988c1660a0909a018a9052600080546001600160a01b03199081169099178155600180548a168917905581546001600160b81b0319168617600160a01b85021762ffffff60b81b1916600160b81b958f16959095029490941790556003805490971690981790955587519283019390935295810195909552928401529091016040516020818303038152906040528051906020012060405161060090610660565b8190604051809103906000f5905080158015610620573d6000803e3d6000fd5b50600080546001600160a01b03199081169091556001805482169055600280546001600160d01b0319169055600380549091169055979650505050505050565b615862806200075b83390190565b80356001600160a01b038116811461068557600080fd5b919050565b60006020828403121561069c57600080fd5b6106a58261066e565b9392505050565b803562ffffff8116811461068557600080fd5b6000806000606084860312156106d457600080fd5b6106dd8461066e565b92506106eb6020850161066e565b91506106f9604085016106ac565b90509250925092565b60006020828403121561071457600080fd5b6106a5826106ac565b6000806040838503121561073057600080fd5b610739836106ac565b915060208301358060020b811461074f57600080fd5b80915050925092905056fe6101806040523480156200001257600080fd5b503060805260408051630890357360e41b81529051600091339163890357309160048082019260c0929091908290030181865afa15801562000058573d6000803e3d6000fd5b505050506040513d601f19601f820116820180604052508101906200007e91906200017a565b6001600160a01b039081166101205262ffffff9092166101005291811660e05291821660c052911660a052600281900b610140529050620000bf81620000d3565b6001600160801b0316610160525062000231565b60008082600281900b620d89e71981620000f157620000f16200021b565b05029050600083600281900b620d89e8816200011157620001116200021b565b0502905060008460020b83830360020b816200013157620001316200021b565b0560010190508062ffffff166001600160801b038016816200015757620001576200021b565b0495945050505050565b6001600160a01b03811681146200017757600080fd5b50565b60008060008060008060c087890312156200019457600080fd5b8651620001a18162000161565b6020880151909650620001b48162000161565b6040880151909550620001c78162000161565b606088015190945062ffffff81168114620001e157600080fd5b8093505060808701518060020b8114620001fa57600080fd5b60a08801519092506200020d8162000161565b809150509295509295509295565b634e487b7160e01b600052601260045260246000fd5b60805160a05160c05160e051610100516101205161014051610160516155236200033f600039600081816104a7015281816142b201526142e901526000818161059001528181610a940152818161431d015261434f0152600081816102880152818161074701528181610bf701526113ea0152600081816105f101528181611835015261186c0152600081816105ca01528181610bcf015281816111c3015281816118ef01528181611cd20152818161215101526136630152600081816101b301528181610ba701528181611299015281816118be01528181611c6c015281816120cb015261356501526000818161056901528181611dcc0152611f84015260006126d401526155236000f3fe608060405234801561001057600080fd5b50600436106101a95760003560e01c80635339c296116100f9578063c45a015511610097578063ddca3f4311610071578063ddca3f43146105ec578063f305839914610627578063f30dba9314610630578063f637731d1461070457600080fd5b8063c45a015514610564578063d0c93a7c1461058b578063d21220a7146105c557600080fd5b806385b66729116100d357806385b66729146104dc578063883bdbfd146104ef578063a34123a714610510578063a38807f21461052357600080fd5b80635339c2961461048257806370cf754a146104a25780638206a4d1146104c957600080fd5b806332148f6711610166578063461413191161014057806346141319146103c4578063490e6cbc146103db5780634f1eb3d8146103ee578063514ea4bf1461040157600080fd5b806332148f67146102f75780633850c7bd1461030c5780633c8a7d8d146103b157600080fd5b80630dfe1681146101ae578063128acb08146101f25780631a6865021461021a5780631ad8b03b1461024557806322a2e11414610283578063252c09d7146102aa575b600080fd5b6101d57f000000000000000000000000000000000000000000000000000000000000000081565b6040516001600160a01b0390911681526020015b60405180910390f35b610205610200366004614de4565b610717565b604080519283526020830191909152016101e9565b60045461022d906001600160801b031681565b6040516001600160801b0390911681526020016101e9565b600354610263906001600160801b0380821691600160801b90041682565b604080516001600160801b039384168152929091166020830152016101e9565b6101d57f000000000000000000000000000000000000000000000000000000000000000081565b6102bd6102b8366004614e69565b611473565b6040805163ffffffff909516855260069390930b60208501526001600160a01b0390911691830191909152151560608201526080016101e9565b61030a610305366004614e82565b6114b8565b005b600054610360906001600160a01b03811690600160a01b810460020b9061ffff600160b81b8204811691600160c81b8104821691600160d81b8204169060ff600160e81b8204811691600160f01b90041687565b604080516001600160a01b03909816885260029690960b602088015261ffff94851695870195909552918316606086015291909116608084015260ff1660a0830152151560c082015260e0016101e9565b6102056103bf366004614ecf565b611597565b6103cd60025481565b6040519081526020016101e9565b61030a6103e9366004614f1d565b6117c4565b6102636103fc366004614f87565b611b7b565b61044c61040f366004614e69565b60076020526000908152604090208054600182015460028301546003909301546001600160801b0392831693919281811691600160801b90041685565b604080516001600160801b039687168152602081019590955284019290925283166060830152909116608082015260a0016101e9565b6103cd610490366004614fee565b60066020526000908152604090205481565b61022d7f000000000000000000000000000000000000000000000000000000000000000081565b61030a6104d7366004615022565b611d7b565b6102636104ea366004615055565b611f30565b6105026104fd36600461509a565b6121e7565b6040516101e992919061510f565b61020561051e366004615196565b61226e565b6105366105313660046151c2565b6123c7565b6040805160069490940b84526001600160a01b03909216602084015263ffffffff16908201526060016101e9565b6101d57f000000000000000000000000000000000000000000000000000000000000000081565b6105b27f000000000000000000000000000000000000000000000000000000000000000081565b60405160029190910b81526020016101e9565b6101d57f000000000000000000000000000000000000000000000000000000000000000081565b6106137f000000000000000000000000000000000000000000000000000000000000000081565b60405162ffffff90911681526020016101e9565b6103cd60015481565b6106a861063e3660046151ec565b60056020526000908152604090208054600182015460028301546003909301546001600160801b03831693600160801b909304600f0b9290600681900b90600160381b81046001600160a01b031690600160d81b810463ffffffff1690600160f81b900460ff1688565b604080516001600160801b039099168952600f9790970b602089015295870194909452606086019290925260060b60808501526001600160a01b031660a084015263ffffffff1660c0830152151560e0820152610100016101e9565b61030a610712366004615207565b6125a2565b6000806107226126c9565b60405163794358cf60e11b81523060048201526001600160a01b0389811660248301527f0000000000000000000000000000000000000000000000000000000000000000169063f286b19e90604401600060405180830381600087803b15801561078b57600080fd5b505af115801561079f573d6000803e3d6000fd5b50505050856000036107c357604051627ffe0360e31b815260040160405180910390fd5b6040805160e0810182526000546001600160a01b0381168252600160a01b810460020b602083015261ffff600160b81b8204811693830193909352600160c81b810483166060830152600160d81b8104909216608082015260ff600160e81b8304811660a0830152600160f01b909204909116151560c0820181905261085c576040516350dfbc4360e11b815260040160405180910390fd5b876108a75780600001516001600160a01b0316866001600160a01b03161180156108a2575073fffd8963efd1fc6a506488495d951d5263988d266001600160a01b038716105b6108d9565b80600001516001600160a01b0316866001600160a01b03161080156108d957506401000276a36001600160a01b038716115b61090f5760405162461bcd60e51b815260206004820152600360248201526214d41360ea1b604482015260640160405180910390fd5b6000805460ff60f01b191681556040805160c08101909152808a61093e5760048460a0015160ff16901c61094f565b60108460a0015161094f919061523a565b60ff1681526004546001600160801b031660208201526040014263ffffffff168152602001600060060b815260200160006001600160a01b031681526020016000151581525090506000808913905060006040518060e001604052808b81526020016000815260200185600001516001600160a01b03168152602001856020015160020b81526020018c6109e5576002546109e9565b6001545b815260200160006001600160801b0316815260200184602001516001600160801b031681525090505b805115801590610a385750886001600160a01b031681604001516001600160a01b031614155b15610fb9576040805160e081018252600080825260208201819052918101829052606081018290526080810182905260a0810182905260c081019190915260408201516001600160a01b031681526060820151610ab9906006907f00000000000000000000000000000000000000000000000000000000000000008f612700565b1515604083015260020b60208201819052620d89e7191315610ae457620d89e7196020820152610b18565b610af1620d89e719615272565b60020b816020015160020b1315610b1857610b0f620d89e719615272565b60020b60208201525b610b258160200151612842565b6001600160a01b031660608201526040820151610c67908d610b5f578b6001600160a01b031683606001516001600160a01b031611610b79565b8b6001600160a01b031683606001516001600160a01b0316105b610b87578260600151610b89565b8b5b60c0850151855160405163f56681bf60e01b81526001600160a01b037f0000000000000000000000000000000000000000000000000000000000000000811660048301527f0000000000000000000000000000000000000000000000000000000000000000811660248301527f0000000000000000000000000000000000000000000000000000000000000000169063f56681bf90604401602060405180830381865afa158015610c3e573d6000803e3d6000fd5b505050506040513d601f19601f82011682018060405250810190610c629190615294565b612b64565b60c085015260a084015260808301526001600160a01b031660408301528215610cc957610c9d8160c00151826080015101612d56565b825103825260a0810151610cb090612d56565b82602001818151610cc191906152b9565b905250610d0c565b610cd68160a00151612d56565b825101825260c08101516080820151610cf791610cf2916152e0565b612d56565b82602001818151610d0891906152f9565b9052505b60c08082018051600090915260a0840180516001600160801b03920182169052908301511615610d6257610d568160c00151600160801b8460c001516001600160801b0316612d6c565b60808301805190910190525b80606001516001600160a01b031682604001516001600160a01b031603610f7c57806040015115610f57578360a00151610de757610dc9846040015160008760200151886040015188602001518a606001516008612e1f909695949392919063ffffffff16565b6001600160a01b0316608086015260060b6060850152600160a08501525b6000610f0382602001518e610dfe57600154610e04565b84608001515b8f610e13578560800151610e17565b6002545b608089015160608a01516040808c0151600296870b6000908152600560205291909120600181018054909603909555948401805490930390925560038301805463ffffffff600160d81b66ffffffffffffff196001600160a01b03600160381b8086048216909703169095029485166001600160d81b031984161766ffffffffffffff670100000000000000600160d81b03198516871760060b9097039690961695861781900482169097031690950266ffffffffffffff63ffffffff60d81b0119929092166001600160f81b031990951694909417919091171790915554600160801b9004600f0b90565b90508c15610f0f576000035b600081600f0b12610f2f57808360c00151610f2a9190615321565b610f47565b610f3881615341565b8360c00151610f47919061535e565b6001600160801b031660c0840152505b8b610f66578060200151610f6f565b60018160200151035b60020b6060830152610fb3565b80600001516001600160a01b031682604001516001600160a01b031614610fb357610faa8260400151612fd6565b60020b60608301525b50610a12565b836020015160020b816060015160020b146110835760008061100786604001518660400151886020015188602001518a606001518b6080015160086132d8909695949392919063ffffffff16565b604085015160608601516000805463ffffffff60b81b1916600160c81b61ffff9586160261ffff60b81b191617600160b81b9590941694909402929092176001600160b81b031916600160a01b62ffffff909316929092026001600160a01b031916919091176001600160a01b03909116179055506110a89050565b6040810151600080546001600160a01b0319166001600160a01b039092169190911790555b8060c001516001600160801b031683602001516001600160801b0316146110ee5760c0810151600480546001600160801b0319166001600160801b039092169190911790555b8a1561113e57608081015160015560a08101516001600160801b0316156111395760a0810151600380546001600160801b031981166001600160801b03918216909301169190911790555b611184565b608081015160025560a08101516001600160801b0316156111845760a0810151600380546001600160801b03808216600160801b92839004821690940116029190911790555b8115158b15151461119d57602081015181518b036111aa565b80600001518a0381602001515b90965094508a1561128b5760008512156111ec576111ec7f00000000000000000000000000000000000000000000000000000000000000008d8760000361345f565b60006111f661354b565b60405163fa461e3360e01b8152909150339063fa461e3390611222908a908a908e908e906004016153a7565b600060405180830381600087803b15801561123c57600080fd5b505af1158015611250573d6000803e3d6000fd5b5050505061125c61354b565b61126688836152e0565b111561128557604051635d05ca8f60e11b815260040160405180910390fd5b5061135d565b60008612156112c2576112c27f00000000000000000000000000000000000000000000000000000000000000008d8860000361345f565b60006112cc613649565b60405163fa461e3360e01b8152909150339063fa461e33906112f8908a908a908e908e906004016153a7565b600060405180830381600087803b15801561131257600080fd5b505af1158015611326573d6000803e3d6000fd5b50505050611332613649565b61133c87836152e0565b111561135b57604051635d05ca8f60e11b815260040160405180910390fd5b505b60408082015160c083015160608085015184518b8152602081018b90526001600160a01b03948516958101959095526001600160801b039092169084015260020b60808301528d169033907fc42079f94a6350d7e6235f29174924f928cc2ac818eb64fed8004e115fbcca679060a00160405180910390a3604051637cb42b1160e01b81523060048201527f00000000000000000000000000000000000000000000000000000000000000006001600160a01b031690637cb42b1190602401600060405180830381600087803b15801561143657600080fd5b505af115801561144a573d6000803e3d6000fd5b50506000805460ff60f01b1916600160f01b17905550959c949b50939950505050505050505050565b60088161ffff811061148457600080fd5b015463ffffffff81169150600160201b810460060b90600160581b81046001600160a01b031690600160f81b900460ff1684565b600054600160f01b900460ff166114e2576040516350dfbc4360e11b815260040160405180910390fd5b6000805460ff60f01b191690556114f76126c9565b60008054600160d81b900461ffff169061151360088385613695565b6000805461ffff808416600160d81b810261ffff60d81b199093169290921790925591925083161461157f576040805161ffff8085168252831660208201527fac49e518f90a358f652e4400164f05a5d8f7e35e7747279bc3a93dbf584e125a91015b60405180910390a15b50506000805460ff60f01b1916600160f01b17905550565b600080548190600160f01b900460ff166115c4576040516350dfbc4360e11b815260040160405180910390fd5b6000805460ff60f01b191690556001600160801b0385166115e457600080fd5b60008061163260405180608001604052808c6001600160a01b031681526020018b60020b81526020018a60020b81526020016116288a6001600160801b0316613726565b600f0b905261373c565b925092505081935080925060008060008611156116545761165161354b565b91505b841561166557611662613649565b90505b60405163d348799760e01b8152339063d34879979061168e90899089908d908d906004016153a7565b600060405180830381600087803b1580156116a857600080fd5b505af11580156116bc573d6000803e3d6000fd5b505050506000861180156116df57506116d361354b565b6116dd87846152e0565b115b156116fd5760405163748800af60e01b815260040160405180910390fd5b60008511801561171c5750611710613649565b61171a86836152e0565b115b1561173a57604051631072b39760e11b815260040160405180910390fd5b604080513381526001600160801b038b1660208201529081018790526060810186905260028b810b91908d900b906001600160a01b038f16907f7a53080ba414158be7ec69b987b5fb7d07dee101fe85488f0853ae16239d0bde9060800160405180910390a450506000805460ff60f01b1916600160f01b17905550919890975095505050505050565b600054600160f01b900460ff166117ee576040516350dfbc4360e11b815260040160405180910390fd5b6000805460ff60f01b191690556118036126c9565b6004546001600160801b03168061182d57604051639f13f76d60e01b815260040160405180910390fd5b6000611862867f000000000000000000000000000000000000000000000000000000000000000062ffffff16620f424061399e565b90506000611899867f000000000000000000000000000000000000000000000000000000000000000062ffffff16620f424061399e565b905060006118a561354b565b905060006118b1613649565b905088156118e4576118e47f00000000000000000000000000000000000000000000000000000000000000008b8b61345f565b8715611915576119157f00000000000000000000000000000000000000000000000000000000000000008b8a61345f565b604051630e9cbafb60e41b8152339063e9cbafb09061193e90879087908c908c906004016153a7565b600060405180830381600087803b15801561195857600080fd5b505af115801561196c573d6000803e3d6000fd5b50505050600061197a61354b565b90506000611986613649565b90508161199387866152e0565b11156119b25760405163f704e89960e01b815260040160405180910390fd5b806119bd86856152e0565b11156119dc5760405163e90c349360e01b815260040160405180910390fd5b838203838203838614611a725760008054600160e81b9004600f16908115611a16578160ff168481611a1057611a10615224565b04611a19565b60005b90506001600160801b03811615611a4c57600380546001600160801b038082168401166001600160801b03199091161790555b611a66818503600160801b8d6001600160801b0316612d6c565b60018054909101905550505b8015611b035760008054600160e81b900460041c600f16908115611aa8578160ff168381611aa257611aa2615224565b04611aab565b60005b90506001600160801b03811615611add57600380546001600160801b03600160801b8083048216850182160291161790555b611af7818403600160801b8d6001600160801b0316612d6c565b60028054909101905550505b604080518e8152602081018e9052908101839052606081018290526001600160a01b038f169033907fbdbdb71d7860376ba52b25a5028beea23581364a40522f6bcfb86bb1f2dca6339060800160405180910390a350506000805460ff60f01b1916600160f01b179055505050505050505050505050565b600080548190600160f01b900460ff16611ba8576040516350dfbc4360e11b815260040160405180910390fd5b6000805460ff60f01b19168155611bc260073389896139de565b60038101549091506001600160801b0390811690861611611be35784611bf2565b60038101546001600160801b03165b60038201549093506001600160801b03600160801b909104811690851611611c1a5783611c30565b6003810154600160801b90046001600160801b03165b91506001600160801b03831615611c95576003810180546001600160801b031981166001600160801b03918216869003821617909155611c95907f0000000000000000000000000000000000000000000000000000000000000000908a90861661345f565b6001600160801b03821615611cfb576003810180546001600160801b03600160801b808304821686900382160291811691909117909155611cfb907f0000000000000000000000000000000000000000000000000000000000000000908a90851661345f565b604080516001600160a01b038a1681526001600160801b0385811660208301528416818301529051600288810b92908a900b9133917f70935338e69775456a85ddef226c395fb668b63fa0115f5f20610b388e6ca9c0919081900360600190a4506000805460ff60f01b1916600160f01b17905590969095509350505050565b600054600160f01b900460ff16611da5576040516350dfbc4360e11b815260040160405180910390fd5b6000805460ff60f01b1916905560408051638da5cb5b60e01b815290516001600160a01b037f00000000000000000000000000000000000000000000000000000000000000001691638da5cb5b9160048083019260209291908290030181865afa158015611e17573d6000803e3d6000fd5b505050506040513d601f19601f82011682018060405250810190611e3b91906153d1565b6001600160a01b0316336001600160a01b031614611e5857600080fd5b60ff82161580611e7b575060048260ff1610158015611e7b5750600a8260ff1611155b8015611ea5575060ff81161580611ea5575060048160ff1610158015611ea55750600a8160ff1611155b611eae57600080fd5b60008054610ff0600484901b16840160ff908116600160e81b90810260ff60e81b19841617909355919004167f973d8d92bb299f4af6ce49b52a8adb85ae46b9f214c4c4fc06ac77401237b1336010826040805160ff9390920683168252600f600486901c166020830152868316908201529084166060820152608001611576565b600080548190600160f01b900460ff16611f5d576040516350dfbc4360e11b815260040160405180910390fd5b6000805460ff60f01b1916905560408051638da5cb5b60e01b815290516001600160a01b037f00000000000000000000000000000000000000000000000000000000000000001691638da5cb5b9160048083019260209291908290030181865afa158015611fcf573d6000803e3d6000fd5b505050506040513d601f19601f82011682018060405250810190611ff391906153d1565b6001600160a01b0316336001600160a01b03161461201057600080fd5b6003546001600160801b039081169085161161202c5783612039565b6003546001600160801b03165b6003549092506001600160801b03600160801b90910481169084161161205f5782612073565b600354600160801b90046001600160801b03165b90506001600160801b038216156120f4576003546001600160801b03908116908316036120a257600019909101905b600380546001600160801b031981166001600160801b039182168590038216179091556120f4907f0000000000000000000000000000000000000000000000000000000000000000908790851661345f565b6001600160801b0381161561217a576003546001600160801b03600160801b90910481169082160361212557600019015b600380546001600160801b03600160801b80830482168590038216029181169190911790915561217a907f0000000000000000000000000000000000000000000000000000000000000000908790841661345f565b604080516001600160801b038085168252831660208201526001600160a01b0387169133917f596b573906218d3411850b26a6b437d6c4522fdb43d2d2386263f86d50b8b151910160405180910390a36000805460ff60f01b1916600160f01b1790559094909350915050565b6060806121f26126c9565b61226242858580806020026020016040519081016040528093929190818152602001838360200280828437600092018290525054600454600896959450600160a01b820460020b935061ffff600160b81b8304811693506001600160801b0390911691600160c81b900416613a3b565b915091505b9250929050565b600080548190600160f01b900460ff1661229b576040516350dfbc4360e11b815260040160405180910390fd5b6000805460ff60f01b1916815560408051608081018252338152600288810b602083015287900b91810191909152819081906122f490606081016122e76001600160801b038a16613726565b600003600f0b905261373c565b92509250925081600003945080600003935060008511806123155750600084115b15612350576003830180546001600160801b0380821688018116600160801b92839004821688019091169091026001600160801b0319161790555b604080516001600160801b038816815260208101879052908101859052600288810b91908a900b9033907f0c396cd989a39f4459b5fa1aed6a9a8dcdbc45908acfd67e028cd568da98982c9060600160405180910390a450506000805460ff60f01b1916600160f01b179055509094909350915050565b60008060006123d46126c9565b6123de8585613b86565b600285810b6000908152600560205260408082209287900b825281206003830154600681900b93600160381b82046001600160a01b0316928492600160d81b810463ffffffff169284929091600160f81b900460ff168061243e57600080fd5b6003820154600681900b9850600160381b81046001600160a01b03169650600160d81b810463ffffffff169450600160f81b900460ff168061247f57600080fd5b50506040805160e0810182526000546001600160a01b0381168252600160a01b8104600290810b6020840181905261ffff600160b81b8404811695850195909552600160c81b830485166060850152600160d81b8304909416608084015260ff600160e81b8304811660a0850152600160f01b909204909116151560c08301529093508e900b131590506125215750939094039650900393509003905061259b565b8a60020b816020015160020b121561258c576020810151604082015160045460608401514293600093849361256a9360089388938793919290916001600160801b031690612e1f565b9a9003989098039b50509490960392909203965090910303925061259b915050565b50949093039650039350900390505b9250925092565b6000546001600160a01b0316156125cc5760405163139816ff60e31b815260040160405180910390fd5b60006125d782612fd6565b604080516080808201835263ffffffff42168083526000602080850182905284860182905260016060958601819052600160f81b909317600855855160e0810187526001600160a01b038a16808252600289900b82840181905282890185905296820185905294810184905260a0810183905260c00183905281546001600160b81b0319168417600160a01b62ffffff8916021767ffffffffffffffff60b81b19166501000001000160c81b1790915584519283528201929092528251939450909283927f98636036cb66a9c19a37435efc1e90142190214e8abeb821bdba3f2990dd4c95928290030190a150505050565b306001600160a01b037f000000000000000000000000000000000000000000000000000000000000000016146126fe57600080fd5b565b60008060008460020b8660020b8161271a5761271a615224565b05905060008660020b12801561274757508460020b8660020b8161274057612740615224565b0760020b15155b1561275157600019015b83156127c557600281900b600881901d600181810b600090815260208b9052604090205461010090930760ff81169190911b800160001901928316801515955091929091856127a757888360ff168603026127ba565b886127b182613c0c565b840360ff168603025b965050505050612838565b600181810160020b600881901d80830b600090815260208b9052604090205461010090920760ff81169390931b60001901199182168015159550909291908561281b57888360ff0360ff16866001010102612831565b888361282683613cab565b0360ff168660010101025b9650505050505b5094509492505050565b60008060008360020b12612859578260020b612861565b8260020b6000035b9050620d89e8811115612887576040516315e4079d60e11b815260040160405180910390fd5b60008160011660000361289e57600160801b6128b0565b6ffffcb933bd6fad37aa2d162d1a5940015b70ffffffffffffffffffffffffffffffffff16905060028216156128e4576ffff97272373d413259a46990580e213a0260801c5b6004821615612903576ffff2e50f5f656932ef12357cf3c7fdcc0260801c5b6008821615612922576fffe5caca7e10e4e61c3624eaa0941cd00260801c5b6010821615612941576fffcb9843d60f6159c9db58835c9266440260801c5b6020821615612960576fff973b41fa98c081472e6896dfb254c00260801c5b604082161561297f576fff2ea16466c96a3843ec78b326b528610260801c5b608082161561299e576ffe5dee046a99a2a811c461f1969c30530260801c5b6101008216156129be576ffcbe86c7900a88aedcffc83b479aa3a40260801c5b6102008216156129de576ff987a7253ac413176f2b074cf7815e540260801c5b6104008216156129fe576ff3392b0822b70005940c7a398e4b70f30260801c5b610800821615612a1e576fe7159475a2c29b7443b29c7fa6e889d90260801c5b611000821615612a3e576fd097f3bdfd2022b8845ad8f792aa58250260801c5b612000821615612a5e576fa9f746462d870fdf8a65dc1f90e061e50260801c5b614000821615612a7e576f70d869a156d2a1b890bb3df62baf32f70260801c5b618000821615612a9e576f31be135f97d08fd981231505542fcfa60260801c5b62010000821615612abf576f09aa508b5b7a84e1c677de54f3e99bc90260801c5b62020000821615612adf576e5d6af8dedb81196699c329225ee6040260801c5b62040000821615612afe576d2216e584f5fa1ea926041bedfe980260801c5b62080000821615612b1b576b048a170391f7dc42444e8fa20260801c5b60008460020b1315612b3c578060001981612b3857612b38615224565b0490505b600160201b810615612b4f576001612b52565b60005b60ff16602082901c0192505050919050565b60008080806001600160a01b03808916908a161015818712801590612be9576000612b9d8989620f42400362ffffff16620f4240612d6c565b905082612bb657612bb18c8c8c6001613d95565b612bc3565b612bc38b8d8c6001613e10565b9550858110612bd4578a9650612be3565b612be08c8b8386613ec7565b96505b50612c33565b81612c0057612bfb8b8b8b6000613e10565b612c0d565b612c0d8a8c8b6000613d95565b9350838860000310612c2157899550612c33565b612c308b8a8a60000385613f13565b95505b6001600160a01b038a8116908716148215612c9657808015612c525750815b612c6857612c63878d8c6001613e10565b612c6a565b855b9550808015612c77575081155b612c8d57612c88878d8c6000613d95565b612c8f565b845b9450612ce0565b808015612ca05750815b612cb657612cb18c888c6001613d95565b612cb8565b855b9550808015612cc5575081155b612cdb57612cd68c888c6000613e10565b612cdd565b845b94505b81158015612cf057508860000385115b15612cfc578860000394505b818015612d1b57508a6001600160a01b0316876001600160a01b031614155b15612d2a578589039350612d47565b612d44868962ffffff168a620f42400362ffffff1661399e565b93505b50505095509550955095915050565b6000600160ff1b8210612d6857600080fd5b5090565b6000808060001985870985870292508281108382030391505080600003612da55760008411612d9a57600080fd5b508290049050612e18565b808411612db157600080fd5b6000848688096000868103871696879004966002600389028118808a02820302808a02820302808a02820302808a02820302808a02820302808a02909103029181900381900460010186841190950394909402919094039290920491909117919091029150505b9392505050565b6000808663ffffffff16600003612ec8576000898661ffff1661ffff8110612e4957612e496153ee565b60408051608081018252919092015463ffffffff808216808452600160201b830460060b6020850152600160581b83046001600160a01b031694840194909452600160f81b90910460ff16151560608301529092508a1614612eb457612eb1818a8988613f5f565b90505b806020015181604001519250925050612fca565b868803600080612edd8c8c858c8c8c8c614024565b91509150816000015163ffffffff168363ffffffff1603612f0e578160200151826040015194509450505050612fca565b806000015163ffffffff168363ffffffff1603612f3b578060200151816040015194509450505050612fca565b60008260000151826000015103905060008360000151850390508063ffffffff168263ffffffff1660060b856020015185602001510360060b81612f8157612f81615224565b05028460200151018263ffffffff168263ffffffff1686604001518660400151036001600160a01b03160281612fb957612fb9615224565b048560400151019650965050505050505b97509795505050505050565b60006401000276a36001600160a01b03831610801590613012575073fffd8963efd1fc6a506488495d951d5263988d266001600160a01b038316105b61302f576040516324c070df60e11b815260040160405180910390fd5b640100000000600160c01b03602083901b166001600160801b03811160071b81811c67ffffffffffffffff811160061b90811c63ffffffff811160051b90811c61ffff811160041b90811c60ff8111600390811b91821c600f811160021b90811c918211600190811b92831c979088119617909417909217179091171717608081106130c357607f810383901c91506130cd565b80607f0383901b91505b908002607f81811c60ff83811c9190911c800280831c81831c1c800280841c81841c1c800280851c81851c1c800280861c81861c1c800280871c81871c1c800280881c81881c1c800280891c81891c1c8002808a1c818a1c1c8002808b1c818b1c1c8002808c1c818c1c1c8002808d1c818d1c1c8002808e1c9c81901c9c909c1c80029c8d901c9e9d607f198f0160401b60c09190911c678000000000000000161760c19b909b1c674000000000000000169a909a1760c29990991c672000000000000000169890981760c39790971c671000000000000000169690961760c49590951c670800000000000000169490941760c59390931c670400000000000000169290921760c69190911c670200000000000000161760c79190911c600160381b161760c89190911c6680000000000000161760c99190911c6640000000000000161760ca9190911c6620000000000000161760cb9190911c6610000000000000161760cc9190911c6608000000000000161760cd9190911c66040000000000001617693627a301d71055774c8581026f028f6481ab7f045a5af012a19d003aa9198101608090811d906fdb2df09e81959a81455e260799a0632f8301901d600281810b9083900b146132c957886001600160a01b03166132ae82612842565b6001600160a01b031611156132c357816132cb565b806132cb565b815b9998505050505050505050565b6000806000898961ffff1661ffff81106132f4576132f46153ee565b60408051608081018252919092015463ffffffff808216808452600160201b830460060b6020850152600160581b83046001600160a01b031694840194909452600160f81b90910460ff16151560608301529092508916900361335d5788859250925050612fca565b8461ffff168461ffff1611801561337e57506001850361ffff168961ffff16145b1561338b5783915061338f565b8491505b8161ffff168960010161ffff16816133a9576133a9615224565b0692506133b881898989613f5f565b8a8461ffff1661ffff81106133cf576133cf6153ee565b825191018054602084015160408501516060909501511515600160f81b026001600160f81b036001600160a01b03909616600160581b02959095166affffffffffffffffffffff66ffffffffffffff909216600160201b026affffffffffffffffffffff1990931663ffffffff909516949094179190911716919091179190911790555097509795505050505050565b604080516001600160a01b038481166024830152604480830185905283518084039091018152606490920183526020820180516001600160e01b031663a9059cbb60e01b17905291516000928392908716916134bb9190615404565b6000604051808303816000865af19150503d80600081146134f8576040519150601f19603f3d011682016040523d82523d6000602084013e6134fd565b606091505b50915091508180156135275750805115806135275750808060200190518101906135279190615433565b61354457604051638b98626560e01b815260040160405180910390fd5b5050505050565b604051306024820152600090819081906001600160a01b037f000000000000000000000000000000000000000000000000000000000000000016906370a0823160e01b906044015b60408051601f198184030181529181526020820180516001600160e01b03166001600160e01b03199094169390931790925290516135d19190615404565b600060405180830381855afa9150503d806000811461360c576040519150601f19603f3d011682016040523d82523d6000602084013e613611565b606091505b509150915081801561362557506020815110155b61362e57600080fd5b808060200190518101906136429190615450565b9250505090565b604051306024820152600090819081906001600160a01b037f000000000000000000000000000000000000000000000000000000000000000016906370a0823160e01b90604401613593565b6000808361ffff16116136bb57604051636b93000360e11b815260040160405180910390fd5b8261ffff168261ffff16116136d1575081612e18565b825b8261ffff168161ffff16101561371d576001858261ffff1661ffff81106136fc576136fc6153ee565b01805463ffffffff191663ffffffff929092169190911790556001016136d3565b50909392505050565b80600f81900b811461373757600080fd5b919050565b60008060006137496126c9565b61375b84602001518560400151613b86565b6040805160e0810182526000546001600160a01b0381168252600160a01b810460020b602080840182905261ffff600160b81b8404811685870152600160c81b84048116606080870191909152600160d81b8504909116608086015260ff600160e81b8504811660a0870152600160f01b909404909316151560c0850152885190890151948901519289015193946137f99491939092909190614230565b93508460600151600f0b60001461399657846020015160020b816020015160020b121561384e576138476138308660200151612842565b61383d8760400151612842565b8760600151614415565b9250613996565b846040015160020b816020015160020b121561396c5760045460408201516001600160801b0390911690613899904260208501516060860151608087015160089493929187916132d8565b6000805463ffffffff60b81b1916600160c81b61ffff9384160261ffff60b81b191617600160b81b9390921692909202179055815160408701516138eb91906138e190612842565b8860600151614415565b93506139096138fd8760200151612842565b83516060890151614454565b925060008660600151600f0b1261392e5760608601516139299082615321565b613946565b856060015161393c90615341565b613946908261535e565b600480546001600160801b0319166001600160801b039290921691909117905550613996565b61399361397c8660200151612842565b6139898760400151612842565b8760600151614454565b91505b509193909250565b60006139ab848484612d6c565b9050600082806139bd576139bd615224565b8486091115612e185760001981106139d457600080fd5b6001019392505050565b6040805160609490941b6bffffffffffffffffffffffff191660208086019190915260e893841b60348601529190921b60378401528151601a818503018152603a9093018252825192810192909220600090815292909152902090565b60608060008361ffff1611613a6357604051636b93000360e11b815260040160405180910390fd5b865167ffffffffffffffff811115613a7d57613a7d615469565b604051908082528060200260200182016040528015613aa6578160200160208202803683370190505b509150865167ffffffffffffffff811115613ac357613ac3615469565b604051908082528060200260200182016040528015613aec578160200160208202803683370190505b50905060005b8751811015613b7957613b238a8a8a8481518110613b1257613b126153ee565b60200260200101518a8a8a8a612e1f565b848381518110613b3557613b356153ee565b60200260200101848481518110613b4e57613b4e6153ee565b6001600160a01b039093166020938402919091019092019190915260069190910b9052600101613af2565b5097509795505050505050565b8060020b8260020b12613bac57604051632fe0284f60e01b815260040160405180910390fd5b620d89e719600283900b1215613bd55760405163135ac25d60e31b815260040160405180910390fd5b613be2620d89e719615272565b60020b8160020b1315613c085760405163d7b54ab160e01b815260040160405180910390fd5b5050565b6000808211613c1a57600080fd5b600160801b8210613c2d57608091821c91015b680100000000000000008210613c4557604091821c91015b600160201b8210613c5857602091821c91015b620100008210613c6a57601091821c91015b6101008210613c7b57600891821c91015b60108210613c8b57600491821c91015b60048210613c9b57600291821c91015b6002821061373757600101919050565b6000808211613cb957600080fd5b5060ff6001600160801b03821615613cd457607f1901613cdc565b608082901c91505b67ffffffffffffffff821615613cf557603f1901613cfd565b604082901c91505b63ffffffff821615613d1257601f1901613d1a565b602082901c91505b61ffff821615613d2d57600f1901613d35565b601082901c91505b60ff821615613d475760071901613d4f565b600882901c91505b600f821615613d615760031901613d69565b600482901c91505b6003821615613d7b5760011901613d83565b600282901c91505b60018216156137375760001901919050565b6000836001600160a01b0316856001600160a01b03161115613db5579293925b81613de257613ddd836001600160801b03168686036001600160a01b0316600160601b612d6c565b613e05565b613e05836001600160801b03168686036001600160a01b0316600160601b61399e565b90505b949350505050565b6000836001600160a01b0316856001600160a01b03161115613e30579293925b600160601b600160e01b03606084901b166001600160a01b038686038116908716613e5a57600080fd5b83613e9057866001600160a01b0316613e7d8383896001600160a01b0316612d6c565b81613e8a57613e8a615224565b04613ebc565b613ebc613ea78383896001600160a01b031661399e565b886001600160a01b0316808204910615150190565b979650505050505050565b600080856001600160a01b031611613ede57600080fd5b6000846001600160801b031611613ef457600080fd5b81613f0657613ddd8585856001614483565b613e058585856001614569565b600080856001600160a01b031611613f2a57600080fd5b6000846001600160801b031611613f4057600080fd5b81613f5257613ddd8585856000614569565b613e058585856000614483565b604080516080810182526000808252602082018190529181018290526060810191909152600085600001518503905060405180608001604052808663ffffffff1681526020018263ffffffff168660020b0288602001510160060b81526020016000856001600160801b031611613fd7576001613fd9565b845b6001600160801b031663ffffffff60801b608085901b1681613ffd57613ffd615224565b048860400151016001600160a01b0316815260200160011515815250915050949350505050565b604080516080810182526000808252602082018190529181018290526060810191909152604080516080810182526000808252602082018190529181018290526060810191909152888561ffff1661ffff8110614083576140836153ee565b60408051608081018252919092015463ffffffff8116808352600160201b820460060b6020840152600160581b82046001600160a01b031693830193909352600160f81b900460ff161515606082015292506140e190899089614659565b1561410d57815163ffffffff888116911614612fca578161410483898988613f5f565b91509150612fca565b888361ffff168660010161ffff168161412857614128615224565b0661ffff1661ffff811061413e5761413e6153ee565b60408051608081018252929091015463ffffffff81168352600160201b810460060b60208401526001600160a01b03600160581b8204169183019190915260ff600160f81b909104161515606082018190529092506141e757604080516080810182528a5463ffffffff81168252600160201b810460060b6020830152600160581b81046001600160a01b031692820192909252600160f81b90910460ff161515606082015291505b6141f688836000015189614659565b614213576040516327e8e87560e01b815260040160405180910390fd5b614220898989888761471a565b9150915097509795505050505050565b600061423f60078787876139de565b60015460025491925090600080600f87900b156143775760008054600454429291829161429c9160089186918591600160a01b820460020b9161ffff600160b81b82048116926001600160801b031691600160c81b900416612e1f565b90925090506142d660058d8b8d8b8b87898b60007f0000000000000000000000000000000000000000000000000000000000000000614902565b945061430d60058c8b8d8b8b87898b60017f0000000000000000000000000000000000000000000000000000000000000000614902565b935084156143415761434160068d7f0000000000000000000000000000000000000000000000000000000000000000614aa3565b83156143735761437360068c7f0000000000000000000000000000000000000000000000000000000000000000614aa3565b5050505b60008061438960058c8c8b8a8a614b20565b909250905061439a878a8484614bc7565b600089600f0b12156144065783156143d65760028b810b6000908152600560205260408120818155600181018290559182018190556003909101555b82156144065760028a810b6000908152600560205260408120818155600181018290559182018190556003909101555b50505050505095945050505050565b60008082600f0b1261443657614431610cf28585856001613e10565b613e08565b614449610cf28585856000036000613e10565b600003949350505050565b60008082600f0b1261447057614431610cf28585856001613d95565b614449610cf28585856000036000613d95565b600081156144f55760006001600160a01b038411156144b9576144b484600160601b876001600160801b0316612d6c565b6144d0565b6144d06001600160801b038616606086901b61547f565b90506144ed6144e8826001600160a01b0389166152e0565b614d66565b915050613e08565b60006001600160a01b038411156145235761451e84600160601b876001600160801b031661399e565b614540565b614540606085901b6001600160801b038716808204910615150190565b905080866001600160a01b03161161455757600080fd5b6001600160a01b038616039050613e08565b60008260000361457a575083613e08565b600160601b600160e01b03606085901b16821561460c576001600160a01b038616848102908582816145ae576145ae615224565b04036145de578181018281106145dc576145d283896001600160a01b03168361399e565b9350505050613e08565b505b506144ed81856145f76001600160a01b038a168361547f565b61460191906152e0565b808204910615150190565b6001600160a01b0386168481029085828161462957614629615224565b0414801561463657508082115b61463f57600080fd5b8082036145d26144e8846001600160a01b038b168461399e565b60008363ffffffff168363ffffffff161115801561468357508363ffffffff168263ffffffff1611155b1561469f578163ffffffff168363ffffffff1611159050612e18565b60008463ffffffff168463ffffffff16116146c6578363ffffffff16600160201b016146ce565b8363ffffffff165b64ffffffffff16905060008563ffffffff168463ffffffff16116146fe578363ffffffff16600160201b01614706565b8363ffffffff165b64ffffffffff169091111595945050505050565b60408051608081018252600080825260208201819052918101829052606081019190915260408051608081018252600080825260208201819052918101829052606081019190915260008361ffff168560010161ffff168161477e5761477e615224565b0661ffff169050600060018561ffff16830103905060005b506002818301048961ffff871682816147b1576147b1615224565b0661ffff81106147c3576147c36153ee565b60408051608081018252929091015463ffffffff81168352600160201b810460060b60208401526001600160a01b03600160581b8204169183019190915260ff600160f81b9091041615156060820181905290955061482757806001019250614796565b898661ffff16826001018161483e5761483e615224565b0661ffff8110614850576148506153ee565b60408051608081018252929091015463ffffffff81168352600160201b810460060b60208401526001600160a01b03600160581b8204169183019190915260ff600160f81b909104161515606082015285519094506000906148b4908b908b614659565b90508080156148cd57506148cd8a8a8760000151614659565b156148d857506148f5565b806148e8576001820392506148ef565b8160010193505b50614796565b5050509550959350505050565b60028a900b600090815260208c90526040812080546001600160801b031682600f8c900b811361493b576149368c83615321565b61494e565b6149448c615341565b61494e908361535e565b9050846001600160801b0316816001600160801b03161115614983576040516368d2be8f60e01b815260040160405180910390fd5b6001600160801b0381811615908316801591909114159450600003614a27578c60020b8e60020b13614a0f57600183018b9055600283018a905560038301805466ffffffffffffff8a166001600160f81b0319909116600160381b6001600160a01b038d160266ffffffffffffff63ffffffff60d81b0119161717600160d81b63ffffffff8a16021790555b6003830180546001600160f81b0316600160f81b1790555b82546001600160801b0319166001600160801b03821617835585614a61578254614a5c908d90600160801b9004600f0b615493565b614a78565b8254614a78908d90600160801b9004600f0b6154c0565b83546001600160801b03918216600160801b0291161790925550909c9b505050505050505050505050565b8060020b8260020b81614ab857614ab8615224565b0760020b15614ac657600080fd5b600080614af48360020b8560020b81614ae157614ae1615224565b0560020b600881901d9161010090910790565b600191820b60009081526020979097526040909620805460ff9097169190911b90951890945550505050565b600285810b60008181526020899052604080822088850b83529082209193849391929184918291908a900b12614b6157505060018201546002830154614b74565b8360010154880391508360020154870390505b6000808b60020b8b60020b1215614b9657505060018301546002840154614ba9565b84600101548a0391508460020154890390505b92909803979097039b96909503949094039850939650505050505050565b6040805160a08101825285546001600160801b0390811682526001870154602083015260028701549282019290925260038601548083166060830152600160801b900490911660808201526000600f85900b8103614c4f5781516001600160801b0316614c4757604051632aabfc9960e11b815260040160405180910390fd5b508051614c84565b600085600f0b12614c6c578151614c67908690615321565b614c81565b614c7585615341565b8251614c81919061535e565b90505b600080614ca98460200151870385600001516001600160801b0316600160801b612d6c565b9150614ccd8460400151860385600001516001600160801b0316600160801b612d6c565b905086600f0b600014614cf45787546001600160801b0319166001600160801b0384161788555b60018801869055600288018590556001600160801b038216151580614d2257506000816001600160801b0316115b15614d5c57600388018054600160801b6001600160801b03808316860181166001600160801b031990931683178290048116850116021790555b5050505050505050565b806001600160a01b038116811461373757600080fd5b6001600160a01b0381168114614d9157600080fd5b50565b8015158114614d9157600080fd5b60008083601f840112614db457600080fd5b50813567ffffffffffffffff811115614dcc57600080fd5b60208301915083602082850101111561226757600080fd5b60008060008060008060a08789031215614dfd57600080fd5b8635614e0881614d7c565b95506020870135614e1881614d94565b9450604087013593506060870135614e2f81614d7c565b9250608087013567ffffffffffffffff811115614e4b57600080fd5b614e5789828a01614da2565b979a9699509497509295939492505050565b600060208284031215614e7b57600080fd5b5035919050565b600060208284031215614e9457600080fd5b813561ffff81168114612e1857600080fd5b8035600281900b811461373757600080fd5b80356001600160801b038116811461373757600080fd5b60008060008060008060a08789031215614ee857600080fd5b8635614ef381614d7c565b9550614f0160208801614ea6565b9450614f0f60408801614ea6565b9350614e2f60608801614eb8565b600080600080600060808688031215614f3557600080fd5b8535614f4081614d7c565b94506020860135935060408601359250606086013567ffffffffffffffff811115614f6a57600080fd5b614f7688828901614da2565b969995985093965092949392505050565b600080600080600060a08688031215614f9f57600080fd5b8535614faa81614d7c565b9450614fb860208701614ea6565b9350614fc660408701614ea6565b9250614fd460608701614eb8565b9150614fe260808701614eb8565b90509295509295909350565b60006020828403121561500057600080fd5b81358060010b8114612e1857600080fd5b803560ff8116811461373757600080fd5b6000806040838503121561503557600080fd5b61503e83615011565b915061504c60208401615011565b90509250929050565b60008060006060848603121561506a57600080fd5b833561507581614d7c565b925061508360208501614eb8565b915061509160408501614eb8565b90509250925092565b600080602083850312156150ad57600080fd5b823567ffffffffffffffff808211156150c557600080fd5b818501915085601f8301126150d957600080fd5b8135818111156150e857600080fd5b8660208260051b85010111156150fd57600080fd5b60209290920196919550909350505050565b604080825283519082018190526000906020906060840190828701845b8281101561514b57815160060b8452928401929084019060010161512c565b5050508381038285015284518082528583019183019060005b818110156151895783516001600160a01b031683529284019291840191600101615164565b5090979650505050505050565b6000806000606084860312156151ab57600080fd5b6151b484614ea6565b925061508360208501614ea6565b600080604083850312156151d557600080fd5b6151de83614ea6565b915061504c60208401614ea6565b6000602082840312156151fe57600080fd5b612e1882614ea6565b60006020828403121561521957600080fd5b8135612e1881614d7c565b634e487b7160e01b600052601260045260246000fd5b600060ff83168061524d5761524d615224565b8060ff84160691505092915050565b634e487b7160e01b600052601160045260246000fd5b60008160020b627fffff19810361528b5761528b61525c565b60000392915050565b6000602082840312156152a657600080fd5b815162ffffff81168114612e1857600080fd5b81810360008312801583831316838312821617156152d9576152d961525c565b5092915050565b808201808211156152f3576152f361525c565b92915050565b80820182811260008312801582168215821617156153195761531961525c565b505092915050565b6001600160801b038181168382160190808211156152d9576152d961525c565b600081600f0b60016001607f1b0319810361528b5761528b61525c565b6001600160801b038281168282160390808211156152d9576152d961525c565b81835281816020850137506000828201602090810191909152601f909101601f19169091010190565b8481528360208201526060604082015260006153c760608301848661537e565b9695505050505050565b6000602082840312156153e357600080fd5b8151612e1881614d7c565b634e487b7160e01b600052603260045260246000fd5b6000825160005b81811015615425576020818601810151858301520161540b565b506000920191825250919050565b60006020828403121561544557600080fd5b8151612e1881614d94565b60006020828403121561546257600080fd5b5051919050565b634e487b7160e01b600052604160045260246000fd5b60008261548e5761548e615224565b500490565b600f81810b9083900b0160016001607f1b03811360016001607f1b0319821217156152f3576152f361525c565b600f82810b9082900b0360016001607f1b0319811260016001607f1b03821317156152f3576152f361525c56fea26469706673582212201b58cb4179b4b636f674dda836edd4fad4b0e1f3759975ee38c6f6f8ac4674bb64736f6c63430008130033a2646970667358221220a43354a78cb10a5f231c97d2059c7c207e6be26bfcc93a513354818da20319aa64736f6c63430008130033c66a3fdf07232cdd185febcc6579d408c241b47ae2f9907d84be655141eeaecc",
  "devdoc": {
    "events": {
      "FeeAmountEnabled(uint24,int24)": {
        "params": {
          "fee": "The enabled fee, denominated in hundredths of a bip",
          "tickSpacing": "The minimum number of ticks between initialized ticks for pools created with the given fee"
        }
      },
      "OwnerChanged(address,address)": {
        "params": {
          "newOwner": "The owner after the owner was changed",
          "oldOwner": "The owner before the owner was changed"
        }
      },
      "PoolCreated(address,address,uint24,int24,address)": {
        "params": {
          "fee": "The fee collected upon every swap in the pool, denominated in hundredths of a bip",
          "pool": "The address of the created pool",
          "tickSpacing": "The minimum number of ticks between initialized ticks",
          "token0": "The first token of the pool by address sort order",
          "token1": "The second token of the pool by address sort order"
        }
      }
    },
    "kind": "dev",
    "methods": {
      "createPool(address,address,uint24)": {
        "details": "tokenA and tokenB may be passed in either order: token0/token1 or token1/token0. tickSpacing is retrieved from the fee. The call will revert if the pool already exists, the fee is invalid, or the token arguments are invalid.",
        "params": {
          "fee": "The desired fee for the pool",
          "tokenA": "One of the two tokens in the desired pool",
          "tokenB": "The other of the two tokens in the desired pool"
        },
        "returns": {
          "pool": "The address of the newly created pool"
        }
      },
      "enableFeeAmount(uint24,int24)": {
        "details": "Fee amounts may never be removed once enabled",
        "params": {
          "fee": "The fee amount to enable, denominated in hundredths of a bip (i.e. 1e-6)",
          "tickSpacing": "The spacing between ticks to be enforced for all pools created with the given fee amount"
        }
      },
      "setOwner(address)": {
        "details": "Must be called by the current owner",
        "params": {
          "_owner": "The new owner of the factory"
        }
      }
    },
    "stateVariables": {
      "feeAmountTickSpacing": {
        "details": "A fee amount can never be removed, so this value should be hard coded or cached in the calling context",
        "params": {
          "fee": "The enabled fee, denominated in hundredths of a bip. Returns 0 in case of unenabled fee"
        },
        "return": "The tick spacing",
        "returns": {
          "_0": "The tick spacing"
        }
      },
      "getPool": {
        "details": "tokenA and tokenB may be passed in either token0/token1 or token1/token0 order",
        "params": {
          "fee": "The fee collected upon every swap in the pool, denominated in hundredths of a bip",
          "tokenA": "The contract address of either token0 or token1",
          "tokenB": "The contract address of the other token"
        },
        "return": "The pool address",
        "returns": {
          "_0": "The pool address"
        }
      },
      "owner": {
        "details": "Can be changed by the current owner via setOwner",
        "return": "The address of the factory owner",
        "returns": {
          "_0": "The address of the factory owner"
        }
      }
    },
    "title": "Canonical Uniswap V3 factory",
    "version": 1
  },
  "userdoc": {
    "events": {
      "FeeAmountEnabled(uint24,int24)": {
        "notice": "Emitted when a new fee amount is enabled for pool creation via the factory"
      },
      "OwnerChanged(address,address)": {
        "notice": "Emitted when the owner of the factory is changed"
      },
      "PoolCreated(address,address,uint24,int24,address)": {
        "notice": "Emitted when a pool is created"
      }
    },
    "kind": "user",
    "methods": {
      "createPool(address,address,uint24)": {
        "notice": "Creates a pool for the given two tokens and fee"
      },
      "enableFeeAmount(uint24,int24)": {
        "notice": "Enables a fee amount with the given tickSpacing"
      },
      "feeAmountTickSpacing(uint24)": {
        "notice": "Returns the tick spacing for a given fee amount, if enabled, or 0 if not enabled"
      },
      "getPool(address,address,uint24)": {
        "notice": "Returns the pool address for a given pair of tokens and a fee, or address 0 if it does not exist"
      },
      "owner()": {
        "notice": "Returns the current owner of the factory"
      },
      "parameters()": {
        "notice": "Get the parameters to be used in constructing the pool, set transiently during pool creation."
      },
      "setOwner(address)": {
        "notice": "Updates the owner of the factory"
      }
    },
    "notice": "Deploys Uniswap V3 pools and manages ownership and control over pool protocol fees",
    "version": 1
  },
  "storageLayout": {
    "storage": [
      {
        "astId": 6135,
        "contract": "@kayen/uniswap-v3-core/contracts/UniswapV3Factory.sol:UniswapV3Factory",
        "label": "parameters",
        "offset": 0,
        "slot": "0",
        "type": "t_struct(Parameters)6130_storage"
      },
      {
        "astId": 3260,
        "contract": "@kayen/uniswap-v3-core/contracts/UniswapV3Factory.sol:UniswapV3Factory",
        "label": "owner",
        "offset": 0,
        "slot": "4",
        "type": "t_address"
      },
      {
        "astId": 3266,
        "contract": "@kayen/uniswap-v3-core/contracts/UniswapV3Factory.sol:UniswapV3Factory",
        "label": "feeAmountTickSpacing",
        "offset": 0,
        "slot": "5",
        "type": "t_mapping(t_uint24,t_int24)"
      },
      {
        "astId": 3276,
        "contract": "@kayen/uniswap-v3-core/contracts/UniswapV3Factory.sol:UniswapV3Factory",
        "label": "getPool",
        "offset": 0,
        "slot": "6",
        "type": "t_mapping(t_address,t_mapping(t_address,t_mapping(t_uint24,t_address)))"
      },
      {
        "astId": 3279,
        "contract": "@kayen/uniswap-v3-core/contracts/UniswapV3Factory.sol:UniswapV3Factory",
        "label": "config",
        "offset": 0,
        "slot": "7",
        "type": "t_contract(IPoolConfiguration)6290"
      }
    ],
    "types": {
      "t_address": {
        "encoding": "inplace",
        "label": "address",
        "numberOfBytes": "20"
      },
      "t_contract(IPoolConfiguration)6290": {
        "encoding": "inplace",
        "label": "contract IPoolConfiguration",
        "numberOfBytes": "20"
      },
      "t_int24": {
        "encoding": "inplace",
        "label": "int24",
        "numberOfBytes": "3"
      },
      "t_mapping(t_address,t_mapping(t_address,t_mapping(t_uint24,t_address)))": {
        "encoding": "mapping",
        "key": "t_address",
        "label": "mapping(address => mapping(address => mapping(uint24 => address)))",
        "numberOfBytes": "32",
        "value": "t_mapping(t_address,t_mapping(t_uint24,t_address))"
      },
      "t_mapping(t_address,t_mapping(t_uint24,t_address))": {
        "encoding": "mapping",
        "key": "t_address",
        "label": "mapping(address => mapping(uint24 => address))",
        "numberOfBytes": "32",
        "value": "t_mapping(t_uint24,t_address)"
      },
      "t_mapping(t_uint24,t_address)": {
        "encoding": "mapping",
        "key": "t_uint24",
        "label": "mapping(uint24 => address)",
        "numberOfBytes": "32",
        "value": "t_address"
      },
      "t_mapping(t_uint24,t_int24)": {
        "encoding": "mapping",
        "key": "t_uint24",
        "label": "mapping(uint24 => int24)",
        "numberOfBytes": "32",
        "value": "t_int24"
      },
      "t_struct(Parameters)6130_storage": {
        "encoding": "inplace",
        "label": "struct UniswapV3PoolDeployer.Parameters",
        "members": [
          {
            "astId": 6118,
            "contract": "@kayen/uniswap-v3-core/contracts/UniswapV3Factory.sol:UniswapV3Factory",
            "label": "factory",
            "offset": 0,
            "slot": "0",
            "type": "t_address"
          },
          {
            "astId": 6120,
            "contract": "@kayen/uniswap-v3-core/contracts/UniswapV3Factory.sol:UniswapV3Factory",
            "label": "token0",
            "offset": 0,
            "slot": "1",
            "type": "t_address"
          },
          {
            "astId": 6122,
            "contract": "@kayen/uniswap-v3-core/contracts/UniswapV3Factory.sol:UniswapV3Factory",
            "label": "token1",
            "offset": 0,
            "slot": "2",
            "type": "t_address"
          },
          {
            "astId": 6124,
            "contract": "@kayen/uniswap-v3-core/contracts/UniswapV3Factory.sol:UniswapV3Factory",
            "label": "fee",
            "offset": 20,
            "slot": "2",
            "type": "t_uint24"
          },
          {
            "astId": 6126,
            "contract": "@kayen/uniswap-v3-core/contracts/UniswapV3Factory.sol:UniswapV3Factory",
            "label": "tickSpacing",
            "offset": 23,
            "slot": "2",
            "type": "t_int24"
          },
          {
            "astId": 6129,
            "contract": "@kayen/uniswap-v3-core/contracts/UniswapV3Factory.sol:UniswapV3Factory",
            "label": "config",
            "offset": 0,
            "slot": "3",
            "type": "t_contract(IPoolConfiguration)6290"
          }
        ],
        "numberOfBytes": "128"
      },
      "t_uint24": {
        "encoding": "inplace",
        "label": "uint24",
        "numberOfBytes": "3"
      }
    }
  }
}