{
  "address": "0x5A0fc785A2cbF0B95b57951c59f0035C3300715e",
  "abi": [
    {
      "inputs": [
        {
          "internalType": "contract Configuration",
          "name": "_config",
          "type": "address"
        },
        {
          "internalType": "contract PresaleManager",
          "name": "_presaleManager",
          "type": "address"
        },
        {
          "internalType": "contract TokenFactory",
          "name": "_tokenFactory",
          "type": "address"
        },
        {
          "internalType": "contract IUniswapV3Factory",
          "name": "_poolFactory",
          "type": "address"
        },
        {
          "internalType": "contract INonfungiblePositionManager",
          "name": "_positionManager",
          "type": "address"
        },
        {
          "internalType": "contract ISwapRouter",
          "name": "_swapRouter",
          "type": "address"
        },
        {
          "internalType": "contract Quoter",
          "name": "_quoter",
          "type": "address"
        },
        {
          "internalType": "address",
          "name": "_weth",
          "type": "address"
        }
      ],
      "stateMutability": "nonpayable",
      "type": "constructor"
    },
    {
      "inputs": [],
      "name": "T",
      "type": "error"
    },
    {
      "inputs": [
        {
          "internalType": "address",
          "name": "pool",
          "type": "address"
        },
        {
          "internalType": "int24",
          "name": "tickLower",
          "type": "int24"
        },
        {
          "internalType": "int24",
          "name": "tickUpper",
          "type": "int24"
        },
        {
          "internalType": "uint256",
          "name": "amount0Desired",
          "type": "uint256"
        },
        {
          "internalType": "uint256",
          "name": "amount1Desired",
          "type": "uint256"
        }
      ],
      "name": "assertValidParams",
      "outputs": [],
      "stateMutability": "nonpayable",
      "type": "function"
    },
    {
      "inputs": [],
      "name": "config",
      "outputs": [
        {
          "internalType": "contract Configuration",
          "name": "",
          "type": "address"
        }
      ],
      "stateMutability": "view",
      "type": "function"
    },
    {
      "inputs": [],
      "name": "implementation",
      "outputs": [
        {
          "internalType": "contract UniswapV3Presale",
          "name": "",
          "type": "address"
        }
      ],
      "stateMutability": "view",
      "type": "function"
    },
    {
      "inputs": [
        {
          "internalType": "address",
          "name": "operator",
          "type": "address"
        },
        {
          "internalType": "address",
          "name": "from",
          "type": "address"
        },
        {
          "internalType": "uint256",
          "name": "tokenId",
          "type": "uint256"
        },
        {
          "internalType": "bytes",
          "name": "data",
          "type": "bytes"
        }
      ],
      "name": "onERC721Received",
      "outputs": [
        {
          "internalType": "bytes4",
          "name": "",
          "type": "bytes4"
        }
      ],
      "stateMutability": "nonpayable",
      "type": "function"
    },
    {
      "inputs": [],
      "name": "poolFactory",
      "outputs": [
        {
          "internalType": "contract IUniswapV3Factory",
          "name": "",
          "type": "address"
        }
      ],
      "stateMutability": "view",
      "type": "function"
    },
    {
      "inputs": [],
      "name": "poolFee",
      "outputs": [
        {
          "internalType": "uint24",
          "name": "",
          "type": "uint24"
        }
      ],
      "stateMutability": "view",
      "type": "function"
    },
    {
      "inputs": [],
      "name": "positionManager",
      "outputs": [
        {
          "internalType": "contract INonfungiblePositionManager",
          "name": "",
          "type": "address"
        }
      ],
      "stateMutability": "view",
      "type": "function"
    },
    {
      "inputs": [],
      "name": "presaleManager",
      "outputs": [
        {
          "internalType": "contract PresaleManager",
          "name": "",
          "type": "address"
        }
      ],
      "stateMutability": "view",
      "type": "function"
    },
    {
      "inputs": [],
      "name": "quoter",
      "outputs": [
        {
          "internalType": "contract Quoter",
          "name": "",
          "type": "address"
        }
      ],
      "stateMutability": "view",
      "type": "function"
    },
    {
      "inputs": [
        {
          "internalType": "address",
          "name": "paymentToken",
          "type": "address"
        },
        {
          "internalType": "address",
          "name": "saleToken",
          "type": "address"
        },
        {
          "internalType": "uint160",
          "name": "sqrtPriceX96",
          "type": "uint160"
        },
        {
          "internalType": "int24",
          "name": "tickLower",
          "type": "int24"
        },
        {
          "internalType": "int24",
          "name": "tickUpper",
          "type": "int24"
        },
        {
          "internalType": "uint256",
          "name": "amountToSale",
          "type": "uint256"
        },
        {
          "internalType": "uint256",
          "name": "amountToRaise",
          "type": "uint256"
        },
        {
          "internalType": "uint256",
          "name": "amountForBuyInstantly",
          "type": "uint256"
        },
        {
          "internalType": "uint24",
          "name": "toTreasuryRate",
          "type": "uint24"
        },
        {
          "internalType": "uint256",
          "name": "startTimestamp",
          "type": "uint256"
        },
        {
          "internalType": "string",
          "name": "data",
          "type": "string"
        }
      ],
      "name": "start",
      "outputs": [
        {
          "internalType": "contract IPresale",
          "name": "",
          "type": "address"
        }
      ],
      "stateMutability": "payable",
      "type": "function"
    },
    {
      "inputs": [
        {
          "internalType": "address",
          "name": "paymentToken",
          "type": "address"
        },
        {
          "internalType": "string",
          "name": "name",
          "type": "string"
        },
        {
          "internalType": "string",
          "name": "symbol",
          "type": "string"
        },
        {
          "internalType": "uint256",
          "name": "totalSupply",
          "type": "uint256"
        },
        {
          "internalType": "uint160",
          "name": "sqrtPriceX96",
          "type": "uint160"
        },
        {
          "internalType": "int24",
          "name": "tickLower",
          "type": "int24"
        },
        {
          "internalType": "int24",
          "name": "tickUpper",
          "type": "int24"
        },
        {
          "internalType": "uint256",
          "name": "amountToSale",
          "type": "uint256"
        },
        {
          "internalType": "uint256",
          "name": "amountToRaise",
          "type": "uint256"
        },
        {
          "internalType": "uint256",
          "name": "amountForBuyInstantly",
          "type": "uint256"
        },
        {
          "internalType": "uint24",
          "name": "toTreasuryRate",
          "type": "uint24"
        },
        {
          "internalType": "uint256",
          "name": "startTimestamp",
          "type": "uint256"
        },
        {
          "internalType": "string",
          "name": "data",
          "type": "string"
        }
      ],
      "name": "startWithNewToken",
      "outputs": [
        {
          "internalType": "contract IPresale",
          "name": "",
          "type": "address"
        }
      ],
      "stateMutability": "payable",
      "type": "function"
    },
    {
      "inputs": [],
      "name": "tokenFactory",
      "outputs": [
        {
          "internalType": "contract TokenFactory",
          "name": "",
          "type": "address"
        }
      ],
      "stateMutability": "view",
      "type": "function"
    },
    {
      "inputs": [],
      "name": "weth",
      "outputs": [
        {
          "internalType": "address",
          "name": "",
          "type": "address"
        }
      ],
      "stateMutability": "view",
      "type": "function"
    }
  ],
  "transactionHash": "0xf16d6661431d0065098c287f2bf1ae8b0758142777b24c3e9e17811db888d1ef",
  "args": [
    "0x0A35915c7b0cb0f7f33916eEfcC039f0A9bDa0C3",
    "0x8D3b7493C7d033BB44F50268f855B77AD0028DA9",
    "0x05F25612599472423eb2cEafeCCA449587Af333f",
    "0xd9b2294d697CA5Dd04364132d2020D64F0389A72",
    "0x50C2998c7Ab87F17A5511d18C9cF1662b3F8bD88",
    "0x6133eF6F4039Fd2791F19c8037Ee445bb38F1ABa",
    "0xCDfe43DB87888A6b37ccd7205EE837f7556b1790",
    "0x678c34581db0a7808d0aC669d7025f1408C9a3C6"
  ],
  "numDeployments": 2,
  "solcInputHash": "81a7f8e4659dc6e0805a7ecc396f18f6",
  "bytecode": "0x6080346200019e576001600160401b03601f6200538338819003918201601f191684019183831185841017620001a357808592610100946040528339810103126200019e5781516001600160a01b0380821692918390036200019e576020840151908082168092036200019e576040850151938185168095036200019e576060860151938285168095036200019e576080870151938385168095036200019e5760a0880151948486168096036200019e5760c089015198858a16809a036200019e5760e00151968588168098036200019e57601960a21b62ffffff60a01b19600754161760075560018060a01b0319986000958a8754161786558960015416176001558860035416176003558760045416176004558660055416176005556040519061214080830191838310908311176200018a57908291620032438339039082f09081156200017e57501683600254161760025582600654161760065581600854161760085560075416176007556040516130899081620001ba8239f35b604051903d90823e3d90fd5b634e487b7160e01b84526041600452602484fd5b600080fd5b634e487b7160e01b600052604160045260246000fdfe60808060405260043610156200001457600080fd5b600090813560e01c908163089fe6aa146200200557508063150b7a021462001f905780632c012f891462001f655780633fc8cef31462001f3a5780634219dc401462001f0f578063466138de146200120d5780635c60da1b14620011e2578063791b98bc14620011b757806379502c55146200118e578063c6bbd5a71462001163578063cf72cb891462000141578063d7b7a07514620000eb5763e77772fe14620000be57600080fd5b34620000e85780600319360112620000e8576001546040516001600160a01b039091168152602090f35b80fd5b5034620000e85760a0366003190112620000e857620001096200202b565b6024358060020b81036200013c57604435918260020b83036200013c5762000139926084359260643592620021c6565b80f35b600080fd5b50610160366003190112620000e8576200015a6200202b565b906200016562002042565b916044356001600160a01b03811681036200013c5760643560020b606435036200013c5760843560020b608435036200013c57610104359062ffffff821682036200013c5767ffffffffffffffff610144351162000a1257620001cf3661014435600401620020c5565b6040516323b872dd60e01b815233600482015230602482015260a4356044820152909490602081606481856001600160a01b038c165af19182156200115757809262001112575b505015620010be5760009160018060a01b0383541660405163d455863b60e01b8152602081600481855afa80156200101057859062001076575b62ffffff91501662ffffff8316116200101b5760405163038c7d3960e61b81526001600160a01b0386166004820152602081602481855afa9081156200101057859162000fca575b501562000f685760c4351562000efd576008546001600160a01b039081169086160362000d2e57508254604051635a64ad9560e01b815290602090829060049082906001600160a01b03165afa801562000a1f57849062000cf3575b62000303915060e43562002192565b341062000c9d575b6040516370a0823160e01b81523060048201526020816024816001600160a01b038b165afa90811562000a1f57849162000c65575b5060a4351162000c0c5760a4351562000ba1576001600160a01b038481169087161462000b4e576001600160a01b03868116908516101562000b44578594845b6001600160a01b0381161562000aff5760035460075460405163a167129560e01b81526001600160a01b0384811660048301528a8116602483015260a09290921c62ffffff1660448201529591602091879160649183918b91165af194851562000a9357869562000ac7575b506001600160a01b0385163b1562000a865760405163f637731d60e01b81526001600160a01b0391821660048201529086908290602490829084908a165af1801562000a935762000ab1575b506001600160a01b038181169089160362000aa6576200047b60a4355b6001600160a01b03898116908b160362000a9e5760a435905b60843560643588620021c6565b6004805460405163095ea7b360e01b81526001600160a01b039091169181019190915260a435602482015260208180604481010381896001600160a01b038e165af1801562000a935762000a4e575b506004546007546001600160a01b03918216989160a09190911c62ffffff1690838116908b160362000a465760a435905b6001600160a01b03838116908c160362000a3e5760a435925b60644201421162000a2a5792610164926080959261014095604051946200053b8662002084565b60018060a01b0316855260018060a01b03166020850152604084015260643560020b606084015260843560020b8684015260a083015260c08201528760e082015287610100820152306101208201526064420183820152876040519a8b948593634418b22b60e11b855260018060a01b03815116600486015260018060a01b03602082015116602486015262ffffff6040820151166044860152606081015160020b60648601528781015160020b608486015260a081015160a486015260c081015160c486015260e081015160e486015261010081015161010486015260018060a01b036101208201511661012486015201516101448401525af195861562000a1f578496620009c8575b509062ffffff91604051936200065c8562002084565b33855260018060a01b038916602086015260018060a01b0316604085015260018060a01b038616606085015260c435608085015260a43560a085015260c08401521660e082015281610100820152610124356101208201528161014082015260018060a01b036002541690620007ef60018060a01b036006541660018060a01b03600454169260018060a01b036007541660018060a01b038754169060405195869463cc676be960e01b602087015260248601526044850152606484015288608484015260c060a484015260018060a01b0382511660e484015260018060a01b0360208301511661010484015260018060a01b0360408301511661012484015260018060a01b03606083015116610144840152608082015161016484015260a0820151610184840152610140620007a660c08401516101606101a487015261024486019062002142565b60e084015162ffffff166101c486015261010084015115156101e4860152610120840151610204860152920151151561022484015260c483015203601f198101835282620020a2565b60405191610416908184019184831067ffffffffffffffff841117620009b457620008309285949260409262002c3e87398152816020820152019062002142565b039082f08015620009a7576004546001600160a01b0391821694911690813b15620009a3576040516323b872dd60e01b81523060048201526001600160a01b038616602482015260448101919091529082908290606490829084905af1801562000915579082916200098b575b5062000924575b6005546001600160a01b0316803b156200092057818091602460405180948193632210724360e11b83528960048401525af180156200091557620008fd575b602084620008f560e43586896200295c565b604051908152f35b62000909829162002059565b620000e85780620008e3565b6040513d84823e3d90fd5b5080fd5b6001600160a01b0384163b15620000e85760405163f2fde38b60e01b8152600481018490528181602481836001600160a01b038a165af18015620009155790829162000973575b5050620008a4565b6200097e9062002059565b620000e85780386200096b565b620009969062002059565b620000e85780386200089d565b8280fd5b50604051903d90823e3d90fd5b634e487b7160e01b86526041600452602486fd5b9095506080813d60801162000a16575b81620009e760809383620020a2565b8101031262000a1257602081519101516001600160801b0381160362000a12579462ffffff62000646565b8380fd5b3d9150620009d8565b6040513d86823e3d90fd5b634e487b7160e01b89526011600452602489fd5b879262000514565b8690620004fb565b6020813d60201162000a8a575b8162000a6a60209383620020a2565b8101031262000a865762000a7e9062002184565b5038620004ca565b8580fd5b3d915062000a5b565b6040513d88823e3d90fd5b86906200046e565b6200047b8562000455565b62000abf9095919562002059565b933862000438565b62000aef91955060203d60201162000af7575b62000ae68183620020a2565b81019062002121565b9338620003ec565b503d62000ada565b60405162461bcd60e51b815260206004820152601e60248201527f556e697377617056324c6962726172793a205a45524f5f4144445245535300006044820152606490fd5b8594849562000380565b60405162461bcd60e51b815260206004820152602560248201527f556e697377617056324c6962726172793a204944454e544943414c5f41444452604482015264455353455360d81b6064820152608490fd5b60405162461bcd60e51b815260206004820152603960248201527f556e6973776170563350726573616c654d616b65723a2073616c6520616d6f7560448201527f6e74206d7573742062652067726561746572207468616e2030000000000000006064820152608490fd5b60405162461bcd60e51b815260206004820152602b60248201527f556e6973776170563350726573616c654d616b65723a20696e7375666669636960448201526a656e742062616c616e636560a81b6064820152608490fd5b90506020813d60201162000c94575b8162000c8360209383620020a2565b8101031262000a1257513862000340565b3d915062000c74565b60405162461bcd60e51b815260206004820152602860248201527f556e6973776170563350726573616c654d616b65723a20696e73756666696369604482015267656e74206665657360c01b6064820152608490fd5b506020813d60201162000d25575b8162000d1060209383620020a2565b8101031262000a1257620003039051620002f4565b3d915062000d01565b602060049160405192838092635a64ad9560e01b82525afa90811562000a1f57849162000ec5575b50341062000e685760e435801590811562000dd8575b506200030b5760405162461bcd60e51b815260206004820152603860248201527f556e6973776170563350726573616c654d616b65723a207472616e7366657220604482015277199bdc88189d5e481a5b9cdd185b9d1b1e4819985a5b195960421b6064820152608490fd5b6040516323b872dd60e01b815233600482015230602482015260448101919091529050602081606481876001600160a01b038a165af190811562000a1f57849162000e26575b503862000d6c565b90506020813d60201162000e5f575b8162000e4460209383620020a2565b8101031262000a125762000e589062002184565b3862000e1e565b3d915062000e35565b60405162461bcd60e51b815260206004820152602f60248201527f556e6973776170563350726573616c654d616b65723a20696e7375666669636960448201526e656e74206d696e74696e672066656560881b6064820152608490fd5b90506020813d60201162000ef4575b8162000ee360209383620020a2565b8101031262000a1257513862000d56565b3d915062000ed4565b60405162461bcd60e51b815260206004820152603c60248201527f556e6973776170563350726573616c654d616b65723a2070726573616c65206160448201527f6d6f756e74206d7573742062652067726561746572207468616e2030000000006064820152608490fd5b60405162461bcd60e51b815260206004820152603460248201527f556e6973776170563350726573616c654d616b65723a207061796d656e7420746044820152731bdad95b881b9bdd081dda1a5d195b1a5cdd195960621b6064820152608490fd5b90506020813d60201162001007575b8162000fe860209383620020a2565b81010312620010035762000ffc9062002184565b3862000298565b8480fd5b3d915062000fd9565b6040513d87823e3d90fd5b60405162461bcd60e51b815260206004820152602d60248201527f556e6973776170563350726573616c654d616b65723a2074726561737572792060448201526c0e4c2e8ca40e8dede40d0d2ced609b1b6064820152608490fd5b506020813d602011620010b5575b816200109360209383620020a2565b8101031262001003575162ffffff81168103620010035762ffffff9062000250565b3d915062001084565b60405162461bcd60e51b815260206004820152602660248201527f556e6973776170563350726573616c654d616b65723a207472616e736665722060448201526519985a5b195960d21b6064820152608490fd5b9091506020823d6020116200114e575b816200113160209383620020a2565b81010312620000e85750620011469062002184565b388062000216565b3d915062001122565b604051903d90823e3d90fd5b5034620000e85780600319360112620000e8576007546040516001600160a01b039091168152602090f35b5034620000e85780600319360112620000e857546040516001600160a01b039091168152602090f35b5034620000e85780600319360112620000e8576004546040516001600160a01b039091168152602090f35b5034620000e85780600319360112620000e8576002546040516001600160a01b039091168152602090f35b506101a0366003190112620000e857620012266200202b565b60243567ffffffffffffffff8111620009a35762001249903690600401620020c5565b9060443567ffffffffffffffff811162000a12576200126d903690600401620020c5565b6084356001600160a01b0381168103620010035760a43560020b60a43503620010035760c43560020b60c435036200100357610144359162ffffff8316830362000a865767ffffffffffffffff610184351162000a86579460206200132896620012de3661018435600401620020c5565b96620013158460018060a01b0360015416926040519b8c9586948593623ca6d160e81b855260606004860152606485019062002142565b8381036003190160248501529062002142565b606435604483015203925af1958615620009a757819662001ee9575b5080546001600160a01b039081169087163b156200092057604051631473890d60e01b815260048101919091528181602481836001600160a01b038c165af18015620009155762001ed7575b5060643560e43581031162001ec35760e4356064350362001e39575b5060009160018060a01b0383541660405163d455863b60e01b8152602081600481855afa80156200101057859062001df1575b62ffffff91501662ffffff8316116200101b5760405163038c7d3960e61b81526001600160a01b0386166004820152602081602481855afa9081156200101057859162001daf575b501562000f6857610104351562000efd576008546001600160a01b039081169086160362001c3c57508254604051635a64ad9560e01b815290602090829060049082906001600160a01b03165afa801562000a1f57849062001c01575b6200149491506101243562002192565b341062000c9d575b6040516370a0823160e01b81523060048201526020816024816001600160a01b038b165afa90811562000a1f57849162001bc9575b5060e4351162000c0c5760e4351562000ba1576001600160a01b038481169087161462000b4e576001600160a01b03868116908516101562001bbf578594845b6001600160a01b0381161562000aff5760035460075460405163a167129560e01b81526001600160a01b0384811660048301528a8116602483015260a09290921c62ffffff1660448201529591602091879160649183918b91165af194851562000a9357869562001b99575b506001600160a01b0385163b1562000a865760405163f637731d60e01b81526001600160a01b0391821660048201529086908290602490829084908a165af1801562000a935762001b83575b506001600160a01b038181169089160362001b78576200160c60e4355b6001600160a01b03898116908b160362001b705760e435905b60c43560a43588620021c6565b6004805460405163095ea7b360e01b81526001600160a01b039091169181019190915260e435602482015260208180604481010381896001600160a01b038e165af1801562000a935762001b2f575b506004546007546001600160a01b03918216989160a09190911c62ffffff1690838116908b160362001b275760e435905b6001600160a01b03838116908c160362001b1f5760e435925b60644201421162000a2a579261016492608095926101409560405194620016cc8662002084565b60018060a01b0316855260018060a01b03166020850152604084015260a43560020b606084015260c43560020b8684015260a083015260c08201528760e082015287610100820152306101208201526064420183820152876040519a8b948593634418b22b60e11b855260018060a01b03815116600486015260018060a01b03602082015116602486015262ffffff6040820151166044860152606081015160020b60648601528781015160020b608486015260a081015160a486015260c081015160c486015260e081015160e486015261010081015161010486015260018060a01b036101208201511661012486015201516101448401525af195861562000a1f57849662001acc575b509062ffffff9160405193620017ed8562002084565b33855260018060a01b038916602086015260018060a01b0316604085015260018060a01b038616606085015261010435608085015260e43560a085015260c08401521660e08201528161010082015261016435610120820152600161014082015260018060a01b0360025416906200193960018060a01b036006541660018060a01b03600454169260018060a01b036007541660018060a01b038754169060405195869463cc676be960e01b602087015260248601526044850152606484015288608484015260c060a484015260018060a01b0382511660e484015260018060a01b0360208301511661010484015260018060a01b0360408301511661012484015260018060a01b03606083015116610144840152608082015161016484015260a0820151610184840152610140620007a660c08401516101606101a487015261024486019062002142565b60405191610416908184019184831067ffffffffffffffff841117620009b4576200197a9285949260409262002c3e87398152816020820152019062002142565b039082f08015620009a7576004546001600160a01b0391821694911690813b15620009a3576040516323b872dd60e01b81523060048201526001600160a01b038616602482015260448101919091529082908290606490829084905af18015620009155790829162001ab4575b50506001600160a01b0384163b15620000e85760405163f2fde38b60e01b8152600481018490528181602481836001600160a01b038a165af18015620009155790829162001a9c575b50506005546001600160a01b0316803b156200092057818091602460405180948193632210724360e11b83528960048401525af18015620009155762001a84575b602084620008f56101243586896200295c565b62001a90829162002059565b620000e8578062001a71565b62001aa79062002059565b620000e857803862001a30565b62001abf9062002059565b620000e8578038620019e7565b9095506080813d60801162001b16575b8162001aeb60809383620020a2565b8101031262000a1257602081519101516001600160801b0381160362000a12579462ffffff620017d7565b3d915062001adc565b8792620016a5565b86906200168c565b6020813d60201162001b67575b8162001b4b60209383620020a2565b8101031262000a865762001b5f9062002184565b50386200165b565b3d915062001b3c565b8690620015ff565b6200160c85620015e6565b62001b919095919562002059565b9338620015c9565b62001bb791955060203d60201162000af75762000ae68183620020a2565b93386200157d565b8594849562001511565b90506020813d60201162001bf8575b8162001be760209383620020a2565b8101031262000a12575138620014d1565b3d915062001bd8565b506020813d60201162001c33575b8162001c1e60209383620020a2565b8101031262000a125762001494905162001484565b3d915062001c0f565b602060049160405192838092635a64ad9560e01b82525afa90811562000a1f57849162001d77575b50341062000e685761012435801590811562001ce7575b506200149c5760405162461bcd60e51b815260206004820152603860248201527f556e6973776170563350726573616c654d616b65723a207472616e7366657220604482015277199bdc88189d5e481a5b9cdd185b9d1b1e4819985a5b195960421b6064820152608490fd5b6040516323b872dd60e01b815233600482015230602482015260448101919091529050602081606481876001600160a01b038a165af190811562000a1f57849162001d35575b503862001c7b565b90506020813d60201162001d6e575b8162001d5360209383620020a2565b8101031262000a125762001d679062002184565b3862001d2d565b3d915062001d44565b90506020813d60201162001da6575b8162001d9560209383620020a2565b8101031262000a1257513862001c64565b3d915062001d86565b90506020813d60201162001de8575b8162001dcd60209383620020a2565b81010312620010035762001de19062002184565b3862001427565b3d915062001dbe565b506020813d60201162001e30575b8162001e0e60209383620020a2565b8101031262001003575162ffffff81168103620010035762ffffff90620013df565b3d915062001dff565b60405163a9059cbb60e01b815233600482015260e43560643503602482015290602082604481846001600160a01b038c165af18015620009a75762001e80575b50620013ac565b6020823d60201162001eba575b8162001e9c60209383620020a2565b81010312620000e8575062001eb19062002184565b50388062001e79565b3d915062001e8d565b634e487b7160e01b81526011600452602490fd5b62001ee29062002059565b3862001390565b62001f0791965060203d60201162000af75762000ae68183620020a2565b943862001344565b5034620000e85780600319360112620000e8576003546040516001600160a01b039091168152602090f35b5034620000e85780600319360112620000e8576008546040516001600160a01b039091168152602090f35b5034620000e85780600319360112620000e8576005546040516001600160a01b039091168152602090f35b5034620000e8576080366003190112620000e85762001fae6200202b565b5062001fb962002042565b5060643567ffffffffffffffff808211620009a35736602383011215620009a3578160040135908111620009a35736910160240111620000e857604051630a85bd0160e11b8152602090f35b905034620009205781600319360112620009205760209062ffffff60075460a01c168152f35b600435906001600160a01b03821682036200013c57565b602435906001600160a01b03821682036200013c57565b67ffffffffffffffff81116200206e57604052565b634e487b7160e01b600052604160045260246000fd5b610160810190811067ffffffffffffffff8211176200206e57604052565b90601f8019910116810190811067ffffffffffffffff8211176200206e57604052565b81601f820112156200013c5780359067ffffffffffffffff82116200206e5760405192620020fe601f8401601f191660200185620020a2565b828452602083830101116200013c57816000926020809301838601378301015290565b908160209103126200013c57516001600160a01b03811681036200013c5790565b919082519283825260005b8481106200216f575050826000602080949584010152601f8019910116010190565b6020818301810151848301820152016200214d565b519081151582036200013c57565b91908201809211620021a057565b634e487b7160e01b600052601160045260246000fd5b519061ffff821682036200013c57565b604051633850c7bd60e01b815295946001600160a01b03949392909160e0908890600490829089165afa968715620023c85760009762002313575b5095620022226200221b6001600160801b039798620023d4565b93620023d4565b929483868282168184161162002306575b5050818116908681168211620022b1575050505062002252926200278b565b16156200225b57565b60405162461bcd60e51b815260206004820152602860248201527f556e6973776170563350726573616c654d616b65723a20696e76616c6964206c604482015267697175696469747960c01b6064820152608490fd5b8492949593951611600014620022f8578291620022d491620022db95946200278b565b936200292f565b8083168284161015620022f057505b62002252565b905062002252565b915050620022ea926200292f565b9096509350388062002233565b60e0813d8211620023bf575b816200232e60e09383620020a2565b81010312620023bb578051978689168903620000e85760208201518060020b03620000e8576200236160408301620021b6565b506200237060608301620021b6565b506200237f60808301620021b6565b5060a082015160ff811603620000e857506200221b6001600160801b039798620023b060c062002222940162002184565b509897505062002201565b8780fd5b3d91506200231f565b6040513d6000823e3d90fd5b60020b6000811215620027845780600003905b620d89e88211620027725760018216156200275f576001600160881b036ffffcb933bd6fad37aa2d162d1a5940015b16916002811662002742575b6004811662002725575b6008811662002708575b60108116620026eb575b60208116620026ce575b60408116620026b1575b60809081811662002695575b610100811662002679575b61020081166200265d575b610400811662002641575b610800811662002625575b611000811662002609575b6120008116620025ed575b6140008116620025d1575b6180008116620025b5575b62010000811662002599575b6202000081166200257e575b62040000811662002563575b620800001662002547575b5060001262002520575b63ffffffff811662002517576000905b60201c60ff91909116016001600160a01b031690565b60019062002501565b8015620025315760001904620024f1565b634e487b7160e01b600052601260045260246000fd5b6b048a170391f7dc42444e8fa26000929302901c9190620024e7565b6d2216e584f5fa1ea926041bedfe98909302811c92620024dc565b926e5d6af8dedb81196699c329225ee60402811c92620024d0565b926f09aa508b5b7a84e1c677de54f3e99bc902811c92620024c4565b926f31be135f97d08fd981231505542fcfa602811c92620024b8565b926f70d869a156d2a1b890bb3df62baf32f702811c92620024ad565b926fa9f746462d870fdf8a65dc1f90e061e502811c92620024a2565b926fd097f3bdfd2022b8845ad8f792aa582502811c9262002497565b926fe7159475a2c29b7443b29c7fa6e889d902811c926200248c565b926ff3392b0822b70005940c7a398e4b70f302811c9262002481565b926ff987a7253ac413176f2b074cf7815e5402811c9262002476565b926ffcbe86c7900a88aedcffc83b479aa3a402811c926200246b565b926ffe5dee046a99a2a811c461f1969c305302811c9262002460565b916fff2ea16466c96a3843ec78b326b528610260801c9162002454565b916fff973b41fa98c081472e6896dfb254c00260801c916200244a565b916fffcb9843d60f6159c9db58835c9266440260801c9162002440565b916fffe5caca7e10e4e61c3624eaa0941cd00260801c9162002436565b916ffff2e50f5f656932ef12357cf3c7fdcc0260801c916200242c565b916ffff97272373d413259a46990580e213a0260801c9162002422565b6001600160881b03600160801b62002416565b6040516315e4079d60e11b8152600490fd5b80620023e7565b620027c29291906001600160a01b039081831682821611620027d7575b620027b8828416838316620027de565b92031691620028b8565b6001600160801b0381169081036200013c5790565b91620027a8565b60001982820990828102928380841093039183830393600093146200282057600160601b9284841115620000e857500990828211900360a01b910360601c1790565b505090505060601c90565b90600160601b90600019828409928060601b92838086109503948086039514620028a957848311156200013c5782910981806000031680920460028082600302188083028203028083028203028083028203028083028203028083028203028092029003029360018380600003040190848311900302920304170290565b5050809250156200013c570490565b916000198284099282810292838086109503948086039514620028a957848311156200013c5782910981806000031680920460028082600302188083028203028083028203028083028203028083028203028083028203028092029003029360018380600003040190848311900302920304170290565b620027c292916001600160a01b0391908281168383161162002955575b0316906200282b565b906200294c565b90929192831562002c3757600854620029ce9291906001600160a01b03906000908284169083160362002c30575085925b81811692826006541692604095865163095ea7b360e01b81528a818060209b8c9360049a8b840160209093929193604081019460018060a01b031681520152565b038160008b5af1801562002c255762002be9575b50816006541692600754948851956bffffffffffffffffffffffff19809360601b168b88015262ffffff60e81b9060481b16603487015260601b166037850152602b84526060840167ffffffffffffffff948082108683111762002bd457600a42019586421162002bbf5761010082019081118382101762002baa57908a9695949392918a52808252608081019030825260a0810196875260c081019d8e5260e001600081528a519d8e978896879563c04b8d5960e01b87528b8d880152516024870160a0905260c4870162002ab89162002142565b94511660448601525160648501525160848401525160a483015203925af195861562002b9f5760009662002b6a575b50825163a9059cbb60e01b8152339181019182526020820196909652939493839185918290600090829060400103925af190811562002b60575062002b2a575050565b81813d831162002b58575b62002b418183620020a2565b810103126200013c5762002b559062002184565b50565b503d62002b35565b513d6000823e3d90fd5b90958482813d831162002b97575b62002b848183620020a2565b81010312620000e8575051948362002ae7565b503d62002b78565b83513d6000823e3d90fd5b604188634e487b7160e01b6000525260246000fd5b601188634e487b7160e01b6000525260246000fd5b604187634e487b7160e01b6000525260246000fd5b8881813d831162002c1d575b62002c018183620020a2565b810103126200013c5762002c159062002184565b5038620029e2565b503d62002bf5565b88513d6000823e3d90fd5b926200298d565b5050905056fe604060808152610416908138038061001681610218565b93843982019181818403126102135780516001600160a01b038116808203610213576020838101516001600160401b0394919391858211610213570186601f820112156102135780519061007161006c83610253565b610218565b918083528583019886828401011161021357888661008f930161026e565b813b156101b9577f360894a13ba1a3210667c828492db98dca3e2076cc3735a920a3ca505d382bbc80546001600160a01b031916841790556000927fbc7cd75a20ee27fd9adebab32041f755214dbc6bffa90cc0225b39da2e5c2d3b8480a28051158015906101b2575b61010b575b855160d190816103458239f35b855194606086019081118682101761019e578697849283926101889952602788527f416464726573733a206c6f772d6c6576656c2064656c65676174652063616c6c87890152660819985a5b195960ca1b8a8901525190845af4913d15610194573d9061017a61006c83610253565b91825281943d92013e610291565b508038808080806100fe565b5060609250610291565b634e487b7160e01b84526041600452602484fd5b50826100f9565b855162461bcd60e51b815260048101859052602d60248201527f455243313936373a206e657720696d706c656d656e746174696f6e206973206e60448201526c1bdd08184818dbdb9d1c9858dd609a1b6064820152608490fd5b600080fd5b6040519190601f01601f191682016001600160401b0381118382101761023d57604052565b634e487b7160e01b600052604160045260246000fd5b6001600160401b03811161023d57601f01601f191660200190565b60005b8381106102815750506000910152565b8181015183820152602001610271565b919290156102f357508151156102a5575090565b3b156102ae5790565b60405162461bcd60e51b815260206004820152601d60248201527f416464726573733a2063616c6c20746f206e6f6e2d636f6e74726163740000006044820152606490fd5b8251909150156103065750805190602001fd5b6044604051809262461bcd60e51b825260206004830152610336815180928160248601526020868601910161026e565b601f01601f19168101030190fdfe608060405236156054577f360894a13ba1a3210667c828492db98dca3e2076cc3735a920a3ca505d382bbc54600090819081906001600160a01b0316368280378136915af43d82803e156050573d90f35b3d90fd5b7f360894a13ba1a3210667c828492db98dca3e2076cc3735a920a3ca505d382bbc54600090819081906001600160a01b0316368280378136915af43d82803e156050573d90f3fea2646970667358221220625440684efb858c249dcec310da1a2b740e26994a6c8af7e1b69ae111f61f2d64736f6c63430008130033a2646970667358221220ad3e5257383df53f73127af7adf1c7c8e9b131d25d3e37f914762073997bbfa064736f6c634300081300336080806040523461001657612124908161001c8239f35b600080fdfe608080604052600436101561001357600080fd5b600090813560e01c90816308ae7ebd14610b2657508063150b7a0214610ac35780632fc6e8b714610a9d578063370158ea1461085957806365a5c8921461083e5780636addb663146106dd5780638814e0e714610618578063939c4456146105f5578063cc676be9146100b85763d4ac98fc1461008f57600080fd5b346100b557806003193601126100b557602060646100ab611c29565b1015604051908152f35b80fd5b50346100b55760031960c0368201126105e5576004356001600160a01b03811681036105f157602435906001600160a01b03821682036105e957604435926001600160a01b03841684036105ed576001600160401b03608435116105ed5761016090608435360301126105e9576040516101318161151d565b61013f608435600401611498565b815261014f602460843501611498565b6020820152610162604460843501611498565b6040820152610175606460843501611498565b60608201526084803590810135608083015260a481013560a083015260c401356001600160401b0381116105e15736602382608435010112156105e157856101c4600483608435010135611576565b916101d26040519384611555565b60843581016004810135808552369101602401116105e55760209060049060843581018083013590602401868501376084350101358301015260c082015260e4608435013562ffffff811681036105e15760e082015261023761010460843501611591565b610100820152610124608435013561012082015261025a61014460843501611591565b61014082015260a4356001600160a01b03811681036105e15785549160ff8360081c1615928380946105d4575b80156105bd575b156105615760ff198116600117885583610550575b508051600180546001600160a01b03199081166001600160a01b0393841617909155602083015160028054831691841691909117905560408301516003805483169184169190911790556060830151600480549092169216919091179055608081015160055560a081015160065560c08101518051906001600160401b03821161053c576103326007546115ff565b601f81116104d5575b50602090601f8311600114610460576101409392918a9183610455575b50508160011b916000199060031b1c1916176007555b62ffffff60e0820151166008549063ff000000610100840151151560181b169163ffffffff191617176008556101208101516009550151151560ff8019600a5416911617600a5560018060a01b03166001600160601b0360a01b600b541617600b5561041c575b600e80546001600160a01b03199081166001600160a01b0393841617909155600c8054821693831693909317909255600f80549092169216919091179055606435600d5580f35b61ff001984541684557f7f26b83ff96e1f2b6a682f133852f6798a09c465da95921460cefb3847402498602060405160018152a16103d5565b015190503880610358565b60078a526000805160206120cf8339815191529190601f1984168b5b8181106104bd5750916001939185610140979694106104a4575b505050811b0160075561036e565b015160001960f88460031b161c19169055388080610496565b9293602060018192878601518155019501930161047c565b60078a52601f830160051c6000805160206120cf8339815191520160208410610527575b601f820160051c6000805160206120cf83398151915201811061051c575061033b565b8a81556001016104f9565b506000805160206120cf8339815191526104f9565b634e487b7160e01b89526041600452602489fd5b61ffff1916610101178755386102a3565b60405162461bcd60e51b815260206004820152602e60248201527f496e697469616c697a61626c653a20636f6e747261637420697320616c72656160448201526d191e481a5b9a5d1a585b1a5e995960921b6064820152608490fd5b50303b15801561028e5750600160ff82161461028e565b50600160ff821610610287565b8580fd5b5080fd5b8380fd5b8480fd5b8280fd5b50346100b557806003193601126100b5576020610610611c29565b604051908152f35b50346100b557806003193601126100b557610180610634611ea3565b604051906001600160601b03815116825260018060a01b03806020830151166020840152806040830151166040840152606082015116606083015262ffffff608082015116608083015260a081015160020b60a083015260c081015160020b60c08301526001600160801b038060e08301511660e08401526101008083015190840152610120808301519084015261014081818401511690840152610160809201511690820152f35b50346100b557806003193601126100b5576002546040516306fdde0360e01b8152916001600160a01b03909116908083600481855afa928315610831578193610815575b506040516395d89b4160e01b81528181600481865afa90811561080a5782916107e8575b506040516318160ddd60e01b8152602081600481875afa9283156107dc57926107a2575b506107989061078a60405195869586526080602087015260808601906114cf565b9084820360408601526114cf565b9060608301520390f35b9091506020813d82116107d4575b816107bd60209383611555565b810103126107cf575190610798610769565b600080fd5b3d91506107b0565b604051903d90823e3d90fd5b61080491503d8084833e6107fc8183611555565b81019061159e565b38610745565b6040513d84823e3d90fd5b61082a9193503d8085833e6107fc8183611555565b9138610721565b50604051903d90823e3d90fd5b50346100b557806003193601126100b5576020610610611d57565b50346100b557806003193601126100b5578061014060405161087a8161151d565b8281528260208201528260408201528260608201528260808201528260a0820152606060c08201528260e082015282610100820152826101208201520152604051906108c58261151d565b6001546001600160a01b0390811683526002548116602084015260035481166040808501919091526004549091166060840152600554608084015260065460a084015251600754909182908061091a846115ff565b8084529360018116908115610a7b5750600114610a2e575b5061093f92500382611555565b60c082015260ff60085462ffffff811660e084015260181c16151561010082015260095461012082015260ff600a5416151561014082015260405180916020825260018060a01b03815116602083015260018060a01b03602082015116604083015260018060a01b03604082015116606083015260018060a01b036060820151166080830152608081015160a083015260a081015160c083015260c08101516101406109f9610160928360e08701526101808601906114cf565b9262ffffff60e08201511661010086015261010081015115156101208601526101208101518286015201511515908301520390f35b91929050600782526000805160206120cf8339815191525b818310610a5f57505090602061093f9282010138610932565b6020919350806001915483858801015201910190918392610a46565b90506020925061093f94915060ff191682840152151560051b82010138610932565b50346100b557806003193601126100b557602060ff60085460181c166040519015158152f35b50346100b55760803660031901126100b5576001600160a01b03600435818116036107cf57602435908116036107cf576064356001600160401b0381116105e557610b1290369060040161146b565b5050604051630a85bd0160e11b8152602090f35b82346100b55760403660031901126100b557600435916001600160a01b03831683036105e5576024356001600160401b0381116105f157610b6b90369060040161146b565b909160018060a01b036001541633149081156113ed575b50156113a8576064610b92611c29565b1061136357600b5460405163104a00a760e31b81526001600160a01b038681166004830152909160209183916024918391165afa908115611358578491611339575b50156112e857610be2611ea3565b93610beb611d57565b90610bf4611ea3565b600c54600d5460e0909201516001600160801b031691906001600160a01b03164260648101106112d457604051918260a08101106001600160401b0360a08501111761053c5782896001600160801b03959360a49360a06040970187528352602083019485528583018281526060840183815260808501916064420183528851998a988997630624e65f60e11b8952516004890152511660248701525160448601525160648501525160848401525af1801561125e576112b6575b50600c54600d5460405197916001600160a01b0316906001600160401b0360808a01908111908a11176112a2578860409160808a9b0183528152608460208201913083528a848201956001600160801b0387526001600160801b0360608401818152818851998a98899763fc6f786560e01b895251600489015260018060a01b03905116602488015251166044860152511660648401525af1801561129757611269575b50600c54600d54906001600160a01b0316803b1561108257602488926040519a8b938492630852cd8d60e31b845260048401525af1801561125e5761124a575b604081015160609091015195965086956001600160a01b039081169116610db86118d7565b610dc282826116ae565b600a5460ff1615611086576002546001600160a01b0316803b15611082578780916004604051809481936331b68deb60e11b83525af1908115610fc157889161106e575b50506040516370a0823160e01b80825230600483015290602081602481865afa908115611004578991611039575b5060405163a9059cbb60e01b8082526001600160a01b038716600483015260248201929092526020816044818d885af1801561102e5761100f575b50604051918252306004830152602082602481875afa918215611004578992610fcc575b506040519081526001600160a01b038516600482015260248101919091526020816044818b875af18015610fc157610f92575b506001600160a01b0383163b15610f8e5760a4879591828793604051998a98899788956384621bb760e01b875260048701526024860152604485015260806064850152816084850152848401378181018301849052601f01601f191681010301926001600160a01b03165af1801561080a57610f7a575b50505b630100000063ff0000001960085416176008557fb8b570f14eb44ed11fb6b2ac2ff61ceb5b29da5ae60d33184ae20b08f3a47c898180a180f35b610f83906114f4565b6100b5578082610f3d565b8680fd5b610fb39060203d602011610fba575b610fab8183611555565b81019061164d565b5088610ec6565b503d610fa1565b6040513d8a823e3d90fd5b985090506020883d602011610ffc575b81610fe960209383611555565b810103126107cf57965188976020610e93565b3d9150610fdc565b6040513d8b823e3d90fd5b6110279060203d602011610fba57610fab8183611555565b508a610e6f565b6040513d8c823e3d90fd5b9850506020883d602011611066575b8161105560209383611555565b810103126107cf578897518a610e34565b3d9150611048565b611077906114f4565b610f8e578689610e06565b8780fd5b6001546040516370a0823160e01b8082523060048301526001600160a01b0390921698509096509194508793509150602081602481855afa90811561123f578391611207575b5060405163a9059cbb60e01b8082526001600160a01b0397909716600482015260248101919091529160209183916044918391905af180156111fc576111dd575b506001546040519283523060048401526001600160a01b0316928490602084602481865afa93841561080a5782946111a1575b506040519081526001600160a01b0390941660048501526024840192909252602091839190829081604481015b03925af1801561080a57611182575b50610f40565b61119a9060203d602011610fba57610fab8183611555565b508161117c565b93509190506020833d6020116111d5575b816111bf60209383611555565b810103126107cf5791519190849061116d611140565b3d91506111b2565b6111f59060203d602011610fba57610fab8183611555565b508461110d565b6040513d87823e3d90fd5b9250506020823d602011611237575b8161122360209383611555565b810103126107cf57905185919060206110cc565b3d9150611216565b6040513d85823e3d90fd5b949095611256906114f4565b938590610d93565b6040513d88823e3d90fd5b61128a9060403d604011611290575b6112828183611555565b810190611e6b565b50610d53565b503d611278565b6040513d89823e3d90fd5b634e487b7160e01b88526041600452602488fd5b6112ce9060403d604011611290576112828183611555565b50610caf565b634e487b7160e01b88526011600452602488fd5b60405162461bcd60e51b8152602060048201526024808201527f50726573616c653a206469737472696275746f72206e6f742077686974656c696044820152631cdd195960e21b6064820152608490fd5b611352915060203d602011610fba57610fab8183611555565b85610bd4565b6040513d86823e3d90fd5b60405162461bcd60e51b815260206004820152601e60248201527f50726573616c653a20626f6e64696e67206375727665206e6f7420656e6400006044820152606490fd5b60405162461bcd60e51b815260206004820152601760248201527f50726573616c653a206e6f7420617574686f72697a65640000000000000000006044820152606490fd5b600b54638da5cb5b60e01b8252909150602090829060049082906001600160a01b03165afa908115611358578491611432575b506001600160a01b0316331485610b82565b90506020813d8211611463575b8161144c60209383611555565b810103126105e95761145d90611639565b85611420565b3d915061143f565b9181601f840112156107cf578235916001600160401b0383116107cf57602083818601950101116107cf57565b35906001600160a01b03821682036107cf57565b60005b8381106114bf5750506000910152565b81810151838201526020016114af565b906020916114e8815180928185528580860191016114ac565b601f01601f1916010190565b6001600160401b03811161150757604052565b634e487b7160e01b600052604160045260246000fd5b61016081019081106001600160401b0382111761150757604052565b61018081019081106001600160401b0382111761150757604052565b90601f801991011681019081106001600160401b0382111761150757604052565b6001600160401b03811161150757601f01601f191660200190565b359081151582036107cf57565b6020818303126107cf578051906001600160401b0382116107cf570181601f820112156107cf5780516115d081611576565b926115de6040519485611555565b818452602082840101116107cf576115fc91602080850191016114ac565b90565b90600182811c9216801561162f575b602083101461161957565b634e487b7160e01b600052602260045260246000fd5b91607f169161160e565b51906001600160a01b03821682036107cf57565b908160209103126107cf575180151581036107cf5790565b8181029291811591840414171561167857565b634e487b7160e01b600052601160045260246000fd5b8115611698570490565b634e487b7160e01b600052601260045260246000fd5b9062ffffff600854169081156118c257604080516370a0823160e01b808252306004830152602095909492936001600160a01b03939092918416918781602481865afa9081156118b75782918691600091611884575b50611714620f4240948592611665565b04941696865190815230600482015288816024818b5afa908115611879579089939291600091611845575b509061174a91611665565b0492806117d4575b50505080611762575b5050505050565b600154835163a9059cbb60e01b815292166001600160a01b0316600483015260248201529183908390816000816044810103925af19081156117ca57506117ac575b80808061175b565b816117c292903d10610fba57610fab8183611555565b5038806117a4565b513d6000823e3d90fd5b600154865163a9059cbb60e01b81529086166001600160a01b031660048201526024810191909152918290816000816044810103925af1801561183a5761181d575b8581611752565b61183390863d8811610fba57610fab8183611555565b5038611816565b84513d6000823e3d90fd5b91929382813d8311611872575b61185c8183611555565b810103126100b55750518892919061174a61173f565b503d611852565b87513d6000823e3d90fd5b925090508882813d81116118b0575b61189d8183611555565b810103126100b557508482915138611704565b503d611893565b86513d6000823e3d90fd5b505050565b519062ffffff821682036107cf57565b60018060a01b0380600b541690806002541691600491808354166040928351956303b2ec6b60e61b8752858701528160248701526020958681604481855afa8015611c1e57600090611be7575b62ffffff915016908115611bde5784516370a0823160e01b808252308883015293908881602481855afa9081156118795789859493928a92600091611ba7575b50611974620f4240978892611665565b049384611acf575b5050505050836002541692855190815230878201528781602481875afa9081156118b757600091611aa0575b50906119b391611665565b0491826119c3575b505050505050565b858591600b54168551968780926323c1116160e11b82525afa94851561183a579086939291600096611a5b575b50845163a9059cbb60e01b81526001600160a01b0390961690860190815260208101929092528491829060009082906040015b03925af19081156117ca5750611a3d575b808080806119bb565b81611a5392903d10610fba57610fab8183611555565b503880611a34565b9193828197929496973d8311611a99575b611a768183611555565b810103126100b5575091611a239493916000611a928895611639565b96506119f0565b503d611a6c565b908882813d8311611ac8575b611ab68183611555565b810103126100b55750516119b36119a8565b503d611aac565b89516323c1116160e11b815292839182905afa908115611b9c57908a9291600091611b5f575b50885163a9059cbb60e01b81526001600160a01b03909116818b01908152602081019490945292839190829060009082906040015b03925af180156118b757611b42575b8087898261197c565b611b5890883d8a11610fba57610fab8183611555565b5038611b39565b919282813d8311611b95575b611b758183611555565b810103126100b55750918991611b8d611b2a94611639565b909193611af5565b503d611b6b565b88513d6000823e3d90fd5b93949550915082813d8311611bd7575b611bc18183611555565b810103126100b557509087898594935138611964565b503d611bb7565b50505050505050565b8782813d8311611c17575b611bfc8183611555565b810103126100b55750611c1262ffffff916118c7565b611924565b503d611bf2565b85513d6000823e3d90fd5b611c31611ea3565b604081019060018060a01b0380835116928160035416936040519485946370a0823160e01b9283875282600488015286602460209889935afa968715611d1b57600097611d27575b509060248560608894015116936040519485938492835260048301525afa938415611d1b57600094611cea575b5050516002548216911614611cd0575080606402906064820403611678576005546115fc9161168e565b60648082029250820403611678576005546115fc9161168e565b8181959293953d8311611d14575b611d028183611555565b810103126100b5575051918138611ca6565b503d611cf8565b6040513d6000823e3d90fd5b90968682813d8311611d50575b611d3e8183611555565b810103126100b5575051956024611c79565b503d611d34565b611d5f611ea3565b60018060a01b0380600f54169062ffffff6080826040860151169260608601511694015116926040519263313ce56760e01b84526020938481600481875afa908115611d1b57600091611e33575b5060ff1692604d841161167857600060a4928695604051988996879563f7729d4360e01b8752600487015260248601526044850152600a0a60648401528160848401525af1908115611d1b57600091611e07575b50905090565b82813d8311611e2c575b611e1b8183611555565b810103126100b55750518038611e01565b503d611e11565b8581813d8311611e64575b611e488183611555565b810103126105e557519060ff821682036100b5575060ff611dad565b503d611e3e565b91908260409103126107cf576020825192015190565b51908160020b82036107cf57565b51906001600160801b03821682036107cf57565b61016090604051611eb381611539565b60009281848093528260208201528260408201528260608201528260808201528260a08201528260c08201528260e0820152826101008201528261012082015282610140820152015260018060a01b03600c541691600d5460405193849163133f757160e31b835260048301528160246101809384935afa90811561080a57829083958496859786988791889389978a80978199829c611fdc575b5050509162ffffff93916001600160601b03611f709d9e946040519e8f611539565b168d526001600160a01b0390811660208e015290811660408d01521660608b0152166080890152600290810b60a08901520b60c08701526001600160801b0392831660e08701526101008601949094526101208501939093529182166101408401521661016082015290565b9b509b509c5050505050505050505081813d83116120c7575b611fff8183611555565b810103126105f1578051906001600160601b03821682036105e957611f7092935061202c60208201611639565b9061203960408201611639565b9261204660608301611639565b91612053608082016118c7565b61205f60a08301611e81565b62ffffff61206f60c08501611e81565b9161207c60e08601611e8f565b93610100860151976101208701519a6001600160601b036120ad6101606120a66101408c01611e8f565b9a01611e8f565b999b9192939496979a9c98999b92949e9d82949650611f4e565b503d611ff556fea66cc928b5edb82af9bd49922954155ab7b0942694bea4ce44661d9a8736c688a2646970667358221220fd2dc55bffe802203a4566f372f3548f8de6e8762fb4e5b9caed0673f7c0b93e64736f6c63430008130033",
  "devdoc": {
    "kind": "dev",
    "methods": {
      "onERC721Received(address,address,uint256,bytes)": {
        "details": "Whenever an {IERC721} `tokenId` token is transferred to this contract via {IERC721-safeTransferFrom} by `operator` from `from`, this function is called. It must return its Solidity selector to confirm the token transfer. If any other value is returned or the interface is not implemented by the recipient, the transfer will be reverted. The selector can be obtained in Solidity with `IERC721Receiver.onERC721Received.selector`."
      }
    },
    "version": 1
  },
  "userdoc": {
    "kind": "user",
    "methods": {},
    "version": 1
  },
  "storageLayout": {
    "storage": [
      {
        "astId": 11291,
        "contract": "contracts/presale/UniswapV3PresaleMaker.sol:UniswapV3PresaleMaker",
        "label": "config",
        "offset": 0,
        "slot": "0",
        "type": "t_contract(Configuration)9964"
      },
      {
        "astId": 11294,
        "contract": "contracts/presale/UniswapV3PresaleMaker.sol:UniswapV3PresaleMaker",
        "label": "tokenFactory",
        "offset": 0,
        "slot": "1",
        "type": "t_contract(TokenFactory)314"
      },
      {
        "astId": 11297,
        "contract": "contracts/presale/UniswapV3PresaleMaker.sol:UniswapV3PresaleMaker",
        "label": "implementation",
        "offset": 0,
        "slot": "2",
        "type": "t_contract(UniswapV3Presale)11254"
      },
      {
        "astId": 11300,
        "contract": "contracts/presale/UniswapV3PresaleMaker.sol:UniswapV3PresaleMaker",
        "label": "poolFactory",
        "offset": 0,
        "slot": "3",
        "type": "t_contract(IUniswapV3Factory)2998"
      },
      {
        "astId": 11303,
        "contract": "contracts/presale/UniswapV3PresaleMaker.sol:UniswapV3PresaleMaker",
        "label": "positionManager",
        "offset": 0,
        "slot": "4",
        "type": "t_contract(INonfungiblePositionManager)4546"
      },
      {
        "astId": 11306,
        "contract": "contracts/presale/UniswapV3PresaleMaker.sol:UniswapV3PresaleMaker",
        "label": "presaleManager",
        "offset": 0,
        "slot": "5",
        "type": "t_contract(PresaleManager)10389"
      },
      {
        "astId": 11309,
        "contract": "contracts/presale/UniswapV3PresaleMaker.sol:UniswapV3PresaleMaker",
        "label": "swapRouter",
        "offset": 0,
        "slot": "6",
        "type": "t_contract(ISwapRouter)4764"
      },
      {
        "astId": 11312,
        "contract": "contracts/presale/UniswapV3PresaleMaker.sol:UniswapV3PresaleMaker",
        "label": "quoter",
        "offset": 0,
        "slot": "7",
        "type": "t_contract(Quoter)5236"
      },
      {
        "astId": 11315,
        "contract": "contracts/presale/UniswapV3PresaleMaker.sol:UniswapV3PresaleMaker",
        "label": "poolFee",
        "offset": 20,
        "slot": "7",
        "type": "t_uint24"
      },
      {
        "astId": 11317,
        "contract": "contracts/presale/UniswapV3PresaleMaker.sol:UniswapV3PresaleMaker",
        "label": "weth",
        "offset": 0,
        "slot": "8",
        "type": "t_address"
      }
    ],
    "types": {
      "t_address": {
        "encoding": "inplace",
        "label": "address",
        "numberOfBytes": "20"
      },
      "t_contract(Configuration)9964": {
        "encoding": "inplace",
        "label": "contract Configuration",
        "numberOfBytes": "20"
      },
      "t_contract(INonfungiblePositionManager)4546": {
        "encoding": "inplace",
        "label": "contract INonfungiblePositionManager",
        "numberOfBytes": "20"
      },
      "t_contract(ISwapRouter)4764": {
        "encoding": "inplace",
        "label": "contract ISwapRouter",
        "numberOfBytes": "20"
      },
      "t_contract(IUniswapV3Factory)2998": {
        "encoding": "inplace",
        "label": "contract IUniswapV3Factory",
        "numberOfBytes": "20"
      },
      "t_contract(PresaleManager)10389": {
        "encoding": "inplace",
        "label": "contract PresaleManager",
        "numberOfBytes": "20"
      },
      "t_contract(Quoter)5236": {
        "encoding": "inplace",
        "label": "contract Quoter",
        "numberOfBytes": "20"
      },
      "t_contract(TokenFactory)314": {
        "encoding": "inplace",
        "label": "contract TokenFactory",
        "numberOfBytes": "20"
      },
      "t_contract(UniswapV3Presale)11254": {
        "encoding": "inplace",
        "label": "contract UniswapV3Presale",
        "numberOfBytes": "20"
      },
      "t_uint24": {
        "encoding": "inplace",
        "label": "uint24",
        "numberOfBytes": "3"
      }
    }
  }
}