{
  "address": "0x92af3f2Fdb0E5df9158907a417c2E63583f2F838",
  "abi": [
    {
      "inputs": [
        {
          "internalType": "contract Configuration",
          "name": "_config",
          "type": "address"
        },
        {
          "internalType": "contract IUniswapV2Factory",
          "name": "_factory",
          "type": "address"
        },
        {
          "internalType": "contract IUniswapV2Router01",
          "name": "_router",
          "type": "address"
        }
      ],
      "stateMutability": "nonpayable",
      "type": "constructor"
    },
    {
      "inputs": [
        {
          "internalType": "address",
          "name": "token0",
          "type": "address"
        },
        {
          "internalType": "address",
          "name": "token1",
          "type": "address"
        }
      ],
      "name": "canDistribute",
      "outputs": [
        {
          "internalType": "bool",
          "name": "",
          "type": "bool"
        }
      ],
      "stateMutability": "view",
      "type": "function"
    },
    {
      "inputs": [
        {
          "internalType": "address",
          "name": "token0",
          "type": "address"
        },
        {
          "internalType": "address",
          "name": "token1",
          "type": "address"
        },
        {
          "internalType": "uint160",
          "name": "sqrtPriceX96",
          "type": "uint160"
        },
        {
          "internalType": "uint256",
          "name": "deadline",
          "type": "uint256"
        }
      ],
      "name": "distribute",
      "outputs": [],
      "stateMutability": "nonpayable",
      "type": "function"
    },
    {
      "inputs": [
        {
          "internalType": "address",
          "name": "token0",
          "type": "address"
        },
        {
          "internalType": "address",
          "name": "token1",
          "type": "address"
        }
      ],
      "name": "getPoolAddress",
      "outputs": [
        {
          "internalType": "address",
          "name": "",
          "type": "address"
        }
      ],
      "stateMutability": "nonpayable",
      "type": "function"
    }
  ],
  "transactionHash": "0x382afd3ff490bab5078970add309004d4a217e27b29dfa03ba9276f5a366970e",
  "args": [
    "0x45Be544Ae3d91f242cBb7A0F577c488b20AbDc60",
    "0xfc1924E20d64AD4daA3A4947b4bAE6cDE77d2dBC",
    "0xb82b0e988a1FcA39602c5079382D360C870b44c8"
  ],
  "numDeployments": 2,
  "solcInputHash": "b080d47a4b555c5a0b849ce54ae69c4c",
  "bytecode": "0x60e0346100a957601f610d4f38819003918201601f19168301916001600160401b038311848410176100ae578084926060946040528339810103126100a95780516001600160a01b03919082811681036100a95760208201519183831683036100a9576040015192831683036100a95760805260a05260c052604051610c8a90816100c58239608051816101d9015260a0518181816108500152610a37015260c051816101530152f35b600080fd5b634e487b7160e01b600052604160045260246000fdfe6040608081526004908136101561001557600080fd5b600091823560e01c9081633fa1e0c8146104ed57816381528da91461007d5750639711eb151461004457600080fd5b3461007957806003193601126100795760209061007061006261052c565b61006a610547565b90610a00565b90519015158152f35b5080fd5b919050346104e95760803660031901126104e95761009961052c565b6100a1610547565b906001600160a01b0390604435828116036104e55780826100c3858294610925565b93169216908551906370a0823160e01b92838352308984015260209460249386818681855afa90811561037d578c916104b4575b508951868152308c82015287818781875afa9081156104aa578d9161047d575b5081151580610474575b1561041f576101308a86610a00565b156103c4578b8d838386958f8f8f906101816101049960609c8e61017c610187967f0000000000000000000000000000000000000000000000000000000000000000169a8b8094610b37565b610b37565b8c61081b565b5051988997889662e8e33760e81b88528701528b860152604485015260648401528160848401528160a48401523060c484015260643560e48401525af180156103ba5790869291610387575b501693807f000000000000000000000000000000000000000000000000000000000000000016958751956323c1116160e11b9687815286818c818c5afa90811561037d578c91610360575b50895191868352308c84015287838781845afa928d84156103555790899695949392919361031b575b509061025392916105b4565b16948888518098819382525afa9485156103115788956102de575b5090829186519788928352309083015281855afa9384156102d55750859361029f575b5061029c93506105b4565b80f35b90925083813d83116102ce575b6102b6818361055d565b810103126102ca5761029c92519138610291565b8380fd5b503d6102ac565b513d87823e3d90fd5b839291955061030290833d851161030a575b6102fa818361055d565b810190610595565b94909161026e565b503d6102f0565b86513d8a823e3d90fd5b809350869192963d831161034e575b610334818361055d565b8101031261034a57905187949091610253610247565b8c80fd5b503d61032a565b8c51903d90823e3d90fd5b6103779150873d891161030a576102fa818361055d565b3861021e565b8a513d8e823e3d90fd5b6060809293503d81116103b3575b61039f818361055d565b810103126103af578490386101d3565b8880fd5b503d610395565b88513d8c823e3d90fd5b8a5162461bcd60e51b8152808d018990526030818801527f556e697377617056324469737472696275746f723a207061697220616c72656160448201526f647920686173206c697175696469747960801b6064820152608490fd5b8a5162461bcd60e51b8152808d01899052602a818801527f556e697377617056324469737472696275746f723a20696e73756666696369656044820152696e742062616c616e636560b01b6064820152608490fd5b50801515610121565b90508781813d83116104a3575b610494818361055d565b8101031261034a575138610117565b503d61048a565b8b513d8f823e3d90fd5b90508681813d83116104de575b6104cb818361055d565b810103126104da5751386100f7565b8b80fd5b503d6104c1565b8580fd5b8280fd5b50503461007957806003193601126100795760209061051b61050d61052c565b610515610547565b9061081b565b90516001600160a01b039091168152f35b600435906001600160a01b038216820361054257565b600080fd5b602435906001600160a01b038216820361054257565b90601f8019910116810190811067ffffffffffffffff82111761057f57604052565b634e487b7160e01b600052604160045260246000fd5b9081602091031261054257516001600160a01b03811681036105425790565b60405163a9059cbb60e01b60208201526001600160a01b039290921660248301526044808301939093529181526105f5916105f060648361055d565b61060f565b565b90816020910312610542575180151581036105425790565b60408051908101916001600160a01b031667ffffffffffffffff83118284101761057f5761067f926040526000806020958685527f5361666545524332303a206c6f772d6c6576656c2063616c6c206661696c656487860152868151910182855af1610679610707565b91610747565b8051908282159283156106ef575b505050156106985750565b6084906040519062461bcd60e51b82526004820152602a60248201527f5361666545524332303a204552433230206f7065726174696f6e20646964206e6044820152691bdd081cdd58d8d9595960b21b6064820152fd5b6106ff93508201810191016105f7565b38828161068d565b3d15610742573d9067ffffffffffffffff821161057f5760405191610736601f8201601f19166020018461055d565b82523d6000602084013e565b606090565b919290156107a9575081511561075b575090565b3b156107645790565b60405162461bcd60e51b815260206004820152601d60248201527f416464726573733a2063616c6c20746f206e6f6e2d636f6e74726163740000006044820152606490fd5b8251909150156107bc5750805190602001fd5b6040519062461bcd60e51b82528160208060048301528251908160248401526000935b828510610802575050604492506000838284010152601f80199101168101030190fd5b84810182015186860160440152938101938593506107df565b906108268183610925565b60405163e6a4390560e01b81526001600160a01b03928316600482015290821660248201526020937f00000000000000000000000000000000000000000000000000000000000000008316929091908582604481875afa9182156108f257600092610906575b5081166108fe57506040516364e329cb60e11b81526001600160a01b039182166004820152921660248301528290829060449082906000905af19182156108f2576000926108d957505090565b6108ef9250803d1061030a576102fa818361055d565b90565b6040513d6000823e3d90fd5b935050505090565b61091e919250863d881161030a576102fa818361055d565b903861088c565b90916001600160a01b039182841683821680821461099957101561099457925b9183161561094f57565b60405162461bcd60e51b815260206004820152601e60248201527f556e697377617056324c6962726172793a205a45524f5f4144445245535300006044820152606490fd5b610945565b60405162461bcd60e51b815260206004820152602560248201527f556e697377617056324c6962726172793a204944454e544943414c5f41444452604482015264455353455360d81b6064820152608490fd5b51906001600160701b038216820361054257565b90610a0a91610925565b60405163e6a4390560e01b81526001600160a01b03928316600482015290821660248201526020816044817f000000000000000000000000000000000000000000000000000000000000000086165afa9081156108f257600091610b19575b501680610a765750600190565b606060049160405192838092630240bc6b60e21b82525afa9081156108f2576000908192610abe575b506001600160701b03809116159182610ab757505090565b1615919050565b91506060823d8211610b11575b81610ad86060938361055d565b81010312610b0e57610ae9826109ec565b906040610af8602085016109ec565b93015163ffffffff811603610b0e575038610a9f565b80fd5b3d9150610acb565b610b31915060203d811161030a576102fa818361055d565b38610a69565b60405163095ea7b360e01b602082018181526001600160a01b038516602484015260448084019690965294825294939092610b7360648561055d565b83516000926001600160a01b039291858416918591829182855af190610b97610707565b82610c22575b5081610c17575b5015610bb4575b50505050509050565b60405196602088015216602486015280604486015260448552608085019085821067ffffffffffffffff831117610c035750610bf893946105f0916040528261060f565b803880808080610bab565b634e487b7160e01b81526041600452602490fd5b90503b151538610ba4565b80519192508115918215610c3a575b50509038610b9d565b610c4d92506020809183010191016105f7565b3880610c3156fea26469706673582212201584766c83fd6e3bbb6dd24e3da79539b824fa80bd38581fec5cf28d999cc8c264736f6c63430008130033",
  "devdoc": {
    "kind": "dev",
    "methods": {},
    "version": 1
  },
  "userdoc": {
    "kind": "user",
    "methods": {},
    "version": 1
  },
  "storageLayout": {
    "storage": [],
    "types": null
  }
}