{
  "address": "0x0ab8E73Ab86d6138262A9ac087a4341376E8D41A",
  "abi": [
    {
      "inputs": [
        {
          "internalType": "contract Configuration",
          "name": "_config",
          "type": "address"
        },
        {
          "internalType": "contract PresaleManager",
          "name": "_presaleManager",
          "type": "address"
        },
        {
          "internalType": "contract TokenFactory",
          "name": "_tokenFactory",
          "type": "address"
        },
        {
          "internalType": "contract IUniswapV3Factory",
          "name": "_poolFactory",
          "type": "address"
        },
        {
          "internalType": "contract INonfungiblePositionManager",
          "name": "_positionManager",
          "type": "address"
        },
        {
          "internalType": "contract ISwapRouter",
          "name": "_swapRouter",
          "type": "address"
        },
        {
          "internalType": "contract Quoter",
          "name": "_quoter",
          "type": "address"
        },
        {
          "internalType": "address",
          "name": "_weth",
          "type": "address"
        }
      ],
      "stateMutability": "nonpayable",
      "type": "constructor"
    },
    {
      "inputs": [],
      "name": "T",
      "type": "error"
    },
    {
      "inputs": [
        {
          "internalType": "address",
          "name": "pool",
          "type": "address"
        },
        {
          "internalType": "int24",
          "name": "tickLower",
          "type": "int24"
        },
        {
          "internalType": "int24",
          "name": "tickUpper",
          "type": "int24"
        },
        {
          "internalType": "uint256",
          "name": "amount0Desired",
          "type": "uint256"
        },
        {
          "internalType": "uint256",
          "name": "amount1Desired",
          "type": "uint256"
        }
      ],
      "name": "assertValidParams",
      "outputs": [],
      "stateMutability": "nonpayable",
      "type": "function"
    },
    {
      "inputs": [],
      "name": "config",
      "outputs": [
        {
          "internalType": "contract Configuration",
          "name": "",
          "type": "address"
        }
      ],
      "stateMutability": "view",
      "type": "function"
    },
    {
      "inputs": [],
      "name": "eth",
      "outputs": [
        {
          "internalType": "address",
          "name": "",
          "type": "address"
        }
      ],
      "stateMutability": "view",
      "type": "function"
    },
    {
      "inputs": [],
      "name": "implementation",
      "outputs": [
        {
          "internalType": "contract UniswapV3Presale",
          "name": "",
          "type": "address"
        }
      ],
      "stateMutability": "view",
      "type": "function"
    },
    {
      "inputs": [
        {
          "internalType": "address",
          "name": "operator",
          "type": "address"
        },
        {
          "internalType": "address",
          "name": "from",
          "type": "address"
        },
        {
          "internalType": "uint256",
          "name": "tokenId",
          "type": "uint256"
        },
        {
          "internalType": "bytes",
          "name": "data",
          "type": "bytes"
        }
      ],
      "name": "onERC721Received",
      "outputs": [
        {
          "internalType": "bytes4",
          "name": "",
          "type": "bytes4"
        }
      ],
      "stateMutability": "nonpayable",
      "type": "function"
    },
    {
      "inputs": [],
      "name": "poolFactory",
      "outputs": [
        {
          "internalType": "contract IUniswapV3Factory",
          "name": "",
          "type": "address"
        }
      ],
      "stateMutability": "view",
      "type": "function"
    },
    {
      "inputs": [],
      "name": "poolFee",
      "outputs": [
        {
          "internalType": "uint24",
          "name": "",
          "type": "uint24"
        }
      ],
      "stateMutability": "view",
      "type": "function"
    },
    {
      "inputs": [],
      "name": "positionManager",
      "outputs": [
        {
          "internalType": "contract INonfungiblePositionManager",
          "name": "",
          "type": "address"
        }
      ],
      "stateMutability": "view",
      "type": "function"
    },
    {
      "inputs": [],
      "name": "presaleManager",
      "outputs": [
        {
          "internalType": "contract PresaleManager",
          "name": "",
          "type": "address"
        }
      ],
      "stateMutability": "view",
      "type": "function"
    },
    {
      "inputs": [],
      "name": "quoter",
      "outputs": [
        {
          "internalType": "contract Quoter",
          "name": "",
          "type": "address"
        }
      ],
      "stateMutability": "view",
      "type": "function"
    },
    {
      "inputs": [
        {
          "internalType": "address",
          "name": "minter",
          "type": "address"
        },
        {
          "internalType": "address",
          "name": "paymentToken",
          "type": "address"
        },
        {
          "internalType": "address",
          "name": "saleToken",
          "type": "address"
        },
        {
          "internalType": "uint160",
          "name": "sqrtPriceX96",
          "type": "uint160"
        },
        {
          "internalType": "int24",
          "name": "tickLower",
          "type": "int24"
        },
        {
          "internalType": "int24",
          "name": "tickUpper",
          "type": "int24"
        },
        {
          "internalType": "uint256",
          "name": "amountToSale",
          "type": "uint256"
        },
        {
          "internalType": "uint256",
          "name": "amountToRaise",
          "type": "uint256"
        },
        {
          "internalType": "uint256",
          "name": "amountForBuyInstantly",
          "type": "uint256"
        },
        {
          "internalType": "uint24",
          "name": "toTreasuryRate",
          "type": "uint24"
        },
        {
          "internalType": "uint256",
          "name": "startTimestamp",
          "type": "uint256"
        },
        {
          "internalType": "uint256",
          "name": "deadline",
          "type": "uint256"
        },
        {
          "internalType": "string",
          "name": "data",
          "type": "string"
        }
      ],
      "name": "start",
      "outputs": [
        {
          "internalType": "contract IPresale",
          "name": "",
          "type": "address"
        }
      ],
      "stateMutability": "payable",
      "type": "function"
    },
    {
      "inputs": [
        {
          "internalType": "address",
          "name": "minter",
          "type": "address"
        },
        {
          "internalType": "address",
          "name": "paymentToken",
          "type": "address"
        },
        {
          "internalType": "string",
          "name": "name",
          "type": "string"
        },
        {
          "internalType": "string",
          "name": "symbol",
          "type": "string"
        },
        {
          "internalType": "uint256",
          "name": "totalSupply",
          "type": "uint256"
        },
        {
          "internalType": "uint160",
          "name": "sqrtPriceX96",
          "type": "uint160"
        },
        {
          "internalType": "int24",
          "name": "tickLower",
          "type": "int24"
        },
        {
          "internalType": "int24",
          "name": "tickUpper",
          "type": "int24"
        },
        {
          "internalType": "uint256",
          "name": "amountToSale",
          "type": "uint256"
        },
        {
          "internalType": "uint256",
          "name": "amountToRaise",
          "type": "uint256"
        },
        {
          "internalType": "uint256",
          "name": "amountForBuyInstantly",
          "type": "uint256"
        },
        {
          "internalType": "uint24",
          "name": "toTreasuryRate",
          "type": "uint24"
        },
        {
          "internalType": "uint256",
          "name": "startTimestamp",
          "type": "uint256"
        },
        {
          "internalType": "uint256",
          "name": "deadline",
          "type": "uint256"
        },
        {
          "internalType": "string",
          "name": "data",
          "type": "string"
        }
      ],
      "name": "startWithNewToken",
      "outputs": [
        {
          "internalType": "contract IPresale",
          "name": "",
          "type": "address"
        }
      ],
      "stateMutability": "payable",
      "type": "function"
    },
    {
      "inputs": [
        {
          "components": [
            {
              "internalType": "address",
              "name": "paymentToken",
              "type": "address"
            },
            {
              "internalType": "string",
              "name": "name",
              "type": "string"
            },
            {
              "internalType": "string",
              "name": "symbol",
              "type": "string"
            },
            {
              "internalType": "uint256",
              "name": "totalSupply",
              "type": "uint256"
            },
            {
              "internalType": "uint160",
              "name": "sqrtPriceX96",
              "type": "uint160"
            },
            {
              "internalType": "int24",
              "name": "tickLower",
              "type": "int24"
            },
            {
              "internalType": "int24",
              "name": "tickUpper",
              "type": "int24"
            },
            {
              "internalType": "uint256",
              "name": "amountToSale",
              "type": "uint256"
            },
            {
              "internalType": "uint256",
              "name": "amountToRaise",
              "type": "uint256"
            },
            {
              "internalType": "uint256",
              "name": "amountForBuyInstantly",
              "type": "uint256"
            },
            {
              "internalType": "uint24",
              "name": "toTreasuryRate",
              "type": "uint24"
            },
            {
              "internalType": "uint256",
              "name": "startTimestamp",
              "type": "uint256"
            },
            {
              "internalType": "uint256",
              "name": "deadline",
              "type": "uint256"
            },
            {
              "internalType": "string",
              "name": "data",
              "type": "string"
            }
          ],
          "internalType": "struct UniswapV3PresaleMaker.NewTokenPresaleParams",
          "name": "params",
          "type": "tuple"
        },
        {
          "internalType": "address",
          "name": "minter",
          "type": "address"
        }
      ],
      "name": "startWithNewTokenWithParams",
      "outputs": [
        {
          "internalType": "contract IPresale",
          "name": "",
          "type": "address"
        }
      ],
      "stateMutability": "payable",
      "type": "function"
    },
    {
      "inputs": [
        {
          "components": [
            {
              "internalType": "address",
              "name": "paymentToken",
              "type": "address"
            },
            {
              "internalType": "address",
              "name": "saleToken",
              "type": "address"
            },
            {
              "internalType": "uint160",
              "name": "sqrtPriceX96",
              "type": "uint160"
            },
            {
              "internalType": "int24",
              "name": "tickLower",
              "type": "int24"
            },
            {
              "internalType": "int24",
              "name": "tickUpper",
              "type": "int24"
            },
            {
              "internalType": "uint256",
              "name": "amountToSale",
              "type": "uint256"
            },
            {
              "internalType": "uint256",
              "name": "amountToRaise",
              "type": "uint256"
            },
            {
              "internalType": "uint256",
              "name": "amountForBuyInstantly",
              "type": "uint256"
            },
            {
              "internalType": "uint24",
              "name": "toTreasuryRate",
              "type": "uint24"
            },
            {
              "internalType": "uint256",
              "name": "startTimestamp",
              "type": "uint256"
            },
            {
              "internalType": "uint256",
              "name": "deadline",
              "type": "uint256"
            },
            {
              "internalType": "string",
              "name": "data",
              "type": "string"
            }
          ],
          "internalType": "struct UniswapV3PresaleMaker.TokenPresaleParams",
          "name": "params",
          "type": "tuple"
        },
        {
          "internalType": "address",
          "name": "minter",
          "type": "address"
        }
      ],
      "name": "startWithParams",
      "outputs": [
        {
          "internalType": "contract IPresale",
          "name": "",
          "type": "address"
        }
      ],
      "stateMutability": "payable",
      "type": "function"
    },
    {
      "inputs": [],
      "name": "swapRouter",
      "outputs": [
        {
          "internalType": "contract ISwapRouter",
          "name": "",
          "type": "address"
        }
      ],
      "stateMutability": "view",
      "type": "function"
    },
    {
      "inputs": [],
      "name": "tokenFactory",
      "outputs": [
        {
          "internalType": "contract TokenFactory",
          "name": "",
          "type": "address"
        }
      ],
      "stateMutability": "view",
      "type": "function"
    },
    {
      "inputs": [],
      "name": "weth",
      "outputs": [
        {
          "internalType": "address",
          "name": "",
          "type": "address"
        }
      ],
      "stateMutability": "view",
      "type": "function"
    }
  ],
  "transactionHash": "0xd4eeae820ff3904f42902306528eef3cc1551b862af6df7f7a0a9d9171ab3c2c",
  "args": [
    "0x4C61a47CCA40752831cA53c32aC0bd8f47665E37",
    "0x2A698f358C44A1C4047fE1848c3D86ed25BD27A1",
    "0x05F25612599472423eb2cEafeCCA449587Af333f",
    "0xF0F109C8d8E71c95D862BF66c74ADD6A60784b7D",
    "0x3b9b9f3E57B2448c2950eDacBcb2878C2EaFCedF",
    "0x770916103Fd413Ac95bB25423907f6aD6b2434f0",
    "0xaB27542D7f084C1356e3D0dE2C5fEeb3d563d92d",
    "0x678c34581db0a7808d0aC669d7025f1408C9a3C6"
  ],
  "numDeployments": 5,
  "solcInputHash": "01b03a82c9c66ee650855276a66528e2",
  "bytecode": "0x6101c03462000301576001600160401b036200705b38819003601f8101601f1916840183811185821017620002eb5784928291604052833961010093849181010312620003015780516001600160a01b03918282168203620003015760208101519383851685036200030157604082015190848216820362000301576060830151858116810362000301576080840151908682168203620003015760a0850151938785168503620003015760c0860151958887168703620003015760e0015197881688036200030157610180966064885260805260a05260e052875261012095865260405190612ca4908183019083821090821117620002eb578291620043b7833903906000f08015620002df5760c0526101409081526101a0938452610160918252604051946140b096876200030788396080518781816106a601528181610c6701528181610cfc01528181610d6001528181610dab01528181610e2601528181610ea3015281816114fb0152818161173c01528181611797015281816117e201528181611c7d0152818161210e0152818161218a01528181612208015281816129ec01528181612a4801528181612a940152612db0015260a0518781816101080152610c01015260c051878181610732015281816115670152612856015260e05187818161077801528181611014015261237d0152518681816106ec015281816110f1015281816112d9015281816113e5015281816115c70152818161162c0152818161245d0152818161263401528181612747015281816128b7015261291d015251858181610804015281816116ad015261295b0152518481816101f2015281816113b70152818161271901528181613b610152613c260152518381816101ad0152818161141301526127750152518281816109c701528181610fd80152818161118d01528181612340015281816124f60152613a880152518181816107be01528181610cda01528181610ef80152818161225d0152613a400152f35b6040513d6000823e3d90fd5b634e487b7160e01b600052604160045260246000fd5b600080fdfe6101806040818152600491823610156200001857600080fd5b600092833560e01c918263089fe6aa14620009aa57508163150b7a0214620009375781632524a67514620008335781632c012f8914620007ed5781633fc8cef314620007a75781634219dc4014620007615781635c60da1b146200071b578163791b98bc14620006d557816379502c55146200068f578163897eec6314620004a35781638c7c9e0c1462000486578163acccb66214620002f4578163c05dbf7e146200022157508063c31c9c0714620001dc578063c6bbd5a71462000197578063d7b7a075146200013b5763e77772fe14620000f357600080fd5b346200013757816003193601126200013757517f00000000000000000000000000000000000000000000000000000000000000006001600160a01b03168152602090f35b5080fd5b8234620001945760a0366003190112620001945762000159620009eb565b6024358060020b81036200019057604435918260020b83036200018c576200018992608435926064359262003270565b80f35b8380fd5b8280fd5b80fd5b50346200013757816003193601126200013757517f00000000000000000000000000000000000000000000000000000000000000006001600160a01b03168152602090f35b50346200013757816003193601126200013757517f00000000000000000000000000000000000000000000000000000000000000006001600160a01b03168152602090f35b82846101a036600319011262000194576200023b620009eb565b6200024562000a07565b6001600160a01b0392604435848116810362000137576064359285841684036200019057608435948560020b86036200018c5760a435988960020b8a03620002f057610124359462ffffff86168603620001945761018435906001600160401b03821162000194575091620002ca620002e89896949260209c98969436910162000ab8565b9661016435966101443596610104359560e4359560c43595620020be565b915191168152f35b8480fd5b8260031985368201831362000194578335936001600160401b03908186116200019057610180809487360301126200019057845193840184811083821117620004735785526200034686820162000a1e565b8452620003566024870162000a1e565b95602085019687526200036c6044820162000a1e565b868601908152620003806064830162000b05565b9760608701988952620003966084840162000b05565b906080880191825260a088019960a48501358b5260c089019360c4860135855260e08a019560e48101358752620003d1610104820162000b14565b976101008c019889526101208c01996101248301358b526101408d019b6101448401358d52610164840135918211620001945750928c60209f9a9794620002e89d9a97946101609d9a97946200042b923692010162000ab8565b9b8c9101526200043a62000a07565b9262ffffff60018060a01b039e8f8080925116935116935116935195519b5196519751985116985199519a60020b9460020b93620020be565b634e487b7160e01b845260418252602484fd5b505034620001375781600319360112620001375751908152602090f35b90508260031991838336011262000137578035916001600160401b0380841162000137576101c08095853603011262000137578551948501858110828211176200067c578652620004f684840162000a1e565b855260248401358181116200019057620005169084369187010162000ab8565b926020860193845260448501358281116200018c57906200053f87939282369189010162000ab8565b95888401968752606084019560648201358752620005606084830162000a1e565b90608086019182526200057660a4840162000b05565b60a087019081526200058b60c4850162000b05565b9260c0880193845260e088019960e48601358b5261010089019561010481013587526101208a01976101248201358952620005ca610144830162000b14565b996101408c019a8b526101806101608d019c8d6101648601359052019c8d61018485013590526101a4840135918211620001945750908f9d9c9b9a99989796959493929136920101906200061e9162000ab8565b6101a0819d01526200062f62000a07565b9c600160a01b600190039e8f80915116955191519251935116935195519b5196519751985162ffffff1699519a519b60020b9560020b94620006719e62000b96565b915191168152602090f35b634e487b7160e01b835260418452602483fd5b5050346200013757816003193601126200013757517f00000000000000000000000000000000000000000000000000000000000000006001600160a01b03168152602090f35b5050346200013757816003193601126200013757517f00000000000000000000000000000000000000000000000000000000000000006001600160a01b03168152602090f35b5050346200013757816003193601126200013757517f00000000000000000000000000000000000000000000000000000000000000006001600160a01b03168152602090f35b5050346200013757816003193601126200013757517f00000000000000000000000000000000000000000000000000000000000000006001600160a01b03168152602090f35b5050346200013757816003193601126200013757517f00000000000000000000000000000000000000000000000000000000000000006001600160a01b03168152602090f35b5050346200013757816003193601126200013757517f00000000000000000000000000000000000000000000000000000000000000006001600160a01b03168152602090f35b82846101e036600319011262000194576200084d620009eb565b6200085762000a07565b90604435926001600160401b039384811162000137576200087c903690880162000ab8565b606435858111620001905762000896903690890162000ab8565b6001600160a01b039560a43595919291908787168703620002f05760c435998a60020b8b03620009335760e435918260020b83036200092f57610164359662ffffff8816880362000194576101c435918211620001945750916200090b60209c98969492620002e89a98969436910162000ab8565b976101a4359761018435976101443596610124359661010435966084359362000b96565b8680fd5b8580fd5b90503462000190576080366003190112620001905762000956620009eb565b506200096162000a07565b50606435906001600160401b0390818311620002f05736602384011215620002f0578201359081116200018c5736910160240111620001375751630a85bd0160e11b8152602090f35b849034620001375781600319360112620001375760209062ffffff7f0000000000000000000000000000000000000000000000000000000000000000168152f35b600435906001600160a01b038216820362000a0257565b600080fd5b602435906001600160a01b038216820362000a0257565b35906001600160a01b038216820362000a0257565b6001600160401b03811162000a4757604052565b634e487b7160e01b600052604160045260246000fd5b61016081019081106001600160401b0382111762000a4757604052565b90601f801991011681019081106001600160401b0382111762000a4757604052565b6001600160401b03811162000a4757601f01601f191660200190565b81601f8201121562000a025780359062000ad28262000a9c565b9262000ae2604051948562000a7a565b8284526020838301011162000a0257816000926020809301838601378301015290565b35908160020b820362000a0257565b359062ffffff8216820362000a0257565b9081602091031262000a0257516001600160a01b038116810362000a025790565b919082519283825260005b84811062000b73575050826000602080949584010152601f8019910116010190565b60208183018101518483018201520162000b51565b5190811515820362000a0257565b9960209392959c9d91979e999762000bf595979c9b60c052610140526101605260a05260405180938192623ca6d160e81b835262000be260009760606004860152606485019062000b46565b8381036003190160248501529062000b46565b604482018790520381857f00000000000000000000000000000000000000000000000000000000000000006001600160a01b03165af1801562001fcd578260e05262002098575b5060e0516001600160a01b03163b156200019457604051631473890d60e01b81526001600160a01b037f00000000000000000000000000000000000000000000000000000000000000008116600483015260e0518391839160249183918591165af1801562001fcd5762002086575b509080848103116200207257808480920362001fde575b5050610140516001600160a01b03811662001fd857507f00000000000000000000000000000000000000000000000000000000000000005b7f00000000000000000000000000000000000000000000000000000000000000006001600160a01b03163b15620001375760405163321d0c1960e01b81526001600160a01b03918216600482015260e051821660248201529082908290604490829084907f0000000000000000000000000000000000000000000000000000000000000000165af1801562001fcd5762001fb5575b505060405163d455863b60e01b815260006080526020816004817f00000000000000000000000000000000000000000000000000000000000000006001600160a01b03165afa80156200187d576080519062001f6d575b62ffffff91501662ffffff85161162001f1257604051632ca1b21b60e01b8152610140516001600160a01b039081166004830152602090829060249082907f0000000000000000000000000000000000000000000000000000000000000000165afa9081156200187d576080519162001ed0575b501562001e6e57801562001e035786159788801562001df8575b1562001d8d57610140516001600160a01b03811662001c655750604051635a64ad9560e01b81526020816004817f00000000000000000000000000000000000000000000000000000000000000006001600160a01b03165afa9081156200187d576080519162001c2d575b506101605190810180911162001c1557341062001bbf577f0000000000000000000000000000000000000000000000000000000000000000955b6040516370a0823160e01b815230600482015260e051602090829060249082906001600160a01b03165afa80156200187d5785916080519162001b84575b501062001b2b57831562001ac05760e0516001600160a01b0388811691161462001a6d5760e0516001600160a01b03808216908916101562001a615750869160e051610120525b6001600160a01b0383161562001a1c5760405163a167129560e01b81526001600160a01b03848116600483015261012051811660248301527f000000000000000000000000000000000000000000000000000000000000000062ffffff166044830152608051919a916020918c916064918391907f0000000000000000000000000000000000000000000000000000000000000000165af1998a156200187d576080519a620019f6575b506001600160a01b038a163b15620019105760405163f637731d60e01b81526001600160a01b03918216600482015260805190918290602490829084908f165af180156200187d57620019e4575b5060805160e051620010dd916001600160a01b0391821691819087168303620019dd575087915b610120516001600160a01b031603620019d6575086905b83858d62003270565b60e0516200111a9086906001600160a01b037f00000000000000000000000000000000000000000000000000000000000000008116911662003129565b60805160e0516001600160a01b03908116939190819086168503620019cf575086935b610120516001600160a01b031603620019c8575085935b62001166604051806101005262000a5d565b60018060a01b0316610100515260018060a01b036101205116602061010051015262ffffff7f000000000000000000000000000000000000000000000000000000000000000016604061010051015260020b606061010051015260020b608061010051015260a061010051015260c061010051015260805160e0610100510152608051610100805101523061012061010051015260a05161014061010051015260405196634418b22b60e11b885260018060a01b03610100515116600489015260018060a01b03602061010051015116602489015262ffffff6040610100510151166044890152606061010051015160020b6064890152608061010051015160020b608489015260a061010051015160a489015260c061010051015160c489015260e061010051015160e48901526101008051015161010489015260018060a01b036101206101005101511661012489015261014061010051015161014489015260808861016481835160018060a01b037f0000000000000000000000000000000000000000000000000000000000000000165af19788156200187d576080519862001971575b5062ffffff95969798608051506000146200196a575042955b60405197620013358962000a5d565b60018060a01b0360c05116895260018060a01b0360e0511660208a015260018060a01b0316604089015260018060a01b03166060880152608087015260a086015260c08501521660e0830152608051610100830152610120820152600161014082015262001537604051809263cc676be960e01b602083015260018060a01b037f000000000000000000000000000000000000000000000000000000000000000016602483015260018060a01b037f000000000000000000000000000000000000000000000000000000000000000016604483015260018060a01b037f000000000000000000000000000000000000000000000000000000000000000016606483015284608483015260c060a483015260018060a01b0381511660e483015260018060a01b0360208201511661010483015260018060a01b0360408201511661012483015260018060a01b03606082015116610144830152608081015161016483015260a0810151610184830152610140620014c460c08301516101606101a486015261024485019062000b46565b60e083015162ffffff166101c485015261010083015115156101e485015261012083015161020485015291015115156102248301527f00000000000000000000000000000000000000000000000000000000000000006001600160a01b031660c483015203601f19810183528262000a7a565b60405190816104168101106001600160401b03610416840111176200195257620015a8829161041662003c6584397f00000000000000000000000000000000000000000000000000000000000000006001600160a01b03166104168401908152604060208201819052019062000b46565b036080519182f09081156200194657506001600160a01b0390811691907f0000000000000000000000000000000000000000000000000000000000000000163b156200191057604051632142170760e11b8152608080513060048401526001600160a01b0385811660248501526044840194909452905191929091839160649183917f0000000000000000000000000000000000000000000000000000000000000000165af180156200187d576200192e575b5060e0516001600160a01b03163b15620019105760405163f2fde38b60e01b81526004810182905260805160e0518290602490829084906001600160a01b03165af180156200187d5762001916575b507f00000000000000000000000000000000000000000000000000000000000000006001600160a01b0316803b15620019105760405190632210724360e11b82528260048301528160248160805180945af180156200187d57620018f8575b506200172560a051610160516101405160e05160c05162003a06565b604051635a64ad9560e01b808252906020816004817f00000000000000000000000000000000000000000000000000000000000000006001600160a01b03165afa9081156200187d5760805191620018c0575b5062001782575090565b6040516323c1116160e11b81526020816004817f00000000000000000000000000000000000000000000000000000000000000006001600160a01b03165afa9081156200187d57608051916200188a575b506040519182526020826004817f00000000000000000000000000000000000000000000000000000000000000006001600160a01b03165afa9182156200187d576080519262001843575b50608051918291829182916001600160a01b03165af1506200183f62003051565b5090565b9091506020813d60201162001874575b81620018626020938362000a7a565b8101031262000a02575190386200181e565b3d915062001853565b6040513d608051823e3d90fd5b620018b1915060203d602011620018b8575b620018a8818362000a7a565b81019062000b25565b38620017d3565b503d6200189c565b90506020813d602011620018ef575b81620018de6020938362000a7a565b8101031262000a0257513862001778565b3d9150620018cf565b620019039062000a33565b6080518015620017095780fd5b60805180fd5b620019219062000a33565b6080518015620016aa5780fd5b620019399062000a33565b60805180156200165b5780fd5b604051903d90823e3d90fd5b634e487b7160e01b6080515260416004526024608051fd5b9562001326565b959697506080863d608011620019bf575b81620019916080938362000a7a565b810103126200191057602086519601516001600160801b03811603620019105762ffffff959796956200130d565b3d915062001982565b9362001154565b936200113d565b90620010d4565b91620010bd565b620019ef9062000a33565b3862001096565b62001a14919a5060203d602011620018b857620018a8818362000a7a565b983862001048565b60405162461bcd60e51b815260206004820152601e60248201527f556e697377617056324c6962726172793a205a45524f5f4144445245535300006044820152606490fd5b91876101205262000f9e565b60405162461bcd60e51b815260206004820152602560248201527f556e697377617056324c6962726172793a204944454e544943414c5f41444452604482015264455353455360d81b6064820152608490fd5b60405162461bcd60e51b815260206004820152603960248201527f556e6973776170563350726573616c654d616b65723a2073616c6520616d6f7560448201527f6e74206d7573742062652067726561746572207468616e2030000000000000006064820152608490fd5b60405162461bcd60e51b815260206004820152602b60248201527f556e6973776170563350726573616c654d616b65723a20696e7375666669636960448201526a656e742062616c616e636560a81b6064820152608490fd5b9150506020813d60201162001bb6575b8162001ba36020938362000a7a565b8101031262001910578490513862000f57565b3d915062001b94565b60405162461bcd60e51b815260206004820152602860248201527f556e6973776170563350726573616c654d616b65723a20696e73756666696369604482015267656e74206665657360c01b6064820152608490fd5b634e487b7160e01b6080515260116004526024608051fd5b90506020813d60201162001c5c575b8162001c4b6020938362000a7a565b810103126200191057513862000edf565b3d915062001c3c565b604051635a64ad9560e01b81529096906020816004817f00000000000000000000000000000000000000000000000000000000000000006001600160a01b03165afa9081156200187d576080519162001d55575b50341062001cf857610160518062001cd3575b5062000f19565b60c0516101405162001cf1929130916001600160a01b031662002ef9565b3862001ccc565b60405162461bcd60e51b815260206004820152602f60248201527f556e6973776170563350726573616c654d616b65723a20696e7375666669636960448201526e656e74206d696e74696e672066656560881b6064820152608490fd5b90506020813d60201162001d84575b8162001d736020938362000a7a565b810103126200191057513862001cb9565b3d915062001d64565b60405162461bcd60e51b815260206004820152603c60248201527f556e6973776170563350726573616c654d616b65723a2073746172742074696d60448201527f657374616d702063616e6e6f7420626520696e207468652070617374000000006064820152608490fd5b504288101562000e74565b60405162461bcd60e51b815260206004820152603c60248201527f556e6973776170563350726573616c654d616b65723a2070726573616c65206160448201527f6d6f756e74206d7573742062652067726561746572207468616e2030000000006064820152608490fd5b60405162461bcd60e51b815260206004820152603460248201527f556e6973776170563350726573616c654d616b65723a207061796d656e7420746044820152731bdad95b881b9bdd081dda1a5d195b1a5cdd195960621b6064820152608490fd5b90506020813d60201162001f09575b8162001eee6020938362000a7a565b81010312620019105762001f029062000b88565b3862000e5a565b3d915062001edf565b60405162461bcd60e51b815260206004820152602d60248201527f556e6973776170563350726573616c654d616b65723a2074726561737572792060448201526c0e4c2e8ca40e8dede40d0d2ced609b1b6064820152608490fd5b506020813d60201162001fac575b8162001f8a6020938362000a7a565b8101031262001910575162ffffff81168103620019105762ffffff9062000de6565b3d915062001f7b565b62001fc1829162000a33565b62000194578062000d8f565b6040513d84823e3d90fd5b62000cfa565b60405163a9059cbb60e01b815260c0516001600160a01b031660048201529190036024820152602081806044810103818560018060a01b0360e051165af1801562001fcd5762002031575b839062000cc2565b6020813d60201162002069575b816200204d6020938362000a7a565b810103126200013757620020619062000b88565b503862002029565b3d91506200203e565b634e487b7160e01b82526011600452602482fd5b620020919062000a33565b3862000cab565b620020b49060203d602011620018b857620018a8818362000a7a565b60e0523862000c3c565b909a620020f394999887949b9c9d98969d836101005261016052836101205260805260a052309160018060a01b031662002ef9565b60006101405260405163d455863b60e01b81526020816004817f00000000000000000000000000000000000000000000000000000000000000006001600160a01b03165afa801562002b2d57610140519062002eb1575b62ffffff91501662ffffff85161162001f1257604051632ca1b21b60e01b8152610160516001600160a01b039081166004830152602090829060249082907f0000000000000000000000000000000000000000000000000000000000000000165afa90811562002b2d57610140519162002e6f575b501562001e6e57801562001e035786159788801562002e64575b1562001d8d57610160516001600160a01b03811662002d985750604051635a64ad9560e01b81526020816004817f00000000000000000000000000000000000000000000000000000000000000006001600160a01b03165afa90811562002b2d57610140519162002d60575b5060805190810180911162002d4657341062001bbf577f0000000000000000000000000000000000000000000000000000000000000000955b6040516370a0823160e01b815230600482015261012051602090829060249082906001600160a01b03165afa801562002b2d578591610140519162002d0b575b501062001b2b57831562001ac057610120516001600160a01b0388811691161462001a6d57610120516001600160a01b03808216908916101562002d00575086916101205160c0525b6001600160a01b0383161562001a1c5760405163a167129560e01b81526001600160a01b03848116600483015260c051811660248301527f000000000000000000000000000000000000000000000000000000000000000062ffffff16604483015261014051919a916020918c916064918391907f0000000000000000000000000000000000000000000000000000000000000000165af1998a1562002b2d57610140519a62002cda575b506001600160a01b038a163b1562002bb05760405163f637731d60e01b81526001600160a01b0391821660048201526101405190918290602490829084908f165af1801562002b2d5762002cc8575b50610140516101205162002448916001600160a01b039182169181908716830362002cc1575087915b60c0516001600160a01b031603620019d65750869083858d62003270565b61012051620024869086906001600160a01b037f00000000000000000000000000000000000000000000000000000000000000008116911662003129565b61014051610120516001600160a01b0390811693919081908616850362002cba575086935b60c0516001600160a01b03160362002cb3575085935b620024d26040518060e05262000a5d565b60018060a01b031660e0515260018060a01b0360c05116602060e051015262ffffff7f000000000000000000000000000000000000000000000000000000000000000016604060e051015260020b606060e051015260020b608060e051015260a060e051015260c060e05101526101405160e0805101526101405161010060e05101523061012060e051015260a05161014060e051015260405196634418b22b60e11b885260018060a01b0360e0515116600489015260018060a01b03602060e051015116602489015262ffffff604060e0510151166044890152606060e051015160020b6064890152608060e051015160020b608489015260a060e051015160a489015260c060e051015160c489015260e08051015160e489015261010060e051015161010489015260018060a01b0361012060e05101511661012489015261014060e0510151610144890152608088610164816101405160018060a01b037f0000000000000000000000000000000000000000000000000000000000000000165af197881562002b2d57610140519862002c5c575b5062ffffff95969798610140515060001462002c55575042955b60405197620026928962000a5d565b60018060a01b036101005116895260018060a01b03610120511660208a015260018060a01b0316604089015260018060a01b03166060880152608087015260a086015260c08501521660e0830152610140516101008301526101208201526101405161014082015262002826604051809263cc676be960e01b602083015260018060a01b037f000000000000000000000000000000000000000000000000000000000000000016602483015260018060a01b037f000000000000000000000000000000000000000000000000000000000000000016604483015260018060a01b037f000000000000000000000000000000000000000000000000000000000000000016606483015284608483015260c060a483015260018060a01b0381511660e483015260018060a01b0360208201511661010483015260018060a01b0360408201511661012483015260018060a01b03606082015116610144830152608081015161016483015260a0810151610184830152610140620014c460c08301516101606101a486015261024485019062000b46565b60405190816104168101106001600160401b036104168401111762002c3b5762002897829161041662003c6584397f00000000000000000000000000000000000000000000000000000000000000006001600160a01b03166104168401908152604060208201819052019062000b46565b03610140519182f09081156200194657506001600160a01b0390811691907f0000000000000000000000000000000000000000000000000000000000000000163b1562002bb057604051632142170760e11b815261014080513060048401526001600160a01b0385811660248501526044840194909452905191929091839160649183917f0000000000000000000000000000000000000000000000000000000000000000165af1801562002b2d5762002c22575b50610140518062002bb7575b507f00000000000000000000000000000000000000000000000000000000000000006001600160a01b0316803b1562002bb05760405190632210724360e11b8252826004830152816024816101405180945af1801562002b2d5762002b97575b50620029d560a05160805161016051610120516101005162003a06565b604051635a64ad9560e01b808252906020816004817f00000000000000000000000000000000000000000000000000000000000000006001600160a01b03165afa90811562002b2d57610140519162002b5f575b5062002a33575090565b6040516323c1116160e11b81526020816004817f00000000000000000000000000000000000000000000000000000000000000006001600160a01b03165afa90811562002b2d57610140519162002b3b575b506040519182526020826004817f00000000000000000000000000000000000000000000000000000000000000006001600160a01b03165afa91821562002b2d57610140519262002af3575b5061014051918291829182916001600160a01b03165af1506200183f62003051565b9091506020813d60201162002b24575b8162002b126020938362000a7a565b8101031262000a025751903862002ad1565b3d915062002b03565b6040513d61014051823e3d90fd5b62002b58915060203d602011620018b857620018a8818362000a7a565b3862002a85565b90506020813d60201162002b8e575b8162002b7d6020938362000a7a565b8101031262000a0257513862002a29565b3d915062002b6e565b62002ba29062000a33565b610140518015620029b85780fd5b6101405180fd5b610120516001600160a01b03163b1562000194575060405163f2fde38b60e01b81526004810182905261014051610120518290602490829084906001600160a01b03165af1801562002b2d5715620029585762002c149062000a33565b610140518015620029585780fd5b62002c2d9062000a33565b6101405180156200294c5780fd5b634e487b7160e01b61014051526041600452602461014051fd5b9562002683565b959697506080863d60801162002caa575b8162002c7c6080938362000a7a565b8101031262002bb057602086519601516001600160801b0381160362002bb05762ffffff9597969562002669565b3d915062002c6d565b93620024c1565b93620024ab565b916200242a565b62002cd39062000a33565b3862002401565b62002cf8919a5060203d602011620018b857620018a8818362000a7a565b9838620023b2565b918760c05262002307565b9150506020813d60201162002d3d575b8162002d2a6020938362000a7a565b8101031262002bb05784905138620022be565b3d915062002d1b565b634e487b7160e01b61014051526011600452602461014051fd5b90506020813d60201162002d8f575b8162002d7e6020938362000a7a565b8101031262002bb057513862002245565b3d915062002d6f565b604051635a64ad9560e01b81529096906020816004817f00000000000000000000000000000000000000000000000000000000000000006001600160a01b03165afa90811562002b2d57610140519162002e2c575b50341062001cf8576080518062002e06575b506200227e565b610100516101605162002e25929130916001600160a01b031662002ef9565b3862002dff565b90506020813d60201162002e5b575b8162002e4a6020938362000a7a565b8101031262002bb057513862002ded565b3d915062002e3b565b5042881015620021d9565b90506020813d60201162002ea8575b8162002e8d6020938362000a7a565b8101031262002bb05762002ea19062000b88565b38620021bf565b3d915062002e7e565b506020813d60201162002ef0575b8162002ece6020938362000a7a565b8101031262002bb0575162ffffff8116810362002bb05762ffffff906200214a565b3d915062002ebf565b6040516323b872dd60e01b60208201526001600160a01b03928316602482015292909116604483015260648083019390935291815262002f469162002f4060848362000a7a565b62002f48565b565b60408051908101916001600160a01b03166001600160401b0383118284101762000a475762002fbc926040526000806020958685527f5361666545524332303a206c6f772d6c6576656c2063616c6c206661696c656487860152868151910182855af162002fb562003051565b9162003086565b80518281159182156200302e575b505090501562002fd75750565b6084906040519062461bcd60e51b82526004820152602a60248201527f5361666545524332303a204552433230206f7065726174696f6e20646964206e6044820152691bdd081cdd58d8d9595960b21b6064820152fd5b838092935001031262000a02578162003048910162000b88565b80823862002fca565b3d1562003081573d90620030658262000a9c565b9162003075604051938462000a7a565b82523d6000602084013e565b606090565b91929015620030eb57508151156200309c575090565b3b15620030a65790565b60405162461bcd60e51b815260206004820152601d60248201527f416464726573733a2063616c6c20746f206e6f6e2d636f6e74726163740000006044820152606490fd5b825190915015620030ff5750805190602001fd5b60405162461bcd60e51b8152602060048201529081906200312590602483019062000b46565b0390fd5b60405163095ea7b360e01b602082018181526001600160a01b0385166024840152604480840196909652948252949390926200316760648562000a7a565b83516000926001600160a01b039291858416918591829182855af1906200318d62003051565b8262003220575b508162003214575b5015620031ad575b50505050509050565b6040519660208801521660248601528060448601526044855260808501908582106001600160401b03831117620032005750620031f4939462002f40916040528262002f48565b803880808080620031a4565b634e487b7160e01b81526041600452602490fd5b90503b1515386200319c565b805191925081159182156200323a575b5050903862003194565b8192509060209181010312620002f057602062003258910162000b88565b388062003230565b519061ffff8216820362000a0257565b604051633850c7bd60e01b815295946001600160a01b03949392909160e0908890600490829089165afa9687156200347257600097620033bd575b5095620032cc620032c56001600160801b0397986200347e565b936200347e565b9294838682821681841611620033b0575b50508181169086811682116200335b5750505050620032fc9262003835565b16156200330557565b60405162461bcd60e51b815260206004820152602860248201527f556e6973776170563350726573616c654d616b65723a20696e76616c6964206c604482015267697175696469747960c01b6064820152608490fd5b8492949593951611600014620033a25782916200337e9162003385959462003835565b93620039d9565b80831682841610156200339a57505b620032fc565b9050620032fc565b9150506200339492620039d9565b90965093503880620032dd565b60e0813d821162003469575b81620033d860e0938362000a7a565b8101031262003465578051978689168903620001945760208201518060020b0362000194576200340b6040830162003260565b506200341a6060830162003260565b50620034296080830162003260565b5060a082015160ff811603620001945750620032c56001600160801b0397986200345a60c0620032cc940162000b88565b5098975050620032ab565b8780fd5b3d9150620033c9565b6040513d6000823e3d90fd5b60020b60008112156200382e5780600003905b620d89e882116200381c57600182161562003809576001600160881b036ffffcb933bd6fad37aa2d162d1a5940015b169160028116620037ec575b60048116620037cf575b60088116620037b2575b6010811662003795575b6020811662003778575b604081166200375b575b6080908181166200373f575b610100811662003723575b610200811662003707575b6104008116620036eb575b6108008116620036cf575b6110008116620036b3575b612000811662003697575b61400081166200367b575b61800081166200365f575b62010000811662003643575b62020000811662003628575b6204000081166200360d575b6208000016620035f1575b50600012620035ca575b63ffffffff8116620035c1576000905b60201c60ff91909116016001600160a01b031690565b600190620035ab565b8015620035db57600019046200359b565b634e487b7160e01b600052601260045260246000fd5b6b048a170391f7dc42444e8fa26000929302901c919062003591565b6d2216e584f5fa1ea926041bedfe98909302811c9262003586565b926e5d6af8dedb81196699c329225ee60402811c926200357a565b926f09aa508b5b7a84e1c677de54f3e99bc902811c926200356e565b926f31be135f97d08fd981231505542fcfa602811c9262003562565b926f70d869a156d2a1b890bb3df62baf32f702811c9262003557565b926fa9f746462d870fdf8a65dc1f90e061e502811c926200354c565b926fd097f3bdfd2022b8845ad8f792aa582502811c9262003541565b926fe7159475a2c29b7443b29c7fa6e889d902811c9262003536565b926ff3392b0822b70005940c7a398e4b70f302811c926200352b565b926ff987a7253ac413176f2b074cf7815e5402811c9262003520565b926ffcbe86c7900a88aedcffc83b479aa3a402811c9262003515565b926ffe5dee046a99a2a811c461f1969c305302811c926200350a565b916fff2ea16466c96a3843ec78b326b528610260801c91620034fe565b916fff973b41fa98c081472e6896dfb254c00260801c91620034f4565b916fffcb9843d60f6159c9db58835c9266440260801c91620034ea565b916fffe5caca7e10e4e61c3624eaa0941cd00260801c91620034e0565b916ffff2e50f5f656932ef12357cf3c7fdcc0260801c91620034d6565b916ffff97272373d413259a46990580e213a0260801c91620034cc565b6001600160881b03600160801b620034c0565b6040516315e4079d60e11b8152600490fd5b8062003491565b6200386c9291906001600160a01b03908183168282161162003881575b6200386282841683831662003888565b9203169162003962565b6001600160801b03811690810362000a025790565b9162003852565b6000198282099082810292838084109303918383039360009314620038ca57600160601b92848411156200019457500990828211900360a01b910360601c1790565b505090505060601c90565b90600160601b90600019828409928060601b9283808610950394808603951462003953578483111562000a025782910981806000031680920460028082600302188083028203028083028203028083028203028083028203028083028203028092029003029360018380600003040190848311900302920304170290565b50508092501562000a02570490565b91600019828409928281029283808610950394808603951462003953578483111562000a025782910981806000031680920460028082600302188083028203028083028203028083028203028083028203028083028203028092029003029360018380600003040190848311900302920304170290565b6200386c92916001600160a01b03919082811683831611620039ff575b031690620038d5565b90620039f6565b929493851562003c5c576001600160a01b03928084169081156000811562003c55575088925b89821562003c1e575b50501562003c1757507f0000000000000000000000000000000000000000000000000000000000000000965b604051916bffffffffffffffffffffffff198060209a60601b168a85015262ffffff60e81b7f000000000000000000000000000000000000000000000000000000000000000060e81b1660348501528560601b166037840152602b8352606083016001600160401b03908481108282111762000a475761010085019182118183101762000a47578a94889462003b429360405281835260e0608083019230845260a08101998a5260c081019283520190600082526040519889978896879663c04b8d5960e01b88528b60048901525160a0602489015260c488019062000b46565b94511660448601525160648501525160848401525160a48301520391877f0000000000000000000000000000000000000000000000000000000000000000165af1908115620034725760009162003be1575b5060405163a9059cbb60e01b968101969096526001600160a01b03939093166024860152604480860193909352918452919262002f4692909162003bda60648462000a7a565b1662002f48565b908682813d831162003c0f575b62003bfa818362000a7a565b810103126200019457505162002f4662003b94565b503d62003bee565b9662003a61565b62003c4d91887f0000000000000000000000000000000000000000000000000000000000000000169062003129565b388962003a35565b9262003a2c565b50505050905056fe604060808152610416908138038061001681610218565b93843982019181818403126102135780516001600160a01b038116808203610213576020838101516001600160401b0394919391858211610213570186601f820112156102135780519061007161006c83610253565b610218565b918083528583019886828401011161021357888661008f930161026e565b813b156101b9577f360894a13ba1a3210667c828492db98dca3e2076cc3735a920a3ca505d382bbc80546001600160a01b031916841790556000927fbc7cd75a20ee27fd9adebab32041f755214dbc6bffa90cc0225b39da2e5c2d3b8480a28051158015906101b2575b61010b575b855160d190816103458239f35b855194606086019081118682101761019e578697849283926101889952602788527f416464726573733a206c6f772d6c6576656c2064656c65676174652063616c6c87890152660819985a5b195960ca1b8a8901525190845af4913d15610194573d9061017a61006c83610253565b91825281943d92013e610291565b508038808080806100fe565b5060609250610291565b634e487b7160e01b84526041600452602484fd5b50826100f9565b855162461bcd60e51b815260048101859052602d60248201527f455243313936373a206e657720696d706c656d656e746174696f6e206973206e60448201526c1bdd08184818dbdb9d1c9858dd609a1b6064820152608490fd5b600080fd5b6040519190601f01601f191682016001600160401b0381118382101761023d57604052565b634e487b7160e01b600052604160045260246000fd5b6001600160401b03811161023d57601f01601f191660200190565b60005b8381106102815750506000910152565b8181015183820152602001610271565b919290156102f357508151156102a5575090565b3b156102ae5790565b60405162461bcd60e51b815260206004820152601d60248201527f416464726573733a2063616c6c20746f206e6f6e2d636f6e74726163740000006044820152606490fd5b8251909150156103065750805190602001fd5b6044604051809262461bcd60e51b825260206004830152610336815180928160248601526020868601910161026e565b601f01601f19168101030190fdfe608060405236156054577f360894a13ba1a3210667c828492db98dca3e2076cc3735a920a3ca505d382bbc54600090819081906001600160a01b0316368280378136915af43d82803e156050573d90f35b3d90fd5b7f360894a13ba1a3210667c828492db98dca3e2076cc3735a920a3ca505d382bbc54600090819081906001600160a01b0316368280378136915af43d82803e156050573d90f3fea2646970667358221220625440684efb858c249dcec310da1a2b740e26994a6c8af7e1b69ae111f61f2d64736f6c63430008130033a2646970667358221220d7195b4b3d94751afbb0cd5a73631b2af8562b6ca13793fb9b3b08a771a98ea964736f6c634300081300336080806040523461001657612c88908161001c8239f35b600080fdfe6080604052600436101561001257600080fd5b6000803560e01c80630bc6d25c14611496578063150b7a02146114235780632f13b60c146113fe5780632fc6e8b7146113d8578063370158ea146111945780636addb6631461103e5780638814e0e714610f795780638e75e48214610f5e578063939c445614610f3b578063cc676be914610a0e578063d4ac98fc146109e55763fb932108146100a157600080fd5b34610512576040366003190112610512576100ba61155e565b9060018060a01b03600b54166040516301cc382760e71b8152602081600481855afa9081156107f15783916109ab575b506001600160a01b038481169116148015610997575b8015610923575b156108de57620f4240610118611ca5565b108015906108d0575b1561088b5760405163104a00a760e31b81526001600160a01b038416600482015290602090829060249082905afa90811561051557829161084d575b50156107fc57600461016d612ab5565b600354604051633850c7bd60e01b81529260e09184919082906001600160a01b03165afa9182156107f15783926107ba575b506101a8612ab5565b60018060a01b03600c5416906001600160801b0360e0600d549201511691604051918260a08101106001600160401b0360a0850111176107885782876001600160801b03959360a49360a060409701875283526020830194855285830182815260608401838152608085019160243583528851998a988997630624e65f60e11b8952516004890152511660248701525160448601525160648501525160848401525af180156106825761079c575b50600c54600d5460405195916001600160a01b031690608087016001600160401b0381118882101761078857966040918798835281526084602082019130835288848201956001600160801b0387526001600160801b0360608401818152818851998a98899763fc6f786560e01b895251600489015260018060a01b03905116602488015251166044860152511660648401525af1801561077d5761074f575b50600c54600d54906001600160a01b0316803b156105c357602486926040519889938492630852cd8d60e31b845260048401525af180156106825761073b575b60408281015160609093015190516370a0823160e01b80825230600483015295965086956001600160a01b0394851694909216929190602081602481885afa9081156105a4578791610706575b5060405190828252306004830152602082602481885afa9182156106fb5788926106c3575b5090816103ba826103c194888a611ab1565b8587611a1f565b600a5460ff16156105cb576002546001600160a01b0316803b156105c7578680916004604051809481936331b68deb60e11b83525af19081156105a45787916105af575b5050604051818152306004820152602081602481885afa9081156105a457879161056c575b506104369083866117fe565b604051908152306004820152602081602481865afa908115610561578691610524575b506104659082846117fe565b6001600160a01b0381163b156105205784928360849260405196879586946381528da960e01b86526004860152602485015260018060a01b03166044840152602435606484015260018060a01b03165af18015610515576104fe575b50505b630100000063ff0000001960085416176008557fb8b570f14eb44ed11fb6b2ac2ff61ceb5b29da5ae60d33184ae20b08f3a47c898180a180f35b61050790611602565b6105125780386104c1565b80fd5b6040513d84823e3d90fd5b8480fd5b9550506020853d602011610559575b816105406020938361164c565b810103126105545761046586955190610459565b600080fd5b3d9150610533565b6040513d88823e3d90fd5b9650506020863d60201161059c575b816105886020938361164c565b81010312610554576104368796519061042a565b3d915061057b565b6040513d89823e3d90fd5b6105b890611602565b6105c3578538610405565b8580fd5b8680fd5b60015460405182815230600482015291965092945092916001600160a01b03169050602083602481855afa91821561056157869261068d575b61060e93506117fe565b6001546040519283523060048401526001600160a01b0316602083602481855afa91821561068257849261064c575b61064793506117fe565b6104c4565b91506020833d60201161067a575b816106676020938361164c565b810103126105545761064792519161063d565b3d915061065a565b6040513d86823e3d90fd5b91506020833d6020116106bb575b816106a86020938361164c565b810103126105545761060e925191610604565b3d915061069b565b915096506020813d6020116106f3575b816106e06020938361164c565b81010312610554575187966103c16103a8565b3d91506106d3565b6040513d8a823e3d90fd5b9650506020863d602011610733575b816107226020938361164c565b810103126105545786955138610383565b3d9150610715565b92909361074790611602565b918390610336565b6107709060403d604011610776575b610768818361164c565b810190612a9f565b506102f6565b503d61075e565b6040513d87823e3d90fd5b634e487b7160e01b87526041600452602487fd5b6107b49060403d60401161077657610768818361164c565b50610256565b6107dd91925060e03d60e0116107ea575b6107d5818361164c565b810190611cef565b505050505050903861019f565b503d6107cb565b6040513d85823e3d90fd5b60405162461bcd60e51b8152602060048201526024808201527f50726573616c653a206469737472696275746f72206e6f742077686974656c696044820152631cdd195960e21b6064820152608490fd5b90506020813d602011610883575b816108686020938361164c565b8101031261087f57610879906117dd565b3861015d565b5080fd5b3d915061085b565b60405162461bcd60e51b815260206004820152601e60248201527f50726573616c653a20626f6e64696e67206375727665206e6f7420656e6400006044820152606490fd5b506108d9611753565b610121565b60405162461bcd60e51b815260206004820152601760248201527f50726573616c653a206e6f7420617574686f72697a65640000000000000000006044820152606490fd5b50604051638da5cb5b60e01b8152602081600481855afa9081156107f1578391610959575b506001600160a01b03163314610107565b90506020813d60201161098f575b816109746020938361164c565b8101031261098b57610985906117ea565b38610948565b8280fd5b3d9150610967565b506001546001600160a01b03163314610100565b90506020813d6020116109dd575b816109c66020938361164c565b8101031261098b576109d7906117ea565b386100ea565b3d91506109b9565b50346105125780600319360112610512576020620f4240610a04611ca5565b1015604051908152f35b50346105125760031960c03682011261087f576004356001600160a01b038116810361098b57602435906001600160a01b0382168203610f3757604435926001600160a01b0384168403610520576001600160401b0360843511610520576101609060843536030112610f3757604051610a87816115d0565b610a95608435600401611574565b8152610aa5602460843501611574565b6020820152610ab8604460843501611574565b6040820152610acb606460843501611574565b60608201526084803590810135608083015260a481013560a083015260c401356001600160401b0381116105c35736602382608435010112156105c35785610b1a60048360843501013561166d565b91610b28604051938461164c565b608435810160048101358085523691016024011161087f5760209060049060843581018083013590602401868501376084350101358301015260c082015260e4608435013562ffffff811681036105c35760e0820152610b8d61010460843501611688565b6101008201526101246084350135610120820152610bb061014460843501611688565b61014082015260a4356001600160a01b03811681036105c35785549160ff8360081c161592838094610f2a575b8015610f13575b15610eb75760ff198116600117885583610ea6575b508051600180546001600160a01b03199081166001600160a01b0393841617909155602083015160028054831691841691909117905560408301516003805483169184169190911790556060830151600480549092169216919091179055608081015160055560a081015160065560c08101518051906001600160401b038211610e9257610c886007546116f6565b601f8111610e2b575b50602090601f8311600114610db6576101409392918a9183610dab575b50508160011b916000199060031b1c1916176007555b62ffffff60e0820151166008549063ff000000610100840151151560181b169163ffffffff191617176008556101208101516009550151151560ff8019600a5416911617600a5560018060a01b03166001600160601b0360a01b600b541617600b55610d72575b600e80546001600160a01b03199081166001600160a01b0393841617909155600c8054821693831693909317909255600f80549092169216919091179055606435600d5580f35b61ff001984541684557f7f26b83ff96e1f2b6a682f133852f6798a09c465da95921460cefb3847402498602060405160018152a1610d2b565b015190503880610cae565b60078a52600080516020612c338339815191529190601f1984168b5b818110610e13575091600193918561014097969410610dfa575b505050811b01600755610cc4565b015160001960f88460031b161c19169055388080610dec565b92936020600181928786015181550195019301610dd2565b60078a52601f830160051c600080516020612c338339815191520160208410610e7d575b601f820160051c600080516020612c33833981519152018110610e725750610c91565b8a8155600101610e4f565b50600080516020612c33833981519152610e4f565b634e487b7160e01b89526041600452602489fd5b61ffff191661010117875538610bf9565b60405162461bcd60e51b815260206004820152602e60248201527f496e697469616c697a61626c653a20636f6e747261637420697320616c72656160448201526d191e481a5b9a5d1a585b1a5e995960921b6064820152608490fd5b50303b158015610be45750600160ff821614610be4565b50600160ff821610610bdd565b8380fd5b50346105125780600319360112610512576020610f56611ca5565b604051908152f35b50346105125780600319360112610512576020610f56611d54565b5034610512578060031936011261051257610180610f95612ab5565b604051906001600160601b03815116825260018060a01b03806020830151166020840152806040830151166040840152606082015116606083015262ffffff608082015116608083015260a081015160020b60a083015260c081015160020b60c08301526001600160801b038060e08301511660e08401526101008083015190840152610120808301519084015261014081818401511690840152610160809201511690820152f35b50346105125780600319360112610512576002546040516306fdde0360e01b8152916001600160a01b03909116908083600481855afa92831561118757819361116b575b506040516395d89b4160e01b81528181600481865afa908115610515578291611149575b506040516318160ddd60e01b8152602081600481875afa92831561113d578093611105575b50506110fb906110ed60405195869586526080602087015260808601906115ab565b9084820360408601526115ab565b9060608301520390f35b909192506020823d8211611135575b816111216020938361164c565b81010312610512575051906110fb386110cb565b3d9150611114565b604051903d90823e3d90fd5b61116591503d8084833e61115d818361164c565b810190611695565b386110a6565b6111809193503d8085833e61115d818361164c565b9138611082565b50604051903d90823e3d90fd5b5034610512578060031936011261051257806101406040516111b5816115d0565b8281528260208201528260408201528260608201528260808201528260a0820152606060c08201528260e08201528261010082015282610120820152015260405190611200826115d0565b6001546001600160a01b0390811683526002548116602084015260035481166040808501919091526004549091166060840152600554608084015260065460a0840152516007549091829080611255846116f6565b80845293600181169081156113b65750600114611369575b5061127a9250038261164c565b60c082015260ff60085462ffffff811660e084015260181c16151561010082015260095461012082015260ff600a5416151561014082015260405180916020825260018060a01b03815116602083015260018060a01b03602082015116604083015260018060a01b03604082015116606083015260018060a01b036060820151166080830152608081015160a083015260a081015160c083015260c0810151610140611334610160928360e08701526101808601906115ab565b9262ffffff60e08201511661010086015261010081015115156101208601526101208101518286015201511515908301520390f35b9192905060078252600080516020612c338339815191525b81831061139a57505090602061127a928201013861126d565b6020919350806001915483858801015201910190918392611381565b90506020925061127a94915060ff191682840152151560051b8201013861126d565b5034610512578060031936011261051257602060ff60085460181c166040519015158152f35b50346105125780600319360112610512576020611419611753565b6040519015158152f35b50346105125760803660031901126105125761143d61155e565b506024356001600160a01b03811603610512576064356001600160401b0380821161098b573660238301121561098b57816004013590811161098b573691016024011161051257604051630a85bd0160e11b8152602090f35b50346105125760209081600319360112610512576114b261155e565b9082620f42406114c0611ca5565b101592836114d4575b506040518315158152f35b60025460048054604051639711eb1560e01b81526001600160a01b03938416928101929092528216602482015293945083916044918391165afa91821561113d578092611526575b50503882816114c9565b9091508282813d8311611557575b61153e818361164c565b810103126105125750611550906117dd565b388061151c565b503d611534565b600435906001600160a01b038216820361055457565b35906001600160a01b038216820361055457565b60005b83811061159b5750506000910152565b818101518382015260200161158b565b906020916115c481518092818552858086019101611588565b601f01601f1916010190565b61016081019081106001600160401b038211176115ec57604052565b634e487b7160e01b600052604160045260246000fd5b6001600160401b0381116115ec57604052565b61018081019081106001600160401b038211176115ec57604052565b608081019081106001600160401b038211176115ec57604052565b90601f801991011681019081106001600160401b038211176115ec57604052565b6001600160401b0381116115ec57601f01601f191660200190565b3590811515820361055457565b602081830312610554578051906001600160401b038211610554570181601f820112156105545780516116c78161166d565b926116d5604051948561164c565b81845260208284010111610554576116f39160208085019101611588565b90565b90600182811c92168015611726575b602083101461171057565b634e487b7160e01b600052602260045260246000fd5b91607f1691611705565b9190820180921161173d57565b634e487b7160e01b600052601160045260246000fd5b600954600b54604051631448e00960e21b8152929190602090849060049082906001600160a01b03165afa9283156117d15760009361179e575b50916117999192611730565b421190565b6020813d82116117c9575b816117b66020938361164c565b81010312610f375751925061179961178d565b3d91506117a9565b6040513d6000823e3d90fd5b5190811515820361055457565b51906001600160a01b038216820361055457565b916040918251906020948583019363a9059cbb60e01b855260018060a01b03809316602485015260448401526044835261183783611631565b16835190848201928284106001600160401b038511176115ec576118b69386528683527f5361666545524332303a206c6f772d6c6576656c2063616c6c206661696c656487840152600080958192519082855af13d1561194b573d9161189c8361166d565b926118a98851948561164c565b83523d868985013e61194f565b90815190848215928315611929575b5050509050156118d3575050565b60849250519062461bcd60e51b82526004820152602a60248201527f5361666545524332303a204552433230206f7065726174696f6e20646964206e6044820152691bdd081cdd58d8d9595960b21b6064820152fd5b84809293945001031261051257508261194291016117dd565b803884816118c5565b6060915b919290156119b15750815115611963575090565b3b1561196c5790565b60405162461bcd60e51b815260206004820152601d60248201527f416464726573733a2063616c6c20746f206e6f6e2d636f6e74726163740000006044820152606490fd5b8251909150156119c45750805190602001fd5b60405162461bcd60e51b8152602060048201529081906119e89060248301906115ab565b0390fd5b8181029291811591840414171561173d57565b8115611a09570490565b634e487b7160e01b600052601260045260246000fd5b90929162ffffff60085416908115611a9a5781611a4c91611a45620f42409485926119ec565b04946119ec565b049180611a7a575b505080611a5f575050565b600154611a78926001600160a01b0391821691166117fe565b565b600154611a93926001600160a01b0391821691166117fe565b3880611a54565b5050505050565b519062ffffff8216820361055457565b600b5460025460048054604080516303b2ec6b60e61b81526001600160a01b03948516938101939093529083166024830152939796602096949592949293909291908516908781604481855afa8015611c5757600090611c6e575b62ffffff915016988915611c6257878a84611bce575b505050505080611b36575b50505050509050565b611b46600497620f4240926119ec565b04938083600b54168551988980926323c1116160e11b82525afa938415611bc45750600093611b88575b50611b7d949550166117fe565b803880808080611b2d565b86819492943d8311611bbd575b611b9f818361164c565b810103126105125750611bb5611b7d94956117ea565b918594611b70565b503d611b95565b513d6000823e3d90fd5b611bde620f4240916004966119ec565b04928851948580926323c1116160e11b82525afa908115611c57578690600092611c18575b611c0e9450166117fe565b388080878a611b22565b92939190508882813d8311611c50575b611c32818361164c565b8101031261051257509085611c4a611c0e94936117ea565b91611c03565b503d611c28565b87513d6000823e3d90fd5b50505050505050509050565b8882813d8311611c9e575b611c83818361164c565b810103126105125750611c9962ffffff91611aa1565b611b0c565b503d611c79565b611cad612ab5565b50611cb6611d54565b620f4240908082029182040361173d576005546116f3916119ff565b51908160020b820361055457565b519061ffff8216820361055457565b908160e091031261055457611d03816117ea565b91611d1060208301611cd2565b91611d1d60408201611ce0565b91611d2a60608301611ce0565b91611d3760808201611ce0565b9160a082015160ff811681036105545760c06116f39193016117dd565b6004611d5e612ab5565b600354604051633850c7bd60e01b81529260e09184919082906001600160a01b03165afa9182156117d157600092612432575b50600c54600d5460405163133f757160e31b808252600482018390529094610180936001600160a01b0316908487602481855afa9081156117d1576000809881936123f9575b50611de4611dea91612510565b98612510565b60009890918983836001600160a01b03808316908216116123ee575b50506001600160a01b0382811690841681116123ac5750505090611e2a9291612881565b925b60405192835260048301528382602481845afa9081156117d15760009283928496859086938799889089928a948b97612364575b50506040519b8c6001600160401b036101408281810110920111176115ec578c60806001600160801b03998a9862ffffff60049f9660209f8c98610140880160405260018060a01b0316875260018060a01b0316602087015216604085015260020b606084015260020b9101521660a08c015260c08b015260e08a015216610100880152166101208601526040519283809263c45a015560e01b82525afa9081156117d15760009161232a575b5060018060a01b0383511660018060a01b0360208501511662ffffff6040860151166040518060608101106001600160401b036060830111176115ec57604081606084930182528581528460208201520152818310156105545760405191602083019384526040830152606082015260608152611f8981611631565b5190209060405191602083019160ff60f81b83526001600160601b03199060601b16602184015260358301527fafdcfa68011d3a0dc97e7fa6dd04c309753a80999bb518850c2d8cc001ab9547605583015260558252611fe882611631565b9051902060608301516080840151604051633850c7bd60e01b8152600292830b95939092600092900b906001600160a01b031660e084600481845afa9384156107f1578394612302575b5060405163f30dba9360e01b8152600481018890529161010083602481855afa97881561068257849385996122d2575b5060405163f30dba9360e01b8152600481018390529561010087602481875afa968715610561578697612292575b5060020b90811215612156575050509261012061211d6121096120fd6120f16120dd6120d06121329c996120ca6121269a61212c9d612a23565b9a612a23565b985b60c088015190612a23565b6001600160801b0360a088015116906128d8565b61010086015190611730565b9560e085015190612a23565b6001600160801b0360a085015116906128d8565b91015190611730565b92611730565b93611730565b6040909101516002546001600160a01b03908116911614612151575090565b905090565b94979412156122665760405163f305839960e01b815290602082600481845afa9182156117d157600092612231575b509060206004969594939260405197888092634614131960e01b82525afa9586156117d1576000966121f7575b506121096120fd6120f16120dd6121f16121329c6121e66121269a6121eb61212c9e9d9b6121e66101209c61211d9c612a23565b612a23565b9c612a23565b986120d2565b90949293956020823d602011612229575b816122156020938361164c565b8101031261051257505194929193386121b2565b3d9150612208565b90916020823d60201161225e575b8161224c6020938361164c565b81010312610512575051906020612185565b3d915061223f565b509261012061211d6121096120fd6120f16120dd6121f16121329c996120ca61212c9c6121269b612a23565b9096506122ba9195506101003d610100116122cb575b6122b2818361164c565b810190612a30565b505050509692509050949538612090565b503d6122a8565b9098506122f19193506101003d610100116122cb576122b2818361164c565b505050509492509050929738612062565b61231c91945060e03d60e0116107ea576107d5818361164c565b505050505090509238612032565b906020823d60201161235c575b816123446020938361164c565b810103126105125750612356906117ea565b38611f0d565b3d9150612337565b989c5098505050505050505061238f9250803d106123a5575b612387818361164c565b81019061246d565b939c989a50969850929591949192913880611e60565b503d61237d565b979a509196909291906001600160a01b03831611156123e25750906123d6836123dc949383612881565b956129f1565b95611e2c565b956123dc9392506129f1565b945092503880611e06565b611dea9950611de4935061241a9150873d89116123a557612387818361164c565b505050509e9650979450925050509399939150611dd7565b61244c91925060e03d60e0116107ea576107d5818361164c565b5050505050509038611d91565b51906001600160801b038216820361055457565b9190826101809103126105545781516001600160601b03811681036105545791612499602082016117ea565b916124a6604083016117ea565b916124b3606082016117ea565b916124c060808301611aa1565b916124cd60a08201611cd2565b916124da60c08301611cd2565b916124e760e08201612459565b9161010082015191610120810151916116f36101606125096101408501612459565b9301612459565b60020b600081121561287b5780600003905b620d89e88211612869576001821615612857576001600160881b036ffffcb933bd6fad37aa2d162d1a5940015b16916002811661283b575b6004811661281f575b60088116612803575b601081166127e7575b602081166127cb575b604081166127af575b608090818116612794575b6101008116612779575b610200811661275e575b6104008116612743575b6108008116612728575b611000811661270d575b61200081166126f2575b61400081166126d7575b61800081166126bc575b6201000081166126a1575b620200008116612687575b62040000811661266d575b6208000016612652575b50600012612643575b63ffffffff811661263b576000905b60201c60ff91909116016001600160a01b031690565b600190612625565b8015611a095760001904612616565b6b048a170391f7dc42444e8fa26000929302901c919061260d565b6d2216e584f5fa1ea926041bedfe98909302811c92612603565b926e5d6af8dedb81196699c329225ee60402811c926125f8565b926f09aa508b5b7a84e1c677de54f3e99bc902811c926125ed565b926f31be135f97d08fd981231505542fcfa602811c926125e2565b926f70d869a156d2a1b890bb3df62baf32f702811c926125d8565b926fa9f746462d870fdf8a65dc1f90e061e502811c926125ce565b926fd097f3bdfd2022b8845ad8f792aa582502811c926125c4565b926fe7159475a2c29b7443b29c7fa6e889d902811c926125ba565b926ff3392b0822b70005940c7a398e4b70f302811c926125b0565b926ff987a7253ac413176f2b074cf7815e5402811c926125a6565b926ffcbe86c7900a88aedcffc83b479aa3a402811c9261259c565b926ffe5dee046a99a2a811c461f1969c305302811c92612592565b916fff2ea16466c96a3843ec78b326b528610260801c91612587565b916fff973b41fa98c081472e6896dfb254c00260801c9161257e565b916fffcb9843d60f6159c9db58835c9266440260801c91612575565b916fffe5caca7e10e4e61c3624eaa0941cd00260801c9161256c565b916ffff2e50f5f656932ef12357cf3c7fdcc0260801c91612563565b916ffff97272373d413259a46990580e213a0260801c9161255a565b6001600160881b03600160801b61254f565b6040516315e4079d60e11b8152600490fd5b80612522565b6116f39290916001600160a01b0391828216838516116128d0575b6128c891838116919085900384169060601b6fffffffffffffffffffffffffffffffff60601b1661296e565b9116906119ff565b90929061289c565b600019828209908281029283808410930391838303936000931461291857600160801b928484111561051257500990828211900360801b910360801c1790565b505090505060801c90565b600019828209908281029283808410930391838303936000931461296357600160601b928484111561051257500990828211900360a01b910360601c1790565b505090505060601c90565b9160001982840992828102928380861095039480860395146129e357848311156105545782910981806000031680920460028082600302188083028203028083028203028083028203028083028203028083028203028092029003029360018380600003040190848311900302920304170290565b505080925015610554570490565b6116f392916001600160801b03916001600160a01b039182811683831611612a1d575b03169116612923565b90612a14565b9190820391821161173d57565b91908261010091031261055457612a4682612459565b91602081015180600f0b8103610554579160408201519160608101519160808201518060060b81036105545791612a7f60a082016117ea565b9160c082015163ffffffff811681036105545760e06116f39193016117dd565b9190826040910312610554576020825192015190565b61016090604051612ac581611615565b60009281848093528260208201528260408201528260608201528260808201528260a08201528260c08201528260e0820152826101008201528261012082015282610140820152015260018060a01b03600c541691610180600d5460246040518096819363133f757160e31b835260048301525afa801561118757612b789293828091818283849185938697879a8897899b612be4575b50906001600160601b0362ffffff959493926040519e8f611615565b168d526001600160a01b0390811660208e015290811660408d01521660608b0152166080890152600290810b60a08901520b60c08701526001600160801b0392831660e08701526101008601949094526101208501939093529182166101408401521661016082015290565b985050505050505050506001600160601b03935062ffffff9250612c1991506101803d610180116123a557612387818361164c565b929c929b50929992989097939694959493929091612b5c56fea66cc928b5edb82af9bd49922954155ab7b0942694bea4ce44661d9a8736c688a26469706673582212202445518cb4ca3aeaa3769ce47872cd82cbb64e6bf69dabc4830dd65edb51320a64736f6c63430008130033",
  "devdoc": {
    "kind": "dev",
    "methods": {
      "onERC721Received(address,address,uint256,bytes)": {
        "details": "Whenever an {IERC721} `tokenId` token is transferred to this contract via {IERC721-safeTransferFrom} by `operator` from `from`, this function is called. It must return its Solidity selector to confirm the token transfer. If any other value is returned or the interface is not implemented by the recipient, the transfer will be reverted. The selector can be obtained in Solidity with `IERC721Receiver.onERC721Received.selector`."
      }
    },
    "version": 1
  },
  "userdoc": {
    "kind": "user",
    "methods": {},
    "version": 1
  },
  "storageLayout": {
    "storage": [],
    "types": null
  }
}