{
  "address": "0xd9b2294d697CA5Dd04364132d2020D64F0389A72",
  "abi": [
    {
      "inputs": [
        {
          "internalType": "contract IPoolConfiguration",
          "name": "_config",
          "type": "address"
        }
      ],
      "stateMutability": "nonpayable",
      "type": "constructor"
    },
    {
      "anonymous": false,
      "inputs": [
        {
          "indexed": true,
          "internalType": "uint24",
          "name": "fee",
          "type": "uint24"
        },
        {
          "indexed": true,
          "internalType": "int24",
          "name": "tickSpacing",
          "type": "int24"
        }
      ],
      "name": "FeeAmountEnabled",
      "type": "event"
    },
    {
      "anonymous": false,
      "inputs": [
        {
          "indexed": true,
          "internalType": "address",
          "name": "oldOwner",
          "type": "address"
        },
        {
          "indexed": true,
          "internalType": "address",
          "name": "newOwner",
          "type": "address"
        }
      ],
      "name": "OwnerChanged",
      "type": "event"
    },
    {
      "anonymous": false,
      "inputs": [
        {
          "indexed": true,
          "internalType": "address",
          "name": "token0",
          "type": "address"
        },
        {
          "indexed": true,
          "internalType": "address",
          "name": "token1",
          "type": "address"
        },
        {
          "indexed": true,
          "internalType": "uint24",
          "name": "fee",
          "type": "uint24"
        },
        {
          "indexed": false,
          "internalType": "int24",
          "name": "tickSpacing",
          "type": "int24"
        },
        {
          "indexed": false,
          "internalType": "address",
          "name": "pool",
          "type": "address"
        }
      ],
      "name": "PoolCreated",
      "type": "event"
    },
    {
      "inputs": [],
      "name": "POOL_INIT_CODE_HASH",
      "outputs": [
        {
          "internalType": "bytes32",
          "name": "",
          "type": "bytes32"
        }
      ],
      "stateMutability": "view",
      "type": "function"
    },
    {
      "inputs": [],
      "name": "config",
      "outputs": [
        {
          "internalType": "contract IPoolConfiguration",
          "name": "",
          "type": "address"
        }
      ],
      "stateMutability": "view",
      "type": "function"
    },
    {
      "inputs": [
        {
          "internalType": "address",
          "name": "tokenA",
          "type": "address"
        },
        {
          "internalType": "address",
          "name": "tokenB",
          "type": "address"
        },
        {
          "internalType": "uint24",
          "name": "fee",
          "type": "uint24"
        }
      ],
      "name": "createPool",
      "outputs": [
        {
          "internalType": "address",
          "name": "pool",
          "type": "address"
        }
      ],
      "stateMutability": "nonpayable",
      "type": "function"
    },
    {
      "inputs": [
        {
          "internalType": "uint24",
          "name": "fee",
          "type": "uint24"
        },
        {
          "internalType": "int24",
          "name": "tickSpacing",
          "type": "int24"
        }
      ],
      "name": "enableFeeAmount",
      "outputs": [],
      "stateMutability": "nonpayable",
      "type": "function"
    },
    {
      "inputs": [
        {
          "internalType": "uint24",
          "name": "",
          "type": "uint24"
        }
      ],
      "name": "feeAmountTickSpacing",
      "outputs": [
        {
          "internalType": "int24",
          "name": "",
          "type": "int24"
        }
      ],
      "stateMutability": "view",
      "type": "function"
    },
    {
      "inputs": [
        {
          "internalType": "address",
          "name": "",
          "type": "address"
        },
        {
          "internalType": "address",
          "name": "",
          "type": "address"
        },
        {
          "internalType": "uint24",
          "name": "",
          "type": "uint24"
        }
      ],
      "name": "getPool",
      "outputs": [
        {
          "internalType": "address",
          "name": "",
          "type": "address"
        }
      ],
      "stateMutability": "view",
      "type": "function"
    },
    {
      "inputs": [],
      "name": "owner",
      "outputs": [
        {
          "internalType": "address",
          "name": "",
          "type": "address"
        }
      ],
      "stateMutability": "view",
      "type": "function"
    },
    {
      "inputs": [],
      "name": "parameters",
      "outputs": [
        {
          "internalType": "address",
          "name": "factory",
          "type": "address"
        },
        {
          "internalType": "address",
          "name": "token0",
          "type": "address"
        },
        {
          "internalType": "address",
          "name": "token1",
          "type": "address"
        },
        {
          "internalType": "uint24",
          "name": "fee",
          "type": "uint24"
        },
        {
          "internalType": "int24",
          "name": "tickSpacing",
          "type": "int24"
        },
        {
          "internalType": "contract IPoolConfiguration",
          "name": "config",
          "type": "address"
        }
      ],
      "stateMutability": "view",
      "type": "function"
    },
    {
      "inputs": [
        {
          "internalType": "address",
          "name": "_owner",
          "type": "address"
        }
      ],
      "name": "setOwner",
      "outputs": [],
      "stateMutability": "nonpayable",
      "type": "function"
    }
  ],
  "transactionHash": "0x90c21edc7bf0c48d92564c9ae97a064b0414bb757b36b83f636df168e46e69f5",
  "args": [
    "0xDeeedea502aB2E3B08293b822a281ac46b2E1d8C"
  ],
  "numDeployments": 4,
  "solcInputHash": "f8970eda53eb081e8aca30878db2044b",
  "bytecode": "0x60a03461012757601f61609a38819003918201601f19168301916001600160401b0383118484101761012c5780849260209460405283398101031261012757516001600160a01b03811690819003610127573060805260018060a01b0319908160075416176007553390600454161760045560405160c8600033817fb532073b38c83145e3e5135377a08bf9aab55bc0fd7c1179cd4fb995d2a5159c8180a36101f48082526005602052604082209162ffffff1992600a84825416179055600a7fc66a3fdf07232cdd185febcc6579d408c241b47ae2f9907d84be655141eeaecc92838380a3603c610bb8808352604083208286825416179055838380a36127109283825284604083209182541617905580a3615f57908161014382396080518161013f0152f35b600080fd5b634e487b7160e01b600052604160045260246000fdfe608060408181526004918236101561001657600080fd5b600092833560e01c91826313af4035146105ae5782631698ee821461054c5750816322afcccb1461051657816379502c55146104ed578163890357301461048b5781638a7c195f146103d45781638da5cb5b146103ac578163a167129514610107575063dc6fd8ab1461008857600080fd5b3461010357816003193601126101035761587e9181516020936100ad8582018361066b565b808252620006a48583013983835180938351815b8181106100ed57506100e094508201908382015203808452018261066b565b8281519101209051908152f35b80860185015187820186015286935084016100c1565b5080fd5b919050346103a85760603660031901126103a857610123610616565b9161012c610631565b610134610647565b6001600160a01b03947f00000000000000000000000000000000000000000000000000000000000000008616300361039a57808616908387168281146103a4578792101561039e575b1690811561039a5762ffffff8116938488526020966005885286892054918260020b93841561039657858b5260068a5282898c20971696878c528a52888b20888c528a5282898c20541661039657826007541689519160c083019267ffffffffffffffff93818110858211176103835783918b8f8f908d9060a09583523085528401528201528c606082015289608082015201526bffffffffffffffffffffffff60a01b958d308882541617905588876001541617600155896002549160b81b62ffffff60b81b169262ffffff60a01b9060a01b169165ffffffffffff60d01b1617171760025584600354161760035588518a810191878352888b8301528960608301526060825260808201928284108285111761037057838c52825190209361587e9081840192608084019086821091111761035d5750620006a4843903908bf5801561035357918798997f783cca1c0412dd0d695e784568c96da2e9c22ff989357a2e8b1d9b2b4e6b711894928994169981808c935580600155806002558060035587815260068d528181208982528d528181208a82528d52818120838582541617905588815260068d528181208882528d528181208a82528d52209182541617905581519081528789820152a451908152f35b87513d8b823e3d90fd5b634e487b7160e01b8f526041905260248efd5b634e487b7160e01b8e526041855260248efd5b634e487b7160e01b8f526041865260248ffd5b8a80fd5b8680fd5b9261017d565b8880fd5b8280fd5b9050346103a857826003193601126103a8575490516001600160a01b03909116815260209150f35b919050346103a857806003193601126103a8576103ef610659565b602435908160020b9384830361047857546001600160a01b031633036104875762ffffff80911692620f4240841015610478578585138061047c575b156104785783865260056020528520918254918260020b61039a57169062ffffff19161790557fc66a3fdf07232cdd185febcc6579d408c241b47ae2f9907d84be655141eeaecc8380a380f35b8580fd5b50614000851261042b565b8480fd5b5050346101035781600319360112610103579060c09160018060a01b038092541691806001541691600254918060035416938251958652602086015282169084015262ffffff8160a01c16606084015260b81c60020b608083015260a0820152f35b50503461010357816003193601126101035760075490516001600160a01b039091168152602090f35b505034610103576020366003190112610103578060209262ffffff610539610659565b16815260058452205460020b9051908152f35b849084346103a85760603660031901126103a8579160209261056c610616565b91610575610631565b61057d610647565b6001600160a01b03948516835260068752838320918516835290865282822062ffffff909116825285522054168152f35b848234610103576020366003190112610103576105c9610616565b81546001600160a01b038082169233849003610478571680927fb532073b38c83145e3e5135377a08bf9aab55bc0fd7c1179cd4fb995d2a5159c8680a36001600160a01b03191617905580f35b600435906001600160a01b038216820361062c57565b600080fd5b602435906001600160a01b038216820361062c57565b6044359062ffffff8216820361062c57565b6004359062ffffff8216820361062c57565b90601f8019910116810190811067ffffffffffffffff82111761068d57604052565b634e487b7160e01b600052604160045260246000fdfe6101808060405234620002d75730608052630890357360e41b815260c0908181600481335afa8015620002cb57600091828093819482938395620001f6575b5061012094855261010095865260e052855260a052610140908082528060020b8015620001e05760019062ffffff928082620d89e719050260020b9082620d89e8050260020b0360020b0582160116918215620001e0576101609260018060801b030483526040519361558c9586620002f2873960805186613abe015260a0518681816104570152610f8e01525185818161135001528181611681015281816125d0015281816134b2015281816135fa015281816137ed0152613c24015260e0518581816103d00152818161130e01528181611651015281816125f8015281816133d60152818161352f0152613caa015251848181610394015261140a0152518381816120ed015281816121dd0152818161224001528181612638015281816132730152818161338b015261346f01525182818161041901528181610c8501528181610cb401528181611eea01528181611f19015281816123fd0152818161250301528181612dfe01528181612f2901528181612fc2015261300d015251818181610bf701528181610c35015281816110ea01528181611e660152611e9d0152f35b634e487b7160e01b600052601260045260246000fd5b95505050915050823d8411620002c3575b601f8101601f191683016001600160401b03811184821017620002af578491849160405281010312620002a4576200023f82620002dc565b906200024e60208401620002dc565b6200025c60408501620002dc565b60608501519362ffffff85168503620002ab576080860151958660020b8703620002a75760a00151936001600160a01b0385168503620002a45750919093949293386200003e565b80fd5b8480fd5b8380fd5b634e487b7160e01b83526041600452602483fd5b503d62000207565b6040513d6000823e3d90fd5b600080fd5b51906001600160a01b0382168203620002d75756fe6101a080604052600436101561001457600080fd5b600060e05260003560e01c9081630dfe1681146137da57508063128acb08146121795780631a686502146121505780631ad8b03b1461211c57806322a2e114146120d5578063252c09d71461207a57806332148f6714611fb25780633850c7bd14611f435780633c8a7d8d146116dc57806346141319146116bc578063490e6cbc1461138b5780634f1eb3d8146111ac578063514ea4bf146111475780635339c2961461110e57806370cf754a146110c85780638206a4d114610f22578063883bdbfd14610cf5578063a34123a7146104e1578063a38807f214610486578063c45a01551461043f578063d0c93a7c146103ff578063d21220a7146103b8578063ddca3f4314610376578063f305839914610353578063f30dba93146102b75763f637731d1461014357600080fd5b346102b15760203660031901126102b15761015c61381c565b60e051546001600160a01b039190821661029f577f98636036cb66a9c19a37435efc1e90142190214e8abeb821bdba3f2990dd4c95918161019e6040936151ee565b9163ffffffff42166001606086516101b5816138d3565b83815260e051602082015260e05188820152015260e051600160f81b916affffffffffffff000000008260201b161790600160581b600160f81b039060581b161717600855835191610206836138b8565b1691828252600160c08260020b9384602082015260e0518782015282606082015282608082015260e05160a082015201528264ffffffffff60d81b600054161760e05190630100000160d81b9263ffffffff60d81b1991600160c81b9162ffffff60a01b9060a01b161761ffff60b81b8460b81b161717169060ff60e81b9060e81b16171760005582519182526020820152a160e05180f35b60405163139816ff60e31b8152600490fd5b60e05180fd5b346102b15760203660031901126102b1576102d061387f565b60020b60e051526005602052610100604060e051208054906001810154906003600282015491015491604051936001600160801b038116855260801d600f0b6020850152604084015260608301528060060b608083015260018060a01b038160381c1660a083015263ffffffff8160d81c1660c083015260f81c151560e0820152f35b346102b15760e05180600319360112610373576020600154604051908152f35b80fd5b346102b15760e0518060031936011261037357602060405162ffffff7f0000000000000000000000000000000000000000000000000000000000000000168152f35b346102b15760e05180600319360112610373576040517f00000000000000000000000000000000000000000000000000000000000000006001600160a01b03168152602090f35b346102b15760e051806003193601126103735760206040517f000000000000000000000000000000000000000000000000000000000000000060020b8152f35b346102b15760e05180600319360112610373576040517f00000000000000000000000000000000000000000000000000000000000000006001600160a01b03168152602090f35b346102b15760403660031901126102b157606063ffffffff6104bf6104a961387f565b6104b161385f565b906104ba613abc565b6139aa565b906040939293519360060b845260018060a01b03166020840152166040820152f35b346102b15760603660031901126102b1576104fa61387f565b60805261050561385f565b6101405260443580610120526001600160801b03811603610cde5760e0515460ff8160f01c1615610ce35760e05160ff60f01b1982169055610120516001600160801b0316600f81900b03610cde576105636040518060a0526138d3565b3360a0515260805160020b602060a05101526101405160020b604060a05101526001600160801b036101205116600f0b60e05103600f0b606060a05101526105a9613abc565b60e0518061010052610160526105ca6101405160020b60805160020b613aee565b6105d2613945565b9060a0519060018060a01b03825116602083015160020b906060604085015160020b94015161060a8584602089015160020b9461479c565b60c0526001546101805260025460e05192839583600f0b610bad575b5061063e8560020b6000526005602052604060002090565b906106568860020b6000526005602052604060002090565b60e051918990888112610b965760026001860154950154935b501215610b7f5760026001820154910154935b6040519461068f866138ee565b60c05154906001600160801b0382168752600160c05101546020880152600260c05101546040880152600360c0510154946001600160801b03861660608901528560801c6080890152878960e05181600f0b15600014610b24575050516001600160801b031615610b12576001600160801b0396879261073f926040856107308d828151169b5b6020820151976101805103039d8e91511696879103613e69565b169b0151960303948503613e69565b169287600f0b610af2575b505060c05193600185015560028401558315801590610ae9575b610aaa575b5050505060e05190600f0b12610a37575b5050505060a051906060820151600f0b610869575b505060406101005160e05190808203916101605180910391159081159161085f575b50610828575b82516001600160801b036101205116815282602082015281848201526101405160020b9060805160020b907f0c396cd989a39f4459b5fa1aed6a9a8dcdbc45908acfd67e028cd568da98982c60603392a460e051805460ff60f01b1916600160f01b17905582519182526020820152f35b60c05160030180546001600160801b038481168183160181166001600160801b0319918516608093841c0190921b161790556107b7565b90501515846107b1565b602081015160020b602083015160020b928382126000146108cb57505050506108bf61089d602060a051015160020b614e7d565b6108af604060a051015160020b614e7d565b606060a0510151600f0b916147fb565b610100525b808061078f565b6040015160020b13156109ff576001600160801b038092506004541661091a61ffff806040850151169083602086015160020b82606088015116926080880151169363ffffffff42169061413b565b60e051805463ffffffff60b81b191660c89290921b61ffff60c81b169190911760b89290921b61ffff60b81b16919091179055815160a05160400151610970916001600160a01b0316906108af9060020b614e7d565b61010052610986602060a051015160020b614e7d565b915160a0516060015192600f84900b916109ab9183916001600160a01b031690614988565b6101605260e05113156109ee576109d791506109cf606060a0510151600f0b613cef565b831690613d10565b166001600160801b031960045416176004556108c4565b6109fa91831690613cd4565b6109d7565b50610a0c610a2e91614e7d565b610a1e604060a051015160020b614e7d565b606060a0510151600f0b91614988565b610160526108c4565b610a7a575b50610a4a575b80808061077a565b610a749060009060020b815260056020526003604082208281558260018201558260028201550155565b81610a42565b610aa49060009060020b815260056020526003604082208281558260018201558260028201550155565b83610a3c565b6001600160801b03198083166001600160801b03938416909501909216938417608090811c91909101901b169091176003919091015586808080610769565b50801515610764565b6001600160801b0316906001600160801b0319161760c051558b8061074a565b604051632aabfc9960e11b8152600490fd5b9260406001600160801b03610730819c958298958861073f995081600f0b12600014610b6c57610b6690610b5e8584511691600f0b613cef565b851690613d10565b9b610716565b610b7a908416848c16613cd4565b610b66565b600260018201546101805103910154840393610682565b60026001860154610180510395015486039361066f565b909550610bec9193506001600160801b0360045416906bff00ffffffffffffffffffff61ffff8260b81c169160a01c1660020b63ffffffff421661435e565b929094610c6e610c307f000000000000000000000000000000000000000000000000000000000000000063ffffffff4216898887610180518c898c600f0b91614b36565b9687957f00000000000000000000000000000000000000000000000000000000000000009163ffffffff42169186610180518d888b600f0b91614cd7565b8096610caf575b610c80575b88610626565b610caa7f000000000000000000000000000000000000000000000000000000000000000088614e2a565b610c7a565b610cd97f000000000000000000000000000000000000000000000000000000000000000087614e2a565b610c75565b600080fd5b6040516350dfbc4360e11b8152600490fd5b346102b1576020806003193601126102b157600435906001600160401b038083116102b157366023840112156102b15782600401359081116102b15760248160051b840101923684116102b157610d4a613abc565b63ffffffff938442169060e05154918260a01c60020b9061ffff92838560b81c16936001600160801b03600454169560c81c1695610d8788613b49565b97610d95604051998a613924565b88526024018888015b828210610f0a575050508415610ef857855197610dd3610dbd8a613b49565b99610dcb6040519b8c613924565b808b52613b49565b8989019790601f19908101368a37815198610e06610df08b613b49565b9a610dfe6040519c8d613924565b808c52613b49565b8a8c01920136833760e0515b8c8451821015610e6e57908b610e6282600194818f8f8f918f918f938f938f95610e4b95610e4389610e5399614788565b5116906143b9565b929096614788565b90878060a01b03169052614788565b9060060b905201610e12565b8b90848e856040519485946040860190604087525180915260608601929060e0515b818110610ede57505050829085830382870152519182815201929160e0515b828110610ebe57505050500390f35b83516001600160a01b031685528695509381019392810192600101610eaf565b825160060b85528897509385019391850191600101610e90565b604051636b93000360e11b8152600490fd5b81358b811681036102b1578152908901908901610d9e565b346102b15760403660031901126102b15760043560ff811690818103610cde576024359160ff831690818403610cde5760e051549160ff8360f01c1615610ce35760e05160ff60f01b1984169055604051638da5cb5b60e01b81526001600160a01b03906020816004817f000000000000000000000000000000000000000000000000000000000000000086165afa9081156110bb5760e0519161108d575b501633036102b15781158015611076575b80611057575b156102b1577f973d8d92bb299f4af6ce49b52a8adb85ae46b9f214c4c4fc06ac77401237b1339160809160405191600f8660e81c168352600f8660ec1c16602084015260408301526060820152a160e05161ffff60e81b1990911660049390931b60f01690910160e81b60ff60e81b1691909117600160f01b17815580f35b50801580610fd8575060048110158015610fd85750600a811115610fd8565b5060048210158015610fd25750600a821115610fd2565b6110ae915060203d81116110b4575b6110a68183613924565b810190613d49565b87610fc1565b503d61109c565b6040513d60e051823e3d90fd5b346102b15760e051806003193601126103735760206040516001600160801b037f0000000000000000000000000000000000000000000000000000000000000000168152f35b346102b15760203660031901126102b1576004358060010b8091036102b15760e0515260066020526020604060e0512054604051908152f35b346102b15760203660031901126102b15760043560e05152600760205260a0604060e051206001600160801b039081815416916001820154916003600282015491015492604051948552602085015260408401528116606083015260801c6080820152f35b346102b15760a03660031901126102b1576111c561381c565b6111cd61385f565b6111d561386f565b916111de61388f565b91608435916001600160801b039485841695868503610cde5760e051549460ff8660f01c1615610ce35760e05160ff60f01b199687169055600361122384873361479c565b0191825498818a169260e051998484821611600014611385575083995b8b60801c928391501160001461137d5750985b81898181169485611339575b50509050891692836112e2575b50506040519360018060a01b031684526020840152604083015260020b9160020b907f70935338e69775456a85ddef226c395fb668b63fa0115f5f20610b388e6ca9c060603392a460e051805491909116600160f01b179055604080516001600160801b03928316815292909116602083015290f35b611307918a825460801c03166001600160801b0382549181199060801b169116179055565b61133282857f00000000000000000000000000000000000000000000000000000000000000006154a2565b888061126c565b0316906001600160801b03191617835561137482867f00000000000000000000000000000000000000000000000000000000000000006154a2565b8981898261125f565b905098611253565b99611240565b346102b15760803660031901126102b1576113a461381c565b602435604435916064356001600160401b0381116102b1576113ca903690600401613832565b60e051549460ff8660f01c1615610ce35760e05160ff60f01b1996871690556113f1613abc565b6001600160801b03806004541680156116aa5762ffffff7f0000000000000000000000000000000000000000000000000000000000000000169461143f611438878a61409f565b968561409f565b95611448613bf5565b95611451613c7b565b928a61167a575b8661164a575b333b156102b1576114899160405180938192630e9cbafb60e41b835260e051948d8860048601613b60565b038160e051335af180156110bb57611635575b506114a5613bf5565b96876114b96114b2613c7b565b9389613b93565b11611623576114c9829184613b93565b11611611578587039582820397036115aa575b0361153b575b505060405194855260208501526040840152606083015260018060a01b0316907fbdbdb71d7860376ba52b25a5028beea23581364a40522f6bcfb86bb1f2dca63360803392a360e0518054909116600160f01b17815580f35b60e05154611568929060ec1c600f168061159a575060e051905b8082169081611576575b50508503613ddf565b6002540160025586806114e2565b600354916001600160801b0319908360801c0160801b16911617600355898061155f565b6115a49087613d29565b90611555565b60e0515460e81c600f1683816115ff576115d4915060e0515b868116806115e0575b508803613ddf565b600154016001556114dc565b87600354918183160116906001600160801b031916176003558d6115cc565b61160c6115d49289613d29565b6115c3565b60405163e90c349360e01b8152600490fd5b60405163f704e89960e01b8152600490fd5b61163e906138a5565b60e051801561149c5780fd5b611675878b7f00000000000000000000000000000000000000000000000000000000000000006154a2565b61145e565b6116a58b8b7f00000000000000000000000000000000000000000000000000000000000000006154a2565b611458565b604051639f13f76d60e01b8152600490fd5b346102b15760e05180600319360112610373576020600254604051908152f35b346102b15760a03660031901126102b1576116f561381c565b6116fd61385f565b9061170661386f565b9161170f61388f565b906084356001600160401b0381116102b15761172f903690600401613832565b93909260e051549360ff8560f01c1615610ce35760e05160ff60f01b19861681556001600160801b0383161561037357506001600160801b038216600f81900b03610cde5760405195611781876138d3565b6001600160a01b0384168752600285810b602089015288900b60408801526001600160801b038316600f0b60608801526117b9613abc565b60e0519687966117cf8a60020b8860020b613aee565b6117d7613945565b9060018060a01b0383511690602084015160020b604085015160020b92606086015161180c8584602089015160020b9461479c565b916001549260025460e0519488869886600f0b611e17575b505061183d8760020b6000526005602052604060002090565b916118558a60020b6000526005602052604060002090565b60e051958b908a8112611e035760026001870154960154975b501215611def5760026001820154910154935b6040519361188e856138ee565b86546001600160801b038116865260018801546020870152600288015460408701526003880154966001600160801b03881660608801528760801c6080880152868b60e05181600f0b15600014611d9f575050516001600160801b031615610b125761192e876001600160801b0392838251169c5b60408561191f81602087015196511680968d8d8d030303613e69565b169b0151990303978803613e69565b16988a600f0b611d81575b50500303600185015560028401558015801590611d78575b611d3b575b5050505060e05190600f0b12611cc8575b505050506060820151600f0b611af8575b505060e05180918815159182611aea575b8815159485611ada575b333b156102b1578a908a6119bf604051958693849363d348799760e01b855260e0519660048601613b60565b038160e051335af19182156110bb578a92611abf575b5082611aa5575b5050611a9357859082611a79575b5050611a67577f7a53080ba414158be7ec69b987b5fb7d07dee101fe85488f0853ae16239d0bde60806040976001600160801b03895194338652166020850152878985015286606085015260020b9460020b9360018060a01b031692a460e051805460ff60f01b1916600160f01b17905582519182526020820152f35b604051631072b39760e11b8152600490fd5b611a839250613b93565b611a8b613c7b565b1084886119ea565b60405163748800af60e01b8152600490fd5b611aaf9250613b93565b611ab7613bf5565b10878a6119dc565b611aca9192506138a5565b60e05180610373579089916119d5565b9350611ae4613c7b565b93611993565b50611af3613bf5565b611989565b909197602082015160020b602084015160020b90818112600014611b56575050505080611b2e6020611b4d93015160020b614e7d565b906060611b41604083015160020b614e7d565b910151600f0b916147fb565b955b8880611978565b90919298506040849a94015160020b13600014611c915750506001600160801b03806004541697611bb161ffff898b8260408301511692602083015160020b90608081606086015116940151169363ffffffff42169061413b565b60e051805463ffffffff60b81b191660c89290921b61ffff60c81b169190911760b89290921b61ffff60b81b1691909117905587516040820151611c13916001600160a01b031690611c059060020b614e7d565b6060840151600f0b916147fb565b98611c44611c27602084015160020b614e7d565b995160608401519a600f8c900b916001600160a01b031690614988565b9860e05181600f0b12600014611c7f57506109cf6060611c68930151600f0b613cef565b166001600160801b03196004541617600455611b4f565b611c8c9250831690613cd4565b611c68565b611cc2929750611ca390989198614e7d565b906060611cb6604083015160020b614e7d565b910151600f0b91614988565b94611b4f565b611d0b575b50611cdb575b808080611967565b611d059060009060020b815260056020526003604082208281558260018201558260028201550155565b8a611cd3565b611d359060009060020b815260056020526003604082208281558260018201558260028201550155565b8c611ccd565b6001600160801b0380831691909101166001600160801b03199182168117608090811c9490940190931b169091176003909101558f808080611956565b50831515611951565b6001600160801b0316906001600160801b0319161787553880611939565b6001600160801b039361192e93929091600f82900b1215611ddc57611dd690611dce8685511691600f0b613cef565b861690613d10565b9c611903565b611dea908516858716613cd4565b611dd6565b600260018201548403910154820393611881565b60026001870154860396015484039761186e565b611e58919950611ed297506001600160801b0360045416906bff00ffffffffffffffffffff61ffff8260b81c169160a01c1660020b63ffffffff421661435e565b611e988988848488889d979d7f0000000000000000000000000000000000000000000000000000000000000000958d63ffffffff421696600f0b91614b36565b998a987f000000000000000000000000000000000000000000000000000000000000000092868663ffffffff4216948b8d600f0b91614cd7565b8098611f14575b611ee5575b8838611824565b611f0f7f00000000000000000000000000000000000000000000000000000000000000008a614e2a565b611ede565b611f3e7f000000000000000000000000000000000000000000000000000000000000000089614e2a565b611ed9565b346102b15760e051806003193601126103735760e0905460ff6040519160018060a01b03811683528060a01c60020b602084015261ffff808260b81c166040850152808260c81c1660608501528160d81c166080840152818160e81c1660a084015260f01c16151560c0820152f35b346102b15760203660031901126102b15760043561ffff80821682036102b15760e0515460ff8160f01c1615610ce35760e05160ff60f01b1982169055612008908290611ffd613abc565b60d81c1692836142f5565b9081169160e0515492808203612043575b505060e05163ff00ffff60d81b1990921660d89190911b61ffff60d81b1617600160f01b17815580f35b7fac49e518f90a358f652e4400164f05a5d8f7e35e7747279bc3a93dbf584e125a9160409182519182526020820152a18280612019565b346102b15760203660031901126102b15760043561ffff8110156102b157608090600801546040519063ffffffff811682528060201c60060b602083015260018060a01b038160581c16604083015260f81c15156060820152f35b346102b15760e05180600319360112610373576040517f00000000000000000000000000000000000000000000000000000000000000006001600160a01b03168152602090f35b346102b15760e0518060031936011261037357600354604080516001600160801b038316815260809290921c602083015290f35b346102b15760e051806003193601126103735760206001600160801b0360045416604051908152f35b346102b15760a03660031901126102b15761219261381c565b6024351515602435036102b1576064356001600160a01b03811690036102b1576084356001600160401b0381116102b1576121d1903690600401613832565b91906121db613abc565b7f00000000000000000000000000000000000000000000000000000000000000006001600160a01b03163b156102b15760405163794358cf60e11b815260e080513060048401526001600160a01b0385811660248501529151909183916044918391907f0000000000000000000000000000000000000000000000000000000000000000165af180156110bb576137cb575b50604435156137ba5761227e613945565b9060c082015115610ce357602435156137785781516001600160a01b03908116606435909116108061375f575b156137345760e051805460ff60f01b191690556004546001600160801b0316936024351561372357600f60a084015116935b604051948560c08101106001600160401b0360c08801111761370d5760ff9060c0870160405216855285602086015263ffffffff4216604086015260e051606086015260e051608086015260e05160a086015260018060a01b0384511695602085015160e0515060243560001461370457600154905b604051986123608a6138b8565b6044358a5260e05160208b015260408a015260020b6060890152608088015260e05160a088015260c08701525b85511515806136e7575b1561303d576040516123a8816138b8565b60e051815260e051602082015260e051604082015260e051606082015260e051608082015260e05160a082015260e05160c082015260018060a01b036040880151168152606087015160020b60e051506124227f000000000000000000000000000000000000000000000000000000000000000082614e18565b9060e05181129081613006575b50612ffa575b60243515612e30576124578160020b906101008260081d60010b920760ff1690565b9061247d600160ff84161b600019908001019160010b6000526006602052604060002090565b5416918215159260e0519084600014612df85780828115610373575060ff929190600160801b811015612de9575b5080680100000000000000006002921015612ddb575b640100000000811015612dcd575b62010000811015612dbf575b610100811015612db1575b6010811015612da3575b6004811015612d96575b1015612d8c575b7f000000000000000000000000000000000000000000000000000000000000000093031660020b900360020b0260020b5b905b1515604083015260020b60208201819052620d89e7199081811215612d6d575060208201525b60208101516001600160a01b03906125749060020b614e7d565b1680606083015260018060a01b036040890151169060e051602435600014612d59576064356001600160a01b03168210905b5015612d535750606435905b60c0890151895160405163f56681bf60e01b81526001600160a01b037f0000000000000000000000000000000000000000000000000000000000000000811660048301527f00000000000000000000000000000000000000000000000000000000000000001660248201526001600160801b0392909216929190602082806044810103817f00000000000000000000000000000000000000000000000000000000000000006001600160a01b03165afa9182156110bb5760e05192612d13575b5060e051918280808412612c3d57505061269662ffffff82620f4240031683613d68565b926001600160a01b0387168510612c2c576126b2868689614933565b935b848110612bad575086955b6001600160a01b0387811698169586891495878210612b49578680612b3d575b15612b2c575b97889680612b21575b15612b12575050505b935b60e051808412908180612b07575b612afc575b50159081612af1575b5015612ad15750035b60c085015260a08401526080830152604088015260e0518060443513600014612a705750608081015160c082015101600160ff1b8110156102b157875103875260a0810151600160ff1b8110156102b157602088015160e0518083128284810312811690838581031390151617612a5957500360208801525b6001600160801b038060c083015160e05160c0850152168160a08a015116011660a08801526001600160801b0360c08801511680612a3a575b50604087015160608201516001600160a01b0391821691168103612a0b5750604081015161282a575b6024351561281e57602060001991015160020b0160020b5b60020b606087015261238d565b6020015160020b612811565b60a0860151156129b5575b6001600160801b03602082015160020b61293e60e051916024356000146129ac5760808b0151925b506024351561299c5763ffffffff600254915b818c60018060a01b03608082015116946128a38360406060850151940151169460020b6000526005602052604060002090565b6001810180549099039098556002880180549091039055600387018054600160381b600160d81b03198116603891821c6001600160a01b0316909703901b600160381b600160d81b031695909517855584549060069082820b910b0366ffffffffffffff169066ffffffffffffff19161780855560d81c1690031681549063ffffffff60d81b9060d81b169063ffffffff60d81b1916179055565b5460801d602435612990575b60e05181600f0b126000146129785761296d906109cf8360c08c01511691613cef565b1660c08801526127f9565b60c089015161298b918316908316613cd4565b61296d565b60e05103600f0b61294a565b63ffffffff60808c015191612870565b6001549261285d565b6129e963ffffffff604088015116602087015160020b61ffff604089015116906001600160801b0360208b0151169261435e565b6001600160a01b0316608088015260060b6060870152600160a0870152612835565b90516001600160a01b03168103612a23575b5061238d565b612a2c906151ee565b60020b606087015286612a1d565b612a489060c0830151613ddf565b6080880151016080880152876127d0565b634e487b7160e01b9052601160045260e051602490fd5b60a082015190600160ff1b82101561037357508751018752612a9b608082015160c083015190613b93565b600160ff1b8110156102b1576020880151818082011260e05190818312908015821691151617612a595750016020880152612797565b9050612aec915062ffffff8082620f424003169116846140c9565b61271e565b90508614158e612715565b84900395508f61270c565b508481038711612707565b612b1c93506149d6565b6126f7565b5060e05186126126ee565b50612b3882828a614933565b6126e5565b5060e0518612156126df565b9086989187612ba0575b60e0519715612b8f575b98899781612b85575b5015612b76575050505b936126f9565b612b8093506148ea565b612b70565b8088129150612b66565b50612b9b838383614a08565b612b5d565b60e0518712159750612b53565b85156102b15786156102b1576001600160a01b0388168610612bda57612bd4908787614ac3565b956126bf565b612bff90876001600160a01b038211612c1e57612bf99160601b613d29565b86613b93565b6001600160a01b038116819003610cde576001600160a01b0316612bd4565b612c2791613eff565b612bf9565b612c37868887614a08565b936126b4565b5092506001600160a01b0386168410612d0357612c5b8585886149d6565b60e0518381038211612c6f575086956126bf565b851561037357861561037357836001600160a01b0389168710612cf257505060e0518390036001600160a01b038111612cc85760601b8680820615159104015b80861115610cde5785036001600160a01b0316956126bf565b86612cd38183613eff565b91600160601b900915612caf57600019811015610cde57600101612caf565b612cfe91038787614a5a565b612bd4565b612d0e8587866148ea565b612c5b565b9091506020813d602011612d4b575b81612d2f60209383613924565b810103126102b1575162ffffff811681036102b157908c612672565b3d9150612d22565b906125b2565b6064356001600160a01b03168211906125a6565b9050620d89e8809113612d81575b5061255a565b602082015287612d7b565b6001018116612501565b918101831691811c6124fa565b60049283018416921c6124f0565b60089283018416921c6124e6565b60109283018416921c6124db565b60209283018416921c6124cf565b60409283018416921c6124c1565b60809250821c905060026124ab565b505060ff7f0000000000000000000000000000000000000000000000000000000000000000921660020b900360020b0260020b612532565b612e506001820160020b60020b906101008260081d60010b920760ff1690565b9190612e75600019600160ff86161b01199160010b6000526006602052604060002090565b5416908115159260e0519284600014612fb95780938115610373575060ff906001600160801b03811615612faf575050607f5b6001600160401b03841615612fa557603f190160ff165b63ffffffff841615612f9b57601f190160ff165b61ffff841615612f9157600f190160ff165b60ff841615612f87576007190160ff165b600f841615612f7d576003190160ff165b6003841615612f71576001190160ff16926001905b16612f62575b60ff6001917f000000000000000000000000000000000000000000000000000000000000000094031660020b910160020b0160020b0260020b5b90612534565b60001990920160ff1691612f22565b9260019060021c612f1c565b9260041c92612f07565b9260081c92612ef6565b9260101c92612ee5565b9260201c92612ed3565b9260401c92612ebf565b60801c9350612ea8565b509150600160ff7f00000000000000000000000000000000000000000000000000000000000000009381031660020b910160020b0160020b0260020b612f5c565b6000190160020b612435565b61303291507f000000000000000000000000000000000000000000000000000000000000000090614e06565b60020b15158961242f565b85906001600160801b0360208787606086015160020b8382015160020b809114156000146136ba576130999161ffff806040830151169263ffffffff60408701511688888801511692608081606087015116950151169461413b565b9060018060a01b036040880151169060608801519060e0519384549061ffff60c81b9060c81b169064ffffffffff60d81b16179061ffff60b81b9060b81b16179062ffffff60a01b9060a01b16171790555b0151166001600160801b0360c0840151168091036136a3575b506024351561365d5760808201516001556001600160801b0360a08301511680613637575b505b60e05193846044351360243515151460001461362557825160443503936020840151955b6024351561355a575060e05186818112613527575b505061316e613bf5565b91333b156102b15761319a916040518093819263fa461e3360e01b835260e051948b8b60048601613b60565b038160e051335af19081156110bb57859161350e575b506131ba91613b93565b6131c2613bf5565b106134fc575b60018060a01b036040830151169160606001600160801b0360c08301511691015160020b906040519385855286602086015260408501526060840152608083015260018060a01b0316907fc42079f94a6350d7e6235f29174924f928cc2ac818eb64fed8004e115fbcca6760a03392a36003546001600160801b0381169290608081901c90849081613433575b505080613346575b604051630ec0f7cf60e41b8152936020856004817f00000000000000000000000000000000000000000000000000000000000000006001600160a01b03165afa80156110bb576133047f596b573906218d3411850b26a6b437d6c4522fdb43d2d2386263f86d50b8b1519160409760e05191613327575b5087516001600160801b0394851681529490931660208501526001600160a01b0390921692339281906040820190565b0390a360e051805460ff60f01b1916600160f01b17905582519182526020820152f35b613340915060203d6020116110b4576110a68183613924565b886132d4565b6003548060801c80831461341e575b6001600160801b03919091169082900360801b6001600160801b03191617600355604051630ec0f7cf60e41b81526020816004817f00000000000000000000000000000000000000000000000000000000000000006001600160a01b03165afa80156110bb576133fa9160e051916133ff575b506001600160801b038316907f00000000000000000000000000000000000000000000000000000000000000006154a2565b61325d565b613418915060203d6020116110b4576110a68183613924565b866133c8565b6000199092016001600160801b031691613355565b6001600160801b0319166000199095016001600160801b03908116918290031694909417600355604051630ec0f7cf60e41b81526020816004817f00000000000000000000000000000000000000000000000000000000000000006001600160a01b03165afa9081156110bb576134d691869160e051916134dd575b507f00000000000000000000000000000000000000000000000000000000000000006154a2565b8480613255565b6134f6915060203d6020116110b4576110a68183613924565b876134af565b604051635d05ca8f60e11b8152600490fd5b61351891506138a5565b60e051806103735784906131b0565b6135539103847f00000000000000000000000000000000000000000000000000000000000000006154a2565b8686613164565b858181126135f2575b505061356d613c7b565b91333b156102b157613599916040518093819263fa461e3360e01b835260e051948b8b60048601613b60565b038160e051335af19081156110bb5786916135d9575b506135b991613b93565b6135c1613c7b565b10156131c857604051635d05ca8f60e11b8152600490fd5b6135e391506138a5565b60e051806103735785906135af565b61361e9103847f00000000000000000000000000000000000000000000000000000000000000006154a2565b8685613563565b6020830151938351604435039561314f565b6001600160801b03600354918183160116906001600160801b0319161760035584613129565b60808201516002556001600160801b0360a0830151168061367f575b5061312b565b6001600160801b03600354918119908360801c0160801b1691161760035584613679565b6001600160801b0319600454161760045584613104565b5050604085015160e05180546001600160a01b0319166001600160a01b03929092169190911790556130eb565b5060408601516064356001600160a01b0390811691161415612397565b60025490612353565b634e487b7160e01b600052604160045260246000fd5b600f60a084015160041c16936122dd565b60405162461bcd60e51b815260206004820152600360248201526214d41360ea1b6044820152606490fd5b506401000276a36064356001600160a01b0316116122ab565b81516001600160a01b039081166064359091161180156122ab575073fffd8963efd1fc6a506488495d951d5263988d266064356001600160a01b0316106122ab565b604051627ffe0360e31b8152600490fd5b6137d4906138a5565b8361226d565b34610cde576000366003190112610cde577f00000000000000000000000000000000000000000000000000000000000000006001600160a01b03168152602090f35b600435906001600160a01b0382168203610cde57565b9181601f84011215610cde578235916001600160401b038311610cde5760208381860195010111610cde57565b602435908160020b8203610cde57565b604435908160020b8203610cde57565b600435908160020b8203610cde57565b606435906001600160801b0382168203610cde57565b6001600160401b03811161370d57604052565b60e081019081106001600160401b0382111761370d57604052565b608081019081106001600160401b0382111761370d57604052565b60a081019081106001600160401b0382111761370d57604052565b606081019081106001600160401b0382111761370d57604052565b90601f801991011681019081106001600160401b0382111761370d57604052565b60405190613952826138b8565b8160c060ff60005460018060a01b03811684528060a01c60020b602085015261ffff808260b81c166040860152808260c81c1660608601528160d81c166080850152818160e81c1660a085015260f01c161515910152565b9190916139b78382613aee565b60020b906000928284526005602052604084209060020b928385526003604086209201549360069585870b9660018060a01b0392838860381c169863ffffffff96878a60d81c169960f81c15613ab857600301549586840b92868860381c1695898960d81c169860f81c156103735750613a2f613945565b90602082015160020b928312600014613a515750505003900b96031693031690565b829b979695939c949212600014613aa4579185949391899796938842169c60408e92015161ffff166004546001600160801b031691613a8f9361435e565b9d9003820b03900b9a03160316950316031690565b509990990390980b97900316945090031690565b8480fd5b7f00000000000000000000000000000000000000000000000000000000000000006001600160a01b03163003610cde57565b9060020b9060020b81811215613b3757620d89e71913613b2557620d89e812613b1357565b60405163d7b54ab160e01b8152600490fd5b60405163135ac25d60e31b8152600490fd5b604051632fe0284f60e01b8152600490fd5b6001600160401b03811161370d5760051b60200190565b928492608095928552602085015260606040850152816060850152848401376000828201840152601f01601f1916010190565b91908201809211613ba057565b634e487b7160e01b600052601160045260246000fd5b3d15613bf0573d906001600160401b03821161370d5760405191613be4601f8201601f191660200184613924565b82523d6000602084013e565b606090565b60405160208101906370a0823160e01b825230602482015260248152613c1a81613909565b60008092819251907f00000000000000000000000000000000000000000000000000000000000000005afa90613c4e613bb6565b9180613c6f575b156103735760208280518101031261037357506020015190565b50602082511015613c55565b60405160208101906370a0823160e01b825230602482015260248152613ca081613909565b60008092819251907f00000000000000000000000000000000000000000000000000000000000000005afa90613c4e613bb6565b9190916001600160801b0380809416911601918211613ba057565b600f0b6f7fffffffffffffffffffffffffffffff198114613ba05760000390565b6001600160801b039182169082160391908211613ba057565b8115613d33570490565b634e487b7160e01b600052601260045260246000fd5b90816020910312610cde57516001600160a01b0381168103610cde5790565b90919060001983820983820291828083109203948286039260009614613dd157620f42409183831115613dcd577fde8f6cefed634549b62c77574f722e1ac57e23f24d8fd5cb790fb65668c261399596500990828211900360fa1b910360061c170290565b8680fd5b505050620f42409192500490565b90600160801b90600019828409928060801b92838086109503948086039514613e5b5784831115610cde5782910981806000031680920460028082600302188083028203028083028203028083028203028083028203028083028203028092029003029360018380600003040190848311900302920304170290565b505080925015610cde570490565b6000198282099082810292838084109303918383039360009314613ea957600160801b928484111561037357500990828211900360801b910360801c1790565b505090505060801c90565b6000198282099082810292838084109303918383039360009314613ef457600160601b928484111561037357500990828211900360a01b910360601c1790565b505090505060601c90565b90600160601b90600019828409928060601b92838086109503948086039514613e5b5784831115610cde5782910981806000031680920460028082600302188083028203028083028203028083028203028083028203028083028203028092029003029360018380600003040190848311900302920304170290565b9060001981830981830291828083109203918083039214613fd957620f42409082821115610cde577fde8f6cefed634549b62c77574f722e1ac57e23f24d8fd5cb790fb65668c26139940990828211900360fa1b910360061c170290565b5050620f424091500490565b600019828209908281029283808410930392808403931461402157600160601b9183831115610cde570990828211900360a01b910360601c1790565b50505060601c90565b916000198284099282810292838086109503948086039514613e5b5784831115610cde5782910981806000031680920460028082600302188083028203028083028203028083028203028083028203028083028203028092029003029360018380600003040190848311900302920304170290565b9190620f4240906140b08185613f7b565b93096140b857565b90600019811015610cde5760010190565b9291906140d782828661402a565b938215613d3357096140b857565b906040516140f2816138d3565b915463ffffffff81168352602081811c60060b90840152605881901c6001600160a01b0316604084015260f81c15156060830152565b9061ffff809116918215613d3357160690565b949195939592909261ffff93848710156141f45761415b876008016140e5565b9663ffffffff948589511686841614614225576141a2949392918761419c928c8260019d9e168383161180614214575b1561420a57509a8b925b0116614128565b98614255565b918510156141f45781511690602081015160201b916affffffffffffff00000000600160581b600160f81b03604084015160581b1692606060ff60f81b910151151560f81b1693161717178360080155565b634e487b7160e01b600052603260045260246000fd5b90509a8b92614195565b50838316600019820184161461418b565b509796505050505050565b6040519061423d826138d3565b60006060838281528260208201528260408201520152565b604092939193614263614230565b508151602083015194909201516001600160a01b03949085169363ffffffff938416870392906001600160801b0390818116156142ed575b16938415613d335780604051986142b18a6138d3565b168852831660060b9060020b0260060b9060060b0160060b602086015263ffffffff60801b9060801b1604011660408201526001606082015290565b50600161429b565b61ffff90818116908115610ef85782841691821115614357575b818382161061431e5750505090565b828110156143425760018184926008018263ffffffff19825416179055011661430f565b60246000634e487b7160e01b81526032600452fd5b9250505090565b93929161ffff8110156141f457614377906008016140e5565b9363ffffffff80865116908216036143a6575b505050602082015160060b91604060018060a01b039101511690565b6143b09394614255565b9038808061438a565b929594919593909363ffffffff9687808716156144a85785966143df96031680966144ee565b9190938085511680831460001461440d5750505050602082015160060b91604060018060a01b039101511690565b81849694511680841460001461443b575050505050602082015160060b91604060018060a01b039101511690565b81839197949597031693031693602081015192600693840b92836020820151860b03850b9282860b928315613d335760409182015192909101516001600160a01b039283169183916144969190831684900383168b02613d29565b16011695840b910502820b01900b9190565b5093925090935061ffff8110156141f4576144c5906008016140e5565b9480865116908216036143a657505050602082015160060b91604060018060a01b039101511690565b949592919390936144fd614230565b50614506614230565b9161ffff8410156141f45761451d846008016140e5565b9163ffffffff83511661453188828b614705565b6146d6575050505050600161ffff91011661454c8582614128565b61ffff8110156141f457614562906008016140e5565b83606082015115614689575b63ffffffff61457f92511686614705565b15614677576145a38561ffff92614594614230565b5061459d614230565b50614128565b1661ffff85168101600019015b80820160011c906145c561ffff88168361477e565b61ffff8110156141f4576145db906008016140e5565b60608101511561466c576145f661ffff89166001850161477e565b61ffff8110156141f45761460c906008016140e5565b61461e8763ffffffff8451168a614705565b918280614654575b61464757505061463d575060001901905b906145b0565b9150600101614637565b9850965093945050505050565b5061466763ffffffff835116898b614705565b614626565b509150600101614637565b6040516327e8e87560e01b8152600490fd5b61457f915063ffffffff60405161469f816138d3565b60085482811682528060201c60060b602083015260018060a01b038160581c16604083015260f81c1515606082015292505061456e565b9296939850935093955063ffffffff8216146000146146f6575050509190565b83614702949650614255565b90565b63ffffffff808092169216828111801580614772575b614767571561475357925b1690811115614740575b64ffffffffff8091169116111590565b6401000000000164ffffffffff16614730565b6401000000000164ffffffffff1692614726565b509290915016101590565b5083838616111561471b565b8115613d33570690565b80518210156141f45760209160051b010190565b916040519160208301936bffffffffffffffffffffffff199060601b16845260e81b603483015260e81b6037820152601a8152604081018181106001600160401b0382111761370d576040525190206000526007602052604060002090565b919060008083600f0b1260001461487957506001600160a01b03929080828582168682161161486e575b5050838216928315610cde5761485c94614857938382169303169060000360601b600160601b600160e01b031661402a565b613d29565b600160ff1b811015610cde5760000390565b915091503880614825565b92916001600160a01b038284828216838216116148de575b50508084169384156148da576148c093808316939190039091169060601b600160601b600160e01b03166140c9565b81810491900615150190600160ff1b821015610373575090565b8580fd5b90945092503880614891565b6001600160a01b0392918381168483161161492d575b838216928315610cde5761470294614857938382169303169060601b600160601b600160e01b031661402a565b90614900565b6001600160a01b039290919083821684841611614980575b838316938415610cde57614974938382169303169060601b600160601b600160e01b03166140c9565b90808206151591040190565b91909161494b565b906000928381600f0b126000146149b05761485c93506000036001600160801b0316916149d6565b906149c592916001600160801b031691614a08565b90600160ff1b821015610373575090565b61470292916001600160801b03916001600160a01b039182811683831611614a02575b03169116613eb4565b906149f9565b6001600160801b03916001600160a01b03919082811683831611614a54575b03169116614a358282613fe5565b91600160601b9109614a445790565b600019811015610cde5760010190565b90614a27565b91908115614abe576001600160a01b039283168281029260609290921b600160601b600160e01b0316918190614a909085613d29565b1480614ab5575b15610cde57614aa8928203916140c9565b908116908103610cde5790565b50828211614a97565b505090565b91908115614abe576001600160a01b039260609190911b600160601b600160e01b03169190831680820281614af88483613d29565b14614b1e575b5090614b0d614b129284613d29565b613b93565b80820615159104011690565b8301838110614afe579150614b32926140c9565b1690565b989795969194909860020b96600094888652600560205260408620986001600160801b03808b541690808a600f0b9a8a8c12600014614cc657614b7b614b8391613cef565b821684613d10565b169a168a11614cb457159b8c8a1514159c614bf0575b505050505050506001600160801b03199183838654161760801d600f0b019060016001607f1b0319821260016001607f1b03831317614bdc575060801b16179055565b634e487b7160e01b81526011600452602490fd5b60020b1215614c22575b505050506003850180546001600160f81b0316600160f81b1790555038808080808080614b99565b60018901949094556002880193909355600387018054600160381b600160d81b03191660389290921b600160381b600160d81b0316919091178155614caa925b81547fff00000000ffffffffffffffffffffffffffffffffffffffff000000000000001666ffffffffffffff919091161760d89290921b63ffffffff60d81b16919091179055565b3880808080614bfa565b6040516368d2be8f60e01b8152600490fd5b614cd290821684613cd4565b614b83565b989795969194909860020b96600094888652600560205260408620986001600160801b03808b541690808a600f0b9a8a8c12600014614df557614b7b614d1c91613cef565b169a168a11614cb457159b8c8a1514159c614d75575b505050505050506001600160801b03199183838654161760801d600f0b039060016001607f1b03821360016001607f1b0319831217614bdc575060801b16179055565b60020b1215614da7575b505050506003850180546001600160f81b0316600160f81b1790555038808080808080614d32565b60018901949094556002880193909355600387018054600160381b600160d81b03191660389290921b600160381b600160d81b0316919091178155614deb92614c62565b3880808080614d7f565b614e0190821684613cd4565b614d1c565b9060020b908115613d335760020b0790565b9060020b908115613d335760020b0590565b614e348282614e06565b60020b610cde57614e5e91614e4891614e18565b60020b906101008260081d60010b920760ff1690565b9060010b6000526006602052600160ff604060002092161b8154189055565b60020b60008112156151e85780600003905b620d89e882116151d65760018216156151c4576001600160881b036ffffcb933bd6fad37aa2d162d1a5940015b1691600281166151a8575b6004811661518c575b60088116615170575b60108116615154575b60208116615138575b6040811661511c575b608090818116615101575b61010081166150e6575b61020081166150cb575b61040081166150b0575b6108008116615095575b611000811661507a575b612000811661505f575b6140008116615044575b6180008116615029575b62010000811661500e575b620200008116614ff4575b620400008116614fda575b6208000016614fbf575b50600012614fb0575b63ffffffff8116614fa8576000905b60201c60ff91909116016001600160a01b031690565b600190614f92565b8015613d335760001904614f83565b6b048a170391f7dc42444e8fa26000929302901c9190614f7a565b6d2216e584f5fa1ea926041bedfe98909302811c92614f70565b926e5d6af8dedb81196699c329225ee60402811c92614f65565b926f09aa508b5b7a84e1c677de54f3e99bc902811c92614f5a565b926f31be135f97d08fd981231505542fcfa602811c92614f4f565b926f70d869a156d2a1b890bb3df62baf32f702811c92614f45565b926fa9f746462d870fdf8a65dc1f90e061e502811c92614f3b565b926fd097f3bdfd2022b8845ad8f792aa582502811c92614f31565b926fe7159475a2c29b7443b29c7fa6e889d902811c92614f27565b926ff3392b0822b70005940c7a398e4b70f302811c92614f1d565b926ff987a7253ac413176f2b074cf7815e5402811c92614f13565b926ffcbe86c7900a88aedcffc83b479aa3a402811c92614f09565b926ffe5dee046a99a2a811c461f1969c305302811c92614eff565b916fff2ea16466c96a3843ec78b326b528610260801c91614ef4565b916fff973b41fa98c081472e6896dfb254c00260801c91614eeb565b916fffcb9843d60f6159c9db58835c9266440260801c91614ee2565b916fffe5caca7e10e4e61c3624eaa0941cd00260801c91614ed9565b916ffff2e50f5f656932ef12357cf3c7fdcc0260801c91614ed0565b916ffff97272373d413259a46990580e213a0260801c91614ec7565b6001600160881b03600160801b614ebc565b6040516315e4079d60e11b8152600490fd5b80614e8f565b6001600160a01b03818116916401000276a383101580615485575b1561547357640100000000600160c01b039060201b16806001600160801b03811160071b9181831c926001600160401b03841160061b93841c9363ffffffff851160051b94851c9461ffff861160041b95861c60ff9687821160031b91821c92600f841160021b93841c94600160038711811b96871c1196171717171717179160808310156000146154675750607e1982011c5b8002607f928392828493841c81841c1c800280851c81851c1c800280861c81861c1c800280871c81871c1c80029081881c82881c1c80029283891c84891c1c800294858a1c868a1c1c800296878b1c888b1c1c800298898c1c8a8c1c1c80029a8b8d1c8c821c1c8002809d1c8d821c1c8002809e81901c90821c1c80029e8f80911c911c1c800260cd1c6604000000000000169d60cc1c6608000000000000169c60cb1c6610000000000000169b60ca1c6620000000000000169a60c91c6640000000000000169960c81c6680000000000000169860c71c670100000000000000169760c61c670200000000000000169660c51c670400000000000000169560c41c670800000000000000169460c31c671000000000000000169360c21c672000000000000000169260c11c674000000000000000169160c01c6780000000000000001690607f190160401b1717171717171717171717171717693627a301d71055774c8502906f028f6481ab7f045a5af012a19d003aa919820160801d60020b916fdb2df09e81959a81455e260799a0632f0160801d60020b9260009184841460001461544d57505050905090565b61545685614e7d565b16119050615462575090565b905090565b905081607f031b61529d565b6040516324c070df60e11b8152600490fd5b5073fffd8963efd1fc6a506488495d951d5263988d268310615209565b60405163a9059cbb60e01b602082019081526001600160a01b039093166024820152604480820194909452928352916154da816138d3565b600092839283809351925af1906154ef613bb6565b9082615511575b5050156154ff57565b604051638b98626560e01b8152600490fd5b908092505191821592831561552b575b50505038806154f6565b81929350906020918101031261555257602001519081151582036103735750388080615521565b5080fdfea2646970667358221220cc11e002022fc42f158c26195d7301ab18132b4991ce5994f16f2c6747b2596d64736f6c63430008130033a264697066735822122072b06d1b6da07437f86d000c894451375dd6b6a22a6ffa69e07b4eaa9109420764736f6c63430008130033",
  "devdoc": {
    "events": {
      "FeeAmountEnabled(uint24,int24)": {
        "params": {
          "fee": "The enabled fee, denominated in hundredths of a bip",
          "tickSpacing": "The minimum number of ticks between initialized ticks for pools created with the given fee"
        }
      },
      "OwnerChanged(address,address)": {
        "params": {
          "newOwner": "The owner after the owner was changed",
          "oldOwner": "The owner before the owner was changed"
        }
      },
      "PoolCreated(address,address,uint24,int24,address)": {
        "params": {
          "fee": "The fee collected upon every swap in the pool, denominated in hundredths of a bip",
          "pool": "The address of the created pool",
          "tickSpacing": "The minimum number of ticks between initialized ticks",
          "token0": "The first token of the pool by address sort order",
          "token1": "The second token of the pool by address sort order"
        }
      }
    },
    "kind": "dev",
    "methods": {
      "createPool(address,address,uint24)": {
        "details": "tokenA and tokenB may be passed in either order: token0/token1 or token1/token0. tickSpacing is retrieved from the fee. The call will revert if the pool already exists, the fee is invalid, or the token arguments are invalid.",
        "params": {
          "fee": "The desired fee for the pool",
          "tokenA": "One of the two tokens in the desired pool",
          "tokenB": "The other of the two tokens in the desired pool"
        },
        "returns": {
          "pool": "The address of the newly created pool"
        }
      },
      "enableFeeAmount(uint24,int24)": {
        "details": "Fee amounts may never be removed once enabled",
        "params": {
          "fee": "The fee amount to enable, denominated in hundredths of a bip (i.e. 1e-6)",
          "tickSpacing": "The spacing between ticks to be enforced for all pools created with the given fee amount"
        }
      },
      "setOwner(address)": {
        "details": "Must be called by the current owner",
        "params": {
          "_owner": "The new owner of the factory"
        }
      }
    },
    "stateVariables": {
      "feeAmountTickSpacing": {
        "details": "A fee amount can never be removed, so this value should be hard coded or cached in the calling context",
        "params": {
          "fee": "The enabled fee, denominated in hundredths of a bip. Returns 0 in case of unenabled fee"
        },
        "return": "The tick spacing",
        "returns": {
          "_0": "The tick spacing"
        }
      },
      "getPool": {
        "details": "tokenA and tokenB may be passed in either token0/token1 or token1/token0 order",
        "params": {
          "fee": "The fee collected upon every swap in the pool, denominated in hundredths of a bip",
          "tokenA": "The contract address of either token0 or token1",
          "tokenB": "The contract address of the other token"
        },
        "return": "The pool address",
        "returns": {
          "_0": "The pool address"
        }
      },
      "owner": {
        "details": "Can be changed by the current owner via setOwner",
        "return": "The address of the factory owner",
        "returns": {
          "_0": "The address of the factory owner"
        }
      }
    },
    "title": "Canonical Uniswap V3 factory",
    "version": 1
  },
  "userdoc": {
    "events": {
      "FeeAmountEnabled(uint24,int24)": {
        "notice": "Emitted when a new fee amount is enabled for pool creation via the factory"
      },
      "OwnerChanged(address,address)": {
        "notice": "Emitted when the owner of the factory is changed"
      },
      "PoolCreated(address,address,uint24,int24,address)": {
        "notice": "Emitted when a pool is created"
      }
    },
    "kind": "user",
    "methods": {
      "createPool(address,address,uint24)": {
        "notice": "Creates a pool for the given two tokens and fee"
      },
      "enableFeeAmount(uint24,int24)": {
        "notice": "Enables a fee amount with the given tickSpacing"
      },
      "feeAmountTickSpacing(uint24)": {
        "notice": "Returns the tick spacing for a given fee amount, if enabled, or 0 if not enabled"
      },
      "getPool(address,address,uint24)": {
        "notice": "Returns the pool address for a given pair of tokens and a fee, or address 0 if it does not exist"
      },
      "owner()": {
        "notice": "Returns the current owner of the factory"
      },
      "parameters()": {
        "notice": "Get the parameters to be used in constructing the pool, set transiently during pool creation."
      },
      "setOwner(address)": {
        "notice": "Updates the owner of the factory"
      }
    },
    "notice": "Deploys Uniswap V3 pools and manages ownership and control over pool protocol fees",
    "version": 1
  },
  "storageLayout": {
    "storage": [
      {
        "astId": 2922,
        "contract": "@kayen/uniswap-v3-core/contracts/UniswapV3Factory.sol:UniswapV3Factory",
        "label": "parameters",
        "offset": 0,
        "slot": "0",
        "type": "t_struct(Parameters)2917_storage"
      },
      {
        "astId": 60,
        "contract": "@kayen/uniswap-v3-core/contracts/UniswapV3Factory.sol:UniswapV3Factory",
        "label": "owner",
        "offset": 0,
        "slot": "4",
        "type": "t_address"
      },
      {
        "astId": 66,
        "contract": "@kayen/uniswap-v3-core/contracts/UniswapV3Factory.sol:UniswapV3Factory",
        "label": "feeAmountTickSpacing",
        "offset": 0,
        "slot": "5",
        "type": "t_mapping(t_uint24,t_int24)"
      },
      {
        "astId": 76,
        "contract": "@kayen/uniswap-v3-core/contracts/UniswapV3Factory.sol:UniswapV3Factory",
        "label": "getPool",
        "offset": 0,
        "slot": "6",
        "type": "t_mapping(t_address,t_mapping(t_address,t_mapping(t_uint24,t_address)))"
      },
      {
        "astId": 79,
        "contract": "@kayen/uniswap-v3-core/contracts/UniswapV3Factory.sol:UniswapV3Factory",
        "label": "config",
        "offset": 0,
        "slot": "7",
        "type": "t_contract(IPoolConfiguration)3072"
      }
    ],
    "types": {
      "t_address": {
        "encoding": "inplace",
        "label": "address",
        "numberOfBytes": "20"
      },
      "t_contract(IPoolConfiguration)3072": {
        "encoding": "inplace",
        "label": "contract IPoolConfiguration",
        "numberOfBytes": "20"
      },
      "t_int24": {
        "encoding": "inplace",
        "label": "int24",
        "numberOfBytes": "3"
      },
      "t_mapping(t_address,t_mapping(t_address,t_mapping(t_uint24,t_address)))": {
        "encoding": "mapping",
        "key": "t_address",
        "label": "mapping(address => mapping(address => mapping(uint24 => address)))",
        "numberOfBytes": "32",
        "value": "t_mapping(t_address,t_mapping(t_uint24,t_address))"
      },
      "t_mapping(t_address,t_mapping(t_uint24,t_address))": {
        "encoding": "mapping",
        "key": "t_address",
        "label": "mapping(address => mapping(uint24 => address))",
        "numberOfBytes": "32",
        "value": "t_mapping(t_uint24,t_address)"
      },
      "t_mapping(t_uint24,t_address)": {
        "encoding": "mapping",
        "key": "t_uint24",
        "label": "mapping(uint24 => address)",
        "numberOfBytes": "32",
        "value": "t_address"
      },
      "t_mapping(t_uint24,t_int24)": {
        "encoding": "mapping",
        "key": "t_uint24",
        "label": "mapping(uint24 => int24)",
        "numberOfBytes": "32",
        "value": "t_int24"
      },
      "t_struct(Parameters)2917_storage": {
        "encoding": "inplace",
        "label": "struct UniswapV3PoolDeployer.Parameters",
        "members": [
          {
            "astId": 2905,
            "contract": "@kayen/uniswap-v3-core/contracts/UniswapV3Factory.sol:UniswapV3Factory",
            "label": "factory",
            "offset": 0,
            "slot": "0",
            "type": "t_address"
          },
          {
            "astId": 2907,
            "contract": "@kayen/uniswap-v3-core/contracts/UniswapV3Factory.sol:UniswapV3Factory",
            "label": "token0",
            "offset": 0,
            "slot": "1",
            "type": "t_address"
          },
          {
            "astId": 2909,
            "contract": "@kayen/uniswap-v3-core/contracts/UniswapV3Factory.sol:UniswapV3Factory",
            "label": "token1",
            "offset": 0,
            "slot": "2",
            "type": "t_address"
          },
          {
            "astId": 2911,
            "contract": "@kayen/uniswap-v3-core/contracts/UniswapV3Factory.sol:UniswapV3Factory",
            "label": "fee",
            "offset": 20,
            "slot": "2",
            "type": "t_uint24"
          },
          {
            "astId": 2913,
            "contract": "@kayen/uniswap-v3-core/contracts/UniswapV3Factory.sol:UniswapV3Factory",
            "label": "tickSpacing",
            "offset": 23,
            "slot": "2",
            "type": "t_int24"
          },
          {
            "astId": 2916,
            "contract": "@kayen/uniswap-v3-core/contracts/UniswapV3Factory.sol:UniswapV3Factory",
            "label": "config",
            "offset": 0,
            "slot": "3",
            "type": "t_contract(IPoolConfiguration)3072"
          }
        ],
        "numberOfBytes": "128"
      },
      "t_uint24": {
        "encoding": "inplace",
        "label": "uint24",
        "numberOfBytes": "3"
      }
    }
  }
}