{
  "address": "0x42De202f612d8936E285C5225B8fAbF28DB78Da2",
  "abi": [
    {
      "inputs": [
        {
          "internalType": "contract IPoolConfiguration",
          "name": "_config",
          "type": "address"
        }
      ],
      "stateMutability": "nonpayable",
      "type": "constructor"
    },
    {
      "anonymous": false,
      "inputs": [
        {
          "indexed": true,
          "internalType": "uint24",
          "name": "fee",
          "type": "uint24"
        },
        {
          "indexed": true,
          "internalType": "int24",
          "name": "tickSpacing",
          "type": "int24"
        }
      ],
      "name": "FeeAmountEnabled",
      "type": "event"
    },
    {
      "anonymous": false,
      "inputs": [
        {
          "indexed": true,
          "internalType": "address",
          "name": "oldOwner",
          "type": "address"
        },
        {
          "indexed": true,
          "internalType": "address",
          "name": "newOwner",
          "type": "address"
        }
      ],
      "name": "OwnerChanged",
      "type": "event"
    },
    {
      "anonymous": false,
      "inputs": [
        {
          "indexed": true,
          "internalType": "address",
          "name": "token0",
          "type": "address"
        },
        {
          "indexed": true,
          "internalType": "address",
          "name": "token1",
          "type": "address"
        },
        {
          "indexed": true,
          "internalType": "uint24",
          "name": "fee",
          "type": "uint24"
        },
        {
          "indexed": false,
          "internalType": "int24",
          "name": "tickSpacing",
          "type": "int24"
        },
        {
          "indexed": false,
          "internalType": "address",
          "name": "pool",
          "type": "address"
        }
      ],
      "name": "PoolCreated",
      "type": "event"
    },
    {
      "inputs": [],
      "name": "config",
      "outputs": [
        {
          "internalType": "contract IPoolConfiguration",
          "name": "",
          "type": "address"
        }
      ],
      "stateMutability": "view",
      "type": "function"
    },
    {
      "inputs": [
        {
          "internalType": "address",
          "name": "tokenA",
          "type": "address"
        },
        {
          "internalType": "address",
          "name": "tokenB",
          "type": "address"
        },
        {
          "internalType": "uint24",
          "name": "fee",
          "type": "uint24"
        }
      ],
      "name": "createPool",
      "outputs": [
        {
          "internalType": "address",
          "name": "pool",
          "type": "address"
        }
      ],
      "stateMutability": "nonpayable",
      "type": "function"
    },
    {
      "inputs": [
        {
          "internalType": "uint24",
          "name": "fee",
          "type": "uint24"
        },
        {
          "internalType": "int24",
          "name": "tickSpacing",
          "type": "int24"
        }
      ],
      "name": "enableFeeAmount",
      "outputs": [],
      "stateMutability": "nonpayable",
      "type": "function"
    },
    {
      "inputs": [
        {
          "internalType": "uint24",
          "name": "",
          "type": "uint24"
        }
      ],
      "name": "feeAmountTickSpacing",
      "outputs": [
        {
          "internalType": "int24",
          "name": "",
          "type": "int24"
        }
      ],
      "stateMutability": "view",
      "type": "function"
    },
    {
      "inputs": [
        {
          "internalType": "address",
          "name": "",
          "type": "address"
        },
        {
          "internalType": "address",
          "name": "",
          "type": "address"
        },
        {
          "internalType": "uint24",
          "name": "",
          "type": "uint24"
        }
      ],
      "name": "getPool",
      "outputs": [
        {
          "internalType": "address",
          "name": "",
          "type": "address"
        }
      ],
      "stateMutability": "view",
      "type": "function"
    },
    {
      "inputs": [],
      "name": "owner",
      "outputs": [
        {
          "internalType": "address",
          "name": "",
          "type": "address"
        }
      ],
      "stateMutability": "view",
      "type": "function"
    },
    {
      "inputs": [],
      "name": "parameters",
      "outputs": [
        {
          "internalType": "address",
          "name": "factory",
          "type": "address"
        },
        {
          "internalType": "address",
          "name": "token0",
          "type": "address"
        },
        {
          "internalType": "address",
          "name": "token1",
          "type": "address"
        },
        {
          "internalType": "uint24",
          "name": "fee",
          "type": "uint24"
        },
        {
          "internalType": "int24",
          "name": "tickSpacing",
          "type": "int24"
        },
        {
          "internalType": "contract IPoolConfiguration",
          "name": "config",
          "type": "address"
        }
      ],
      "stateMutability": "view",
      "type": "function"
    },
    {
      "inputs": [
        {
          "internalType": "address",
          "name": "_owner",
          "type": "address"
        }
      ],
      "name": "setOwner",
      "outputs": [],
      "stateMutability": "nonpayable",
      "type": "function"
    }
  ],
  "transactionHash": "0xbbb9e00c1d2fe610d2d99863bd6fdd546a185dfed2c52444904352990cb29047",
  "args": [
    "0xA5397F1FCc0B5366EF57d3239a6a12A868e665fA"
  ],
  "numDeployments": 2,
  "solcInputHash": "85e0b14e4b1e7aa9ce3dbddda6a42b55",
  "bytecode": "0x60a03461012657601f61607938819003918201601f19168301916001600160401b0383118484101761012b5780849260209460405283398101031261012657516001600160a01b03811690819003610126573060805260018060a01b0319908160075416176007553390600454161760045560405160c8600033817fb532073b38c83145e3e5135377a08bf9aab55bc0fd7c1179cd4fb995d2a5159c8180a36101f48082526005602052604082209162ffffff1992600a84825416179055600a7fc66a3fdf07232cdd185febcc6579d408c241b47ae2f9907d84be655141eeaecc92838380a3603c610bb8808352604083208286825416179055838380a36127109283825284604083209182541617905580a3615f37908161014282396080518160b10152f35b600080fd5b634e487b7160e01b600052604160045260246000fdfe608060408181526004908136101561001657600080fd5b600092833560e01c90816313af4035146105225781631698ee82146104c05750806322afcccb1461048a57806379502c551461046157806389035730146103fb5780638a7c195f146103465780638da5cb5b1461031e5763a16712951461007c57600080fd5b3461031a57606036600319011261031a5761009561058b565b9161009e6105a6565b6100a66105bc565b6001600160a01b03947f00000000000000000000000000000000000000000000000000000000000000008616300361030c57808616908387168281146103165787921015610310575b1690811561030c5762ffffff8116938488526020966005885286892054918260020b93841561030857858b5260068a5282898c20971696878c528a52888b20888c528a5282898c20541661030857826007541689519160c083019267ffffffffffffffff93818110858211176102f55783918b8f8f908d9060a09583523085528401528201528c606082015289608082015201526bffffffffffffffffffffffff60a01b958d308882541617905588876001541617600155896002549160b81b62ffffff60b81b169262ffffff60a01b9060a01b169165ffffffffffff60d01b1617171760025584600354161760035588518a810191878352888b830152896060830152606082526080820192828410828511176102e257838c528251902093615921908184019260808401908682109111176102cf5750620005e1843903908bf580156102c557918798997f783cca1c0412dd0d695e784568c96da2e9c22ff989357a2e8b1d9b2b4e6b711894928994169981808c935580600155806002558060035587815260068d528181208982528d528181208a82528d52818120838582541617905588815260068d528181208882528d528181208a82528d52209182541617905581519081528789820152a451908152f35b87513d8b823e3d90fd5b634e487b7160e01b8f526041905260248efd5b634e487b7160e01b8e526041855260248efd5b634e487b7160e01b8f526041865260248ffd5b8a80fd5b8680fd5b926100ef565b8880fd5b8280fd5b50903461031a578260031936011261031a575490516001600160a01b03909116815260209150f35b503461031a578060031936011261031a5761035f6105ce565b602435908160020b938483036103e857546001600160a01b031633036103f75762ffffff80911692620f42408410156103e857858513806103ec575b156103e85783865260056020528520918254918260020b61030c57169062ffffff19161790557fc66a3fdf07232cdd185febcc6579d408c241b47ae2f9907d84be655141eeaecc8380a380f35b8580fd5b50614000851261039b565b8480fd5b83823461045d578160031936011261045d579060c09160018060a01b038092541691806001541691600254918060035416938251958652602086015282169084015262ffffff8160a01c16606084015260b81c60020b608083015260a0820152f35b5080fd5b83823461045d578160031936011261045d5760075490516001600160a01b039091168152602090f35b83823461045d57602036600319011261045d578060209262ffffff6104ad6105ce565b16815260058452205460020b9051908152f35b9250503461031a57606036600319011261031a57916020926104e061058b565b916104e96105a6565b6104f16105bc565b6001600160a01b03948516835260068752838320918516835290865282822062ffffff909116825285522054168152f35b5050503461045d57602036600319011261045d5761053e61058b565b81546001600160a01b0380821692338490036103e8571680927fb532073b38c83145e3e5135377a08bf9aab55bc0fd7c1179cd4fb995d2a5159c8680a36001600160a01b03191617905580f35b600435906001600160a01b03821682036105a157565b600080fd5b602435906001600160a01b03821682036105a157565b6044359062ffffff821682036105a157565b6004359062ffffff821682036105a15756fe6101808060405234620002d75730608052630890357360e41b815260c0908181600481335afa8015620002cb57600091828093819482938395620001f6575b5061012094855261010095865260e052855260a052610140908082528060020b8015620001e05760019062ffffff928082620d89e719050260020b9082620d89e8050260020b0360020b0582160116918215620001e0576101609260018060801b030483526040519361562f9586620002f2873960805186613b61015260a0518681816104680152610fb101525185818161137f015281816116ba01528181612633015281816135500152818161369c015281816138900152613cc7015260e0518581816103df0152818161133d0152818161168a0152818161265b01528181613473015281816135ce0152613d4d0152518481816103a2015261143b01525183818161213b0152818161222d015281816122910152818161269b0152818161330d01528181613427015261350c01525182818161042901528181610ca201528181610cd101528181611f3201528181611f610152818161245d0152818161256501528181612e7201528181612f9e015281816130370152613082015251818181610c1401528181610c520152818161111101528181611eae0152611ee50152f35b634e487b7160e01b600052601260045260246000fd5b95505050915050823d8411620002c3575b601f8101601f191683016001600160401b03811184821017620002af578491849160405281010312620002a4576200023f82620002dc565b906200024e60208401620002dc565b6200025c60408501620002dc565b60608501519362ffffff85168503620002ab576080860151958660020b8703620002a75760a00151936001600160a01b0385168503620002a45750919093949293386200003e565b80fd5b8480fd5b8380fd5b634e487b7160e01b83526041600452602483fd5b503d62000207565b6040513d6000823e3d90fd5b600080fd5b51906001600160a01b0382168203620002d75756fe6101a080604052600436101561001457600080fd5b60006101405260003560e01c9081630dfe16811461387d57508063128acb08146121c95780631a6865021461219f5780631ad8b03b1461216a57806322a2e11414612122578063252c09d7146120c757806332148f6714611ffb5780633850c7bd14611f8b5780633c8a7d8d1461171657806346141319146116f5578063490e6cbc146113ba5780634f1eb3d8146111d7578063514ea4bf146111705780635339c2961461113557806370cf754a146110ee5780638206a4d114610f43578063883bdbfd14610d12578063a34123a7146104f2578063a38807f214610497578063c45a01551461044f578063d0c93a7c1461040e578063d21220a7146103c6578063ddca3f4314610383578063f30583991461035f578063f30dba93146102c15763f637731d1461014457600080fd5b346102ba5760203660031901126102ba5761015d6138bf565b61014051546001600160a01b03919082166102a8577f98636036cb66a9c19a37435efc1e90142190214e8abeb821bdba3f2990dd4c9591816101a0604093615291565b9163ffffffff42166001606086516101b781613976565b8381526101405160208201526101405188820152015261014051600160f81b916affffffffffffff000000008260201b161790600160581b600160f81b039060581b16171760085583519161020b8361395b565b1691828252600160c08260020b9384602082015261014051878201528260608201528260808201526101405160a082015201528264ffffffffff60d81b60005416176101405190630100000160d81b9263ffffffff60d81b1991600160c81b9162ffffff60a01b9060a01b161761ffff60b81b8460b81b161717169060ff60e81b9060e81b16171760005582519182526020820152a16101405180f35b60405163139816ff60e31b8152600490fd5b6101405180fd5b346102ba5760203660031901126102ba576102da613922565b60020b61014051526005602052610100604061014051208054906001810154906003600282015491015491604051936001600160801b038116855260801d600f0b6020850152604084015260608301528060060b608083015260018060a01b038160381c1660a083015263ffffffff8160d81c1660c083015260f81c151560e0820152f35b346102ba576101405180600319360112610380576020600154604051908152f35b80fd5b346102ba57610140518060031936011261038057602060405162ffffff7f0000000000000000000000000000000000000000000000000000000000000000168152f35b346102ba576101405180600319360112610380576040517f00000000000000000000000000000000000000000000000000000000000000006001600160a01b03168152602090f35b346102ba5761014051806003193601126103805760206040517f000000000000000000000000000000000000000000000000000000000000000060020b8152f35b346102ba576101405180600319360112610380576040517f00000000000000000000000000000000000000000000000000000000000000006001600160a01b03168152602090f35b346102ba5760403660031901126102ba57606063ffffffff6104d06104ba613922565b6104c2613902565b906104cb613b5f565b613a4d565b906040939293519360060b845260018060a01b03166020840152166040820152f35b346102ba5760603660031901126102ba5761050b613922565b60e052610516613902565b610120526044358060c0526001600160801b03811603610cfb57610140515460ff8160f01c1615610d00576101405160ff60f01b198216905560c0516001600160801b0316600f81900b03610cfb5761057460405180608052613976565b336080515260e05160020b602060805101526101205160020b604060805101526001600160801b0360c05116600f0b6101405103600f0b606060805101526105ba613b5f565b610140518060a052610100526105db6101205160020b60e05160020b613b91565b6105e36139e8565b906080519060018060a01b03825116602083015160020b906060604085015160020b94015161061b8584602089015160020b9461483f565b61018052600154610160526002546101405192839583600f0b610bca575b506106518560020b6000526005602052604060002090565b906106698860020b6000526005602052604060002090565b61014051918990888112610bb35760026001860154950154935b501215610b9c5760026001820154910154935b604051946106a386613991565b6101805154906001600160801b038216875260016101805101546020880152600261018051015460408801526003610180510154946001600160801b03861660608901528560801c608089015287896101405181600f0b15600014610b41575050516001600160801b031615610b2f576001600160801b03968792610758926040856107498d828151169b5b6020820151976101605103039d8e91511696879103613f0c565b169b0151960303948503613f0c565b169287600f0b610b0e575b50506101805193600185015560028401558315801590610b05575b610ac6575b505050506101405190600f0b12610a53575b50505050608051906060820151600f0b610885575b5050604060a0516101405190808203916101005180910391159081159161087b575b50610843575b82516001600160801b0360c05116815282602082015281848201526101205160020b9060e05160020b907f0c396cd989a39f4459b5fa1aed6a9a8dcdbc45908acfd67e028cd568da98982c60603392a461014051805460ff60f01b1916600160f01b17905582519182526020820152f35b6101805160030180546001600160801b038481168183160181166001600160801b0319918516608093841c0190921b161790556107d2565b90501515846107cc565b602081015160020b602083015160020b928382126000146108e657505050506108db6108b96020608051015160020b614f20565b6108cb6040608051015160020b614f20565b60606080510151600f0b9161489e565b60a0525b80806107aa565b6040015160020b1315610a1b576001600160801b038092506004541661093561ffff806040850151169083602086015160020b82606088015116926080880151169363ffffffff4216906141de565b61014051805463ffffffff60b81b191660c89290921b61ffff60c81b169190911760b89290921b61ffff60b81b1691909117905581516080516040015161098c916001600160a01b0316906108cb9060020b614f20565b60a0526109a16020608051015160020b614f20565b91516080516060015192600f84900b916109c69183916001600160a01b031690614a2b565b61010052610140511315610a0a576109f391506109eb60606080510151600f0b613d92565b831690613db3565b166001600160801b031960045416176004556108df565b610a1691831690613d77565b6109f3565b50610a28610a4a91614f20565b610a3a6040608051015160020b614f20565b60606080510151600f0b91614a2b565b610100526108df565b610a96575b50610a66575b808080610795565b610a909060009060020b815260056020526003604082208281558260018201558260028201550155565b81610a5e565b610ac09060009060020b815260056020526003604082208281558260018201558260028201550155565b83610a58565b6001600160801b03198083166001600160801b03938416909501909216938417608090811c91909101901b169091176003919091015586808080610783565b5080151561077e565b6001600160801b0316906001600160801b0319161761018051558b80610763565b604051632aabfc9960e11b8152600490fd5b9260406001600160801b03610749819c9582989588610758995081600f0b12600014610b8957610b8390610b7b8584511691600f0b613d92565b851690613db3565b9b61072f565b610b97908416848c16613d77565b610b83565b600260018201546101605103910154840393610696565b600260018601546101605103950154860393610683565b909550610c099193506001600160801b0360045416906bff00ffffffffffffffffffff61ffff8260b81c169160a01c1660020b63ffffffff4216614401565b929094610c8b610c4d7f000000000000000000000000000000000000000000000000000000000000000063ffffffff4216898887610160518c898c600f0b91614bd9565b9687957f00000000000000000000000000000000000000000000000000000000000000009163ffffffff42169186610160518d888b600f0b91614d7a565b8096610ccc575b610c9d575b88610639565b610cc77f000000000000000000000000000000000000000000000000000000000000000088614ecd565b610c97565b610cf67f000000000000000000000000000000000000000000000000000000000000000087614ecd565b610c92565b600080fd5b6040516350dfbc4360e11b8152600490fd5b346102ba576020806003193601126102ba57600435906001600160401b038083116102ba57366023840112156102ba5782600401359081116102ba5760248160051b840101923684116102ba57610d67613b5f565b63ffffffff93844216906101405154918260a01c60020b9061ffff92838560b81c16936001600160801b03600454169560c81c1695610da588613bec565b97610db3604051998a6139c7565b88526024018888015b828210610f2b575050508415610f1957855197610df1610ddb8a613bec565b99610de96040519b8c6139c7565b808b52613bec565b8989019790601f19908101368a37815198610e24610e0e8b613bec565b9a610e1c6040519c8d6139c7565b808c52613bec565b8a8c019201368337610140515b8c8451821015610e8d57908b610e8182600194818f8f8f918f918f938f938f95610e6a95610e6289610e729961482b565b51169061445c565b92909661482b565b90878060a01b0316905261482b565b9060060b905201610e31565b8b90848e8560405194859460408601906040875251809152606086019290610140515b818110610eff575050508290858303828701525191828152019291610140515b828110610edf57505050500390f35b83516001600160a01b031685528695509381019392810192600101610ed0565b825160060b85528897509385019391850191600101610eb0565b604051636b93000360e11b8152600490fd5b81358b811681036102ba578152908901908901610dbc565b346102ba5760403660031901126102ba5760043560ff811690818103610cfb576024359160ff831690818403610cfb5761014051549160ff8360f01c1615610d00576101405160ff60f01b1984169055604051638da5cb5b60e01b81526001600160a01b03906020816004817f000000000000000000000000000000000000000000000000000000000000000086165afa9081156110e05761014051916110b2575b501633036102ba578115801561109b575b8061107c575b156102ba577f973d8d92bb299f4af6ce49b52a8adb85ae46b9f214c4c4fc06ac77401237b1339160809160405191600f8660e81c168352600f8660ec1c16602084015260408301526060820152a16101405161ffff60e81b1990911660049390931b60f01690910160e81b60ff60e81b1691909117600160f01b17815580f35b50801580610ffc575060048110158015610ffc5750600a811115610ffc565b5060048210158015610ff65750600a821115610ff6565b6110d3915060203d81116110d9575b6110cb81836139c7565b810190613dec565b87610fe5565b503d6110c1565b6040513d61014051823e3d90fd5b346102ba5761014051806003193601126103805760206040516001600160801b037f0000000000000000000000000000000000000000000000000000000000000000168152f35b346102ba5760203660031901126102ba576004358060010b8091036102ba576101405152600660205260206040610140512054604051908152f35b346102ba5760203660031901126102ba576004356101405152600760205260a0604061014051206001600160801b039081815416916001820154916003600282015491015492604051948552602085015260408401528116606083015260801c6080820152f35b346102ba5760a03660031901126102ba576111f06138bf565b6111f8613902565b611200613912565b91611209613932565b91608435916001600160801b039485841695868503610cfb5761014051549460ff8660f01c1615610d00576101405160ff60f01b199687169055600361125084873361483f565b0191825498818a1692610140519984848216116000146113b4575083995b8b60801c92839150116000146113ac5750985b81898181169485611368575b5050905089169283611311575b50506040519360018060a01b031684526020840152604083015260020b9160020b907f70935338e69775456a85ddef226c395fb668b63fa0115f5f20610b388e6ca9c060603392a461014051805491909116600160f01b179055604080516001600160801b03928316815292909116602083015290f35b611336918a825460801c03166001600160801b0382549181199060801b169116179055565b61136182857f0000000000000000000000000000000000000000000000000000000000000000615545565b888061129a565b0316906001600160801b0319161783556113a382867f0000000000000000000000000000000000000000000000000000000000000000615545565b8981898261128d565b905098611281565b9961126e565b346102ba5760803660031901126102ba576113d36138bf565b602435604435916064356001600160401b0381116102ba576113f99036906004016138d5565b61014051549460ff8660f01c1615610d00576101405160ff60f01b199687169055611422613b5f565b6001600160801b03806004541680156116e35762ffffff7f00000000000000000000000000000000000000000000000000000000000000001694611470611469878a614142565b9685614142565b95611479613c98565b95611482613d1e565b928a6116b3575b86611683575b333b156102ba576114bb9160405180938192630e9cbafb60e41b835261014051948d8860048601613c03565b038161014051335af180156110e05761166d575b506114d8613c98565b96876114ec6114e5613d1e565b9389613c36565b1161165b576114fc829184613c36565b11611649578587039582820397036115e0575b0361156f575b505060405194855260208501526040840152606083015260018060a01b0316907fbdbdb71d7860376ba52b25a5028beea23581364a40522f6bcfb86bb1f2dca63360803392a3610140518054909116600160f01b17815580f35b610140515461159e929060ec1c600f16806115d0575061014051905b80821690816115ac575b50508503613e82565b600254016002558680611515565b600354916001600160801b0319908360801c0160801b169116176003558980611595565b6115da9087613dcc565b9061158b565b610140515460e81c600f1683816116375761160c9150610140515b86811680611618575b508803613e82565b6001540160015561150f565b87600354918183160116906001600160801b031916176003558d611604565b61164461160c9289613dcc565b6115fb565b60405163e90c349360e01b8152600490fd5b60405163f704e89960e01b8152600490fd5b61167690613948565b6101405180156114cf5780fd5b6116ae878b7f0000000000000000000000000000000000000000000000000000000000000000615545565b61148f565b6116de8b8b7f0000000000000000000000000000000000000000000000000000000000000000615545565b611489565b604051639f13f76d60e01b8152600490fd5b346102ba576101405180600319360112610380576020600254604051908152f35b346102ba5760a03660031901126102ba5761172f6138bf565b611737613902565b90611740613912565b91611749613932565b906084356001600160401b0381116102ba576117699036906004016138d5565b93909261014051549360ff8560f01c1615610d00576101405160ff60f01b19861681556001600160801b0383161561038057506001600160801b038216600f81900b03610cfb57604051956117bd87613976565b6001600160a01b0384168752600285810b602089015288900b60408801526001600160801b038316600f0b60608801526117f5613b5f565b6101405196879661180c8a60020b8860020b613b91565b6118146139e8565b9060018060a01b0383511690602084015160020b604085015160020b9260608601516118498584602089015160020b9461483f565b9160015492600254610140519488869886600f0b611e5f575b505061187b8760020b6000526005602052604060002090565b916118938a60020b6000526005602052604060002090565b61014051958b908a8112611e4b5760026001870154960154975b501215611e375760026001820154910154935b604051936118cd85613991565b86546001600160801b038116865260018801546020870152600288015460408701526003880154966001600160801b03881660608801528760801c6080880152868b6101405181600f0b15600014611de7575050516001600160801b031615610b2f5761196e876001600160801b0392838251169c5b60408561195f81602087015196511680968d8d8d030303613f0c565b169b0151990303978803613f0c565b16988a600f0b611dc9575b50500303600185015560028401558015801590611dc0575b611d83575b505050506101405190600f0b12611d10575b505050506060820151600f0b611b3e575b50506101405180918815159182611b30575b8815159485611b20575b333b156102ba578a908a611a02604051958693849363d348799760e01b8552610140519660048601613c03565b038161014051335af19182156110e0578a92611b04575b5082611aea575b5050611ad857859082611abe575b5050611aac577f7a53080ba414158be7ec69b987b5fb7d07dee101fe85488f0853ae16239d0bde60806040976001600160801b03895194338652166020850152878985015286606085015260020b9460020b9360018060a01b031692a461014051805460ff60f01b1916600160f01b17905582519182526020820152f35b604051631072b39760e11b8152600490fd5b611ac89250613c36565b611ad0613d1e565b108488611a2e565b60405163748800af60e01b8152600490fd5b611af49250613c36565b611afc613c98565b10878a611a20565b611b0f919250613948565b610140518061038057908991611a19565b9350611b2a613d1e565b936119d5565b50611b39613c98565b6119cb565b909197602082015160020b602084015160020b90818112600014611b9c575050505080611b746020611b9393015160020b614f20565b906060611b87604083015160020b614f20565b910151600f0b9161489e565b955b88806119b9565b90919298506040849a94015160020b13600014611cd95750506001600160801b03806004541697611bf761ffff898b8260408301511692602083015160020b90608081606086015116940151169363ffffffff4216906141de565b61014051805463ffffffff60b81b191660c89290921b61ffff60c81b169190911760b89290921b61ffff60b81b1691909117905587516040820151611c5a916001600160a01b031690611c4c9060020b614f20565b6060840151600f0b9161489e565b98611c8b611c6e602084015160020b614f20565b995160608401519a600f8c900b916001600160a01b031690614a2b565b986101405181600f0b12600014611cc757506109eb6060611cb0930151600f0b613d92565b166001600160801b03196004541617600455611b95565b611cd49250831690613d77565b611cb0565b611d0a929750611ceb90989198614f20565b906060611cfe604083015160020b614f20565b910151600f0b91614a2b565b94611b95565b611d53575b50611d23575b8080806119a8565b611d4d9060009060020b815260056020526003604082208281558260018201558260028201550155565b8a611d1b565b611d7d9060009060020b815260056020526003604082208281558260018201558260028201550155565b8c611d15565b6001600160801b0380831691909101166001600160801b03199182168117608090811c9490940190931b169091176003909101558f808080611996565b50831515611991565b6001600160801b0316906001600160801b0319161787553880611979565b6001600160801b039361196e93929091600f82900b1215611e2457611e1e90611e168685511691600f0b613d92565b861690613db3565b9c611943565b611e32908516858716613d77565b611e1e565b6002600182015484039101548203936118c0565b6002600187015486039601548403976118ad565b611ea0919950611f1a97506001600160801b0360045416906bff00ffffffffffffffffffff61ffff8260b81c169160a01c1660020b63ffffffff4216614401565b611ee08988848488889d979d7f0000000000000000000000000000000000000000000000000000000000000000958d63ffffffff421696600f0b91614bd9565b998a987f000000000000000000000000000000000000000000000000000000000000000092868663ffffffff4216948b8d600f0b91614d7a565b8098611f5c575b611f2d575b8838611862565b611f577f00000000000000000000000000000000000000000000000000000000000000008a614ecd565b611f26565b611f867f000000000000000000000000000000000000000000000000000000000000000089614ecd565b611f21565b346102ba5761014051806003193601126103805760e0905460ff6040519160018060a01b03811683528060a01c60020b602084015261ffff808260b81c166040850152808260c81c1660608501528160d81c166080840152818160e81c1660a084015260f01c16151560c0820152f35b346102ba5760203660031901126102ba5760043561ffff80821682036102ba57610140515460ff8160f01c1615610d00576101405160ff60f01b1982169055612053908290612048613b5f565b60d81c169283614398565b90811691610140515492808203612090575b50506101405163ff00ffff60d81b1990921660d89190911b61ffff60d81b1617600160f01b17815580f35b7fac49e518f90a358f652e4400164f05a5d8f7e35e7747279bc3a93dbf584e125a9160409182519182526020820152a18280612065565b346102ba5760203660031901126102ba5760043561ffff8110156102ba57608090600801546040519063ffffffff811682528060201c60060b602083015260018060a01b038160581c16604083015260f81c15156060820152f35b346102ba576101405180600319360112610380576040517f00000000000000000000000000000000000000000000000000000000000000006001600160a01b03168152602090f35b346102ba57610140518060031936011261038057600354604080516001600160801b038316815260809290921c602083015290f35b346102ba5761014051806003193601126103805760206001600160801b0360045416604051908152f35b346102ba5760a03660031901126102ba576121e26138bf565b6024351515602435036102ba576064356001600160a01b03811690036102ba576084356001600160401b0381116102ba576122219036906004016138d5565b919061222b613b5f565b7f00000000000000000000000000000000000000000000000000000000000000006001600160a01b03163b156102ba5760405163794358cf60e11b815261014080513060048401526001600160a01b0385811660248501529151909183916044918391907f0000000000000000000000000000000000000000000000000000000000000000165af180156110e05761386e575b506044351561385d576122cf6139e8565b9060c082015115610d00576024351561381b5781516001600160a01b039081166064359091161080613802575b156137d75761014051805460ff60f01b191690556004546001600160801b031693602435156137c657600f60a084015116935b604051948560c08101106001600160401b0360c0880111176137b05760ff9060c0870160405216855285602086015263ffffffff421660408601526101405160608601526101405160808601526101405160a086015260018060a01b0384511695602085015161014051506024356000146137a757600154905b604051986123b68a61395b565b6044358a526101405160208b015260408a015260020b606089015260808801526101405160a088015260c08701525b855115158061378a575b156130b2576040516124008161395b565b6101405181526101405160208201526101405160408201526101405160608201526101405160808201526101405160a08201526101405160c082015260018060a01b036040880151168152606087015160020b61014051506124827f000000000000000000000000000000000000000000000000000000000000000082614ebb565b90610140518112908161307b575b5061306f575b60243515612ea4576124b88160020b906101008260081d60010b920760ff1690565b906124de600160ff84161b600019908001019160010b6000526006602052604060002090565b54169182151592610140519084600014612e6c5780828115610380575060ff929190600160801b811015612e5d575b5080680100000000000000006002921015612e4f575b640100000000811015612e41575b62010000811015612e33575b610100811015612e25575b6010811015612e17575b6004811015612e0a575b1015612e00575b7f000000000000000000000000000000000000000000000000000000000000000093031660020b900360020b0260020b5b905b1515604083015260020b60208201819052620d89e7199081811215612de1575060208201525b60208101516001600160a01b03906125d69060020b614f20565b1680606083015260018060a01b036040890151169061014051602435600014612dcd576064356001600160a01b03168210905b5015612dc75750606435905b60c0890151895160405163f56681bf60e01b81526001600160a01b037f0000000000000000000000000000000000000000000000000000000000000000811660048301527f00000000000000000000000000000000000000000000000000000000000000001660248201526001600160801b0392909216929190602082806044810103817f00000000000000000000000000000000000000000000000000000000000000006001600160a01b03165afa9182156110e0576101405192612d87575b5061014051918280808412612caf5750506126fb62ffffff82620f4240031683613e0b565b926001600160a01b0387168510612c9e576127178686896149d6565b935b848110612c1f575086955b6001600160a01b0387811698169586891495878210612bb9578680612bac575b15612b9b575b97889680612b8f575b15612b80575050505b935b61014051808412908180612b75575b612b6a575b50159081612b5f575b5015612b3f5750035b60c085015260a084015260808301526040880152610140518060443513600014612add5750608081015160c082015101600160ff1b8110156102ba57875103875260a0810151600160ff1b8110156102ba576020880151610140518083128284810312811690838581031390151617612ac557500360208801525b6001600160801b038060c08301516101405160c0850152168160a08a015116011660a08801526001600160801b0360c08801511680612aa6575b50604087015160608201516001600160a01b0391821691168103612a7757506040810151612893575b6024351561288757602060001991015160020b0160020b5b60020b60608701526123e5565b6020015160020b61287a565b60a086015115612a21575b6001600160801b03602082015160020b6129a86101405191602435600014612a185760808b0151925b5060243515612a085763ffffffff600254915b818c60018060a01b036080820151169461290d8360406060850151940151169460020b6000526005602052604060002090565b6001810180549099039098556002880180549091039055600387018054600160381b600160d81b03198116603891821c6001600160a01b0316909703901b600160381b600160d81b031695909517855584549060069082820b910b0366ffffffffffffff169066ffffffffffffff19161780855560d81c1690031681549063ffffffff60d81b9060d81b169063ffffffff60d81b1916179055565b5460801d6024356129fb575b6101405181600f0b126000146129e3576129d8906109eb8360c08c01511691613d92565b1660c0880152612862565b60c08901516129f6918316908316613d77565b6129d8565b6101405103600f0b6129b4565b63ffffffff60808c0151916128da565b600154926128c7565b612a5563ffffffff604088015116602087015160020b61ffff604089015116906001600160801b0360208b01511692614401565b6001600160a01b0316608088015260060b6060870152600160a087015261289e565b90516001600160a01b03168103612a8f575b506123e5565b612a9890615291565b60020b606087015286612a89565b612ab49060c0830151613e82565b608088015101608088015287612839565b634e487b7160e01b9052601160045261014051602490fd5b60a082015190600160ff1b82101561038057508751018752612b08608082015160c083015190613c36565b600160ff1b8110156102ba57602088015181808201126101405190818312908015821691151617612ac557500160208801526127ff565b9050612b5a915062ffffff8082620f4240031691168461416c565b612784565b90508614158e61277b565b84900395508f612772565b50848103871161276d565b612b8a9350614a79565b61275c565b50610140518612612753565b50612ba782828a6149d6565b61274a565b5061014051861215612744565b9086989187612c11575b610140519715612c00575b98899781612bf6575b5015612be7575050505b9361275e565b612bf1935061498d565b612be1565b8088129150612bd7565b50612c0c838383614aab565b612bce565b610140518712159750612bc3565b85156102ba5786156102ba576001600160a01b0388168610612c4c57612c46908787614b66565b95612724565b612c7190876001600160a01b038211612c9057612c6b9160601b613dcc565b86613c36565b6001600160a01b038116819003610cfb576001600160a01b0316612c46565b612c9991613fa2565b612c6b565b612ca9868887614aab565b93612719565b5092506001600160a01b0386168410612d7757612ccd858588614a79565b610140518381038211612ce257508695612724565b851561038057861561038057836001600160a01b0389168710612d66575050610140518390036001600160a01b038111612d3c5760601b8680820615159104015b80861115610cfb5785036001600160a01b031695612724565b86612d478183613fa2565b91600160601b900915612d2357600019811015610cfb57600101612d23565b612d7291038787614afd565b612c46565b612d8285878661498d565b612ccd565b9091506020813d602011612dbf575b81612da3602093836139c7565b810103126102ba575162ffffff811681036102ba57908c6126d6565b3d9150612d96565b90612615565b6064356001600160a01b0316821190612609565b9050620d89e8809113612df5575b506125bc565b602082015287612def565b6001018116612563565b918101831691811c61255c565b60049283018416921c612552565b60089283018416921c612548565b60109283018416921c61253d565b60209283018416921c612531565b60409283018416921c612523565b60809250821c9050600261250d565b505060ff7f0000000000000000000000000000000000000000000000000000000000000000921660020b900360020b0260020b612594565b612ec46001820160020b60020b906101008260081d60010b920760ff1690565b9190612ee9600019600160ff86161b01199160010b6000526006602052604060002090565b5416908115159261014051928460001461302e5780938115610380575060ff906001600160801b03811615613024575050607f5b6001600160401b0384161561301a57603f190160ff165b63ffffffff84161561301057601f190160ff165b61ffff84161561300657600f190160ff165b60ff841615612ffc576007190160ff165b600f841615612ff2576003190160ff165b6003841615612fe6576001190160ff16926001905b16612fd7575b60ff6001917f000000000000000000000000000000000000000000000000000000000000000094031660020b910160020b0160020b0260020b5b90612596565b60001990920160ff1691612f97565b9260019060021c612f91565b9260041c92612f7c565b9260081c92612f6b565b9260101c92612f5a565b9260201c92612f48565b9260401c92612f34565b60801c9350612f1d565b509150600160ff7f00000000000000000000000000000000000000000000000000000000000000009381031660020b910160020b0160020b0260020b612fd1565b6000190160020b612496565b6130a791507f000000000000000000000000000000000000000000000000000000000000000090614ea9565b60020b151589612490565b85906001600160801b0360208787606086015160020b8382015160020b8091141560001461375c5761310e9161ffff806040830151169263ffffffff6040870151168888880151169260808160608701511695015116946141de565b9060018060a01b0360408801511690606088015190610140519384549061ffff60c81b9060c81b169064ffffffffff60d81b16179061ffff60b81b9060b81b16179062ffffff60a01b9060a01b16171790555b0151166001600160801b0360c084015116809103613745575b50602435156136ff5760808201516001556001600160801b0360a083015116806136d9575b505b610140519384604435136024351515146000146136c757825160443503936020840151955b602435156135f9575061014051868181126135c6575b50506131e6613c98565b91333b156102ba57613213916040518093819263fa461e3360e01b835261014051948b8b60048601613c03565b038161014051335af19081156110e05785916135ac575b5061323491613c36565b61323c613c98565b1061359a575b60018060a01b036040830151169160606001600160801b0360c08301511691015160020b906040519385855286602086015260408501526060840152608083015260018060a01b0316907fc42079f94a6350d7e6235f29174924f928cc2ac818eb64fed8004e115fbcca6760a03392a3610140515460ff8160f01c1615610d00576101405160ff60f01b1990911690556003546001600160801b0381169290608081901c908490816134d0575b5050806133e2575b604051630ec0f7cf60e41b8152936020856004817f00000000000000000000000000000000000000000000000000000000000000006001600160a01b03165afa80156110e05761339f7f596b573906218d3411850b26a6b437d6c4522fdb43d2d2386263f86d50b8b1519160409761014051916133c3575b5087516001600160801b0394851681529490931660208501526001600160a01b0390921692339281906040820190565b0390a361014051805460ff60f01b1916600160f01b17905582519182526020820152f35b6133dc915060203d6020116110d9576110cb81836139c7565b8861336f565b6003548060801c8083146134bb575b6001600160801b03919091169082900360801b6001600160801b03191617600355604051630ec0f7cf60e41b81526020816004817f00000000000000000000000000000000000000000000000000000000000000006001600160a01b03165afa80156110e05761349791610140519161349c575b506001600160801b038316907f0000000000000000000000000000000000000000000000000000000000000000615545565b6132f7565b6134b5915060203d6020116110d9576110cb81836139c7565b86613465565b6000199092016001600160801b0316916133f1565b6001600160801b0319166000199095016001600160801b03908116918290031694909417600355604051630ec0f7cf60e41b81526020816004817f00000000000000000000000000000000000000000000000000000000000000006001600160a01b03165afa9081156110e057613574918691610140519161357b575b507f0000000000000000000000000000000000000000000000000000000000000000615545565b84806132ef565b613594915060203d6020116110d9576110cb81836139c7565b8761354d565b604051635d05ca8f60e11b8152600490fd5b6135b69150613948565b610140518061038057849061322a565b6135f29103847f0000000000000000000000000000000000000000000000000000000000000000615545565b86866131dc565b85818112613694575b505061360c613d1e565b91333b156102ba57613639916040518093819263fa461e3360e01b835261014051948b8b60048601613c03565b038161014051335af19081156110e057869161367a575b5061365a91613c36565b613662613d1e565b101561324257604051635d05ca8f60e11b8152600490fd5b6136849150613948565b6101405180610380578590613650565b6136c09103847f0000000000000000000000000000000000000000000000000000000000000000615545565b8685613602565b602083015193835160443503956131c6565b6001600160801b03600354918183160116906001600160801b031916176003558461319f565b60808201516002556001600160801b0360a08301511680613721575b506131a1565b6001600160801b03600354918119908360801c0160801b169116176003558461371b565b6001600160801b031960045416176004558461317a565b505060408501516101405180546001600160a01b0319166001600160a01b0392909216919091179055613161565b5060408601516064356001600160a01b03908116911614156123ef565b600254906123a9565b634e487b7160e01b600052604160045260246000fd5b600f60a084015160041c169361232f565b60405162461bcd60e51b815260206004820152600360248201526214d41360ea1b6044820152606490fd5b506401000276a36064356001600160a01b0316116122fc565b81516001600160a01b039081166064359091161180156122fc575073fffd8963efd1fc6a506488495d951d5263988d266064356001600160a01b0316106122fc565b604051627ffe0360e31b8152600490fd5b61387790613948565b836122be565b34610cfb576000366003190112610cfb577f00000000000000000000000000000000000000000000000000000000000000006001600160a01b03168152602090f35b600435906001600160a01b0382168203610cfb57565b9181601f84011215610cfb578235916001600160401b038311610cfb5760208381860195010111610cfb57565b602435908160020b8203610cfb57565b604435908160020b8203610cfb57565b600435908160020b8203610cfb57565b606435906001600160801b0382168203610cfb57565b6001600160401b0381116137b057604052565b60e081019081106001600160401b038211176137b057604052565b608081019081106001600160401b038211176137b057604052565b60a081019081106001600160401b038211176137b057604052565b606081019081106001600160401b038211176137b057604052565b90601f801991011681019081106001600160401b038211176137b057604052565b604051906139f58261395b565b8160c060ff60005460018060a01b03811684528060a01c60020b602085015261ffff808260b81c166040860152808260c81c1660608601528160d81c166080850152818160e81c1660a085015260f01c161515910152565b919091613a5a8382613b91565b60020b906000928284526005602052604084209060020b928385526003604086209201549360069585870b9660018060a01b0392838860381c169863ffffffff96878a60d81c169960f81c15613b5b57600301549586840b92868860381c1695898960d81c169860f81c156103805750613ad26139e8565b90602082015160020b928312600014613af45750505003900b96031693031690565b829b979695939c949212600014613b47579185949391899796938842169c60408e92015161ffff166004546001600160801b031691613b3293614401565b9d9003820b03900b9a03160316950316031690565b509990990390980b97900316945090031690565b8480fd5b7f00000000000000000000000000000000000000000000000000000000000000006001600160a01b03163003610cfb57565b9060020b9060020b81811215613bda57620d89e71913613bc857620d89e812613bb657565b60405163d7b54ab160e01b8152600490fd5b60405163135ac25d60e31b8152600490fd5b604051632fe0284f60e01b8152600490fd5b6001600160401b0381116137b05760051b60200190565b928492608095928552602085015260606040850152816060850152848401376000828201840152601f01601f1916010190565b91908201809211613c4357565b634e487b7160e01b600052601160045260246000fd5b3d15613c93573d906001600160401b0382116137b05760405191613c87601f8201601f1916602001846139c7565b82523d6000602084013e565b606090565b60405160208101906370a0823160e01b825230602482015260248152613cbd816139ac565b60008092819251907f00000000000000000000000000000000000000000000000000000000000000005afa90613cf1613c59565b9180613d12575b156103805760208280518101031261038057506020015190565b50602082511015613cf8565b60405160208101906370a0823160e01b825230602482015260248152613d43816139ac565b60008092819251907f00000000000000000000000000000000000000000000000000000000000000005afa90613cf1613c59565b9190916001600160801b0380809416911601918211613c4357565b600f0b6f7fffffffffffffffffffffffffffffff198114613c435760000390565b6001600160801b039182169082160391908211613c4357565b8115613dd6570490565b634e487b7160e01b600052601260045260246000fd5b90816020910312610cfb57516001600160a01b0381168103610cfb5790565b90919060001983820983820291828083109203948286039260009614613e7457620f42409183831115613e70577fde8f6cefed634549b62c77574f722e1ac57e23f24d8fd5cb790fb65668c261399596500990828211900360fa1b910360061c170290565b8680fd5b505050620f42409192500490565b90600160801b90600019828409928060801b92838086109503948086039514613efe5784831115610cfb5782910981806000031680920460028082600302188083028203028083028203028083028203028083028203028083028203028092029003029360018380600003040190848311900302920304170290565b505080925015610cfb570490565b6000198282099082810292838084109303918383039360009314613f4c57600160801b928484111561038057500990828211900360801b910360801c1790565b505090505060801c90565b6000198282099082810292838084109303918383039360009314613f9757600160601b928484111561038057500990828211900360a01b910360601c1790565b505090505060601c90565b90600160601b90600019828409928060601b92838086109503948086039514613efe5784831115610cfb5782910981806000031680920460028082600302188083028203028083028203028083028203028083028203028083028203028092029003029360018380600003040190848311900302920304170290565b906000198183098183029182808310920391808303921461407c57620f42409082821115610cfb577fde8f6cefed634549b62c77574f722e1ac57e23f24d8fd5cb790fb65668c26139940990828211900360fa1b910360061c170290565b5050620f424091500490565b60001982820990828102928380841093039280840393146140c457600160601b9183831115610cfb570990828211900360a01b910360601c1790565b50505060601c90565b916000198284099282810292838086109503948086039514613efe5784831115610cfb5782910981806000031680920460028082600302188083028203028083028203028083028203028083028203028083028203028092029003029360018380600003040190848311900302920304170290565b9190620f424090614153818561401e565b930961415b57565b90600019811015610cfb5760010190565b92919061417a8282866140cd565b938215613dd6570961415b57565b9060405161419581613976565b915463ffffffff81168352602081811c60060b90840152605881901c6001600160a01b0316604084015260f81c15156060830152565b9061ffff809116918215613dd657160690565b949195939592909261ffff9384871015614297576141fe87600801614188565b9663ffffffff9485895116868416146142c857614245949392918761423f928c8260019d9e1683831611806142b7575b156142ad57509a8b925b01166141cb565b986142f8565b918510156142975781511690602081015160201b916affffffffffffff00000000600160581b600160f81b03604084015160581b1692606060ff60f81b910151151560f81b1693161717178360080155565b634e487b7160e01b600052603260045260246000fd5b90509a8b92614238565b50838316600019820184161461422e565b509796505050505050565b604051906142e082613976565b60006060838281528260208201528260408201520152565b6040929391936143066142d3565b508151602083015194909201516001600160a01b03949085169363ffffffff938416870392906001600160801b039081811615614390575b16938415613dd65780604051986143548a613976565b168852831660060b9060020b0260060b9060060b0160060b602086015263ffffffff60801b9060801b1604011660408201526001606082015290565b50600161433e565b61ffff90818116908115610f1957828416918211156143fa575b81838216106143c15750505090565b828110156143e55760018184926008018263ffffffff1982541617905501166143b2565b60246000634e487b7160e01b81526032600452fd5b9250505090565b93929161ffff8110156142975761441a90600801614188565b9363ffffffff8086511690821603614449575b505050602082015160060b91604060018060a01b039101511690565b61445393946142f8565b9038808061442d565b929594919593909363ffffffff96878087161561454b5785966144829603168096614591565b919093808551168083146000146144b05750505050602082015160060b91604060018060a01b039101511690565b8184969451168084146000146144de575050505050602082015160060b91604060018060a01b039101511690565b81839197949597031693031693602081015192600693840b92836020820151860b03850b9282860b928315613dd65760409182015192909101516001600160a01b039283169183916145399190831684900383168b02613dcc565b16011695840b910502820b01900b9190565b5093925090935061ffff8110156142975761456890600801614188565b94808651169082160361444957505050602082015160060b91604060018060a01b039101511690565b949592919390936145a06142d3565b506145a96142d3565b9161ffff841015614297576145c084600801614188565b9163ffffffff8351166145d488828b6147a8565b614779575050505050600161ffff9101166145ef85826141cb565b61ffff8110156142975761460590600801614188565b8360608201511561472c575b63ffffffff614622925116866147a8565b1561471a576146468561ffff926146376142d3565b506146406142d3565b506141cb565b1661ffff85168101600019015b80820160011c9061466861ffff881683614821565b61ffff8110156142975761467e90600801614188565b60608101511561470f5761469961ffff891660018501614821565b61ffff811015614297576146af90600801614188565b6146c18763ffffffff8451168a6147a8565b9182806146f7575b6146ea5750506146e0575060001901905b90614653565b91506001016146da565b9850965093945050505050565b5061470a63ffffffff835116898b6147a8565b6146c9565b5091506001016146da565b6040516327e8e87560e01b8152600490fd5b614622915063ffffffff60405161474281613976565b60085482811682528060201c60060b602083015260018060a01b038160581c16604083015260f81c15156060820152925050614611565b9296939850935093955063ffffffff821614600014614799575050509190565b836147a59496506142f8565b90565b63ffffffff808092169216828111801580614815575b61480a57156147f657925b16908111156147e3575b64ffffffffff8091169116111590565b6401000000000164ffffffffff166147d3565b6401000000000164ffffffffff16926147c9565b509290915016101590565b508383861611156147be565b8115613dd6570690565b80518210156142975760209160051b010190565b916040519160208301936bffffffffffffffffffffffff199060601b16845260e81b603483015260e81b6037820152601a8152604081018181106001600160401b038211176137b0576040525190206000526007602052604060002090565b919060008083600f0b1260001461491c57506001600160a01b039290808285821686821611614911575b5050838216928315610cfb576148ff946148fa938382169303169060000360601b600160601b600160e01b03166140cd565b613dcc565b600160ff1b811015610cfb5760000390565b9150915038806148c8565b92916001600160a01b03828482821683821611614981575b505080841693841561497d5761496393808316939190039091169060601b600160601b600160e01b031661416c565b81810491900615150190600160ff1b821015610380575090565b8580fd5b90945092503880614934565b6001600160a01b039291838116848316116149d0575b838216928315610cfb576147a5946148fa938382169303169060601b600160601b600160e01b03166140cd565b906149a3565b6001600160a01b039290919083821684841611614a23575b838316938415610cfb57614a17938382169303169060601b600160601b600160e01b031661416c565b90808206151591040190565b9190916149ee565b906000928381600f0b12600014614a53576148ff93506000036001600160801b031691614a79565b90614a6892916001600160801b031691614aab565b90600160ff1b821015610380575090565b6147a592916001600160801b03916001600160a01b039182811683831611614aa5575b03169116613f57565b90614a9c565b6001600160801b03916001600160a01b03919082811683831611614af7575b03169116614ad88282614088565b91600160601b9109614ae75790565b600019811015610cfb5760010190565b90614aca565b91908115614b61576001600160a01b039283168281029260609290921b600160601b600160e01b0316918190614b339085613dcc565b1480614b58575b15610cfb57614b4b9282039161416c565b908116908103610cfb5790565b50828211614b3a565b505090565b91908115614b61576001600160a01b039260609190911b600160601b600160e01b03169190831680820281614b9b8483613dcc565b14614bc1575b5090614bb0614bb59284613dcc565b613c36565b80820615159104011690565b8301838110614ba1579150614bd59261416c565b1690565b989795969194909860020b96600094888652600560205260408620986001600160801b03808b541690808a600f0b9a8a8c12600014614d6957614c1e614c2691613d92565b821684613db3565b169a168a11614d5757159b8c8a1514159c614c93575b505050505050506001600160801b03199183838654161760801d600f0b019060016001607f1b0319821260016001607f1b03831317614c7f575060801b16179055565b634e487b7160e01b81526011600452602490fd5b60020b1215614cc5575b505050506003850180546001600160f81b0316600160f81b1790555038808080808080614c3c565b60018901949094556002880193909355600387018054600160381b600160d81b03191660389290921b600160381b600160d81b0316919091178155614d4d925b81547fff00000000ffffffffffffffffffffffffffffffffffffffff000000000000001666ffffffffffffff919091161760d89290921b63ffffffff60d81b16919091179055565b3880808080614c9d565b6040516368d2be8f60e01b8152600490fd5b614d7590821684613d77565b614c26565b989795969194909860020b96600094888652600560205260408620986001600160801b03808b541690808a600f0b9a8a8c12600014614e9857614c1e614dbf91613d92565b169a168a11614d5757159b8c8a1514159c614e18575b505050505050506001600160801b03199183838654161760801d600f0b039060016001607f1b03821360016001607f1b0319831217614c7f575060801b16179055565b60020b1215614e4a575b505050506003850180546001600160f81b0316600160f81b1790555038808080808080614dd5565b60018901949094556002880193909355600387018054600160381b600160d81b03191660389290921b600160381b600160d81b0316919091178155614e8e92614d05565b3880808080614e22565b614ea490821684613d77565b614dbf565b9060020b908115613dd65760020b0790565b9060020b908115613dd65760020b0590565b614ed78282614ea9565b60020b610cfb57614f0191614eeb91614ebb565b60020b906101008260081d60010b920760ff1690565b9060010b6000526006602052600160ff604060002092161b8154189055565b60020b600081121561528b5780600003905b620d89e88211615279576001821615615267576001600160881b036ffffcb933bd6fad37aa2d162d1a5940015b16916002811661524b575b6004811661522f575b60088116615213575b601081166151f7575b602081166151db575b604081166151bf575b6080908181166151a4575b6101008116615189575b610200811661516e575b6104008116615153575b6108008116615138575b611000811661511d575b6120008116615102575b61400081166150e7575b61800081166150cc575b6201000081166150b1575b620200008116615097575b62040000811661507d575b6208000016615062575b50600012615053575b63ffffffff811661504b576000905b60201c60ff91909116016001600160a01b031690565b600190615035565b8015613dd65760001904615026565b6b048a170391f7dc42444e8fa26000929302901c919061501d565b6d2216e584f5fa1ea926041bedfe98909302811c92615013565b926e5d6af8dedb81196699c329225ee60402811c92615008565b926f09aa508b5b7a84e1c677de54f3e99bc902811c92614ffd565b926f31be135f97d08fd981231505542fcfa602811c92614ff2565b926f70d869a156d2a1b890bb3df62baf32f702811c92614fe8565b926fa9f746462d870fdf8a65dc1f90e061e502811c92614fde565b926fd097f3bdfd2022b8845ad8f792aa582502811c92614fd4565b926fe7159475a2c29b7443b29c7fa6e889d902811c92614fca565b926ff3392b0822b70005940c7a398e4b70f302811c92614fc0565b926ff987a7253ac413176f2b074cf7815e5402811c92614fb6565b926ffcbe86c7900a88aedcffc83b479aa3a402811c92614fac565b926ffe5dee046a99a2a811c461f1969c305302811c92614fa2565b916fff2ea16466c96a3843ec78b326b528610260801c91614f97565b916fff973b41fa98c081472e6896dfb254c00260801c91614f8e565b916fffcb9843d60f6159c9db58835c9266440260801c91614f85565b916fffe5caca7e10e4e61c3624eaa0941cd00260801c91614f7c565b916ffff2e50f5f656932ef12357cf3c7fdcc0260801c91614f73565b916ffff97272373d413259a46990580e213a0260801c91614f6a565b6001600160881b03600160801b614f5f565b6040516315e4079d60e11b8152600490fd5b80614f32565b6001600160a01b03818116916401000276a383101580615528575b1561551657640100000000600160c01b039060201b16806001600160801b03811160071b9181831c926001600160401b03841160061b93841c9363ffffffff851160051b94851c9461ffff861160041b95861c60ff9687821160031b91821c92600f841160021b93841c94600160038711811b96871c11961717171717171791608083101560001461550a5750607e1982011c5b8002607f928392828493841c81841c1c800280851c81851c1c800280861c81861c1c800280871c81871c1c80029081881c82881c1c80029283891c84891c1c800294858a1c868a1c1c800296878b1c888b1c1c800298898c1c8a8c1c1c80029a8b8d1c8c821c1c8002809d1c8d821c1c8002809e81901c90821c1c80029e8f80911c911c1c800260cd1c6604000000000000169d60cc1c6608000000000000169c60cb1c6610000000000000169b60ca1c6620000000000000169a60c91c6640000000000000169960c81c6680000000000000169860c71c670100000000000000169760c61c670200000000000000169660c51c670400000000000000169560c41c670800000000000000169460c31c671000000000000000169360c21c672000000000000000169260c11c674000000000000000169160c01c6780000000000000001690607f190160401b1717171717171717171717171717693627a301d71055774c8502906f028f6481ab7f045a5af012a19d003aa919820160801d60020b916fdb2df09e81959a81455e260799a0632f0160801d60020b926000918484146000146154f057505050905090565b6154f985614f20565b16119050615505575090565b905090565b905081607f031b615340565b6040516324c070df60e11b8152600490fd5b5073fffd8963efd1fc6a506488495d951d5263988d2683106152ac565b60405163a9059cbb60e01b602082019081526001600160a01b0390931660248201526044808201949094529283529161557d81613976565b600092839283809351925af190615592613c59565b90826155b4575b5050156155a257565b604051638b98626560e01b8152600490fd5b90809250519182159283156155ce575b5050503880615599565b8192935090602091810103126155f5576020015190811515820361038057503880806155c4565b5080fdfea264697066735822122054bf1dcaee184c56c233ec2261f7aab9f4e70dae003abfffbec708c3d9e6cb2664736f6c63430008130033a26469706673582212201859eab06e3a5cb5677b89270603a034552059d2ca87d04b02c4f2b9dc73d58b64736f6c63430008130033",
  "devdoc": {
    "events": {
      "FeeAmountEnabled(uint24,int24)": {
        "params": {
          "fee": "The enabled fee, denominated in hundredths of a bip",
          "tickSpacing": "The minimum number of ticks between initialized ticks for pools created with the given fee"
        }
      },
      "OwnerChanged(address,address)": {
        "params": {
          "newOwner": "The owner after the owner was changed",
          "oldOwner": "The owner before the owner was changed"
        }
      },
      "PoolCreated(address,address,uint24,int24,address)": {
        "params": {
          "fee": "The fee collected upon every swap in the pool, denominated in hundredths of a bip",
          "pool": "The address of the created pool",
          "tickSpacing": "The minimum number of ticks between initialized ticks",
          "token0": "The first token of the pool by address sort order",
          "token1": "The second token of the pool by address sort order"
        }
      }
    },
    "kind": "dev",
    "methods": {
      "createPool(address,address,uint24)": {
        "details": "tokenA and tokenB may be passed in either order: token0/token1 or token1/token0. tickSpacing is retrieved from the fee. The call will revert if the pool already exists, the fee is invalid, or the token arguments are invalid.",
        "params": {
          "fee": "The desired fee for the pool",
          "tokenA": "One of the two tokens in the desired pool",
          "tokenB": "The other of the two tokens in the desired pool"
        },
        "returns": {
          "pool": "The address of the newly created pool"
        }
      },
      "enableFeeAmount(uint24,int24)": {
        "details": "Fee amounts may never be removed once enabled",
        "params": {
          "fee": "The fee amount to enable, denominated in hundredths of a bip (i.e. 1e-6)",
          "tickSpacing": "The spacing between ticks to be enforced for all pools created with the given fee amount"
        }
      },
      "setOwner(address)": {
        "details": "Must be called by the current owner",
        "params": {
          "_owner": "The new owner of the factory"
        }
      }
    },
    "stateVariables": {
      "feeAmountTickSpacing": {
        "details": "A fee amount can never be removed, so this value should be hard coded or cached in the calling context",
        "params": {
          "fee": "The enabled fee, denominated in hundredths of a bip. Returns 0 in case of unenabled fee"
        },
        "return": "The tick spacing",
        "returns": {
          "_0": "The tick spacing"
        }
      },
      "getPool": {
        "details": "tokenA and tokenB may be passed in either token0/token1 or token1/token0 order",
        "params": {
          "fee": "The fee collected upon every swap in the pool, denominated in hundredths of a bip",
          "tokenA": "The contract address of either token0 or token1",
          "tokenB": "The contract address of the other token"
        },
        "return": "The pool address",
        "returns": {
          "_0": "The pool address"
        }
      },
      "owner": {
        "details": "Can be changed by the current owner via setOwner",
        "return": "The address of the factory owner",
        "returns": {
          "_0": "The address of the factory owner"
        }
      }
    },
    "title": "Canonical Uniswap V3 factory",
    "version": 1
  },
  "userdoc": {
    "events": {
      "FeeAmountEnabled(uint24,int24)": {
        "notice": "Emitted when a new fee amount is enabled for pool creation via the factory"
      },
      "OwnerChanged(address,address)": {
        "notice": "Emitted when the owner of the factory is changed"
      },
      "PoolCreated(address,address,uint24,int24,address)": {
        "notice": "Emitted when a pool is created"
      }
    },
    "kind": "user",
    "methods": {
      "createPool(address,address,uint24)": {
        "notice": "Creates a pool for the given two tokens and fee"
      },
      "enableFeeAmount(uint24,int24)": {
        "notice": "Enables a fee amount with the given tickSpacing"
      },
      "feeAmountTickSpacing(uint24)": {
        "notice": "Returns the tick spacing for a given fee amount, if enabled, or 0 if not enabled"
      },
      "getPool(address,address,uint24)": {
        "notice": "Returns the pool address for a given pair of tokens and a fee, or address 0 if it does not exist"
      },
      "owner()": {
        "notice": "Returns the current owner of the factory"
      },
      "parameters()": {
        "notice": "Get the parameters to be used in constructing the pool, set transiently during pool creation."
      },
      "setOwner(address)": {
        "notice": "Updates the owner of the factory"
      }
    },
    "notice": "Deploys Uniswap V3 pools and manages ownership and control over pool protocol fees",
    "version": 1
  },
  "storageLayout": {
    "storage": [
      {
        "astId": 6113,
        "contract": "@kayen/uniswap-v3-core/contracts/UniswapV3Factory.sol:UniswapV3Factory",
        "label": "parameters",
        "offset": 0,
        "slot": "0",
        "type": "t_struct(Parameters)6108_storage"
      },
      {
        "astId": 3260,
        "contract": "@kayen/uniswap-v3-core/contracts/UniswapV3Factory.sol:UniswapV3Factory",
        "label": "owner",
        "offset": 0,
        "slot": "4",
        "type": "t_address"
      },
      {
        "astId": 3266,
        "contract": "@kayen/uniswap-v3-core/contracts/UniswapV3Factory.sol:UniswapV3Factory",
        "label": "feeAmountTickSpacing",
        "offset": 0,
        "slot": "5",
        "type": "t_mapping(t_uint24,t_int24)"
      },
      {
        "astId": 3276,
        "contract": "@kayen/uniswap-v3-core/contracts/UniswapV3Factory.sol:UniswapV3Factory",
        "label": "getPool",
        "offset": 0,
        "slot": "6",
        "type": "t_mapping(t_address,t_mapping(t_address,t_mapping(t_uint24,t_address)))"
      },
      {
        "astId": 3279,
        "contract": "@kayen/uniswap-v3-core/contracts/UniswapV3Factory.sol:UniswapV3Factory",
        "label": "config",
        "offset": 0,
        "slot": "7",
        "type": "t_contract(IPoolConfiguration)6263"
      }
    ],
    "types": {
      "t_address": {
        "encoding": "inplace",
        "label": "address",
        "numberOfBytes": "20"
      },
      "t_contract(IPoolConfiguration)6263": {
        "encoding": "inplace",
        "label": "contract IPoolConfiguration",
        "numberOfBytes": "20"
      },
      "t_int24": {
        "encoding": "inplace",
        "label": "int24",
        "numberOfBytes": "3"
      },
      "t_mapping(t_address,t_mapping(t_address,t_mapping(t_uint24,t_address)))": {
        "encoding": "mapping",
        "key": "t_address",
        "label": "mapping(address => mapping(address => mapping(uint24 => address)))",
        "numberOfBytes": "32",
        "value": "t_mapping(t_address,t_mapping(t_uint24,t_address))"
      },
      "t_mapping(t_address,t_mapping(t_uint24,t_address))": {
        "encoding": "mapping",
        "key": "t_address",
        "label": "mapping(address => mapping(uint24 => address))",
        "numberOfBytes": "32",
        "value": "t_mapping(t_uint24,t_address)"
      },
      "t_mapping(t_uint24,t_address)": {
        "encoding": "mapping",
        "key": "t_uint24",
        "label": "mapping(uint24 => address)",
        "numberOfBytes": "32",
        "value": "t_address"
      },
      "t_mapping(t_uint24,t_int24)": {
        "encoding": "mapping",
        "key": "t_uint24",
        "label": "mapping(uint24 => int24)",
        "numberOfBytes": "32",
        "value": "t_int24"
      },
      "t_struct(Parameters)6108_storage": {
        "encoding": "inplace",
        "label": "struct UniswapV3PoolDeployer.Parameters",
        "members": [
          {
            "astId": 6096,
            "contract": "@kayen/uniswap-v3-core/contracts/UniswapV3Factory.sol:UniswapV3Factory",
            "label": "factory",
            "offset": 0,
            "slot": "0",
            "type": "t_address"
          },
          {
            "astId": 6098,
            "contract": "@kayen/uniswap-v3-core/contracts/UniswapV3Factory.sol:UniswapV3Factory",
            "label": "token0",
            "offset": 0,
            "slot": "1",
            "type": "t_address"
          },
          {
            "astId": 6100,
            "contract": "@kayen/uniswap-v3-core/contracts/UniswapV3Factory.sol:UniswapV3Factory",
            "label": "token1",
            "offset": 0,
            "slot": "2",
            "type": "t_address"
          },
          {
            "astId": 6102,
            "contract": "@kayen/uniswap-v3-core/contracts/UniswapV3Factory.sol:UniswapV3Factory",
            "label": "fee",
            "offset": 20,
            "slot": "2",
            "type": "t_uint24"
          },
          {
            "astId": 6104,
            "contract": "@kayen/uniswap-v3-core/contracts/UniswapV3Factory.sol:UniswapV3Factory",
            "label": "tickSpacing",
            "offset": 23,
            "slot": "2",
            "type": "t_int24"
          },
          {
            "astId": 6107,
            "contract": "@kayen/uniswap-v3-core/contracts/UniswapV3Factory.sol:UniswapV3Factory",
            "label": "config",
            "offset": 0,
            "slot": "3",
            "type": "t_contract(IPoolConfiguration)6263"
          }
        ],
        "numberOfBytes": "128"
      },
      "t_uint24": {
        "encoding": "inplace",
        "label": "uint24",
        "numberOfBytes": "3"
      }
    }
  }
}