{
  "address": "0xa7E40Ae4FdE53d400D540a66cA7Be2FF334b4df7",
  "abi": [
    {
      "inputs": [
        {
          "internalType": "address",
          "name": "_feeVault",
          "type": "address"
        }
      ],
      "stateMutability": "nonpayable",
      "type": "constructor"
    },
    {
      "anonymous": false,
      "inputs": [
        {
          "indexed": false,
          "internalType": "uint24",
          "name": "fee",
          "type": "uint24"
        }
      ],
      "name": "DefaultDistributionFeeRateUpdated",
      "type": "event"
    },
    {
      "anonymous": false,
      "inputs": [
        {
          "indexed": false,
          "internalType": "address",
          "name": "distributor",
          "type": "address"
        }
      ],
      "name": "DefaultDistributorUpdated",
      "type": "event"
    },
    {
      "anonymous": false,
      "inputs": [
        {
          "indexed": false,
          "internalType": "uint24",
          "name": "fee",
          "type": "uint24"
        }
      ],
      "name": "DefaultTradeFeeUpdated",
      "type": "event"
    },
    {
      "anonymous": false,
      "inputs": [
        {
          "indexed": false,
          "internalType": "address",
          "name": "token",
          "type": "address"
        },
        {
          "indexed": false,
          "internalType": "uint24",
          "name": "fee",
          "type": "uint24"
        }
      ],
      "name": "DistributionFeeRateForTokenUpdated",
      "type": "event"
    },
    {
      "anonymous": false,
      "inputs": [
        {
          "indexed": false,
          "internalType": "address",
          "name": "vault",
          "type": "address"
        }
      ],
      "name": "FeeVaultUpdated",
      "type": "event"
    },
    {
      "anonymous": false,
      "inputs": [
        {
          "indexed": false,
          "internalType": "uint256",
          "name": "duration",
          "type": "uint256"
        }
      ],
      "name": "MaxPresaleDurationUpdated",
      "type": "event"
    },
    {
      "anonymous": false,
      "inputs": [
        {
          "indexed": false,
          "internalType": "uint24",
          "name": "rate",
          "type": "uint24"
        }
      ],
      "name": "MaxTreasuryRateUpdated",
      "type": "event"
    },
    {
      "anonymous": false,
      "inputs": [
        {
          "indexed": false,
          "internalType": "uint256",
          "name": "fee",
          "type": "uint256"
        }
      ],
      "name": "MintingFeeUpdated",
      "type": "event"
    },
    {
      "anonymous": false,
      "inputs": [
        {
          "indexed": true,
          "internalType": "address",
          "name": "previousOwner",
          "type": "address"
        },
        {
          "indexed": true,
          "internalType": "address",
          "name": "newOwner",
          "type": "address"
        }
      ],
      "name": "OwnershipTransferred",
      "type": "event"
    },
    {
      "anonymous": false,
      "inputs": [
        {
          "indexed": false,
          "internalType": "address",
          "name": "token",
          "type": "address"
        },
        {
          "indexed": false,
          "internalType": "uint24",
          "name": "fee",
          "type": "uint24"
        }
      ],
      "name": "TradeFeeForTokenUpdated",
      "type": "event"
    },
    {
      "inputs": [
        {
          "internalType": "address",
          "name": "distributor",
          "type": "address"
        }
      ],
      "name": "allowDistributor",
      "outputs": [],
      "stateMutability": "nonpayable",
      "type": "function"
    },
    {
      "inputs": [
        {
          "internalType": "address",
          "name": "token",
          "type": "address"
        }
      ],
      "name": "allowTokenForPayment",
      "outputs": [],
      "stateMutability": "nonpayable",
      "type": "function"
    },
    {
      "inputs": [
        {
          "internalType": "address",
          "name": "_whitelistedContract",
          "type": "address"
        }
      ],
      "name": "allowWhitelistedContract",
      "outputs": [],
      "stateMutability": "nonpayable",
      "type": "function"
    },
    {
      "inputs": [],
      "name": "defaultDistributionFeeRate",
      "outputs": [
        {
          "internalType": "uint24",
          "name": "",
          "type": "uint24"
        }
      ],
      "stateMutability": "view",
      "type": "function"
    },
    {
      "inputs": [],
      "name": "defaultDistributor",
      "outputs": [
        {
          "internalType": "address",
          "name": "",
          "type": "address"
        }
      ],
      "stateMutability": "view",
      "type": "function"
    },
    {
      "inputs": [],
      "name": "defaultTradeFee",
      "outputs": [
        {
          "internalType": "uint24",
          "name": "",
          "type": "uint24"
        }
      ],
      "stateMutability": "view",
      "type": "function"
    },
    {
      "inputs": [
        {
          "internalType": "address",
          "name": "distributor",
          "type": "address"
        }
      ],
      "name": "disallowDistributor",
      "outputs": [],
      "stateMutability": "nonpayable",
      "type": "function"
    },
    {
      "inputs": [
        {
          "internalType": "address",
          "name": "token",
          "type": "address"
        }
      ],
      "name": "disallowTokenForPayment",
      "outputs": [],
      "stateMutability": "nonpayable",
      "type": "function"
    },
    {
      "inputs": [
        {
          "internalType": "address",
          "name": "_whitelistedContract",
          "type": "address"
        }
      ],
      "name": "disallowWhitelistedContract",
      "outputs": [],
      "stateMutability": "nonpayable",
      "type": "function"
    },
    {
      "inputs": [
        {
          "internalType": "address",
          "name": "",
          "type": "address"
        }
      ],
      "name": "distributionFeeRate",
      "outputs": [
        {
          "internalType": "uint24",
          "name": "",
          "type": "uint24"
        }
      ],
      "stateMutability": "view",
      "type": "function"
    },
    {
      "inputs": [
        {
          "internalType": "address",
          "name": "",
          "type": "address"
        }
      ],
      "name": "distributorWhitelist",
      "outputs": [
        {
          "internalType": "bool",
          "name": "",
          "type": "bool"
        }
      ],
      "stateMutability": "view",
      "type": "function"
    },
    {
      "inputs": [
        {
          "internalType": "uint256",
          "name": "",
          "type": "uint256"
        }
      ],
      "name": "distributors",
      "outputs": [
        {
          "internalType": "contract IDistributor",
          "name": "",
          "type": "address"
        }
      ],
      "stateMutability": "view",
      "type": "function"
    },
    {
      "inputs": [],
      "name": "feeVault",
      "outputs": [
        {
          "internalType": "address",
          "name": "",
          "type": "address"
        }
      ],
      "stateMutability": "view",
      "type": "function"
    },
    {
      "inputs": [
        {
          "internalType": "address",
          "name": "token0",
          "type": "address"
        },
        {
          "internalType": "address",
          "name": "token1",
          "type": "address"
        }
      ],
      "name": "getDistributionFeeRate",
      "outputs": [
        {
          "internalType": "uint24",
          "name": "",
          "type": "uint24"
        }
      ],
      "stateMutability": "view",
      "type": "function"
    },
    {
      "inputs": [],
      "name": "getFeeVault",
      "outputs": [
        {
          "internalType": "address",
          "name": "",
          "type": "address"
        }
      ],
      "stateMutability": "view",
      "type": "function"
    },
    {
      "inputs": [],
      "name": "getMaxTreasuryRate",
      "outputs": [
        {
          "internalType": "uint24",
          "name": "",
          "type": "uint24"
        }
      ],
      "stateMutability": "view",
      "type": "function"
    },
    {
      "inputs": [
        {
          "internalType": "address",
          "name": "token0",
          "type": "address"
        },
        {
          "internalType": "address",
          "name": "token1",
          "type": "address"
        }
      ],
      "name": "getTradeFee",
      "outputs": [
        {
          "internalType": "uint24",
          "name": "",
          "type": "uint24"
        }
      ],
      "stateMutability": "view",
      "type": "function"
    },
    {
      "inputs": [],
      "name": "isAllPoolPaused",
      "outputs": [
        {
          "internalType": "bool",
          "name": "",
          "type": "bool"
        }
      ],
      "stateMutability": "view",
      "type": "function"
    },
    {
      "inputs": [
        {
          "internalType": "address",
          "name": "distributor",
          "type": "address"
        }
      ],
      "name": "isDistributorWhitelisted",
      "outputs": [
        {
          "internalType": "bool",
          "name": "",
          "type": "bool"
        }
      ],
      "stateMutability": "view",
      "type": "function"
    },
    {
      "inputs": [
        {
          "internalType": "address",
          "name": "pool",
          "type": "address"
        }
      ],
      "name": "isPaused",
      "outputs": [
        {
          "internalType": "bool",
          "name": "",
          "type": "bool"
        }
      ],
      "stateMutability": "view",
      "type": "function"
    },
    {
      "inputs": [],
      "name": "isPausedAll",
      "outputs": [
        {
          "internalType": "bool",
          "name": "",
          "type": "bool"
        }
      ],
      "stateMutability": "view",
      "type": "function"
    },
    {
      "inputs": [
        {
          "internalType": "address",
          "name": "",
          "type": "address"
        }
      ],
      "name": "isPoolPaused",
      "outputs": [
        {
          "internalType": "bool",
          "name": "",
          "type": "bool"
        }
      ],
      "stateMutability": "view",
      "type": "function"
    },
    {
      "inputs": [
        {
          "internalType": "address",
          "name": "target",
          "type": "address"
        }
      ],
      "name": "isTransferBlacklisted",
      "outputs": [
        {
          "internalType": "bool",
          "name": "",
          "type": "bool"
        }
      ],
      "stateMutability": "view",
      "type": "function"
    },
    {
      "inputs": [
        {
          "internalType": "address",
          "name": "_whitelistedContract",
          "type": "address"
        }
      ],
      "name": "isWhitelistedContract",
      "outputs": [
        {
          "internalType": "bool",
          "name": "",
          "type": "bool"
        }
      ],
      "stateMutability": "view",
      "type": "function"
    },
    {
      "inputs": [],
      "name": "maxPresaleDuration",
      "outputs": [
        {
          "internalType": "uint256",
          "name": "",
          "type": "uint256"
        }
      ],
      "stateMutability": "view",
      "type": "function"
    },
    {
      "inputs": [],
      "name": "maxTreasuryRate",
      "outputs": [
        {
          "internalType": "uint24",
          "name": "",
          "type": "uint24"
        }
      ],
      "stateMutability": "view",
      "type": "function"
    },
    {
      "inputs": [],
      "name": "mintingFee",
      "outputs": [
        {
          "internalType": "uint256",
          "name": "",
          "type": "uint256"
        }
      ],
      "stateMutability": "view",
      "type": "function"
    },
    {
      "inputs": [],
      "name": "owner",
      "outputs": [
        {
          "internalType": "address",
          "name": "",
          "type": "address"
        }
      ],
      "stateMutability": "view",
      "type": "function"
    },
    {
      "inputs": [
        {
          "internalType": "address",
          "name": "pool",
          "type": "address"
        }
      ],
      "name": "pause",
      "outputs": [],
      "stateMutability": "nonpayable",
      "type": "function"
    },
    {
      "inputs": [],
      "name": "pauseAll",
      "outputs": [],
      "stateMutability": "nonpayable",
      "type": "function"
    },
    {
      "inputs": [
        {
          "internalType": "address",
          "name": "",
          "type": "address"
        }
      ],
      "name": "paymentTokenWhitelist",
      "outputs": [
        {
          "internalType": "bool",
          "name": "",
          "type": "bool"
        }
      ],
      "stateMutability": "view",
      "type": "function"
    },
    {
      "inputs": [
        {
          "internalType": "address",
          "name": "",
          "type": "address"
        }
      ],
      "name": "presaleMakers",
      "outputs": [
        {
          "internalType": "bool",
          "name": "",
          "type": "bool"
        }
      ],
      "stateMutability": "view",
      "type": "function"
    },
    {
      "inputs": [
        {
          "internalType": "address",
          "name": "token1",
          "type": "address"
        },
        {
          "internalType": "address",
          "name": "token2",
          "type": "address"
        }
      ],
      "name": "putComputedTransferBlacklist",
      "outputs": [],
      "stateMutability": "nonpayable",
      "type": "function"
    },
    {
      "inputs": [
        {
          "internalType": "uint24",
          "name": "feeRate",
          "type": "uint24"
        }
      ],
      "name": "putDefaultDistributionFeeRate",
      "outputs": [],
      "stateMutability": "nonpayable",
      "type": "function"
    },
    {
      "inputs": [
        {
          "internalType": "address",
          "name": "distributor",
          "type": "address"
        }
      ],
      "name": "putDefaultDistributor",
      "outputs": [],
      "stateMutability": "nonpayable",
      "type": "function"
    },
    {
      "inputs": [
        {
          "internalType": "uint24",
          "name": "_tradeFee",
          "type": "uint24"
        }
      ],
      "name": "putDefaultTradeFee",
      "outputs": [],
      "stateMutability": "nonpayable",
      "type": "function"
    },
    {
      "inputs": [
        {
          "internalType": "address",
          "name": "token",
          "type": "address"
        },
        {
          "internalType": "uint24",
          "name": "feeRate",
          "type": "uint24"
        }
      ],
      "name": "putDistributionFeeRateForToken",
      "outputs": [],
      "stateMutability": "nonpayable",
      "type": "function"
    },
    {
      "inputs": [
        {
          "internalType": "address",
          "name": "vault",
          "type": "address"
        }
      ],
      "name": "putFeeVault",
      "outputs": [],
      "stateMutability": "nonpayable",
      "type": "function"
    },
    {
      "inputs": [
        {
          "internalType": "uint256",
          "name": "duration",
          "type": "uint256"
        }
      ],
      "name": "putMaxPresaleDuration",
      "outputs": [],
      "stateMutability": "nonpayable",
      "type": "function"
    },
    {
      "inputs": [
        {
          "internalType": "uint24",
          "name": "rate",
          "type": "uint24"
        }
      ],
      "name": "putMaxTreasuryRate",
      "outputs": [],
      "stateMutability": "nonpayable",
      "type": "function"
    },
    {
      "inputs": [
        {
          "internalType": "uint256",
          "name": "fee",
          "type": "uint256"
        }
      ],
      "name": "putMintingFee",
      "outputs": [],
      "stateMutability": "nonpayable",
      "type": "function"
    },
    {
      "inputs": [
        {
          "internalType": "address",
          "name": "presaleMaker",
          "type": "address"
        }
      ],
      "name": "putPresaleMaker",
      "outputs": [],
      "stateMutability": "nonpayable",
      "type": "function"
    },
    {
      "inputs": [
        {
          "internalType": "address",
          "name": "token",
          "type": "address"
        },
        {
          "internalType": "uint24",
          "name": "_tradeFee",
          "type": "uint24"
        }
      ],
      "name": "putTradeFeeForToken",
      "outputs": [],
      "stateMutability": "nonpayable",
      "type": "function"
    },
    {
      "inputs": [
        {
          "internalType": "address",
          "name": "target",
          "type": "address"
        }
      ],
      "name": "putTransferBlacklist",
      "outputs": [],
      "stateMutability": "nonpayable",
      "type": "function"
    },
    {
      "inputs": [
        {
          "internalType": "address",
          "name": "presaleMaker",
          "type": "address"
        }
      ],
      "name": "removePresaleMaker",
      "outputs": [],
      "stateMutability": "nonpayable",
      "type": "function"
    },
    {
      "inputs": [
        {
          "internalType": "address",
          "name": "target",
          "type": "address"
        }
      ],
      "name": "removeTransferBlacklist",
      "outputs": [],
      "stateMutability": "nonpayable",
      "type": "function"
    },
    {
      "inputs": [],
      "name": "renounceOwnership",
      "outputs": [],
      "stateMutability": "nonpayable",
      "type": "function"
    },
    {
      "inputs": [
        {
          "internalType": "address",
          "name": "",
          "type": "address"
        }
      ],
      "name": "tradeFee",
      "outputs": [
        {
          "internalType": "uint24",
          "name": "",
          "type": "uint24"
        }
      ],
      "stateMutability": "view",
      "type": "function"
    },
    {
      "inputs": [
        {
          "internalType": "address",
          "name": "",
          "type": "address"
        }
      ],
      "name": "transferBlacklist",
      "outputs": [
        {
          "internalType": "bool",
          "name": "",
          "type": "bool"
        }
      ],
      "stateMutability": "view",
      "type": "function"
    },
    {
      "inputs": [
        {
          "internalType": "address",
          "name": "newOwner",
          "type": "address"
        }
      ],
      "name": "transferOwnership",
      "outputs": [],
      "stateMutability": "nonpayable",
      "type": "function"
    },
    {
      "inputs": [
        {
          "internalType": "address",
          "name": "pool",
          "type": "address"
        }
      ],
      "name": "unpause",
      "outputs": [],
      "stateMutability": "nonpayable",
      "type": "function"
    },
    {
      "inputs": [],
      "name": "unpauseAll",
      "outputs": [],
      "stateMutability": "nonpayable",
      "type": "function"
    },
    {
      "inputs": [
        {
          "internalType": "address",
          "name": "",
          "type": "address"
        }
      ],
      "name": "whitelistedContract",
      "outputs": [
        {
          "internalType": "bool",
          "name": "",
          "type": "bool"
        }
      ],
      "stateMutability": "view",
      "type": "function"
    }
  ],
  "transactionHash": "0x6acff41af13167a2b71b2ba0a31bae22dbea7ff7ec8248a07f93afd24f6fc46c",
  "args": [
    "0x86d36bd2EEfB7974B9D0720Af3418FC7Ca5C8897"
  ],
  "numDeployments": 1,
  "solcInputHash": "2b240e7b1dd49677c70e89e19d447c71",
  "bytecode": "0x6080346100f557601f6117ce38819003918201601f19168301916001600160401b038311848410176100fa578084926020946040528339810103126100f557516001600160a01b039081811681036100f5576000543360018060a01b0319821617600055604051923391167f8be0079c531659141344cd1fd0a4f28419497f9722a3daafe3b4186f6b6457e0600080a36301e13380600955600a80546000600c55600d805462ffffff1990811661271017909155600f8054909116620c3500179055610100600160c01b03191660089290921b610100600160a81b03169190911761027160ac1b1790556116bd90816101118239f35b600080fd5b634e487b7160e01b600052604160045260246000fdfe608060408181526004918236101561001657600080fd5b600092833560e01c91826303af1193146113a457508163054e426b1461079f5781630fdbb1c11461136157816318fc742e146112c45781631ae527b31461128457816328836fd714610cef5781632c45d67c146111c75781632ca1b21b146111895781632cb7e700146110875781632fa3c4bf14610fb6578163321d0c1914610e3457816335df82dc14610d515781633b8f9be714610d2d5781633b9589a914610cef578163478222c21461051c57816350b492ba14610caf5781635123802414610c90578163533ad44c14610c4d57816357b001f914610c0d578163595c6a6714610be457816359d9963a14610b355781635a64ad9514610b165781635b14f18314610ac4578163602e3e3314610a865781636614b24e146106e05781636991836114610a405781636ba6a65d146109f25781636c9bc732146109b4578163715018a61461095a57816376a67a5114610917578163819afdb4146108d9578163825005381461071e5781638a2ddd03146108b05781638da5cb5b146108885781638dfdb4541461084a578163908f543c146107c3578163a0e6adf11461079f578163a3d4597f1461075c578163b5f903d51461071e578163bbd91980146106e0578163d455863b146106bc578163d6dc4b7b14610650578163dfa5901614610610578163e1764f5214610572578163e61c138014610549578163ec0f7cf01461051c578163ecbb1ac0146104ea578163ecf86304146104aa578163f2fde38b146103e7578163f314fe0a1461030a57508063f56681bf146102d1578063faba50cc146102ae5763fea611f91461026c57600080fd5b346102aa5760203660031901126102aa576102856113c8565b61028d61146a565b6001600160a01b0316825260016020528120805460ff1916905580f35b5080fd5b50346102aa57816003193601126102aa5760209062ffffff600f54169051908152f35b50346102aa57806003193601126102aa5760209062ffffff6103026102f46113c8565b6102fc6113e3565b906115c4565b915191168152f35b919050346103e35760203660031901126103e3576103266113c8565b61032e61146a565b6001600160a01b031680845260026020528184205490929060ff161561038e5750600880546001600160a01b03191683179055519081527f233893de19deb83a744e3e0fc496e37bfd4cd5441fccab0b9f1e7c35b06a58d390602090a180f35b6020608492519162461bcd60e51b8352820152602a60248201527f436f6e66696775726174696f6e3a206469737472696275746f72206e6f7420776044820152691a1a5d195b1a5cdd195960b21b6064820152fd5b8280fd5b9050346103e35760203660031901126103e3576104026113c8565b9061040b61146a565b6001600160a01b0391821692831561045857505082546001600160a01b0319811683178455167f8be0079c531659141344cd1fd0a4f28419497f9722a3daafe3b4186f6b6457e08380a380f35b906020608492519162461bcd60e51b8352820152602660248201527f4f776e61626c653a206e6577206f776e657220697320746865207a65726f206160448201526564647265737360d01b6064820152fd5b5050346102aa5760203660031901126102aa576104c56113c8565b6104cd61146a565b6001600160a01b0316825260076020528120805460ff1916905580f35b5050346102aa57806003193601126102aa5760209062ffffff61030261050e6113c8565b6105166113e3565b90611564565b5050346102aa57816003193601126102aa57600a54905160089190911c6001600160a01b03168152602090f35b5050346102aa57816003193601126102aa5760085490516001600160a01b039091168152602090f35b8383346102aa5760203660031901126102aa5761058d6113c8565b61059561146a565b6001600160a01b03168083526002602052908220805460ff191660011790558254680100000000000000008110156105fd57806105fa939460016105db9301905561141d565b90919082549060031b9160018060a01b03809116831b921b1916179055565b80f35b634e487b7160e01b835260418452602483fd5b5050346102aa5760203660031901126102aa5761062b6113c8565b61063361146a565b6001600160a01b0316825260056020528120805460ff1916905580f35b5050346102aa5760203660031901126102aa5760207f2b95282411b6ac4bc1841e547b62f65465d1d39bcb6f73ac0180bdd4d208d8b49162ffffff61069361140b565b61069b61146a565b6106a48161161c565b16908162ffffff19600d541617600d5551908152a180f35b5050346102aa57816003193601126102aa5760209062ffffff600f54169051908152f35b5050346102aa5760203660031901126102aa5760209160ff9082906001600160a01b0361070b6113c8565b1681526007855220541690519015158152f35b5050346102aa5760203660031901126102aa5760209160ff9082906001600160a01b036107496113c8565b1681526002855220541690519015158152f35b5050346102aa5760203660031901126102aa576107776113c8565b61077f61146a565b6001600160a01b0316825260056020528120805460ff1916600117905580f35b5050346102aa57816003193601126102aa5760209060ff600a541690519015158152f35b5050346102aa5760203660031901126102aa5760207f85cded78206fef354e0933881037a37aaebc06618dd51078436aef103a764a499161080261140b565b9061080b61146a565b62ffffff821691610821620493e08411156114e7565b600a805462ffffff60a81b191660a89290921b62ffffff60a81b1691909117905551908152a180f35b5050346102aa5760203660031901126102aa5760209162ffffff9082906001600160a01b036108776113c8565b168152600e85522054169051908152f35b5050346102aa57816003193601126102aa57905490516001600160a01b039091168152602090f35b83346108d657806003193601126108d6576108c961146a565b60ff19600a5416600a5580f35b80fd5b5050346102aa5760203660031901126102aa5760209160ff9082906001600160a01b036109046113c8565b1681526005855220541690519015158152f35b5050346102aa5760203660031901126102aa576109326113c8565b61093a61146a565b6001600160a01b0316825260066020528120805460ff1916600117905580f35b83346108d657806003193601126108d65761097361146a565b80546001600160a01b03198116825581906001600160a01b03167f8be0079c531659141344cd1fd0a4f28419497f9722a3daafe3b4186f6b6457e08280a380f35b5050346102aa5760203660031901126102aa5760209160ff9082906001600160a01b036109df6113c8565b1681526006855220541690519015158152f35b9050346103e35760203660031901126103e3577f40ce1806b7877aabdb86bb0325ab70125fbbb1789f87486b4e9aa34051daa6d7916020913590610a3461146a565b8160095551908152a180f35b5050346102aa5760203660031901126102aa57610a5b6113c8565b610a6361146a565b6001600160a01b0316825260016020819052908220805460ff1916909117905580f35b5050346102aa5760203660031901126102aa5760209162ffffff9082906001600160a01b03610ab36113c8565b168152600b85522054169051908152f35b5050346102aa5760203660031901126102aa5760209160ff9082906001600160a01b03610aef6113c8565b16815260068552205416908115610b09575b519015158152f35b600a5460ff169150610b01565b5050346102aa57816003193601126102aa57602090600c549051908152f35b5050346102aa57806003193601126102aa577f538ba1be8aceb8c04d2bfbdad9793e1ba7c2aee9cc4478fbe2e90b7b7575911d90610b716113c8565b610bde610b7c6113f9565b92610b8561146a565b62ffffff8416610b9a620493e08211156114e7565b6001600160a01b0393909316808752600b6020908152828820805462ffffff1916909517909455905190815262ffffff939093169183019190915281906040820190565b0390a180f35b83346108d657806003193601126108d657610bfd61146a565b600160ff19600a541617600a5580f35b5050346102aa5760203660031901126102aa57610c286113c8565b610c3061146a565b6001600160a01b0316825260066020528120805460ff1916905580f35b5050346102aa5760203660031901126102aa57610c686113c8565b610c7061146a565b6001600160a01b0316825260036020528120805460ff1916600117905580f35b5050346102aa57816003193601126102aa576020906009549051908152f35b8284346108d65760203660031901126108d657823592548310156108d65750610cd960209261141d565b905491519160018060a01b039160031b1c168152f35b5050346102aa5760203660031901126102aa5760209160ff9082906001600160a01b03610d1a6113c8565b1681526003855220541690519015158152f35b5050346102aa57816003193601126102aa5760209062ffffff600d54169051908152f35b919050346103e35760203660031901126103e357610d6d6113c8565b610d7561146a565b6001600160a01b038116928315610dd95750600a8054610100600160a81b03191660089290921b610100600160a81b0316919091179055519081527fa30c0bdcbba01e7448180ae5a7a206f585543fc1be92e825bce878586dd0770f90602090a180f35b608490602084519162461bcd60e51b8352820152602f60248201527f436f6e66696775726174696f6e3a20666565207661756c742063616e6e6f742060448201526e6265207a65726f206164647265737360881b6064820152fd5b919050346103e357806003193601126103e357610e4f6113c8565b91610e586113e3565b923385526020916005835260ff848720541615610f73576001600160a01b0394851694918216865b8254811015610f6f578084866044610e988b9561141d565b919054918d8c5195869485936307f43c1960e31b85528b8d86015260249a8b86015260031b1c165af1928315610f65579086918b94610ef7575b5050610ef29216895260078652868920600160ff198254161790556114c2565b610e80565b915091925086903d8811610f5d575b601f8201601f191683019067ffffffffffffffff821184831017610f4c5750879183918a5281010312610f485751908482168203610f485784610ef238610ed2565b8880fd5b634e487b7160e01b8c52604187528bfd5b3d9150610f06565b88513d8c823e3d90fd5b8780f35b835162461bcd60e51b8152908101839052601860248201527f436f6e66696775726174696f6e3a20464f5242494444454e00000000000000006044820152606490fd5b919050346103e35760203660031901126103e35762ffffff610fd661140b565b610fde61146a565b1691620f424083116110265750816020917f03ff7d47fbc45b86f7b5826949b9f458079df75370d6e8b3514b73117843a2cd9362ffffff19600f541617600f5551908152a180f35b6020608492519162461bcd60e51b8352820152603660248201527f436f6e66696775726174696f6e3a206d617820747265617375727920726174656044820152751036bab9ba103132903632b9b9903a3430b71018b29b60511b6064820152fd5b9050346103e35760203660031901126103e357906110a36113c8565b916110ac61146a565b6001600160a01b039283168085526002602052918420805460ff1916905583905b80549182811015611181578492846110e48361141d565b979054600398891b1c161461110a575061110191929394506114c2565b909291926110cd565b9193506000199182810190811161116e57906105db8461112c6111399461141d565b905490891b1c169161141d565b8254801561115b57019261114c8461141d565b81939154921b1b191690555580f35b634e487b7160e01b865260318452602486fd5b634e487b7160e01b875260118552602487fd5b505050505080f35b5050346102aa5760203660031901126102aa5760209160ff9082906001600160a01b036111b46113c8565b1681526001855220541690519015158152f35b919050346103e35760203660031901126103e3578135916111e661146a565b683635c9adc5dea0000083116112285750816020917f9a7c33ea6df1d6d7f2348eda287c9493ced6ba1e043a8e681f50075dc9cdd4ca93600c5551908152a180f35b6020608492519162461bcd60e51b8352820152603160248201527f436f6e66696775726174696f6e3a206d696e74696e6720666565206d7573742060448201527006265206c657373207468616e203130303607c1b6064820152fd5b5050346102aa5760203660031901126102aa5761129f6113c8565b6112a761146a565b6001600160a01b0316825260036020528120805460ff1916905580f35b5050346102aa57806003193601126102aa577f912324dfb2a51f0cb5c6948c9698589daf1a9f9b7f515d4c44691a8db6ef1336906113006113c8565b610bde61130b6113f9565b9261131461146a565b61131d8461161c565b6001600160a01b0392909216808652600e6020908152838720805462ffffff191662ffffff9690961695861790559251908152918201929092529081906040820190565b5050346102aa5760203660031901126102aa5761137c6113c8565b61138461146a565b6001600160a01b0316825260076020528120805460ff1916600117905580f35b8490346102aa57816003193601126102aa5760209062ffffff600a5460a81c168152f35b600435906001600160a01b03821682036113de57565b600080fd5b602435906001600160a01b03821682036113de57565b6024359062ffffff821682036113de57565b6004359062ffffff821682036113de57565b6004548110156114545760046000527f8a35acfbc15ff81a39ae7d344fd709f28e8600b4aa8c65c6b64bfe7fe36bd19b0190600090565b634e487b7160e01b600052603260045260246000fd5b6000546001600160a01b0316330361147e57565b606460405162461bcd60e51b815260206004820152602060248201527f4f776e61626c653a2063616c6c6572206973206e6f7420746865206f776e65726044820152fd5b60001981146114d15760010190565b634e487b7160e01b600052601160045260246000fd5b156114ee57565b60405162461bcd60e51b815260206004820152604260248201527f436f6e66696775726174696f6e3a2064656661756c742064697374726962757460448201527f696f6e206665652072617465206d757374206265206c657373207468616e2033606482015261302560f01b608482015260a490fd5b60018060a01b03809116600052600b60205262ffffff90816040600020541692166000528060406000205416908215806115bc575b6115af5750808211156115aa575090565b905090565b915050600a5460a81c1690565b508115611599565b60018060a01b03809116600052600e60205262ffffff9081604060002054169216600052806040600020541690821580611614575b61160a5750808211156115aa575090565b915050600d541690565b5081156115f9565b62ffffff614e2091161161162c57565b60405162461bcd60e51b815260206004820152602d60248201527f436f6e66696775726174696f6e3a20747261646520666565206d75737420626560448201526c206c657373207468616e20312560981b6064820152608490fdfea2646970667358221220463761f6f6fc8ecd8dd46c7f90964765939706a52ea0ad5a4524dc02c570585864736f6c63430008130033",
  "devdoc": {
    "kind": "dev",
    "methods": {
      "owner()": {
        "details": "Returns the address of the current owner."
      },
      "renounceOwnership()": {
        "details": "Leaves the contract without owner. It will not be possible to call `onlyOwner` functions. Can only be called by the current owner. NOTE: Renouncing ownership will leave the contract without an owner, thereby disabling any functionality that is only available to the owner."
      },
      "transferOwnership(address)": {
        "details": "Transfers ownership of the contract to a new account (`newOwner`). Can only be called by the current owner."
      }
    },
    "version": 1
  },
  "userdoc": {
    "kind": "user",
    "methods": {},
    "version": 1
  },
  "storageLayout": {
    "storage": [
      {
        "astId": 20976,
        "contract": "contracts/Configuration.sol:Configuration",
        "label": "_owner",
        "offset": 0,
        "slot": "0",
        "type": "t_address"
      },
      {
        "astId": 26088,
        "contract": "contracts/Configuration.sol:Configuration",
        "label": "paymentTokenWhitelist",
        "offset": 0,
        "slot": "1",
        "type": "t_mapping(t_address,t_bool)"
      },
      {
        "astId": 26092,
        "contract": "contracts/Configuration.sol:Configuration",
        "label": "distributorWhitelist",
        "offset": 0,
        "slot": "2",
        "type": "t_mapping(t_address,t_bool)"
      },
      {
        "astId": 26096,
        "contract": "contracts/Configuration.sol:Configuration",
        "label": "whitelistedContract",
        "offset": 0,
        "slot": "3",
        "type": "t_mapping(t_address,t_bool)"
      },
      {
        "astId": 26100,
        "contract": "contracts/Configuration.sol:Configuration",
        "label": "distributors",
        "offset": 0,
        "slot": "4",
        "type": "t_array(t_contract(IDistributor)27237)dyn_storage"
      },
      {
        "astId": 26104,
        "contract": "contracts/Configuration.sol:Configuration",
        "label": "presaleMakers",
        "offset": 0,
        "slot": "5",
        "type": "t_mapping(t_address,t_bool)"
      },
      {
        "astId": 26108,
        "contract": "contracts/Configuration.sol:Configuration",
        "label": "isPoolPaused",
        "offset": 0,
        "slot": "6",
        "type": "t_mapping(t_address,t_bool)"
      },
      {
        "astId": 26112,
        "contract": "contracts/Configuration.sol:Configuration",
        "label": "transferBlacklist",
        "offset": 0,
        "slot": "7",
        "type": "t_mapping(t_address,t_bool)"
      },
      {
        "astId": 26114,
        "contract": "contracts/Configuration.sol:Configuration",
        "label": "defaultDistributor",
        "offset": 0,
        "slot": "8",
        "type": "t_address"
      },
      {
        "astId": 26117,
        "contract": "contracts/Configuration.sol:Configuration",
        "label": "maxPresaleDuration",
        "offset": 0,
        "slot": "9",
        "type": "t_uint256"
      },
      {
        "astId": 26119,
        "contract": "contracts/Configuration.sol:Configuration",
        "label": "isAllPoolPaused",
        "offset": 0,
        "slot": "10",
        "type": "t_bool"
      },
      {
        "astId": 26121,
        "contract": "contracts/Configuration.sol:Configuration",
        "label": "feeVault",
        "offset": 1,
        "slot": "10",
        "type": "t_address"
      },
      {
        "astId": 26126,
        "contract": "contracts/Configuration.sol:Configuration",
        "label": "defaultDistributionFeeRate",
        "offset": 21,
        "slot": "10",
        "type": "t_uint24"
      },
      {
        "astId": 26130,
        "contract": "contracts/Configuration.sol:Configuration",
        "label": "distributionFeeRate",
        "offset": 0,
        "slot": "11",
        "type": "t_mapping(t_address,t_uint24)"
      },
      {
        "astId": 26133,
        "contract": "contracts/Configuration.sol:Configuration",
        "label": "mintingFee",
        "offset": 0,
        "slot": "12",
        "type": "t_uint256"
      },
      {
        "astId": 26138,
        "contract": "contracts/Configuration.sol:Configuration",
        "label": "defaultTradeFee",
        "offset": 0,
        "slot": "13",
        "type": "t_uint24"
      },
      {
        "astId": 26142,
        "contract": "contracts/Configuration.sol:Configuration",
        "label": "tradeFee",
        "offset": 0,
        "slot": "14",
        "type": "t_mapping(t_address,t_uint24)"
      },
      {
        "astId": 26145,
        "contract": "contracts/Configuration.sol:Configuration",
        "label": "maxTreasuryRate",
        "offset": 0,
        "slot": "15",
        "type": "t_uint24"
      }
    ],
    "types": {
      "t_address": {
        "encoding": "inplace",
        "label": "address",
        "numberOfBytes": "20"
      },
      "t_array(t_contract(IDistributor)27237)dyn_storage": {
        "base": "t_contract(IDistributor)27237",
        "encoding": "dynamic_array",
        "label": "contract IDistributor[]",
        "numberOfBytes": "32"
      },
      "t_bool": {
        "encoding": "inplace",
        "label": "bool",
        "numberOfBytes": "1"
      },
      "t_contract(IDistributor)27237": {
        "encoding": "inplace",
        "label": "contract IDistributor",
        "numberOfBytes": "20"
      },
      "t_mapping(t_address,t_bool)": {
        "encoding": "mapping",
        "key": "t_address",
        "label": "mapping(address => bool)",
        "numberOfBytes": "32",
        "value": "t_bool"
      },
      "t_mapping(t_address,t_uint24)": {
        "encoding": "mapping",
        "key": "t_address",
        "label": "mapping(address => uint24)",
        "numberOfBytes": "32",
        "value": "t_uint24"
      },
      "t_uint24": {
        "encoding": "inplace",
        "label": "uint24",
        "numberOfBytes": "3"
      },
      "t_uint256": {
        "encoding": "inplace",
        "label": "uint256",
        "numberOfBytes": "32"
      }
    }
  }
}