{
  "address": "0x61dd4e0F6F8854e97E7aE96D9Ba97E92DB9A1149",
  "abi": [
    {
      "inputs": [
        {
          "internalType": "address",
          "name": "_feeVault",
          "type": "address"
        }
      ],
      "stateMutability": "nonpayable",
      "type": "constructor"
    },
    {
      "anonymous": false,
      "inputs": [
        {
          "indexed": true,
          "internalType": "address",
          "name": "previousOwner",
          "type": "address"
        },
        {
          "indexed": true,
          "internalType": "address",
          "name": "newOwner",
          "type": "address"
        }
      ],
      "name": "OwnershipTransferred",
      "type": "event"
    },
    {
      "inputs": [
        {
          "internalType": "address",
          "name": "distributor",
          "type": "address"
        }
      ],
      "name": "allowDistributor",
      "outputs": [],
      "stateMutability": "nonpayable",
      "type": "function"
    },
    {
      "inputs": [
        {
          "internalType": "address",
          "name": "token",
          "type": "address"
        }
      ],
      "name": "allowTokenForPayment",
      "outputs": [],
      "stateMutability": "nonpayable",
      "type": "function"
    },
    {
      "inputs": [],
      "name": "defaultDistributionFeeRate",
      "outputs": [
        {
          "internalType": "uint24",
          "name": "",
          "type": "uint24"
        }
      ],
      "stateMutability": "view",
      "type": "function"
    },
    {
      "inputs": [],
      "name": "defaultDistributor",
      "outputs": [
        {
          "internalType": "address",
          "name": "",
          "type": "address"
        }
      ],
      "stateMutability": "view",
      "type": "function"
    },
    {
      "inputs": [],
      "name": "defaultTradeFee",
      "outputs": [
        {
          "internalType": "uint24",
          "name": "",
          "type": "uint24"
        }
      ],
      "stateMutability": "view",
      "type": "function"
    },
    {
      "inputs": [
        {
          "internalType": "address",
          "name": "distributor",
          "type": "address"
        }
      ],
      "name": "disallowDistributor",
      "outputs": [],
      "stateMutability": "nonpayable",
      "type": "function"
    },
    {
      "inputs": [
        {
          "internalType": "address",
          "name": "token",
          "type": "address"
        }
      ],
      "name": "disallowTokenForPayment",
      "outputs": [],
      "stateMutability": "nonpayable",
      "type": "function"
    },
    {
      "inputs": [
        {
          "internalType": "address",
          "name": "",
          "type": "address"
        }
      ],
      "name": "distributionFeeRate",
      "outputs": [
        {
          "internalType": "uint24",
          "name": "",
          "type": "uint24"
        }
      ],
      "stateMutability": "view",
      "type": "function"
    },
    {
      "inputs": [
        {
          "internalType": "address",
          "name": "",
          "type": "address"
        }
      ],
      "name": "distributorWhitelist",
      "outputs": [
        {
          "internalType": "bool",
          "name": "",
          "type": "bool"
        }
      ],
      "stateMutability": "view",
      "type": "function"
    },
    {
      "inputs": [
        {
          "internalType": "uint256",
          "name": "",
          "type": "uint256"
        }
      ],
      "name": "distributors",
      "outputs": [
        {
          "internalType": "contract IDistributor",
          "name": "",
          "type": "address"
        }
      ],
      "stateMutability": "view",
      "type": "function"
    },
    {
      "inputs": [],
      "name": "feeVault",
      "outputs": [
        {
          "internalType": "address",
          "name": "",
          "type": "address"
        }
      ],
      "stateMutability": "view",
      "type": "function"
    },
    {
      "inputs": [
        {
          "internalType": "address",
          "name": "token0",
          "type": "address"
        },
        {
          "internalType": "address",
          "name": "token1",
          "type": "address"
        }
      ],
      "name": "getDistributionFeeRate",
      "outputs": [
        {
          "internalType": "uint24",
          "name": "",
          "type": "uint24"
        }
      ],
      "stateMutability": "view",
      "type": "function"
    },
    {
      "inputs": [],
      "name": "getFeeVault",
      "outputs": [
        {
          "internalType": "address",
          "name": "",
          "type": "address"
        }
      ],
      "stateMutability": "view",
      "type": "function"
    },
    {
      "inputs": [],
      "name": "getMaxTreasuryRate",
      "outputs": [
        {
          "internalType": "uint24",
          "name": "",
          "type": "uint24"
        }
      ],
      "stateMutability": "view",
      "type": "function"
    },
    {
      "inputs": [
        {
          "internalType": "address",
          "name": "token0",
          "type": "address"
        },
        {
          "internalType": "address",
          "name": "token1",
          "type": "address"
        }
      ],
      "name": "getTradeFee",
      "outputs": [
        {
          "internalType": "uint24",
          "name": "",
          "type": "uint24"
        }
      ],
      "stateMutability": "view",
      "type": "function"
    },
    {
      "inputs": [],
      "name": "isAllPoolPaused",
      "outputs": [
        {
          "internalType": "bool",
          "name": "",
          "type": "bool"
        }
      ],
      "stateMutability": "view",
      "type": "function"
    },
    {
      "inputs": [
        {
          "internalType": "address",
          "name": "distributor",
          "type": "address"
        }
      ],
      "name": "isDistributorWhitelisted",
      "outputs": [
        {
          "internalType": "bool",
          "name": "",
          "type": "bool"
        }
      ],
      "stateMutability": "view",
      "type": "function"
    },
    {
      "inputs": [
        {
          "internalType": "address",
          "name": "pool",
          "type": "address"
        }
      ],
      "name": "isPaused",
      "outputs": [
        {
          "internalType": "bool",
          "name": "",
          "type": "bool"
        }
      ],
      "stateMutability": "view",
      "type": "function"
    },
    {
      "inputs": [],
      "name": "isPausedAll",
      "outputs": [
        {
          "internalType": "bool",
          "name": "",
          "type": "bool"
        }
      ],
      "stateMutability": "view",
      "type": "function"
    },
    {
      "inputs": [
        {
          "internalType": "address",
          "name": "",
          "type": "address"
        }
      ],
      "name": "isPoolPaused",
      "outputs": [
        {
          "internalType": "bool",
          "name": "",
          "type": "bool"
        }
      ],
      "stateMutability": "view",
      "type": "function"
    },
    {
      "inputs": [
        {
          "internalType": "address",
          "name": "target",
          "type": "address"
        }
      ],
      "name": "isTransferBlacklisted",
      "outputs": [
        {
          "internalType": "bool",
          "name": "",
          "type": "bool"
        }
      ],
      "stateMutability": "view",
      "type": "function"
    },
    {
      "inputs": [],
      "name": "maxPresaleDuration",
      "outputs": [
        {
          "internalType": "uint256",
          "name": "",
          "type": "uint256"
        }
      ],
      "stateMutability": "view",
      "type": "function"
    },
    {
      "inputs": [],
      "name": "maxTreasuryRate",
      "outputs": [
        {
          "internalType": "uint24",
          "name": "",
          "type": "uint24"
        }
      ],
      "stateMutability": "view",
      "type": "function"
    },
    {
      "inputs": [],
      "name": "mintingFee",
      "outputs": [
        {
          "internalType": "uint256",
          "name": "",
          "type": "uint256"
        }
      ],
      "stateMutability": "view",
      "type": "function"
    },
    {
      "inputs": [],
      "name": "owner",
      "outputs": [
        {
          "internalType": "address",
          "name": "",
          "type": "address"
        }
      ],
      "stateMutability": "view",
      "type": "function"
    },
    {
      "inputs": [
        {
          "internalType": "address",
          "name": "pool",
          "type": "address"
        }
      ],
      "name": "pause",
      "outputs": [],
      "stateMutability": "nonpayable",
      "type": "function"
    },
    {
      "inputs": [],
      "name": "pauseAll",
      "outputs": [],
      "stateMutability": "nonpayable",
      "type": "function"
    },
    {
      "inputs": [
        {
          "internalType": "address",
          "name": "",
          "type": "address"
        }
      ],
      "name": "paymentTokenWhitelist",
      "outputs": [
        {
          "internalType": "bool",
          "name": "",
          "type": "bool"
        }
      ],
      "stateMutability": "view",
      "type": "function"
    },
    {
      "inputs": [
        {
          "internalType": "address",
          "name": "",
          "type": "address"
        }
      ],
      "name": "presaleMakers",
      "outputs": [
        {
          "internalType": "bool",
          "name": "",
          "type": "bool"
        }
      ],
      "stateMutability": "view",
      "type": "function"
    },
    {
      "inputs": [
        {
          "internalType": "address",
          "name": "token1",
          "type": "address"
        },
        {
          "internalType": "address",
          "name": "token2",
          "type": "address"
        }
      ],
      "name": "putComputedTransferBlacklist",
      "outputs": [],
      "stateMutability": "nonpayable",
      "type": "function"
    },
    {
      "inputs": [
        {
          "internalType": "uint24",
          "name": "feeRate",
          "type": "uint24"
        }
      ],
      "name": "putDefaultDistributionFeeRate",
      "outputs": [],
      "stateMutability": "nonpayable",
      "type": "function"
    },
    {
      "inputs": [
        {
          "internalType": "address",
          "name": "distributor",
          "type": "address"
        }
      ],
      "name": "putDefaultDistributor",
      "outputs": [],
      "stateMutability": "nonpayable",
      "type": "function"
    },
    {
      "inputs": [
        {
          "internalType": "uint24",
          "name": "_tradeFee",
          "type": "uint24"
        }
      ],
      "name": "putDefaultTradeFee",
      "outputs": [],
      "stateMutability": "nonpayable",
      "type": "function"
    },
    {
      "inputs": [
        {
          "internalType": "address",
          "name": "token",
          "type": "address"
        },
        {
          "internalType": "uint24",
          "name": "feeRate",
          "type": "uint24"
        }
      ],
      "name": "putDistributionFeeRateForToken",
      "outputs": [],
      "stateMutability": "nonpayable",
      "type": "function"
    },
    {
      "inputs": [
        {
          "internalType": "address",
          "name": "vault",
          "type": "address"
        }
      ],
      "name": "putFeeVault",
      "outputs": [],
      "stateMutability": "nonpayable",
      "type": "function"
    },
    {
      "inputs": [
        {
          "internalType": "uint256",
          "name": "duration",
          "type": "uint256"
        }
      ],
      "name": "putMaxPresaleDuration",
      "outputs": [],
      "stateMutability": "nonpayable",
      "type": "function"
    },
    {
      "inputs": [
        {
          "internalType": "uint24",
          "name": "rate",
          "type": "uint24"
        }
      ],
      "name": "putMaxTreasuryRate",
      "outputs": [],
      "stateMutability": "nonpayable",
      "type": "function"
    },
    {
      "inputs": [
        {
          "internalType": "uint256",
          "name": "fee",
          "type": "uint256"
        }
      ],
      "name": "putMintingFee",
      "outputs": [],
      "stateMutability": "nonpayable",
      "type": "function"
    },
    {
      "inputs": [
        {
          "internalType": "address",
          "name": "presaleMaker",
          "type": "address"
        }
      ],
      "name": "putPresaleMaker",
      "outputs": [],
      "stateMutability": "nonpayable",
      "type": "function"
    },
    {
      "inputs": [
        {
          "internalType": "address",
          "name": "token",
          "type": "address"
        },
        {
          "internalType": "uint24",
          "name": "_tradeFee",
          "type": "uint24"
        }
      ],
      "name": "putTradeFeeForToken",
      "outputs": [],
      "stateMutability": "nonpayable",
      "type": "function"
    },
    {
      "inputs": [
        {
          "internalType": "address",
          "name": "target",
          "type": "address"
        }
      ],
      "name": "putTransferBlacklist",
      "outputs": [],
      "stateMutability": "nonpayable",
      "type": "function"
    },
    {
      "inputs": [
        {
          "internalType": "address",
          "name": "presaleMaker",
          "type": "address"
        }
      ],
      "name": "removePresaleMaker",
      "outputs": [],
      "stateMutability": "nonpayable",
      "type": "function"
    },
    {
      "inputs": [
        {
          "internalType": "address",
          "name": "target",
          "type": "address"
        }
      ],
      "name": "removeTransferBlacklist",
      "outputs": [],
      "stateMutability": "nonpayable",
      "type": "function"
    },
    {
      "inputs": [],
      "name": "renounceOwnership",
      "outputs": [],
      "stateMutability": "nonpayable",
      "type": "function"
    },
    {
      "inputs": [
        {
          "internalType": "address",
          "name": "",
          "type": "address"
        }
      ],
      "name": "tradeFee",
      "outputs": [
        {
          "internalType": "uint24",
          "name": "",
          "type": "uint24"
        }
      ],
      "stateMutability": "view",
      "type": "function"
    },
    {
      "inputs": [
        {
          "internalType": "address",
          "name": "",
          "type": "address"
        }
      ],
      "name": "transferBlacklist",
      "outputs": [
        {
          "internalType": "bool",
          "name": "",
          "type": "bool"
        }
      ],
      "stateMutability": "view",
      "type": "function"
    },
    {
      "inputs": [
        {
          "internalType": "address",
          "name": "newOwner",
          "type": "address"
        }
      ],
      "name": "transferOwnership",
      "outputs": [],
      "stateMutability": "nonpayable",
      "type": "function"
    },
    {
      "inputs": [
        {
          "internalType": "address",
          "name": "pool",
          "type": "address"
        }
      ],
      "name": "unpause",
      "outputs": [],
      "stateMutability": "nonpayable",
      "type": "function"
    },
    {
      "inputs": [],
      "name": "unpauseAll",
      "outputs": [],
      "stateMutability": "nonpayable",
      "type": "function"
    }
  ],
  "transactionHash": "0xf4a1ea9aa04ffdb0928ff295361c5d1631095555278e3fad84d08cc1d2fccee6",
  "args": [
    "0xb9dF4BD9d3103cF1FB184BF5e6b54Cf55de81747"
  ],
  "numDeployments": 1,
  "solcInputHash": "bc19341149960b61c4d6b2d4349e0d5b",
  "bytecode": "0x6080346100f557601f61152c38819003918201601f19168301916001600160401b038311848410176100fa578084926020946040528339810103126100f557516001600160a01b039081811681036100f5576000543360018060a01b0319821617600055604051923391167f8be0079c531659141344cd1fd0a4f28419497f9722a3daafe3b4186f6b6457e0600080a36301e133806008908155600980546000600b55600c805462ffffff1990811661271017909155600e8054909116620c3500179055610100600160c01b0319169290911b610100600160a81b03169190911761027160ac1b17905561141b90816101118239f35b600080fd5b634e487b7160e01b600052604160045260246000fdfe608060408181526004918236101561001657600080fd5b600092833560e01c91826303af11931461110257508163054e426b146107265781630fdbb1c1146110bf57816318fc742e146110625781632c45d67c14610fcf5781632ca1b21b14610f915781632cb7e70014610e945781632fa3c4bf14610ded578163321d0c1914610c6657816335df82dc14610bae5781633b8f9be714610b8a578163478222c2146104cd57816350b492ba14610b495781635123802414610b2a57816357b001f914610aea578163595c6a6714610ac157816359d9963a14610a5f5781635a64ad9514610a405781635b14f183146109ee578163602e3e33146109b05781636614b24e14610669578163699183611461096a5781636ba6a65d146109485781636c9bc7321461090a578163715018a6146108b057816376a67a511461086d578163819afdb41461083057816382500538146106a75781638a2ddd031461080a5781638da5cb5b146107e25781638dfdb454146107a4578163908f543c1461074a578163a0e6adf114610726578163a3d4597f146106e5578163b5f903d5146106a7578163bbd9198014610669578163d455863b14610645578163d6dc4b7b14610602578163dfa59016146105c4578163e1764f5214610523578163e61c1380146104fa578163ec0f7cf0146104cd578163ecbb1ac01461049b578163ecf863041461045b578163f2fde38b14610398578163f314fe0a146102de57508063f56681bf146102a5578063faba50cc146102825763fea611f91461024057600080fd5b3461027e57602036600319011261027e57610259611126565b6102616111c8565b6001600160a01b0316825260016020528120805460ff1916905580f35b5080fd5b503461027e578160031936011261027e5760209062ffffff600e54169051908152f35b503461027e578060031936011261027e5760209062ffffff6102d66102c8611126565b6102d0611141565b90611322565b915191168152f35b905034610394576020366003190112610394576102f9611126565b6103016111c8565b6001600160a01b031680845260026020528284205490929060ff161561033e5750506bffffffffffffffffffffffff60a01b600754161760075580f35b906020608492519162461bcd60e51b8352820152602a60248201527f436f6e66696775726174696f6e3a206469737472696275746f72206e6f7420776044820152691a1a5d195b1a5cdd195960b21b6064820152fd5b8280fd5b905034610394576020366003190112610394576103b3611126565b906103bc6111c8565b6001600160a01b0391821692831561040957505082546001600160a01b0319811683178455167f8be0079c531659141344cd1fd0a4f28419497f9722a3daafe3b4186f6b6457e08380a380f35b906020608492519162461bcd60e51b8352820152602660248201527f4f776e61626c653a206e6577206f776e657220697320746865207a65726f206160448201526564647265737360d01b6064820152fd5b50503461027e57602036600319011261027e57610476611126565b61047e6111c8565b6001600160a01b0316825260066020528120805460ff1916905580f35b50503461027e578060031936011261027e5760209062ffffff6102d66104bf611126565b6104c7611141565b906112c2565b50503461027e578160031936011261027e57600954905160089190911c6001600160a01b03168152602090f35b50503461027e578160031936011261027e5760075490516001600160a01b039091168152602090f35b83833461027e57602036600319011261027e5761053e611126565b6105466111c8565b6001600160a01b03168083526002602052908220805460ff1916600117905560035492680100000000000000008410156105b1575061058f8360016105ae94950160035561117b565b90919082549060031b9160018060a01b03809116831b921b1916179055565b80f35b634e487b7160e01b835260419052602482fd5b905034610394576020366003190112610394576105df611126565b6105e76111c8565b6001600160a01b031683526020528120805460ff1916905580f35b83346106425760203660031901126106425762ffffff610620611169565b6106286111c8565b6106318161137a565b1662ffffff19600c541617600c5580f35b80fd5b50503461027e578160031936011261027e5760209062ffffff600e54169051908152f35b50503461027e57602036600319011261027e5760209160ff9082906001600160a01b03610694611126565b1681526006855220541690519015158152f35b50503461027e57602036600319011261027e5760209160ff9082906001600160a01b036106d2611126565b1681526002855220541690519015158152f35b90503461039457602036600319011261039457610700611126565b6107086111c8565b6001600160a01b031683526020528120805460ff1916600117905580f35b50503461027e578160031936011261027e5760209060ff6009541690519015158152f35b833461064257602036600319011261064257610764611169565b61076c6111c8565b610780620493e062ffffff83161115611245565b6009805462ffffff60a81b191660a89290921b62ffffff60a81b1691909117905580f35b50503461027e57602036600319011261027e5760209162ffffff9082906001600160a01b036107d1611126565b168152600d85522054169051908152f35b50503461027e578160031936011261027e57905490516001600160a01b039091168152602090f35b83346106425780600319360112610642576108236111c8565b60ff196009541660095580f35b9050346103945760203660031901126103945760209260ff918391906001600160a01b0361085c611126565b168252855220541690519015158152f35b50503461027e57602036600319011261027e57610888611126565b6108906111c8565b6001600160a01b0316825260056020528120805460ff1916600117905580f35b83346106425780600319360112610642576108c96111c8565b80546001600160a01b03198116825581906001600160a01b03167f8be0079c531659141344cd1fd0a4f28419497f9722a3daafe3b4186f6b6457e08280a380f35b50503461027e57602036600319011261027e5760209160ff9082906001600160a01b03610935611126565b1681526005855220541690519015158152f35b83903461027e57602036600319011261027e576109636111c8565b3560085580f35b50503461027e57602036600319011261027e57610985611126565b61098d6111c8565b6001600160a01b0316825260016020819052908220805460ff1916909117905580f35b50503461027e57602036600319011261027e5760209162ffffff9082906001600160a01b036109dd611126565b168152600a85522054169051908152f35b50503461027e57602036600319011261027e5760209160ff9082906001600160a01b03610a19611126565b16815260058552205416908115610a33575b519015158152f35b60095460ff169150610a2b565b50503461027e578160031936011261027e57602090600b549051908152f35b50503461027e578060031936011261027e57610a79611126565b9062ffffff610a86611157565b610a8e6111c8565b1691610a9f620493e0841115611245565b6001600160a01b03168352600a6020528220805462ffffff1916909117905580f35b8334610642578060031936011261064257610ada6111c8565b600160ff19600954161760095580f35b50503461027e57602036600319011261027e57610b05611126565b610b0d6111c8565b6001600160a01b0316825260056020528120805460ff1916905580f35b50503461027e578160031936011261027e576020906008549051908152f35b9050346103945760203660031901126103945735916003548310156106425750610b7460209261117b565b60018060a01b0391549060031b1c169051908152f35b50503461027e578160031936011261027e5760209062ffffff600c54169051908152f35b90503461039457602036600319011261039457610bc9611126565b91610bd26111c8565b6001600160a01b03831615610c0b57505060098054610100600160a81b03191660089290921b610100600160a81b031691909117905580f35b906020608492519162461bcd60e51b8352820152602f60248201527f436f6e66696775726174696f6e3a20666565207661756c742063616e6e6f742060448201526e6265207a65726f206164647265737360881b6064820152fd5b91905034610394578060031936011261039457610c81611126565b91610c8a611141565b9233855260209180835260ff848720541615610daa576001600160a01b039182169486908316815b60038054821015610da6578590610cc88361117b565b9054911b1c1687516307f43c1960e31b8152898682015287816044818860249689888401525af1918215610d9c57908792918692610d26575b505016835260068652868320805460ff19166001179055610d2190611220565b610cb2565b9250929394505086903d8811610d94575b601f8201601f191683019067ffffffffffffffff821184831017610d835750828b9594939289928b5281010312610d7f5751908582168203610d7f57908590610d2138610d01565b8380fd5b634e487b7160e01b8c52604187528bfd5b3d9150610d37565b89513d87823e3d90fd5b8380f35b835162461bcd60e51b8152908101839052601860248201527f436f6e66696775726174696f6e3a20464f5242494444454e00000000000000006044820152606490fd5b9050346103945760203660031901126103945762ffffff610e0c611169565b610e146111c8565b1691620f42408311610e3257505062ffffff19600e541617600e5580f35b906020608492519162461bcd60e51b8352820152603660248201527f436f6e66696775726174696f6e3a206d617820747265617375727920726174656044820152751036bab9ba103132903632b9b9903a3430b71018b29b60511b6064820152fd5b90503461039457602036600319011261039457610eaf611126565b90610eb86111c8565b6001600160a01b039182168085526002602052928420805460ff19169055835b6003805480831015610f88578585610eef8561117b565b905490851b1c1614610f0b575050610f0690611220565b610ed8565b93945092600019929190838101908111610f75579061058f86610f30610f3d9461117b565b905490881b1c169161117b565b8254908115610f6257500191610f528361117b565b9091825491841b1b191690555580f35b634e487b7160e01b865260319052602485fd5b634e487b7160e01b875260118352602487fd5b50505050505080f35b50503461027e57602036600319011261027e5760209160ff9082906001600160a01b03610fbc611126565b1681526001855220541690519015158152f35b90503461039457602036600319011261039457803591610fed6111c8565b683635c9adc5dea000008311611005575050600b5580f35b906020608492519162461bcd60e51b8352820152603160248201527f436f6e66696775726174696f6e3a206d696e74696e6720666565206d7573742060448201527006265206c657373207468616e203130303607c1b6064820152fd5b50503461027e578060031936011261027e5762ffffff611080611126565b91611089611157565b926110926111c8565b61109b8461137a565b6001600160a01b03168452600d6020528320805462ffffff19169190921617905580f35b50503461027e57602036600319011261027e576110da611126565b6110e26111c8565b6001600160a01b0316825260066020528120805460ff1916600117905580f35b84903461027e578160031936011261027e5760209062ffffff60095460a81c168152f35b600435906001600160a01b038216820361113c57565b600080fd5b602435906001600160a01b038216820361113c57565b6024359062ffffff8216820361113c57565b6004359062ffffff8216820361113c57565b6003548110156111b25760036000527fc2575a0e9e593c00f959f8c92f12db2869c3395a3b0502d05e2516446f71f85b0190600090565b634e487b7160e01b600052603260045260246000fd5b6000546001600160a01b031633036111dc57565b606460405162461bcd60e51b815260206004820152602060248201527f4f776e61626c653a2063616c6c6572206973206e6f7420746865206f776e65726044820152fd5b600019811461122f5760010190565b634e487b7160e01b600052601160045260246000fd5b1561124c57565b60405162461bcd60e51b815260206004820152604260248201527f436f6e66696775726174696f6e3a2064656661756c742064697374726962757460448201527f696f6e206665652072617465206d757374206265206c657373207468616e2033606482015261302560f01b608482015260a490fd5b60018060a01b03809116600052600a60205262ffffff908160406000205416921660005280604060002054169082158061131a575b61130d575080821115611308575090565b905090565b91505060095460a81c1690565b5081156112f7565b60018060a01b03809116600052600d60205262ffffff9081604060002054169216600052806040600020541690821580611372575b611368575080821115611308575090565b915050600c541690565b508115611357565b62ffffff614e2091161161138a57565b60405162461bcd60e51b815260206004820152602d60248201527f436f6e66696775726174696f6e3a20747261646520666565206d75737420626560448201526c206c657373207468616e20312560981b6064820152608490fdfea2646970667358221220def3e56598934e950f7444a9a3dfdb4c80d548ca24d8a8132bb032f3ce77065364736f6c63430008130033",
  "devdoc": {
    "kind": "dev",
    "methods": {
      "owner()": {
        "details": "Returns the address of the current owner."
      },
      "renounceOwnership()": {
        "details": "Leaves the contract without owner. It will not be possible to call `onlyOwner` functions. Can only be called by the current owner. NOTE: Renouncing ownership will leave the contract without an owner, thereby disabling any functionality that is only available to the owner."
      },
      "transferOwnership(address)": {
        "details": "Transfers ownership of the contract to a new account (`newOwner`). Can only be called by the current owner."
      }
    },
    "version": 1
  },
  "userdoc": {
    "kind": "user",
    "methods": {},
    "version": 1
  },
  "storageLayout": {
    "storage": [
      {
        "astId": 20940,
        "contract": "contracts/Configuration.sol:Configuration",
        "label": "_owner",
        "offset": 0,
        "slot": "0",
        "type": "t_address"
      },
      {
        "astId": 26052,
        "contract": "contracts/Configuration.sol:Configuration",
        "label": "paymentTokenWhitelist",
        "offset": 0,
        "slot": "1",
        "type": "t_mapping(t_address,t_bool)"
      },
      {
        "astId": 26056,
        "contract": "contracts/Configuration.sol:Configuration",
        "label": "distributorWhitelist",
        "offset": 0,
        "slot": "2",
        "type": "t_mapping(t_address,t_bool)"
      },
      {
        "astId": 26060,
        "contract": "contracts/Configuration.sol:Configuration",
        "label": "distributors",
        "offset": 0,
        "slot": "3",
        "type": "t_array(t_contract(IDistributor)27079)dyn_storage"
      },
      {
        "astId": 26064,
        "contract": "contracts/Configuration.sol:Configuration",
        "label": "presaleMakers",
        "offset": 0,
        "slot": "4",
        "type": "t_mapping(t_address,t_bool)"
      },
      {
        "astId": 26068,
        "contract": "contracts/Configuration.sol:Configuration",
        "label": "isPoolPaused",
        "offset": 0,
        "slot": "5",
        "type": "t_mapping(t_address,t_bool)"
      },
      {
        "astId": 26072,
        "contract": "contracts/Configuration.sol:Configuration",
        "label": "transferBlacklist",
        "offset": 0,
        "slot": "6",
        "type": "t_mapping(t_address,t_bool)"
      },
      {
        "astId": 26074,
        "contract": "contracts/Configuration.sol:Configuration",
        "label": "defaultDistributor",
        "offset": 0,
        "slot": "7",
        "type": "t_address"
      },
      {
        "astId": 26077,
        "contract": "contracts/Configuration.sol:Configuration",
        "label": "maxPresaleDuration",
        "offset": 0,
        "slot": "8",
        "type": "t_uint256"
      },
      {
        "astId": 26079,
        "contract": "contracts/Configuration.sol:Configuration",
        "label": "isAllPoolPaused",
        "offset": 0,
        "slot": "9",
        "type": "t_bool"
      },
      {
        "astId": 26081,
        "contract": "contracts/Configuration.sol:Configuration",
        "label": "feeVault",
        "offset": 1,
        "slot": "9",
        "type": "t_address"
      },
      {
        "astId": 26086,
        "contract": "contracts/Configuration.sol:Configuration",
        "label": "defaultDistributionFeeRate",
        "offset": 21,
        "slot": "9",
        "type": "t_uint24"
      },
      {
        "astId": 26090,
        "contract": "contracts/Configuration.sol:Configuration",
        "label": "distributionFeeRate",
        "offset": 0,
        "slot": "10",
        "type": "t_mapping(t_address,t_uint24)"
      },
      {
        "astId": 26093,
        "contract": "contracts/Configuration.sol:Configuration",
        "label": "mintingFee",
        "offset": 0,
        "slot": "11",
        "type": "t_uint256"
      },
      {
        "astId": 26098,
        "contract": "contracts/Configuration.sol:Configuration",
        "label": "defaultTradeFee",
        "offset": 0,
        "slot": "12",
        "type": "t_uint24"
      },
      {
        "astId": 26102,
        "contract": "contracts/Configuration.sol:Configuration",
        "label": "tradeFee",
        "offset": 0,
        "slot": "13",
        "type": "t_mapping(t_address,t_uint24)"
      },
      {
        "astId": 26105,
        "contract": "contracts/Configuration.sol:Configuration",
        "label": "maxTreasuryRate",
        "offset": 0,
        "slot": "14",
        "type": "t_uint24"
      }
    ],
    "types": {
      "t_address": {
        "encoding": "inplace",
        "label": "address",
        "numberOfBytes": "20"
      },
      "t_array(t_contract(IDistributor)27079)dyn_storage": {
        "base": "t_contract(IDistributor)27079",
        "encoding": "dynamic_array",
        "label": "contract IDistributor[]",
        "numberOfBytes": "32"
      },
      "t_bool": {
        "encoding": "inplace",
        "label": "bool",
        "numberOfBytes": "1"
      },
      "t_contract(IDistributor)27079": {
        "encoding": "inplace",
        "label": "contract IDistributor",
        "numberOfBytes": "20"
      },
      "t_mapping(t_address,t_bool)": {
        "encoding": "mapping",
        "key": "t_address",
        "label": "mapping(address => bool)",
        "numberOfBytes": "32",
        "value": "t_bool"
      },
      "t_mapping(t_address,t_uint24)": {
        "encoding": "mapping",
        "key": "t_address",
        "label": "mapping(address => uint24)",
        "numberOfBytes": "32",
        "value": "t_uint24"
      },
      "t_uint24": {
        "encoding": "inplace",
        "label": "uint24",
        "numberOfBytes": "3"
      },
      "t_uint256": {
        "encoding": "inplace",
        "label": "uint256",
        "numberOfBytes": "32"
      }
    }
  }
}