{
  "address": "0x97487DA724c967e98a4d915DF3dEBB54304F2d64",
  "abi": [
    {
      "inputs": [
        {
          "internalType": "address",
          "name": "_WETH9",
          "type": "address"
        },
        {
          "internalType": "bytes32",
          "name": "_nativeCurrencyLabelBytes",
          "type": "bytes32"
        }
      ],
      "stateMutability": "nonpayable",
      "type": "constructor"
    },
    {
      "inputs": [],
      "name": "T",
      "type": "error"
    },
    {
      "inputs": [],
      "name": "WETH9",
      "outputs": [
        {
          "internalType": "address",
          "name": "",
          "type": "address"
        }
      ],
      "stateMutability": "view",
      "type": "function"
    },
    {
      "inputs": [
        {
          "internalType": "address",
          "name": "token0",
          "type": "address"
        },
        {
          "internalType": "address",
          "name": "token1",
          "type": "address"
        },
        {
          "internalType": "uint256",
          "name": "chainId",
          "type": "uint256"
        }
      ],
      "name": "flipRatio",
      "outputs": [
        {
          "internalType": "bool",
          "name": "",
          "type": "bool"
        }
      ],
      "stateMutability": "view",
      "type": "function"
    },
    {
      "inputs": [],
      "name": "nativeCurrencyLabel",
      "outputs": [
        {
          "internalType": "string",
          "name": "",
          "type": "string"
        }
      ],
      "stateMutability": "view",
      "type": "function"
    },
    {
      "inputs": [],
      "name": "nativeCurrencyLabelBytes",
      "outputs": [
        {
          "internalType": "bytes32",
          "name": "",
          "type": "bytes32"
        }
      ],
      "stateMutability": "view",
      "type": "function"
    },
    {
      "inputs": [
        {
          "internalType": "address",
          "name": "token",
          "type": "address"
        },
        {
          "internalType": "uint256",
          "name": "chainId",
          "type": "uint256"
        }
      ],
      "name": "tokenRatioPriority",
      "outputs": [
        {
          "internalType": "int256",
          "name": "",
          "type": "int256"
        }
      ],
      "stateMutability": "view",
      "type": "function"
    },
    {
      "inputs": [
        {
          "internalType": "contract INonfungiblePositionManager",
          "name": "positionManager",
          "type": "address"
        },
        {
          "internalType": "uint256",
          "name": "tokenId",
          "type": "uint256"
        }
      ],
      "name": "tokenURI",
      "outputs": [
        {
          "internalType": "string",
          "name": "",
          "type": "string"
        }
      ],
      "stateMutability": "view",
      "type": "function"
    }
  ],
  "transactionHash": "0xd409b2bbacd94db195f513ed4f121676f46f236c287f17523d06cca16fbfaa2a",
  "args": [
    "0x1C13B2B65d55dF06FF43528E736Db2F8e372E692",
    "0x7745544800000000000000000000000000000000000000000000000000000000"
  ],
  "numDeployments": 2,
  "solcInputHash": "2b240e7b1dd49677c70e89e19d447c71",
  "bytecode": "0x60c0346200009d57601f62005f4838819003918201601f19168301916001600160401b03831184841017620000a25780849260409485528339810103126200009d578051906001600160a01b03821682036200009d57602001519060805260a052604051615e8f9081620000b98239608051818181608c0152818161032e0152610aa6015260a05181818161016d0152818161083901526108950152f35b600080fd5b634e487b7160e01b600052604160045260246000fdfe6080604052600436101561001257600080fd5b6000803560e01c9081634aa4a4fc1461007a575080637e5af771146100755780639d7b0ea814610070578063a18246e21461006b578063b7af3cdc146100665763e9dc63751461006157600080fd5b61020b565b6101df565b610155565b610122565b6100d7565b346100be57806003193601126100be577f00000000000000000000000000000000000000000000000000000000000000006001600160a01b03166080908152602090f35b80fd5b6001600160a01b038116036100d257565b600080fd5b346100d25760603660031901126100d25760206004356100f6816100c1565b61011960243591610106836100c1565b6101136044358092610a97565b92610a97565b12604051908152f35b346100d25760403660031901126100d257602061014d600435610144816100c1565b60243590610a97565b604051908152f35b346100d25760003660031901126100d25760206040517f00000000000000000000000000000000000000000000000000000000000000008152f35b60005b8381106101a35750506000910152565b8181015183820152602001610193565b604091602082526101d38151809281602086015260208686019101610190565b601f01601f1916010190565b346100d25760003660031901126100d2576102076101fb61080d565b604051918291826101b3565b0390f35b346100d25760403660031901126100d25760048035610229816100c1565b60405163133f757160e31b81526024358382019081526001600160a01b039283169061018090839081906020010381845afa9384156104c257600080958193829583926105af575b50602084916040519283809263c45a015560e01b82525afa9081156104c2576102e1916102d591600091610580575b506102a96106ed565b6001600160a01b0386168152906001600160a01b038b16602083015262ffffff881660408301526157ff565b6001600160a01b031690565b946102ed468985610a84565b92831598896000146105795780995b156105715750925b604051633850c7bd60e01b81529360e08587818b8d165afa9485156104c25760009561053a575b507f00000000000000000000000000000000000000000000000000000000000000008916908a8a169081830361052c5761036361080d565b818c1693840361051d5761037561080d565b915b604051936020858c8163313ce56760e01b948582525afa9485156104c2576000956104fb575b506020908b6040518098819382525afa9485156104c2578d9a8d916000976104c7575b506040516334324e9f60e21b81529b6020928d92918391165afa998a156104c25760009a610491575b506103f26106fc565b60243581526001600160a01b03909e1660208f01528d6001600160a01b039091166040919091015260608d015260808c015260ff1660a08b015260ff1660c08a0152151560e089015260020b61010088015260020b61012087015260020b61014086015260020b61016085015262ffffff16610180840152166001600160a01b03166101a082015261048390610ba4565b6040516102078192826101b3565b6104b4919a5060203d6020116104bb575b6104ac81836106cb565b810190610a70565b98386103e9565b503d6104a2565b6109b6565b6020929197506104ec90833d85116104f4575b6104e481836106cb565b810190610a5c565b9690916103c0565b503d6104da565b602091955061051690823d84116104f4576104e481836106cb565b949061039d565b610526826158bd565b91610377565b6105358c6158bd565b610363565b61055c91955060e03d811161056a575b61055481836106cb565b8101906109f4565b50505050509050933861032b565b503d61054a565b905092610304565b81996102fc565b6105a2915060203d6020116105a8575b61059a81836106cb565b8101906109c2565b386102a0565b503d610590565b91509450602096508293506105de91506101803d610180116105f9575b6105d681836106cb565b810190610910565b50505050509894509692909991945093989596929150610271565b503d6105cc565b634e487b7160e01b600052603260045260246000fd5b634e487b7160e01b600052601160045260246000fd5b600019811461063b5760010190565b610616565b634e487b7160e01b600052604160045260246000fd5b6060810190811067ffffffffffffffff82111761067257604052565b610640565b6020810190811067ffffffffffffffff82111761067257604052565b6040810190811067ffffffffffffffff82111761067257604052565b6080810190811067ffffffffffffffff82111761067257604052565b90601f8019910116810190811067ffffffffffffffff82111761067257604052565b604051906106fa82610656565b565b604051906101c0820182811067ffffffffffffffff82111761067257604052565b60405190610140820182811067ffffffffffffffff82111761067257604052565b60405190610160820182811067ffffffffffffffff82111761067257604052565b67ffffffffffffffff811161067257601f01601f191660200190565b6040519061078882610677565b60008252565b6040519061079b82610693565b6006825260203681840137565b906107b28261075f565b6107bf60405191826106cb565b82815280926107d0601f199161075f565b0190602036910137565b8051156107e75760200190565b610600565b8051600110156107e75760210190565b9081518110156107e7570160200190565b60005b602081108061088e575b1561082d576108289061062c565b610810565b610836816107a8565b907f00000000000000000000000000000000000000000000000000000000000000009060005b8181106108695750505090565b60208110156107e7578083610889921a61088382876107fc565b5361062c565b61085c565b156107e7577f0000000000000000000000000000000000000000000000000000000000000000811a60f81b6001600160f81b031916151561081a565b51906106fa826100c1565b519062ffffff821682036100d257565b51908160020b82036100d257565b51906fffffffffffffffffffffffffffffffff821682036100d257565b9190826101809103126100d25781516001600160601b03811681036100d2579161093c602082016108ca565b91610949604083016108ca565b91610956606082016108ca565b91610963608083016108d5565b9161097060a082016108e5565b9161097d60c083016108e5565b9161098a60e082016108f3565b9161010082015191610120810151916109b36101606109ac61014085016108f3565b93016108f3565b90565b6040513d6000823e3d90fd5b908160209103126100d257516109b3816100c1565b519061ffff821682036100d257565b519060ff821682036100d257565b908160e09103126100d2578051610a0a816100c1565b91610a17602083016108e5565b91610a24604082016109d7565b91610a31606083016109d7565b91610a3e608082016109d7565b9160c0610a4d60a084016109e6565b92015180151581036100d25790565b908160209103126100d2576109b3906109e6565b908160209103126100d2576109b3906108e5565b9161011381610a939394610a97565b1290565b6001600160a01b0390811691907f0000000000000000000000000000000000000000000000000000000000000000168214610b8557600114610ad95750600090565b73a0b86991c6218b36c1d19d4a2e9eb0ce3606eb488103610afb575061012c90565b73dac17f958d2ee523a2206206994597c13d831ec78103610b1c575060c890565b736b175474e89094c44da98b954eedeac495271d0f8103610b3d5750606490565b738daebade922df735c38c80c7ebd708af50815faa8103610b5f575060c71990565b732260fac5e5542a773aa44fbcfedf7c193bc2c59903610b805761012b1990565b600090565b505060631990565b90610ba060209282815194859201610190565b0190565b6109b3610cc0610d486020610d34610d26610d7d96610cc0610cfd610ce4610180840193610cc0610be9610be3610bde885162ffffff1690565b612034565b836111c9565b95610cc0610cc6610ca1610c9c610c96610c066060890151610ded565b610c3c60808a01918a610c36610c316101a0610c228751610ded565b9301516001600160a01b031690565b6123a1565b91610f02565b9689610c52610c4b8251615b93565b9351610ded565b6020610bde610c86610c316040610c77610c31610c909689015160018060a01b031690565b9601516001600160a01b031690565b945162ffffff1690565b93611032565b9661248c565b615d35565b986040519e8f9d8e01600990683d913730b6b2911d1160b91b81520190565b90610b8d565b71111610113232b9b1b934b83a34b7b7111d1160711b815260120190565b6c1116101134b6b0b3b2911d101160991b8152600d0190565b7f646174613a696d6167652f7376672b786d6c3b6261736536342c0000000000008152601a0190565b61227d60f01b815260020190565b0391610c9c601f19938481018352826106cb565b6040517f646174613a6170706c69636174696f6e2f6a736f6e3b6261736536342c0000006020820152938491603d8301610cc0565b039081018352826106cb565b60ff1660ff811461063b5760010190565b906001820180921161063b57565b906002820180921161063b57565b906004820180921161063b57565b90600a820180921161063b57565b906020820180921161063b57565b9190820180921161063b57565b906000805b835160ff821690811015610e5957610e30610e23610e15601160f91b93886107fc565b516001600160f81b03191690565b6001600160f81b03191690565b14610e44575b610e3f90610d89565b610df2565b90610e51610e3f91610d89565b919050610e36565b505060ff80911680610e69575050565b610e77610e7c918551610de0565b6107a8565b90600093845b815183821690811015610ef95790610ebb610e15610ed993601160f91b610eaf610e23610e15848a6107fc565b14610ede575b856107fc565b96610ed3610ec88261062c565b9860001a91876107fc565b53610d89565b610e82565b605c610ef3610eec8c61062c565b9b8a6107fc565b53610eb5565b50929450505050565b906110246109b392610cc0611016609b96610cc06040519889977f54686973204e465420726570726573656e74732061206c69717569646974792060208a01527f706f736974696f6e20696e206120556e6973776170205633200000000000000060408a01528651610f7b8160598c0160208b01610190565b8901602d60f81b6059820152610f9b825180936020605a85019101610190565b01660103837b7b617160cd1b605a8201527f546865206f776e6572206f662074686973204e46542063616e206d6f6469667960618201527f206f722072656465656d2074686520706f736974696f6e2e5c6e0000000000006081820152016010906f02e372837b7b61020b2323932b9b99d160851b81520190565b612e3760f11b815260020190565b03601f1981018352826106cb565b6110f861110891610cc060426110249596986109b3986040519a8b99602a6110788c6901020b2323932b9b99d160b51b9485602083015260208151948593019101610190565b8b01612e3760f11b602a820152611099825180936020602c85019101610190565b0190602c8201526110b4825180936020603685019101610190565b016b02e372332b2902a34b2b91d160a51b60368201526110dd8251809360208685019101610190565b0101600c906b02e372a37b5b2b71024a21d160a51b81520190565b632e372e3760e11b815260040190565b7fe29aa0efb88f20444953434c41494d45523a204475652064696c6967656e636581527f20697320696d7065726174697665207768656e20617373657373696e6720746860208201527f6973204e46542e204d616b65207375726520746f6b656e20616464726573736560408201527f73206d617463682074686520657870656374656420746f6b656e732c2061732060608201527f746f6b656e2073796d626f6c73206d617920626520696d6974617465642e00006080820152609e0190565b906111d76060830151610ded565b916111e56080820151610ded565b9060e08101906111f58251151590565b908161130d5761010081015160020b5b61016082019261124a61124361121c865160020b90565b9260c086019461122d865160ff1690565b60a088019561123d875160ff1690565b926113f7565b9551151590565b92836112ff57610120015160020b935b5160020b915160ff16905160ff1691611272946113f7565b6040516902ab734b9bbb0b81016960b51b6020820152948594919391602a860161129b91610b8d565b6201016960ed1b81526003016112b091610b8d565b602f60f81b81526001016112c391610b8d565b6201016960ed1b81526003016112d891610b8d565b611e1f60f11b81526002015b6112ed91610b8d565b03601f19810182526109b390826106cb565b610100015160020b9361125a565b61012081015160020b611205565b634e487b7160e01b600052601260045260246000fd5b60020b801561134357620d89e7190590565b61131b565b60020b801561134357620d89e80590565b60020b9060020b90811561134357627fffff19811460001983141661063b570590565b9060020b9060020b02908160020b91820361063b57565b801561134357600160c01b0490565b8015611343576000190490565b8115611343570490565b604051906113c682610693565b600382526226a4a760e91b6020830152565b604051906113e582610693565b600382526209a82b60eb1b6020830152565b9061141361140d8261140881611331565b61137c565b60020b90565b908260020b91821460001461143f57505050505015600014611437576109b36113b9565b6109b36113d8565b61140d8161140861144f93611348565b0361146b57505050611463576109b36113d8565b6109b36113b9565b926114786109b394611499565b901561195357611494906102d5906001600160a01b0316611393565b611953565b60020b60008112156118035780600003905b620d89e882116117f15760018216156117df576001600160881b036ffffcb933bd6fad37aa2d162d1a5940015b1691600281166117c3575b600481166117a7575b6008811661178b575b6010811661176f575b60208116611753575b60408116611737575b60809081811661171c575b6101008116611701575b61020081166116e6575b61040081166116cb575b61080081166116b0575b6110008116611695575b612000811661167a575b614000811661165f575b6180008116611644575b620100008116611629575b62020000811661160f575b6204000081166115f5575b62080000166115da575b506000126115cc575b63ffffffff81166115c4576000905b60201c60ff91909116016001600160a01b031690565b6001906115ae565b6115d5906113a2565b61159f565b6b048a170391f7dc42444e8fa26000929302901c9190611596565b6d2216e584f5fa1ea926041bedfe98909302811c9261158c565b926e5d6af8dedb81196699c329225ee60402811c92611581565b926f09aa508b5b7a84e1c677de54f3e99bc902811c92611576565b926f31be135f97d08fd981231505542fcfa602811c9261156b565b926f70d869a156d2a1b890bb3df62baf32f702811c92611561565b926fa9f746462d870fdf8a65dc1f90e061e502811c92611557565b926fd097f3bdfd2022b8845ad8f792aa582502811c9261154d565b926fe7159475a2c29b7443b29c7fa6e889d902811c92611543565b926ff3392b0822b70005940c7a398e4b70f302811c92611539565b926ff987a7253ac413176f2b074cf7815e5402811c9261152f565b926ffcbe86c7900a88aedcffc83b479aa3a402811c92611525565b926ffe5dee046a99a2a811c461f1969c305302811c9261151b565b916fff2ea16466c96a3843ec78b326b528610260801c91611510565b916fff973b41fa98c081472e6896dfb254c00260801c91611507565b916fffcb9843d60f6159c9db58835c9266440260801c916114fe565b916fffe5caca7e10e4e61c3624eaa0941cd00260801c916114f5565b916ffff2e50f5f656932ef12357cf3c7fdcc0260801c916114ec565b916ffff97272373d413259a46990580e213a0260801c916114e3565b6001600160881b03600160801b6114d8565b6040516315e4079d60e11b8152600490fd5b806114ab565b60ff6000199116019060ff821161063b57565b60ff6003199116019060ff821161063b57565b60ff16602b039060ff821161063b57565b60ff6001199116019060ff821161063b57565b9060ff8091169116039060ff821161063b57565b60405190610100820182811067ffffffffffffffff821117610672576040528160e06000918281528260208201528260408201528260608201528260808201528260a08201528260c08201520152565b60ff166007019060ff821161063b57565b60ff60019116019060ff821161063b57565b60ff60029116019060ff821161063b57565b60ff166001019060ff821161063b57565b602b0390602b821161063b57565b60001981019190821161063b57565b600503906005821161063b57565b60041981019190821161063b57565b60031981019190821161063b57565b9190820391821161063b57565b9061195e9291611f4c565b906119698280611b02565b600160601b92909211918215611aec5761198290611b91565b915b82836000945b611ad857506119a661199f6109b39495611809565b8092611e45565b929092611ac5575b611a4091926119bb611867565b93848315611a4c57611a26611a2b91611a1f611a15611a0f611a0a60ff88611a0460806119f26119ed611a359d61182f565b6118b7565b60ff1660208a01908152980160029052565b166118fd565b610d9a565b60ff1690565b60ff1660a08a0152565b5160ff1690565b611809565b60ff166040860152565b8352151560c0830152565b600060e0820152611cbc565b50600960ff821610611a9b57611a80611a26611a6a611a8a9361181c565b60ff166020880190815260056080890152611a1f565b60ff1660a0860152565b60046040850152611a35565b611a35565b611abb611a9691611aaf6020880160069052565b6005604088015261181c565b60ff166060860152565b611ad1611a4092610d89565b91506119ae565b93611ae4600a91610d89565b94048061198a565b611af590611b47565b91611984565b156100d257565b6000198282099082810292838084109303928084039314611b3e57600160401b91838311156100d2570990828211900360c01b910360401c1790565b50505060401c90565b620186a0906000198282099082810292838084109303928084039314611b8857600160801b91838311156100d2570990828211900360801b910360801c1790565b50505060801c90565b72047bf19673df52e37f2410011d100000000000906000198282099082810292838084109303928084039314611b8857600160801b91838311156100d2570990828211900360801b910360801c1790565b600160801b6000198183098260801b91828083109203918083039214611c53577003298b075b4b6a5240945790619b37fd4a90828211156100d2577f1f514b8ee5362595de309a65c03ce543f7e851e1625ea646b8fe88b81023b92d940990828211900360ff1b910360011c170290565b50507003298b075b4b6a5240945790619b37fd4a91500490565b7003298b075b4b6a5240945790619b37fd4a906000198282099082810292838084109303928084039314611b8857600160801b91838311156100d2570990828211900360801b910360801c1790565b611cd0610e77611a0f602084015160ff1690565b90611cde60e0820151151590565b611e2a575b60c0810151611e0d575b611cfe611a0f608083015160ff1690565b611d17611a0f611d1260a085015160ff1690565b6118c8565b811015611d3357806030610883611d2e93866107fc565b611cfe565b50915b825115611e0857611d4e611a0f606085015160ff1690565b8015159081611dee575b50611dc1575b611d89611d79611d708551600a900690565b60300160ff1690565b60f81b6001600160f81b03191690565b611db360408501611d9b815160ff1690565b60ff600019820181169092529260001a9216846107fc565b538251600a90048352611d36565b602e611de860408501611dd5815160ff1690565b60ff6000198201811690925216846107fc565b53611d5e565b905060ff611e00604086015160ff1690565b161438611d58565b915090565b6030611e18836107da565b53602e611e24836107ec565b53611ced565b6025611e3f611e39845161190b565b846107fc565b53611ce3565b6000929160ff1660058111611e91575b50600a60048183061191048091611e81575b50620186a08114611e76579190565b600a90049150600190565b611e8b9150610d9a565b38611e67565b6004190160ff811161063b5760ff16604d811161063b57600a0a908115611343570438611e55565b8181039291600013801582851316918412161761063b57565b604d811161063b57600a0a90565b908160070291600783040361063b57565b600381901b91906001600160fd1b0381160361063b57565b600181901b91906001600160ff1b0381160361063b57565b600281901b91906001600160fe1b0381160361063b57565b8181029291811591840414171561063b57565b60ff9182169392909116611f68611f638286611eb9565b611ffa565b9384151580611fef575b15611fe057600192839290911115611fb357611fa090611f9386841c611ed2565b90838060a01b0316611f39565b931614611fa957565b906109b390611c6d565b611fcf90611fc286841c611ed2565b90838060a01b03166113af565b9316036106fa57906109b390611be2565b50506001600160a01b03169150565b506012851115611f72565b6000808212612007575090565b600160ff1b821461063b570390565b6040519061202382610693565b6002825261302560f01b6020830152565b62ffffff80821680156123965761205761204c6106ed565b62ffffff9094168452565b6020830160009283825260408501938085525b81612078875162ffffff1690565b168015612110578261208b855160ff1690565b9160ff8316156120ee575050506120b56120ae6120a9855160ff1690565b610d89565b60ff168452565b6120bf855161062c565b85526120e96120e06120d4885162ffffff1690565b62ffffff600a91160490565b62ffffff168752565b61206a565b600a9006166120fe575b506120b5565b6120ae61210a91610d89565b386120f8565b5094505091909161211f611867565b8251909390600581106122fa5750918394918493600461214e8451612148611a0f865160ff1690565b90611946565b106122f15760ff845b169687926121658551611928565b612176611a0f611a26845160ff1690565b111561227957808661221d611a0f6109b39c6121ea8461220661226d9e60406121fe611a0f6122429f6121ea61223c9f6122379f611a0f916122279f6121f4611a0f6121ef611a1f936121dc60806121d2611a26995160ff1690565b60ff169701968752565b6121ea611a0f875160ff1690565b610de0565b61190b565b60ff1660a08b0152565b60ff16910152565b612217611a0f611d12895160ff1690565b90610de0565b60ff1660208b0152565b612148611a0f8751925160ff1690565b611ed2565b906113af565b8452600160e0850152519060048211156122725750611a0f61226391611937565b60ff166060830152565b611cbc565b9050612263565b80855161228590611928565b815160ff1661229390611809565b60ff1661229f91611946565b61221d611a0f6109b39c6121ea8461220661226d9e60406121fe611a0f6122429f6121ea61223c9f6122379f611a0f916122279f6121f4611a0f6121ef611a1f936121dc60806121d2611a2699611a1f565b60ff6001612157565b61226d939161223c6122376109b3989561238a61238061237b8b611a1f6020612371611a0f61232b6122429d61191a565b61235b612351611a0f6121ef61234b611a0f60808c01611a1f8160029052565b85610de0565b60ff1660a0880152565b612217611a0f61236c8c5160ff1690565b6118da565b60ff169201918252565b611840565b60ff1660408b0152565b600160c08a0152612227565b5050506109b3612016565b604051906001600160a01b03166123b782610656565b602a8252604036602084013760306123ce836107da565b5360786123da836107ec565b536029905b600182116123f2576109b3915015612441565b600f81169060108210156107e75761242e916f181899199a1a9b1b9c1cb0b131b232b360811b901a61242484866107fc565b5360041c91612434565b906123df565b801561063b576000190190565b1561244857565b606460405162461bcd60e51b815260206004820152602060248201527f537472696e67733a20686578206c656e67746820696e73756666696369656e746044820152fd5b6020810180519091906124a7906001600160a01b0316612791565b604082018051909291906124c3906001600160a01b0316612791565b84519092906124da906001600160a01b03166127f1565b84519092906124f1906001600160a01b03166127f1565b86518351612507916001600160a01b031661284e565b61251090612739565b86518451612526916001600160a01b031661284e565b61252f90612765565b88518551612545916001600160a01b0316612863565b61254e90612739565b88518651919391612567916001600160a01b0316612863565b61257090612765565b8a518751919591612589916001600160a01b0316612874565b61259290612739565b8a5188519199916125ab916001600160a01b0316612874565b6125b490612765565b996125bd61071d565b978852602088015260408701526060860152608085015260a084015260c083015260e0820152610100928382015261012093848201526125fc90612a39565b94516001600160a01b0316612610906123a1565b93516001600160a01b0316612624906123a1565b6101a08201519093906001600160a01b03169260608301519060808401516101808501516126549062ffffff1690565b61265d90612034565b8583015160020b90858701516126739060020b90565b926101608801516126849060020b90565b95610140998a8a01516126979060020b90565b6126a2908787612715565b99519b6126ad61073e565b9d8e5260208e01526001600160a01b031660408d015260608c015260808b015260a08a015260020b60c089015260020b60e08801528601906126f1919060020b9052565b840190612700919060000b9052565b82015261270c906128d7565b6109b391612885565b600292830b920b82121561272b57505060001990565b60020b1215610b8057600190565b6101029081810291818304149015171561063b5760ff90046010810180911161063b576109b390615b93565b6101809081810291818304149015171561063b5760ff90046064810180911161063b576109b390615b93565b60881c61279c61078e565b90815190815b6127ab57505090565b600f81169060108210156107e757600019830183811161063b576127ea926f181899199a1a9b1b9c1cb0b131b232b360811b901a9061242490866107fc565b90816127a2565b6127f961078e565b90815190815b61280857505090565b600f81169060108210156107e757600019830183811161063b57612847926f181899199a1a9b1b9c1cb0b131b232b360811b901a9061242490866107fc565b90816127ff565b60ff918261285f9260101c16611f39565b0690565b60ff918261285f9260201c16611f39565b60ff918261285f9260301c16611f39565b60266109b39160405193816128a4869351809260208087019101610190565b82016128b98251809360208085019101610190565b01651e17b9bb339f60d11b60208201520360068101845201826106cb565b6109b3610cc091611024815191610cc06129156020830151612906606085019687516080870193845192613971565b9551905160a085015191613ea8565b91610cc060c08201610cc06129a761292e835160020b90565b946129a1604061299061296360e085019961294a8b5160020b90565b61010087015160020b9061012088015160000b92614173565b9661014085019961298a61298261297a8d51615b93565b935160020b90565b915160020b90565b916149b6565b97519201516001600160a01b031690565b9061536f565b956040519a8b9960208b0190610b8d565b7f3c7376672077696474683d2732393027206865696768743d273530302720766981527f6577426f783d2730203020323930203530302720786d6c6e733d27687474703a60208201527f2f2f7777772e77332e6f72672f323030302f737667273e3c636972636c652063604082015262783d2760e81b606082015260630190565b805160409081519182602092838201612af2906081907f3c7376672077696474683d2732393027206865696768743d273530302720766981527f6577426f783d2730203020323930203530302720786d6c6e733d27687474703a60208201527f2f2f7777772e77332e6f72672f323030302f737667273e3c726563742077696460408201527f74683d27323930707827206865696768743d273530307078272066696c6c3d276060820152602360f81b60808201520190565b612afb91610b8d565b6813979f1e17b9bb339f60b91b81526009010392601f19938481018252612b2290826106cb565b612b2b90615d35565b93608081015160a082015190848301518451928392878401612b4c906129b8565b612b5591610b8d565b65272063793d2760d01b8152600601612b6d91610b8d565b722720723d273132307078272066696c6c3d272360681b8152601301612b9291610b8d565b6813979f1e17b9bb339f60b91b8152600901038581018252612bb490826106cb565b612bbd90615d35565b60c082015160e083015184840151855192839290612bdc8985016129b8565b612be591610b8d565b65272063793d2760d01b8152600601612bfd91610b8d565b722720723d273132307078272066696c6c3d272360681b8152601301612c2291610b8d565b6813979f1e17b9bb339f60b91b8152600901038681018252612c4490826106cb565b612c4d90615d35565b906101008301516101208401519060608501518651928392898401612c71906129b8565b612c7a91610b8d565b65272063793d2760d01b8152600601612c9291610b8d565b722720723d273130307078272066696c6c3d272360681b8152601301612cb791610b8d565b6813979f1e17b9bb339f60b91b8152600901038781018252612cd990826106cb565b612ce290615d35565b925193517f3c7376672077696474683d2232393022206865696768743d22353030222076699581019586527f6577426f783d2230203020323930203530302220786d6c6e733d22687474703a6020870152751797bbbbbb973b999737b933979918181817b9bb339160511b60408701529687956056017f20786d6c6e733a786c696e6b3d27687474703a2f2f7777772e77332e6f72672f81526b189c9c9c97bc3634b735939f60a11b6020820152602c01651e3232b3399f60d11b81526006017f3c66696c7465722069643d226631223e3c6665496d61676520726573756c743d81527f2270302220786c696e6b3a687265663d22646174613a696d6167652f7376672b60208201526a1e1b5b0ed8985cd94d8d0b60aa1b6040820152604b01612e0b91610b8d565b7f222f3e3c6665496d61676520726573756c743d2270312220786c696e6b3a687281527f65663d22646174613a696d6167652f7376672b786d6c3b6261736536342c00006020820152603e01612e6091610b8d565b7f222f3e3c6665496d61676520726573756c743d2270322220786c696e6b3a687281527f65663d22646174613a696d6167652f7376672b786d6c3b6261736536342c00006020820152603e01612eb591610b8d565b631110179f60e11b81526004017f3c6665496d61676520726573756c743d2270332220786c696e6b3a687265663d81527f22646174613a696d6167652f7376672b786d6c3b6261736536342c00000000006020820152603b01612f1791610b8d565b7f22202f3e3c6665426c656e64206d6f64653d226f7665726c61792220696e3d2281527f70302220696e323d22703122202f3e3c6665426c656e64206d6f64653d22657860208201527f636c7573696f6e2220696e323d22703222202f3e3c6665426c656e64206d6f6460408201527f653d226f7665726c61792220696e323d2270332220726573756c743d22626c6560608201527f6e644f757422202f3e3c6665476175737369616e426c7572200000000000000060808201526099017f696e3d22626c656e644f75742220737464446576696174696f6e3d223432222081527f2f3e3c2f66696c7465723e203c636c6970506174682069643d22636f726e657260208201527f73223e3c726563742077696474683d2232393022206865696768743d2235303060408201527f222072783d223432222072793d22343222202f3e3c2f636c6970506174683e006060820152607f017f3c706174682069643d22746578742d706174682d612220643d224d343020313281527f204832353020413238203238203020302031203237382034302056343630204160208201527f323820323820302030203120323530203438382048343020413238203238203060408201527f20302031203132203436302056343020413238203238203020302031203430206060820152671899103d1110179f60c11b60808201526088017f3c706174682069643d226d696e696d61702220643d224d32333420343434433281527f3334203435372e393439203234322e323120343633203235332034363322202f6020820152601f60f91b60408201526041017f3c66696c7465722069643d22746f702d726567696f6e2d626c7572223e3c666581527f476175737369616e426c757220696e3d22536f7572636547726170686963222060208201527f737464446576696174696f6e3d22323422202f3e3c2f66696c7465723e0000006040820152605d017f3c6c696e6561724772616469656e742069643d22677261642d7570222078313d81527f2231222078323d2230222079313d2231222079323d2230223e3c73746f70206f60208201527f66667365743d22302e30222073746f702d636f6c6f723d2277686974652220736040820152713a37b816b7b830b1b4ba3c9e91189110179f60711b60608201526072017f3c73746f70206f66667365743d222e39222073746f702d636f6c6f723d22776881527f697465222073746f702d6f7061636974793d223022202f3e3c2f6c696e65617260208201526823b930b234b2b73a1f60b91b60408201526049017f3c6c696e6561724772616469656e742069643d22677261642d646f776e22207881527f313d2230222078323d2231222079313d2230222079323d2231223e3c73746f7060208201527f206f66667365743d22302e30222073746f702d636f6c6f723d2277686974652260408201527f2073746f702d6f7061636974793d223122202f3e3c73746f70206f666673657460608201527f3d22302e39222073746f702d636f6c6f723d227768697465222073746f702d6f60808201527f7061636974793d223022202f3e3c2f6c696e6561724772616469656e743e000060a082015260be017f3c6d61736b2069643d22666164652d757022206d61736b436f6e74656e74556e81527f6974733d226f626a656374426f756e64696e67426f78223e3c7265637420776960208201527f6474683d223122206865696768743d2231222066696c6c3d2275726c2823677260408201527030b216bab8149110179f1e17b6b0b9b59f60791b60608201526071017f3c6d61736b2069643d22666164652d646f776e22206d61736b436f6e74656e7481527f556e6974733d226f626a656374426f756e64696e67426f78223e3c726563742060208201527f77696474683d223122206865696768743d2231222066696c6c3d2275726c282360408201527433b930b216b237bbb7149110179f1e17b6b0b9b59f60591b60608201526075017f3c6d61736b2069643d226e6f6e6522206d61736b436f6e74656e74556e69747381527f3d226f626a656374426f756e64696e67426f78223e3c7265637420776964746860208201527f3d223122206865696768743d2231222066696c6c3d22776869746522202f3e3c60408201526517b6b0b9b59f60d11b60608201526066017f3c6c696e6561724772616469656e742069643d22677261642d73796d626f6c2281527f3e3c73746f70206f66667365743d22302e37222073746f702d636f6c6f723d2260208201527f7768697465222073746f702d6f7061636974793d223122202f3e3c73746f702060408201527f6f66667365743d222e3935222073746f702d636f6c6f723d227768697465222060608201527f73746f702d6f7061636974793d223022202f3e3c2f6c696e656172477261646960808201526332b73a1f60e11b60a082015260a4017f3c6d61736b2069643d22666164652d73796d626f6c22206d61736b436f6e746581527f6e74556e6974733d227573657253706163654f6e557365223e3c72656374207760208201527f696474683d22323930707822206865696768743d223230307078222066696c6c60408201527f3d2275726c2823677261642d73796d626f6c2922202f3e3c2f6d61736b3e3c2f6060820152643232b3399f60d91b60808201526085017f3c6720636c69702d706174683d2275726c2823636f726e65727329223e0000008152601d016b1e3932b1ba103334b6361e9160a11b8152600c016136ff91610b8d565b7f2220783d223070782220793d22307078222077696474683d22323930707822208152703432b4b3b43a1e911a9818383c1110179f60791b60208201526031017f3c72656374207374796c653d2266696c7465723a2075726c282366312922207881527f3d223070782220793d22307078222077696474683d223239307078222068656960208201526d33b43a1e911a9818383c1110179f60911b6040820152604e017f203c67207374796c653d2266696c7465723a75726c2823746f702d726567696f81527f6e2d626c7572293b207472616e73666f726d3a7363616c6528312e35293b207460208201527f72616e73666f726d2d6f726967696e3a63656e74657220746f703b223e0000006040820152605d017f3c726563742066696c6c3d226e6f6e652220783d223070782220793d2230707881527f222077696474683d22323930707822206865696768743d22353030707822202f6020820152601f60f91b60408201526041017f3c656c6c697073652063783d22353025222063793d22307078222072783d223181527f38307078222072793d223132307078222066696c6c3d222330303022206f706160208201527131b4ba3c9e9118171c1a9110179f1e17b39f60711b60408201526052017f3c7265637420783d22302220793d2230222077696474683d223239302220686581527f696768743d22353030222072783d223432222072793d223432222066696c6c3d60208201527f227267626128302c302c302c302922207374726f6b653d22726762612832353560408201527416191a9a96191a9a96181719149110179f1e17b39f60591b60608201526075010390810182526109b390826106cb565b604080517f3c7465787420746578742d72656e646572696e673d226f7074696d697a65537060208201526432b2b2111f60d91b918101919091527f3c74657874506174682073746172744f66667365743d222d313030252220666960458201527f6c6c3d2277686974652220666f6e742d66616d696c793d2227436f757269657260658201527f204e6577272c206d6f6e6f73706163652220666f6e742d73697a653d2231307060858201527f782220786c696e6b3a687265663d2223746578742d706174682d61223e00000060a582015293849392613a5460c2860182610b8d565b64010714051160dd1b8152600501613a6c9083610b8d565b600080516020615e1a8339815191528152600080516020615e3a83398151915260208201527f6f3d22313030252220626567696e3d22307322206475723d223330732220726560408201527f70656174436f756e743d22696e646566696e69746522202f3e0000000000000060608201526079017f3c2f74657874506174683e203c74657874506174682073746172744f6666736581527f743d223025222066696c6c3d2277686974652220666f6e742d66616d696c793d60208201527f2227436f7572696572204e6577272c206d6f6e6f73706163652220666f6e742d60408201527f73697a653d22313070782220786c696e6b3a687265663d2223746578742d70616060820152653a3416b0911f60d11b6080820152608601613b9091610b8d565b64010714051160dd1b8152600501613ba791610b8d565b600080516020615e1a8339815191528152600080516020615e3a83398151915260208201527f6f3d22313030252220626567696e3d22307322206475723d223330732220726560408201527f70656174436f756e743d22696e646566696e69746522202f3e203c2f746578746060820152642830ba341f60d91b60808201526085017f3c74657874506174682073746172744f66667365743d22353025222066696c6c81527f3d2277686974652220666f6e742d66616d696c793d2227436f7572696572204e60208201527f6577272c206d6f6e6f73706163652220666f6e742d73697a653d22313070782260408201527f20786c696e6b3a687265663d2223746578742d706174682d61223e00000000006060820152607b01613ccb9082610b8d565b64010714051160dd1b8152600501613ce39083610b8d565b600080516020615e1a8339815191528152600080516020615e3a83398151915260208201527f6f3d22313030252220626567696e3d22307322206475723d22333073220000006040820152605d017f20726570656174436f756e743d22696e646566696e69746522202f3e3c2f746581527f7874506174683e3c74657874506174682073746172744f66667365743d222d3560208201527f3025222066696c6c3d2277686974652220666f6e742d66616d696c793d22274360408201527f6f7572696572204e6577272c206d6f6e6f73706163652220666f6e742d73697a60608201527f653d22313070782220786c696e6b3a687265663d2223746578742d706174682d60808201526230911f60e91b60a082015260a301613e0491610b8d565b64010714051160dd1b8152600501613e1b91610b8d565b600080516020615e1a8339815191528152600080516020615e3a83398151915260208201527f6f3d22313030252220626567696e3d22307322206475723d223330732220726560408201527f70656174436f756e743d22696e646566696e69746522202f3e3c2f746578745060608201526a30ba341f1e17ba32bc3a1f60a91b6080820152608b016112ed565b611024614098614081613fd595610cc0613fe66109b397610cc060ed806040519c8d809c7f3c67206d61736b3d2275726c2823666164652d73796d626f6c29223e3c72656360208301527f742066696c6c3d226e6f6e652220783d223070782220793d223070782220776960408301527f6474683d22323930707822206865696768743d22323030707822202f3e203c7460608301527f65787420793d22373070782220783d2233327078222066696c6c3d227768697460808301527f652220666f6e742d66616d696c793d2227436f7572696572204e6577272c206d60a08301527f6f6e6f73706163652220666f6e742d7765696768743d223230302220666f6e7460c08301526c16b9b4bd329e91199b383c111f60991b60e083015260208151948593019101610190565b8a0101600190602f60f81b81520190565b7f3c2f746578743e3c7465787420793d2231313570782220783d2233327078222081527f66696c6c3d2277686974652220666f6e742d66616d696c793d2227436f75726960208201527f6572204e6577272c206d6f6e6f73706163652220666f6e742d7765696768743d60408201527f223230302220666f6e742d73697a653d2233367078223e000000000000000000606082015260770190565b6a1e17ba32bc3a1f1e17b39f60a91b8152600b0190565b7f3c7265637420783d2231362220793d223136222077696474683d22323538222081527f6865696768743d22343638222072783d223236222072793d223236222066696c60208201527f6c3d227267626128302c302c302c302922207374726f6b653d227267626128326040820152721a9a96191a9a96191a9a96181719149110179f60691b606082015260730190565b6040519061413682610693565b600a82526911b330b23296b237bbb760b11b6020830152565b6040519061415c82610693565b6008825267023666164652d75760c41b6020830152565b91614199918460000b60006001821460001461441f57505061419361414f565b93614635565b916141a390614744565b6040516c078ce40dac2e6d67a44eae4d85609b1b60208201529283926141cc602d850182610b8d565b61149160f11b81526002017f207374796c653d227472616e73666f726d3a7472616e736c617465283732707881527f2c313839707829223e3c7265637420783d222d313670782220793d222d31367060208201527f78222077696474683d22313830707822206865696768743d223138307078222060408201527f66696c6c3d226e6f6e6522202f3e3c7061746820643d2200000000000000000060608201526077016142799083610b8d565b7f22207374726f6b653d227267626128302c302c302c302e332922207374726f6b81527f652d77696474683d2233327078222066696c6c3d226e6f6e6522207374726f6b6020820152733296b634b732b1b0b81e913937bab7321110179f60611b6040820152605401700785ece7c78ce40dac2e6d67a44eae4d85607b1b815260110161430591610b8d565b61149160f11b81526002017f207374796c653d227472616e73666f726d3a7472616e736c617465283732707881526816189c1cb83c14911f60b91b60208201526029017f3c7265637420783d222d313670782220793d222d31367078222077696474683d81527f22313830707822206865696768743d223138307078222066696c6c3d226e6f6e602082015264329110179f60d91b6040820152604501681e3830ba3410321e9160b91b81526009016143bd91610b8d565b7f22207374726f6b653d2272676261283235352c3235352c3235352c312922206681527f696c6c3d226e6f6e6522207374726f6b652d6c696e656361703d22726f756e646020820152671110179f1e17b39f60c11b60408201526048016112e4565b501961442d57614193614129565b60405161443981610693565b6005815264236e6f6e6560d81b6020820152614193565b600291820b910b0390627fffff198212627fffff83131761063b57565b6040519061447a82610693565b601882527f4d312031433120393720343920313435203134352031343500000000000000006020830152565b604051906144b382610693565b601a82527f4d31203143312038392035372e352031343520313435203134350000000000006020830152565b604051906144ec82610693565b601882527f4d312031433920383120363520313337203134352031343500000000000000006020830152565b6040519061452582610693565b601982527f4d312031433137203733203733203132392031343520313435000000000000006020830152565b6040519061455e82610693565b601982527f4d312031433235203635203831203132312031343520313435000000000000006020830152565b6040519061459782610693565b601982527f4d312031433333203537203839203131332031343520313435000000000000006020830152565b604051906145d082610693565b601982527f4d312031433333203439203937203131332031343520313435000000000000006020830152565b6040519061460982610693565b601a82527f4d312031433431203431203130352031303520313435203134350000000000006020830152565b614643906146489392614450565b611359565b60020b6004811361465c57506109b36145fc565b6008811361466d57506109b36145c3565b6010811361467e57506109b361458a565b6020811361468f57506109b3614551565b604081136146a057506109b3614518565b608081136146b157506109b36144df565b610100126146c1576109b36144a6565b6109b361446d565b604051906146d682610693565b6002825261373360f01b6020830152565b604051906146f482610693565b600382526203139360ec1b6020830152565b6040519061471382610693565b600382526232313760e81b6020830152565b6040519061473282610693565b60038252620ccccd60ea1b6020830152565b61474c6146c9565b6147546146e7565b9161475d614706565b614765614725565b9160000b60018114801561495c575b15614890576109b393610cc06147e9602095610cc06147fd61102497610cc06147e9610cc09d6148369a600019149687600014614889578a5b88156148825782955b891561487a5750975b156148725750985b6040516b1e31b4b931b6329031bc1e9160a11b9d81019d8e529e8f9d600c0190565b67383c111031bc9e9160c11b815260080190565b7f70782220723d22347078222066696c6c3d22776869746522202f3e3c6369726381526636329031bc1e9160c91b602082015260270190565b7f70782220723d2232347078222066696c6c3d226e6f6e6522207374726f6b653d815269113bb434ba329110179f60b11b6020820152602a0190565b9050986147c7565b9050976147bf565b81956147b6565b849a6147ad565b506040516b1e31b4b931b6329031bc1e9160a11b6020820152938493602c85016148b991610b8d565b67383c111031bc9e9160c11b81526008016148d391610b8d565b7f70782220723d22347078222066696c6c3d22776869746522202f3e00000000008152601b016b1e31b4b931b6329031bc1e9160a11b8152600c0161491791610b8d565b67383c111031bc9e9160c11b815260080161493191610b8d565b7f70782220723d22347078222066696c6c3d22776869746522202f3e00000000008152601b016112ed565b506000198114614774565b7f707822206865696768743d2232367078222072783d22387078222072793d223881527f7078222066696c6c3d227267626128302c302c302c302e362922202f3e0000006020820152603d0190565b916149c082614fbf565b906149ca81614fbf565b84516149d590610db6565b9183516149e190610dc4565b9482516149ed90610dc4565b916149f79161524d565b949093614a0390610db6565b614a0c90611ee0565b614a1590615b93565b95614a1f90610db6565b614a2890611ee0565b614a3190615b93565b91614a3b90610db6565b614a4490611ee0565b614a4d90615b93565b9160405197889760208901614a9c90602d907f203c67207374796c653d227472616e73666f726d3a7472616e736c617465283281526c1cb83c1610199c1a383c14911f60991b60208201520190565b6c1e3932b1ba103bb4b23a341e9160991b8152600d01614abb91610b8d565b614ac490614967565b7f3c7465787420783d22313270782220793d22313770782220666f6e742d66616d81527f696c793d2227436f7572696572204e6577272c206d6f6e6f737061636522206660208201527f6f6e742d73697a653d2231327078222066696c6c3d227768697465223e3c747360408201527f70616e2066696c6c3d2272676261283235352c3235352c3235352c302e36292260608201526c1f24a21d101e17ba39b830b71f60991b6080820152608d01614b7b91610b8d565b6a1e17ba32bc3a1f1e17b39f60a91b8152600b017f203c67207374796c653d227472616e73666f726d3a7472616e736c617465283281526c1cb83c16101a189a383c14911f60991b6020820152602d016c1e3932b1ba103bb4b23a341e9160991b8152600d01614bea91610b8d565b614bf390614967565b7f3c7465787420783d22313270782220793d22313770782220666f6e742d66616d81527f696c793d2227436f7572696572204e6577272c206d6f6e6f737061636522206660208201527f6f6e742d73697a653d2231327078222066696c6c3d227768697465223e3c747360408201527f70616e2066696c6c3d2272676261283235352c3235352c3235352c302e3629226060820152721f26b4b7102a34b1b59d101e17ba39b830b71f60691b6080820152609301614cb091610b8d565b6a1e17ba32bc3a1f1e17b39f60a91b8152600b017f203c67207374796c653d227472616e73666f726d3a7472616e736c617465283281526c1cb83c16101a1a1a383c14911f60991b6020820152602d016c1e3932b1ba103bb4b23a341e9160991b8152600d01614d1f91610b8d565b614d2890614967565b7f3c7465787420783d22313270782220793d22313770782220666f6e742d66616d81527f696c793d2227436f7572696572204e6577272c206d6f6e6f737061636522206660208201527f6f6e742d73697a653d2231327078222066696c6c3d227768697465223e3c747360408201527f70616e2066696c6c3d2272676261283235352c3235352c3235352c302e3629226060820152721f26b0bc102a34b1b59d101e17ba39b830b71f60691b6080820152609301614de591610b8d565b7f3c2f746578743e3c2f673e3c67207374796c653d227472616e73666f726d3a7481527f72616e736c6174652832323670782c20343333707829223e000000000000000060208201526038017f3c726563742077696474683d223336707822206865696768743d22333670782281527f2072783d22387078222072793d22387078222066696c6c3d226e6f6e6522207360208201527f74726f6b653d2272676261283235352c3235352c3235352c302e322922202f3e60408201526060017f3c70617468207374726f6b652d6c696e656361703d22726f756e642220643d2281527f4d38203943382e30303030342032322e393439342031362e323039392032382060208201527f3237203238222066696c6c3d226e6f6e6522207374726f6b653d2277686974656040820152631110179f60e11b60608201526064017f3c636972636c65207374796c653d227472616e73666f726d3a7472616e736c618152640e8ca66c8560db1b6020820152602501614f5f91610b8d565b630383c16160e51b8152600401614f7591610b8d565b7f70782c2030707829222063783d22307078222063793d223070782220723d2234815275383c11103334b6361e913bb434ba3291179f1e17b39f60511b60208201526036016112ed565b604051614fcb81610677565b60008152908060020b6000811261502a575b506020614ff162ffffff6109b39316615b93565b92604051938161500a8693518092868087019101610190565b820161501e82518093868085019101610190565b010380845201826106cb565b9150506000038060020b90810361063b576109b36020614ff162ffffff60405161505381610693565b60018152602d60f81b848201529493505050614fdd565b9060020b9060020b0190627fffff198212627fffff83131761063b57565b6040519061509582610693565b60028252610c8d60f21b6020830152565b604051906150b382610693565b6002825261323760f01b6020830152565b604051906150d182610693565b6002825261323160f01b6020830152565b604051906150ef82610693565b6002825261062760f31b6020830152565b6040519061510d82610693565b6002825261191b60f11b6020830152565b6040519061512b82610693565b6002825261313560f01b6020830152565b6040519061514982610693565b6002825261323560f01b6020830152565b6040519061516782610693565b6002825261313360f01b6020830152565b6040519061518582610693565b6002825261323360f01b6020830152565b604051906151a382610693565b6002825261313160f01b6020830152565b604051906151c182610693565b6002825261031360f41b6020830152565b604051906151df82610693565b60018252600760fb1b6020830152565b604051906151fc82610693565b600582526431342e323560d81b6020830152565b6040519061521d82610693565b600482526331302e3560e01b6020830152565b6040519061523d82610693565b60018252603760f81b6020830152565b6152639161525a9161506a565b600290810b0590565b60020b6201e84719811215615284575061527b6151d2565b906109b3615230565b620124f7198112156152a257506152996151d2565b906109b3615210565b6161a7198112156152bf57506152b66151d2565b906109b36151ef565b611387198112156152dc57506152d36151b4565b906109b36150e2565b60008112156152f757506152ee615196565b906109b36150c4565b611388811215615313575061530a61515a565b906109b3615178565b6161a881121561532f575061532661511e565b906109b361513c565b620124f881121561534c57506153436150e2565b906109b3615100565b6201e84813156153675761535e6150c4565b906109b36150a6565b61535e615088565b90615422611a0f61541d6154279360405160208101918783526001600160601b03199060601b166040820152603481526153a881610656565b51902094806000916153bb811515611afb565b600160801b8110156157db575b5080600160401b60029210156157cc575b6401000000008110156157bd575b620100008110156157ae575b61010081101561579f575b6010811015615790575b6004811015615782575b1015615777576157ea565b6118ec565b6113a2565b111561576f576040516109b3816110246156c761561961558a6154f960208601608d907f3c67207374796c653d227472616e73666f726d3a7472616e736c61746528323281527f3670782c20333932707829223e3c726563742077696474683d2233367078222060208201527f6865696768743d2233367078222072783d22387078222072793d22387078222060408201527f66696c6c3d226e6f6e6522207374726f6b653d2272676261283235352c32353560608201526c16191a9a96181719149110179f60991b60808201520190565b7f3c673e3c70617468207374796c653d227472616e73666f726d3a7472616e736c81527f617465283670782c367078292220643d224d313220304c31322e36353232203960208201527f2e35363538374c313820312e363037374c31332e373831392031302e32313831604082015272026191917199c9919901b26189a171a199a189606d1b606082015260730190565b7f31312e333437384c32342031324c31342e343334312031322e363532324c323281527f2e333932332031384c31332e373831392031332e373831394c31382032322e3360208201527f3932334c31322e363532322031342e343334314c31322032344c31312e333437604082015270382031342e343334314c362032322e333960781b606082015260710190565b7f32334c31302e323138312031332e373831394c312e363037372031384c392e3581527f363538372031322e363532324c302031324c392e35363538372031312e33343760208201527f384c312e3630373720364c31302e323138312031302e323138314c3620312e3660408201527f3037374c31312e3334373820392e35363538374c313220305a222066696c6c3d606082015269113bb434ba329110179f60b11b6080820152608a0190565b7f3c616e696d6174655472616e73666f726d206174747269627574654e616d653d81527f227472616e73666f726d2220747970653d22726f74617465222066726f6d3d2260208201527f302031382031382220746f3d2233363020313820313822206475723d2231307360408201527f2220726570656174436f756e743d22696e646566696e697465222f3e3c2f673e6060820152631e17b39f60e11b608082015260840190565b6109b361077b565b60010160ff166157ea565b91810160ff1691811c615412565b600492830160ff16921c615408565b600892830160ff16921c6153fe565b601092830160ff16921c6153f3565b602092830160ff16921c6153e7565b604092830160ff16921c6153d9565b60809250821c905060026153c8565b60011b906101fe60fe83169216820361063b57565b815160208301516001600160a01b0390811693929116838110156100d2576109b39362ffffff60406102d59501511660405191602083019384526040830152606082015260608152615850816106af565b51902060405190602082019260ff60f81b84526001600160601b03199060601b16602183015260358201527fafdcfa68011d3a0dc97e7fa6dd04c309753a80999bb518850c2d8cc001ab95476055820152605581526158ae816106af565b5190206001600160a01b031690565b6158c681615a55565b908151156158d2575090565b90506158dc61078e565b906001600160a01b03166000805b600381106158f85750505090565b60139080820391821161063b5761595761591f8561591861597095611ef1565b1c60ff1690565b61593b600f61593160f0841684611853565b9260041c16615975565b61595161594785611f09565b91871a91896107fc565b53615975565b610883615966611a0a84611f09565b91851a91876107fc565b6158ea565b60ff16600a81101561599c5760300160ff811161063b5760f81b6001600160f81b03191690565b60370160ff811161063b5760f81b6001600160f81b03191690565b3d156159e2573d906159c88261075f565b916159d660405193846106cb565b82523d6000602084013e565b606090565b6020818303126100d25780519067ffffffffffffffff82116100d2570181601f820112156100d2578051615a1a8161075f565b92615a2860405194856106cb565b818452602082840101116100d2576109b39160208085019101610190565b908160209103126100d2575190565b60008060405192602093848101906395d89b4160e01b825260048152615a7a81610693565b51915afa615a866159b7565b90158015615ae4575b615ada578051828103615ab7575080826109b393615ab293518301019101615a46565b615aed565b9160408311615acb575050506109b361077b565b806109b39383010191016159e7565b50506109b361077b565b50805115615a8f565b9060405191615afb83610693565b6020808452803681860137600091825b828110615b5357505050615b1e816107a8565b9060005b818110615b30575090925050565b80615b41610e15615b4e93886107fc565b60001a61088382866107fc565b615b22565b81811a60f881901b6001600160f81b031916615b79575b50615b749061062c565b615b0b565b84615b8c91610883615b7494978a6107fc565b9390615b6a565b806000917a184f03e93ff9f4daa797ed6e38ed64bf6a1f01000000000000000080821015615cc8575b506d04ee2d6d415b85acef810000000080831015615cb9575b50662386f26fc1000080831015615caa575b506305f5e10080831015615c9b575b5061271080831015615c8c575b506064821015615c7c575b600a80921015615c72575b600190816021615c2a8287016107a8565b95860101905b615c3c575b5050505090565b600019019083906f181899199a1a9b1b9c1cb0b131b232b360811b8282061a835304918215615c6d57919082615c30565b615c35565b9160010191615c19565b9190606460029104910191615c0e565b60049193920491019138615c03565b60089193920491019138615bf6565b60109193920491019138615be7565b60209193920491019138615bd5565b604093508104915038615bbc565b60405190615ce382610656565b604082527f6768696a6b6c6d6e6f707172737475767778797a303132333435363738392b2f6040837f4142434445464748494a4b4c4d4e4f505152535455565758595a61626364656660208201520152565b805115615e1057615d44615cd6565b615d60615d5b615d548451610da8565b6003900490565b611f21565b91615d6d610e7784610dd2565b92835280815182019060208501935b828210615dbe57505050600390510680600114615dad57600214615d9e575090565b603d60f81b6000199091015290565b50613d3d60f01b6001199091015290565b9091936004906003809401938451600190603f9082828260121c16880101518553828282600c1c16880101518386015382828260061c1688010151600286015316850101519082015301939190615d7c565b506109b361077b56fe203c616e696d6174652061646469746976653d2273756d22206174747269627574654e616d653d2273746172744f6666736574222066726f6d3d223025222074a2646970667358221220e47528ad6c8d2e97e811cf86cf81f63dd3017efb5bf24e9f0445a84ebf85381564736f6c63430008130033",
  "devdoc": {
    "kind": "dev",
    "methods": {
      "tokenURI(address,uint256)": {
        "details": "Note this URI may be a data: URI with the JSON contents directly inlined",
        "params": {
          "positionManager": "The position manager for which to describe the token",
          "tokenId": "The ID of the token for which to produce a description, which may not be valid"
        },
        "returns": {
          "_0": "The URI of the ERC721-compliant metadata"
        }
      }
    },
    "stateVariables": {
      "nativeCurrencyLabelBytes": {
        "details": "A null-terminated string"
      }
    },
    "title": "Describes NFT token positions",
    "version": 1
  },
  "userdoc": {
    "kind": "user",
    "methods": {
      "nativeCurrencyLabel()": {
        "notice": "Returns the native currency label as a string"
      },
      "tokenURI(address,uint256)": {
        "notice": "Produces the URI describing a particular token ID for a position manager"
      }
    },
    "notice": "Produces a string containing the data URI for a JSON metadata string",
    "version": 1
  },
  "storageLayout": {
    "storage": [],
    "types": null
  }
}