{
  "address": "0x3D5335229FD58889e8bc6ACb675F746BF17c5472",
  "abi": [
    {
      "inputs": [
        {
          "internalType": "contract Configuration",
          "name": "_config",
          "type": "address"
        },
        {
          "internalType": "contract IUniswapV3Factory",
          "name": "_factory",
          "type": "address"
        },
        {
          "internalType": "contract INonfungiblePositionManager",
          "name": "_positionManager",
          "type": "address"
        }
      ],
      "stateMutability": "nonpayable",
      "type": "constructor"
    },
    {
      "inputs": [
        {
          "internalType": "address",
          "name": "token0",
          "type": "address"
        },
        {
          "internalType": "address",
          "name": "token1",
          "type": "address"
        }
      ],
      "name": "canDistribute",
      "outputs": [
        {
          "internalType": "bool",
          "name": "",
          "type": "bool"
        }
      ],
      "stateMutability": "view",
      "type": "function"
    },
    {
      "inputs": [
        {
          "internalType": "address",
          "name": "token0",
          "type": "address"
        },
        {
          "internalType": "address",
          "name": "token1",
          "type": "address"
        },
        {
          "internalType": "uint160",
          "name": "sqrtPriceX96",
          "type": "uint160"
        },
        {
          "internalType": "uint256",
          "name": "deadline",
          "type": "uint256"
        }
      ],
      "name": "distribute",
      "outputs": [],
      "stateMutability": "nonpayable",
      "type": "function"
    },
    {
      "inputs": [
        {
          "internalType": "address",
          "name": "token0",
          "type": "address"
        },
        {
          "internalType": "address",
          "name": "token1",
          "type": "address"
        }
      ],
      "name": "getPoolAddress",
      "outputs": [
        {
          "internalType": "address",
          "name": "",
          "type": "address"
        }
      ],
      "stateMutability": "nonpayable",
      "type": "function"
    }
  ],
  "transactionHash": "0x5614f4e05cd203b7a1e61d887949a831fc824fd26dca7412e06a4589098ecb5c",
  "args": [
    "0xa7E40Ae4FdE53d400D540a66cA7Be2FF334b4df7",
    "0xf3d448d7A83F749695c49d8411247fC3868fB633",
    "0xf03c65d9be145746f800E2781eD140F6dd238F38"
  ],
  "numDeployments": 1,
  "solcInputHash": "2b240e7b1dd49677c70e89e19d447c71",
  "bytecode": "0x60e0346100c657601f610d9138819003918201601f19168301916001600160401b038311848410176100cb578084926060946040528339810103126100c65780516001600160a01b03919082811681036100c65760208201519183831683036100c6576040015192831683036100c657608052606462ffffff19600054161760005560a05260c052604051610caf90816100e2823960805181610386015260a0518161067b015260c051818181610169015281816101a5015281816101dc01526103400152f35b600080fd5b634e487b7160e01b600052604160045260246000fdfe6080604052600436101561001257600080fd5b60003560e01c80633fa1e0c81461060d57806381528da91461007057639711eb151461003d57600080fd5b3461006b57604036600319011261006b576100566107c1565b5061005f6107d7565b50602060405160018152f35b600080fd5b3461006b57608036600319011261006b576100896107c1565b6100916107d7565b906044356001600160a01b0381169081900361006b576100b18383610a95565b6040516370a0823160e01b8152306004820152919291906020826024816001600160a01b0388165afa918215610492576000926105d9575b506040516370a0823160e01b8152306004820152926020846024816001600160a01b0386165afa938415610492576000946105a5575b50600080546040516309f56ab160e11b81526001600160a01b038881166004830152858116602483015262ffffff90921660448201526064810193909352602091839160849183917f0000000000000000000000000000000000000000000000000000000000000000165af1801561049257610586575b506101ce826001600160a01b037f00000000000000000000000000000000000000000000000000000000000000008116908716610b5c565b610205836001600160a01b037f00000000000000000000000000000000000000000000000000000000000000008116908416610b5c565b62ffffff6000541690604051948561016081011067ffffffffffffffff6101608801111761057057610160860160405260018060a01b0316855260018060a01b031660208501526040840152620d89e7196060840152620d89e8608084015260a083015260c0820152600060e082015260006101008201523061012082015260643561014082015261014060405191634418b22b60e11b835260018060a01b03815116600484015260018060a01b03602082015116602484015262ffffff6040820151166044840152606081015160020b6064840152608081015160020b608484015260a081015160a484015260c081015160c484015260e081015160e484015261010081015161010484015260018060a01b0361012082015116610124840152015161014482015260808161016481600060018060a01b037f0000000000000000000000000000000000000000000000000000000000000000165af1801561049257610525575b506040516323c1116160e11b8082526001600160a01b037f0000000000000000000000000000000000000000000000000000000000000000811694919316602083600481885afa92831561049257600093610504575b506040516370a0823160e01b815230600482015290602082602481845afa918215610492576000926104cf575b50906020936103fe9261082e565b60018060a01b03169160046040518095819382525afa9182156104925760009261049e575b506040516370a0823160e01b815230600482015291602083602481855afa9182156104925760009261045c575b61045a935061082e565b005b91506020833d60201161048a575b81610477602093836107ed565b8101031261006b5761045a925191610450565b3d915061046a565b6040513d6000823e3d90fd5b6104c191925060203d6020116104c8575b6104b981836107ed565b81019061080f565b9082610423565b503d6104af565b91506020823d6020116104fc575b816104ea602093836107ed565b8101031261006b5790519060206103f0565b3d91506104dd565b61051e91935060203d6020116104c8576104b981836107ed565b91856103c3565b6080813d608011610568575b8161053e608093836107ed565b8101031261006b57602001516fffffffffffffffffffffffffffffffff81160361006b578261036d565b3d9150610531565b634e487b7160e01b600052604160045260246000fd5b61059e9060203d6020116104c8576104b981836107ed565b5086610196565b9093506020813d6020116105d1575b816105c1602093836107ed565b8101031261006b5751928761011f565b3d91506105b4565b9091506020813d602011610605575b816105f5602093836107ed565b8101031261006b575190866100e9565b3d91506105e8565b3461006b57604036600319011261006b576106266107c1565b61062e6107d7565b6106388183610a95565b600054604051630b4c774160e11b8082526001600160a01b038581166004840152848116602484015262ffffff93841660448401819052602098929791969395947f0000000000000000000000000000000000000000000000000000000000000000881694939092908a88606481895afa978815610492578b988a916000916107a4575b501615610737575b50506000546040519889526001600160a01b0393841660048a015294909216602488015290921662ffffff16604486015284915060649082905afa91821561049257600092610718575b5060405191168152f35b610730919250833d85116104c8576104b981836107ed565b908361070e565b60405163a167129560e01b81526001600160a01b0391821660048201529116602482015262ffffff91909116604482015294856064816000875af1948515610492578895610787575b80806106c4565b61079d90863d88116104c8576104b981836107ed565b5088610780565b6107bb91508a3d8c116104c8576104b981836107ed565b8d6106bc565b600435906001600160a01b038216820361006b57565b602435906001600160a01b038216820361006b57565b90601f8019910116810190811067ffffffffffffffff82111761057057604052565b9081602091031261006b57516001600160a01b038116810361006b5790565b60405163a9059cbb60e01b60208201526001600160a01b0392909216602483015260448083019390935291815261086f9161086a6064836107ed565b610889565b565b9081602091031261006b5751801515810361006b5790565b60408051908101916001600160a01b031667ffffffffffffffff831182841017610570576108f9926040526000806020958685527f5361666545524332303a206c6f772d6c6576656c2063616c6c206661696c656487860152868151910182855af16108f3610981565b916109c1565b805190828215928315610969575b505050156109125750565b6084906040519062461bcd60e51b82526004820152602a60248201527f5361666545524332303a204552433230206f7065726174696f6e20646964206e6044820152691bdd081cdd58d8d9595960b21b6064820152fd5b6109799350820181019101610871565b388281610907565b3d156109bc573d9067ffffffffffffffff821161057057604051916109b0601f8201601f1916602001846107ed565b82523d6000602084013e565b606090565b91929015610a2357508151156109d5575090565b3b156109de5790565b60405162461bcd60e51b815260206004820152601d60248201527f416464726573733a2063616c6c20746f206e6f6e2d636f6e74726163740000006044820152606490fd5b825190915015610a365750805190602001fd5b6040519062461bcd60e51b82528160208060048301528251908160248401526000935b828510610a7c575050604492506000838284010152601f80199101168101030190fd5b8481018201518686016044015293810193859350610a59565b90916001600160a01b0391828416838216808214610b09571015610b0457925b91831615610abf57565b60405162461bcd60e51b815260206004820152601e60248201527f556e697377617056324c6962726172793a205a45524f5f4144445245535300006044820152606490fd5b610ab5565b60405162461bcd60e51b815260206004820152602560248201527f556e697377617056324c6962726172793a204944454e544943414c5f41444452604482015264455353455360d81b6064820152608490fd5b60405163095ea7b360e01b602082018181526001600160a01b038516602484015260448084019690965294825294939092610b986064856107ed565b83516000926001600160a01b039291858416918591829182855af190610bbc610981565b82610c47575b5081610c3c575b5015610bd9575b50505050509050565b60405196602088015216602486015280604486015260448552608085019085821067ffffffffffffffff831117610c285750610c1d939461086a9160405282610889565b803880808080610bd0565b634e487b7160e01b81526041600452602490fd5b90503b151538610bc9565b80519192508115918215610c5f575b50509038610bc2565b610c729250602080918301019101610871565b3880610c5656fea2646970667358221220d638c77eb1f475fa409f92215a359c1415b4e830418b2aadad7b57ff33e2540164736f6c63430008130033",
  "devdoc": {
    "kind": "dev",
    "methods": {},
    "version": 1
  },
  "userdoc": {
    "kind": "user",
    "methods": {},
    "version": 1
  },
  "storageLayout": {
    "storage": [
      {
        "astId": 27459,
        "contract": "contracts/distributor/UniswapV3Distributor.sol:UniswapV3Distributor",
        "label": "fee",
        "offset": 0,
        "slot": "0",
        "type": "t_uint24"
      }
    ],
    "types": {
      "t_uint24": {
        "encoding": "inplace",
        "label": "uint24",
        "numberOfBytes": "3"
      }
    }
  }
}