{
  "address": "0x3836550547e71E9644a200dE3d998F900c0a55e7",
  "abi": [
    {
      "inputs": [
        {
          "internalType": "contract IPoolConfiguration",
          "name": "_config",
          "type": "address"
        }
      ],
      "stateMutability": "nonpayable",
      "type": "constructor"
    },
    {
      "anonymous": false,
      "inputs": [
        {
          "indexed": true,
          "internalType": "uint24",
          "name": "fee",
          "type": "uint24"
        },
        {
          "indexed": true,
          "internalType": "int24",
          "name": "tickSpacing",
          "type": "int24"
        }
      ],
      "name": "FeeAmountEnabled",
      "type": "event"
    },
    {
      "anonymous": false,
      "inputs": [
        {
          "indexed": true,
          "internalType": "address",
          "name": "oldOwner",
          "type": "address"
        },
        {
          "indexed": true,
          "internalType": "address",
          "name": "newOwner",
          "type": "address"
        }
      ],
      "name": "OwnerChanged",
      "type": "event"
    },
    {
      "anonymous": false,
      "inputs": [
        {
          "indexed": true,
          "internalType": "address",
          "name": "token0",
          "type": "address"
        },
        {
          "indexed": true,
          "internalType": "address",
          "name": "token1",
          "type": "address"
        },
        {
          "indexed": true,
          "internalType": "uint24",
          "name": "fee",
          "type": "uint24"
        },
        {
          "indexed": false,
          "internalType": "int24",
          "name": "tickSpacing",
          "type": "int24"
        },
        {
          "indexed": false,
          "internalType": "address",
          "name": "pool",
          "type": "address"
        }
      ],
      "name": "PoolCreated",
      "type": "event"
    },
    {
      "inputs": [],
      "name": "POOL_INIT_CODE_HASH",
      "outputs": [
        {
          "internalType": "bytes32",
          "name": "",
          "type": "bytes32"
        }
      ],
      "stateMutability": "view",
      "type": "function"
    },
    {
      "inputs": [],
      "name": "config",
      "outputs": [
        {
          "internalType": "contract IPoolConfiguration",
          "name": "",
          "type": "address"
        }
      ],
      "stateMutability": "view",
      "type": "function"
    },
    {
      "inputs": [
        {
          "internalType": "address",
          "name": "tokenA",
          "type": "address"
        },
        {
          "internalType": "address",
          "name": "tokenB",
          "type": "address"
        },
        {
          "internalType": "uint24",
          "name": "fee",
          "type": "uint24"
        }
      ],
      "name": "createPool",
      "outputs": [
        {
          "internalType": "address",
          "name": "pool",
          "type": "address"
        }
      ],
      "stateMutability": "nonpayable",
      "type": "function"
    },
    {
      "inputs": [
        {
          "internalType": "uint24",
          "name": "fee",
          "type": "uint24"
        },
        {
          "internalType": "int24",
          "name": "tickSpacing",
          "type": "int24"
        }
      ],
      "name": "enableFeeAmount",
      "outputs": [],
      "stateMutability": "nonpayable",
      "type": "function"
    },
    {
      "inputs": [
        {
          "internalType": "uint24",
          "name": "",
          "type": "uint24"
        }
      ],
      "name": "feeAmountTickSpacing",
      "outputs": [
        {
          "internalType": "int24",
          "name": "",
          "type": "int24"
        }
      ],
      "stateMutability": "view",
      "type": "function"
    },
    {
      "inputs": [
        {
          "internalType": "address",
          "name": "",
          "type": "address"
        },
        {
          "internalType": "address",
          "name": "",
          "type": "address"
        },
        {
          "internalType": "uint24",
          "name": "",
          "type": "uint24"
        }
      ],
      "name": "getPool",
      "outputs": [
        {
          "internalType": "address",
          "name": "",
          "type": "address"
        }
      ],
      "stateMutability": "view",
      "type": "function"
    },
    {
      "inputs": [],
      "name": "owner",
      "outputs": [
        {
          "internalType": "address",
          "name": "",
          "type": "address"
        }
      ],
      "stateMutability": "view",
      "type": "function"
    },
    {
      "inputs": [],
      "name": "parameters",
      "outputs": [
        {
          "internalType": "address",
          "name": "factory",
          "type": "address"
        },
        {
          "internalType": "address",
          "name": "token0",
          "type": "address"
        },
        {
          "internalType": "address",
          "name": "token1",
          "type": "address"
        },
        {
          "internalType": "uint24",
          "name": "fee",
          "type": "uint24"
        },
        {
          "internalType": "int24",
          "name": "tickSpacing",
          "type": "int24"
        },
        {
          "internalType": "contract IPoolConfiguration",
          "name": "config",
          "type": "address"
        }
      ],
      "stateMutability": "view",
      "type": "function"
    },
    {
      "inputs": [
        {
          "internalType": "address",
          "name": "_owner",
          "type": "address"
        }
      ],
      "name": "setOwner",
      "outputs": [],
      "stateMutability": "nonpayable",
      "type": "function"
    }
  ],
  "transactionHash": "0x43f36f7e7ab4aff9b2df94dcdb8da71ed2550cb67c8eedba12d6aead3fc483cb",
  "args": [
    "0x9186d7E3CE5BeC465e7392Cf953D392D911a6e6f"
  ],
  "numDeployments": 1,
  "solcInputHash": "54af01254d061d0e0b5c3f089801fee0",
  "bytecode": "0x60a03461012757601f61611e38819003918201601f19168301916001600160401b0383118484101761012c5780849260209460405283398101031261012757516001600160a01b03811690819003610127573060805260018060a01b0319908160075416176007553390600454161760045560405160c8600033817fb532073b38c83145e3e5135377a08bf9aab55bc0fd7c1179cd4fb995d2a5159c8180a36101f48082526005602052604082209162ffffff1992600a84825416179055600a7fc66a3fdf07232cdd185febcc6579d408c241b47ae2f9907d84be655141eeaecc92838380a3603c610bb8808352604083208286825416179055838380a36127109283825284604083209182541617905580a3615fdb908161014382396080518161013f0152f35b600080fd5b634e487b7160e01b600052604160045260246000fdfe608060408181526004918236101561001657600080fd5b600092833560e01c91826313af40351461065a5782631698ee82146105f85750816322afcccb146105c257816379502c551461059957816389035730146105375781638a7c195f146104805781638da5cb5b14610458578163a167129514610107575063dc6fd8ab1461008857600080fd5b346101035781600319360112610103576158569181516020936100ad85820183610717565b808252620007508583013983835180938351815b8181106100ed57506100e0945082019083820152038084520182610717565b8281519101209051908152f35b80860185015187820186015286935084016100c1565b5080fd5b91905034610454576060366003190112610454576101236106c2565b9161012c6106dd565b6101346106f3565b6001600160a01b03907f0000000000000000000000000000000000000000000000000000000000000000821630036104505781600754169085519663e4b9f08f60e01b885233868901526020978881602481875afa908115610446578a9161040c575b50156103d7578385168482168181146103d35710156103cb5783905b169283156103c75762ffffff821695868a5260058952878a2054928360020b9485156103c357868c5260068b52838a8d20981697888d528b52898c20898d528b52838a8d2054166103c357895167ffffffffffffffff929060c08101848111828210176103b05783918b8f8f908d9060a09583523085528401528201528c606082015289608082015201526bffffffffffffffffffffffff60a01b958d308882541617905588876001541617600155896002549160b81b62ffffff60b81b169262ffffff60a01b9060a01b169165ffffffffffff60d01b1617171760025584600354161760035588518a810191878352888b8301528960608301526060825260808201928284108285111761039d57838c5282519020936158569081840192608084019086821091111761038a575062000750843903908bf5801561038057918798997f783cca1c0412dd0d695e784568c96da2e9c22ff989357a2e8b1d9b2b4e6b711894928994169981808c935580600155806002558060035587815260068d528181208982528d528181208a82528d52818120838582541617905588815260068d528181208882528d528181208a82528d52209182541617905581519081528789820152a451908152f35b87513d8b823e3d90fd5b634e487b7160e01b8f526041905260248efd5b634e487b7160e01b8e526041855260248efd5b634e487b7160e01b8f526041865260248ffd5b8b80fd5b8880fd5b9383906101b3565b8a80fd5b865162461bcd60e51b8152808701899052600f60248201526e139bdd081dda1a5d195b1a5cdd1959608a1b6044820152606490fd5b90508881813d831161043f575b6104238183610717565b8101031261043b5751801515810361043b5738610197565b8980fd5b503d610419565b88513d8c823e3d90fd5b8680fd5b8280fd5b9050346104545782600319360112610454575490516001600160a01b03909116815260209150f35b9190503461045457806003193601126104545761049b610705565b602435908160020b9384830361052457546001600160a01b031633036105335762ffffff80911692620f42408410156105245785851380610528575b156105245783865260056020528520918254918260020b61045057169062ffffff19161790557fc66a3fdf07232cdd185febcc6579d408c241b47ae2f9907d84be655141eeaecc8380a380f35b8580fd5b5061400085126104d7565b8480fd5b5050346101035781600319360112610103579060c09160018060a01b038092541691806001541691600254918060035416938251958652602086015282169084015262ffffff8160a01c16606084015260b81c60020b608083015260a0820152f35b50503461010357816003193601126101035760075490516001600160a01b039091168152602090f35b505034610103576020366003190112610103578060209262ffffff6105e5610705565b16815260058452205460020b9051908152f35b8490843461045457606036600319011261045457916020926106186106c2565b916106216106dd565b6106296106f3565b6001600160a01b03948516835260068752838320918516835290865282822062ffffff909116825285522054168152f35b848234610103576020366003190112610103576106756106c2565b81546001600160a01b038082169233849003610524571680927fb532073b38c83145e3e5135377a08bf9aab55bc0fd7c1179cd4fb995d2a5159c8680a36001600160a01b03191617905580f35b600435906001600160a01b03821682036106d857565b600080fd5b602435906001600160a01b03821682036106d857565b6044359062ffffff821682036106d857565b6004359062ffffff821682036106d857565b90601f8019910116810190811067ffffffffffffffff82111761073957604052565b634e487b7160e01b600052604160045260246000fdfe6101808060405234620002d05730608052630890357360e41b815260c0908181600481335afa8015620002c457600091828093819482938395620001ef575b5061012094855261010095865260e052855260a052610140908082528060020b8015620001d95760019062ffffff928082620d89e719050260020b9082620d89e8050260020b0360020b0582160116918215620001d9576101609260018060801b030483526040519361556b9586620002eb873960805186613aa8015260a0518681816104640152610faa01525185818161136f015281816123b5015281816134b701528181613600015281816137dc0152613c08015260e0518581816103db0152818161132d015281816123dd015281816133d7015281816135350152613c8e0152518461039e015251838181611ebf01528181611fb1015281816120150152818161241d0152818161305201528181613251015281816132ac0152818161338b015261347301525182818161042501528181610c9d01528181610ccc01528181611c8701528181611cb6015281816121df015281816122e701528181612bdf01528181612d0b01528181612da40152612def015251818181610c0f01528181610c4d0152818161110801528181611c030152611c3a0152f35b634e487b7160e01b600052601260045260246000fd5b95505050915050823d8411620002bc575b601f8101601f191683016001600160401b03811184821017620002a85784918491604052810103126200029d576200023882620002d5565b906200024760208401620002d5565b6200025560408501620002d5565b60608501519362ffffff85168503620002a4576080860151958660020b8703620002a05760a00151936001600160a01b03851685036200029d5750919093949293386200003e565b80fd5b8480fd5b8380fd5b634e487b7160e01b83526041600452602483fd5b503d62000200565b6040513d6000823e3d90fd5b600080fd5b51906001600160a01b0382168203620002d05756fe6101a080604052600436101561001457600080fd5b60006101605260003560e01c9081630dfe1681146137c957508063128acb0814611f4d5780631a68650214611f235780631ad8b03b14611eee57806322a2e11414611ea6578063252c09d714611e4b57806332148f6714611d875780633850c7bd14611d165780633c8a7d8d1461144f578063461413191461142e578063490e6cbc146113aa5780634f1eb3d8146111ce578063514ea4bf146111675780635339c2961461112c57806370cf754a146110e55780638206a4d114610f43578063883bdbfd14610d0d578063a34123a7146104ee578063a38807f214610493578063c45a01551461044b578063d0c93a7c1461040a578063d21220a7146103c2578063ddca3f431461037f578063f30583991461035b578063f30dba93146102bd5763f637731d1461014457600080fd5b346102b65760203660031901126102b65761015d61380b565b6001805490916001600160a01b03908183166102a4577f98636036cb66a9c19a37435efc1e90142190214e8abeb821bdba3f2990dd4c95936040936101a1836151ca565b9363ffffffff421683606088516101b7816138c2565b838152610160516020820152610160518a820152015261016051600160f81b916affffffffffffff000000008260201b161790600160581b600160f81b039060581b16171760095585519361020b856138a7565b16938484528260c08260020b9586602082015261016051898201528260608201528260808201526101605160a082015201526101605190630100000160d81b9263ffffffff60d81b199187600160c81b9264ffffffffff60d81b16179062ffffff60a01b9060a01b161761ffff60b81b8460b81b161717169060ff60e81b9060e81b161717905582519182526020820152a16101605180f35b60405163139816ff60e31b8152600490fd5b6101605180fd5b346102b65760203660031901126102b6576102d661386e565b60020b61016051526006602052610100604061016051208054906001810154906003600282015491015491604051936001600160801b038116855260801d600f0b6020850152604084015260608301528060060b608083015260018060a01b038160381c1660a083015263ffffffff8160d81c1660c083015260f81c151560e0820152f35b346102b657610160518060031936011261037c576020600254604051908152f35b80fd5b346102b657610160518060031936011261037c57602060405162ffffff7f0000000000000000000000000000000000000000000000000000000000000000168152f35b346102b657610160518060031936011261037c576040517f00000000000000000000000000000000000000000000000000000000000000006001600160a01b03168152602090f35b346102b657610160518060031936011261037c5760206040517f000000000000000000000000000000000000000000000000000000000000000060020b8152f35b346102b657610160518060031936011261037c576040517f00000000000000000000000000000000000000000000000000000000000000006001600160a01b03168152602090f35b346102b65760403660031901126102b657606063ffffffff6104cc6104b661386e565b6104be61384e565b906104c7613aa6565b613999565b906040939293519360060b845260018060a01b03166020840152166040820152f35b346102b65760603660031901126102b65761050761386e565b6101005261051361384e565b60e0526044358060a0526001600160801b03811603610cf65760015460ff8160f01c1615610cfb5760ff60f01b19811660015560a0516001600160801b0316600f81900b03610cf65761056c60405180610120526138c2565b3361012051526101005160020b602061012051015260e05160020b60406101205101526001600160801b0360a05116600f0b6101605103600f0b60606101205101526105b6613aa6565b6101605180610140526080526105d760e05160020b6101005160020b613ad8565b6105df613934565b90610120519060018060a01b03825116602083015160020b906060604085015160020b9401516106188584602089015160020b94614705565b60c052600254610180526003546101605192839583600f0b610bc5575b5061064d8560020b6000526006602052604060002090565b906106658860020b6000526006602052604060002090565b61016051918990888112610bae5760026001860154950154935b501215610b975760026001820154910154935b6040519461069f866138dd565b60c05154906001600160801b0382168752600160c05101546020880152600260c05101546040880152600360c0510154946001600160801b03861660608901528560801c608089015287896101605181600f0b15600014610b3c575050516001600160801b031615610b2a576001600160801b03968792610750926040856107418d828151169b5b6020820151976101805103039d8e91511696879103613e65565b169b0151960303948503613e65565b169287600f0b610b0a575b505060c05193600185015560028401558315801590610b01575b610ac2575b505050506101605190600f0b12610a4f575b5050505061012051906060820151600f0b61087a575b5050604061014051610160519080820391608051809103911590811591610870575b50610839575b82516001600160801b0360a051168152826020820152818482015260e05160020b906101005160020b907f0c396cd989a39f4459b5fa1aed6a9a8dcdbc45908acfd67e028cd568da98982c60603392a46001805460ff60f01b1916600160f01b17905582519182526020820152f35b60c05160030180546001600160801b038481168183160181166001600160801b0319918516608093841c0190921b161790556107ca565b90501515846107c4565b602081015160020b602083015160020b928382126000146108df57505050506108d36108af602061012051015160020b614e59565b6108c2604061012051015160020b614e59565b6060610120510151600f0b91614764565b610140525b80806107a2565b6040015160020b1315610a16576001600160801b038092506005541661092e61ffff806040850151169083602086015160020b82606088015116926080880151169363ffffffff42169061409d565b6001805463ffffffff60b81b191660c89290921b61ffff60c81b169190911760b89290921b61ffff60b81b1691909117905581516101205160400151610984916001600160a01b0316906108c29060020b614e59565b6101405261099b602061012051015160020b614e59565b9151610120516060015192600f84900b916109c19183916001600160a01b031690614939565b608052610160511315610a05576109ee91506109e66060610120510151600f0b613cd3565b831690613cf4565b166001600160801b031960055416176005556108d8565b610a1191831690613cb8565b6109ee565b50610a23610a4791614e59565b610a36604061012051015160020b614e59565b6060610120510151600f0b91614939565b6080526108d8565b610a92575b50610a62575b80808061078c565b610a8c9060009060020b815260066020526003604082208281558260018201558260028201550155565b81610a5a565b610abc9060009060020b815260066020526003604082208281558260018201558260028201550155565b83610a54565b6001600160801b03198083166001600160801b03938416909501909216938417608090811c91909101901b16909117600391909101558680808061077a565b50801515610775565b6001600160801b0316906001600160801b0319161760c051558b8061075b565b604051632aabfc9960e11b8152600490fd5b9260406001600160801b03610741819c9582989588610750995081600f0b12600014610b8457610b7e90610b768584511691600f0b613cd3565b851690613cf4565b9b610727565b610b92908416848c16613cb8565b610b7e565b600260018201546101805103910154840393610692565b60026001860154610180510395015486039361067f565b909550610c049193506001600160801b0360055416906bff00ffffffffffffffffffff61ffff8260b81c169160a01c1660020b63ffffffff42166142ca565b929094610c86610c487f000000000000000000000000000000000000000000000000000000000000000063ffffffff4216898887610180518c898c600f0b91614b12565b9687957f00000000000000000000000000000000000000000000000000000000000000009163ffffffff42169186610180518d888b600f0b91614cb3565b8096610cc7575b610c98575b88610635565b610cc27f000000000000000000000000000000000000000000000000000000000000000088614e06565b610c92565b610cf17f000000000000000000000000000000000000000000000000000000000000000087614e06565b610c8d565b600080fd5b6040516350dfbc4360e11b8152600490fd5b346102b65760203660031901126102b6576001600160401b036004358181116102b657366023820112156102b65780600401359182116102b65760248260051b820101913683116102b657610d60613aa6565b600154916001600160801b036005541693610d7a83613b33565b92610d886040519485613913565b83526024602084019201915b818310610f265750505061ffff8260c81c1615610f145780610dd7915193610dbb85613b33565b94610dc96040519687613913565b808652601f19938491613b33565b01366020870137815192610e03610ded85613b33565b94610dfb6040519687613913565b808652613b33565b013660208501376101605161ffff8560b81c16908560a01c60020b905b8451811015610e8157600190610e5761ffff8960c81c1686868663ffffffff610e49878d6146f1565b511663ffffffff4216614325565b610e61838a6146f1565b90848060a01b03169052610e75828b6146f1565b9060060b905201610e20565b858860405191829160408301604084528151809152602060608501920190610160515b818110610ef857505050828103602084015260208083519283815201920190610160515b818110610ed6575050500390f35b82516001600160a01b0316845285945060209384019390920191600101610ec8565b825160060b845286955060209384019390920191600101610ea4565b604051636b93000360e11b8152600490fd5b823563ffffffff811681036102b657815260209283019201610d94565b346102b65760403660031901126102b65760043560ff8116808203610cf65760243560ff811691828203610cf6576001549260ff8460f01c1615610cfb5760ff60f01b198416600155604051638da5cb5b60e01b81526001600160a01b03906020816004817f000000000000000000000000000000000000000000000000000000000000000086165afa9081156110d75761016051916110a9575b501633036102b65781158015611092575b80611073575b156102b6577f973d8d92bb299f4af6ce49b52a8adb85ae46b9f214c4c4fc06ac77401237b1339160809160405191600f8760e81c168352600f8760ec1c16602084015260408301526060820152a161ffff60e81b1990911660049190911b60f01690910160e81b60ff60e81b1617600160f01b176001556101605180f35b50801580610ff5575060048110158015610ff55750600a811115610ff5565b5060048210158015610fef5750600a821115610fef565b6110ca915060203d81116110d0575b6110c28183613913565b810190613d45565b87610fde565b503d6110b8565b6040513d61016051823e3d90fd5b346102b657610160518060031936011261037c5760206040516001600160801b037f0000000000000000000000000000000000000000000000000000000000000000168152f35b346102b65760203660031901126102b6576004358060010b8091036102b6576101605152600760205260206040610160512054604051908152f35b346102b65760203660031901126102b6576004356101605152600860205260a0604061016051206001600160801b039081815416916001820154916003600282015491015492604051948552602085015260408401528116606083015260801c6080820152f35b346102b65760a03660031901126102b6576111e761380b565b6111ef61384e565b6111f761385e565b9161120061387e565b91608435916001600160801b039485841695868503610cf6576001549460ff8660f01c1615610cfb5760ff60f01b199586166001556003611242848733614705565b0191825498818a1692610160519984848216116000146113a4575083995b8b60801c928391501160001461139c5750985b81898181169485611358575b5050905089169283611301575b50506040519360018060a01b031684526020840152604083015260020b9160020b907f70935338e69775456a85ddef226c395fb668b63fa0115f5f20610b388e6ca9c060603392a46001805491909116600160f01b179055604080516001600160801b03928316815292909116602083015290f35b611326918a825460801c03166001600160801b0382549181199060801b169116179055565b61135182857f000000000000000000000000000000000000000000000000000000000000000061547e565b888061128c565b0316906001600160801b03191617835561139382867f000000000000000000000000000000000000000000000000000000000000000061547e565b8981898261127f565b905098611273565b99611260565b346102b65760803660031901126102b6576113c361380b565b506064356001600160401b0381116102b6576113e3903690600401613821565b505060ff60015460f01c1615610cfb576113fb613aa6565b60405162461bcd60e51b815260206004820152600b60248201526a139bdd08185b1b1bddd95960aa1b6044820152606490fd5b346102b657610160518060031936011261037c576020600354604051908152f35b346102b65760a03660031901126102b65761146861380b565b61147061384e565b61147861385e565b9161148161387e565b916084356001600160401b0381116102b6576114a1903690600401613821565b9290936001549360ff8560f01c1615610cfb5760ff60f01b198516600155610160515460ff16611ce0576001600160801b038216156102b6576001600160801b038216600f81900b03610cf657604051956114fb876138c2565b6001600160a01b0384168752600285810b602089015288900b60408801526001600160801b038316600f0b6060880152611533613aa6565b6101605196879661154a8a60020b8860020b613ad8565b611552613934565b9060018060a01b0383511690602084015160020b604085015160020b9260608601516115878584602089015160020b94614705565b9160025492600354610160519488869886600f0b611bb4575b50506115b98760020b6000526006602052604060002090565b916115d18a60020b6000526006602052604060002090565b61016051958b908a8112611ba05760026001870154960154975b501215611b8c5760026001820154910154935b6040519361160b856138dd565b86546001600160801b038116865260018801546020870152600288015460408701526003880154966001600160801b03881660608801528760801c6080880152868b6101605181600f0b15600014611b3c575050516001600160801b031615610b2a576116ac876001600160801b0392838251169c5b60408561169d81602087015196511680968d8d8d030303613e65565b169b0151990303978803613e65565b16988a600f0b611b1e575b50500303600185015560028401558015801590611b15575b611ad8575b505050506101605190600f0b12611a65575b505050506060820151600f0b611895575b50506101605190819288611885575b87611875575b333b156102b65761174a916040518093819263d348799760e01b83528c60048401528b60248401526060604484015261016051946064840191613b4a565b038161016051335af180156110d75761185f575b50868015159181611845575b505061183357848015159181611819575b5050611807577f7a53080ba414158be7ec69b987b5fb7d07dee101fe85488f0853ae16239d0bde60806040976001600160801b03895194338652166020850152878985015286606085015260020b9460020b9360018060a01b031692a461016051805460ff19166001908117909155805460ff60f01b1916600160f01b17905582519182526020820152f35b604051631072b39760e11b8152600490fd5b6118239250613b6b565b61182b613c5f565b10848861177b565b60405163748800af60e01b8152600490fd5b61184f9250613b6b565b611857613bd9565b10868961176a565b61186890613894565b61016051801561175e5780fd5b925061187f613c5f565b9261170c565b915061188f613bd9565b91611706565b909197602082015160020b602084015160020b908181126000146118f35750505050806118cb60206118ea93015160020b614e59565b9060606118de604083015160020b614e59565b910151600f0b91614764565b955b88806116f7565b90919298506040849a94015160020b13600014611a2e5750506001600160801b0380600554169761194e61ffff898b8260408301511692602083015160020b90608081606086015116940151169363ffffffff42169061409d565b6001805463ffffffff60b81b191660c89290921b61ffff60c81b169190911760b89290921b61ffff60b81b16919091179055875160408201516119af916001600160a01b0316906119a19060020b614e59565b6060840151600f0b91614764565b986119e06119c3602084015160020b614e59565b995160608401519a600f8c900b916001600160a01b031690614939565b986101605181600f0b12600014611a1c57506109e66060611a05930151600f0b613cd3565b166001600160801b031960055416176005556118ec565b611a299250831690613cb8565b611a05565b611a5f929750611a4090989198614e59565b906060611a53604083015160020b614e59565b910151600f0b91614939565b946118ec565b611aa8575b50611a78575b8080806116e6565b611aa29060009060020b815260066020526003604082208281558260018201558260028201550155565b8a611a70565b611ad29060009060020b815260066020526003604082208281558260018201558260028201550155565b8c611a6a565b6001600160801b0380831691909101166001600160801b03199182168117608090811c9490940190931b169091176003909101558f8080806116d4565b508315156116cf565b6001600160801b0316906001600160801b03191617875538806116b7565b6001600160801b03936116ac93929091600f82900b1215611b7957611b7390611b6b8685511691600f0b613cd3565b861690613cf4565b9c611681565b611b87908516858716613cb8565b611b73565b6002600182015484039101548203936115fe565b6002600187015486039601548403976115eb565b611bf5919950611c6f97506001600160801b0360055416906bff00ffffffffffffffffffff61ffff8260b81c169160a01c1660020b63ffffffff42166142ca565b611c358988848488889d979d7f0000000000000000000000000000000000000000000000000000000000000000958d63ffffffff421696600f0b91614b12565b998a987f000000000000000000000000000000000000000000000000000000000000000092868663ffffffff4216948b8d600f0b91614cb3565b8098611cb1575b611c82575b88386115a0565b611cac7f00000000000000000000000000000000000000000000000000000000000000008a614e06565b611c7b565b611cdb7f000000000000000000000000000000000000000000000000000000000000000089614e06565b611c76565b60405162461bcd60e51b815260206004820152600e60248201526d1053149150511657d3525395115160921b6044820152606490fd5b346102b657610160518060031936011261037c5760e060015460ff6040519160018060a01b03811683528060a01c60020b602084015261ffff808260b81c166040850152808260c81c1660608501528160d81c166080840152818160e81c1660a084015260f01c16151560c0820152f35b346102b65760203660031901126102b65761ffff60043581811681036102b65760015460ff8160f01c1615610cfb5760ff60f01b198116600155611dda908390611dcf613aa6565b60d81c169182614257565b9182169060015491808203611e14575b505063ff00ffff60d81b191660d89190911b61ffff60d81b1617600160f01b176001556101605180f35b7fac49e518f90a358f652e4400164f05a5d8f7e35e7747279bc3a93dbf584e125a9160409182519182526020820152a18280611dea565b346102b65760203660031901126102b65760043561ffff8110156102b657608090600901546040519063ffffffff811682528060201c60060b602083015260018060a01b038160581c16604083015260f81c15156060820152f35b346102b657610160518060031936011261037c576040517f00000000000000000000000000000000000000000000000000000000000000006001600160a01b03168152602090f35b346102b657610160518060031936011261037c57600454604080516001600160801b038316815260809290921c602083015290f35b346102b657610160518060031936011261037c5760206001600160801b0360055416604051908152f35b346102b65760a03660031901126102b657611f6661380b565b6024351515602435036102b6576064356001600160a01b03811690036102b6576084356001600160401b0381116102b657611fa5903690600401613821565b9091611faf613aa6565b7f00000000000000000000000000000000000000000000000000000000000000006001600160a01b03163b156102b65760405163794358cf60e11b815261016080513060048401526001600160a01b0384811660248501529151909183916044918391907f0000000000000000000000000000000000000000000000000000000000000000165af180156110d7576137ba575b50604435156137a957612053613934565b9060c082015115610cfb57602435156137675781516001600160a01b03908116606435909116108061374e575b15613723576001805460ff60f01b191690556005546001600160801b0316936024351561371257600f60a084015116935b604051948560c08101106001600160401b0360c08801111761330e5760ff9060c0870160405216855285602086015263ffffffff421660408601526101605160608601526101605160808601526101605160a086015260018060a01b03845116956020850151610160515060243560001461370957600254905b604051986121388a6138a7565b6044358a526101605160208b015260408a015260020b606089015260808801526101605160a088015260c08701525b85511515806136ec575b15612e1f57604051612182816138a7565b6101605181526101605160208201526101605160408201526101605160608201526101605160808201526101605160a08201526101605160c082015260018060a01b036040880151168152606087015160020b61016051506122047f000000000000000000000000000000000000000000000000000000000000000082614df4565b906101605181129081612de8575b50612ddc575b60243515612c115761223a8160020b906101008260081d60010b920760ff1690565b90612260600160ff84161b600019908001019160010b6000526007602052604060002090565b54169182151592610160519084600014612bd9578082811561037c575060ff929190600160801b811015612bca575b5080680100000000000000006002921015612bbc575b640100000000811015612bae575b62010000811015612ba0575b610100811015612b92575b6010811015612b84575b6004811015612b77575b1015612b6d575b7f000000000000000000000000000000000000000000000000000000000000000093031660020b900360020b0260020b5b905b1515604083015260020b60208201819052620d89e7199081811215612b4e575060208201525b60208101516001600160a01b03906123589060020b614e59565b1680606083015260018060a01b036040890151169061016051602435600014612b3a576064356001600160a01b03168210905b5015612b345750606435905b60c0890151895160405163f56681bf60e01b81526001600160a01b037f0000000000000000000000000000000000000000000000000000000000000000811660048301527f00000000000000000000000000000000000000000000000000000000000000001660248201526001600160801b0392909216929190602082806044810103817f00000000000000000000000000000000000000000000000000000000000000006001600160a01b03165afa9182156110d7576101605192612af4575b5061016051918280808412612a1c57505061247d62ffffff82620f4240031683613d64565b926001600160a01b0387168510612a0b5761249986868961489c565b935b84811061298c575086955b6001600160a01b0387811698169586891495878210612926578680612919575b15612908575b978896806128fc575b156128ed575050505b935b610160518084129081806128e2575b6128d7575b501590816128cc575b50156128ac5750035b60c085015260a0840152608083015260408801526101605180604435136000146128325750608081015160c082015101600160ff1b8110156102b657875103875260a0810151600160ff1b8110156102b657612566906020890151613d0d565b60208801525b6001600160801b038060c08301516101605160c0850152168160a08a015116011660a08801526001600160801b0360c08801511680612813575b50604087015160608201516001600160a01b03918216911681036127e457506040810151612600575b602435156125f457602060001991015160020b0160020b5b60020b6060870152612167565b6020015160020b6125e7565b60a08601511561278e575b6001600160801b03602082015160020b61271561016051916024356000146127855760808b0151925b50602435156127755763ffffffff600354915b818c60018060a01b036080820151169461267a8360406060850151940151169460020b6000526006602052604060002090565b6001810180549099039098556002880180549091039055600387018054600160381b600160d81b03198116603891821c6001600160a01b0316909703901b600160381b600160d81b031695909517855584549060069082820b910b0366ffffffffffffff169066ffffffffffffff19161780855560d81c1690031681549063ffffffff60d81b9060d81b169063ffffffff60d81b1916179055565b5460801d602435612768575b6101605181600f0b1260001461275057612745906109e68360c08c01511691613cd3565b1660c08801526125cf565b60c0890151612763918316908316613cb8565b612745565b6101605103600f0b612721565b63ffffffff60808c015191612647565b60025492612634565b6127c263ffffffff604088015116602087015160020b61ffff604089015116906001600160801b0360208b015116926142ca565b6001600160a01b0316608088015260060b6060870152600160a087015261260b565b90516001600160a01b031681036127fc575b50612167565b612805906151ca565b60020b6060870152866127f6565b6128219060c0830151613ddb565b6080880151016080880152876125a6565b60a082015190600160ff1b82101561037c5750875101875261285d608082015160c083015190613b6b565b600160ff1b8110156102b657602088015181808201126101605190818312908015821691151617612894575001602088015261256c565b634e487b7160e01b9052601160045261016051602490fd5b90506128c7915062ffffff8082620f4240031691168461491d565b612506565b90508614158e6124fd565b84900395508f6124f4565b5084810387116124ef565b6128f793506149d2565b6124de565b506101605186126124d5565b5061291482828a61489c565b6124cc565b50610160518612156124c6565b908698918761297e575b61016051971561296d575b98899781612963575b5015612954575050505b936124e0565b61295e9350614853565b61294e565b8088129150612944565b50612979838383614a04565b61293b565b610160518712159750612930565b85156102b65786156102b6576001600160a01b03881686106129b9576129b3908787614a9f565b956124a6565b6129de90876001600160a01b0382116129fd576129d89160601b6142c0565b86613b6b565b6001600160a01b038116819003610cf6576001600160a01b03166129b3565b612a0691613efb565b6129d8565b612a16868887614a04565b9361249b565b5092506001600160a01b0386168410612ae457612a3a8585886149d2565b610160518381038211612a4f575086956124a6565b851561037c57861561037c57836001600160a01b0389168710612ad3575050610160518390036001600160a01b038111612aa95760601b8680820615159104015b80861115610cf65785036001600160a01b0316956124a6565b86612ab48183613efb565b91600160601b900915612a9057600019811015610cf657600101612a90565b612adf91038787614a36565b6129b3565b612aef858786614853565b612a3a565b9091506020813d602011612b2c575b81612b1060209383613913565b810103126102b6575162ffffff811681036102b657908c612458565b3d9150612b03565b90612397565b6064356001600160a01b031682119061238b565b9050620d89e8809113612b62575b5061233e565b602082015287612b5c565b60010181166122e5565b918101831691811c6122de565b60049283018416921c6122d4565b60089283018416921c6122ca565b60109283018416921c6122bf565b60209283018416921c6122b3565b60409283018416921c6122a5565b60809250821c9050600261228f565b505060ff7f0000000000000000000000000000000000000000000000000000000000000000921660020b900360020b0260020b612316565b612c316001820160020b60020b906101008260081d60010b920760ff1690565b9190612c56600019600160ff86161b01199160010b6000526007602052604060002090565b54169081151592610160519284600014612d9b578093811561037c575060ff906001600160801b03811615612d91575050607f5b6001600160401b03841615612d8757603f190160ff165b63ffffffff841615612d7d57601f190160ff165b61ffff841615612d7357600f190160ff165b60ff841615612d69576007190160ff165b600f841615612d5f576003190160ff165b6003841615612d53576001190160ff16926001905b16612d44575b60ff6001917f000000000000000000000000000000000000000000000000000000000000000094031660020b910160020b0160020b0260020b5b90612318565b60001990920160ff1691612d04565b9260019060021c612cfe565b9260041c92612ce9565b9260081c92612cd8565b9260101c92612cc7565b9260201c92612cb5565b9260401c92612ca1565b60801c9350612c8a565b509150600160ff7f00000000000000000000000000000000000000000000000000000000000000009381031660020b910160020b0160020b0260020b612d3e565b6000190160020b612218565b612e1491507f000000000000000000000000000000000000000000000000000000000000000090614de2565b60020b151589612212565b6001600160801b03602086889596606087015160020b8382015160020b809114156000146136c057612e7b9161ffff806040830151169263ffffffff60408701511688888801511692608081606087015116950151169461409d565b60018060a01b03604089015116916060890151916001549061ffff60c81b9060c81b169064ffffffffff60d81b16179061ffff60b81b9060b81b16179062ffffff60a01b9060a01b1617176001555b0151166001600160801b0360c0850151168091036136a9575b50602435156136635760808301516002556001600160801b0360a0840151168061363d575b505b6101605193846044351360243515151460001461362b57835160443503936020810151955b602435156135605750610160518681811261352d575b5050612f4f613bd9565b333b156102b65760405163fa461e3360e01b8152610160518180612f79888a8d8d60048601613d26565b038161016051335af19081156110d7578791613513575b50612f9a91613b6b565b612fa2613bd9565b10613501575b60408181015160c083015160608085015184518a8152602081018c90526001600160a01b03948516958101959095526001600160801b039092169084015260020b608083015283169033907fc42079f94a6350d7e6235f29174924f928cc2ac818eb64fed8004e115fbcca679060a090a3600454608081901c916001600160801b03821691829081613434575b505082613343575b604051630ec0f7cf60e41b81526020816004817f00000000000000000000000000000000000000000000000000000000000000006001600160a01b03165afa9283156110d7576131156001600160801b0380927fdda96f1e25b7958bc14615d692b58ee048dc91b6a698978693a6986ed1663d1396613120956101605191613324575b50604080516001600160801b0384811682528b1660208201526001600160a01b03929092169133917f596b573906218d3411850b26a6b437d6c4522fdb43d2d2386263f86d50b8b15191a316600f0b8a613d0d565b9416600f0b89613d0d565b60408281015160c0840151606094850151835197885260208801949094526001600160a01b03918216928701929092526001600160801b039091169285019290925260020b60808401529290921691339160a090a36001805460ff60f01b1916600160f01b1790558101906020818303126102b6578035906001600160401b0382116102b65701906060828203126102b65760405190606082018281106001600160401b0382111761330e5760405282356001600160401b0381116102b657830181601f820112156102b6578035906131f882613b8e565b926132066040519485613913565b828452602083830101116102b6576020829101602084013760206101605191830101528152602082013560018060a01b0381168103610cf657602082015260409182013591018190527f00000000000000000000000000000000000000000000000000000000000000006001600160a01b03163b156102b657604051633906290960e01b81526101608051306004840152602483019390935251909190829060449082907f00000000000000000000000000000000000000000000000000000000000000006001600160a01b03165af180156110d7576132f1575b5060409182519182526020820152f35b6132fa90613894565b61016051918261330a57916132e1565b8280fd5b634e487b7160e01b600052604160045260246000fd5b61333d915060203d6020116110d0576110c28183613913565b8e6130c0565b6004548060801c80851461341f575b6001600160801b03919091169084900360801b6001600160801b031916176004908155604051630ec0f7cf60e41b8152906020908290817f00000000000000000000000000000000000000000000000000000000000000006001600160a01b03165afa80156110d7576133fb916101605191613400575b506001600160801b038516907f000000000000000000000000000000000000000000000000000000000000000061547e565b61303d565b613419915060203d6020116110d0576110c28183613913565b8a6133c9565b6000199094016001600160801b031693613352565b6001600160801b0319166000199093016001600160801b039081169182900316929092176004908155604051630ec0f7cf60e41b8152906020908290817f00000000000000000000000000000000000000000000000000000000000000006001600160a01b03165afa9081156110d7576134db91849161016051916134e2575b507f000000000000000000000000000000000000000000000000000000000000000061547e565b8880613035565b6134fb915060203d6020116110d0576110c28183613913565b8b6134b4565b604051635d05ca8f60e11b8152600490fd5b61351d9150613894565b610160518061037c578690612f90565b6135599103837f000000000000000000000000000000000000000000000000000000000000000061547e565b8686612f45565b858181126135f8575b5050613573613c5f565b333b156102b65760405163fa461e3360e01b815261016051818061359d888a8d8d60048601613d26565b038161016051335af19081156110d75788916135de575b506135be91613b6b565b6135c6613c5f565b1015612fa857604051635d05ca8f60e11b8152600490fd5b6135e89150613894565b610160518061037c5787906135b4565b6136249103837f000000000000000000000000000000000000000000000000000000000000000061547e565b8685613569565b60208401519380516044350395612f2f565b6001600160801b03600454918183160116906001600160801b0319161760045584612f08565b60808301516003556001600160801b0360a08401511680613685575b50612f0a565b6001600160801b03600454918119908360801c0160801b169116176004558461367f565b6001600160801b0319600554161760055584612ee3565b505060018060a01b036040870151166bffffffffffffffffffffffff60a01b6001541617600155612eca565b5060408601516064356001600160a01b0390811691161415612171565b6003549061212b565b600f60a084015160041c16936120b1565b60405162461bcd60e51b815260206004820152600360248201526214d41360ea1b6044820152606490fd5b506401000276a36064356001600160a01b031611612080565b81516001600160a01b03908116606435909116118015612080575073fffd8963efd1fc6a506488495d951d5263988d266064356001600160a01b031610612080565b604051627ffe0360e31b8152600490fd5b6137c390613894565b83612042565b34610cf6576000366003190112610cf6577f00000000000000000000000000000000000000000000000000000000000000006001600160a01b03168152602090f35b600435906001600160a01b0382168203610cf657565b9181601f84011215610cf6578235916001600160401b038311610cf65760208381860195010111610cf657565b602435908160020b8203610cf657565b604435908160020b8203610cf657565b600435908160020b8203610cf657565b606435906001600160801b0382168203610cf657565b6001600160401b03811161330e57604052565b60e081019081106001600160401b0382111761330e57604052565b608081019081106001600160401b0382111761330e57604052565b60a081019081106001600160401b0382111761330e57604052565b606081019081106001600160401b0382111761330e57604052565b90601f801991011681019081106001600160401b0382111761330e57604052565b60405190613941826138a7565b8160c060ff60015460018060a01b03811684528060a01c60020b602085015261ffff808260b81c166040860152808260c81c1660608601528160d81c166080850152818160e81c1660a085015260f01c161515910152565b6139a38282613ad8565b60020b9160009183835260069384602052604084209160020b8085526003604086209301549485870b9660018060a01b0392838860381c169863ffffffff96878a60d81c169960f81c15613aa257600301549586840b92868860381c1695898960d81c169860f81c1561037c5750613a19613934565b90602082015160020b928312600014613a3b5750505003900b96031693031690565b829b979695939c949212600014613a8e579185949391899796938842169c60408e92015161ffff166005546001600160801b031691613a79936142ca565b9d9003820b03900b9a03160316950316031690565b509990990390980b97900316945090031690565b8480fd5b7f00000000000000000000000000000000000000000000000000000000000000006001600160a01b03163003610cf657565b9060020b9060020b81811215613b2157620d89e71913613b0f57620d89e812613afd57565b60405163d7b54ab160e01b8152600490fd5b60405163135ac25d60e31b8152600490fd5b604051632fe0284f60e01b8152600490fd5b6001600160401b03811161330e5760051b60200190565b908060209392818452848401376000828201840152601f01601f1916010190565b91908201809211613b7857565b634e487b7160e01b600052601160045260246000fd5b6001600160401b03811161330e57601f01601f191660200190565b3d15613bd4573d90613bba82613b8e565b91613bc86040519384613913565b82523d6000602084013e565b606090565b60405160208101906370a0823160e01b825230602482015260248152613bfe816138f8565b60008092819251907f00000000000000000000000000000000000000000000000000000000000000005afa90613c32613ba9565b9180613c53575b1561037c5760208280518101031261037c57506020015190565b50602082511015613c39565b60405160208101906370a0823160e01b825230602482015260248152613c84816138f8565b60008092819251907f00000000000000000000000000000000000000000000000000000000000000005afa90613c32613ba9565b9190916001600160801b0380809416911601918211613b7857565b600f0b6f7fffffffffffffffffffffffffffffff198114613b785760000390565b6001600160801b039182169082160391908211613b7857565b81810392916000138015828513169184121617613b7857565b613d429492606092825260208201528160408201520191613b4a565b90565b90816020910312610cf657516001600160a01b0381168103610cf65790565b90919060001983820983820291828083109203948286039260009614613dcd57620f42409183831115613dc9577fde8f6cefed634549b62c77574f722e1ac57e23f24d8fd5cb790fb65668c261399596500990828211900360fa1b910360061c170290565b8680fd5b505050620f42409192500490565b90600160801b90600019828409928060801b92838086109503948086039514613e575784831115610cf65782910981806000031680920460028082600302188083028203028083028203028083028203028083028203028083028203028092029003029360018380600003040190848311900302920304170290565b505080925015610cf6570490565b6000198282099082810292838084109303918383039360009314613ea557600160801b928484111561037c57500990828211900360801b910360801c1790565b505090505060801c90565b6000198282099082810292838084109303918383039360009314613ef057600160601b928484111561037c57500990828211900360a01b910360601c1790565b505090505060601c90565b90600160601b90600019828409928060601b92838086109503948086039514613e575784831115610cf65782910981806000031680920460028082600302188083028203028083028203028083028203028083028203028083028203028092029003029360018380600003040190848311900302920304170290565b6000198282099082810292838084109303928084039314613fb357600160601b9183831115610cf6570990828211900360a01b910360601c1790565b50505060601c90565b916000198284099282810292838086109503948086039514613e575784831115610cf65782910981806000031680920460028082600302188083028203028083028203028083028203028083028203028083028203028092029003029360018380600003040190848311900302920304170290565b9060405161403e816138c2565b915463ffffffff81168352602081811c60060b90840152605881901c6001600160a01b0316604084015260f81c15156060830152565b9061ffff80911691821561408757160690565b634e487b7160e01b600052601260045260246000fd5b949195939592909261ffff9384871015614156576140bd87600901614031565b9663ffffffff9485895116868416146141875761410494939291876140fe928c8260019d9e168383161180614176575b1561416c57509a8b925b0116614074565b986141b7565b918510156141565781511690602081015160201b916affffffffffffff00000000600160581b600160f81b03604084015160581b1692606060ff60f81b910151151560f81b1693161717178360090155565b634e487b7160e01b600052603260045260246000fd5b90509a8b926140f7565b5083831660001982018416146140ed565b509796505050505050565b6040519061419f826138c2565b60006060838281528260208201528260408201520152565b6040929391936141c5614192565b508151602083015194909201516001600160a01b03949085169363ffffffff938416870392906001600160801b03908181161561424f575b169384156140875780604051986142138a6138c2565b168852831660060b9060020b0260060b9060060b0160060b602086015263ffffffff60801b9060801b1604011660408201526001606082015290565b5060016141fd565b61ffff90818116908115610f1457828416918211156142b9575b81838216106142805750505090565b828110156142a45760018184926009018263ffffffff198254161790550116614271565b60246000634e487b7160e01b81526032600452fd5b9250505090565b8115614087570490565b93929161ffff811015614156576142e390600901614031565b9363ffffffff8086511690821603614312575b505050602082015160060b91604060018060a01b039101511690565b61431c93946141b7565b903880806142f6565b929594919593909363ffffffff96878087161561441457859661434b960316809661445a565b919093808551168083146000146143795750505050602082015160060b91604060018060a01b039101511690565b8184969451168084146000146143a7575050505050602082015160060b91604060018060a01b039101511690565b81839197949597031693031693602081015192600693840b92836020820151860b03850b9282860b9283156140875760409182015192909101516001600160a01b039283169183916144029190831684900383168b026142c0565b16011695840b910502820b01900b9190565b5093925090935061ffff8110156141565761443190600901614031565b94808651169082160361431257505050602082015160060b91604060018060a01b039101511690565b94959291939093614469614192565b50614472614192565b9161ffff8410156141565761448984600901614031565b9163ffffffff83511661449d88828b61466e565b614642575050505050600161ffff9101166144b88582614074565b61ffff811015614156576144ce90600901614031565b836060820151156145f5575b63ffffffff6144eb9251168661466e565b156145e35761450f8561ffff92614500614192565b50614509614192565b50614074565b1661ffff85168101600019015b80820160011c9061453161ffff8816836146e7565b61ffff8110156141565761454790600901614031565b6060810151156145d85761456261ffff8916600185016146e7565b61ffff8110156141565761457890600901614031565b61458a8763ffffffff8451168a61466e565b9182806145c0575b6145b35750506145a9575060001901905b9061451c565b91506001016145a3565b9850965093945050505050565b506145d363ffffffff835116898b61466e565b614592565b5091506001016145a3565b6040516327e8e87560e01b8152600490fd5b6144eb915063ffffffff60405161460b816138c2565b60095482811682528060201c60060b602083015260018060a01b038160581c16604083015260f81c151560608201529250506144da565b9296939850935093955063ffffffff821614600014614662575050509190565b83613d429496506141b7565b63ffffffff8080921692168281118015806146db575b6146d057156146bc57925b16908111156146a9575b64ffffffffff8091169116111590565b6401000000000164ffffffffff16614699565b6401000000000164ffffffffff169261468f565b509290915016101590565b50838386161115614684565b8115614087570690565b80518210156141565760209160051b010190565b916040519160208301936bffffffffffffffffffffffff199060601b16845260e81b603483015260e81b6037820152601a8152604081018181106001600160401b0382111761330e576040525190206000526008602052604060002090565b919060008083600f0b126000146147e257506001600160a01b0392908082858216868216116147d7575b5050838216928315610cf6576147c5946147c0938382169303169060000360601b600160601b600160e01b0316613fbc565b6142c0565b600160ff1b811015610cf65760000390565b91509150388061478e565b92916001600160a01b03828482821683821611614847575b50508084169384156148435761482993808316939190039091169060601b600160601b600160e01b031661491d565b81810491900615150190600160ff1b82101561037c575090565b8580fd5b909450925038806147fa565b6001600160a01b03929183811684831611614896575b838216928315610cf657613d42946147c0938382169303169060601b600160601b600160e01b0316613fbc565b90614869565b6001600160a01b0392909190838216848416116148e9575b838316938415610cf6576148dd938382169303169060601b600160601b600160e01b031661491d565b90808206151591040190565b9190916148b4565b9190916148fe8382613f77565b92600160601b910961490c57565b90600019811015610cf65760010190565b92919061492b828286613fbc565b938215614087570961490c57565b60009291600f83900b841315614987576147c593506001600160a01b03919080828482168582161161497c575b50500316906000036001600160801b0316613eb0565b915091503880614966565b6149b692916001600160a01b03918082848216858216116149c7575b50500316906001600160801b03166148f1565b90600160ff1b82101561037c575090565b9150915038806149a3565b613d4292916001600160801b03916001600160a01b0391828116838316116149fe575b03169116613eb0565b906149f5565b613d4292916001600160801b03916001600160a01b039182811683831611614a30575b031691166148f1565b90614a27565b91908115614a9a576001600160a01b039283168281029260609290921b600160601b600160e01b0316918190614a6c90856142c0565b1480614a91575b15610cf657614a849282039161491d565b908116908103610cf65790565b50828211614a73565b505090565b91908115614a9a576001600160a01b039260609190911b600160601b600160e01b03169190831680820281614ad484836142c0565b14614afa575b5090614ae9614aee92846142c0565b613b6b565b80820615159104011690565b8301838110614ada579150614b0e9261491d565b1690565b989795969194909860020b96600094888652600660205260408620986001600160801b03808b541690808a600f0b9a8a8c12600014614ca257614b57614b5f91613cd3565b821684613cf4565b169a168a11614c9057159b8c8a1514159c614bcc575b505050505050506001600160801b03199183838654161760801d600f0b019060016001607f1b0319821260016001607f1b03831317614bb8575060801b16179055565b634e487b7160e01b81526011600452602490fd5b60020b1215614bfe575b505050506003850180546001600160f81b0316600160f81b1790555038808080808080614b75565b60018901949094556002880193909355600387018054600160381b600160d81b03191660389290921b600160381b600160d81b0316919091178155614c86925b81547fff00000000ffffffffffffffffffffffffffffffffffffffff000000000000001666ffffffffffffff919091161760d89290921b63ffffffff60d81b16919091179055565b3880808080614bd6565b6040516368d2be8f60e01b8152600490fd5b614cae90821684613cb8565b614b5f565b989795969194909860020b96600094888652600660205260408620986001600160801b03808b541690808a600f0b9a8a8c12600014614dd157614b57614cf891613cd3565b169a168a11614c9057159b8c8a1514159c614d51575b505050505050506001600160801b03199183838654161760801d600f0b039060016001607f1b03821360016001607f1b0319831217614bb8575060801b16179055565b60020b1215614d83575b505050506003850180546001600160f81b0316600160f81b1790555038808080808080614d0e565b60018901949094556002880193909355600387018054600160381b600160d81b03191660389290921b600160381b600160d81b0316919091178155614dc792614c3e565b3880808080614d5b565b614ddd90821684613cb8565b614cf8565b9060020b9081156140875760020b0790565b9060020b9081156140875760020b0590565b614e108282614de2565b60020b610cf657614e3a91614e2491614df4565b60020b906101008260081d60010b920760ff1690565b9060010b6000526007602052600160ff604060002092161b8154189055565b60020b60008112156151c45780600003905b620d89e882116151b25760018216156151a0576001600160881b036ffffcb933bd6fad37aa2d162d1a5940015b169160028116615184575b60048116615168575b6008811661514c575b60108116615130575b60208116615114575b604081166150f8575b6080908181166150dd575b61010081166150c2575b61020081166150a7575b610400811661508c575b6108008116615071575b6110008116615056575b612000811661503b575b6140008116615020575b6180008116615005575b620100008116614fea575b620200008116614fd0575b620400008116614fb6575b6208000016614f9b575b50600012614f8c575b63ffffffff8116614f84576000905b60201c60ff91909116016001600160a01b031690565b600190614f6e565b80156140875760001904614f5f565b6b048a170391f7dc42444e8fa26000929302901c9190614f56565b6d2216e584f5fa1ea926041bedfe98909302811c92614f4c565b926e5d6af8dedb81196699c329225ee60402811c92614f41565b926f09aa508b5b7a84e1c677de54f3e99bc902811c92614f36565b926f31be135f97d08fd981231505542fcfa602811c92614f2b565b926f70d869a156d2a1b890bb3df62baf32f702811c92614f21565b926fa9f746462d870fdf8a65dc1f90e061e502811c92614f17565b926fd097f3bdfd2022b8845ad8f792aa582502811c92614f0d565b926fe7159475a2c29b7443b29c7fa6e889d902811c92614f03565b926ff3392b0822b70005940c7a398e4b70f302811c92614ef9565b926ff987a7253ac413176f2b074cf7815e5402811c92614eef565b926ffcbe86c7900a88aedcffc83b479aa3a402811c92614ee5565b926ffe5dee046a99a2a811c461f1969c305302811c92614edb565b916fff2ea16466c96a3843ec78b326b528610260801c91614ed0565b916fff973b41fa98c081472e6896dfb254c00260801c91614ec7565b916fffcb9843d60f6159c9db58835c9266440260801c91614ebe565b916fffe5caca7e10e4e61c3624eaa0941cd00260801c91614eb5565b916ffff2e50f5f656932ef12357cf3c7fdcc0260801c91614eac565b916ffff97272373d413259a46990580e213a0260801c91614ea3565b6001600160881b03600160801b614e98565b6040516315e4079d60e11b8152600490fd5b80614e6b565b6001600160a01b03818116916401000276a383101580615461575b1561544f57640100000000600160c01b039060201b16806001600160801b03811160071b9181831c926001600160401b03841160061b93841c9363ffffffff851160051b94851c9461ffff861160041b95861c60ff9687821160031b91821c92600f841160021b93841c94600160038711811b96871c1196171717171717179160808310156000146154435750607e1982011c5b8002607f928392828493841c81841c1c800280851c81851c1c800280861c81861c1c800280871c81871c1c80029081881c82881c1c80029283891c84891c1c800294858a1c868a1c1c800296878b1c888b1c1c800298898c1c8a8c1c1c80029a8b8d1c8c821c1c8002809d1c8d821c1c8002809e81901c90821c1c80029e8f80911c911c1c800260cd1c6604000000000000169d60cc1c6608000000000000169c60cb1c6610000000000000169b60ca1c6620000000000000169a60c91c6640000000000000169960c81c6680000000000000169860c71c670100000000000000169760c61c670200000000000000169660c51c670400000000000000169560c41c670800000000000000169460c31c671000000000000000169360c21c672000000000000000169260c11c674000000000000000169160c01c6780000000000000001690607f190160401b1717171717171717171717171717693627a301d71055774c8502906f028f6481ab7f045a5af012a19d003aa919820160801d60020b916fdb2df09e81959a81455e260799a0632f0160801d60020b9260009184841460001461542957505050905090565b61543285614e59565b1611905061543e575090565b905090565b905081607f031b615279565b6040516324c070df60e11b8152600490fd5b5073fffd8963efd1fc6a506488495d951d5263988d2683106151e5565b60405163a9059cbb60e01b602082019081526001600160a01b03939093166024820152604480820194909452928352916154b9606482613913565b600092839283809351925af1906154ce613ba9565b90826154f0575b5050156154de57565b604051638b98626560e01b8152600490fd5b908092505191821592831561550a575b50505038806154d5565b819293509060209181010312615531576020015190811515820361037c5750388080615500565b5080fdfea26469706673582212204cec5deab577febc3fe6307cefe9ca04d65ad2bd1f7b93fbb55cdbc745af483c64736f6c63430008130033a2646970667358221220cc44ad0b9ff94e320d601f5e70a53b12164cda511d10ef7296f971cb626241a064736f6c63430008130033",
  "devdoc": {
    "events": {
      "FeeAmountEnabled(uint24,int24)": {
        "params": {
          "fee": "The enabled fee, denominated in hundredths of a bip",
          "tickSpacing": "The minimum number of ticks between initialized ticks for pools created with the given fee"
        }
      },
      "OwnerChanged(address,address)": {
        "params": {
          "newOwner": "The owner after the owner was changed",
          "oldOwner": "The owner before the owner was changed"
        }
      },
      "PoolCreated(address,address,uint24,int24,address)": {
        "params": {
          "fee": "The fee collected upon every swap in the pool, denominated in hundredths of a bip",
          "pool": "The address of the created pool",
          "tickSpacing": "The minimum number of ticks between initialized ticks",
          "token0": "The first token of the pool by address sort order",
          "token1": "The second token of the pool by address sort order"
        }
      }
    },
    "kind": "dev",
    "methods": {
      "createPool(address,address,uint24)": {
        "details": "tokenA and tokenB may be passed in either order: token0/token1 or token1/token0. tickSpacing is retrieved from the fee. The call will revert if the pool already exists, the fee is invalid, or the token arguments are invalid.",
        "params": {
          "fee": "The desired fee for the pool",
          "tokenA": "One of the two tokens in the desired pool",
          "tokenB": "The other of the two tokens in the desired pool"
        },
        "returns": {
          "pool": "The address of the newly created pool"
        }
      },
      "enableFeeAmount(uint24,int24)": {
        "details": "Fee amounts may never be removed once enabled",
        "params": {
          "fee": "The fee amount to enable, denominated in hundredths of a bip (i.e. 1e-6)",
          "tickSpacing": "The spacing between ticks to be enforced for all pools created with the given fee amount"
        }
      },
      "setOwner(address)": {
        "details": "Must be called by the current owner",
        "params": {
          "_owner": "The new owner of the factory"
        }
      }
    },
    "stateVariables": {
      "feeAmountTickSpacing": {
        "details": "A fee amount can never be removed, so this value should be hard coded or cached in the calling context",
        "params": {
          "fee": "The enabled fee, denominated in hundredths of a bip. Returns 0 in case of unenabled fee"
        },
        "return": "The tick spacing",
        "returns": {
          "_0": "The tick spacing"
        }
      },
      "getPool": {
        "details": "tokenA and tokenB may be passed in either token0/token1 or token1/token0 order",
        "params": {
          "fee": "The fee collected upon every swap in the pool, denominated in hundredths of a bip",
          "tokenA": "The contract address of either token0 or token1",
          "tokenB": "The contract address of the other token"
        },
        "return": "The pool address",
        "returns": {
          "_0": "The pool address"
        }
      },
      "owner": {
        "details": "Can be changed by the current owner via setOwner",
        "return": "The address of the factory owner",
        "returns": {
          "_0": "The address of the factory owner"
        }
      }
    },
    "title": "Canonical Uniswap V3 factory",
    "version": 1
  },
  "userdoc": {
    "events": {
      "FeeAmountEnabled(uint24,int24)": {
        "notice": "Emitted when a new fee amount is enabled for pool creation via the factory"
      },
      "OwnerChanged(address,address)": {
        "notice": "Emitted when the owner of the factory is changed"
      },
      "PoolCreated(address,address,uint24,int24,address)": {
        "notice": "Emitted when a pool is created"
      }
    },
    "kind": "user",
    "methods": {
      "createPool(address,address,uint24)": {
        "notice": "Creates a pool for the given two tokens and fee"
      },
      "enableFeeAmount(uint24,int24)": {
        "notice": "Enables a fee amount with the given tickSpacing"
      },
      "feeAmountTickSpacing(uint24)": {
        "notice": "Returns the tick spacing for a given fee amount, if enabled, or 0 if not enabled"
      },
      "getPool(address,address,uint24)": {
        "notice": "Returns the pool address for a given pair of tokens and a fee, or address 0 if it does not exist"
      },
      "owner()": {
        "notice": "Returns the current owner of the factory"
      },
      "parameters()": {
        "notice": "Get the parameters to be used in constructing the pool, set transiently during pool creation."
      },
      "setOwner(address)": {
        "notice": "Updates the owner of the factory"
      }
    },
    "notice": "Deploys Uniswap V3 pools and manages ownership and control over pool protocol fees",
    "version": 1
  },
  "storageLayout": {
    "storage": [
      {
        "astId": 5983,
        "contract": "@kayen/uniswap-v3-core/contracts/UniswapV3Factory.sol:UniswapV3Factory",
        "label": "parameters",
        "offset": 0,
        "slot": "0",
        "type": "t_struct(Parameters)5978_storage"
      },
      {
        "astId": 3260,
        "contract": "@kayen/uniswap-v3-core/contracts/UniswapV3Factory.sol:UniswapV3Factory",
        "label": "owner",
        "offset": 0,
        "slot": "4",
        "type": "t_address"
      },
      {
        "astId": 3266,
        "contract": "@kayen/uniswap-v3-core/contracts/UniswapV3Factory.sol:UniswapV3Factory",
        "label": "feeAmountTickSpacing",
        "offset": 0,
        "slot": "5",
        "type": "t_mapping(t_uint24,t_int24)"
      },
      {
        "astId": 3276,
        "contract": "@kayen/uniswap-v3-core/contracts/UniswapV3Factory.sol:UniswapV3Factory",
        "label": "getPool",
        "offset": 0,
        "slot": "6",
        "type": "t_mapping(t_address,t_mapping(t_address,t_mapping(t_uint24,t_address)))"
      },
      {
        "astId": 3279,
        "contract": "@kayen/uniswap-v3-core/contracts/UniswapV3Factory.sol:UniswapV3Factory",
        "label": "config",
        "offset": 0,
        "slot": "7",
        "type": "t_contract(IPoolConfiguration)6147"
      }
    ],
    "types": {
      "t_address": {
        "encoding": "inplace",
        "label": "address",
        "numberOfBytes": "20"
      },
      "t_contract(IPoolConfiguration)6147": {
        "encoding": "inplace",
        "label": "contract IPoolConfiguration",
        "numberOfBytes": "20"
      },
      "t_int24": {
        "encoding": "inplace",
        "label": "int24",
        "numberOfBytes": "3"
      },
      "t_mapping(t_address,t_mapping(t_address,t_mapping(t_uint24,t_address)))": {
        "encoding": "mapping",
        "key": "t_address",
        "label": "mapping(address => mapping(address => mapping(uint24 => address)))",
        "numberOfBytes": "32",
        "value": "t_mapping(t_address,t_mapping(t_uint24,t_address))"
      },
      "t_mapping(t_address,t_mapping(t_uint24,t_address))": {
        "encoding": "mapping",
        "key": "t_address",
        "label": "mapping(address => mapping(uint24 => address))",
        "numberOfBytes": "32",
        "value": "t_mapping(t_uint24,t_address)"
      },
      "t_mapping(t_uint24,t_address)": {
        "encoding": "mapping",
        "key": "t_uint24",
        "label": "mapping(uint24 => address)",
        "numberOfBytes": "32",
        "value": "t_address"
      },
      "t_mapping(t_uint24,t_int24)": {
        "encoding": "mapping",
        "key": "t_uint24",
        "label": "mapping(uint24 => int24)",
        "numberOfBytes": "32",
        "value": "t_int24"
      },
      "t_struct(Parameters)5978_storage": {
        "encoding": "inplace",
        "label": "struct UniswapV3PoolDeployer.Parameters",
        "members": [
          {
            "astId": 5966,
            "contract": "@kayen/uniswap-v3-core/contracts/UniswapV3Factory.sol:UniswapV3Factory",
            "label": "factory",
            "offset": 0,
            "slot": "0",
            "type": "t_address"
          },
          {
            "astId": 5968,
            "contract": "@kayen/uniswap-v3-core/contracts/UniswapV3Factory.sol:UniswapV3Factory",
            "label": "token0",
            "offset": 0,
            "slot": "1",
            "type": "t_address"
          },
          {
            "astId": 5970,
            "contract": "@kayen/uniswap-v3-core/contracts/UniswapV3Factory.sol:UniswapV3Factory",
            "label": "token1",
            "offset": 0,
            "slot": "2",
            "type": "t_address"
          },
          {
            "astId": 5972,
            "contract": "@kayen/uniswap-v3-core/contracts/UniswapV3Factory.sol:UniswapV3Factory",
            "label": "fee",
            "offset": 20,
            "slot": "2",
            "type": "t_uint24"
          },
          {
            "astId": 5974,
            "contract": "@kayen/uniswap-v3-core/contracts/UniswapV3Factory.sol:UniswapV3Factory",
            "label": "tickSpacing",
            "offset": 23,
            "slot": "2",
            "type": "t_int24"
          },
          {
            "astId": 5977,
            "contract": "@kayen/uniswap-v3-core/contracts/UniswapV3Factory.sol:UniswapV3Factory",
            "label": "config",
            "offset": 0,
            "slot": "3",
            "type": "t_contract(IPoolConfiguration)6147"
          }
        ],
        "numberOfBytes": "128"
      },
      "t_uint24": {
        "encoding": "inplace",
        "label": "uint24",
        "numberOfBytes": "3"
      }
    }
  }
}