{
  "address": "0xf63A6a5CDCc5C467C4E456882892013490568630",
  "abi": [
    {
      "inputs": [
        {
          "internalType": "contract Configuration",
          "name": "_config",
          "type": "address"
        }
      ],
      "stateMutability": "nonpayable",
      "type": "constructor"
    },
    {
      "anonymous": false,
      "inputs": [
        {
          "indexed": true,
          "internalType": "address",
          "name": "previousOwner",
          "type": "address"
        },
        {
          "indexed": true,
          "internalType": "address",
          "name": "newOwner",
          "type": "address"
        }
      ],
      "name": "OwnershipTransferred",
      "type": "event"
    },
    {
      "anonymous": false,
      "inputs": [
        {
          "indexed": false,
          "internalType": "string",
          "name": "name",
          "type": "string"
        },
        {
          "indexed": false,
          "internalType": "string",
          "name": "symbol",
          "type": "string"
        },
        {
          "indexed": false,
          "internalType": "address",
          "name": "token",
          "type": "address"
        },
        {
          "indexed": false,
          "internalType": "address",
          "name": "paymentToken",
          "type": "address"
        },
        {
          "indexed": false,
          "internalType": "address",
          "name": "pairAddress",
          "type": "address"
        },
        {
          "indexed": false,
          "internalType": "uint256",
          "name": "presaleAmount",
          "type": "uint256"
        },
        {
          "indexed": false,
          "internalType": "uint256",
          "name": "totalSupply",
          "type": "uint256"
        },
        {
          "indexed": false,
          "internalType": "uint256",
          "name": "saleAmount",
          "type": "uint256"
        },
        {
          "indexed": false,
          "internalType": "string",
          "name": "data",
          "type": "string"
        }
      ],
      "name": "PresaleCreated",
      "type": "event"
    },
    {
      "inputs": [
        {
          "internalType": "uint256",
          "name": "",
          "type": "uint256"
        }
      ],
      "name": "allPresales",
      "outputs": [
        {
          "internalType": "address",
          "name": "",
          "type": "address"
        }
      ],
      "stateMutability": "view",
      "type": "function"
    },
    {
      "inputs": [
        {
          "internalType": "address",
          "name": "target",
          "type": "address"
        }
      ],
      "name": "getPresale",
      "outputs": [
        {
          "internalType": "contract IPresale",
          "name": "",
          "type": "address"
        }
      ],
      "stateMutability": "view",
      "type": "function"
    },
    {
      "inputs": [
        {
          "internalType": "address",
          "name": "target",
          "type": "address"
        }
      ],
      "name": "getProgress",
      "outputs": [
        {
          "internalType": "uint256",
          "name": "",
          "type": "uint256"
        }
      ],
      "stateMutability": "view",
      "type": "function"
    },
    {
      "inputs": [
        {
          "internalType": "address",
          "name": "target",
          "type": "address"
        }
      ],
      "name": "getRaisedAmount",
      "outputs": [
        {
          "internalType": "uint256",
          "name": "",
          "type": "uint256"
        }
      ],
      "stateMutability": "view",
      "type": "function"
    },
    {
      "inputs": [
        {
          "internalType": "address",
          "name": "target",
          "type": "address"
        }
      ],
      "name": "isBondingCurveEnd",
      "outputs": [
        {
          "internalType": "bool",
          "name": "",
          "type": "bool"
        }
      ],
      "stateMutability": "view",
      "type": "function"
    },
    {
      "inputs": [
        {
          "internalType": "address",
          "name": "target",
          "type": "address"
        }
      ],
      "name": "isExpired",
      "outputs": [
        {
          "internalType": "bool",
          "name": "",
          "type": "bool"
        }
      ],
      "stateMutability": "view",
      "type": "function"
    },
    {
      "inputs": [
        {
          "internalType": "address",
          "name": "target",
          "type": "address"
        }
      ],
      "name": "isPending",
      "outputs": [
        {
          "internalType": "bool",
          "name": "",
          "type": "bool"
        }
      ],
      "stateMutability": "view",
      "type": "function"
    },
    {
      "inputs": [
        {
          "internalType": "address",
          "name": "",
          "type": "address"
        }
      ],
      "name": "isRegistered",
      "outputs": [
        {
          "internalType": "bool",
          "name": "",
          "type": "bool"
        }
      ],
      "stateMutability": "view",
      "type": "function"
    },
    {
      "inputs": [],
      "name": "owner",
      "outputs": [
        {
          "internalType": "address",
          "name": "",
          "type": "address"
        }
      ],
      "stateMutability": "view",
      "type": "function"
    },
    {
      "inputs": [
        {
          "internalType": "address",
          "name": "",
          "type": "address"
        }
      ],
      "name": "presales",
      "outputs": [
        {
          "internalType": "address",
          "name": "",
          "type": "address"
        }
      ],
      "stateMutability": "view",
      "type": "function"
    },
    {
      "inputs": [
        {
          "internalType": "address",
          "name": "",
          "type": "address"
        }
      ],
      "name": "presalesByPool",
      "outputs": [
        {
          "internalType": "address",
          "name": "",
          "type": "address"
        }
      ],
      "stateMutability": "view",
      "type": "function"
    },
    {
      "inputs": [
        {
          "internalType": "contract IPresale",
          "name": "presale",
          "type": "address"
        }
      ],
      "name": "register",
      "outputs": [],
      "stateMutability": "nonpayable",
      "type": "function"
    },
    {
      "inputs": [],
      "name": "renounceOwnership",
      "outputs": [],
      "stateMutability": "nonpayable",
      "type": "function"
    },
    {
      "inputs": [
        {
          "internalType": "address",
          "name": "newOwner",
          "type": "address"
        }
      ],
      "name": "transferOwnership",
      "outputs": [],
      "stateMutability": "nonpayable",
      "type": "function"
    }
  ],
  "transactionHash": "0xf0ac3ac35b7a3bf5d0b64336e288c43ddb02aa7ea16c0746beec29c062ed3ff8",
  "args": [
    "0xbfAAFc602ecb20196ddBaC168122458196098fC2"
  ],
  "numDeployments": 1,
  "solcInputHash": "857f6750aaf88ea2f7c1a0515a6bc843",
  "bytecode": "0x6080346100a757601f610d0a38819003918201601f19168301916001600160401b038311848410176100ac578084926020946040528339810103126100a757516001600160a01b0390818116908190036100a75760005460018060a01b0319903382821617600055604051933391167f8be0079c531659141344cd1fd0a4f28419497f9722a3daafe3b4186f6b6457e0600080a36005541617600555610c4790816100c38239f35b600080fd5b634e487b7160e01b600052604160045260246000fdfe608060408181526004908136101561001657600080fd5b600092833560e01c9081634420e486146105cd5750806350ecc0aa146105715780635613100614610513578063715018a6146104b957806377ce88eb1461047e5780638da5cb5b14610456578063a00745b6146103c1578063a9e1a14a14610381578063aef76501146102f2578063ba2eb54114610247578063c3c5a54714610208578063d4ed77b5146101cb578063efcd708f1461018a5763f2fde38b146100be57600080fd5b34610186576020366003190112610186576001600160a01b03823581811693919290849003610182576100ef610989565b831561013057505082546001600160a01b0319811683178455167f8be0079c531659141344cd1fd0a4f28419497f9722a3daafe3b4186f6b6457e08380a380f35b906020608492519162461bcd60e51b8352820152602660248201527f4f776e61626c653a206e6577206f776e657220697320746865207a65726f206160448201526564647265737360d01b6064820152fd5b8480fd5b8280fd5b509034610186576020366003190112610186576001600160a01b039035818116908190036101c75783839160209552600285522054169051908152f35b8380fd5b509034610186576020366003190112610186576001600160a01b039035818116908190036101c75783839160209552600385522054169051908152f35b50903461018657602036600319011261018657356001600160a01b0381169081900361018657818360ff92602095526001855220541690519015158152f35b508290346102ee5760209283600319360112610186576001600160a01b0381358181168103610182579061027b8692610bd2565b16835192838092630bc4ed8360e21b82525afa9283156102e35780936102a6575b5050519015158152f35b909192508382813d83116102dc575b6102bf81836109e1565b810103126102d957506102d190610a19565b90838061029c565b80fd5b503d6102b5565b8251903d90823e3d90fd5b5080fd5b508290346102ee5760209283600319360112610186576001600160a01b038135818116810361018257906103268692610bd2565b168351928380926349ce222b60e11b82525afa9283156102e357809361034f575b505051908152f35b909192508382813d831161037a575b61036881836109e1565b810103126102d9575051908380610347565b503d61035e565b5082346102d95760203660031901126102d957823592548310156102d957506103ab60209261093c565b905491519160018060a01b039160031b1c168152f35b50903461018657602036600319011261018657826001600160a01b0382358181168103610186576103f190610bd2565b16835192838092631b80ac7560e11b82525afa90811561044a5790610120918460209592610427575b5050015190519042108152f35b61044392503d8091833e61043b81836109e1565b810190610ab7565b388061041a565b505051903d90823e3d90fd5b8382346102ee57816003193601126102ee57905490516001600160a01b039091168152602090f35b5090346101865760203660031901126101865735916001600160a01b039081841684036102d957506104b1602093610bd2565b915191168152f35b83346102d957806003193601126102d9576104d2610989565b80546001600160a01b03198116825581906001600160a01b03167f8be0079c531659141344cd1fd0a4f28419497f9722a3daafe3b4186f6b6457e08280a380f35b508290346102ee5760209283600319360112610186576001600160a01b038135818116810361018257906105478692610bd2565b1683519283809263352b263f60e21b82525afa9283156102e35780936102a6575050519015158152f35b508290346102ee5760209283600319360112610186576001600160a01b038135818116810361018257906105a58692610bd2565b1683519283809263473af24160e11b82525afa9283156102e357809361034f57505051908152f35b9050839134610186576020806003193601126101c7576001600160a01b03853581811694908590036109315782816024818560055416632066bf6d60e21b8252338c8301525afa9081156108b6578691610903575b50156108c0578251636addb66360e01b8152918583888183895af19081156108b6578695879688958994610838575b508416908189526001835260ff878a2054166107ea578651631b80ac7560e11b81529489868c81855afa9586156107e0578a966107c4575b50828a5260028452878a20916bffffffffffffffffffffffff60a01b92818482541617905560018552888b20600160ff1982541617905588870192828451168c5260038652818a8d20918254161790558b54680100000000000000008110156107b157916107749a999795939161072e847f5907e68cbd0987ce3c33605889d26eb3a84e33833c3ccb79192c00ca73f707319e9f60016107ab9d9b999701905561093c565b83829392549160031b92831b921b1916179055806060870151169151169161078060808701519460c060a0890151980151988a51809e819e610120808452830190610bad565b92818403910152610bad565b978a01526060890152608088015260a087015260c086015260e0850152838203610100850152610bad565b0390a180f35b634e487b7160e01b8c5260418d5260248cfd5b6107d99196503d808c833e61043b81836109e1565b948b610689565b88513d8c823e3d90fd5b865162461bcd60e51b8152808b01849052602260248201527f50726573616c654d616e616765723a20414c52454144595f5245474953544552604482015261115160f21b6064820152608490fd5b975050935090503d8087873e61084e81876109e1565b8501906080868303126108b25761086486610a2b565b93818701519267ffffffffffffffff938481116108ae5781610887918a01610a62565b93878901519081116108ae576108a286926060928b01610a62565b98015193979590610651565b8980fd5b8680fd5b84513d88823e3d90fd5b825162461bcd60e51b8152808701839052601960248201527f50726573616c654d616e616765723a20464f5242494444454e000000000000006044820152606490fd5b90508281813d8311610935575b61091a81836109e1565b810103126109315761092b90610a19565b87610622565b8580fd5b503d610910565b6004548110156109735760046000527f8a35acfbc15ff81a39ae7d344fd709f28e8600b4aa8c65c6b64bfe7fe36bd19b0190600090565b634e487b7160e01b600052603260045260246000fd5b6000546001600160a01b0316330361099d57565b606460405162461bcd60e51b815260206004820152602060248201527f4f776e61626c653a2063616c6c6572206973206e6f7420746865206f776e65726044820152fd5b90601f8019910116810190811067ffffffffffffffff821117610a0357604052565b634e487b7160e01b600052604160045260246000fd5b51908115158203610a2657565b600080fd5b51906001600160a01b0382168203610a2657565b60005b838110610a525750506000910152565b8181015183820152602001610a42565b81601f82011215610a2657805167ffffffffffffffff8111610a035760405192610a96601f8301601f1916602001856109e1565b81845260208284010111610a2657610ab49160208085019101610a3f565b90565b602081830312610a2657805167ffffffffffffffff91828211610a26570190610160928383820312610a265760405193840184811083821117610a0357604052610b0083610a2b565b8452610b0e60208401610a2b565b6020850152610b1f60408401610a2b565b6040850152610b3060608401610a2b565b60608501526080830151608085015260a083015160a085015260c0830151918211610a2657610b60918301610a62565b60c083015260e081015162ffffff81168103610a265760e0830152610100610b89818301610a19565b908301526101208082015190830152610ba6610140809201610a19565b9082015290565b90602091610bc681518092818552858086019101610a3f565b601f01601f1916010190565b6001600160a01b03908116600090815260026020526040902054811615610c025760026020526040600020541690565b6003602052604060002054169056fea26469706673582212204dee3c534ad221cec42993e6579e7a4e24988dd251a08c08100d6a90f5e8786364736f6c63430008130033",
  "devdoc": {
    "kind": "dev",
    "methods": {
      "owner()": {
        "details": "Returns the address of the current owner."
      },
      "renounceOwnership()": {
        "details": "Leaves the contract without owner. It will not be possible to call `onlyOwner` functions. Can only be called by the current owner. NOTE: Renouncing ownership will leave the contract without an owner, thereby disabling any functionality that is only available to the owner."
      },
      "transferOwnership(address)": {
        "details": "Transfers ownership of the contract to a new account (`newOwner`). Can only be called by the current owner."
      }
    },
    "version": 1
  },
  "userdoc": {
    "kind": "user",
    "methods": {},
    "version": 1
  },
  "storageLayout": {
    "storage": [
      {
        "astId": 20984,
        "contract": "contracts/presale-manager/PresaleManager.sol:PresaleManager",
        "label": "_owner",
        "offset": 0,
        "slot": "0",
        "type": "t_address"
      },
      {
        "astId": 27815,
        "contract": "contracts/presale-manager/PresaleManager.sol:PresaleManager",
        "label": "isRegistered",
        "offset": 0,
        "slot": "1",
        "type": "t_mapping(t_address,t_bool)"
      },
      {
        "astId": 27819,
        "contract": "contracts/presale-manager/PresaleManager.sol:PresaleManager",
        "label": "presales",
        "offset": 0,
        "slot": "2",
        "type": "t_mapping(t_address,t_address)"
      },
      {
        "astId": 27823,
        "contract": "contracts/presale-manager/PresaleManager.sol:PresaleManager",
        "label": "presalesByPool",
        "offset": 0,
        "slot": "3",
        "type": "t_mapping(t_address,t_address)"
      },
      {
        "astId": 27826,
        "contract": "contracts/presale-manager/PresaleManager.sol:PresaleManager",
        "label": "allPresales",
        "offset": 0,
        "slot": "4",
        "type": "t_array(t_address)dyn_storage"
      },
      {
        "astId": 27829,
        "contract": "contracts/presale-manager/PresaleManager.sol:PresaleManager",
        "label": "config",
        "offset": 0,
        "slot": "5",
        "type": "t_contract(Configuration)26883"
      }
    ],
    "types": {
      "t_address": {
        "encoding": "inplace",
        "label": "address",
        "numberOfBytes": "20"
      },
      "t_array(t_address)dyn_storage": {
        "base": "t_address",
        "encoding": "dynamic_array",
        "label": "address[]",
        "numberOfBytes": "32"
      },
      "t_bool": {
        "encoding": "inplace",
        "label": "bool",
        "numberOfBytes": "1"
      },
      "t_contract(Configuration)26883": {
        "encoding": "inplace",
        "label": "contract Configuration",
        "numberOfBytes": "20"
      },
      "t_mapping(t_address,t_address)": {
        "encoding": "mapping",
        "key": "t_address",
        "label": "mapping(address => address)",
        "numberOfBytes": "32",
        "value": "t_address"
      },
      "t_mapping(t_address,t_bool)": {
        "encoding": "mapping",
        "key": "t_address",
        "label": "mapping(address => bool)",
        "numberOfBytes": "32",
        "value": "t_bool"
      }
    }
  }
}