{
  "address": "0x00820Fd4D24BDe0924424aeBC671666FF86C0356",
  "abi": [
    {
      "inputs": [],
      "stateMutability": "nonpayable",
      "type": "constructor"
    },
    {
      "inputs": [
        {
          "internalType": "string",
          "name": "name",
          "type": "string"
        },
        {
          "internalType": "string",
          "name": "symbol",
          "type": "string"
        },
        {
          "internalType": "uint256",
          "name": "totalSupply",
          "type": "uint256"
        }
      ],
      "name": "create",
      "outputs": [
        {
          "internalType": "address",
          "name": "",
          "type": "address"
        }
      ],
      "stateMutability": "nonpayable",
      "type": "function"
    },
    {
      "inputs": [],
      "name": "implementation",
      "outputs": [
        {
          "internalType": "contract CommonToken",
          "name": "",
          "type": "address"
        }
      ],
      "stateMutability": "view",
      "type": "function"
    }
  ],
  "transactionHash": "0x3f415cb77feb4874ff46bc54b3b874815b515a7a20cd823dbbd75960958e0225",
  "args": [],
  "numDeployments": 1,
  "solcInputHash": "857f6750aaf88ea2f7c1a0515a6bc843",
  "bytecode": "0x60808060405234610085576112a58181016001600160401b0381118382101761006f578291610846833903906000f0801561006357600080546001600160a01b0319166001600160a01b03929092169190911790556040516107bb908161008b8239f35b6040513d6000823e3d90fd5b634e487b7160e01b600052604160045260246000fd5b600080fdfe6040608081526004908136101561001557600080fd5b600091823560e01c9081633ca6d100146100635750635c60da1b1461003957600080fd5b3461005f578160031936011261005f57905490516001600160a01b039091168152602090f35b5080fd5b83833461005f57606036600319011261005f5767ffffffffffffffff91833583811161005f5761009690369086016102d3565b9360248035858111610245576100af90369084016102d3565b8354855163588ca48760e11b602080830191909152606085830152986001600160a01b039392841692610118918391610102916100f090608485019061032f565b8381036023190160448501529061032f565b604435606483015203601f19810183528261029b565b86519161041690818401918483108b8411176102895761014a928594928b9261037087398152818d820152019061032f565b039085f08015610250571694853b1561024557845163f2fde38b60e01b815233848201529084828481838b5af1801561027f5761025a575b505083516370a0823160e01b815230838201529086828281895afa91821561025057849261021d575b5084519263a9059cbb60e01b84523390840152820152848160448185885af18015610213576101dd575b505051908152f35b8481813d831161020c575b6101f2818361029b565b8101031261005f57518015150361020957806101d5565b80fd5b503d6101e8565b83513d84823e3d90fd5b9091508681813d8311610249575b610235818361029b565b81010312610245575190876101ab565b8380fd5b503d61022b565b85513d86823e3d90fd5b819492941161026d578452918680610182565b50634e487b7160e01b81526041909152fd5b86513d87823e3d90fd5b634e487b7160e01b8952604188528689fd5b90601f8019910116810190811067ffffffffffffffff8211176102bd57604052565b634e487b7160e01b600052604160045260246000fd5b81601f8201121561032a5780359067ffffffffffffffff82116102bd5760405192610308601f8401601f19166020018561029b565b8284526020838301011161032a57816000926020809301838601378301015290565b600080fd5b919082519283825260005b84811061035b575050826000602080949584010152601f8019910116010190565b60208183018101518483018201520161033a56fe604060808152610416908138038061001681610218565b93843982019181818403126102135780516001600160a01b038116808203610213576020838101516001600160401b0394919391858211610213570186601f820112156102135780519061007161006c83610253565b610218565b918083528583019886828401011161021357888661008f930161026e565b813b156101b9577f360894a13ba1a3210667c828492db98dca3e2076cc3735a920a3ca505d382bbc80546001600160a01b031916841790556000927fbc7cd75a20ee27fd9adebab32041f755214dbc6bffa90cc0225b39da2e5c2d3b8480a28051158015906101b2575b61010b575b855160d190816103458239f35b855194606086019081118682101761019e578697849283926101889952602788527f416464726573733a206c6f772d6c6576656c2064656c65676174652063616c6c87890152660819985a5b195960ca1b8a8901525190845af4913d15610194573d9061017a61006c83610253565b91825281943d92013e610291565b508038808080806100fe565b5060609250610291565b634e487b7160e01b84526041600452602484fd5b50826100f9565b855162461bcd60e51b815260048101859052602d60248201527f455243313936373a206e657720696d706c656d656e746174696f6e206973206e60448201526c1bdd08184818dbdb9d1c9858dd609a1b6064820152608490fd5b600080fd5b6040519190601f01601f191682016001600160401b0381118382101761023d57604052565b634e487b7160e01b600052604160045260246000fd5b6001600160401b03811161023d57601f01601f191660200190565b60005b8381106102815750506000910152565b8181015183820152602001610271565b919290156102f357508151156102a5575090565b3b156102ae5790565b60405162461bcd60e51b815260206004820152601d60248201527f416464726573733a2063616c6c20746f206e6f6e2d636f6e74726163740000006044820152606490fd5b8251909150156103065750805190602001fd5b6044604051809262461bcd60e51b825260206004830152610336815180928160248601526020868601910161026e565b601f01601f19168101030190fdfe608060405236156054577f360894a13ba1a3210667c828492db98dca3e2076cc3735a920a3ca505d382bbc54600090819081906001600160a01b0316368280378136915af43d82803e156050573d90f35b3d90fd5b7f360894a13ba1a3210667c828492db98dca3e2076cc3735a920a3ca505d382bbc54600090819081906001600160a01b0316368280378136915af43d82803e156050573d90f3fea2646970667358221220625440684efb858c249dcec310da1a2b740e26994a6c8af7e1b69ae111f61f2d64736f6c63430008130033a2646970667358221220bf65607ece2bd8a5f4bf51638383bea79cf16d724edb3b21aa4d68782f804bb064736f6c634300081300336080806040523461001657611289908161001c8239f35b600080fdfe6080604081815260048036101561001557600080fd5b600092833560e01c90816306fdde0314610c4e57508063095ea7b314610c245780631473890d14610bd357806318160ddd14610bb457806323b872dd14610a5d578063313ce56714610a4157806339509351146109f1578063636d1bd6146109b857806370a0823114610980578063715018a6146109235780638da5cb5b146108fa57806395d89b4114610819578063a457c2d714610775578063a9059cbb1461068e578063b119490e146101bf578063dd62ed3e146101725763f2fde38b146100de57600080fd5b3461016e57602036600319011261016e576100f7610d3f565b91610100610ec3565b6001600160a01b0383161561011c578361011984610f1b565b80f35b906020608492519162461bcd60e51b8352820152602660248201527f4f776e61626c653a206e6577206f776e657220697320746865207a65726f206160448201526564647265737360d01b6064820152fd5b8280fd5b5050346101bb57806003193601126101bb5780602092610190610d3f565b610198610d5a565b6001600160a01b0391821683526034865283832091168252845220549051908152f35b5080fd5b50903461016e57606036600319011261016e5767ffffffffffffffff91803583811161068a576101f29036908301610da8565b602435848111610686576102099036908401610da8565b916044359186549560ff8760081c161594858096610679575b8015610662575b1561060857600197868960ff198316178b556105f7575b5061025a60ff8a5460081c1661025581610e63565b610e63565b82518281116105e4578061026f603654610f64565b94601f95868111610576575b506020908683116001146104f7578c926104ec575b5050600019600383901b1c191690891b176036555b80519182116104d95781906102bb603754610f64565b84811161046b575b506020908483116001146103ec578a926103e1575b5050600019600383901b1c191690871b176037555b61030160ff885460081c1661025581610e63565b61030a33610f1b565b331561039f57505061031e81603554610f9e565b60355533855260336020528285208181540190558251908152847fddf252ad1be2c89b69c2b068fc378daa952ba7f163c4a11628f55a4df523b3ef60203393a3610366578280f35b825461ff0019168355519081527f7f26b83ff96e1f2b6a682f133852f6798a09c465da95921460cefb384740249890602090a138808280f35b60649250602085519262461bcd60e51b845283015260248201527f45524332303a206d696e7420746f20746865207a65726f2061646472657373006044820152fd5b0151905038806102d8565b60378b528993507f42a7b7dd785cd69714a189dffb3fd7d7174edc9ece837694ce50f7078f7c31ae9190601f1984168c5b8181106104535750841161043a575b505050811b016037556102ed565b015160001960f88460031b161c1916905538808061042c565b8284015185558c96909401936020938401930161041d565b90915060378a527f42a7b7dd785cd69714a189dffb3fd7d7174edc9ece837694ce50f7078f7c31ae8480850160051c820192602086106104d0575b918b91869594930160051c01915b8281106104c25750506102c3565b8c81558594508b91016104b4565b925081926104a6565b634e487b7160e01b895260418452602489fd5b015190503880610290565b60368d528b93507f4a11f94e20a93c79f6ec743a1954ec4fc2c08429ae2122118bf234b2185c81b89190601f1984168e5b81811061055e57508411610545575b505050811b016036556102a5565b015160001960f88460031b161c19169055388080610537565b8284015185558e969094019360209384019301610528565b90915060368c527f4a11f94e20a93c79f6ec743a1954ec4fc2c08429ae2122118bf234b2185c81b88680850160051c820192602086106105db575b918d91869594930160051c01915b8281106105cd57505061027b565b8e81558594508d91016105bf565b925081926105b1565b634e487b7160e01b8a526041855260248afd5b61ffff191661010117895538610240565b865162461bcd60e51b8152602081860152602e60248201527f496e697469616c697a61626c653a20636f6e747261637420697320616c72656160448201526d191e481a5b9a5d1a585b1a5e995960921b6064820152608490fd5b50303b1580156102295750600160ff891614610229565b50600160ff891610610222565b8580fd5b8480fd5b5091346107725781600319360112610772576106a8610d3f565b600080516020611234833981519152546001600160a01b03908116801595929392909186156106f3575b6020866106ec876106e28b610e17565b6024359033610fc1565b5160018152f35b60209293965060249086519485938492630177b23360e71b84528816908301525afa908115610765576106ec92916106e29160209691610738575b50159482936106d2565b6107589150863d811161075e575b6107508183610d70565b810190610dff565b3861072e565b503d610746565b50505051903d90823e3d90fd5b80fd5b50823461077257826003193601126107725761078f610d3f565b918360243592338152603460205281812060018060a01b03861682526020522054908282106107c8576020856106ec8585038733611131565b608490602086519162461bcd60e51b8352820152602560248201527f45524332303a2064656372656173656420616c6c6f77616e63652062656c6f77604482015264207a65726f60d81b6064820152fd5b5050346101bb57816003193601126101bb578051908260375461083b81610f64565b808552916001918083169081156108d25750600114610875575b50505061086782610871940383610d70565b5191829182610cf6565b0390f35b9450603785527f42a7b7dd785cd69714a189dffb3fd7d7174edc9ece837694ce50f7078f7c31ae5b8286106108ba575050506108678260206108719582010194610855565b8054602087870181019190915290950194810161089d565b61087197508693506020925061086794915060ff191682840152151560051b82010194610855565b5050346101bb57816003193601126101bb5760655490516001600160a01b039091168152602090f35b833461077257806003193601126107725761093c610ec3565b606580546001600160a01b0319811690915581906001600160a01b03167f8be0079c531659141344cd1fd0a4f28419497f9722a3daafe3b4186f6b6457e08280a380f35b5050346101bb5760203660031901126101bb5760209181906001600160a01b036109a8610d3f565b1681526033845220549051908152f35b83346107725780600319360112610772576109d1610ec3565b60008051602061123483398151915280546001600160a01b031916905580f35b5050346101bb57806003193601126101bb576106ec602092610a3a610a14610d3f565b338352603486528483206001600160a01b03821684528652918490205460243590610f9e565b9033611131565b5050346101bb57816003193601126101bb576020905160128152f35b508290346101bb5760603660031901126101bb57610a79610d3f565b610a81610d5a565b91846044359460018060a01b038060008051602061123483398151915254168015908115610b4d575b50610ab490610e17565b8416815260346020528181203382526020522054906000198203610ae1575b6020866106ec878787610fc1565b848210610b0a5750918391610aff602096956106ec95033383611131565b919394819350610ad3565b606490602087519162461bcd60e51b8352820152601d60248201527f45524332303a20696e73756666696369656e7420616c6c6f77616e63650000006044820152fd5b6020915060249293945192838092630177b23360e71b8252868b16898301525afa908115610baa57839291610ab4918a9591610b8c575b501590610aaa565b610ba4915060203d811161075e576107508183610d70565b8a610b84565b88513d85823e3d90fd5b5050346101bb57816003193601126101bb576020906035549051908152f35b8382346101bb5760203660031901126101bb57356001600160a01b038116908190036101bb57610c01610ec3565b60008051602061123483398151915280546001600160a01b031916909117905580f35b5050346101bb57806003193601126101bb576020906106ec610c44610d3f565b6024359033611131565b8490843461016e578260031936011261016e5782603654610c6e81610f64565b808552916001918083169081156108d25750600114610c995750505061086782610871940383610d70565b9450603685527f4a11f94e20a93c79f6ec743a1954ec4fc2c08429ae2122118bf234b2185c81b85b828610610cde575050506108678260206108719582010194610855565b80546020878701810191909152909501948101610cc1565b6020808252825181830181905290939260005b828110610d2b57505060409293506000838284010152601f8019910116010190565b818101860151848201604001528501610d09565b600435906001600160a01b0382168203610d5557565b600080fd5b602435906001600160a01b0382168203610d5557565b90601f8019910116810190811067ffffffffffffffff821117610d9257604052565b634e487b7160e01b600052604160045260246000fd5b81601f82011215610d555780359067ffffffffffffffff8211610d925760405192610ddd601f8401601f191660200185610d70565b82845260208383010111610d5557816000926020809301838601378301015290565b90816020910312610d5557518015158103610d555790565b15610e1e57565b60405162461bcd60e51b815260206004820152601f60248201527f436f6d6d6f6e546f6b656e3a20746f20697320696e20626c61636b6c697374006044820152606490fd5b15610e6a57565b60405162461bcd60e51b815260206004820152602b60248201527f496e697469616c697a61626c653a20636f6e7472616374206973206e6f74206960448201526a6e697469616c697a696e6760a81b6064820152608490fd5b6065546001600160a01b03163303610ed757565b606460405162461bcd60e51b815260206004820152602060248201527f4f776e61626c653a2063616c6c6572206973206e6f7420746865206f776e65726044820152fd5b606580546001600160a01b039283166001600160a01b0319821681179092559091167f8be0079c531659141344cd1fd0a4f28419497f9722a3daafe3b4186f6b6457e0600080a3565b90600182811c92168015610f94575b6020831014610f7e57565b634e487b7160e01b600052602260045260246000fd5b91607f1691610f73565b91908201809211610fab57565b634e487b7160e01b600052601160045260246000fd5b6001600160a01b039081169182156110de571691821561108d576000828152603360205260408120549180831061103957604082827fddf252ad1be2c89b69c2b068fc378daa952ba7f163c4a11628f55a4df523b3ef95876020965260338652038282205586815220818154019055604051908152a3565b60405162461bcd60e51b815260206004820152602660248201527f45524332303a207472616e7366657220616d6f756e7420657863656564732062604482015265616c616e636560d01b6064820152608490fd5b60405162461bcd60e51b815260206004820152602360248201527f45524332303a207472616e7366657220746f20746865207a65726f206164647260448201526265737360e81b6064820152608490fd5b60405162461bcd60e51b815260206004820152602560248201527f45524332303a207472616e736665722066726f6d20746865207a65726f206164604482015264647265737360d81b6064820152608490fd5b6001600160a01b039081169182156111e257169182156111925760207f8c5be1e5ebec7d5bd14f71427d1e84f3dd0314c0f7b2291e5b200ac8c7c3b925918360005260348252604060002085600052825280604060002055604051908152a3565b60405162461bcd60e51b815260206004820152602260248201527f45524332303a20617070726f766520746f20746865207a65726f206164647265604482015261737360f01b6064820152608490fd5b60405162461bcd60e51b8152602060048201526024808201527f45524332303a20617070726f76652066726f6d20746865207a65726f206164646044820152637265737360e01b6064820152608490fdfe183a6125c38840424c4a85fa12bab2ab606c4b6d0e7cc73c0c06ba5300eab500a2646970667358221220cf0d9badc1c4128115d1df9ee9cffdec00b48711e5b5d463addca03dc912e1d564736f6c63430008130033",
  "devdoc": {
    "kind": "dev",
    "methods": {},
    "version": 1
  },
  "userdoc": {
    "kind": "user",
    "methods": {},
    "version": 1
  },
  "storageLayout": {
    "storage": [
      {
        "astId": 233,
        "contract": "@kayen/token/contracts/TokenFactory.sol:TokenFactory",
        "label": "implementation",
        "offset": 0,
        "slot": "0",
        "type": "t_contract(CommonToken)216"
      }
    ],
    "types": {
      "t_contract(CommonToken)216": {
        "encoding": "inplace",
        "label": "contract CommonToken",
        "numberOfBytes": "20"
      }
    }
  }
}